{
  "_format": "hh-sol-artifact-1",
  "contractName": "ModuleRegistry",
  "sourceName": "contracts/ModuleRegistry.sol",
  "abi": [
    {
      "anonymous": false,
      "inputs": [
        {
          "indexed": true,
          "internalType": "address",
          "name": "previousOwner",
          "type": "address"
        },
        {
          "indexed": true,
          "internalType": "address",
          "name": "newOwner",
          "type": "address"
        }
      ],
      "name": "OwnershipTransferred",
      "type": "event"
    },
    {
      "inputs": [
        {
          "internalType": "address",
          "name": "_module",
          "type": "address"
        }
      ],
      "name": "deregisterModule",
      "outputs": [],
      "stateMutability": "nonpayable",
      "type": "function"
    },
    {
      "inputs": [
        {
          "internalType": "address",
          "name": "_module",
          "type": "address"
        }
      ],
      "name": "isRegisteredModule",
      "outputs": [
        {
          "internalType": "bool",
          "name": "",
          "type": "bool"
        }
      ],
      "stateMutability": "view",
      "type": "function"
    },
    {
      "inputs": [
        {
          "internalType": "address",
          "name": "_module",
          "type": "address"
        }
      ],
      "name": "moduleName",
      "outputs": [
        {
          "internalType": "bytes32",
          "name": "",
          "type": "bytes32"
        }
      ],
      "stateMutability": "view",
      "type": "function"
    },
    {
      "inputs": [],
      "name": "owner",
      "outputs": [
        {
          "internalType": "address",
          "name": "",
          "type": "address"
        }
      ],
      "stateMutability": "view",
      "type": "function"
    },
    {
      "inputs": [
        {
          "internalType": "address",
          "name": "_module",
          "type": "address"
        },
        {
          "internalType": "bytes32",
          "name": "_name",
          "type": "bytes32"
        }
      ],
      "name": "registerModule",
      "outputs": [],
      "stateMutability": "nonpayable",
      "type": "function"
    },
    {
      "inputs": [],
      "name": "renounceOwnership",
      "outputs": [],
      "stateMutability": "nonpayable",
      "type": "function"
    },
    {
      "inputs": [
        {
          "internalType": "address",
          "name": "newOwner",
          "type": "address"
        }
      ],
      "name": "transferOwnership",
      "outputs": [],
      "stateMutability": "nonpayable",
      "type": "function"
    }
  ],
  "bytecode": "0x608060405234801561001057600080fd5b5061002d61002261003260201b60201c565b61003a60201b60201c565b6100fe565b600033905090565b60008060009054906101000a900473ffffffffffffffffffffffffffffffffffffffff169050816000806101000a81548173ffffffffffffffffffffffffffffffffffffffff021916908373ffffffffffffffffffffffffffffffffffffffff1602179055508173ffffffffffffffffffffffffffffffffffffffff168173ffffffffffffffffffffffffffffffffffffffff167f8be0079c531659141344cd1fd0a4f28419497f9722a3daafe3b4186f6b6457e060405160405180910390a35050565b610b188061010d6000396000f3fe608060405234801561001057600080fd5b506004361061007d5760003560e01c806378b1fa741161005b57806378b1fa74146100d85780638da5cb5b146100f4578063987fc32714610112578063f2fde38b146101425761007d565b80630bcd4ebb146100825780630f0356d0146100b2578063715018a6146100ce575b600080fd5b61009c600480360381019061009791906107a2565b61015e565b6040516100a991906108db565b60405180910390f35b6100cc60048036038101906100c791906107cb565b6101b7565b005b6100d661034b565b005b6100f260048036038101906100ed91906107a2565b6103d3565b005b6100fc61053f565b60405161010991906108c0565b60405180910390f35b61012c600480360381019061012791906107a2565b610568565b60405161013991906108f6565b60405180910390f35b61015c600480360381019061015791906107a2565b6105b4565b005b6000600160008373ffffffffffffffffffffffffffffffffffffffff1673ffffffffffffffffffffffffffffffffffffffff16815260200190815260200160002060000160009054906101000a900460ff169050919050565b6101bf6106ac565b73ffffffffffffffffffffffffffffffffffffffff166101dd61053f565b73ffffffffffffffffffffffffffffffffffffffff1614610233576040517f08c379a000000000000000000000000000000000000000000000000000000000815260040161022a90610971565b60405180910390fd5b600160008373ffffffffffffffffffffffffffffffffffffffff1673ffffffffffffffffffffffffffffffffffffffff16815260200190815260200160002060000160009054906101000a900460ff16156102c3576040517f08c379a00000000000000000000000000000000000000000000000000000000081526004016102ba90610931565b60405180910390fd5b604051806040016040528060011515815260200182815250600160008473ffffffffffffffffffffffffffffffffffffffff1673ffffffffffffffffffffffffffffffffffffffff16815260200190815260200160002060008201518160000160006101000a81548160ff021916908315150217905550602082015181600101559050505050565b6103536106ac565b73ffffffffffffffffffffffffffffffffffffffff1661037161053f565b73ffffffffffffffffffffffffffffffffffffffff16146103c7576040517f08c379a00000000000000000000000000000000000000000000000000000000081526004016103be90610971565b60405180910390fd5b6103d160006106b4565b565b6103db6106ac565b73ffffffffffffffffffffffffffffffffffffffff166103f961053f565b73ffffffffffffffffffffffffffffffffffffffff161461044f576040517f08c379a000000000000000000000000000000000000000000000000000000000815260040161044690610971565b60405180910390fd5b600160008273ffffffffffffffffffffffffffffffffffffffff1673ffffffffffffffffffffffffffffffffffffffff16815260200190815260200160002060000160009054906101000a900460ff166104de576040517f08c379a00000000000000000000000000000000000000000000000000000000081526004016104d590610951565b60405180910390fd5b600160008273ffffffffffffffffffffffffffffffffffffffff1673ffffffffffffffffffffffffffffffffffffffff168152602001908152602001600020600080820160006101000a81549060ff02191690556001820160009055505050565b60008060009054906101000a900473ffffffffffffffffffffffffffffffffffffffff16905090565b6000600160008373ffffffffffffffffffffffffffffffffffffffff1673ffffffffffffffffffffffffffffffffffffffff168152602001908152602001600020600101549050919050565b6105bc6106ac565b73ffffffffffffffffffffffffffffffffffffffff166105da61053f565b73ffffffffffffffffffffffffffffffffffffffff1614610630576040517f08c379a000000000000000000000000000000000000000000000000000000000815260040161062790610971565b60405180910390fd5b600073ffffffffffffffffffffffffffffffffffffffff168173ffffffffffffffffffffffffffffffffffffffff1614156106a0576040517f08c379a000000000000000000000000000000000000000000000000000000000815260040161069790610911565b60405180910390fd5b6106a9816106b4565b50565b600033905090565b60008060009054906101000a900473ffffffffffffffffffffffffffffffffffffffff169050816000806101000a81548173ffffffffffffffffffffffffffffffffffffffff021916908373ffffffffffffffffffffffffffffffffffffffff1602179055508173ffffffffffffffffffffffffffffffffffffffff168173ffffffffffffffffffffffffffffffffffffffff167f8be0079c531659141344cd1fd0a4f28419497f9722a3daafe3b4186f6b6457e060405160405180910390a35050565b60008135905061078781610ab4565b92915050565b60008135905061079c81610acb565b92915050565b6000602082840312156107b457600080fd5b60006107c284828501610778565b91505092915050565b600080604083850312156107de57600080fd5b60006107ec85828601610778565b92505060206107fd8582860161078d565b9150509250929050565b610810816109a2565b82525050565b61081f816109b4565b82525050565b61082e816109c0565b82525050565b6000610841602683610991565b915061084c826109ea565b604082019050919050565b6000610864601983610991565b915061086f82610a39565b602082019050919050565b6000610887601983610991565b915061089282610a62565b602082019050919050565b60006108aa602083610991565b91506108b582610a8b565b602082019050919050565b60006020820190506108d56000830184610807565b92915050565b60006020820190506108f06000830184610816565b92915050565b600060208201905061090b6000830184610825565b92915050565b6000602082019050818103600083015261092a81610834565b9050919050565b6000602082019050818103600083015261094a81610857565b9050919050565b6000602082019050818103600083015261096a8161087a565b9050919050565b6000602082019050818103600083015261098a8161089d565b9050919050565b600082825260208201905092915050565b60006109ad826109ca565b9050919050565b60008115159050919050565b6000819050919050565b600073ffffffffffffffffffffffffffffffffffffffff82169050919050565b7f4f776e61626c653a206e6577206f776e657220697320746865207a65726f206160008201527f6464726573730000000000000000000000000000000000000000000000000000602082015250565b7f4d523a206d6f64756c6520616c72656164792065786973747300000000000000600082015250565b7f4d523a206d6f64756c6520646f6573206e6f7420657869737400000000000000600082015250565b7f4f776e61626c653a2063616c6c6572206973206e6f7420746865206f776e6572600082015250565b610abd816109a2565b8114610ac857600080fd5b50565b610ad4816109c0565b8114610adf57600080fd5b5056fea2646970667358221220d8f86857766069cd422c719b58659a653bd61d83de8ef42fb64d4f08df09f75164736f6c63430008030033",
  "linkReferences": {},
  "deployedLinkReferences": {}
}