{
  "_format": "hh-sol-artifact-1",
  "contractName": "SecurityModule",
  "sourceName": "contracts/SecurityModule.sol",
  "abi": [
    {
      "inputs": [],
      "stateMutability": "nonpayable",
      "type": "constructor"
    },
    {
      "anonymous": false,
      "inputs": [
        {
          "indexed": false,
          "internalType": "address",
          "name": "to",
          "type": "address"
        },
        {
          "indexed": false,
          "internalType": "uint256",
          "name": "value",
          "type": "uint256"
        },
        {
          "indexed": false,
          "internalType": "bytes",
          "name": "data",
          "type": "bytes"
        }
      ],
      "name": "MultiCalled",
      "type": "event"
    },
    {
      "inputs": [
        {
          "internalType": "address",
          "name": "_wallet",
          "type": "address"
        },
        {
          "internalType": "address",
          "name": "_module",
          "type": "address"
        },
        {
          "internalType": "bytes",
          "name": "data",
          "type": "bytes"
        }
      ],
      "name": "addModule",
      "outputs": [],
      "stateMutability": "nonpayable",
      "type": "function"
    },
    {
      "inputs": [
        {
          "internalType": "address",
          "name": "_wallet",
          "type": "address"
        },
        {
          "internalType": "address",
          "name": "signer",
          "type": "address"
        }
      ],
      "name": "addSigner",
      "outputs": [],
      "stateMutability": "nonpayable",
      "type": "function"
    },
    {
      "inputs": [
        {
          "internalType": "address",
          "name": "_wallet",
          "type": "address"
        }
      ],
      "name": "cancelRecovery",
      "outputs": [],
      "stateMutability": "nonpayable",
      "type": "function"
    },
    {
      "inputs": [
        {
          "internalType": "address",
          "name": "_wallet",
          "type": "address"
        }
      ],
      "name": "executeRecovery",
      "outputs": [],
      "stateMutability": "nonpayable",
      "type": "function"
    },
    {
      "inputs": [
        {
          "internalType": "address[]",
          "name": "_signers",
          "type": "address[]"
        },
        {
          "internalType": "address",
          "name": "_signer",
          "type": "address"
        }
      ],
      "name": "findSigner",
      "outputs": [
        {
          "internalType": "bool",
          "name": "",
          "type": "bool"
        }
      ],
      "stateMutability": "pure",
      "type": "function"
    },
    {
      "inputs": [
        {
          "internalType": "address",
          "name": "_wallet",
          "type": "address"
        },
        {
          "internalType": "bytes",
          "name": "data",
          "type": "bytes"
        }
      ],
      "name": "init",
      "outputs": [],
      "stateMutability": "nonpayable",
      "type": "function"
    },
    {
      "inputs": [
        {
          "internalType": "contract IModuleRegistry",
          "name": "_registry",
          "type": "address"
        },
        {
          "internalType": "uint256",
          "name": "_locked_security_period",
          "type": "uint256"
        },
        {
          "internalType": "uint256",
          "name": "_recovery_security_period",
          "type": "uint256"
        }
      ],
      "name": "initialize",
      "outputs": [],
      "stateMutability": "nonpayable",
      "type": "function"
    },
    {
      "inputs": [
        {
          "internalType": "address",
          "name": "_wallet",
          "type": "address"
        }
      ],
      "name": "isInRecovery",
      "outputs": [
        {
          "internalType": "bool",
          "name": "",
          "type": "bool"
        }
      ],
      "stateMutability": "view",
      "type": "function"
    },
    {
      "inputs": [
        {
          "internalType": "address",
          "name": "_wallet",
          "type": "address"
        },
        {
          "internalType": "address",
          "name": "_signer",
          "type": "address"
        }
      ],
      "name": "isSigner",
      "outputs": [
        {
          "internalType": "bool",
          "name": "",
          "type": "bool"
        }
      ],
      "stateMutability": "view",
      "type": "function"
    },
    {
      "inputs": [
        {
          "internalType": "address",
          "name": "_wallet",
          "type": "address"
        }
      ],
      "name": "lock",
      "outputs": [],
      "stateMutability": "nonpayable",
      "type": "function"
    },
    {
      "inputs": [],
      "name": "locked_security_period",
      "outputs": [
        {
          "internalType": "uint256",
          "name": "",
          "type": "uint256"
        }
      ],
      "stateMutability": "view",
      "type": "function"
    },
    {
      "inputs": [
        {
          "internalType": "address",
          "name": "_wallet",
          "type": "address"
        },
        {
          "components": [
            {
              "internalType": "address",
              "name": "to",
              "type": "address"
            },
            {
              "internalType": "uint256",
              "name": "value",
              "type": "uint256"
            },
            {
              "internalType": "bytes",
              "name": "data",
              "type": "bytes"
            },
            {
              "internalType": "uint256",
              "name": "sequenceId",
              "type": "uint256"
            },
            {
              "internalType": "uint256",
              "name": "expireTime",
              "type": "uint256"
            }
          ],
          "internalType": "struct SecurityModule.CallArgs",
          "name": "_args",
          "type": "tuple"
        },
        {
          "internalType": "bytes",
          "name": "_signatures",
          "type": "bytes"
        }
      ],
      "name": "multicall",
      "outputs": [],
      "stateMutability": "nonpayable",
      "type": "function"
    },
    {
      "inputs": [
        {
          "internalType": "address",
          "name": "",
          "type": "address"
        }
      ],
      "name": "recoveries",
      "outputs": [
        {
          "internalType": "uint256",
          "name": "activeAt",
          "type": "uint256"
        },
        {
          "internalType": "address",
          "name": "recovery",
          "type": "address"
        }
      ],
      "stateMutability": "view",
      "type": "function"
    },
    {
      "inputs": [],
      "name": "recovery_security_period",
      "outputs": [
        {
          "internalType": "uint256",
          "name": "",
          "type": "uint256"
        }
      ],
      "stateMutability": "view",
      "type": "function"
    },
    {
      "inputs": [
        {
          "internalType": "address",
          "name": "_wallet",
          "type": "address"
        },
        {
          "internalType": "address",
          "name": "_oldSigner",
          "type": "address"
        }
      ],
      "name": "removeSigner",
      "outputs": [],
      "stateMutability": "nonpayable",
      "type": "function"
    },
    {
      "inputs": [
        {
          "internalType": "address",
          "name": "_wallet",
          "type": "address"
        },
        {
          "internalType": "address",
          "name": "_newSigner",
          "type": "address"
        },
        {
          "internalType": "address",
          "name": "_oldSigner",
          "type": "address"
        }
      ],
      "name": "replaceSigner",
      "outputs": [],
      "stateMutability": "nonpayable",
      "type": "function"
    },
    {
      "inputs": [
        {
          "internalType": "address",
          "name": "",
          "type": "address"
        }
      ],
      "name": "signerInfos",
      "outputs": [
        {
          "internalType": "bool",
          "name": "exist",
          "type": "bool"
        }
      ],
      "stateMutability": "view",
      "type": "function"
    },
    {
      "inputs": [
        {
          "internalType": "address",
          "name": "_wallet",
          "type": "address"
        },
        {
          "internalType": "address",
          "name": "_recovery",
          "type": "address"
        }
      ],
      "name": "triggerRecovery",
      "outputs": [],
      "stateMutability": "nonpayable",
      "type": "function"
    },
    {
      "inputs": [
        {
          "internalType": "address",
          "name": "_wallet",
          "type": "address"
        }
      ],
      "name": "unlock",
      "outputs": [],
      "stateMutability": "nonpayable",
      "type": "function"
    }
  ],
  "bytecode": "0x608060405234801561001057600080fd5b50614858806100206000396000f3fe608060405234801561001057600080fd5b50600436106101215760003560e01c80637b551f0d116100ad578063c90db44711610071578063c90db447146102ec578063cf0c137214610308578063e8b3a96614610339578063f435f5a714610357578063fc1d47b81461037357610121565b80637b551f0d1461024c57806383765b99146102685780638d20efa7146102845780638f29d530146102a0578063c0d91eaf146102d057610121565b80636fa30cd4116100f45780636fa30cd4146101aa57806371bf3af1146101c65780637846b9b9146101e257806378b248e4146102005780637a1ac61e1461023057610121565b80632239f556146101265780632f6c493c146101425780633bc2c4a71461015e5780635b1275331461017a575b600080fd5b610140600480360381019061013b91906130c7565b6103a3565b005b61015c60048036038101906101579190613075565b61074a565b005b61017860048036038101906101739190613075565b61097a565b005b610194600480360381019061018f9190613075565b610bd3565b6040516101a19190613a76565b60405180910390f35b6101c460048036038101906101bf9190613212565b610bfe565b005b6101e060048036038101906101db9190613152565b610fbe565b005b6101ea6111d9565b6040516101f79190613e36565b60405180910390f35b61021a600480360381019061021591906130c7565b6111df565b6040516102279190613a76565b60405180910390f35b61024a60048036038101906102459190613390565b6112be565b005b61026660048036038101906102619190613103565b6113ed565b005b610282600480360381019061027d91906130c7565b6117ac565b005b61029e600480360381019061029991906130c7565b611aff565b005b6102ba60048036038101906102b59190613075565b611f5f565b6040516102c79190613a76565b60405180910390f35b6102ea60048036038101906102e591906131be565b612038565b005b61030660048036038101906103019190613075565b6123f9565b005b610322600480360381019061031d9190613075565b612534565b604051610330929190613e51565b60405180910390f35b610341612578565b60405161034e9190613e36565b60405180910390f35b610371600480360381019061036c9190613075565b61257e565b005b61038d600480360381019061038891906132d2565b6126e9565b60405161039a9190613a76565b60405180910390f35b813373ffffffffffffffffffffffffffffffffffffffff168173ffffffffffffffffffffffffffffffffffffffff16638da5cb5b6040518163ffffffff1660e01b815260040160206040518083038186803b15801561040157600080fd5b505afa158015610415573d6000803e3d6000fd5b505050506040513d601f19601f82011682018060405250810190610439919061309e565b73ffffffffffffffffffffffffffffffffffffffff161461048f576040517f08c379a000000000000000000000000000000000000000000000000000000000815260040161048690613cf6565b60405180910390fd5b8261049981612797565b156104d9576040517f08c379a00000000000000000000000000000000000000000000000000000000081526004016104d090613cd6565b60405180910390fd5b6104e28461280d565b610521576040517f08c379a000000000000000000000000000000000000000000000000000000000815260040161051890613d16565b60405180910390fd5b600073ffffffffffffffffffffffffffffffffffffffff168373ffffffffffffffffffffffffffffffffffffffff1614158015610565575061056384846111df565b155b6105a4576040517f08c379a000000000000000000000000000000000000000000000000000000000815260040161059b90613d96565b60405180910390fd5b6000600760008673ffffffffffffffffffffffffffffffffffffffff1673ffffffffffffffffffffffffffffffffffffffff16815260200190815260200160002090508060010160009054906101000a900460ff16610638576040517f08c379a000000000000000000000000000000000000000000000000000000000815260040161062f90613cb6565b60405180910390fd5b80600001849080600181540180825580915050600190039060005260206000200160009091909190916101000a81548173ffffffffffffffffffffffffffffffffffffffff021916908373ffffffffffffffffffffffffffffffffffffffff16021790555080600760008773ffffffffffffffffffffffffffffffffffffffff1673ffffffffffffffffffffffffffffffffffffffff16815260200190815260200160002060008201816000019080546106f3929190612cb7565b506001820160009054906101000a900460ff168160010160006101000a81548160ff02191690831515021790555090505061074385600454426107369190613f3f565b632239f55660e01b6128e2565b5050505050565b803373ffffffffffffffffffffffffffffffffffffffff168173ffffffffffffffffffffffffffffffffffffffff16638da5cb5b6040518163ffffffff1660e01b815260040160206040518083038186803b1580156107a857600080fd5b505afa1580156107bc573d6000803e3d6000fd5b505050506040513d601f19601f820116820180604052508101906107e0919061309e565b73ffffffffffffffffffffffffffffffffffffffff161480610808575061080781336111df565b5b610847576040517f08c379a000000000000000000000000000000000000000000000000000000000815260040161083e90613c16565b60405180910390fd5b8161085181612797565b610890576040517f08c379a000000000000000000000000000000000000000000000000000000000815260040161088790613df6565b60405180910390fd5b63f435f5a760e01b7bffffffffffffffffffffffffffffffffffffffffffffffffffffffff1916600260008573ffffffffffffffffffffffffffffffffffffffff1673ffffffffffffffffffffffffffffffffffffffff16815260200190815260200160002060000160089054906101000a900460e01b7bffffffffffffffffffffffffffffffffffffffffffffffffffffffff191614610966576040517f08c379a000000000000000000000000000000000000000000000000000000000815260040161095d90613b56565b60405180910390fd5b6109758360008060e01b6128e2565b505050565b808073ffffffffffffffffffffffffffffffffffffffff163373ffffffffffffffffffffffffffffffffffffffff16146109e9576040517f08c379a00000000000000000000000000000000000000000000000000000000081526004016109e090613dd6565b60405180910390fd5b6109f282611f5f565b610a31576040517f08c379a0000000000000000000000000000000000000000000000000000000008152600401610a2890613ad6565b60405180910390fd5b6000600660008473ffffffffffffffffffffffffffffffffffffffff1673ffffffffffffffffffffffffffffffffffffffff168152602001908152602001600020604051806040016040529081600082015481526020016001820160009054906101000a900473ffffffffffffffffffffffffffffffffffffffff1673ffffffffffffffffffffffffffffffffffffffff1673ffffffffffffffffffffffffffffffffffffffff168152505090508273ffffffffffffffffffffffffffffffffffffffff1663a39a45b782602001516040518263ffffffff1660e01b8152600401610b1c9190613983565b600060405180830381600087803b158015610b3657600080fd5b505af1158015610b4a573d6000803e3d6000fd5b50505050600660008473ffffffffffffffffffffffffffffffffffffffff1673ffffffffffffffffffffffffffffffffffffffff1681526020019081526020016000206000808201600090556001820160006101000a81549073ffffffffffffffffffffffffffffffffffffffff02191690555050610bce8360008060e01b6128e2565b505050565b60076020528060005260406000206000915090508060010160009054906101000a900460ff16905081565b823373ffffffffffffffffffffffffffffffffffffffff168173ffffffffffffffffffffffffffffffffffffffff16638da5cb5b6040518163ffffffff1660e01b815260040160206040518083038186803b158015610c5c57600080fd5b505afa158015610c70573d6000803e3d6000fd5b505050506040513d601f19601f82011682018060405250810190610c94919061309e565b73ffffffffffffffffffffffffffffffffffffffff161480610cbc5750610cbb81336111df565b5b610cfb576040517f08c379a0000000000000000000000000000000000000000000000000000000008152600401610cf290613c16565b60405180910390fd5b6000600760008673ffffffffffffffffffffffffffffffffffffffff1673ffffffffffffffffffffffffffffffffffffffff16815260200190815260200160002090508060010160009054906101000a900460ff16610d8f576040517f08c379a0000000000000000000000000000000000000000000000000000000008152600401610d8690613c96565b60405180910390fd5b6000600260018360000180549050610da79190613f3f565b610db19190613f95565b9050600060418551610dc39190613f95565b905081811015610e08576040517f08c379a0000000000000000000000000000000000000000000000000000000008152600401610dff90613db6565b60405180910390fd5b6000610e13876129ba565b905060008060005b84811015610f7c576000610e30858b84612a23565b90508273ffffffffffffffffffffffffffffffffffffffff168173ffffffffffffffffffffffffffffffffffffffff1611610ea0576040517f08c379a0000000000000000000000000000000000000000000000000000000008152600401610e9790613b96565b60405180910390fd5b809250610f3588600001805480602002602001604051908101604052809291908181526020018280548015610f2a57602002820191906000526020600020905b8160009054906101000a900473ffffffffffffffffffffffffffffffffffffffff1673ffffffffffffffffffffffffffffffffffffffff1681526020019060010190808311610ee0575b5050505050826126e9565b15610f6857600184610f479190613f3f565b9350868410610f6757610f5a8c8c612ac0565b5050505050505050610fb8565b5b508080610f749061410a565b915050610e1b565b506040517f08c379a0000000000000000000000000000000000000000000000000000000008152600401610faf90613c36565b60405180910390fd5b50505050565b838073ffffffffffffffffffffffffffffffffffffffff163373ffffffffffffffffffffffffffffffffffffffff161461102d576040517f08c379a000000000000000000000000000000000000000000000000000000000815260040161102490613dd6565b60405180910390fd5b8461103781612797565b15611077576040517f08c379a000000000000000000000000000000000000000000000000000000000815260040161106e90613cd6565b60405180910390fd5b60008054906101000a900473ffffffffffffffffffffffffffffffffffffffff1673ffffffffffffffffffffffffffffffffffffffff16630bcd4ebb866040518263ffffffff1660e01b81526004016110d09190613983565b60206040518083038186803b1580156110e857600080fd5b505afa1580156110fc573d6000803e3d6000fd5b505050506040513d601f19601f820116820180604052508101906111209190613326565b61115f576040517f08c379a000000000000000000000000000000000000000000000000000000000815260040161115690613c76565b60405180910390fd5b8573ffffffffffffffffffffffffffffffffffffffff1663904723e486600187876040518563ffffffff1660e01b815260040161119f949392919061399e565b600060405180830381600087803b1580156111b957600080fd5b505af11580156111cd573d6000803e3d6000fd5b50505050505050505050565b60045481565b600080600760008573ffffffffffffffffffffffffffffffffffffffff1673ffffffffffffffffffffffffffffffffffffffff16815260200190815260200160002090506112b5816000018054806020026020016040519081016040528092919081815260200182805480156112aa57602002820191906000526020600020905b8160009054906101000a900473ffffffffffffffffffffffffffffffffffffffff1673ffffffffffffffffffffffffffffffffffffffff1681526020019060010190808311611260575b5050505050846126e9565b91505092915050565b600360019054906101000a900460ff16806112e65750600360009054906101000a900460ff16155b611325576040517f08c379a000000000000000000000000000000000000000000000000000000000815260040161131c90613c56565b60405180910390fd5b6000600360019054906101000a900460ff161590508015611377576001600360016101000a81548160ff0219169083151502179055506001600360006101000a81548160ff0219169083151502179055505b836000806101000a81548173ffffffffffffffffffffffffffffffffffffffff021916908373ffffffffffffffffffffffffffffffffffffffff160217905550826004819055508160058190555080156113e7576000600360016101000a81548160ff0219169083151502179055505b50505050565b823373ffffffffffffffffffffffffffffffffffffffff168173ffffffffffffffffffffffffffffffffffffffff16638da5cb5b6040518163ffffffff1660e01b815260040160206040518083038186803b15801561144b57600080fd5b505afa15801561145f573d6000803e3d6000fd5b505050506040513d601f19601f82011682018060405250810190611483919061309e565b73ffffffffffffffffffffffffffffffffffffffff16146114d9576040517f08c379a00000000000000000000000000000000000000000000000000000000081526004016114d090613cf6565b60405180910390fd5b6114e28461280d565b611521576040517f08c379a000000000000000000000000000000000000000000000000000000000815260040161151890613d16565b60405180910390fd5b600073ffffffffffffffffffffffffffffffffffffffff168373ffffffffffffffffffffffffffffffffffffffff1614158015611564575061156384836111df565b5b6115a3576040517f08c379a000000000000000000000000000000000000000000000000000000000815260040161159a90613d96565b60405180910390fd5b6000600760008673ffffffffffffffffffffffffffffffffffffffff1673ffffffffffffffffffffffffffffffffffffffff16815260200190815260200160002090508060010160009054906101000a900460ff16611637576040517f08c379a000000000000000000000000000000000000000000000000000000000815260040161162e90613b36565b60405180910390fd5b60006001826000018054905061164d9190613fc6565b905060005b600183600001805490506116669190613fc6565b8110156117a3578260000181815481106116a9577f4e487b7100000000000000000000000000000000000000000000000000000000600052603260045260246000fd5b9060005260206000200160009054906101000a900473ffffffffffffffffffffffffffffffffffffffff1673ffffffffffffffffffffffffffffffffffffffff168573ffffffffffffffffffffffffffffffffffffffff1614156117905785836000018281548110611744577f4e487b7100000000000000000000000000000000000000000000000000000000600052603260045260246000fd5b9060005260206000200160006101000a81548173ffffffffffffffffffffffffffffffffffffffff021916908373ffffffffffffffffffffffffffffffffffffffff1602179055508190505b808061179b9061410a565b915050611652565b50505050505050565b818073ffffffffffffffffffffffffffffffffffffffff163373ffffffffffffffffffffffffffffffffffffffff161461181b576040517f08c379a000000000000000000000000000000000000000000000000000000000815260040161181290613dd6565b60405180910390fd5b600073ffffffffffffffffffffffffffffffffffffffff168273ffffffffffffffffffffffffffffffffffffffff16141561188b576040517f08c379a000000000000000000000000000000000000000000000000000000000815260040161188290613b16565b60405180910390fd5b8273ffffffffffffffffffffffffffffffffffffffff16638da5cb5b6040518163ffffffff1660e01b815260040160206040518083038186803b1580156118d157600080fd5b505afa1580156118e5573d6000803e3d6000fd5b505050506040513d601f19601f82011682018060405250810190611909919061309e565b73ffffffffffffffffffffffffffffffffffffffff168273ffffffffffffffffffffffffffffffffffffffff161415611977576040517f08c379a000000000000000000000000000000000000000000000000000000000815260040161196e90613b76565b60405180910390fd5b61198183836111df565b156119c1576040517f08c379a00000000000000000000000000000000000000000000000000000000081526004016119b890613af6565b60405180910390fd5b6119ca83611f5f565b15611a0a576040517f08c379a0000000000000000000000000000000000000000000000000000000008152600401611a0190613bd6565b60405180910390fd5b611a298360045442611a1c9190613f3f565b6383765b9960e01b6128e2565b600060055442611a399190613f3f565b905060405180604001604052808281526020018473ffffffffffffffffffffffffffffffffffffffff16815250600660008673ffffffffffffffffffffffffffffffffffffffff1673ffffffffffffffffffffffffffffffffffffffff1681526020019081526020016000206000820151816000015560208201518160010160006101000a81548173ffffffffffffffffffffffffffffffffffffffff021916908373ffffffffffffffffffffffffffffffffffffffff16021790555090505050505050565b813373ffffffffffffffffffffffffffffffffffffffff168173ffffffffffffffffffffffffffffffffffffffff16638da5cb5b6040518163ffffffff1660e01b815260040160206040518083038186803b158015611b5d57600080fd5b505afa158015611b71573d6000803e3d6000fd5b505050506040513d601f19601f82011682018060405250810190611b95919061309e565b73ffffffffffffffffffffffffffffffffffffffff1614611beb576040517f08c379a0000000000000000000000000000000000000000000000000000000008152600401611be290613cf6565b60405180910390fd5b611bf48361280d565b611c33576040517f08c379a0000000000000000000000000000000000000000000000000000000008152600401611c2a90613d16565b60405180910390fd5b611c3d83836111df565b611c7c576040517f08c379a0000000000000000000000000000000000000000000000000000000008152600401611c7390613d36565b60405180910390fd5b6000600760008573ffffffffffffffffffffffffffffffffffffffff1673ffffffffffffffffffffffffffffffffffffffff16815260200190815260200160002090508060010160009054906101000a900460ff16611d10576040517f08c379a0000000000000000000000000000000000000000000000000000000008152600401611d0790613b36565b60405180910390fd5b600060018260000180549050611d269190613fc6565b90506000826000018281548110611d66577f4e487b7100000000000000000000000000000000000000000000000000000000600052603260045260246000fd5b9060005260206000200160009054906101000a900473ffffffffffffffffffffffffffffffffffffffff16905060005b60018460000180549050611daa9190613fc6565b811015611ee757836000018181548110611ded577f4e487b7100000000000000000000000000000000000000000000000000000000600052603260045260246000fd5b9060005260206000200160009054906101000a900473ffffffffffffffffffffffffffffffffffffffff1673ffffffffffffffffffffffffffffffffffffffff168673ffffffffffffffffffffffffffffffffffffffff161415611ed45781846000018281548110611e88577f4e487b7100000000000000000000000000000000000000000000000000000000600052603260045260246000fd5b9060005260206000200160006101000a81548173ffffffffffffffffffffffffffffffffffffffff021916908373ffffffffffffffffffffffffffffffffffffffff1602179055508290505b8080611edf9061410a565b915050611d96565b5082600001805480611f22577f4e487b7100000000000000000000000000000000000000000000000000000000600052603160045260246000fd5b6001900381819060005260206000200160006101000a81549073ffffffffffffffffffffffffffffffffffffffff02191690559055505050505050565b600080600660008473ffffffffffffffffffffffffffffffffffffffff1673ffffffffffffffffffffffffffffffffffffffff168152602001908152602001600020604051806040016040529081600082015481526020016001820160009054906101000a900473ffffffffffffffffffffffffffffffffffffffff1673ffffffffffffffffffffffffffffffffffffffff1673ffffffffffffffffffffffffffffffffffffffff16815250509050600081600001511415801561203057504267ffffffffffffffff168160000151115b915050919050565b818073ffffffffffffffffffffffffffffffffffffffff163373ffffffffffffffffffffffffffffffffffffffff16146120a7576040517f08c379a000000000000000000000000000000000000000000000000000000000815260040161209e90613dd6565b60405180910390fd5b6120b08361280d565b156120f0576040517f08c379a00000000000000000000000000000000000000000000000000000000081526004016120e790613bf6565b60405180910390fd5b600760008473ffffffffffffffffffffffffffffffffffffffff1673ffffffffffffffffffffffffffffffffffffffff16815260200190815260200160002060010160009054906101000a900460ff1615612180576040517f08c379a000000000000000000000000000000000000000000000000000000000815260040161217790613d56565b60405180910390fd5b61218983612bca565b60008280602001905181019061219f9190613291565b90506000600760008673ffffffffffffffffffffffffffffffffffffffff1673ffffffffffffffffffffffffffffffffffffffff168152602001908152602001600020905060005b82518110156123d4578160000183828151811061222d577f4e487b7100000000000000000000000000000000000000000000000000000000600052603260045260246000fd5b60200260200101519080600181540180825580915050600190039060005260206000200160009091909190916101000a81548173ffffffffffffffffffffffffffffffffffffffff021916908373ffffffffffffffffffffffffffffffffffffffff1602179055508573ffffffffffffffffffffffffffffffffffffffff16638da5cb5b6040518163ffffffff1660e01b815260040160206040518083038186803b1580156122db57600080fd5b505afa1580156122ef573d6000803e3d6000fd5b505050506040513d601f19601f82011682018060405250810190612313919061309e565b73ffffffffffffffffffffffffffffffffffffffff16838281518110612362577f4e487b7100000000000000000000000000000000000000000000000000000000600052603260045260246000fd5b602002602001015173ffffffffffffffffffffffffffffffffffffffff1614156123c1576040517f08c379a00000000000000000000000000000000000000000000000000000000081526004016123b890613bb6565b60405180910390fd5b80806123cc9061410a565b9150506121e7565b5060018160010160006101000a81548160ff0219169083151502179055505050505050565b808073ffffffffffffffffffffffffffffffffffffffff163373ffffffffffffffffffffffffffffffffffffffff1614612468576040517f08c379a000000000000000000000000000000000000000000000000000000000815260040161245f90613dd6565b60405180910390fd5b61247182611f5f565b6124b0576040517f08c379a00000000000000000000000000000000000000000000000000000000081526004016124a790613d76565b60405180910390fd5b600660008373ffffffffffffffffffffffffffffffffffffffff1673ffffffffffffffffffffffffffffffffffffffff1681526020019081526020016000206000808201600090556001820160006101000a81549073ffffffffffffffffffffffffffffffffffffffff021916905550506125308260008060e01b6128e2565b5050565b60066020528060005260406000206000915090508060000154908060010160009054906101000a900473ffffffffffffffffffffffffffffffffffffffff16905082565b60055481565b803373ffffffffffffffffffffffffffffffffffffffff168173ffffffffffffffffffffffffffffffffffffffff16638da5cb5b6040518163ffffffff1660e01b815260040160206040518083038186803b1580156125dc57600080fd5b505afa1580156125f0573d6000803e3d6000fd5b505050506040513d601f19601f82011682018060405250810190612614919061309e565b73ffffffffffffffffffffffffffffffffffffffff16148061263c575061263b81336111df565b5b61267b576040517f08c379a000000000000000000000000000000000000000000000000000000000815260040161267290613c16565b60405180910390fd5b8161268581612797565b156126c5576040517f08c379a00000000000000000000000000000000000000000000000000000000081526004016126bc90613cd6565b60405180910390fd5b6126e483600454426126d79190613f3f565b63f435f5a760e01b6128e2565b505050565b600080600090505b835181101561278b578273ffffffffffffffffffffffffffffffffffffffff1684828151811061274a577f4e487b7100000000000000000000000000000000000000000000000000000000600052603260045260246000fd5b602002602001015173ffffffffffffffffffffffffffffffffffffffff161415612778576001915050612791565b80806127839061410a565b9150506126f1565b50600090505b92915050565b60004267ffffffffffffffff16600260008473ffffffffffffffffffffffffffffffffffffffff1673ffffffffffffffffffffffffffffffffffffffff16815260200190815260200160002060000160009054906101000a900467ffffffffffffffff1667ffffffffffffffff16119050919050565b600080600090505b6001805490508110156128d7578273ffffffffffffffffffffffffffffffffffffffff1660018281548110612873577f4e487b7100000000000000000000000000000000000000000000000000000000600052603260045260246000fd5b9060005260206000200160009054906101000a900473ffffffffffffffffffffffffffffffffffffffff1673ffffffffffffffffffffffffffffffffffffffff1614156128c45760019150506128dd565b80806128cf9061410a565b915050612815565b50600090505b919050565b60405180604001604052808367ffffffffffffffff168152602001827bffffffffffffffffffffffffffffffffffffffffffffffffffffffff1916815250600260008573ffffffffffffffffffffffffffffffffffffffff1673ffffffffffffffffffffffffffffffffffffffff16815260200190815260200160002060008201518160000160006101000a81548167ffffffffffffffff021916908367ffffffffffffffff16021790555060208201518160000160086101000a81548163ffffffff021916908360e01c0217905550905050505050565b60008082600001519050600083602001519050600084604001519050600085606001519050601960f81b600060f81b85858585604051602001612a02969594939291906138f1565b60405160208183030381529060405280519060200120945050505050919050565b600080600080612a338686612c30565b809350819450829550505050600187604051602001612a52919061395d565b6040516020818303038152906040528051906020012084848460405160008152602001604052604051612a889493929190613a91565b6020604051602081039080840390855afa158015612aaa573d6000803e3d6000fd5b5050506020604051035193505050509392505050565b6000816000015190506000826020015190506000836040015190506000846060015190506000856080015190508673ffffffffffffffffffffffffffffffffffffffff1663b14f6c8386868685876040518663ffffffff1660e01b8152600401612b2e959493929190613a1c565b600060405180830381600087803b158015612b4857600080fd5b505af1158015612b5c573d6000803e3d6000fd5b505050506040513d6000823e3d601f19601f82011682018060405250810190612b85919061334f565b507f16a95b1f4b59f6a32941b3b48a50be9d4d9f9c4da4cb504681489daabf991928858585604051612bb9939291906139de565b60405180910390a150505050505050565b6001819080600181540180825580915050600190039060005260206000200160009091909190916101000a81548173ffffffffffffffffffffffffffffffffffffffff021916908373ffffffffffffffffffffffffffffffffffffffff16021790555050565b600080600083604102602001850151915083604102604001850151905060ff84604102604101860151169250601b8360ff161480612c715750601c8360ff16145b612cb0576040517f08c379a0000000000000000000000000000000000000000000000000000000008152600401612ca790613e16565b60405180910390fd5b9250925092565b828054828255906000526020600020908101928215612cf85760005260206000209182015b82811115612cf7578254825591600101919060010190612cdc565b5b509050612d059190612d09565b5090565b5b80821115612d22576000816000905550600101612d0a565b5090565b6000612d39612d3484613e9f565b613e7a565b90508083825260208201905082856020860282011115612d5857600080fd5b60005b85811015612d885781612d6e8882612e7a565b845260208401935060208301925050600181019050612d5b565b5050509392505050565b6000612da5612da084613e9f565b613e7a565b90508083825260208201905082856020860282011115612dc457600080fd5b60005b85811015612df45781612dda8882612e8f565b845260208401935060208301925050600181019050612dc7565b5050509392505050565b6000612e11612e0c84613ecb565b613e7a565b905082815260208101848484011115612e2957600080fd5b612e34848285614097565b509392505050565b6000612e4f612e4a84613ecb565b613e7a565b905082815260208101848484011115612e6757600080fd5b612e728482856140a6565b509392505050565b600081359050612e89816147c6565b92915050565b600081519050612e9e816147c6565b92915050565b600082601f830112612eb557600080fd5b8135612ec5848260208601612d26565b91505092915050565b600082601f830112612edf57600080fd5b8151612eef848260208601612d92565b91505092915050565b600081519050612f07816147dd565b92915050565b60008083601f840112612f1f57600080fd5b8235905067ffffffffffffffff811115612f3857600080fd5b602083019150836001820283011115612f5057600080fd5b9250929050565b600082601f830112612f6857600080fd5b8135612f78848260208601612dfe565b91505092915050565b600082601f830112612f9257600080fd5b8151612fa2848260208601612e3c565b91505092915050565b600081359050612fba816147f4565b92915050565b600060a08284031215612fd257600080fd5b612fdc60a0613e7a565b90506000612fec84828501612e7a565b600083015250602061300084828501613060565b602083015250604082013567ffffffffffffffff81111561302057600080fd5b61302c84828501612f57565b604083015250606061304084828501613060565b606083015250608061305484828501613060565b60808301525092915050565b60008135905061306f8161480b565b92915050565b60006020828403121561308757600080fd5b600061309584828501612e7a565b91505092915050565b6000602082840312156130b057600080fd5b60006130be84828501612e8f565b91505092915050565b600080604083850312156130da57600080fd5b60006130e885828601612e7a565b92505060206130f985828601612e7a565b9150509250929050565b60008060006060848603121561311857600080fd5b600061312686828701612e7a565b935050602061313786828701612e7a565b925050604061314886828701612e7a565b9150509250925092565b6000806000806060858703121561316857600080fd5b600061317687828801612e7a565b945050602061318787828801612e7a565b935050604085013567ffffffffffffffff8111156131a457600080fd5b6131b087828801612f0d565b925092505092959194509250565b600080604083850312156131d157600080fd5b60006131df85828601612e7a565b925050602083013567ffffffffffffffff8111156131fc57600080fd5b61320885828601612f57565b9150509250929050565b60008060006060848603121561322757600080fd5b600061323586828701612e7a565b935050602084013567ffffffffffffffff81111561325257600080fd5b61325e86828701612fc0565b925050604084013567ffffffffffffffff81111561327b57600080fd5b61328786828701612f57565b9150509250925092565b6000602082840312156132a357600080fd5b600082015167ffffffffffffffff8111156132bd57600080fd5b6132c984828501612ece565b91505092915050565b600080604083850312156132e557600080fd5b600083013567ffffffffffffffff8111156132ff57600080fd5b61330b85828601612ea4565b925050602061331c85828601612e7a565b9150509250929050565b60006020828403121561333857600080fd5b600061334684828501612ef8565b91505092915050565b60006020828403121561336157600080fd5b600082015167ffffffffffffffff81111561337b57600080fd5b61338784828501612f81565b91505092915050565b6000806000606084860312156133a557600080fd5b60006133b386828701612fab565b93505060206133c486828701613060565b92505060406133d586828701613060565b9150509250925092565b6133e881613ffa565b82525050565b6133ff6133fa82613ffa565b614153565b82525050565b61340e8161400c565b82525050565b61342561342082614018565b614165565b82525050565b61343481614044565b82525050565b61344b61344682614044565b61416f565b82525050565b600061345d8385613f07565b935061346a838584614097565b61347383614222565b840190509392505050565b600061348982613efc565b6134938185613f07565b93506134a38185602086016140a6565b6134ac81614222565b840191505092915050565b60006134c282613efc565b6134cc8185613f18565b93506134dc8185602086016140a6565b80840191505092915050565b60006134f5601b83613f23565b915061350082614240565b602082019050919050565b6000613518602883613f23565b915061352382614269565b604082019050919050565b600061353b601683613f23565b9150613546826142b8565b602082019050919050565b600061355e601283613f23565b9150613569826142e1565b602082019050919050565b6000613581601c83613f34565b915061358c8261430a565b601c82019050919050565b60006135a4601183613f23565b91506135af82614333565b602082019050919050565b60006135c7602483613f23565b91506135d28261435c565b604082019050919050565b60006135ea601c83613f23565b91506135f5826143ab565b602082019050919050565b600061360d601a83613f23565b9150613618826143d4565b602082019050919050565b6000613630601c83613f23565b915061363b826143fd565b602082019050919050565b6000613653602e83613f23565b915061365e82614426565b604082019050919050565b6000613676601983613f23565b915061368182614475565b602082019050919050565b6000613699601f83613f23565b91506136a48261449e565b602082019050919050565b60006136bc602e83613f23565b91506136c7826144c7565b604082019050919050565b60006136df601c83613f23565b91506136ea82614516565b602082019050919050565b6000613702601283613f23565b915061370d8261453f565b602082019050919050565b6000613725602583613f23565b915061373082614568565b604082019050919050565b6000613748601183613f23565b9150613753826145b7565b602082019050919050565b600061376b601183613f23565b9150613776826145e0565b602082019050919050565b600061378e603583613f23565b915061379982614609565b604082019050919050565b60006137b1601583613f23565b91506137bc82614658565b602082019050919050565b60006137d4602083613f23565b91506137df82614681565b602082019050919050565b60006137f7601283613f23565b9150613802826146aa565b602082019050919050565b600061381a602a83613f23565b9150613825826146d3565b604082019050919050565b600061383d601983613f23565b915061384882614722565b602082019050919050565b6000613860601983613f23565b915061386b8261474b565b602082019050919050565b6000613883601983613f23565b915061388e82614774565b602082019050919050565b60006138a6600d83613f23565b91506138b18261479d565b602082019050919050565b6138c581614080565b82525050565b6138dc6138d782614080565b61418b565b82525050565b6138eb8161408a565b82525050565b60006138fd8289613414565b60018201915061390d8288613414565b60018201915061391d82876133ee565b60148201915061392d82866138cb565b60208201915061393d82856134b7565b915061394982846138cb565b602082019150819050979650505050505050565b600061396882613574565b9150613974828461343a565b60208201915081905092915050565b600060208201905061399860008301846133df565b92915050565b60006060820190506139b360008301876133df565b6139c06020830186613405565b81810360408301526139d3818486613451565b905095945050505050565b60006060820190506139f360008301866133df565b613a0060208301856138bc565b8181036040830152613a12818461347e565b9050949350505050565b600060a082019050613a3160008301886133df565b613a3e60208301876138bc565b8181036040830152613a50818661347e565b9050613a5f60608301856138bc565b613a6c60808301846138bc565b9695505050505050565b6000602082019050613a8b6000830184613405565b92915050565b6000608082019050613aa6600083018761342b565b613ab360208301866138e2565b613ac0604083018561342b565b613acd606083018461342b565b95945050505050565b60006020820190508181036000830152613aef816134e8565b9050919050565b60006020820190508181036000830152613b0f8161350b565b9050919050565b60006020820190508181036000830152613b2f8161352e565b9050919050565b60006020820190508181036000830152613b4f81613551565b9050919050565b60006020820190508181036000830152613b6f81613597565b9050919050565b60006020820190508181036000830152613b8f816135ba565b9050919050565b60006020820190508181036000830152613baf816135dd565b9050919050565b60006020820190508181036000830152613bcf81613600565b9050919050565b60006020820190508181036000830152613bef81613623565b9050919050565b60006020820190508181036000830152613c0f81613646565b9050919050565b60006020820190508181036000830152613c2f81613669565b9050919050565b60006020820190508181036000830152613c4f8161368c565b9050919050565b60006020820190508181036000830152613c6f816136af565b9050919050565b60006020820190508181036000830152613c8f816136d2565b9050919050565b60006020820190508181036000830152613caf816136f5565b9050919050565b60006020820190508181036000830152613ccf81613718565b9050919050565b60006020820190508181036000830152613cef8161373b565b9050919050565b60006020820190508181036000830152613d0f8161375e565b9050919050565b60006020820190508181036000830152613d2f81613781565b9050919050565b60006020820190508181036000830152613d4f816137a4565b9050919050565b60006020820190508181036000830152613d6f816137c7565b9050919050565b60006020820190508181036000830152613d8f816137ea565b9050919050565b60006020820190508181036000830152613daf8161380d565b9050919050565b60006020820190508181036000830152613dcf81613830565b9050919050565b60006020820190508181036000830152613def81613853565b9050919050565b60006020820190508181036000830152613e0f81613876565b9050919050565b60006020820190508181036000830152613e2f81613899565b9050919050565b6000602082019050613e4b60008301846138bc565b92915050565b6000604082019050613e6660008301856138bc565b613e7360208301846133df565b9392505050565b6000613e84613e95565b9050613e9082826140d9565b919050565b6000604051905090565b600067ffffffffffffffff821115613eba57613eb96141f3565b5b602082029050602081019050919050565b600067ffffffffffffffff821115613ee657613ee56141f3565b5b613eef82614222565b9050602081019050919050565b600081519050919050565b600082825260208201905092915050565b600081905092915050565b600082825260208201905092915050565b600081905092915050565b6000613f4a82614080565b9150613f5583614080565b9250827fffffffffffffffffffffffffffffffffffffffffffffffffffffffffffffffff03821115613f8a57613f89614195565b5b828201905092915050565b6000613fa082614080565b9150613fab83614080565b925082613fbb57613fba6141c4565b5b828204905092915050565b6000613fd182614080565b9150613fdc83614080565b925082821015613fef57613fee614195565b5b828203905092915050565b600061400582614060565b9050919050565b60008115159050919050565b60007fff0000000000000000000000000000000000000000000000000000000000000082169050919050565b6000819050919050565b600061405982613ffa565b9050919050565b600073ffffffffffffffffffffffffffffffffffffffff82169050919050565b6000819050919050565b600060ff82169050919050565b82818337600083830152505050565b60005b838110156140c45780820151818401526020810190506140a9565b838111156140d3576000848401525b50505050565b6140e282614222565b810181811067ffffffffffffffff82111715614101576141006141f3565b5b80604052505050565b600061411582614080565b91507fffffffffffffffffffffffffffffffffffffffffffffffffffffffffffffffff82141561414857614147614195565b5b600182019050919050565b600061415e82614179565b9050919050565b6000819050919050565b6000819050919050565b600061418482614233565b9050919050565b6000819050919050565b7f4e487b7100000000000000000000000000000000000000000000000000000000600052601160045260246000fd5b7f4e487b7100000000000000000000000000000000000000000000000000000000600052601260045260246000fd5b7f4e487b7100000000000000000000000000000000000000000000000000000000600052604160045260246000fd5b6000601f19601f8301169050919050565b60008160601b9050919050565b7f534d3a204e6f2076616c6964207265636f7665727920666f756e640000000000600082015250565b7f534d3a206e65774f776e65722063616e277420626520616e206578697374696e60008201527f67207369676e6572000000000000000000000000000000000000000000000000602082015250565b7f534d3a20496e76616c6964206e6577207369676e657200000000000000000000600082015250565b7f534d3a20496e76616c69642077616c6c65740000000000000000000000000000600082015250565b7f19457468657265756d205369676e6564204d6573736167653a0a333200000000600082015250565b7f534d3a2063616e6e6f7420756e6c6f636b000000000000000000000000000000600082015250565b7f534d3a206f776e65722063616e206e6f7420747269676765722061207265636f60008201527f7665727900000000000000000000000000000000000000000000000000000000602082015250565b7f534d3a204261646c79206f726465726564207369676e61747572657300000000600082015250565b7f534d3a207369676e65722063616e6e2774206265206f776e6572000000000000600082015250565b7f534d3a2073686f756c64206e6f74207472696767657220747769636500000000600082015250565b7f534d3a2073686f756c64206e6f74206164642073616d65206d6f64756c65207460008201527f6f2077616c6c6574207477696365000000000000000000000000000000000000602082015250565b7f534d3a206d757374206265207369676e65722f77616c6c657400000000000000600082015250565b7f534d3a204e6f7420656e6f7567682076616c6964207369676e61747572657300600082015250565b7f496e697469616c697a61626c653a20636f6e747261637420697320616c72656160008201527f647920696e697469616c697a6564000000000000000000000000000000000000602082015250565b7f534d3a206d6f64756c65206973206e6f74207265676973746572656400000000600082015250565b7f534d3a20696e76616c69642077616c6c65740000000000000000000000000000600082015250565b7f534d3a2077616c6c6574207369676e657220696e666f206e6f7420636f6e736960008201527f7374656e74000000000000000000000000000000000000000000000000000000602082015250565b7f424d3a2077616c6c6574206c6f636b6564000000000000000000000000000000600082015250565b7f534d3a206d757374206265206f776e6572000000000000000000000000000000600082015250565b7f534d3a2077616c6c65742073686f756c6420626520726567697374657265642060008201527f6265666f726520616464696e67207369676e6572730000000000000000000000602082015250565b7f534d3a20696e76616c6964206f6c645369676e65720000000000000000000000600082015250565b7f534d3a2077616c6c65742065786973747320696e207369676e6572496e666f73600082015250565b7f534d3a206e6f74207265636f766572696e670000000000000000000000000000600082015250565b7f534d3a20696e76616c6964206e65775369676e6572206f7220696e76616c696460008201527f206f6c645369676e657200000000000000000000000000000000000000000000602082015250565b7f534d3a204e6f7420656e6f756768207369676e61747572657300000000000000600082015250565b7f424d3a2063616c6c6572206d7573742062652077616c6c657400000000000000600082015250565b7f424d3a2077616c6c6574206d757374206265206c6f636b656400000000000000600082015250565b7f534d3a20496e76616c6964207600000000000000000000000000000000000000600082015250565b6147cf81613ffa565b81146147da57600080fd5b50565b6147e68161400c565b81146147f157600080fd5b50565b6147fd8161404e565b811461480857600080fd5b50565b61481481614080565b811461481f57600080fd5b5056fea2646970667358221220108eebb4f07bbbc59f9e9aac6b398be6ebc6a53ec218e485480a9b01e1452b0264736f6c63430008030033",
  "linkReferences": {},
  "deployedLinkReferences": {}
}