{
  "_format": "hh-sol-artifact-1",
  "contractName": "GovernanceToken",
  "sourceName": "contracts/GovernanceToken.sol",
  "abi": [
    {
      "inputs": [
        {
          "internalType": "address",
          "name": "account",
          "type": "address"
        },
        {
          "internalType": "address",
          "name": "minter_",
          "type": "address"
        },
        {
          "internalType": "uint256",
          "name": "mintingAllowedAfter_",
          "type": "uint256"
        }
      ],
      "stateMutability": "nonpayable",
      "type": "constructor"
    },
    {
      "anonymous": false,
      "inputs": [
        {
          "indexed": true,
          "internalType": "address",
          "name": "owner",
          "type": "address"
        },
        {
          "indexed": true,
          "internalType": "address",
          "name": "spender",
          "type": "address"
        },
        {
          "indexed": false,
          "internalType": "uint256",
          "name": "value",
          "type": "uint256"
        }
      ],
      "name": "Approval",
      "type": "event"
    },
    {
      "anonymous": false,
      "inputs": [
        {
          "indexed": true,
          "internalType": "address",
          "name": "delegator",
          "type": "address"
        },
        {
          "indexed": true,
          "internalType": "address",
          "name": "fromDelegate",
          "type": "address"
        },
        {
          "indexed": true,
          "internalType": "address",
          "name": "toDelegate",
          "type": "address"
        }
      ],
      "name": "DelegateChanged",
      "type": "event"
    },
    {
      "anonymous": false,
      "inputs": [
        {
          "indexed": true,
          "internalType": "address",
          "name": "delegate",
          "type": "address"
        },
        {
          "indexed": false,
          "internalType": "uint256",
          "name": "previousBalance",
          "type": "uint256"
        },
        {
          "indexed": false,
          "internalType": "uint256",
          "name": "newBalance",
          "type": "uint256"
        }
      ],
      "name": "DelegateVotesChanged",
      "type": "event"
    },
    {
      "anonymous": false,
      "inputs": [
        {
          "indexed": false,
          "internalType": "address",
          "name": "minter",
          "type": "address"
        },
        {
          "indexed": false,
          "internalType": "address",
          "name": "newMinter",
          "type": "address"
        }
      ],
      "name": "MinterChanged",
      "type": "event"
    },
    {
      "anonymous": false,
      "inputs": [
        {
          "indexed": true,
          "internalType": "address",
          "name": "from",
          "type": "address"
        },
        {
          "indexed": true,
          "internalType": "address",
          "name": "to",
          "type": "address"
        },
        {
          "indexed": false,
          "internalType": "uint256",
          "name": "value",
          "type": "uint256"
        }
      ],
      "name": "Transfer",
      "type": "event"
    },
    {
      "inputs": [],
      "name": "DELEGATION_TYPEHASH",
      "outputs": [
        {
          "internalType": "bytes32",
          "name": "",
          "type": "bytes32"
        }
      ],
      "stateMutability": "view",
      "type": "function"
    },
    {
      "inputs": [],
      "name": "DOMAIN_TYPEHASH",
      "outputs": [
        {
          "internalType": "bytes32",
          "name": "",
          "type": "bytes32"
        }
      ],
      "stateMutability": "view",
      "type": "function"
    },
    {
      "inputs": [],
      "name": "MINMUM_TIME_BETWEEN_MINTS",
      "outputs": [
        {
          "internalType": "uint32",
          "name": "",
          "type": "uint32"
        }
      ],
      "stateMutability": "view",
      "type": "function"
    },
    {
      "inputs": [],
      "name": "MINT_CAP",
      "outputs": [
        {
          "internalType": "uint8",
          "name": "",
          "type": "uint8"
        }
      ],
      "stateMutability": "view",
      "type": "function"
    },
    {
      "inputs": [],
      "name": "PERMIT_TYPEHASH",
      "outputs": [
        {
          "internalType": "bytes32",
          "name": "",
          "type": "bytes32"
        }
      ],
      "stateMutability": "view",
      "type": "function"
    },
    {
      "inputs": [
        {
          "internalType": "address",
          "name": "owner",
          "type": "address"
        },
        {
          "internalType": "address",
          "name": "spender",
          "type": "address"
        }
      ],
      "name": "allowance",
      "outputs": [
        {
          "internalType": "uint256",
          "name": "",
          "type": "uint256"
        }
      ],
      "stateMutability": "view",
      "type": "function"
    },
    {
      "inputs": [
        {
          "internalType": "address",
          "name": "spender",
          "type": "address"
        },
        {
          "internalType": "uint256",
          "name": "amount",
          "type": "uint256"
        }
      ],
      "name": "approve",
      "outputs": [
        {
          "internalType": "bool",
          "name": "",
          "type": "bool"
        }
      ],
      "stateMutability": "nonpayable",
      "type": "function"
    },
    {
      "inputs": [
        {
          "internalType": "address",
          "name": "account",
          "type": "address"
        }
      ],
      "name": "balanceOf",
      "outputs": [
        {
          "internalType": "uint256",
          "name": "",
          "type": "uint256"
        }
      ],
      "stateMutability": "view",
      "type": "function"
    },
    {
      "inputs": [
        {
          "internalType": "address",
          "name": "",
          "type": "address"
        },
        {
          "internalType": "uint32",
          "name": "",
          "type": "uint32"
        }
      ],
      "name": "checkpoints",
      "outputs": [
        {
          "internalType": "uint32",
          "name": "fromBlock",
          "type": "uint32"
        },
        {
          "internalType": "uint96",
          "name": "votes",
          "type": "uint96"
        }
      ],
      "stateMutability": "view",
      "type": "function"
    },
    {
      "inputs": [],
      "name": "decimals",
      "outputs": [
        {
          "internalType": "uint8",
          "name": "",
          "type": "uint8"
        }
      ],
      "stateMutability": "view",
      "type": "function"
    },
    {
      "inputs": [
        {
          "internalType": "address",
          "name": "spender",
          "type": "address"
        },
        {
          "internalType": "uint256",
          "name": "subtractedValue",
          "type": "uint256"
        }
      ],
      "name": "decreaseAllowance",
      "outputs": [
        {
          "internalType": "bool",
          "name": "",
          "type": "bool"
        }
      ],
      "stateMutability": "nonpayable",
      "type": "function"
    },
    {
      "inputs": [
        {
          "internalType": "address",
          "name": "delegatee",
          "type": "address"
        }
      ],
      "name": "delegate",
      "outputs": [],
      "stateMutability": "nonpayable",
      "type": "function"
    },
    {
      "inputs": [
        {
          "internalType": "address",
          "name": "delegatee",
          "type": "address"
        },
        {
          "internalType": "uint256",
          "name": "nonce",
          "type": "uint256"
        },
        {
          "internalType": "uint256",
          "name": "expiry",
          "type": "uint256"
        },
        {
          "internalType": "uint8",
          "name": "v",
          "type": "uint8"
        },
        {
          "internalType": "bytes32",
          "name": "r",
          "type": "bytes32"
        },
        {
          "internalType": "bytes32",
          "name": "s",
          "type": "bytes32"
        }
      ],
      "name": "delegateBySig",
      "outputs": [],
      "stateMutability": "nonpayable",
      "type": "function"
    },
    {
      "inputs": [
        {
          "internalType": "address",
          "name": "",
          "type": "address"
        }
      ],
      "name": "delegates",
      "outputs": [
        {
          "internalType": "address",
          "name": "",
          "type": "address"
        }
      ],
      "stateMutability": "view",
      "type": "function"
    },
    {
      "inputs": [
        {
          "internalType": "address",
          "name": "account",
          "type": "address"
        }
      ],
      "name": "getCurrentVotes",
      "outputs": [
        {
          "internalType": "uint96",
          "name": "",
          "type": "uint96"
        }
      ],
      "stateMutability": "view",
      "type": "function"
    },
    {
      "inputs": [
        {
          "internalType": "address",
          "name": "account",
          "type": "address"
        },
        {
          "internalType": "uint256",
          "name": "blockNumber",
          "type": "uint256"
        }
      ],
      "name": "getPriorVotes",
      "outputs": [
        {
          "internalType": "uint96",
          "name": "",
          "type": "uint96"
        }
      ],
      "stateMutability": "view",
      "type": "function"
    },
    {
      "inputs": [
        {
          "internalType": "address",
          "name": "spender",
          "type": "address"
        },
        {
          "internalType": "uint256",
          "name": "addedValue",
          "type": "uint256"
        }
      ],
      "name": "increaseAllowance",
      "outputs": [
        {
          "internalType": "bool",
          "name": "",
          "type": "bool"
        }
      ],
      "stateMutability": "nonpayable",
      "type": "function"
    },
    {
      "inputs": [],
      "name": "initTotalSupply",
      "outputs": [
        {
          "internalType": "uint256",
          "name": "",
          "type": "uint256"
        }
      ],
      "stateMutability": "view",
      "type": "function"
    },
    {
      "inputs": [
        {
          "internalType": "address",
          "name": "dst",
          "type": "address"
        },
        {
          "internalType": "uint256",
          "name": "rawAmount",
          "type": "uint256"
        }
      ],
      "name": "mint",
      "outputs": [],
      "stateMutability": "nonpayable",
      "type": "function"
    },
    {
      "inputs": [],
      "name": "minter",
      "outputs": [
        {
          "internalType": "address",
          "name": "",
          "type": "address"
        }
      ],
      "stateMutability": "view",
      "type": "function"
    },
    {
      "inputs": [],
      "name": "mintingAllowedAfter",
      "outputs": [
        {
          "internalType": "uint256",
          "name": "",
          "type": "uint256"
        }
      ],
      "stateMutability": "view",
      "type": "function"
    },
    {
      "inputs": [],
      "name": "name",
      "outputs": [
        {
          "internalType": "string",
          "name": "",
          "type": "string"
        }
      ],
      "stateMutability": "view",
      "type": "function"
    },
    {
      "inputs": [
        {
          "internalType": "address",
          "name": "",
          "type": "address"
        }
      ],
      "name": "nonces",
      "outputs": [
        {
          "internalType": "uint256",
          "name": "",
          "type": "uint256"
        }
      ],
      "stateMutability": "view",
      "type": "function"
    },
    {
      "inputs": [
        {
          "internalType": "address",
          "name": "",
          "type": "address"
        }
      ],
      "name": "numCheckpoints",
      "outputs": [
        {
          "internalType": "uint32",
          "name": "",
          "type": "uint32"
        }
      ],
      "stateMutability": "view",
      "type": "function"
    },
    {
      "inputs": [
        {
          "internalType": "address",
          "name": "owner",
          "type": "address"
        },
        {
          "internalType": "address",
          "name": "spender",
          "type": "address"
        },
        {
          "internalType": "uint256",
          "name": "rawAmount",
          "type": "uint256"
        },
        {
          "internalType": "uint256",
          "name": "deadline",
          "type": "uint256"
        },
        {
          "internalType": "uint8",
          "name": "v",
          "type": "uint8"
        },
        {
          "internalType": "bytes32",
          "name": "r",
          "type": "bytes32"
        },
        {
          "internalType": "bytes32",
          "name": "s",
          "type": "bytes32"
        }
      ],
      "name": "permit",
      "outputs": [],
      "stateMutability": "nonpayable",
      "type": "function"
    },
    {
      "inputs": [
        {
          "internalType": "address",
          "name": "minter_",
          "type": "address"
        }
      ],
      "name": "setMinter",
      "outputs": [],
      "stateMutability": "nonpayable",
      "type": "function"
    },
    {
      "inputs": [],
      "name": "symbol",
      "outputs": [
        {
          "internalType": "string",
          "name": "",
          "type": "string"
        }
      ],
      "stateMutability": "view",
      "type": "function"
    },
    {
      "inputs": [],
      "name": "totalSupply",
      "outputs": [
        {
          "internalType": "uint256",
          "name": "",
          "type": "uint256"
        }
      ],
      "stateMutability": "view",
      "type": "function"
    },
    {
      "inputs": [
        {
          "internalType": "address",
          "name": "dst",
          "type": "address"
        },
        {
          "internalType": "uint256",
          "name": "rawAmount",
          "type": "uint256"
        }
      ],
      "name": "transfer",
      "outputs": [
        {
          "internalType": "bool",
          "name": "",
          "type": "bool"
        }
      ],
      "stateMutability": "nonpayable",
      "type": "function"
    },
    {
      "inputs": [
        {
          "internalType": "address",
          "name": "src",
          "type": "address"
        },
        {
          "internalType": "address",
          "name": "dst",
          "type": "address"
        },
        {
          "internalType": "uint256",
          "name": "rawAmount",
          "type": "uint256"
        }
      ],
      "name": "transferFrom",
      "outputs": [
        {
          "internalType": "bool",
          "name": "",
          "type": "bool"
        }
      ],
      "stateMutability": "nonpayable",
      "type": "function"
    }
  ],
  "bytecode": "0x60806040526b033b2e3c9fd0803ce80000006005553480156200002157600080fd5b50604051620026df380380620026df833981016040819052620000449162000359565b604080518082018252600f81526e23b7bb32b93730b731b2aa37b5b2b760891b60208083019182528351808501909452600284526111d560f21b908401528151919291620000959160039162000296565b508051620000ab90600490602084019062000296565b50505042811015620001385760405162461bcd60e51b815260206004820152604560248201527f476f7665726e616e6365546f6b656e3a3a636f6e7374727563746f723a206d6960448201527f6e74696e672063616e206f6e6c7920626567696e206166746572206465706c6f6064820152641e5b595b9d60da1b608482015260a4015b60405180910390fd5b6200014c83600554620001b160201b60201c565b600680546001600160a01b0319166001600160a01b038416908117909155604080516000815260208101929092527f3b0007eb941cf645526cbb3a4fdaecda9d28ce4843167d9263b536a1f1edc0f6910160405180910390a160075550620003fb9050565b6001600160a01b038216620002095760405162461bcd60e51b815260206004820152601f60248201527f45524332303a206d696e7420746f20746865207a65726f20616464726573730060448201526064016200012f565b80600260008282546200021d919062000399565b90915550506001600160a01b038216600090815260208190526040812080548392906200024c90849062000399565b90915550506040518181526001600160a01b038316906000907fddf252ad1be2c89b69c2b068fc378daa952ba7f163c4a11628f55a4df523b3ef9060200160405180910390a35050565b828054620002a490620003be565b90600052602060002090601f016020900481019282620002c8576000855562000313565b82601f10620002e357805160ff191683800117855562000313565b8280016001018555821562000313579182015b8281111562000313578251825591602001919060010190620002f6565b506200032192915062000325565b5090565b5b8082111562000321576000815560010162000326565b80516001600160a01b03811681146200035457600080fd5b919050565b6000806000606084860312156200036e578283fd5b62000379846200033c565b925062000389602085016200033c565b9150604084015190509250925092565b60008219821115620003b957634e487b7160e01b81526011600452602481fd5b500190565b600181811c90821680620003d357607f821691505b60208210811415620003f557634e487b7160e01b600052602260045260246000fd5b50919050565b6122d4806200040b6000396000f3fe608060405234801561001057600080fd5b50600436106101da5760003560e01c8063782d6fe111610104578063b4b5ea57116100a2578063e7a324dc11610071578063e7a324dc1461048c578063e889b470146104b3578063f1127ed8146104bc578063fca3b5aa14610523576101da565b8063b4b5ea571461041a578063c3cda5201461042d578063d505accf14610440578063dd62ed3e14610453576101da565b806395d89b41116100de57806395d89b41146103e457806398f1312e146103ec578063a457c2d7146103f4578063a9059cbb14610407576101da565b8063782d6fe11461038e5780637ecebe00146103b95780638ba24e2b146103d9576101da565b806330b36cef1161017c578063587cde1e1161014b578063587cde1e146103045780635c19a95c1461032d5780636fcfff451461034057806370a082311461037b576101da565b806330b36cef146102be578063313ce567146102c757806339509351146102dc57806340c10f19146102ef576101da565b806318160ddd116101b857806318160ddd1461024b57806320606b701461025d57806323b872dd1461028457806330adf81f14610297576101da565b806306fdde03146101df57806307546172146101fd578063095ea7b314610228575b600080fd5b6101e7610536565b6040516101f491906120db565b60405180910390f35b600654610210906001600160a01b031681565b6040516001600160a01b0390911681526020016101f4565b61023b61023636600461201d565b6105c8565b60405190151581526020016101f4565b6002545b6040519081526020016101f4565b61024f7f8cad95687ba82c2ce50e74f7b754645e5117c3a5bec8151c0726d5857980a86681565b61023b610292366004611f79565b6105e2565b61024f7f6e71edae12b1b97f4d1f60370fef10105fa2faae0126114a169c64845d6126c981565b61024f60075481565b60125b60405160ff90911681526020016101f4565b61023b6102ea36600461201d565b61061c565b6103026102fd36600461201d565b61065b565b005b610210610312366004611f2d565b6008602052600090815260409020546001600160a01b031681565b61030261033b366004611f2d565b61089e565b61036661034e366004611f2d565b600a6020526000908152604090205463ffffffff1681565b60405163ffffffff90911681526020016101f4565b61024f610389366004611f2d565b6108ab565b6103a161039c36600461201d565b6108ca565b6040516001600160601b0390911681526020016101f4565b61024f6103c7366004611f2d565b600b6020526000908152604090205481565b6103666301e1338081565b6101e7610b5c565b6102ca600281565b61023b61040236600461201d565b610b6b565b61023b61041536600461201d565b610c08565b6103a1610428366004611f2d565b610c21565b61030261043b366004612046565b610c9f565b61030261044e366004611fb4565b610f85565b61024f610461366004611f47565b6001600160a01b03918216600090815260016020908152604080832093909416825291909152205490565b61024f7fe48329057bfd03d55e49b547132e39cffd9c1820ad7b9d4c5307691425d15adf81565b61024f60055481565b6104ff6104ca36600461209d565b600960209081526000928352604080842090915290825290205463ffffffff811690600160201b90046001600160601b031682565b6040805163ffffffff90931683526001600160601b039091166020830152016101f4565b610302610531366004611f2d565b611300565b606060038054610545906121e9565b80601f0160208091040260200160405190810160405280929190818152602001828054610571906121e9565b80156105be5780601f10610593576101008083540402835291602001916105be565b820191906000526020600020905b8154815290600101906020018083116105a157829003601f168201915b5050505050905090565b6000336105d68185856113fb565b60019150505b92915050565b600033816105ef8461151f565b90506106058683836001600160601b031661158b565b61061086868361161d565b50600195945050505050565b3360008181526001602090815260408083206001600160a01b03871684529091528120549091906105d6908290869061065690879061212e565b6113fb565b6006546001600160a01b031633146106d25760405162461bcd60e51b815260206004820152602f60248201527f476f7665726e616e6365546f6b656e3a3a6d696e743a206f6e6c79207468652060448201526e1b5a5b9d195c8818d85b881b5a5b9d608a1b60648201526084015b60405180910390fd5b60075442101561073b5760405162461bcd60e51b815260206004820152602e60248201527f476f7665726e616e6365546f6b656e3a3a6d696e743a206d696e74696e67206e60448201526d1bdd08185b1b1bddd959081e595d60921b60648201526084016106c9565b6001600160a01b0382166107b75760405162461bcd60e51b815260206004820152603a60248201527f476f7665726e616e6365546f6b656e3a3a6d696e743a2063616e6e6f7420747260448201527f616e7366657220746f20746865207a65726f206164647265737300000000000060648201526084016106c9565b6107c5426301e13380611782565b60075560006107d38261151f565b90506107ef6107e8600554600260ff1661178e565b606461179a565b816001600160601b031611156108585760405162461bcd60e51b815260206004820152602860248201527f476f7665726e616e6365546f6b656e3a3a6d696e743a2065786365656465642060448201526706d696e74206361760c41b60648201526084016106c9565b61086b83826001600160601b03166117a6565b6001600160a01b0380841660009081526008602052604081205461089992166001600160601b038416611885565b505050565b6108a83382611a2c565b50565b6001600160a01b0381166000908152602081905260409020545b919050565b60004382106109365760405162461bcd60e51b815260206004820152603260248201527f476f7665726e616e6365546f6b656e3a3a6765745072696f72566f7465733a206044820152711b9bdd081e595d0819195d195c9b5a5b995960721b60648201526084016106c9565b6001600160a01b0383166000908152600a602052604090205463ffffffff16806109645760009150506105dc565b6001600160a01b038416600090815260096020526040812084916109896001856121c4565b63ffffffff908116825260208201929092526040016000205416116109fc576001600160a01b0384166000908152600960205260408120906109cc6001846121c4565b63ffffffff168152602081019190915260400160002054600160201b90046001600160601b031691506105dc9050565b6001600160a01b038416600090815260096020908152604080832083805290915290205463ffffffff16831015610a375760009150506105dc565b600080610a456001846121c4565b90505b8163ffffffff168163ffffffff161115610b175760006002610a6a84846121c4565b610a749190612182565b610a7e90836121c4565b6001600160a01b038816600090815260096020908152604080832063ffffffff858116855290835292819020815180830190925254928316808252600160201b9093046001600160601b031691810191909152919250871415610aeb576020015194506105dc9350505050565b805163ffffffff16871115610b0257819350610b10565b610b0d6001836121c4565b92505b5050610a48565b506001600160a01b038516600090815260096020908152604080832063ffffffff909416835292905220546001600160601b03600160201b9091041691505092915050565b606060048054610545906121e9565b3360008181526001602090815260408083206001600160a01b038716845290915281205490919083811015610bf05760405162461bcd60e51b815260206004820152602560248201527f45524332303a2064656372656173656420616c6c6f77616e63652062656c6f77604482015264207a65726f60d81b60648201526084016106c9565b610bfd82868684036113fb565b506001949350505050565b600080610c148361151f565b90506105d633858361161d565b6001600160a01b0381166000908152600a602052604081205463ffffffff1680610c4c576000610c98565b6001600160a01b038316600090815260096020526040812090610c706001846121c4565b63ffffffff168152602081019190915260400160002054600160201b90046001600160601b03165b9392505050565b60007f8cad95687ba82c2ce50e74f7b754645e5117c3a5bec8151c0726d5857980a866610cca610536565b8051602091820120604080518084019490945283810191909152466060840152306080808501919091528151808503909101815260a0840182528051908301207fe48329057bfd03d55e49b547132e39cffd9c1820ad7b9d4c5307691425d15adf60c08501526001600160a01b038b1660e085015261010084018a90526101208085018a90528251808603909101815261014085019092528151919092012061190160f01b61016084015261016283018290526101828301819052909250906000906101a20160408051601f198184030181528282528051602091820120600080855291840180845281905260ff8a169284019290925260608301889052608083018790529092509060019060a0016020604051602081039080840390855afa158015610dfb573d6000803e3d6000fd5b5050604051601f1901519150506001600160a01b038116610e785760405162461bcd60e51b815260206004820152603160248201527f476f7665726e616e6365546f6b656e3a3a64656c656761746542795369673a20604482015270696e76616c6964207369676e617475726560781b60648201526084016106c9565b6001600160a01b0381166000908152600b60205260408120805491610e9c83612224565b919050558914610f045760405162461bcd60e51b815260206004820152602d60248201527f476f7665726e616e6365546f6b656e3a3a64656c656761746542795369673a2060448201526c696e76616c6964206e6f6e636560981b60648201526084016106c9565b87421115610f6e5760405162461bcd60e51b815260206004820152603160248201527f476f7665726e616e6365546f6b656e3a3a64656c656761746542795369673a206044820152701cda59db985d1d5c9948195e1c1a5c9959607a1b60648201526084016106c9565b610f78818b611a2c565b505050505b505050505050565b6000600019861415610f9f57506001600160601b03610fab565b610fa88661151f565b90505b60007f8cad95687ba82c2ce50e74f7b754645e5117c3a5bec8151c0726d5857980a866610fd6610536565b805160209182012060408051928301939093529181019190915246606082015230608082015260a00160408051601f1981840301815291815281516020928301206001600160a01b038c166000908152600b90935290822080549193507f6e71edae12b1b97f4d1f60370fef10105fa2faae0126114a169c64845d6126c9918c918c918c918661106583612224565b90915550604080516020808201979097526001600160a01b0395861681830152939094166060840152608083019190915260a082015260c08082018b90528251808303909101815260e082018352805190840120601960f81b610100830152600160f81b6101018301526101028201869052610122808301829052835180840390910181526101428301909352825192909301919091207f19457468657265756d205369676e6564204d6573736167653a0a33320000000061016283015261017e820181905291925060009060019061019e0160408051601f198184030181528282528051602091820120600084529083018083525260ff8b1690820152606081018990526080810188905260a0016020604051602081039080840390855afa158015611196573d6000803e3d6000fd5b5050604051601f1901519150506001600160a01b03811661120c5760405162461bcd60e51b815260206004820152602a60248201527f476f7665726e616e6365546f6b656e3a3a7065726d69743a20696e76616c6964604482015269207369676e617475726560b01b60648201526084016106c9565b8b6001600160a01b0316816001600160a01b03161461127b5760405162461bcd60e51b815260206004820152602560248201527f476f7665726e616e6365546f6b656e3a3a7065726d69743a20756e617574686f6044820152641c9a5e995960da1b60648201526084016106c9565b884211156112de5760405162461bcd60e51b815260206004820152602a60248201527f476f7665726e616e6365546f6b656e3a3a7065726d69743a207369676e6174756044820152691c9948195e1c1a5c995960b21b60648201526084016106c9565b6112f28c8c876001600160601b03166113fb565b505050505050505050505050565b6006546001600160a01b031633146113925760405162461bcd60e51b815260206004820152604960248201527f476f7665726e616e6365546f6b656e3a3a7365744d696e7465723a206f6e6c7960448201527f20746865206d696e7465722063616e206368616e676520746865206d696e746560648201526872206164647265737360b81b608482015260a4016106c9565b600654604080516001600160a01b03928316815291831660208301527f3b0007eb941cf645526cbb3a4fdaecda9d28ce4843167d9263b536a1f1edc0f6910160405180910390a1600680546001600160a01b0319166001600160a01b0392909216919091179055565b6001600160a01b03831661145d5760405162461bcd60e51b8152602060048201526024808201527f45524332303a20617070726f76652066726f6d20746865207a65726f206164646044820152637265737360e01b60648201526084016106c9565b6001600160a01b0382166114be5760405162461bcd60e51b815260206004820152602260248201527f45524332303a20617070726f766520746f20746865207a65726f206164647265604482015261737360f01b60648201526084016106c9565b6001600160a01b0383811660008181526001602090815260408083209487168084529482529182902085905590518481527f8c5be1e5ebec7d5bd14f71427d1e84f3dd0314c0f7b2291e5b200ac8c7c3b925910160405180910390a3505050565b60006001600160601b038211156115875760405162461bcd60e51b815260206004820152602660248201527f53616665436173743a2076616c756520646f65736e27742066697420696e203960448201526536206269747360d01b60648201526084016106c9565b5090565b6001600160a01b038381166000908152600160209081526040808320938616835292905220546000198114611617578181101561160a5760405162461bcd60e51b815260206004820152601d60248201527f45524332303a20696e73756666696369656e7420616c6c6f77616e636500000060448201526064016106c9565b61161784848484036113fb565b50505050565b6001600160a01b0383166116a95760405162461bcd60e51b815260206004820152604760248201527f476f7665726e616e6365546f6b656e3a3a5f7472616e73666572546f6b656e7360448201527f3a2063616e6e6f74207472616e736665722066726f6d20746865207a65726f206064820152666164647265737360c81b608482015260a4016106c9565b6001600160a01b0382166117335760405162461bcd60e51b815260206004820152604560248201527f476f7665726e616e6365546f6b656e3a3a5f7472616e73666572546f6b656e7360448201527f3a2063616e6e6f74207472616e7366657220746f20746865207a65726f206164606482015264647265737360d81b608482015260a4016106c9565b6117478383836001600160601b0316611ac7565b6001600160a01b038084166000908152600860205260408082205485841683529120546108999291821691166001600160601b038416611885565b6000610c98828461212e565b6000610c9882846121a5565b6000610c98828461216e565b6001600160a01b0382166117fc5760405162461bcd60e51b815260206004820152601f60248201527f45524332303a206d696e7420746f20746865207a65726f20616464726573730060448201526064016106c9565b806002600082825461180e919061212e565b90915550506001600160a01b0382166000908152602081905260408120805483929061183b90849061212e565b90915550506040518181526001600160a01b038316906000907fddf252ad1be2c89b69c2b068fc378daa952ba7f163c4a11628f55a4df523b3ef9060200160405180910390a35050565b816001600160a01b0316836001600160a01b0316141580156118a75750600081115b15610899576001600160a01b0383161561197d576001600160a01b0383166000908152600a602052604081205463ffffffff1690816118e7576000611933565b6001600160a01b03851660009081526009602052604081209061190b6001856121c4565b63ffffffff168152602081019190915260400160002054600160201b90046001600160601b03165b9050600061196b611966836001600160601b03168660405180606001604052806033815260200161226c60339139611c95565b61151f565b905061197986848484611cc1565b5050505b6001600160a01b03821615610899576001600160a01b0382166000908152600a602052604081205463ffffffff1690816119b8576000611a04565b6001600160a01b0384166000908152600960205260408120906119dc6001856121c4565b63ffffffff168152602081019190915260400160002054600160201b90046001600160601b03165b90506000611a1e611966836001600160601b031686611782565b9050610f7d85848484611cc1565b6001600160a01b0380831660009081526008602052604081205490911690611a56611966856108ab565b6001600160a01b0385811660008181526008602052604080822080546001600160a01b031916898616908117909155905194955093928616927f3134e8a2e6d97e929a7e54011ea5485d7d196dd5f0ba4d4ef95803e8e3fc257f9190a46116178284836001600160601b0316611885565b6001600160a01b038316611b2b5760405162461bcd60e51b815260206004820152602560248201527f45524332303a207472616e736665722066726f6d20746865207a65726f206164604482015264647265737360d81b60648201526084016106c9565b6001600160a01b038216611b8d5760405162461bcd60e51b815260206004820152602360248201527f45524332303a207472616e7366657220746f20746865207a65726f206164647260448201526265737360e81b60648201526084016106c9565b6001600160a01b03831660009081526020819052604090205481811015611c055760405162461bcd60e51b815260206004820152602660248201527f45524332303a207472616e7366657220616d6f756e7420657863656564732062604482015265616c616e636560d01b60648201526084016106c9565b6001600160a01b03808516600090815260208190526040808220858503905591851681529081208054849290611c3c90849061212e565b92505081905550826001600160a01b0316846001600160a01b03167fddf252ad1be2c89b69c2b068fc378daa952ba7f163c4a11628f55a4df523b3ef84604051611c8891815260200190565b60405180910390a3611617565b60008184841115611cb95760405162461bcd60e51b81526004016106c991906120db565b505050900390565b6000611ccc43611ea0565b905060008463ffffffff16118015611d2657506001600160a01b038516600090815260096020526040812063ffffffff831691611d0a6001886121c4565b63ffffffff908116825260208201929092526040016000205416145b15611d9a576001600160a01b03851660009081526009602052604081208391611d506001886121c4565b63ffffffff168152602081019190915260400160002080546001600160601b0392909216600160201b026fffffffffffffffffffffffff0000000019909216919091179055611e4b565b60408051808201825263ffffffff80841682526001600160601b0380861660208085019182526001600160a01b038b166000908152600982528681208b8616825290915294909420925183549451909116600160201b026fffffffffffffffffffffffffffffffff19909416911617919091179055611e1a846001612146565b6001600160a01b0386166000908152600a60205260409020805463ffffffff191663ffffffff929092169190911790555b604080516001600160601b038086168252841660208201526001600160a01b038716917fdec2bacdd2f05b59de34da9b523dff8be42e5e38e818c82fdb0bae774387a724910160405180910390a25050505050565b600063ffffffff8211156115875760405162461bcd60e51b815260206004820152602660248201527f53616665436173743a2076616c756520646f65736e27742066697420696e203360448201526532206269747360d01b60648201526084016106c9565b80356001600160a01b03811681146108c557600080fd5b803560ff811681146108c557600080fd5b600060208284031215611f3e578081fd5b610c9882611f05565b60008060408385031215611f59578081fd5b611f6283611f05565b9150611f7060208401611f05565b90509250929050565b600080600060608486031215611f8d578081fd5b611f9684611f05565b9250611fa460208501611f05565b9150604084013590509250925092565b600080600080600080600060e0888a031215611fce578283fd5b611fd788611f05565b9650611fe560208901611f05565b9550604088013594506060880135935061200160808901611f1c565b925060a0880135915060c0880135905092959891949750929550565b6000806040838503121561202f578182fd5b61203883611f05565b946020939093013593505050565b60008060008060008060c0878903121561205e578182fd5b61206787611f05565b9550602087013594506040870135935061208360608801611f1c565b92506080870135915060a087013590509295509295509295565b600080604083850312156120af578182fd5b6120b883611f05565b9150602083013563ffffffff811681146120d0578182fd5b809150509250929050565b6000602080835283518082850152825b81811015612107578581018301518582016040015282016120eb565b818111156121185783604083870101525b50601f01601f1916929092016040019392505050565b600082198211156121415761214161223f565b500190565b600063ffffffff8083168185168083038211156121655761216561223f565b01949350505050565b60008261217d5761217d612255565b500490565b600063ffffffff8084168061219957612199612255565b92169190910492915050565b60008160001904831182151516156121bf576121bf61223f565b500290565b600063ffffffff838116908316818110156121e1576121e161223f565b039392505050565b600181811c908216806121fd57607f821691505b6020821081141561221e57634e487b7160e01b600052602260045260246000fd5b50919050565b60006000198214156122385761223861223f565b5060010190565b634e487b7160e01b600052601160045260246000fd5b634e487b7160e01b600052601260045260246000fdfe476f7665726e616e6365546f6b656e3a3a5f6d6f7665566f7465733a20766f746520616d6f756e7420756e646572666c6f7773a26469706673582212205466e4ed7058aa6def7b5be2d4262949ec5755a0ec95712ebd378bfedcde846c64736f6c63430008030033",
  "linkReferences": {},
  "deployedLinkReferences": {}
}