{
  "_format": "hh-sol-artifact-1",
  "contractName": "Token",
  "sourceName": "contracts/Token.sol",
  "abi": [
    {
      "inputs": [
        {
          "internalType": "string",
          "name": "_name",
          "type": "string"
        },
        {
          "internalType": "string",
          "name": "_symbol",
          "type": "string"
        }
      ],
      "stateMutability": "nonpayable",
      "type": "constructor"
    },
    {
      "anonymous": false,
      "inputs": [
        {
          "indexed": true,
          "internalType": "address",
          "name": "owner",
          "type": "address"
        },
        {
          "indexed": true,
          "internalType": "address",
          "name": "spender",
          "type": "address"
        },
        {
          "indexed": false,
          "internalType": "uint256",
          "name": "value",
          "type": "uint256"
        }
      ],
      "name": "Approval",
      "type": "event"
    },
    {
      "anonymous": false,
      "inputs": [
        {
          "indexed": true,
          "internalType": "bytes32",
          "name": "role",
          "type": "bytes32"
        },
        {
          "indexed": true,
          "internalType": "bytes32",
          "name": "previousAdminRole",
          "type": "bytes32"
        },
        {
          "indexed": true,
          "internalType": "bytes32",
          "name": "newAdminRole",
          "type": "bytes32"
        }
      ],
      "name": "RoleAdminChanged",
      "type": "event"
    },
    {
      "anonymous": false,
      "inputs": [
        {
          "indexed": true,
          "internalType": "bytes32",
          "name": "role",
          "type": "bytes32"
        },
        {
          "indexed": true,
          "internalType": "address",
          "name": "account",
          "type": "address"
        },
        {
          "indexed": true,
          "internalType": "address",
          "name": "sender",
          "type": "address"
        }
      ],
      "name": "RoleGranted",
      "type": "event"
    },
    {
      "anonymous": false,
      "inputs": [
        {
          "indexed": true,
          "internalType": "bytes32",
          "name": "role",
          "type": "bytes32"
        },
        {
          "indexed": true,
          "internalType": "address",
          "name": "account",
          "type": "address"
        },
        {
          "indexed": true,
          "internalType": "address",
          "name": "sender",
          "type": "address"
        }
      ],
      "name": "RoleRevoked",
      "type": "event"
    },
    {
      "anonymous": false,
      "inputs": [
        {
          "indexed": true,
          "internalType": "address",
          "name": "from",
          "type": "address"
        },
        {
          "indexed": true,
          "internalType": "address",
          "name": "to",
          "type": "address"
        },
        {
          "indexed": false,
          "internalType": "uint256",
          "name": "value",
          "type": "uint256"
        }
      ],
      "name": "Transfer",
      "type": "event"
    },
    {
      "inputs": [],
      "name": "ADMIN",
      "outputs": [
        {
          "internalType": "bytes32",
          "name": "",
          "type": "bytes32"
        }
      ],
      "stateMutability": "view",
      "type": "function"
    },
    {
      "inputs": [],
      "name": "BURNER",
      "outputs": [
        {
          "internalType": "bytes32",
          "name": "",
          "type": "bytes32"
        }
      ],
      "stateMutability": "view",
      "type": "function"
    },
    {
      "inputs": [],
      "name": "DEFAULT_ADMIN_ROLE",
      "outputs": [
        {
          "internalType": "bytes32",
          "name": "",
          "type": "bytes32"
        }
      ],
      "stateMutability": "view",
      "type": "function"
    },
    {
      "inputs": [],
      "name": "MINTER",
      "outputs": [
        {
          "internalType": "bytes32",
          "name": "",
          "type": "bytes32"
        }
      ],
      "stateMutability": "view",
      "type": "function"
    },
    {
      "inputs": [
        {
          "internalType": "address",
          "name": "owner",
          "type": "address"
        },
        {
          "internalType": "address",
          "name": "spender",
          "type": "address"
        }
      ],
      "name": "allowance",
      "outputs": [
        {
          "internalType": "uint256",
          "name": "",
          "type": "uint256"
        }
      ],
      "stateMutability": "view",
      "type": "function"
    },
    {
      "inputs": [
        {
          "internalType": "address",
          "name": "spender",
          "type": "address"
        },
        {
          "internalType": "uint256",
          "name": "amount",
          "type": "uint256"
        }
      ],
      "name": "approve",
      "outputs": [
        {
          "internalType": "bool",
          "name": "",
          "type": "bool"
        }
      ],
      "stateMutability": "nonpayable",
      "type": "function"
    },
    {
      "inputs": [
        {
          "internalType": "address",
          "name": "account",
          "type": "address"
        }
      ],
      "name": "balanceOf",
      "outputs": [
        {
          "internalType": "uint256",
          "name": "",
          "type": "uint256"
        }
      ],
      "stateMutability": "view",
      "type": "function"
    },
    {
      "inputs": [
        {
          "internalType": "address",
          "name": "_from",
          "type": "address"
        },
        {
          "internalType": "uint256",
          "name": "_value",
          "type": "uint256"
        }
      ],
      "name": "burn",
      "outputs": [],
      "stateMutability": "nonpayable",
      "type": "function"
    },
    {
      "inputs": [],
      "name": "decimals",
      "outputs": [
        {
          "internalType": "uint8",
          "name": "",
          "type": "uint8"
        }
      ],
      "stateMutability": "view",
      "type": "function"
    },
    {
      "inputs": [
        {
          "internalType": "address",
          "name": "spender",
          "type": "address"
        },
        {
          "internalType": "uint256",
          "name": "subtractedValue",
          "type": "uint256"
        }
      ],
      "name": "decreaseAllowance",
      "outputs": [
        {
          "internalType": "bool",
          "name": "",
          "type": "bool"
        }
      ],
      "stateMutability": "nonpayable",
      "type": "function"
    },
    {
      "inputs": [
        {
          "internalType": "bytes32",
          "name": "role",
          "type": "bytes32"
        }
      ],
      "name": "getRoleAdmin",
      "outputs": [
        {
          "internalType": "bytes32",
          "name": "",
          "type": "bytes32"
        }
      ],
      "stateMutability": "view",
      "type": "function"
    },
    {
      "inputs": [
        {
          "internalType": "bytes32",
          "name": "role",
          "type": "bytes32"
        },
        {
          "internalType": "address",
          "name": "account",
          "type": "address"
        }
      ],
      "name": "grantRole",
      "outputs": [],
      "stateMutability": "nonpayable",
      "type": "function"
    },
    {
      "inputs": [
        {
          "internalType": "bytes32",
          "name": "role",
          "type": "bytes32"
        },
        {
          "internalType": "address",
          "name": "account",
          "type": "address"
        }
      ],
      "name": "hasRole",
      "outputs": [
        {
          "internalType": "bool",
          "name": "",
          "type": "bool"
        }
      ],
      "stateMutability": "view",
      "type": "function"
    },
    {
      "inputs": [
        {
          "internalType": "address",
          "name": "spender",
          "type": "address"
        },
        {
          "internalType": "uint256",
          "name": "addedValue",
          "type": "uint256"
        }
      ],
      "name": "increaseAllowance",
      "outputs": [
        {
          "internalType": "bool",
          "name": "",
          "type": "bool"
        }
      ],
      "stateMutability": "nonpayable",
      "type": "function"
    },
    {
      "inputs": [
        {
          "internalType": "address",
          "name": "_to",
          "type": "address"
        },
        {
          "internalType": "uint256",
          "name": "_value",
          "type": "uint256"
        }
      ],
      "name": "mint",
      "outputs": [],
      "stateMutability": "nonpayable",
      "type": "function"
    },
    {
      "inputs": [],
      "name": "name",
      "outputs": [
        {
          "internalType": "string",
          "name": "",
          "type": "string"
        }
      ],
      "stateMutability": "view",
      "type": "function"
    },
    {
      "inputs": [
        {
          "internalType": "bytes32",
          "name": "role",
          "type": "bytes32"
        },
        {
          "internalType": "address",
          "name": "account",
          "type": "address"
        }
      ],
      "name": "renounceRole",
      "outputs": [],
      "stateMutability": "nonpayable",
      "type": "function"
    },
    {
      "inputs": [
        {
          "internalType": "bytes32",
          "name": "role",
          "type": "bytes32"
        },
        {
          "internalType": "address",
          "name": "account",
          "type": "address"
        }
      ],
      "name": "revokeRole",
      "outputs": [],
      "stateMutability": "nonpayable",
      "type": "function"
    },
    {
      "inputs": [
        {
          "internalType": "bytes4",
          "name": "interfaceId",
          "type": "bytes4"
        }
      ],
      "name": "supportsInterface",
      "outputs": [
        {
          "internalType": "bool",
          "name": "",
          "type": "bool"
        }
      ],
      "stateMutability": "view",
      "type": "function"
    },
    {
      "inputs": [],
      "name": "symbol",
      "outputs": [
        {
          "internalType": "string",
          "name": "",
          "type": "string"
        }
      ],
      "stateMutability": "view",
      "type": "function"
    },
    {
      "inputs": [],
      "name": "totalSupply",
      "outputs": [
        {
          "internalType": "uint256",
          "name": "",
          "type": "uint256"
        }
      ],
      "stateMutability": "view",
      "type": "function"
    },
    {
      "inputs": [
        {
          "internalType": "address",
          "name": "recipient",
          "type": "address"
        },
        {
          "internalType": "uint256",
          "name": "amount",
          "type": "uint256"
        }
      ],
      "name": "transfer",
      "outputs": [
        {
          "internalType": "bool",
          "name": "",
          "type": "bool"
        }
      ],
      "stateMutability": "nonpayable",
      "type": "function"
    },
    {
      "inputs": [
        {
          "internalType": "address",
          "name": "sender",
          "type": "address"
        },
        {
          "internalType": "address",
          "name": "recipient",
          "type": "address"
        },
        {
          "internalType": "uint256",
          "name": "amount",
          "type": "uint256"
        }
      ],
      "name": "transferFrom",
      "outputs": [
        {
          "internalType": "bool",
          "name": "",
          "type": "bool"
        }
      ],
      "stateMutability": "nonpayable",
      "type": "function"
    }
  ],
  "bytecode": "0x60806040523480156200001157600080fd5b506040516200198f3803806200198f833981016040819052620000349162000492565b8151829082906200004d90600390602085019062000335565b5080516200006390600490602084019062000335565b505050620000a0336200007b6200013960201b60201c565b6200008b9060ff16600a62000560565b6200009a906298968062000629565b6200013e565b620000bb6000805160206200196f8339815191523362000227565b620000f67ff0887ba65ee2024ea881d91b74c2450ef19e1557f03bed3ea9f16b037cbe2dc96000805160206200196f83398151915262000233565b620001317f9667e80708b6eeeb0053fa0cca44e028ff548e2a9f029edfeac87c118b08b7c86000805160206200196f83398151915262000233565b5050620006b4565b601290565b6001600160a01b038216620001995760405162461bcd60e51b815260206004820152601f60248201527f45524332303a206d696e7420746f20746865207a65726f206164647265737300604482015260640160405180910390fd5b8060026000828254620001ad9190620004fc565b90915550506001600160a01b03821660009081526020819052604081208054839290620001dc908490620004fc565b90915550506040518181526001600160a01b038316906000907fddf252ad1be2c89b69c2b068fc378daa952ba7f163c4a11628f55a4df523b3ef9060200160405180910390a35b5050565b6200022382826200027e565b600082815260056020526040808220600101805490849055905190918391839186917fbd79b86ffe0ab8e8776151514217cd7cacd52c909f66475c3af44e129f0b00ff9190a4505050565b6200028a828262000308565b620002235760008281526005602090815260408083206001600160a01b03851684529091529020805460ff19166001179055620002c43390565b6001600160a01b0316816001600160a01b0316837f2f8788117e7eff1d82e926ec794901d17c78024a50270940304540a733656f0d60405160405180910390a45050565b60008281526005602090815260408083206001600160a01b038516845290915290205460ff165b92915050565b82805462000343906200064b565b90600052602060002090601f016020900481019282620003675760008555620003b2565b82601f106200038257805160ff1916838001178555620003b2565b82800160010185558215620003b2579182015b82811115620003b257825182559160200191906001019062000395565b50620003c0929150620003c4565b5090565b5b80821115620003c05760008155600101620003c5565b600082601f830112620003ed57600080fd5b81516001600160401b03808211156200040a576200040a6200069e565b604051601f8301601f19908116603f011681019082821181831017156200043557620004356200069e565b816040528381526020925086838588010111156200045257600080fd5b600091505b8382101562000476578582018301518183018401529082019062000457565b83821115620004885760008385830101525b9695505050505050565b60008060408385031215620004a657600080fd5b82516001600160401b0380821115620004be57600080fd5b620004cc86838701620003db565b93506020850151915080821115620004e357600080fd5b50620004f285828601620003db565b9150509250929050565b6000821982111562000512576200051262000688565b500190565b600181815b80851115620005585781600019048211156200053c576200053c62000688565b808516156200054a57918102915b93841c93908002906200051c565b509250929050565b60006200056e838362000575565b9392505050565b60008262000586575060016200032f565b8162000595575060006200032f565b8160018114620005ae5760028114620005b957620005d9565b60019150506200032f565b60ff841115620005cd57620005cd62000688565b50506001821b6200032f565b5060208310610133831016604e8410600b8410161715620005fe575081810a6200032f565b6200060a838362000517565b806000190482111562000621576200062162000688565b029392505050565b600081600019048311821515161562000646576200064662000688565b500290565b600181811c908216806200066057607f821691505b602082108114156200068257634e487b7160e01b600052602260045260246000fd5b50919050565b634e487b7160e01b600052601160045260246000fd5b634e487b7160e01b600052604160045260246000fd5b6112ab80620006c46000396000f3fe608060405234801561001057600080fd5b506004361061014d5760003560e01c806339509351116100c3578063a217fddf1161007c578063a217fddf146102f0578063a457c2d7146102f8578063a9059cbb1461030b578063d547741f1461031e578063dd62ed3e14610331578063fe6d81241461036a57600080fd5b8063395093511461027357806340c10f191461028657806370a082311461029957806391d14854146102c257806395d89b41146102d55780639dc29fac146102dd57600080fd5b806323b872dd1161011557806323b872dd146101df578063248a9ca3146101f25780632a0acc6a146102155780632f2ff15d1461023c578063313ce5671461025157806336568abe1461026057600080fd5b806301ffc9a71461015257806306fdde031461017a578063095ea7b31461018f578063118c4f13146101a257806318160ddd146101d7575b600080fd5b610165610160366004611095565b610391565b60405190151581526020015b60405180910390f35b6101826103c8565b6040516101719190611134565b61016561019d36600461102f565b61045a565b6101c97f9667e80708b6eeeb0053fa0cca44e028ff548e2a9f029edfeac87c118b08b7c881565b604051908152602001610171565b6002546101c9565b6101656101ed366004610ff3565b610470565b6101c9610200366004611059565b60009081526005602052604090206001015490565b6101c97fdf8b4c520ffe197c5343c6f5aec59570151ef9a492f2c624fd45ddde6135ec4281565b61024f61024a366004611072565b61051f565b005b60405160128152602001610171565b61024f61026e366004611072565b61054a565b61016561028136600461102f565b6105c8565b61024f61029436600461102f565b610604565b6101c96102a7366004610fa5565b6001600160a01b031660009081526020819052604090205490565b6101656102d0366004611072565b610639565b610182610664565b61024f6102eb36600461102f565b610673565b6101c9600081565b61016561030636600461102f565b6106a8565b61016561031936600461102f565b610741565b61024f61032c366004611072565b61074e565b6101c961033f366004610fc0565b6001600160a01b03918216600090815260016020908152604080832093909416825291909152205490565b6101c97ff0887ba65ee2024ea881d91b74c2450ef19e1557f03bed3ea9f16b037cbe2dc981565b60006001600160e01b03198216637965db0b60e01b14806103c257506301ffc9a760e01b6001600160e01b03198316145b92915050565b6060600380546103d7906111f8565b80601f0160208091040260200160405190810160405280929190818152602001828054610403906111f8565b80156104505780601f1061042557610100808354040283529160200191610450565b820191906000526020600020905b81548152906001019060200180831161043357829003601f168201915b5050505050905090565b6000610467338484610774565b50600192915050565b600061047d848484610898565b6001600160a01b0384166000908152600160209081526040808320338452909152902054828110156105075760405162461bcd60e51b815260206004820152602860248201527f45524332303a207472616e7366657220616d6f756e74206578636565647320616044820152676c6c6f77616e636560c01b60648201526084015b60405180910390fd5b6105148533858403610774565b506001949350505050565b60008281526005602052604090206001015461053b8133610a68565b6105458383610acc565b505050565b6001600160a01b03811633146105ba5760405162461bcd60e51b815260206004820152602f60248201527f416363657373436f6e74726f6c3a2063616e206f6e6c792072656e6f756e636560448201526e103937b632b9903337b91039b2b63360891b60648201526084016104fe565b6105c48282610b52565b5050565b3360008181526001602090815260408083206001600160a01b038716845290915281205490916104679185906105ff908690611167565b610774565b7ff0887ba65ee2024ea881d91b74c2450ef19e1557f03bed3ea9f16b037cbe2dc961062f8133610a68565b6105458383610bb9565b60009182526005602090815260408084206001600160a01b0393909316845291905290205460ff1690565b6060600480546103d7906111f8565b7f9667e80708b6eeeb0053fa0cca44e028ff548e2a9f029edfeac87c118b08b7c861069e8133610a68565b6105458383610c98565b3360009081526001602090815260408083206001600160a01b03861684529091528120548281101561072a5760405162461bcd60e51b815260206004820152602560248201527f45524332303a2064656372656173656420616c6c6f77616e63652062656c6f77604482015264207a65726f60d81b60648201526084016104fe565b6107373385858403610774565b5060019392505050565b6000610467338484610898565b60008281526005602052604090206001015461076a8133610a68565b6105458383610b52565b6001600160a01b0383166107d65760405162461bcd60e51b8152602060048201526024808201527f45524332303a20617070726f76652066726f6d20746865207a65726f206164646044820152637265737360e01b60648201526084016104fe565b6001600160a01b0382166108375760405162461bcd60e51b815260206004820152602260248201527f45524332303a20617070726f766520746f20746865207a65726f206164647265604482015261737360f01b60648201526084016104fe565b6001600160a01b0383811660008181526001602090815260408083209487168084529482529182902085905590518481527f8c5be1e5ebec7d5bd14f71427d1e84f3dd0314c0f7b2291e5b200ac8c7c3b925910160405180910390a3505050565b6001600160a01b0383166108fc5760405162461bcd60e51b815260206004820152602560248201527f45524332303a207472616e736665722066726f6d20746865207a65726f206164604482015264647265737360d81b60648201526084016104fe565b6001600160a01b03821661095e5760405162461bcd60e51b815260206004820152602360248201527f45524332303a207472616e7366657220746f20746865207a65726f206164647260448201526265737360e81b60648201526084016104fe565b6001600160a01b038316600090815260208190526040902054818110156109d65760405162461bcd60e51b815260206004820152602660248201527f45524332303a207472616e7366657220616d6f756e7420657863656564732062604482015265616c616e636560d01b60648201526084016104fe565b6001600160a01b03808516600090815260208190526040808220858503905591851681529081208054849290610a0d908490611167565b92505081905550826001600160a01b0316846001600160a01b03167fddf252ad1be2c89b69c2b068fc378daa952ba7f163c4a11628f55a4df523b3ef84604051610a5991815260200190565b60405180910390a35b50505050565b610a728282610639565b6105c457610a8a816001600160a01b03166014610de6565b610a95836020610de6565b604051602001610aa69291906110bf565b60408051601f198184030181529082905262461bcd60e51b82526104fe91600401611134565b610ad68282610639565b6105c45760008281526005602090815260408083206001600160a01b03851684529091529020805460ff19166001179055610b0e3390565b6001600160a01b0316816001600160a01b0316837f2f8788117e7eff1d82e926ec794901d17c78024a50270940304540a733656f0d60405160405180910390a45050565b610b5c8282610639565b156105c45760008281526005602090815260408083206001600160a01b0385168085529252808320805460ff1916905551339285917ff6391f5c32d9c69d2a47ea670b442974b53935d1edc7fd64eb21e047a839171b9190a45050565b6001600160a01b038216610c0f5760405162461bcd60e51b815260206004820152601f60248201527f45524332303a206d696e7420746f20746865207a65726f20616464726573730060448201526064016104fe565b8060026000828254610c219190611167565b90915550506001600160a01b03821660009081526020819052604081208054839290610c4e908490611167565b90915550506040518181526001600160a01b038316906000907fddf252ad1be2c89b69c2b068fc378daa952ba7f163c4a11628f55a4df523b3ef9060200160405180910390a35050565b6001600160a01b038216610cf85760405162461bcd60e51b815260206004820152602160248201527f45524332303a206275726e2066726f6d20746865207a65726f206164647265736044820152607360f81b60648201526084016104fe565b6001600160a01b03821660009081526020819052604090205481811015610d6c5760405162461bcd60e51b815260206004820152602260248201527f45524332303a206275726e20616d6f756e7420657863656564732062616c616e604482015261636560f01b60648201526084016104fe565b6001600160a01b0383166000908152602081905260408120838303905560028054849290610d9b90849061119e565b90915550506040518281526000906001600160a01b038516907fddf252ad1be2c89b69c2b068fc378daa952ba7f163c4a11628f55a4df523b3ef9060200160405180910390a3505050565b60606000610df583600261117f565b610e00906002611167565b67ffffffffffffffff811115610e1857610e1861125f565b6040519080825280601f01601f191660200182016040528015610e42576020820181803683370190505b509050600360fc1b81600081518110610e5d57610e5d611249565b60200101906001600160f81b031916908160001a905350600f60fb1b81600181518110610e8c57610e8c611249565b60200101906001600160f81b031916908160001a9053506000610eb084600261117f565b610ebb906001611167565b90505b6001811115610f33576f181899199a1a9b1b9c1cb0b131b232b360811b85600f1660108110610eef57610eef611249565b1a60f81b828281518110610f0557610f05611249565b60200101906001600160f81b031916908160001a90535060049490941c93610f2c816111e1565b9050610ebe565b508315610f825760405162461bcd60e51b815260206004820181905260248201527f537472696e67733a20686578206c656e67746820696e73756666696369656e7460448201526064016104fe565b9392505050565b80356001600160a01b0381168114610fa057600080fd5b919050565b600060208284031215610fb757600080fd5b610f8282610f89565b60008060408385031215610fd357600080fd5b610fdc83610f89565b9150610fea60208401610f89565b90509250929050565b60008060006060848603121561100857600080fd5b61101184610f89565b925061101f60208501610f89565b9150604084013590509250925092565b6000806040838503121561104257600080fd5b61104b83610f89565b946020939093013593505050565b60006020828403121561106b57600080fd5b5035919050565b6000806040838503121561108557600080fd5b82359150610fea60208401610f89565b6000602082840312156110a757600080fd5b81356001600160e01b031981168114610f8257600080fd5b7f416363657373436f6e74726f6c3a206163636f756e74200000000000000000008152600083516110f78160178501602088016111b5565b7001034b99036b4b9b9b4b733903937b6329607d1b60179184019182015283516111288160288401602088016111b5565b01602801949350505050565b60208152600082518060208401526111538160408501602087016111b5565b601f01601f19169190910160400192915050565b6000821982111561117a5761117a611233565b500190565b600081600019048311821515161561119957611199611233565b500290565b6000828210156111b0576111b0611233565b500390565b60005b838110156111d05781810151838201526020016111b8565b83811115610a625750506000910152565b6000816111f0576111f0611233565b506000190190565b600181811c9082168061120c57607f821691505b6020821081141561122d57634e487b7160e01b600052602260045260246000fd5b50919050565b634e487b7160e01b600052601160045260246000fd5b634e487b7160e01b600052603260045260246000fd5b634e487b7160e01b600052604160045260246000fdfea2646970667358221220765d9de394dbca9e94a7f192167272d8ad89f5b05a05b03b8411a1a08d8e2fbd64736f6c63430008060033df8b4c520ffe197c5343c6f5aec59570151ef9a492f2c624fd45ddde6135ec42",
  "linkReferences": {},
  "deployedLinkReferences": {}
}