{
  "_format": "hh-sol-artifact-1",
  "contractName": "GovernorAlpha",
  "sourceName": "contracts/GovernorAlpha.sol",
  "abi": [
    {
      "inputs": [
        {
          "internalType": "address",
          "name": "timelock_",
          "type": "address"
        },
        {
          "internalType": "address",
          "name": "eigen_",
          "type": "address"
        }
      ],
      "stateMutability": "nonpayable",
      "type": "constructor"
    },
    {
      "anonymous": false,
      "inputs": [
        {
          "indexed": false,
          "internalType": "uint256",
          "name": "id",
          "type": "uint256"
        }
      ],
      "name": "ProposalCanceled",
      "type": "event"
    },
    {
      "anonymous": false,
      "inputs": [
        {
          "indexed": false,
          "internalType": "uint256",
          "name": "id",
          "type": "uint256"
        },
        {
          "indexed": false,
          "internalType": "address",
          "name": "proposer",
          "type": "address"
        },
        {
          "indexed": false,
          "internalType": "address[]",
          "name": "targets",
          "type": "address[]"
        },
        {
          "indexed": false,
          "internalType": "uint256[]",
          "name": "values",
          "type": "uint256[]"
        },
        {
          "indexed": false,
          "internalType": "string[]",
          "name": "signatures",
          "type": "string[]"
        },
        {
          "indexed": false,
          "internalType": "bytes[]",
          "name": "calldatas",
          "type": "bytes[]"
        },
        {
          "indexed": false,
          "internalType": "uint256",
          "name": "startBlock",
          "type": "uint256"
        },
        {
          "indexed": false,
          "internalType": "uint256",
          "name": "endBlock",
          "type": "uint256"
        },
        {
          "indexed": false,
          "internalType": "string",
          "name": "description",
          "type": "string"
        }
      ],
      "name": "ProposalCreated",
      "type": "event"
    },
    {
      "anonymous": false,
      "inputs": [
        {
          "indexed": false,
          "internalType": "uint256",
          "name": "id",
          "type": "uint256"
        }
      ],
      "name": "ProposalExecuted",
      "type": "event"
    },
    {
      "anonymous": false,
      "inputs": [
        {
          "indexed": false,
          "internalType": "uint256",
          "name": "id",
          "type": "uint256"
        },
        {
          "indexed": false,
          "internalType": "uint256",
          "name": "eta",
          "type": "uint256"
        }
      ],
      "name": "ProposalQueued",
      "type": "event"
    },
    {
      "anonymous": false,
      "inputs": [
        {
          "indexed": false,
          "internalType": "address",
          "name": "voter",
          "type": "address"
        },
        {
          "indexed": false,
          "internalType": "uint256",
          "name": "proposalId",
          "type": "uint256"
        },
        {
          "indexed": false,
          "internalType": "bool",
          "name": "support",
          "type": "bool"
        },
        {
          "indexed": false,
          "internalType": "uint256",
          "name": "votes",
          "type": "uint256"
        }
      ],
      "name": "VoteCast",
      "type": "event"
    },
    {
      "inputs": [],
      "name": "BALLOT_TYPEHASH",
      "outputs": [
        {
          "internalType": "bytes32",
          "name": "",
          "type": "bytes32"
        }
      ],
      "stateMutability": "view",
      "type": "function"
    },
    {
      "inputs": [],
      "name": "DOMAIN_TYPEHASH",
      "outputs": [
        {
          "internalType": "bytes32",
          "name": "",
          "type": "bytes32"
        }
      ],
      "stateMutability": "view",
      "type": "function"
    },
    {
      "inputs": [],
      "name": "NAME",
      "outputs": [
        {
          "internalType": "string",
          "name": "",
          "type": "string"
        }
      ],
      "stateMutability": "view",
      "type": "function"
    },
    {
      "inputs": [
        {
          "internalType": "uint256",
          "name": "proposalId",
          "type": "uint256"
        }
      ],
      "name": "cancel",
      "outputs": [],
      "stateMutability": "nonpayable",
      "type": "function"
    },
    {
      "inputs": [
        {
          "internalType": "uint256",
          "name": "proposalId",
          "type": "uint256"
        },
        {
          "internalType": "bool",
          "name": "support",
          "type": "bool"
        }
      ],
      "name": "castVote",
      "outputs": [],
      "stateMutability": "nonpayable",
      "type": "function"
    },
    {
      "inputs": [
        {
          "internalType": "uint256",
          "name": "proposalId",
          "type": "uint256"
        },
        {
          "internalType": "bool",
          "name": "support",
          "type": "bool"
        },
        {
          "internalType": "uint8",
          "name": "v",
          "type": "uint8"
        },
        {
          "internalType": "bytes32",
          "name": "r",
          "type": "bytes32"
        },
        {
          "internalType": "bytes32",
          "name": "s",
          "type": "bytes32"
        }
      ],
      "name": "castVoteBySig",
      "outputs": [],
      "stateMutability": "nonpayable",
      "type": "function"
    },
    {
      "inputs": [],
      "name": "eigen",
      "outputs": [
        {
          "internalType": "contract EigenInterface",
          "name": "",
          "type": "address"
        }
      ],
      "stateMutability": "view",
      "type": "function"
    },
    {
      "inputs": [
        {
          "internalType": "uint256",
          "name": "proposalId",
          "type": "uint256"
        }
      ],
      "name": "execute",
      "outputs": [],
      "stateMutability": "payable",
      "type": "function"
    },
    {
      "inputs": [
        {
          "internalType": "uint256",
          "name": "proposalId",
          "type": "uint256"
        }
      ],
      "name": "getActions",
      "outputs": [
        {
          "internalType": "address[]",
          "name": "targets",
          "type": "address[]"
        },
        {
          "internalType": "uint256[]",
          "name": "values",
          "type": "uint256[]"
        },
        {
          "internalType": "string[]",
          "name": "signatures",
          "type": "string[]"
        },
        {
          "internalType": "bytes[]",
          "name": "calldatas",
          "type": "bytes[]"
        }
      ],
      "stateMutability": "view",
      "type": "function"
    },
    {
      "inputs": [
        {
          "internalType": "uint256",
          "name": "proposalId",
          "type": "uint256"
        },
        {
          "internalType": "address",
          "name": "voter",
          "type": "address"
        }
      ],
      "name": "getReceipt",
      "outputs": [
        {
          "components": [
            {
              "internalType": "bool",
              "name": "hasVoted",
              "type": "bool"
            },
            {
              "internalType": "bool",
              "name": "support",
              "type": "bool"
            },
            {
              "internalType": "uint96",
              "name": "votes",
              "type": "uint96"
            }
          ],
          "internalType": "struct GovernorAlpha.Receipt",
          "name": "",
          "type": "tuple"
        }
      ],
      "stateMutability": "view",
      "type": "function"
    },
    {
      "inputs": [
        {
          "internalType": "address",
          "name": "",
          "type": "address"
        }
      ],
      "name": "latestProposalIds",
      "outputs": [
        {
          "internalType": "uint256",
          "name": "",
          "type": "uint256"
        }
      ],
      "stateMutability": "view",
      "type": "function"
    },
    {
      "inputs": [],
      "name": "proposalCount",
      "outputs": [
        {
          "internalType": "uint256",
          "name": "",
          "type": "uint256"
        }
      ],
      "stateMutability": "view",
      "type": "function"
    },
    {
      "inputs": [],
      "name": "proposalMaxOperations",
      "outputs": [
        {
          "internalType": "uint256",
          "name": "",
          "type": "uint256"
        }
      ],
      "stateMutability": "pure",
      "type": "function"
    },
    {
      "inputs": [],
      "name": "proposalThreshold",
      "outputs": [
        {
          "internalType": "uint256",
          "name": "",
          "type": "uint256"
        }
      ],
      "stateMutability": "pure",
      "type": "function"
    },
    {
      "inputs": [
        {
          "internalType": "uint256",
          "name": "",
          "type": "uint256"
        }
      ],
      "name": "proposals",
      "outputs": [
        {
          "internalType": "uint256",
          "name": "id",
          "type": "uint256"
        },
        {
          "internalType": "address",
          "name": "proposer",
          "type": "address"
        },
        {
          "internalType": "uint256",
          "name": "eta",
          "type": "uint256"
        },
        {
          "internalType": "uint256",
          "name": "startBlock",
          "type": "uint256"
        },
        {
          "internalType": "uint256",
          "name": "endBlock",
          "type": "uint256"
        },
        {
          "internalType": "uint256",
          "name": "forVotes",
          "type": "uint256"
        },
        {
          "internalType": "uint256",
          "name": "againstVotes",
          "type": "uint256"
        },
        {
          "internalType": "bool",
          "name": "canceled",
          "type": "bool"
        },
        {
          "internalType": "bool",
          "name": "executed",
          "type": "bool"
        }
      ],
      "stateMutability": "view",
      "type": "function"
    },
    {
      "inputs": [
        {
          "internalType": "address[]",
          "name": "targets",
          "type": "address[]"
        },
        {
          "internalType": "uint256[]",
          "name": "values",
          "type": "uint256[]"
        },
        {
          "internalType": "string[]",
          "name": "signatures",
          "type": "string[]"
        },
        {
          "internalType": "bytes[]",
          "name": "calldatas",
          "type": "bytes[]"
        },
        {
          "internalType": "string",
          "name": "description",
          "type": "string"
        }
      ],
      "name": "propose",
      "outputs": [
        {
          "internalType": "uint256",
          "name": "",
          "type": "uint256"
        }
      ],
      "stateMutability": "nonpayable",
      "type": "function"
    },
    {
      "inputs": [
        {
          "internalType": "uint256",
          "name": "proposalId",
          "type": "uint256"
        }
      ],
      "name": "queue",
      "outputs": [],
      "stateMutability": "nonpayable",
      "type": "function"
    },
    {
      "inputs": [],
      "name": "quorumVotes",
      "outputs": [
        {
          "internalType": "uint256",
          "name": "",
          "type": "uint256"
        }
      ],
      "stateMutability": "pure",
      "type": "function"
    },
    {
      "inputs": [
        {
          "internalType": "uint256",
          "name": "proposalId",
          "type": "uint256"
        }
      ],
      "name": "state",
      "outputs": [
        {
          "internalType": "enum GovernorAlpha.ProposalState",
          "name": "",
          "type": "uint8"
        }
      ],
      "stateMutability": "view",
      "type": "function"
    },
    {
      "inputs": [],
      "name": "timelock",
      "outputs": [
        {
          "internalType": "contract TimelockInterface",
          "name": "",
          "type": "address"
        }
      ],
      "stateMutability": "view",
      "type": "function"
    },
    {
      "inputs": [],
      "name": "votingDelay",
      "outputs": [
        {
          "internalType": "uint256",
          "name": "",
          "type": "uint256"
        }
      ],
      "stateMutability": "pure",
      "type": "function"
    },
    {
      "inputs": [],
      "name": "votingPeriod",
      "outputs": [
        {
          "internalType": "uint256",
          "name": "",
          "type": "uint256"
        }
      ],
      "stateMutability": "pure",
      "type": "function"
    }
  ],
  "bytecode": "0x60806040523480156200001157600080fd5b5060405162002cee38038062002cee833981016040819052620000349162000083565b600080546001600160a01b039384166001600160a01b03199182161790915560018054929093169116179055620000ba565b80516001600160a01b03811681146200007e57600080fd5b919050565b6000806040838503121562000096578182fd5b620000a18362000066565b9150620000b16020840162000066565b90509250929050565b612c2480620000ca6000396000f3fe6080604052600436106101355760003560e01c8063677c0c67116100ab578063da35c6641161006f578063da35c6641461044b578063da95691a14610461578063ddf0b00914610481578063deaaa7cc146104a1578063e23a9a52146104d5578063fe0d94c1146105a057610135565b8063677c0c67146103745780637bdbe4d0146103ac578063a3f4df7e146103c0578063b58131b01461040d578063d33219b41461042b57610135565b806324bc1a64116100fd57806324bc1a64146102a5578063328dd982146102c35780633932abb1146102f35780633e4f49e61461030757806340e58ee5146103345780634634c61f1461035457610135565b8063013cf08b1461013a57806302a251a31461020357806315373e3d1461022257806317977c611461024457806320606b7014610271575b600080fd5b34801561014657600080fd5b506101ae610155366004612658565b6003602052600090815260409020805460018201546002830154600784015460088501546009860154600a870154600b9097015495966001600160a01b0390951695939492939192909160ff8082169161010090041689565b60408051998a526001600160a01b0390981660208a0152968801959095526060870193909352608086019190915260a085015260c0840152151560e08301521515610100820152610120015b60405180910390f35b34801561020f57600080fd5b50619d805b6040519081526020016101fa565b34801561022e57600080fd5b5061024261023d36600461269b565b6105b3565b005b34801561025057600080fd5b5061021461025f3660046124cb565b60046020526000908152604090205481565b34801561027d57600080fd5b506102147f8cad95687ba82c2ce50e74f7b754645e5117c3a5bec8151c0726d5857980a86681565b3480156102b157600080fd5b506a2116545850052128000000610214565b3480156102cf57600080fd5b506102e36102de366004612658565b6105c2565b6040516101fa949392919061295d565b3480156102ff57600080fd5b506001610214565b34801561031357600080fd5b50610327610322366004612658565b610853565b6040516101fa91906129b5565b34801561034057600080fd5b5061024261034f366004612658565b610a2e565b34801561036057600080fd5b5061024261036f3660046126ca565b610d93565b34801561038057600080fd5b50600154610394906001600160a01b031681565b6040516001600160a01b0390911681526020016101fa565b3480156103b857600080fd5b50600a610214565b3480156103cc57600080fd5b5061040060405180604001604052806014815260200173456967656e20476f7665726e6f7220416c70686160601b81525081565b6040516101fa91906129dd565b34801561041957600080fd5b506a084595161401484a000000610214565b34801561043757600080fd5b50600054610394906001600160a01b031681565b34801561045757600080fd5b5061021460025481565b34801561046d57600080fd5b5061021461047c3660046124e5565b610fa7565b34801561048d57600080fd5b5061024261049c366004612658565b61158c565b3480156104ad57600080fd5b506102147f8e25870c07e0b0b3884c78da52790939a455c275406c44ae8b434b692fb916ee81565b3480156104e157600080fd5b506105716104f0366004612670565b60408051606081018252600080825260208201819052918101919091525060009182526003602090815260408084206001600160a01b03939093168452600c9092018152918190208151606081018352905460ff80821615158352610100820416151593820193909352620100009092046001600160601b03169082015290565b60408051825115158152602080840151151590820152918101516001600160601b0316908201526060016101fa565b6102426105ae366004612658565b6118d0565b6105be338383611b77565b5050565b6060806060806000600360008781526020019081526020016000209050806003018160040182600501836006018380548060200260200160405190810160405280929190818152602001828054801561064457602002820191906000526020600020905b81546001600160a01b03168152600190910190602001808311610626575b505050505093508280548060200260200160405190810160405280929190818152602001828054801561069657602002820191906000526020600020905b815481526020019060010190808311610682575b5050505050925081805480602002602001604051908101604052809291908181526020016000905b8282101561076a5783829060005260206000200180546106dd90612b64565b80601f016020809104026020016040519081016040528092919081815260200182805461070990612b64565b80156107565780601f1061072b57610100808354040283529160200191610756565b820191906000526020600020905b81548152906001019060200180831161073957829003601f168201915b5050505050815260200190600101906106be565b50505050915080805480602002602001604051908101604052809291908181526020016000905b8282101561083d5783829060005260206000200180546107b090612b64565b80601f01602080910402602001604051908101604052809291908181526020018280546107dc90612b64565b80156108295780601f106107fe57610100808354040283529160200191610829565b820191906000526020600020905b81548152906001019060200180831161080c57829003601f168201915b505050505081526020019060010190610791565b5050505090509450945094509450509193509193565b600081600254101580156108675750600082115b6108ca5760405162461bcd60e51b815260206004820152602960248201527f476f7665726e6f72416c7068613a3a73746174653a20696e76616c69642070726044820152681bdc1bdcd85b081a5960ba1b60648201526084015b60405180910390fd5b6000828152600360205260409020600b81015460ff16156108ef576002915050610a29565b80600701544311610904576000915050610a29565b80600801544311610919576001915050610a29565b80600a0154816009015411158061093e57506a21165458500521280000008160090154105b1561094d576003915050610a29565b6002810154610960576004915050610a29565b600b810154610100900460ff161561097c576007915050610a29565b610a0d816002015460008054906101000a90046001600160a01b03166001600160a01b031663c1a287e26040518163ffffffff1660e01b815260040160206040518083038186803b1580156109d057600080fd5b505afa1580156109e4573d6000803e3d6000fd5b505050506040513d601f19601f82011682018060405250810190610a0891906125cd565b611e04565b4210610a1d576006915050610a29565b6005915050610a29565b505b919050565b6000610a3982610853565b90506007816007811115610a5d57634e487b7160e01b600052602160045260246000fd5b1415610aca5760405162461bcd60e51b815260206004820152603660248201527f476f7665726e6f72416c7068613a3a63616e63656c3a2063616e6e6f742063616044820152751b98d95b08195e1958dd5d1959081c1c9bdc1bdcd85b60521b60648201526084016108c1565b600082815260036020526040902060018054818301546a084595161401484a000000926001600160a01b039283169263782d6fe1921690610b0c904390611e5e565b6040516001600160e01b031960e085901b1681526001600160a01b039092166004830152602482015260440160206040518083038186803b158015610b5057600080fd5b505afa158015610b64573d6000803e3d6000fd5b505050506040513d601f19601f82011682018060405250810190610b889190612720565b6001600160601b031610610bf65760405162461bcd60e51b815260206004820152602f60248201527f476f7665726e6f72416c7068613a3a63616e63656c3a2070726f706f7365722060448201526e18589bdd99481d1a1c995cda1bdb19608a1b60648201526084016108c1565b600b8101805460ff1916600117905560005b6003820154811015610d59576000546003830180546001600160a01b039092169163591fcdfe919084908110610c4e57634e487b7160e01b600052603260045260246000fd5b6000918252602090912001546004850180546001600160a01b039092169185908110610c8a57634e487b7160e01b600052603260045260246000fd5b9060005260206000200154856005018581548110610cb857634e487b7160e01b600052603260045260246000fd5b90600052602060002001866006018681548110610ce557634e487b7160e01b600052603260045260246000fd5b9060005260206000200187600201546040518663ffffffff1660e01b8152600401610d14959493929190612924565b600060405180830381600087803b158015610d2e57600080fd5b505af1158015610d42573d6000803e3d6000fd5b505050508080610d5190612b99565b915050610c08565b506040518381527f789cf55be980739dad1d0699b93b58e806b51c9d96619bfa8fe0a28abaa7b30c906020015b60405180910390a1505050565b6040805180820182526014815273456967656e20476f7665726e6f7220416c70686160601b60209182015281517f8cad95687ba82c2ce50e74f7b754645e5117c3a5bec8151c0726d5857980a866818301527f58f6c6d9b61458538143fb23e3d9e39db906ae47145831225db1ea1fbe835da481840152466060820152306080808301919091528351808303909101815260a0820184528051908301207f8e25870c07e0b0b3884c78da52790939a455c275406c44ae8b434b692fb916ee60c083015260e08201899052871515610100808401919091528451808403909101815261012083019094528351939092019290922061190160f01b6101408401526101428301829052610162830181905290916000906101820160408051601f198184030181528282528051602091820120600080855291840180845281905260ff8a169284019290925260608301889052608083018790529092509060019060a0016020604051602081039080840390855afa158015610f16573d6000803e3d6000fd5b5050604051601f1901519150506001600160a01b038116610f915760405162461bcd60e51b815260206004820152602f60248201527f476f7665726e6f72416c7068613a3a63617374566f746542795369673a20696e60448201526e76616c6964207369676e617475726560881b60648201526084016108c1565b610f9c818a8a611b77565b505050505050505050565b60006a084595161401484a000000600180546001600160a01b03169063782d6fe1903390610fd6904390611e5e565b6040516001600160e01b031960e085901b1681526001600160a01b039092166004830152602482015260440160206040518083038186803b15801561101a57600080fd5b505afa15801561102e573d6000803e3d6000fd5b505050506040513d601f19601f820116820180604052508101906110529190612720565b6001600160601b0316116110ce5760405162461bcd60e51b815260206004820152603f60248201527f476f7665726e6f72416c7068613a3a70726f706f73653a2070726f706f73657260448201527f20766f7465732062656c6f772070726f706f73616c207468726573686f6c640060648201526084016108c1565b845186511480156110e0575083518651145b80156110ed575082518651145b61116d5760405162461bcd60e51b8152602060048201526044602482018190527f476f7665726e6f72416c7068613a3a70726f706f73653a2070726f706f73616c908201527f2066756e6374696f6e20696e666f726d6174696f6e206172697479206d69736d6064820152630c2e8c6d60e31b608482015260a4016108c1565b85516111d05760405162461bcd60e51b815260206004820152602c60248201527f476f7665726e6f72416c7068613a3a70726f706f73653a206d7573742070726f60448201526b7669646520616374696f6e7360a01b60648201526084016108c1565b600a865111156112335760405162461bcd60e51b815260206004820152602860248201527f476f7665726e6f72416c7068613a3a70726f706f73653a20746f6f206d616e7960448201526720616374696f6e7360c01b60648201526084016108c1565b3360009081526004602052604090205480156113d057600061125482610853565b9050600181600781111561127857634e487b7160e01b600052602160045260246000fd5b14156113125760405162461bcd60e51b815260206004820152605860248201527f476f7665726e6f72416c7068613a3a70726f706f73653a206f6e65206c69766560448201527f2070726f706f73616c207065722070726f706f7365722c20666f756e6420616e60648201527f20616c7265616479206163746976652070726f706f73616c0000000000000000608482015260a4016108c1565b600081600781111561133457634e487b7160e01b600052602160045260246000fd5b14156113ce5760405162461bcd60e51b815260206004820152605960248201527f476f7665726e6f72416c7068613a3a70726f706f73653a206f6e65206c69766560448201527f2070726f706f73616c207065722070726f706f7365722c20666f756e6420616e60648201527f20616c72656164792070656e64696e672070726f706f73616c00000000000000608482015260a4016108c1565b505b60006113dd436001610a08565b905060006113ed82619d80610a08565b6002805491925060006113ff83612b99565b909155505060028054600081815260036020818152604083209384556001840180546001600160a01b03191633179055938301919091558b51919261144b9291840191908d0190612077565b50885161146190600483019060208c01906120dc565b50875161147790600583019060208b0190612117565b50865161148d90600683019060208a0190612170565b5082816007018190555081816008018190555060008160090181905550600081600a0181905550600081600b0160006101000a81548160ff021916908315150217905550600081600b0160016101000a81548160ff0219169083151502179055508060000154600460008360010160009054906101000a90046001600160a01b03166001600160a01b03166001600160a01b03168152602001908152602001600020819055507f7d84a6263ae0d98d3329bd7b46bb4e8d6f98cd35a7adb45c274c8b7fd5ebd5e08160000154338c8c8c8c89898e604051611576999897969594939291906129f0565b60405180910390a1549998505050505050505050565b600461159782610853565b60078111156115b657634e487b7160e01b600052602160045260246000fd5b146116375760405162461bcd60e51b8152602060048201526044602482018190527f476f7665726e6f72416c7068613a3a71756575653a2070726f706f73616c2063908201527f616e206f6e6c79206265207175657565642069662069742069732073756363656064820152631959195960e21b608482015260a4016108c1565b600081815260036020908152604080832083548251630d48571f60e31b815292519194936116909342936001600160a01b0390931692636a42b8f892600480840193919291829003018186803b1580156109d057600080fd5b905060005b6003830154811015611892576118808360030182815481106116c757634e487b7160e01b600052603260045260246000fd5b6000918252602090912001546004850180546001600160a01b03909216918490811061170357634e487b7160e01b600052603260045260246000fd5b906000526020600020015485600501848154811061173157634e487b7160e01b600052603260045260246000fd5b90600052602060002001805461174690612b64565b80601f016020809104026020016040519081016040528092919081815260200182805461177290612b64565b80156117bf5780601f10611794576101008083540402835291602001916117bf565b820191906000526020600020905b8154815290600101906020018083116117a257829003601f168201915b50505050508660060185815481106117e757634e487b7160e01b600052603260045260246000fd5b9060005260206000200180546117fc90612b64565b80601f016020809104026020016040519081016040528092919081815260200182805461182890612b64565b80156118755780601f1061184a57610100808354040283529160200191611875565b820191906000526020600020905b81548152906001019060200180831161185857829003601f168201915b505050505086611eb2565b8061188a81612b99565b915050611695565b506002820181905560408051848152602081018390527f9a2e42fd6722813d69113e7d0079d3d940171428df7373df9c7f7617cfda28929101610d86565b60056118db82610853565b60078111156118fa57634e487b7160e01b600052602160045260246000fd5b1461197b5760405162461bcd60e51b815260206004820152604560248201527f476f7665726e6f72416c7068613a3a657865637574653a2070726f706f73616c60448201527f2063616e206f6e6c7920626520657865637574656420696620697420697320716064820152641d595d595960da1b608482015260a4016108c1565b6000818152600360205260408120600b8101805461ff001916610100179055905b6003820154811015611b3f576000546004830180546001600160a01b0390921691630825f38f9190849081106119e257634e487b7160e01b600052603260045260246000fd5b9060005260206000200154846003018481548110611a1057634e487b7160e01b600052603260045260246000fd5b6000918252602090912001546004860180546001600160a01b039092169186908110611a4c57634e487b7160e01b600052603260045260246000fd5b9060005260206000200154866005018681548110611a7a57634e487b7160e01b600052603260045260246000fd5b90600052602060002001876006018781548110611aa757634e487b7160e01b600052603260045260246000fd5b9060005260206000200188600201546040518763ffffffff1660e01b8152600401611ad6959493929190612924565b6000604051808303818588803b158015611aef57600080fd5b505af1158015611b03573d6000803e3d6000fd5b50505050506040513d6000823e601f3d908101601f19168201604052611b2c91908101906125e5565b5080611b3781612b99565b91505061199c565b506040518281527f712ae1383f79ac853f8d882153778e0260ef8f03b504e2866e0593e04d2b291f9060200160405180910390a15050565b6001611b8283610853565b6007811115611ba157634e487b7160e01b600052602160045260246000fd5b14611c015760405162461bcd60e51b815260206004820152602a60248201527f476f7665726e6f72416c7068613a3a5f63617374566f74653a20766f74696e67604482015269081a5cc818db1bdcd95960b21b60648201526084016108c1565b60008281526003602090815260408083206001600160a01b0387168452600c8101909252909120805460ff1615611c905760405162461bcd60e51b815260206004820152602d60248201527f476f7665726e6f72416c7068613a3a5f63617374566f74653a20766f7465722060448201526c185b1c9958591e481d9bdd1959609a1b60648201526084016108c1565b600154600783015460405163782d6fe160e01b81526000926001600160a01b03169163782d6fe191611cda918a916004016001600160a01b03929092168252602082015260400190565b60206040518083038186803b158015611cf257600080fd5b505afa158015611d06573d6000803e3d6000fd5b505050506040513d601f19601f82011682018060405250810190611d2a9190612720565b90508315611d5357611d498360090154826001600160601b0316611e04565b6009840155611d70565b611d6a83600a0154826001600160601b0316611e04565b600a8401555b81546001600160601b0382166201000081026dffffffffffffffffffffffff000019871515610100810261ffff199095169490941760011716178455604080516001600160a01b038a168152602081018990529081019290925260608201527f877856338e13f63d0c36822ff0ef736b80934cd90574a3a5bc9262c39d217c469060800160405180910390a1505050505050565b600080611e118385612b05565b905083811015611e575760405162461bcd60e51b81526020600482015260116024820152706164646974696f6e206f766572666c6f7760781b60448201526064016108c1565b9392505050565b600082821115611ea85760405162461bcd60e51b81526020600482015260156024820152747375627472616374696f6e20756e646572666c6f7760581b60448201526064016108c1565b611e578284612b1d565b6000546040516001600160a01b039091169063f2b0653790611ee090889088908890889088906020016128d8565b604051602081830303815290604052805190602001206040518263ffffffff1660e01b8152600401611f1491815260200190565b60206040518083038186803b158015611f2c57600080fd5b505afa158015611f40573d6000803e3d6000fd5b505050506040513d601f19601f82011682018060405250810190611f6491906125b1565b15611fe55760405162461bcd60e51b8152602060048201526044602482018190527f476f7665726e6f72416c7068613a3a5f71756575654f725265766572743a2070908201527f726f706f73616c20616374696f6e20616c7265616479207175657565642061746064820152632065746160e01b608482015260a4016108c1565b600054604051633a66f90160e01b81526001600160a01b0390911690633a66f9019061201d90889088908890889088906004016128d8565b602060405180830381600087803b15801561203757600080fd5b505af115801561204b573d6000803e3d6000fd5b505050506040513d601f19601f8201168201806040525081019061206f91906125cd565b505050505050565b8280548282559060005260206000209081019282156120cc579160200282015b828111156120cc57825182546001600160a01b0319166001600160a01b03909116178255602090920191600190910190612097565b506120d89291506121c9565b5090565b8280548282559060005260206000209081019282156120cc579160200282015b828111156120cc5782518255916020019190600101906120fc565b828054828255906000526020600020908101928215612164579160200282015b8281111561216457825180516121549184916020909101906121de565b5091602001919060010190612137565b506120d8929150612251565b8280548282559060005260206000209081019282156121bd579160200282015b828111156121bd57825180516121ad9184916020909101906121de565b5091602001919060010190612190565b506120d892915061226e565b5b808211156120d857600081556001016121ca565b8280546121ea90612b64565b90600052602060002090601f01602090048101928261220c57600085556120cc565b82601f1061222557805160ff19168380011785556120cc565b828001600101855582156120cc57918201828111156120cc5782518255916020019190600101906120fc565b808211156120d8576000612265828261228b565b50600101612251565b808211156120d8576000612282828261228b565b5060010161226e565b50805461229790612b64565b6000825580601f106122a957506122c7565b601f0160209004906000526020600020908101906122c791906121c9565b50565b60006122dd6122d884612add565b612a88565b90508281528383830111156122f157600080fd5b828260208301376000602084830101529392505050565b80356001600160a01b0381168114610a2957600080fd5b600082601f83011261232f578081fd5b8135602061233f6122d883612ab9565b80838252828201915082860187848660051b890101111561235e578586fd5b855b858110156123835761237182612308565b84529284019290840190600101612360565b5090979650505050505050565b600082601f8301126123a0578081fd5b813560206123b06122d883612ab9565b82815281810190858301855b85811015612383578135880189603f8201126123d6578788fd5b6123e78a87830135604084016122ca565b85525092840192908401906001016123bc565b600082601f83011261240a578081fd5b8135602061241a6122d883612ab9565b82815281810190858301855b858110156123835761243d898684358b01016124ac565b84529284019290840190600101612426565b600082601f83011261245f578081fd5b8135602061246f6122d883612ab9565b80838252828201915082860187848660051b890101111561248e578586fd5b855b8581101561238357813584529284019290840190600101612490565b600082601f8301126124bc578081fd5b611e57838335602085016122ca565b6000602082840312156124dc578081fd5b611e5782612308565b600080600080600060a086880312156124fc578081fd5b853567ffffffffffffffff80821115612513578283fd5b61251f89838a0161231f565b96506020880135915080821115612534578283fd5b61254089838a0161244f565b95506040880135915080821115612555578283fd5b61256189838a016123fa565b94506060880135915080821115612576578283fd5b61258289838a01612390565b93506080880135915080821115612597578283fd5b506125a4888289016124ac565b9150509295509295909350565b6000602082840312156125c2578081fd5b8151611e5781612be0565b6000602082840312156125de578081fd5b5051919050565b6000602082840312156125f6578081fd5b815167ffffffffffffffff81111561260c578182fd5b8201601f8101841361261c578182fd5b805161262a6122d882612add565b81815285602083850101111561263e578384fd5b61264f826020830160208601612b34565b95945050505050565b600060208284031215612669578081fd5b5035919050565b60008060408385031215612682578182fd5b8235915061269260208401612308565b90509250929050565b600080604083850312156126ad578182fd5b8235915060208301356126bf81612be0565b809150509250929050565b600080600080600060a086880312156126e1578283fd5b8535945060208601356126f381612be0565b9350604086013560ff81168114612708578384fd5b94979396509394606081013594506080013592915050565b600060208284031215612731578081fd5b81516001600160601b0381168114611e57578182fd5b6000815180845260208085019450808401835b8381101561277f5781516001600160a01b03168752958201959082019060010161275a565b509495945050505050565b600081518084526020808501808196508360051b81019150828601855b858110156127d15782840389526127bf84835161280d565b988501989350908401906001016127a7565b5091979650505050505050565b6000815180845260208085019450808401835b8381101561277f578151875295820195908201906001016127f1565b60008151808452612825816020860160208601612b34565b601f01601f19169290920160200192915050565b8054600090600181811c908083168061285357607f831692505b602080841082141561287357634e487b7160e01b86526022600452602486fd5b83885281801561288a576001811461289e576128cc565b60ff198616898301526040890196506128cc565b876000528160002060005b868110156128c45781548b82018501529085019083016128a9565b8a0183019750505b50505050505092915050565b600060018060a01b038716825285602083015260a060408301526128ff60a083018661280d565b8281036060840152612911818661280d565b9150508260808301529695505050505050565b600060018060a01b038716825285602083015260a0604083015261294b60a0830186612839565b82810360608401526129118186612839565b6000608082526129706080830187612747565b828103602084015261298281876127de565b90508281036040840152612996818661278a565b905082810360608401526129aa818561278a565b979650505050505050565b60208101600883106129d757634e487b7160e01b600052602160045260246000fd5b91905290565b600060208252611e57602083018461280d565b8981526001600160a01b038916602082015261012060408201819052600090612a1b8382018b612747565b90508281036060840152612a2f818a6127de565b90508281036080840152612a43818961278a565b905082810360a0840152612a57818861278a565b90508560c08401528460e0840152828103610100840152612a78818561280d565b9c9b505050505050505050505050565b604051601f8201601f1916810167ffffffffffffffff81118282101715612ab157612ab1612bca565b604052919050565b600067ffffffffffffffff821115612ad357612ad3612bca565b5060051b60200190565b600067ffffffffffffffff821115612af757612af7612bca565b50601f01601f191660200190565b60008219821115612b1857612b18612bb4565b500190565b600082821015612b2f57612b2f612bb4565b500390565b60005b83811015612b4f578181015183820152602001612b37565b83811115612b5e576000848401525b50505050565b600181811c90821680612b7857607f821691505b60208210811415610a2757634e487b7160e01b600052602260045260246000fd5b6000600019821415612bad57612bad612bb4565b5060010190565b634e487b7160e01b600052601160045260246000fd5b634e487b7160e01b600052604160045260246000fd5b80151581146122c757600080fdfea26469706673582212208329c1f140312b39bc71bda5f8ba9280fdf26a877c993e631bacbc9c93274f3564736f6c63430008030033",
  "linkReferences": {},
  "deployedLinkReferences": {}
}