{
  "_format": "hh-sol-artifact-1",
  "contractName": "Proxy",
  "sourceName": "contracts/Proxy.sol",
  "abi": [
    {
      "inputs": [
        {
          "internalType": "address",
          "name": "_master",
          "type": "address"
        }
      ],
      "stateMutability": "nonpayable",
      "type": "constructor"
    },
    {
      "anonymous": false,
      "inputs": [
        {
          "indexed": true,
          "internalType": "address",
          "name": "previousOwner",
          "type": "address"
        },
        {
          "indexed": true,
          "internalType": "address",
          "name": "newOwner",
          "type": "address"
        }
      ],
      "name": "OwnershipTransferred",
      "type": "event"
    },
    {
      "inputs": [
        {
          "internalType": "bytes32",
          "name": "salt",
          "type": "bytes32"
        }
      ],
      "name": "create",
      "outputs": [],
      "stateMutability": "payable",
      "type": "function"
    },
    {
      "inputs": [
        {
          "internalType": "bytes32",
          "name": "salt",
          "type": "bytes32"
        }
      ],
      "name": "getAddress",
      "outputs": [
        {
          "internalType": "address",
          "name": "",
          "type": "address"
        }
      ],
      "stateMutability": "view",
      "type": "function"
    },
    {
      "inputs": [],
      "name": "master",
      "outputs": [
        {
          "internalType": "address",
          "name": "",
          "type": "address"
        }
      ],
      "stateMutability": "view",
      "type": "function"
    },
    {
      "inputs": [],
      "name": "owner",
      "outputs": [
        {
          "internalType": "address",
          "name": "",
          "type": "address"
        }
      ],
      "stateMutability": "view",
      "type": "function"
    },
    {
      "inputs": [],
      "name": "renounceOwnership",
      "outputs": [],
      "stateMutability": "nonpayable",
      "type": "function"
    },
    {
      "inputs": [
        {
          "internalType": "address",
          "name": "newOwner",
          "type": "address"
        }
      ],
      "name": "transferOwnership",
      "outputs": [],
      "stateMutability": "nonpayable",
      "type": "function"
    }
  ],
  "bytecode": "0x608060405234801561001057600080fd5b50604051610ba8380380610ba883398181016040528101906100329190610176565b61004e61004361009560201b60201c565b61009d60201b60201c565b80600160006101000a81548173ffffffffffffffffffffffffffffffffffffffff021916908373ffffffffffffffffffffffffffffffffffffffff160217905550506101e8565b600033905090565b60008060009054906101000a900473ffffffffffffffffffffffffffffffffffffffff169050816000806101000a81548173ffffffffffffffffffffffffffffffffffffffff021916908373ffffffffffffffffffffffffffffffffffffffff1602179055508173ffffffffffffffffffffffffffffffffffffffff168173ffffffffffffffffffffffffffffffffffffffff167f8be0079c531659141344cd1fd0a4f28419497f9722a3daafe3b4186f6b6457e060405160405180910390a35050565b600081519050610170816101d1565b92915050565b60006020828403121561018857600080fd5b600061019684828501610161565b91505092915050565b60006101aa826101b1565b9050919050565b600073ffffffffffffffffffffffffffffffffffffffff82169050919050565b6101da8161019f565b81146101e557600080fd5b50565b6109b1806101f76000396000f3fe6080604052600436106100555760003560e01c806321f8a7211461005a578063715018a6146100975780637368a8ce146100ae5780638da5cb5b146100ca578063ee97f7f3146100f5578063f2fde38b14610120575b600080fd5b34801561006657600080fd5b50610081600480360381019061007c91906106d7565b610149565b60405161008e919061079b565b60405180910390f35b3480156100a357600080fd5b506100ac61022e565b005b6100c860048036038101906100c391906106d7565b6102b6565b005b3480156100d657600080fd5b506100df610305565b6040516100ec919061079b565b60405180910390f35b34801561010157600080fd5b5061010a61032e565b604051610117919061079b565b60405180910390f35b34801561012c57600080fd5b50610147600480360381019061014291906106ae565b610354565b005b60008073ffffffffffffffffffffffffffffffffffffffff16600160009054906101000a900473ffffffffffffffffffffffffffffffffffffffff1673ffffffffffffffffffffffffffffffffffffffff1614156101dc576040517f08c379a00000000000000000000000000000000000000000000000000000000081526004016101d3906107f6565b60405180910390fd5b61022782600160009054906101000a900473ffffffffffffffffffffffffffffffffffffffff1673ffffffffffffffffffffffffffffffffffffffff1661044c90919063ffffffff16565b9050919050565b610236610461565b73ffffffffffffffffffffffffffffffffffffffff16610254610305565b73ffffffffffffffffffffffffffffffffffffffff16146102aa576040517f08c379a00000000000000000000000000000000000000000000000000000000081526004016102a190610816565b60405180910390fd5b6102b46000610469565b565b61030181600160009054906101000a900473ffffffffffffffffffffffffffffffffffffffff1673ffffffffffffffffffffffffffffffffffffffff1661052d90919063ffffffff16565b5050565b60008060009054906101000a900473ffffffffffffffffffffffffffffffffffffffff16905090565b600160009054906101000a900473ffffffffffffffffffffffffffffffffffffffff1681565b61035c610461565b73ffffffffffffffffffffffffffffffffffffffff1661037a610305565b73ffffffffffffffffffffffffffffffffffffffff16146103d0576040517f08c379a00000000000000000000000000000000000000000000000000000000081526004016103c790610816565b60405180910390fd5b600073ffffffffffffffffffffffffffffffffffffffff168173ffffffffffffffffffffffffffffffffffffffff161415610440576040517f08c379a0000000000000000000000000000000000000000000000000000000008152600401610437906107b6565b60405180910390fd5b61044981610469565b50565b6000610459838330610604565b905092915050565b600033905090565b60008060009054906101000a900473ffffffffffffffffffffffffffffffffffffffff169050816000806101000a81548173ffffffffffffffffffffffffffffffffffffffff021916908373ffffffffffffffffffffffffffffffffffffffff1602179055508173ffffffffffffffffffffffffffffffffffffffff168173ffffffffffffffffffffffffffffffffffffffff167f8be0079c531659141344cd1fd0a4f28419497f9722a3daafe3b4186f6b6457e060405160405180910390a35050565b60006040517f3d602d80600a3d3981f3363d3d373d3d3d363d7300000000000000000000000081528360601b60148201527f5af43d82803e903d91602b57fd5bf300000000000000000000000000000000006028820152826037826000f5915050600073ffffffffffffffffffffffffffffffffffffffff168173ffffffffffffffffffffffffffffffffffffffff1614156105fe576040517f08c379a00000000000000000000000000000000000000000000000000000000081526004016105f5906107d6565b60405180910390fd5b92915050565b60006040517f3d602d80600a3d3981f3363d3d373d3d3d363d7300000000000000000000000081528460601b60148201527f5af43d82803e903d91602b57fd5bf3ff0000000000000000000000000000000060288201528260601b603882015283604c82015260378120606c820152605560378201209150509392505050565b6000813590506106938161094d565b92915050565b6000813590506106a881610964565b92915050565b6000602082840312156106c057600080fd5b60006106ce84828501610684565b91505092915050565b6000602082840312156106e957600080fd5b60006106f784828501610699565b91505092915050565b61070981610847565b82525050565b600061071c602683610836565b915061072782610883565b604082019050919050565b600061073f601783610836565b915061074a826108d2565b602082019050919050565b6000610762601283610836565b915061076d826108fb565b602082019050919050565b6000610785602083610836565b915061079082610924565b602082019050919050565b60006020820190506107b06000830184610700565b92915050565b600060208201905081810360008301526107cf8161070f565b9050919050565b600060208201905081810360008301526107ef81610732565b9050919050565b6000602082019050818103600083015261080f81610755565b9050919050565b6000602082019050818103600083015261082f81610778565b9050919050565b600082825260208201905092915050565b600061085282610863565b9050919050565b6000819050919050565b600073ffffffffffffffffffffffffffffffffffffffff82169050919050565b7f4f776e61626c653a206e6577206f776e657220697320746865207a65726f206160008201527f6464726573730000000000000000000000000000000000000000000000000000602082015250565b7f455243313136373a2063726561746532206661696c6564000000000000000000600082015250565b7f6d6173746572206d757374206265207365740000000000000000000000000000600082015250565b7f4f776e61626c653a2063616c6c6572206973206e6f7420746865206f776e6572600082015250565b61095681610847565b811461096157600080fd5b50565b61096d81610859565b811461097857600080fd5b5056fea26469706673582212203221d4c9d2843e70aed782219479ec3d5efd3b3ba7f92af9f21ea3f48251fd4264736f6c63430008030033",
  "linkReferences": {},
  "deployedLinkReferences": {}
}