{
  "_format": "hh-sol-artifact-1",
  "contractName": "SecurityModule",
  "sourceName": "contracts/SecurityModule.sol",
  "abi": [
    {
      "inputs": [],
      "stateMutability": "nonpayable",
      "type": "constructor"
    },
    {
      "anonymous": false,
      "inputs": [
        {
          "indexed": false,
          "internalType": "address",
          "name": "_wallet",
          "type": "address"
        }
      ],
      "name": "Locked",
      "type": "event"
    },
    {
      "anonymous": false,
      "inputs": [
        {
          "indexed": false,
          "internalType": "address",
          "name": "to",
          "type": "address"
        },
        {
          "indexed": false,
          "internalType": "uint256",
          "name": "value",
          "type": "uint256"
        },
        {
          "indexed": false,
          "internalType": "bytes",
          "name": "data",
          "type": "bytes"
        }
      ],
      "name": "MultiCalled",
      "type": "event"
    },
    {
      "anonymous": false,
      "inputs": [
        {
          "indexed": false,
          "internalType": "address",
          "name": "_wallet",
          "type": "address"
        }
      ],
      "name": "RecoveryCancelled",
      "type": "event"
    },
    {
      "anonymous": false,
      "inputs": [
        {
          "indexed": false,
          "internalType": "address",
          "name": "_wallet",
          "type": "address"
        }
      ],
      "name": "RecoveryExecuted",
      "type": "event"
    },
    {
      "anonymous": false,
      "inputs": [
        {
          "indexed": false,
          "internalType": "address",
          "name": "_wallet",
          "type": "address"
        },
        {
          "indexed": false,
          "internalType": "address",
          "name": "_recovery",
          "type": "address"
        }
      ],
      "name": "RecoveryTriggered",
      "type": "event"
    },
    {
      "anonymous": false,
      "inputs": [
        {
          "indexed": false,
          "internalType": "address",
          "name": "_wallet",
          "type": "address"
        },
        {
          "indexed": false,
          "internalType": "bytes",
          "name": "data",
          "type": "bytes"
        }
      ],
      "name": "SMInited",
      "type": "event"
    },
    {
      "anonymous": false,
      "inputs": [
        {
          "indexed": false,
          "internalType": "address",
          "name": "_wallet",
          "type": "address"
        },
        {
          "indexed": false,
          "internalType": "uint256",
          "name": "_lockedSecurityPeriod",
          "type": "uint256"
        },
        {
          "indexed": false,
          "internalType": "uint256",
          "name": "_recoverySecurityPeriod",
          "type": "uint256"
        }
      ],
      "name": "SMParameterChanged",
      "type": "event"
    },
    {
      "anonymous": false,
      "inputs": [
        {
          "indexed": false,
          "internalType": "address",
          "name": "_wallet",
          "type": "address"
        },
        {
          "indexed": false,
          "internalType": "address",
          "name": "signer",
          "type": "address"
        }
      ],
      "name": "SignerAdded",
      "type": "event"
    },
    {
      "anonymous": false,
      "inputs": [
        {
          "indexed": false,
          "internalType": "address",
          "name": "_wallet",
          "type": "address"
        },
        {
          "indexed": false,
          "internalType": "address",
          "name": "_oldSigner",
          "type": "address"
        }
      ],
      "name": "SignerRemoved",
      "type": "event"
    },
    {
      "anonymous": false,
      "inputs": [
        {
          "indexed": false,
          "internalType": "address",
          "name": "_wallet",
          "type": "address"
        },
        {
          "indexed": false,
          "internalType": "address",
          "name": "_newSigner",
          "type": "address"
        },
        {
          "indexed": false,
          "internalType": "address",
          "name": "_oldSigner",
          "type": "address"
        }
      ],
      "name": "SignerReplaced",
      "type": "event"
    },
    {
      "anonymous": false,
      "inputs": [
        {
          "indexed": false,
          "internalType": "address",
          "name": "_wallet",
          "type": "address"
        }
      ],
      "name": "Unlocked",
      "type": "event"
    },
    {
      "inputs": [
        {
          "internalType": "address",
          "name": "_moduleRegistry",
          "type": "address"
        },
        {
          "internalType": "address",
          "name": "_wallet",
          "type": "address"
        },
        {
          "internalType": "address",
          "name": "_module",
          "type": "address"
        },
        {
          "internalType": "bytes",
          "name": "data",
          "type": "bytes"
        }
      ],
      "name": "addModule",
      "outputs": [],
      "stateMutability": "nonpayable",
      "type": "function"
    },
    {
      "inputs": [
        {
          "internalType": "address",
          "name": "_wallet",
          "type": "address"
        },
        {
          "internalType": "address",
          "name": "signer",
          "type": "address"
        }
      ],
      "name": "addSigner",
      "outputs": [],
      "stateMutability": "nonpayable",
      "type": "function"
    },
    {
      "inputs": [
        {
          "internalType": "address",
          "name": "_wallet",
          "type": "address"
        }
      ],
      "name": "cancelRecovery",
      "outputs": [],
      "stateMutability": "nonpayable",
      "type": "function"
    },
    {
      "inputs": [
        {
          "internalType": "address",
          "name": "_wallet",
          "type": "address"
        }
      ],
      "name": "executeRecovery",
      "outputs": [],
      "stateMutability": "nonpayable",
      "type": "function"
    },
    {
      "inputs": [
        {
          "internalType": "address[]",
          "name": "_signers",
          "type": "address[]"
        },
        {
          "internalType": "address",
          "name": "_signer",
          "type": "address"
        }
      ],
      "name": "findSigner",
      "outputs": [
        {
          "internalType": "bool",
          "name": "",
          "type": "bool"
        }
      ],
      "stateMutability": "pure",
      "type": "function"
    },
    {
      "inputs": [
        {
          "internalType": "address",
          "name": "_wallet",
          "type": "address"
        }
      ],
      "name": "getLockedSecurityPeriod",
      "outputs": [
        {
          "internalType": "uint256",
          "name": "",
          "type": "uint256"
        }
      ],
      "stateMutability": "view",
      "type": "function"
    },
    {
      "inputs": [
        {
          "internalType": "address",
          "name": "_wallet",
          "type": "address"
        }
      ],
      "name": "getRecoveryExpiryTime",
      "outputs": [
        {
          "internalType": "uint256",
          "name": "",
          "type": "uint256"
        }
      ],
      "stateMutability": "view",
      "type": "function"
    },
    {
      "inputs": [
        {
          "internalType": "address",
          "name": "_wallet",
          "type": "address"
        }
      ],
      "name": "getRecoverySecurityPeriod",
      "outputs": [
        {
          "internalType": "uint256",
          "name": "",
          "type": "uint256"
        }
      ],
      "stateMutability": "view",
      "type": "function"
    },
    {
      "inputs": [
        {
          "internalType": "address",
          "name": "_wallet",
          "type": "address"
        }
      ],
      "name": "getSigners",
      "outputs": [
        {
          "internalType": "address[]",
          "name": "",
          "type": "address[]"
        }
      ],
      "stateMutability": "view",
      "type": "function"
    },
    {
      "inputs": [
        {
          "internalType": "address",
          "name": "_wallet",
          "type": "address"
        },
        {
          "internalType": "bytes",
          "name": "data",
          "type": "bytes"
        }
      ],
      "name": "init",
      "outputs": [],
      "stateMutability": "nonpayable",
      "type": "function"
    },
    {
      "inputs": [
        {
          "internalType": "contract IModuleRegistry",
          "name": "_registry",
          "type": "address"
        },
        {
          "internalType": "uint256",
          "name": "_lockedSecurityPeriod",
          "type": "uint256"
        },
        {
          "internalType": "uint256",
          "name": "_recoverySecurityPeriod",
          "type": "uint256"
        }
      ],
      "name": "initialize",
      "outputs": [],
      "stateMutability": "nonpayable",
      "type": "function"
    },
    {
      "inputs": [
        {
          "internalType": "address",
          "name": "_wallet",
          "type": "address"
        }
      ],
      "name": "isInRecovery",
      "outputs": [
        {
          "internalType": "bool",
          "name": "",
          "type": "bool"
        }
      ],
      "stateMutability": "view",
      "type": "function"
    },
    {
      "inputs": [
        {
          "internalType": "address",
          "name": "_wallet",
          "type": "address"
        }
      ],
      "name": "isLocked",
      "outputs": [
        {
          "internalType": "uint256",
          "name": "",
          "type": "uint256"
        }
      ],
      "stateMutability": "view",
      "type": "function"
    },
    {
      "inputs": [
        {
          "internalType": "address",
          "name": "_wallet",
          "type": "address"
        },
        {
          "internalType": "address",
          "name": "_signer",
          "type": "address"
        }
      ],
      "name": "isSigner",
      "outputs": [
        {
          "internalType": "bool",
          "name": "",
          "type": "bool"
        }
      ],
      "stateMutability": "view",
      "type": "function"
    },
    {
      "inputs": [
        {
          "internalType": "address",
          "name": "_wallet",
          "type": "address"
        }
      ],
      "name": "lock",
      "outputs": [],
      "stateMutability": "nonpayable",
      "type": "function"
    },
    {
      "inputs": [],
      "name": "lockedSecurityPeriod",
      "outputs": [
        {
          "internalType": "uint256",
          "name": "",
          "type": "uint256"
        }
      ],
      "stateMutability": "view",
      "type": "function"
    },
    {
      "inputs": [
        {
          "internalType": "address",
          "name": "_wallet",
          "type": "address"
        },
        {
          "components": [
            {
              "internalType": "address",
              "name": "to",
              "type": "address"
            },
            {
              "internalType": "uint256",
              "name": "value",
              "type": "uint256"
            },
            {
              "internalType": "bytes",
              "name": "data",
              "type": "bytes"
            },
            {
              "internalType": "uint256",
              "name": "sequenceId",
              "type": "uint256"
            },
            {
              "internalType": "uint256",
              "name": "expireTime",
              "type": "uint256"
            }
          ],
          "internalType": "struct BaseModule.CallArgs",
          "name": "_args",
          "type": "tuple"
        },
        {
          "internalType": "bytes",
          "name": "_signatures",
          "type": "bytes"
        }
      ],
      "name": "multicall",
      "outputs": [],
      "stateMutability": "nonpayable",
      "type": "function"
    },
    {
      "inputs": [
        {
          "internalType": "address",
          "name": "",
          "type": "address"
        }
      ],
      "name": "recoveries",
      "outputs": [
        {
          "internalType": "uint256",
          "name": "activeAt",
          "type": "uint256"
        },
        {
          "internalType": "address",
          "name": "recovery",
          "type": "address"
        }
      ],
      "stateMutability": "view",
      "type": "function"
    },
    {
      "inputs": [],
      "name": "recoverySecurityPeriod",
      "outputs": [
        {
          "internalType": "uint256",
          "name": "",
          "type": "uint256"
        }
      ],
      "stateMutability": "view",
      "type": "function"
    },
    {
      "inputs": [
        {
          "internalType": "address",
          "name": "_wallet",
          "type": "address"
        }
      ],
      "name": "removeModule",
      "outputs": [],
      "stateMutability": "nonpayable",
      "type": "function"
    },
    {
      "inputs": [
        {
          "internalType": "address",
          "name": "_wallet",
          "type": "address"
        },
        {
          "internalType": "address",
          "name": "_oldSigner",
          "type": "address"
        }
      ],
      "name": "removeSigner",
      "outputs": [],
      "stateMutability": "nonpayable",
      "type": "function"
    },
    {
      "inputs": [
        {
          "internalType": "address",
          "name": "_wallet",
          "type": "address"
        },
        {
          "internalType": "address",
          "name": "_newSigner",
          "type": "address"
        },
        {
          "internalType": "address",
          "name": "_oldSigner",
          "type": "address"
        }
      ],
      "name": "replaceSigner",
      "outputs": [],
      "stateMutability": "nonpayable",
      "type": "function"
    },
    {
      "inputs": [
        {
          "internalType": "address",
          "name": "_wallet",
          "type": "address"
        },
        {
          "internalType": "uint256",
          "name": "_lockedSecurityPeriod",
          "type": "uint256"
        },
        {
          "internalType": "uint256",
          "name": "_recoverySecurityPeriod",
          "type": "uint256"
        }
      ],
      "name": "setSecurityPeriod",
      "outputs": [],
      "stateMutability": "nonpayable",
      "type": "function"
    },
    {
      "inputs": [
        {
          "internalType": "address",
          "name": "",
          "type": "address"
        }
      ],
      "name": "signerConfInfos",
      "outputs": [
        {
          "internalType": "bool",
          "name": "exist",
          "type": "bool"
        },
        {
          "internalType": "uint256",
          "name": "lockedPeriod",
          "type": "uint256"
        },
        {
          "internalType": "uint256",
          "name": "recoveryPeriod",
          "type": "uint256"
        }
      ],
      "stateMutability": "view",
      "type": "function"
    },
    {
      "inputs": [
        {
          "internalType": "address",
          "name": "_wallet",
          "type": "address"
        },
        {
          "internalType": "address",
          "name": "_recovery",
          "type": "address"
        }
      ],
      "name": "triggerRecovery",
      "outputs": [],
      "stateMutability": "nonpayable",
      "type": "function"
    },
    {
      "inputs": [
        {
          "internalType": "address",
          "name": "_wallet",
          "type": "address"
        }
      ],
      "name": "unlock",
      "outputs": [],
      "stateMutability": "nonpayable",
      "type": "function"
    }
  ],
  "bytecode": "0x608060405234801561001057600080fd5b50613cf7806100206000396000f3fe608060405234801561001057600080fd5b506004361061018e5760003560e01c806383765b99116100de578063c0d91eaf11610097578063cf0c137211610071578063cf0c137214610393578063f435f5a7146103e0578063f8838225146103f3578063fc1d47b8146104065761018e565b8063c0d91eaf14610364578063c6de2a3f14610377578063c90db447146103805761018e565b806383765b99146102f257806389ff98e4146103055780638d20efa7146103185780638f29d5301461032b5780639de9e4001461033e578063a0632461146103515761018e565b806353a2a3f81161014b57806378b248e41161012557806378b248e4146102895780637a1ac61e146102ac5780637b551f0d146102bf5780637e3ba6af146102d25761018e565b806353a2a3f81461021057806368f3073f146102635780636fa30cd4146102765761018e565b80630fb436eb1461019357806313f71305146101af5780632239f556146101c45780632f6c493c146101d75780633bc2c4a7146101ea5780634a4fbeec146101fd575b600080fd5b61019c60035481565b6040519081526020015b60405180910390f35b6101c26101bd36600461356a565b610419565b005b6101c26101d2366004613323565b610620565b6101c26101e53660046132eb565b610a2d565b6101c26101f83660046132eb565b610c65565b61019c61020b3660046132eb565b610e07565b61024661021e3660046132eb565b60066020526000908152604090206001810154600282015460039092015460ff909116919083565b6040805193151584526020840192909252908201526060016101a6565b61019c6102713660046132eb565b610e82565b6101c2610284366004613496565b610f53565b61029c610297366004613323565b61126d565b60405190151581526020016101a6565b6101c26102ba36600461356a565b611327565b6101c26102cd36600461335b565b611401565b6102e56102e03660046132eb565b611827565b6040516101a69190613902565b6101c2610300366004613323565b61189d565b6101c26103133660046133a5565b611d23565b6101c2610326366004613323565b611f38565b61029c6103393660046132eb565b6123d2565b61019c61034c3660046132eb565b61242c565b6101c261035f3660046132eb565b6124fd565b6101c2610372366004613448565b6125ad565b61019c60045481565b6101c261038e3660046132eb565b6128c8565b6103c36103a13660046132eb565b600560205260009081526040902080546001909101546001600160a01b031682565b604080519283526001600160a01b039091166020830152016101a6565b6101c26103ee3660046132eb565b612a52565b61019c6104013660046132eb565b612c68565b61029c61041436600461363a565b612cc1565b82336001600160a01b0382161461044b5760405162461bcd60e51b815260040161044290613b18565b60405180910390fd5b83806001600160a01b031663a4e2d6346040518163ffffffff1660e01b815260040160206040518083038186803b15801561048557600080fd5b505afa158015610499573d6000803e3d6000fd5b505050506040513d601f19601f820116820180604052508101906104bd919061377b565b156104fe5760405162461bcd60e51b815260206004820152601160248201527010934e881dd85b1b195d081b1bd8dad959607a1b6044820152606401610442565b6001600160a01b0385166000908152600660205260409020600181015460ff1661053a5760405162461bcd60e51b815260040161044290613967565b848160020154141580610551575083816003015414155b6105a85760405162461bcd60e51b815260206004820152602260248201527f534d3a4d757374206368616e6765206174206c65617374206f6e6520706572696044820152611bd960f21b6064820152608401610442565b848160020154146105bb57600281018590555b838160030154146105ce57600381018490555b604080516001600160a01b0388168152602081018790529081018590527fd93dd93d4d43d8f00148e4cb11174f8092cbda4e73ebe3a309b5ca984611e2529060600160405180910390a1505050505050565b81336001600160a01b0316816001600160a01b0316638da5cb5b6040518163ffffffff1660e01b815260040160206040518083038186803b15801561066457600080fd5b505afa158015610678573d6000803e3d6000fd5b505050506040513d601f19601f8201168201806040525081019061069c9190613307565b6001600160a01b0316146106c25760405162461bcd60e51b815260040161044290613a01565b826000816001600160a01b031663a4e2d6346040518163ffffffff1660e01b815260040160206040518083038186803b1580156106fe57600080fd5b505afa158015610712573d6000803e3d6000fd5b505050506040513d601f19601f82011682018060405250810190610736919061377b565b9050610743600282613c56565b156107605760405162461bcd60e51b815260040161044290613993565b846000816001600160a01b031663a4e2d6346040518163ffffffff1660e01b815260040160206040518083038186803b15801561079c57600080fd5b505afa1580156107b0573d6000803e3d6000fd5b505050506040513d601f19601f820116820180604052508101906107d4919061377b565b9050806002141580156107e8575080600314155b6108045760405162461bcd60e51b815260040161044290613acb565b61080d87612d35565b6108295760405162461bcd60e51b815260040161044290613a2c565b6001600160a01b038616158015906108485750610846878761126d565b155b6108645760405162461bcd60e51b815260040161044290613a81565b6001600160a01b0387166000908152600660205260409020600181015460ff166108de5760405162461bcd60e51b815260206004820152602560248201527f534d3a2077616c6c6574207369676e657220696e666f206e6f7420636f6e73696044820152641cdd195b9d60da1b6064820152608401610442565b80546001810182556000828152602080822090920180546001600160a01b0319166001600160a01b038b8116919091179091558a16815260069091526040902081548291906109309082908490613209565b50600182810154908201805460ff191660ff90921615159190911790556002808301548183015560039283015492909101919091558101546001600160a01b0389169063a0adf89f906109839042613bcc565b6040516001600160e01b031960e084901b1681526109ad919063111cfaab60e11b9060040161394f565b600060405180830381600087803b1580156109c757600080fd5b505af11580156109db573d6000803e3d6000fd5b5050604080516001600160a01b03808d1682528b1660208201527f12146497b3b826918ec47f0cac7272a09ed06b30c16c030e99ec48ff5dd60b47935001905060405180910390a15050505050505050565b80336001600160a01b0316816001600160a01b0316638da5cb5b6040518163ffffffff1660e01b815260040160206040518083038186803b158015610a7157600080fd5b505afa158015610a85573d6000803e3d6000fd5b505050506040513d601f19601f82011682018060405250810190610aa99190613307565b6001600160a01b03161480610ac35750610ac3813361126d565b610adf5760405162461bcd60e51b8152600401610442906139ca565b816000816001600160a01b031663a4e2d6346040518163ffffffff1660e01b815260040160206040518083038186803b158015610b1b57600080fd5b505afa158015610b2f573d6000803e3d6000fd5b505050506040513d601f19601f82011682018060405250810190610b53919061377b565b9050610b60600282613c56565b600114610bba5760405162461bcd60e51b815260206004820152602260248201527f424d3a2077616c6c6574206d75737420626520676c6f62616c6c79206c6f636b604482015261195960f21b6064820152608401610442565b60405163a0adf89f60e01b81526001600160a01b0385169063a0adf89f90610bf09060009063f435f5a760e01b9060040161394f565b600060405180830381600087803b158015610c0a57600080fd5b505af1158015610c1e573d6000803e3d6000fd5b50506040516001600160a01b03871681527f7e6adfec7e3f286831a0200a754127c171a2da564078722cb97704741bbdb0ea9250602001905060405180910390a150505050565b610c6e816123d2565b610cba5760405162461bcd60e51b815260206004820152601b60248201527f534d3a204e6f2076616c6964207265636f7665727920666f756e6400000000006044820152606401610442565b6001600160a01b038181166000818152600560209081526040918290208251808401845281548152600190910154909416908401819052905163a39a45b760e01b8152600481019190915263a39a45b790602401600060405180830381600087803b158015610d2857600080fd5b505af1158015610d3c573d6000803e3d6000fd5b505050506001600160a01b03821660008181526005602052604080822082815560010180546001600160a01b03191690555163a0adf89f60e01b815263a0adf89f91610d939163111cfaab60e11b9060040161394f565b600060405180830381600087803b158015610dad57600080fd5b505af1158015610dc1573d6000803e3d6000fd5b50506040516001600160a01b03851681527ffcd2de31341801b7fd80895c780aae50c1505fd674ff1b9b9764c56c633434d6925060200190505b60405180910390a15050565b6000816001600160a01b031663a4e2d6346040518163ffffffff1660e01b815260040160206040518083038186803b158015610e4257600080fd5b505afa158015610e56573d6000803e3d6000fd5b505050506040513d601f19601f82011682018060405250810190610e7a919061377b565b90505b919050565b6001600160a01b03811660009081526006602090815260408083208151815460a09481028201850190935260808101838152859491938492849190840182828015610ef657602002820191906000526020600020905b81546001600160a01b03168152600190910190602001808311610ed8575b5050509183525050600182015460ff16151560208083019190915260028301546040830152600390920154606090910152810151909150610f495760405162461bcd60e51b815260040161044290613967565b6040015192915050565b82336001600160a01b0316816001600160a01b0316638da5cb5b6040518163ffffffff1660e01b815260040160206040518083038186803b158015610f9757600080fd5b505afa158015610fab573d6000803e3d6000fd5b505050506040513d601f19601f82011682018060405250810190610fcf9190613307565b6001600160a01b03161480610fe95750610fe9813361126d565b6110055760405162461bcd60e51b8152600401610442906139ca565b6001600160a01b0384166000908152600660205260409020600181015460ff166110665760405162461bcd60e51b815260206004820152601260248201527114d34e881a5b9d985b1a59081dd85b1b195d60721b6044820152606401610442565b8054600090600290611079906001613bcc565b6110839190613be4565b90506000604185516110959190613be4565b9050818110156110e75760405162461bcd60e51b815260206004820152601960248201527f534d3a204e6f7420656e6f756768207369676e617475726573000000000000006044820152606401610442565b60006110f287612dae565b905060008060005b8481101561121e57600061110f858b84612e05565b9050826001600160a01b0316816001600160a01b0316116111725760405162461bcd60e51b815260206004820152601c60248201527f534d3a204261646c79206f726465726564207369676e617475726573000000006044820152606401610442565b8092506111db886000018054806020026020016040519081016040528092919081815260200182805480156111d057602002820191906000526020600020905b81546001600160a01b031681526001909101906020018083116111b2575b505050505082612cc1565b1561120b576111eb600185613bcc565b935086841061120b576111fe8c8c612ec7565b5050505050505050611267565b508061121681613c3b565b9150506110fa565b5060405162461bcd60e51b815260206004820152601f60248201527f534d3a204e6f7420656e6f7567682076616c6964207369676e617475726573006044820152606401610442565b50505050565b6001600160a01b03821660009081526006602090815260408083208151815460a094810282018501909352608081018381528594919384928491908401828280156112e157602002820191906000526020600020905b81546001600160a01b031681526001909101906020018083116112c3575b5050509183525050600182015460ff161515602082015260028201546040820152600390910154606090910152805190915061131d9084612cc1565b9150505b92915050565b600254610100900460ff1680611340575060025460ff16155b6113a35760405162461bcd60e51b815260206004820152602e60248201527f496e697469616c697a61626c653a20636f6e747261637420697320616c72656160448201526d191e481a5b9a5d1a585b1a5e995960921b6064820152608401610442565b600254610100900460ff161580156113c5576002805461ffff19166101011790555b600080546001600160a01b0319166001600160a01b038616179055600483905560038290558015611267576002805461ff001916905550505050565b82336001600160a01b0316816001600160a01b0316638da5cb5b6040518163ffffffff1660e01b815260040160206040518083038186803b15801561144557600080fd5b505afa158015611459573d6000803e3d6000fd5b505050506040513d601f19601f8201168201806040525081019061147d9190613307565b6001600160a01b0316146114a35760405162461bcd60e51b815260040161044290613a01565b836000816001600160a01b031663a4e2d6346040518163ffffffff1660e01b815260040160206040518083038186803b1580156114df57600080fd5b505afa1580156114f3573d6000803e3d6000fd5b505050506040513d601f19601f82011682018060405250810190611517919061377b565b9050611524600282613c56565b156115415760405162461bcd60e51b815260040161044290613993565b856000816001600160a01b031663a4e2d6346040518163ffffffff1660e01b815260040160206040518083038186803b15801561157d57600080fd5b505afa158015611591573d6000803e3d6000fd5b505050506040513d601f19601f820116820180604052508101906115b5919061377b565b9050806002141580156115c9575080600314155b6115e55760405162461bcd60e51b815260040161044290613acb565b6115ee88612d35565b61160a5760405162461bcd60e51b815260040161044290613a2c565b6001600160a01b038716158015906116275750611627888761126d565b6116435760405162461bcd60e51b815260040161044290613a81565b6001600160a01b0388166000908152600660205260409020600181015460ff1661167f5760405162461bcd60e51b815260040161044290613967565b805460009061169090600190613bf8565b905060005b82546116a390600190613bf8565b81101561174e578260000181815481106116cd57634e487b7160e01b600052603260045260246000fd5b6000918252602090912001546001600160a01b038a81169116141561173c578983600001828154811061171057634e487b7160e01b600052603260045260246000fd5b600091825260209091200180546001600160a01b0319166001600160a01b039290921691909117905550805b8061174681613c3b565b915050611695565b50896001600160a01b031663a0adf89f83600201544261176e9190613bcc565b6040516001600160e01b031960e084901b168152611798919063111cfaab60e11b9060040161394f565b600060405180830381600087803b1580156117b257600080fd5b505af11580156117c6573d6000803e3d6000fd5b5050604080516001600160a01b03808f168252808e1660208301528c16918101919091527f37852b11621736fac970fe97a5b848e91df7ca7dcf4f4804dcb59fb192104d2d925060600190505b60405180910390a150505050505050505050565b6001600160a01b03811660009081526006602090815260409182902080548351818402810184019094528084526060939283018282801561189157602002820191906000526020600020905b81546001600160a01b03168152600190910190602001808311611873575b50505050509050919050565b81336001600160a01b038216146118c65760405162461bcd60e51b815260040161044290613b18565b826000816001600160a01b031663a4e2d6346040518163ffffffff1660e01b815260040160206040518083038186803b15801561190257600080fd5b505afa158015611916573d6000803e3d6000fd5b505050506040513d601f19601f8201168201806040525081019061193a919061377b565b9050611947600282613c56565b156119645760405162461bcd60e51b815260040161044290613993565b846000816001600160a01b031663a4e2d6346040518163ffffffff1660e01b815260040160206040518083038186803b1580156119a057600080fd5b505afa1580156119b4573d6000803e3d6000fd5b505050506040513d601f19601f820116820180604052508101906119d8919061377b565b9050806002141580156119ec575080600314155b611a085760405162461bcd60e51b815260040161044290613acb565b6001600160a01b038616611a575760405162461bcd60e51b815260206004820152601660248201527529a69d1024b73b30b634b2103732bb9039b4b3b732b960511b6044820152606401610442565b866001600160a01b0316638da5cb5b6040518163ffffffff1660e01b815260040160206040518083038186803b158015611a9057600080fd5b505afa158015611aa4573d6000803e3d6000fd5b505050506040513d601f19601f82011682018060405250810190611ac89190613307565b6001600160a01b0316866001600160a01b03161415611b355760405162461bcd60e51b8152602060048201526024808201527f534d3a206f776e65722063616e206e6f7420747269676765722061207265636f6044820152637665727960e01b6064820152608401610442565b611b3f878761126d565b15611b9d5760405162461bcd60e51b815260206004820152602860248201527f534d3a206e65774f776e65722063616e277420626520616e206578697374696e604482015267339039b4b3b732b960c11b6064820152608401610442565b611ba6876123d2565b15611bf35760405162461bcd60e51b815260206004820152601c60248201527f534d3a2073686f756c64206e6f742074726967676572207477696365000000006044820152606401610442565b6001600160a01b0387166000818152600660205260409020600281015490919063a0adf89f90611c239042613bcc565b6040516001600160e01b031960e084901b168152611c4d919063111cfaab60e11b9060040161394f565b600060405180830381600087803b158015611c6757600080fd5b505af1158015611c7b573d6000803e3d6000fd5b505050506000816003015442611c919190613bcc565b6040805180820182528281526001600160a01b038b811660208084018281528f8416600081815260058452879020955186559051600190950180546001600160a01b03191695909416949094179092558351928352908201529192507fd7170f681aaf2414cac5ce9811b90655ed4e8deaa1f57051d5773acdd69fc3fd910160405180910390a1505050505050505050565b83336001600160a01b03821614611d4c5760405162461bcd60e51b815260040161044290613b18565b84806001600160a01b031663a4e2d6346040518163ffffffff1660e01b815260040160206040518083038186803b158015611d8657600080fd5b505afa158015611d9a573d6000803e3d6000fd5b505050506040513d601f19601f82011682018060405250810190611dbe919061377b565b15611dff5760405162461bcd60e51b815260206004820152601160248201527010934e881dd85b1b195d081b1bd8dad959607a1b6044820152606401610442565b600054604051630bcd4ebb60e01b81526001600160a01b03878116600483015290911690630bcd4ebb9060240160206040518083038186803b158015611e4457600080fd5b505afa158015611e58573d6000803e3d6000fd5b505050506040513d601f19601f82011682018060405250810190611e7c91906136e8565b611ec85760405162461bcd60e51b815260206004820152601c60248201527f534d3a206d6f64756c65206973206e6f742072656769737465726564000000006044820152606401610442565b604051636d1c590560e11b81526001600160a01b0387169063da38b20a90611efd908a9089906001908a908a90600401613822565b600060405180830381600087803b158015611f1757600080fd5b505af1158015611f2b573d6000803e3d6000fd5b5050505050505050505050565b81336001600160a01b0316816001600160a01b0316638da5cb5b6040518163ffffffff1660e01b815260040160206040518083038186803b158015611f7c57600080fd5b505afa158015611f90573d6000803e3d6000fd5b505050506040513d601f19601f82011682018060405250810190611fb49190613307565b6001600160a01b031614611fda5760405162461bcd60e51b815260040161044290613a01565b826000816001600160a01b031663a4e2d6346040518163ffffffff1660e01b815260040160206040518083038186803b15801561201657600080fd5b505afa15801561202a573d6000803e3d6000fd5b505050506040513d601f19601f8201168201806040525081019061204e919061377b565b905061205b600282613c56565b156120785760405162461bcd60e51b815260040161044290613993565b846000816001600160a01b031663a4e2d6346040518163ffffffff1660e01b815260040160206040518083038186803b1580156120b457600080fd5b505afa1580156120c8573d6000803e3d6000fd5b505050506040513d601f19601f820116820180604052508101906120ec919061377b565b905080600214158015612100575080600314155b61211c5760405162461bcd60e51b815260040161044290613acb565b61212587612d35565b6121415760405162461bcd60e51b815260040161044290613a2c565b61214b878761126d565b61218f5760405162461bcd60e51b815260206004820152601560248201527429a69d1034b73b30b634b21037b63229b4b3b732b960591b6044820152606401610442565b6001600160a01b0387166000908152600660205260409020600181015460ff166121cb5760405162461bcd60e51b815260040161044290613967565b80546000906121dc90600190613bf8565b9050600082600001828154811061220357634e487b7160e01b600052603260045260246000fd5b60009182526020822001546001600160a01b031691505b835461222890600190613bf8565b8110156122d35783600001818154811061225257634e487b7160e01b600052603260045260246000fd5b6000918252602090912001546001600160a01b038b8116911614156122c1578184600001828154811061229557634e487b7160e01b600052603260045260246000fd5b600091825260209091200180546001600160a01b0319166001600160a01b039290921691909117905550815b806122cb81613c3b565b91505061221a565b5082548390806122f357634e487b7160e01b600052603160045260246000fd5b600082815260209020810160001990810180546001600160a01b031916905501905560028301546001600160a01b038b169063a0adf89f906123359042613bcc565b6040516001600160e01b031960e084901b16815261235f919063111cfaab60e11b9060040161394f565b600060405180830381600087803b15801561237957600080fd5b505af115801561238d573d6000803e3d6000fd5b5050604080516001600160a01b03808f1682528d1660208201527f98d1ebbe00ae92a5de96a0f49742a8afa89f42363592bc2e7cfaaed68b45e7a69350019050611813565b6001600160a01b03808216600090815260056020908152604080832081518083019092528054808352600190910154909416918101919091529091158015906124255750805167ffffffffffffffff4216105b9392505050565b6001600160a01b03811660009081526006602090815260408083208151815460a094810282018501909352608081018381528594919384928491908401828280156124a057602002820191906000526020600020905b81546001600160a01b03168152600190910190602001808311612482575b5050509183525050600182015460ff161515602080830191909152600283015460408301526003909201546060909101528101519091506124f35760405162461bcd60e51b815260040161044290613967565b6060015192915050565b80336001600160a01b038216146125265760405162461bcd60e51b815260040161044290613b18565b6001600160a01b03821660009081526006602052604090206001015460ff166125615760405162461bcd60e51b815260040161044290613967565b61256a82612fb0565b6001600160a01b03821660009081526006602052604081209061258d8282613259565b5060018101805460ff191690556000600282018190556003909101555050565b81336001600160a01b038216146125d65760405162461bcd60e51b815260040161044290613b18565b6125df83612d35565b156126435760405162461bcd60e51b815260206004820152602e60248201527f534d3a2073686f756c64206e6f74206164642073616d65206d6f64756c65207460448201526d6f2077616c6c657420747769636560901b6064820152608401610442565b6001600160a01b03831660009081526006602052604090206001015460ff16156126bb5760405162461bcd60e51b8152602060048201526024808201527f534d3a2077616c6c65742065786973747320696e207369676e6572436f6e66496044820152636e666f7360e01b6064820152608401610442565b6126c4836130f2565b6000828060200190518101906126da919061359e565b6001600160a01b03851660009081526006602052604081209192505b8251811015612866578160000183828151811061272357634e487b7160e01b600052603260045260246000fd5b602090810291909101810151825460018101845560009384529282902090920180546001600160a01b0319166001600160a01b0393841617905560408051638da5cb5b60e01b8152905192891692638da5cb5b92600480840193919291829003018186803b15801561279457600080fd5b505afa1580156127a8573d6000803e3d6000fd5b505050506040513d601f19601f820116820180604052508101906127cc9190613307565b6001600160a01b03168382815181106127f557634e487b7160e01b600052603260045260246000fd5b60200260200101516001600160a01b031614156128545760405162461bcd60e51b815260206004820152601a60248201527f534d3a207369676e65722063616e6e2774206265206f776e65720000000000006044820152606401610442565b8061285e81613c3b565b9150506126f6565b506001818101805460ff19169091179055600454600282015560038054908201556040517fa8d2f5a0d7d2b8f16c64d920753528ba37b74315cce0ad809a556564e88ddd58906128b99087908790613874565b60405180910390a15050505050565b6001600160a01b0380821660009081526005602052604090206001015482911633146129495760405162461bcd60e51b815260206004820152602a60248201527f534d3a206f6e6c7920746865206e6577206f776e65722063616e2063616e63656044820152696c207265636f7665727960b01b6064820152608401610442565b612952826123d2565b6129935760405162461bcd60e51b8152602060048201526012602482015271534d3a206e6f74207265636f766572696e6760701b6044820152606401610442565b6001600160a01b03821660008181526005602052604080822082815560010180546001600160a01b03191690555163a0adf89f60e01b815263a0adf89f916129e69163111cfaab60e11b9060040161394f565b600060405180830381600087803b158015612a0057600080fd5b505af1158015612a14573d6000803e3d6000fd5b50506040516001600160a01b03851681527f8154b6c5e1fc90d44b49808ef93f9739148d0821411890f8cd684385e24b9f1e92506020019050610dfb565b80336001600160a01b0316816001600160a01b0316638da5cb5b6040518163ffffffff1660e01b815260040160206040518083038186803b158015612a9657600080fd5b505afa158015612aaa573d6000803e3d6000fd5b505050506040513d601f19601f82011682018060405250810190612ace9190613307565b6001600160a01b03161480612ae85750612ae8813361126d565b612b045760405162461bcd60e51b8152600401610442906139ca565b816000816001600160a01b031663a4e2d6346040518163ffffffff1660e01b815260040160206040518083038186803b158015612b4057600080fd5b505afa158015612b54573d6000803e3d6000fd5b505050506040513d601f19601f82011682018060405250810190612b78919061377b565b9050612b85600282613c56565b15612ba25760405162461bcd60e51b815260040161044290613993565b6001600160a01b0384166000818152600660205260409020600281015490919063a0adf89f90612bd29042613bcc565b6040516001600160e01b031960e084901b168152612bfc919063f435f5a760e01b9060040161394f565b600060405180830381600087803b158015612c1657600080fd5b505af1158015612c2a573d6000803e3d6000fd5b50506040516001600160a01b03881681527f44427e3003a08f22cf803894075ac0297524e09e521fc1c15bc91741ce3dc159925060200190506128b9565b6001600160a01b03808216600090815260056020908152604080832081518083019092528054808352600190910154909416918101919091529091421115612cb4576000915050610e7d565b8051612425904290613bf8565b6000805b8351811015612d2b57826001600160a01b0316848281518110612cf857634e487b7160e01b600052603260045260246000fd5b60200260200101516001600160a01b03161415612d19576001915050611321565b80612d2381613c3b565b915050612cc5565b5060009392505050565b6000805b600154811015612da557826001600160a01b031660018281548110612d6e57634e487b7160e01b600052603260045260246000fd5b6000918252602090912001546001600160a01b03161415612d93576001915050610e7d565b80612d9d81613c3b565b915050612d39565b50600092915050565b80516020808301516040808501516060860151915160009594919291612de491601960f81b9188918891889188918891016137bf565b60405160208183030381529060405280519060200120945050505050919050565b600080600080612e158686613199565b6040517f19457468657265756d205369676e6564204d6573736167653a0a3332000000006020820152603c81018b90529295509093509150600190605c0160408051601f198184030181528282528051602091820120600084529083018083525260ff861690820152606081018490526080810183905260a0016020604051602081039080840390855afa158015612eb1573d6000803e3d6000fd5b5050604051601f19015198975050505050505050565b8051602082015160408084015160608501516080860151925163b14f6c8360e01b8152919290916001600160a01b0388169063b14f6c8390612f1590889088908890879089906004016138c7565b600060405180830381600087803b158015612f2f57600080fd5b505af1158015612f43573d6000803e3d6000fd5b505050506040513d6000823e601f3d908101601f19168201604052612f6b9190810190613708565b507f16a95b1f4b59f6a32941b3b48a50be9d4d9f9c4da4cb504681489daabf991928858585604051612f9f939291906138a0565b60405180910390a150505050505050565b60018054600091612fc091613bf8565b905060005b818110156130ac57826001600160a01b031660018281548110612ff857634e487b7160e01b600052603260045260246000fd5b6000918252602090912001546001600160a01b0316141561309a576001828154811061303457634e487b7160e01b600052603260045260246000fd5b600091825260209091200154600180546001600160a01b03909216918390811061306e57634e487b7160e01b600052603260045260246000fd5b600091825260209091200180546001600160a01b0319166001600160a01b039290921691909117905550805b806130a481613c3b565b915050612fc5565b5060018054806130cc57634e487b7160e01b600052603160045260246000fd5b600082815260209020810160001990810180546001600160a01b03191690550190555050565b6130fb81612d35565b156131485760405162461bcd60e51b815260206004820152601d60248201527f424d3a2077616c6c657420616c726561647920726567697374657265640000006044820152606401610442565b6001805480820182556000919091527fb10e2d527612073b26eecdfd717e6a320cf44b4afac2b0732d9fcbe2b7fa0cf60180546001600160a01b0319166001600160a01b0392909216919091179055565b6041808202830160208101516040820151919092015160ff169190601b8314806131c657508260ff16601c145b6132025760405162461bcd60e51b815260206004820152600d60248201526c29a69d1024b73b30b634b2103b60991b6044820152606401610442565b9250925092565b8280548282559060005260206000209081019282156132495760005260206000209182015b8281111561324957825482559160010191906001019061322e565b5061325592915061327a565b5090565b5080546000825590600052602060002090810190613277919061327a565b50565b5b80821115613255576000815560010161327b565b8035610e7d81613cac565b600082601f8301126132aa578081fd5b81356132bd6132b882613ba4565b613b4f565b8181528460208386010111156132d1578283fd5b816020850160208301379081016020019190915292915050565b6000602082840312156132fc578081fd5b813561242581613cac565b600060208284031215613318578081fd5b815161242581613cac565b60008060408385031215613335578081fd5b823561334081613cac565b9150602083013561335081613cac565b809150509250929050565b60008060006060848603121561336f578081fd5b833561337a81613cac565b9250602084013561338a81613cac565b9150604084013561339a81613cac565b809150509250925092565b6000806000806000608086880312156133bc578081fd5b85356133c781613cac565b945060208601356133d781613cac565b935060408601356133e781613cac565b9250606086013567ffffffffffffffff80821115613403578283fd5b818801915088601f830112613416578283fd5b813581811115613424578384fd5b896020828501011115613435578384fd5b9699959850939650602001949392505050565b6000806040838503121561345a578182fd5b823561346581613cac565b9150602083013567ffffffffffffffff811115613480578182fd5b61348c8582860161329a565b9150509250929050565b6000806000606084860312156134aa578283fd5b83356134b581613cac565b9250602084013567ffffffffffffffff808211156134d1578384fd5b9085019060a082880312156134e4578384fd5b6134ee60a0613b4f565b82356134f981613cac565b815260208381013590820152604083013582811115613516578586fd5b6135228982860161329a565b6040830152506060830135606082015260808301356080820152809450506040860135915080821115613553578283fd5b506135608682870161329a565b9150509250925092565b60008060006060848603121561357e578081fd5b833561358981613cac565b95602085013595506040909401359392505050565b600060208083850312156135b0578182fd5b825167ffffffffffffffff8111156135c6578283fd5b8301601f810185136135d6578283fd5b80516135e46132b882613b80565b80828252848201915084840188868560051b8701011115613603578687fd5b8694505b8385101561362e57805161361a81613cac565b835260019490940193918501918501613607565b50979650505050505050565b6000806040838503121561364c578182fd5b823567ffffffffffffffff811115613662578283fd5b8301601f81018513613672578283fd5b803560206136826132b883613b80565b80838252828201915082850189848660051b88010111156136a1578788fd5b8795505b848610156136cc5780356136b881613cac565b8352600195909501949183019183016136a5565b5095506136dc905086820161328f565b93505050509250929050565b6000602082840312156136f9578081fd5b81518015158114612425578182fd5b600060208284031215613719578081fd5b815167ffffffffffffffff81111561372f578182fd5b8201601f8101841361373f578182fd5b805161374d6132b882613ba4565b818152856020838501011115613761578384fd5b613772826020830160208601613c0f565b95945050505050565b60006020828403121561378c578081fd5b5051919050565b600081518084526137ab816020860160208601613c0f565b601f01601f19169290920160200192915050565b6001600160f81b0319878116825286166001820152606085901b6bffffffffffffffffffffffff1916600282015260168101849052825160009061380a816036850160208801613c0f565b60369201918201929092526056019695505050505050565b6001600160a01b03868116825285166020820152831515604082015260806060820181905281018290526000828460a084013781830160a090810191909152601f909201601f19160101949350505050565b6001600160a01b038316815260406020820181905260009061389890830184613793565b949350505050565b600060018060a01b0385168252836020830152606060408301526137726060830184613793565b600060018060a01b038716825285602083015260a060408301526138ee60a0830186613793565b606083019490945250608001529392505050565b6020808252825182820181905260009190848201906040850190845b818110156139435783516001600160a01b03168352928401929184019160010161391e565b50909695505050505050565b9182526001600160e01b031916602082015260400190565b60208082526012908201527114d34e88125b9d985b1a59081dd85b1b195d60721b604082015260600190565b6020808252601a908201527f424d3a2077616c6c6574206c6f636b656420676c6f62616c6c79000000000000604082015260600190565b60208082526019908201527f534d3a206d757374206265207369676e65722f77616c6c657400000000000000604082015260600190565b60208082526011908201527021269d1036bab9ba1031329037bbb732b960791b604082015260600190565b60208082526035908201527f534d3a2077616c6c65742073686f756c642062652072656769737465726564206040820152746265666f726520616464696e67207369676e65727360581b606082015260800190565b6020808252602a908201527f534d3a20696e76616c6964206e65775369676e6572206f7220696e76616c69646040820152691037b63229b4b3b732b960b11b606082015260800190565b6020808252602d908201527f424d3a2077616c6c6574206c6f636b6564206279207369676e65722072656c6160408201526c3a32b21037b832b930ba34b7b760991b606082015260800190565b60208082526019908201527f424d3a2063616c6c6572206d7573742062652077616c6c657400000000000000604082015260600190565b604051601f8201601f1916810167ffffffffffffffff81118282101715613b7857613b78613c96565b604052919050565b600067ffffffffffffffff821115613b9a57613b9a613c96565b5060051b60200190565b600067ffffffffffffffff821115613bbe57613bbe613c96565b50601f01601f191660200190565b60008219821115613bdf57613bdf613c6a565b500190565b600082613bf357613bf3613c80565b500490565b600082821015613c0a57613c0a613c6a565b500390565b60005b83811015613c2a578181015183820152602001613c12565b838111156112675750506000910152565b6000600019821415613c4f57613c4f613c6a565b5060010190565b600082613c6557613c65613c80565b500690565b634e487b7160e01b600052601160045260246000fd5b634e487b7160e01b600052601260045260246000fd5b634e487b7160e01b600052604160045260246000fd5b6001600160a01b038116811461327757600080fdfea26469706673582212208901f0a877276910beaf5508111cdecb43fedb863ea2e41cbf9514fb53aa892064736f6c63430008030033",
  "linkReferences": {},
  "deployedLinkReferences": {}
}