{
  "_format": "hh-sol-artifact-1",
  "contractName": "SecurityModule",
  "sourceName": "contracts/SecurityModule.sol",
  "abi": [
    {
      "inputs": [],
      "stateMutability": "nonpayable",
      "type": "constructor"
    },
    {
      "anonymous": false,
      "inputs": [
        {
          "indexed": false,
          "internalType": "address",
          "name": "to",
          "type": "address"
        },
        {
          "indexed": false,
          "internalType": "uint256",
          "name": "value",
          "type": "uint256"
        },
        {
          "indexed": false,
          "internalType": "bytes",
          "name": "data",
          "type": "bytes"
        }
      ],
      "name": "MultiCalled",
      "type": "event"
    },
    {
      "inputs": [
        {
          "internalType": "address",
          "name": "_wallet",
          "type": "address"
        },
        {
          "internalType": "address",
          "name": "_module",
          "type": "address"
        },
        {
          "internalType": "bytes",
          "name": "data",
          "type": "bytes"
        }
      ],
      "name": "addModule",
      "outputs": [],
      "stateMutability": "nonpayable",
      "type": "function"
    },
    {
      "inputs": [
        {
          "internalType": "address",
          "name": "_wallet",
          "type": "address"
        },
        {
          "internalType": "address",
          "name": "signer",
          "type": "address"
        }
      ],
      "name": "addSigner",
      "outputs": [],
      "stateMutability": "nonpayable",
      "type": "function"
    },
    {
      "inputs": [
        {
          "internalType": "address",
          "name": "_wallet",
          "type": "address"
        }
      ],
      "name": "cancelRecovery",
      "outputs": [],
      "stateMutability": "nonpayable",
      "type": "function"
    },
    {
      "inputs": [
        {
          "internalType": "address",
          "name": "_wallet",
          "type": "address"
        }
      ],
      "name": "executeRecovery",
      "outputs": [],
      "stateMutability": "nonpayable",
      "type": "function"
    },
    {
      "inputs": [
        {
          "internalType": "address[]",
          "name": "_signers",
          "type": "address[]"
        },
        {
          "internalType": "address",
          "name": "_signer",
          "type": "address"
        }
      ],
      "name": "findSigner",
      "outputs": [
        {
          "internalType": "bool",
          "name": "",
          "type": "bool"
        }
      ],
      "stateMutability": "pure",
      "type": "function"
    },
    {
      "inputs": [
        {
          "internalType": "address",
          "name": "_wallet",
          "type": "address"
        }
      ],
      "name": "getSigners",
      "outputs": [
        {
          "internalType": "address[]",
          "name": "",
          "type": "address[]"
        }
      ],
      "stateMutability": "view",
      "type": "function"
    },
    {
      "inputs": [
        {
          "internalType": "address",
          "name": "_wallet",
          "type": "address"
        },
        {
          "internalType": "bytes",
          "name": "data",
          "type": "bytes"
        }
      ],
      "name": "init",
      "outputs": [],
      "stateMutability": "nonpayable",
      "type": "function"
    },
    {
      "inputs": [
        {
          "internalType": "contract IModuleRegistry",
          "name": "_registry",
          "type": "address"
        },
        {
          "internalType": "uint256",
          "name": "_locked_security_period",
          "type": "uint256"
        },
        {
          "internalType": "uint256",
          "name": "_recovery_security_period",
          "type": "uint256"
        }
      ],
      "name": "initialize",
      "outputs": [],
      "stateMutability": "nonpayable",
      "type": "function"
    },
    {
      "inputs": [
        {
          "internalType": "address",
          "name": "_wallet",
          "type": "address"
        }
      ],
      "name": "isInRecovery",
      "outputs": [
        {
          "internalType": "bool",
          "name": "",
          "type": "bool"
        }
      ],
      "stateMutability": "view",
      "type": "function"
    },
    {
      "inputs": [
        {
          "internalType": "address",
          "name": "_wallet",
          "type": "address"
        }
      ],
      "name": "isLocked",
      "outputs": [
        {
          "internalType": "bool",
          "name": "",
          "type": "bool"
        }
      ],
      "stateMutability": "view",
      "type": "function"
    },
    {
      "inputs": [
        {
          "internalType": "address",
          "name": "_wallet",
          "type": "address"
        },
        {
          "internalType": "address",
          "name": "_signer",
          "type": "address"
        }
      ],
      "name": "isSigner",
      "outputs": [
        {
          "internalType": "bool",
          "name": "",
          "type": "bool"
        }
      ],
      "stateMutability": "view",
      "type": "function"
    },
    {
      "inputs": [
        {
          "internalType": "address",
          "name": "_wallet",
          "type": "address"
        }
      ],
      "name": "lock",
      "outputs": [],
      "stateMutability": "nonpayable",
      "type": "function"
    },
    {
      "inputs": [],
      "name": "locked_security_period",
      "outputs": [
        {
          "internalType": "uint256",
          "name": "",
          "type": "uint256"
        }
      ],
      "stateMutability": "view",
      "type": "function"
    },
    {
      "inputs": [
        {
          "internalType": "address",
          "name": "_wallet",
          "type": "address"
        },
        {
          "components": [
            {
              "internalType": "address",
              "name": "to",
              "type": "address"
            },
            {
              "internalType": "uint256",
              "name": "value",
              "type": "uint256"
            },
            {
              "internalType": "bytes",
              "name": "data",
              "type": "bytes"
            },
            {
              "internalType": "uint256",
              "name": "sequenceId",
              "type": "uint256"
            },
            {
              "internalType": "uint256",
              "name": "expireTime",
              "type": "uint256"
            }
          ],
          "internalType": "struct BaseModule.CallArgs",
          "name": "_args",
          "type": "tuple"
        },
        {
          "internalType": "bytes",
          "name": "_signatures",
          "type": "bytes"
        }
      ],
      "name": "multicall",
      "outputs": [],
      "stateMutability": "nonpayable",
      "type": "function"
    },
    {
      "inputs": [
        {
          "internalType": "address",
          "name": "",
          "type": "address"
        }
      ],
      "name": "recoveries",
      "outputs": [
        {
          "internalType": "uint256",
          "name": "activeAt",
          "type": "uint256"
        },
        {
          "internalType": "address",
          "name": "recovery",
          "type": "address"
        }
      ],
      "stateMutability": "view",
      "type": "function"
    },
    {
      "inputs": [],
      "name": "recovery_security_period",
      "outputs": [
        {
          "internalType": "uint256",
          "name": "",
          "type": "uint256"
        }
      ],
      "stateMutability": "view",
      "type": "function"
    },
    {
      "inputs": [
        {
          "internalType": "address",
          "name": "_wallet",
          "type": "address"
        },
        {
          "internalType": "address",
          "name": "_oldSigner",
          "type": "address"
        }
      ],
      "name": "removeSigner",
      "outputs": [],
      "stateMutability": "nonpayable",
      "type": "function"
    },
    {
      "inputs": [
        {
          "internalType": "address",
          "name": "_wallet",
          "type": "address"
        },
        {
          "internalType": "address",
          "name": "_newSigner",
          "type": "address"
        },
        {
          "internalType": "address",
          "name": "_oldSigner",
          "type": "address"
        }
      ],
      "name": "replaceSigner",
      "outputs": [],
      "stateMutability": "nonpayable",
      "type": "function"
    },
    {
      "inputs": [
        {
          "internalType": "address",
          "name": "",
          "type": "address"
        }
      ],
      "name": "signerInfos",
      "outputs": [
        {
          "internalType": "bool",
          "name": "exist",
          "type": "bool"
        }
      ],
      "stateMutability": "view",
      "type": "function"
    },
    {
      "inputs": [
        {
          "internalType": "address",
          "name": "_wallet",
          "type": "address"
        },
        {
          "internalType": "address",
          "name": "_recovery",
          "type": "address"
        }
      ],
      "name": "triggerRecovery",
      "outputs": [],
      "stateMutability": "nonpayable",
      "type": "function"
    },
    {
      "inputs": [
        {
          "internalType": "address",
          "name": "_wallet",
          "type": "address"
        }
      ],
      "name": "unlock",
      "outputs": [],
      "stateMutability": "nonpayable",
      "type": "function"
    }
  ],
  "bytecode": "0x608060405234801561001057600080fd5b50614a20806100206000396000f3fe608060405234801561001057600080fd5b50600436106101375760003560e01c80637b551f0d116100b8578063c0d91eaf1161007c578063c0d91eaf14610346578063c90db44714610362578063cf0c13721461037e578063e8b3a966146103af578063f435f5a7146103cd578063fc1d47b8146103e957610137565b80637b551f0d146102925780637e3ba6af146102ae57806383765b99146102de5780638d20efa7146102fa5780638f29d5301461031657610137565b80636fa30cd4116100ff5780636fa30cd4146101f057806371bf3af11461020c5780637846b9b91461022857806378b248e4146102465780637a1ac61e1461027657610137565b80632239f5561461013c5780632f6c493c146101585780633bc2c4a7146101745780634a4fbeec146101905780635b127533146101c0575b600080fd5b610156600480360381019061015191906131af565b610419565b005b610172600480360381019061016d919061315d565b6107c0565b005b61018e6004803603810190610189919061315d565b6109f0565b005b6101aa60048036038101906101a5919061315d565b610bd9565b6040516101b79190613c05565b60405180910390f35b6101da60048036038101906101d5919061315d565b610beb565b6040516101e79190613c05565b60405180910390f35b61020a600480360381019061020591906132fa565b610c16565b005b6102266004803603810190610221919061323a565b610fd6565b005b6102306111f1565b60405161023d9190613fc5565b60405180910390f35b610260600480360381019061025b91906131af565b6111f7565b60405161026d9190613c05565b60405180910390f35b610290600480360381019061028b9190613478565b6112d6565b005b6102ac60048036038101906102a791906131eb565b611405565b005b6102c860048036038101906102c3919061315d565b6117c4565b6040516102d59190613be3565b60405180910390f35b6102f860048036038101906102f391906131af565b611894565b005b610314600480360381019061030f91906131af565b611be7565b005b610330600480360381019061032b919061315d565b612047565b60405161033d9190613c05565b60405180910390f35b610360600480360381019061035b91906132a6565b612120565b005b61037c6004803603810190610377919061315d565b6124e1565b005b6103986004803603810190610393919061315d565b61261c565b6040516103a6929190613fe0565b60405180910390f35b6103b7612660565b6040516103c49190613fc5565b60405180910390f35b6103e760048036038101906103e2919061315d565b612666565b005b61040360048036038101906103fe91906133ba565b6127d1565b6040516104109190613c05565b60405180910390f35b813373ffffffffffffffffffffffffffffffffffffffff168173ffffffffffffffffffffffffffffffffffffffff16638da5cb5b6040518163ffffffff1660e01b815260040160206040518083038186803b15801561047757600080fd5b505afa15801561048b573d6000803e3d6000fd5b505050506040513d601f19601f820116820180604052508101906104af9190613186565b73ffffffffffffffffffffffffffffffffffffffff1614610505576040517f08c379a00000000000000000000000000000000000000000000000000000000081526004016104fc90613e85565b60405180910390fd5b8261050f8161287f565b1561054f576040517f08c379a000000000000000000000000000000000000000000000000000000000815260040161054690613e65565b60405180910390fd5b610558846128f5565b610597576040517f08c379a000000000000000000000000000000000000000000000000000000000815260040161058e90613ea5565b60405180910390fd5b600073ffffffffffffffffffffffffffffffffffffffff168373ffffffffffffffffffffffffffffffffffffffff16141580156105db57506105d984846111f7565b155b61061a576040517f08c379a000000000000000000000000000000000000000000000000000000000815260040161061190613f25565b60405180910390fd5b6000600760008673ffffffffffffffffffffffffffffffffffffffff1673ffffffffffffffffffffffffffffffffffffffff16815260200190815260200160002090508060010160009054906101000a900460ff166106ae576040517f08c379a00000000000000000000000000000000000000000000000000000000081526004016106a590613e45565b60405180910390fd5b80600001849080600181540180825580915050600190039060005260206000200160009091909190916101000a81548173ffffffffffffffffffffffffffffffffffffffff021916908373ffffffffffffffffffffffffffffffffffffffff16021790555080600760008773ffffffffffffffffffffffffffffffffffffffff1673ffffffffffffffffffffffffffffffffffffffff1681526020019081526020016000206000820181600001908054610769929190612d9f565b506001820160009054906101000a900460ff168160010160006101000a81548160ff0219169083151502179055509050506107b985600454426107ac9190614107565b632239f55660e01b6129ca565b5050505050565b803373ffffffffffffffffffffffffffffffffffffffff168173ffffffffffffffffffffffffffffffffffffffff16638da5cb5b6040518163ffffffff1660e01b815260040160206040518083038186803b15801561081e57600080fd5b505afa158015610832573d6000803e3d6000fd5b505050506040513d601f19601f820116820180604052508101906108569190613186565b73ffffffffffffffffffffffffffffffffffffffff16148061087e575061087d81336111f7565b5b6108bd576040517f08c379a00000000000000000000000000000000000000000000000000000000081526004016108b490613da5565b60405180910390fd5b816108c78161287f565b610906576040517f08c379a00000000000000000000000000000000000000000000000000000000081526004016108fd90613f85565b60405180910390fd5b63f435f5a760e01b7bffffffffffffffffffffffffffffffffffffffffffffffffffffffff1916600260008573ffffffffffffffffffffffffffffffffffffffff1673ffffffffffffffffffffffffffffffffffffffff16815260200190815260200160002060000160089054906101000a900460e01b7bffffffffffffffffffffffffffffffffffffffffffffffffffffffff1916146109dc576040517f08c379a00000000000000000000000000000000000000000000000000000000081526004016109d390613ce5565b60405180910390fd5b6109eb8360008060e01b6129ca565b505050565b6109f981612047565b610a38576040517f08c379a0000000000000000000000000000000000000000000000000000000008152600401610a2f90613c65565b60405180910390fd5b6000600660008373ffffffffffffffffffffffffffffffffffffffff1673ffffffffffffffffffffffffffffffffffffffff168152602001908152602001600020604051806040016040529081600082015481526020016001820160009054906101000a900473ffffffffffffffffffffffffffffffffffffffff1673ffffffffffffffffffffffffffffffffffffffff1673ffffffffffffffffffffffffffffffffffffffff168152505090508173ffffffffffffffffffffffffffffffffffffffff1663a39a45b782602001516040518263ffffffff1660e01b8152600401610b239190613af0565b600060405180830381600087803b158015610b3d57600080fd5b505af1158015610b51573d6000803e3d6000fd5b50505050600660008373ffffffffffffffffffffffffffffffffffffffff1673ffffffffffffffffffffffffffffffffffffffff1681526020019081526020016000206000808201600090556001820160006101000a81549073ffffffffffffffffffffffffffffffffffffffff02191690555050610bd58260008060e01b6129ca565b5050565b6000610be48261287f565b9050919050565b60076020528060005260406000206000915090508060010160009054906101000a900460ff16905081565b823373ffffffffffffffffffffffffffffffffffffffff168173ffffffffffffffffffffffffffffffffffffffff16638da5cb5b6040518163ffffffff1660e01b815260040160206040518083038186803b158015610c7457600080fd5b505afa158015610c88573d6000803e3d6000fd5b505050506040513d601f19601f82011682018060405250810190610cac9190613186565b73ffffffffffffffffffffffffffffffffffffffff161480610cd45750610cd381336111f7565b5b610d13576040517f08c379a0000000000000000000000000000000000000000000000000000000008152600401610d0a90613da5565b60405180910390fd5b6000600760008673ffffffffffffffffffffffffffffffffffffffff1673ffffffffffffffffffffffffffffffffffffffff16815260200190815260200160002090508060010160009054906101000a900460ff16610da7576040517f08c379a0000000000000000000000000000000000000000000000000000000008152600401610d9e90613e25565b60405180910390fd5b6000600260018360000180549050610dbf9190614107565b610dc9919061415d565b9050600060418551610ddb919061415d565b905081811015610e20576040517f08c379a0000000000000000000000000000000000000000000000000000000008152600401610e1790613f45565b60405180910390fd5b6000610e2b87612aa2565b905060008060005b84811015610f94576000610e48858b84612b0b565b90508273ffffffffffffffffffffffffffffffffffffffff168173ffffffffffffffffffffffffffffffffffffffff1611610eb8576040517f08c379a0000000000000000000000000000000000000000000000000000000008152600401610eaf90613d25565b60405180910390fd5b809250610f4d88600001805480602002602001604051908101604052809291908181526020018280548015610f4257602002820191906000526020600020905b8160009054906101000a900473ffffffffffffffffffffffffffffffffffffffff1673ffffffffffffffffffffffffffffffffffffffff1681526020019060010190808311610ef8575b5050505050826127d1565b15610f8057600184610f5f9190614107565b9350868410610f7f57610f728c8c612ba8565b5050505050505050610fd0565b5b508080610f8c906142d2565b915050610e33565b506040517f08c379a0000000000000000000000000000000000000000000000000000000008152600401610fc790613dc5565b60405180910390fd5b50505050565b838073ffffffffffffffffffffffffffffffffffffffff163373ffffffffffffffffffffffffffffffffffffffff1614611045576040517f08c379a000000000000000000000000000000000000000000000000000000000815260040161103c90613f65565b60405180910390fd5b8461104f8161287f565b1561108f576040517f08c379a000000000000000000000000000000000000000000000000000000000815260040161108690613e65565b60405180910390fd5b60008054906101000a900473ffffffffffffffffffffffffffffffffffffffff1673ffffffffffffffffffffffffffffffffffffffff16630bcd4ebb866040518263ffffffff1660e01b81526004016110e89190613af0565b60206040518083038186803b15801561110057600080fd5b505afa158015611114573d6000803e3d6000fd5b505050506040513d601f19601f82011682018060405250810190611138919061340e565b611177576040517f08c379a000000000000000000000000000000000000000000000000000000000815260040161116e90613e05565b60405180910390fd5b8573ffffffffffffffffffffffffffffffffffffffff1663904723e486600187876040518563ffffffff1660e01b81526004016111b79493929190613b0b565b600060405180830381600087803b1580156111d157600080fd5b505af11580156111e5573d6000803e3d6000fd5b50505050505050505050565b60045481565b600080600760008573ffffffffffffffffffffffffffffffffffffffff1673ffffffffffffffffffffffffffffffffffffffff16815260200190815260200160002090506112cd816000018054806020026020016040519081016040528092919081815260200182805480156112c257602002820191906000526020600020905b8160009054906101000a900473ffffffffffffffffffffffffffffffffffffffff1673ffffffffffffffffffffffffffffffffffffffff1681526020019060010190808311611278575b5050505050846127d1565b91505092915050565b600360019054906101000a900460ff16806112fe5750600360009054906101000a900460ff16155b61133d576040517f08c379a000000000000000000000000000000000000000000000000000000000815260040161133490613de5565b60405180910390fd5b6000600360019054906101000a900460ff16159050801561138f576001600360016101000a81548160ff0219169083151502179055506001600360006101000a81548160ff0219169083151502179055505b836000806101000a81548173ffffffffffffffffffffffffffffffffffffffff021916908373ffffffffffffffffffffffffffffffffffffffff160217905550826004819055508160058190555080156113ff576000600360016101000a81548160ff0219169083151502179055505b50505050565b823373ffffffffffffffffffffffffffffffffffffffff168173ffffffffffffffffffffffffffffffffffffffff16638da5cb5b6040518163ffffffff1660e01b815260040160206040518083038186803b15801561146357600080fd5b505afa158015611477573d6000803e3d6000fd5b505050506040513d601f19601f8201168201806040525081019061149b9190613186565b73ffffffffffffffffffffffffffffffffffffffff16146114f1576040517f08c379a00000000000000000000000000000000000000000000000000000000081526004016114e890613e85565b60405180910390fd5b6114fa846128f5565b611539576040517f08c379a000000000000000000000000000000000000000000000000000000000815260040161153090613ea5565b60405180910390fd5b600073ffffffffffffffffffffffffffffffffffffffff168373ffffffffffffffffffffffffffffffffffffffff161415801561157c575061157b84836111f7565b5b6115bb576040517f08c379a00000000000000000000000000000000000000000000000000000000081526004016115b290613f25565b60405180910390fd5b6000600760008673ffffffffffffffffffffffffffffffffffffffff1673ffffffffffffffffffffffffffffffffffffffff16815260200190815260200160002090508060010160009054906101000a900460ff1661164f576040517f08c379a000000000000000000000000000000000000000000000000000000000815260040161164690613cc5565b60405180910390fd5b600060018260000180549050611665919061418e565b905060005b6001836000018054905061167e919061418e565b8110156117bb578260000181815481106116c1577f4e487b7100000000000000000000000000000000000000000000000000000000600052603260045260246000fd5b9060005260206000200160009054906101000a900473ffffffffffffffffffffffffffffffffffffffff1673ffffffffffffffffffffffffffffffffffffffff168573ffffffffffffffffffffffffffffffffffffffff1614156117a8578583600001828154811061175c577f4e487b7100000000000000000000000000000000000000000000000000000000600052603260045260246000fd5b9060005260206000200160006101000a81548173ffffffffffffffffffffffffffffffffffffffff021916908373ffffffffffffffffffffffffffffffffffffffff1602179055508190505b80806117b3906142d2565b91505061166a565b50505050505050565b6060600760008373ffffffffffffffffffffffffffffffffffffffff1673ffffffffffffffffffffffffffffffffffffffff16815260200190815260200160002060000180548060200260200160405190810160405280929190818152602001828054801561188857602002820191906000526020600020905b8160009054906101000a900473ffffffffffffffffffffffffffffffffffffffff1673ffffffffffffffffffffffffffffffffffffffff168152602001906001019080831161183e575b50505050509050919050565b818073ffffffffffffffffffffffffffffffffffffffff163373ffffffffffffffffffffffffffffffffffffffff1614611903576040517f08c379a00000000000000000000000000000000000000000000000000000000081526004016118fa90613f65565b60405180910390fd5b600073ffffffffffffffffffffffffffffffffffffffff168273ffffffffffffffffffffffffffffffffffffffff161415611973576040517f08c379a000000000000000000000000000000000000000000000000000000000815260040161196a90613ca5565b60405180910390fd5b8273ffffffffffffffffffffffffffffffffffffffff16638da5cb5b6040518163ffffffff1660e01b815260040160206040518083038186803b1580156119b957600080fd5b505afa1580156119cd573d6000803e3d6000fd5b505050506040513d601f19601f820116820180604052508101906119f19190613186565b73ffffffffffffffffffffffffffffffffffffffff168273ffffffffffffffffffffffffffffffffffffffff161415611a5f576040517f08c379a0000000000000000000000000000000000000000000000000000000008152600401611a5690613d05565b60405180910390fd5b611a6983836111f7565b15611aa9576040517f08c379a0000000000000000000000000000000000000000000000000000000008152600401611aa090613c85565b60405180910390fd5b611ab283612047565b15611af2576040517f08c379a0000000000000000000000000000000000000000000000000000000008152600401611ae990613d65565b60405180910390fd5b611b118360045442611b049190614107565b6383765b9960e01b6129ca565b600060055442611b219190614107565b905060405180604001604052808281526020018473ffffffffffffffffffffffffffffffffffffffff16815250600660008673ffffffffffffffffffffffffffffffffffffffff1673ffffffffffffffffffffffffffffffffffffffff1681526020019081526020016000206000820151816000015560208201518160010160006101000a81548173ffffffffffffffffffffffffffffffffffffffff021916908373ffffffffffffffffffffffffffffffffffffffff16021790555090505050505050565b813373ffffffffffffffffffffffffffffffffffffffff168173ffffffffffffffffffffffffffffffffffffffff16638da5cb5b6040518163ffffffff1660e01b815260040160206040518083038186803b158015611c4557600080fd5b505afa158015611c59573d6000803e3d6000fd5b505050506040513d601f19601f82011682018060405250810190611c7d9190613186565b73ffffffffffffffffffffffffffffffffffffffff1614611cd3576040517f08c379a0000000000000000000000000000000000000000000000000000000008152600401611cca90613e85565b60405180910390fd5b611cdc836128f5565b611d1b576040517f08c379a0000000000000000000000000000000000000000000000000000000008152600401611d1290613ea5565b60405180910390fd5b611d2583836111f7565b611d64576040517f08c379a0000000000000000000000000000000000000000000000000000000008152600401611d5b90613ec5565b60405180910390fd5b6000600760008573ffffffffffffffffffffffffffffffffffffffff1673ffffffffffffffffffffffffffffffffffffffff16815260200190815260200160002090508060010160009054906101000a900460ff16611df8576040517f08c379a0000000000000000000000000000000000000000000000000000000008152600401611def90613cc5565b60405180910390fd5b600060018260000180549050611e0e919061418e565b90506000826000018281548110611e4e577f4e487b7100000000000000000000000000000000000000000000000000000000600052603260045260246000fd5b9060005260206000200160009054906101000a900473ffffffffffffffffffffffffffffffffffffffff16905060005b60018460000180549050611e92919061418e565b811015611fcf57836000018181548110611ed5577f4e487b7100000000000000000000000000000000000000000000000000000000600052603260045260246000fd5b9060005260206000200160009054906101000a900473ffffffffffffffffffffffffffffffffffffffff1673ffffffffffffffffffffffffffffffffffffffff168673ffffffffffffffffffffffffffffffffffffffff161415611fbc5781846000018281548110611f70577f4e487b7100000000000000000000000000000000000000000000000000000000600052603260045260246000fd5b9060005260206000200160006101000a81548173ffffffffffffffffffffffffffffffffffffffff021916908373ffffffffffffffffffffffffffffffffffffffff1602179055508290505b8080611fc7906142d2565b915050611e7e565b508260000180548061200a577f4e487b7100000000000000000000000000000000000000000000000000000000600052603160045260246000fd5b6001900381819060005260206000200160006101000a81549073ffffffffffffffffffffffffffffffffffffffff02191690559055505050505050565b600080600660008473ffffffffffffffffffffffffffffffffffffffff1673ffffffffffffffffffffffffffffffffffffffff168152602001908152602001600020604051806040016040529081600082015481526020016001820160009054906101000a900473ffffffffffffffffffffffffffffffffffffffff1673ffffffffffffffffffffffffffffffffffffffff1673ffffffffffffffffffffffffffffffffffffffff16815250509050600081600001511415801561211857504267ffffffffffffffff168160000151115b915050919050565b818073ffffffffffffffffffffffffffffffffffffffff163373ffffffffffffffffffffffffffffffffffffffff161461218f576040517f08c379a000000000000000000000000000000000000000000000000000000000815260040161218690613f65565b60405180910390fd5b612198836128f5565b156121d8576040517f08c379a00000000000000000000000000000000000000000000000000000000081526004016121cf90613d85565b60405180910390fd5b600760008473ffffffffffffffffffffffffffffffffffffffff1673ffffffffffffffffffffffffffffffffffffffff16815260200190815260200160002060010160009054906101000a900460ff1615612268576040517f08c379a000000000000000000000000000000000000000000000000000000000815260040161225f90613ee5565b60405180910390fd5b61227183612cb2565b6000828060200190518101906122879190613379565b90506000600760008673ffffffffffffffffffffffffffffffffffffffff1673ffffffffffffffffffffffffffffffffffffffff168152602001908152602001600020905060005b82518110156124bc5781600001838281518110612315577f4e487b7100000000000000000000000000000000000000000000000000000000600052603260045260246000fd5b60200260200101519080600181540180825580915050600190039060005260206000200160009091909190916101000a81548173ffffffffffffffffffffffffffffffffffffffff021916908373ffffffffffffffffffffffffffffffffffffffff1602179055508573ffffffffffffffffffffffffffffffffffffffff16638da5cb5b6040518163ffffffff1660e01b815260040160206040518083038186803b1580156123c357600080fd5b505afa1580156123d7573d6000803e3d6000fd5b505050506040513d601f19601f820116820180604052508101906123fb9190613186565b73ffffffffffffffffffffffffffffffffffffffff1683828151811061244a577f4e487b7100000000000000000000000000000000000000000000000000000000600052603260045260246000fd5b602002602001015173ffffffffffffffffffffffffffffffffffffffff1614156124a9576040517f08c379a00000000000000000000000000000000000000000000000000000000081526004016124a090613d45565b60405180910390fd5b80806124b4906142d2565b9150506122cf565b5060018160010160006101000a81548160ff0219169083151502179055505050505050565b808073ffffffffffffffffffffffffffffffffffffffff163373ffffffffffffffffffffffffffffffffffffffff1614612550576040517f08c379a000000000000000000000000000000000000000000000000000000000815260040161254790613f65565b60405180910390fd5b61255982612047565b612598576040517f08c379a000000000000000000000000000000000000000000000000000000000815260040161258f90613f05565b60405180910390fd5b600660008373ffffffffffffffffffffffffffffffffffffffff1673ffffffffffffffffffffffffffffffffffffffff1681526020019081526020016000206000808201600090556001820160006101000a81549073ffffffffffffffffffffffffffffffffffffffff021916905550506126188260008060e01b6129ca565b5050565b60066020528060005260406000206000915090508060000154908060010160009054906101000a900473ffffffffffffffffffffffffffffffffffffffff16905082565b60055481565b803373ffffffffffffffffffffffffffffffffffffffff168173ffffffffffffffffffffffffffffffffffffffff16638da5cb5b6040518163ffffffff1660e01b815260040160206040518083038186803b1580156126c457600080fd5b505afa1580156126d8573d6000803e3d6000fd5b505050506040513d601f19601f820116820180604052508101906126fc9190613186565b73ffffffffffffffffffffffffffffffffffffffff161480612724575061272381336111f7565b5b612763576040517f08c379a000000000000000000000000000000000000000000000000000000000815260040161275a90613da5565b60405180910390fd5b8161276d8161287f565b156127ad576040517f08c379a00000000000000000000000000000000000000000000000000000000081526004016127a490613e65565b60405180910390fd5b6127cc83600454426127bf9190614107565b63f435f5a760e01b6129ca565b505050565b600080600090505b8351811015612873578273ffffffffffffffffffffffffffffffffffffffff16848281518110612832577f4e487b7100000000000000000000000000000000000000000000000000000000600052603260045260246000fd5b602002602001015173ffffffffffffffffffffffffffffffffffffffff161415612860576001915050612879565b808061286b906142d2565b9150506127d9565b50600090505b92915050565b60004267ffffffffffffffff16600260008473ffffffffffffffffffffffffffffffffffffffff1673ffffffffffffffffffffffffffffffffffffffff16815260200190815260200160002060000160009054906101000a900467ffffffffffffffff1667ffffffffffffffff16119050919050565b600080600090505b6001805490508110156129bf578273ffffffffffffffffffffffffffffffffffffffff166001828154811061295b577f4e487b7100000000000000000000000000000000000000000000000000000000600052603260045260246000fd5b9060005260206000200160009054906101000a900473ffffffffffffffffffffffffffffffffffffffff1673ffffffffffffffffffffffffffffffffffffffff1614156129ac5760019150506129c5565b80806129b7906142d2565b9150506128fd565b50600090505b919050565b60405180604001604052808367ffffffffffffffff168152602001827bffffffffffffffffffffffffffffffffffffffffffffffffffffffff1916815250600260008573ffffffffffffffffffffffffffffffffffffffff1673ffffffffffffffffffffffffffffffffffffffff16815260200190815260200160002060008201518160000160006101000a81548167ffffffffffffffff021916908367ffffffffffffffff16021790555060208201518160000160086101000a81548163ffffffff021916908360e01c0217905550905050505050565b60008082600001519050600083602001519050600084604001519050600085606001519050601960f81b600060f81b85858585604051602001612aea96959493929190613a5e565b60405160208183030381529060405280519060200120945050505050919050565b600080600080612b1b8686612d18565b809350819450829550505050600187604051602001612b3a9190613aca565b6040516020818303038152906040528051906020012084848460405160008152602001604052604051612b709493929190613c20565b6020604051602081039080840390855afa158015612b92573d6000803e3d6000fd5b5050506020604051035193505050509392505050565b6000816000015190506000826020015190506000836040015190506000846060015190506000856080015190508673ffffffffffffffffffffffffffffffffffffffff1663b14f6c8386868685876040518663ffffffff1660e01b8152600401612c16959493929190613b89565b600060405180830381600087803b158015612c3057600080fd5b505af1158015612c44573d6000803e3d6000fd5b505050506040513d6000823e3d601f19601f82011682018060405250810190612c6d9190613437565b507f16a95b1f4b59f6a32941b3b48a50be9d4d9f9c4da4cb504681489daabf991928858585604051612ca193929190613b4b565b60405180910390a150505050505050565b6001819080600181540180825580915050600190039060005260206000200160009091909190916101000a81548173ffffffffffffffffffffffffffffffffffffffff021916908373ffffffffffffffffffffffffffffffffffffffff16021790555050565b600080600083604102602001850151915083604102604001850151905060ff84604102604101860151169250601b8360ff161480612d595750601c8360ff16145b612d98576040517f08c379a0000000000000000000000000000000000000000000000000000000008152600401612d8f90613fa5565b60405180910390fd5b9250925092565b828054828255906000526020600020908101928215612de05760005260206000209182015b82811115612ddf578254825591600101919060010190612dc4565b5b509050612ded9190612df1565b5090565b5b80821115612e0a576000816000905550600101612df2565b5090565b6000612e21612e1c8461402e565b614009565b90508083825260208201905082856020860282011115612e4057600080fd5b60005b85811015612e705781612e568882612f62565b845260208401935060208301925050600181019050612e43565b5050509392505050565b6000612e8d612e888461402e565b614009565b90508083825260208201905082856020860282011115612eac57600080fd5b60005b85811015612edc5781612ec28882612f77565b845260208401935060208301925050600181019050612eaf565b5050509392505050565b6000612ef9612ef48461405a565b614009565b905082815260208101848484011115612f1157600080fd5b612f1c84828561425f565b509392505050565b6000612f37612f328461405a565b614009565b905082815260208101848484011115612f4f57600080fd5b612f5a84828561426e565b509392505050565b600081359050612f718161498e565b92915050565b600081519050612f868161498e565b92915050565b600082601f830112612f9d57600080fd5b8135612fad848260208601612e0e565b91505092915050565b600082601f830112612fc757600080fd5b8151612fd7848260208601612e7a565b91505092915050565b600081519050612fef816149a5565b92915050565b60008083601f84011261300757600080fd5b8235905067ffffffffffffffff81111561302057600080fd5b60208301915083600182028301111561303857600080fd5b9250929050565b600082601f83011261305057600080fd5b8135613060848260208601612ee6565b91505092915050565b600082601f83011261307a57600080fd5b815161308a848260208601612f24565b91505092915050565b6000813590506130a2816149bc565b92915050565b600060a082840312156130ba57600080fd5b6130c460a0614009565b905060006130d484828501612f62565b60008301525060206130e884828501613148565b602083015250604082013567ffffffffffffffff81111561310857600080fd5b6131148482850161303f565b604083015250606061312884828501613148565b606083015250608061313c84828501613148565b60808301525092915050565b600081359050613157816149d3565b92915050565b60006020828403121561316f57600080fd5b600061317d84828501612f62565b91505092915050565b60006020828403121561319857600080fd5b60006131a684828501612f77565b91505092915050565b600080604083850312156131c257600080fd5b60006131d085828601612f62565b92505060206131e185828601612f62565b9150509250929050565b60008060006060848603121561320057600080fd5b600061320e86828701612f62565b935050602061321f86828701612f62565b925050604061323086828701612f62565b9150509250925092565b6000806000806060858703121561325057600080fd5b600061325e87828801612f62565b945050602061326f87828801612f62565b935050604085013567ffffffffffffffff81111561328c57600080fd5b61329887828801612ff5565b925092505092959194509250565b600080604083850312156132b957600080fd5b60006132c785828601612f62565b925050602083013567ffffffffffffffff8111156132e457600080fd5b6132f08582860161303f565b9150509250929050565b60008060006060848603121561330f57600080fd5b600061331d86828701612f62565b935050602084013567ffffffffffffffff81111561333a57600080fd5b613346868287016130a8565b925050604084013567ffffffffffffffff81111561336357600080fd5b61336f8682870161303f565b9150509250925092565b60006020828403121561338b57600080fd5b600082015167ffffffffffffffff8111156133a557600080fd5b6133b184828501612fb6565b91505092915050565b600080604083850312156133cd57600080fd5b600083013567ffffffffffffffff8111156133e757600080fd5b6133f385828601612f8c565b925050602061340485828601612f62565b9150509250929050565b60006020828403121561342057600080fd5b600061342e84828501612fe0565b91505092915050565b60006020828403121561344957600080fd5b600082015167ffffffffffffffff81111561346357600080fd5b61346f84828501613069565b91505092915050565b60008060006060848603121561348d57600080fd5b600061349b86828701613093565b93505060206134ac86828701613148565b92505060406134bd86828701613148565b9150509250925092565b60006134d383836134df565b60208301905092915050565b6134e8816141c2565b82525050565b6134f7816141c2565b82525050565b61350e613509826141c2565b61431b565b82525050565b600061351f8261409b565b61352981856140be565b93506135348361408b565b8060005b8381101561356557815161354c88826134c7565b9750613557836140b1565b925050600181019050613538565b5085935050505092915050565b61357b816141d4565b82525050565b61359261358d826141e0565b61432d565b82525050565b6135a18161420c565b82525050565b6135b86135b38261420c565b614337565b82525050565b60006135ca83856140cf565b93506135d783858461425f565b6135e0836143ea565b840190509392505050565b60006135f6826140a6565b61360081856140cf565b935061361081856020860161426e565b613619816143ea565b840191505092915050565b600061362f826140a6565b61363981856140e0565b935061364981856020860161426e565b80840191505092915050565b6000613662601b836140eb565b915061366d82614408565b602082019050919050565b60006136856028836140eb565b915061369082614431565b604082019050919050565b60006136a86016836140eb565b91506136b382614480565b602082019050919050565b60006136cb6012836140eb565b91506136d6826144a9565b602082019050919050565b60006136ee601c836140fc565b91506136f9826144d2565b601c82019050919050565b60006137116011836140eb565b915061371c826144fb565b602082019050919050565b60006137346024836140eb565b915061373f82614524565b604082019050919050565b6000613757601c836140eb565b915061376282614573565b602082019050919050565b600061377a601a836140eb565b91506137858261459c565b602082019050919050565b600061379d601c836140eb565b91506137a8826145c5565b602082019050919050565b60006137c0602e836140eb565b91506137cb826145ee565b604082019050919050565b60006137e36019836140eb565b91506137ee8261463d565b602082019050919050565b6000613806601f836140eb565b915061381182614666565b602082019050919050565b6000613829602e836140eb565b91506138348261468f565b604082019050919050565b600061384c601c836140eb565b9150613857826146de565b602082019050919050565b600061386f6012836140eb565b915061387a82614707565b602082019050919050565b60006138926025836140eb565b915061389d82614730565b604082019050919050565b60006138b56011836140eb565b91506138c08261477f565b602082019050919050565b60006138d86011836140eb565b91506138e3826147a8565b602082019050919050565b60006138fb6035836140eb565b9150613906826147d1565b604082019050919050565b600061391e6015836140eb565b915061392982614820565b602082019050919050565b60006139416020836140eb565b915061394c82614849565b602082019050919050565b60006139646012836140eb565b915061396f82614872565b602082019050919050565b6000613987602a836140eb565b91506139928261489b565b604082019050919050565b60006139aa6019836140eb565b91506139b5826148ea565b602082019050919050565b60006139cd6019836140eb565b91506139d882614913565b602082019050919050565b60006139f06019836140eb565b91506139fb8261493c565b602082019050919050565b6000613a13600d836140eb565b9150613a1e82614965565b602082019050919050565b613a3281614248565b82525050565b613a49613a4482614248565b614353565b82525050565b613a5881614252565b82525050565b6000613a6a8289613581565b600182019150613a7a8288613581565b600182019150613a8a82876134fd565b601482019150613a9a8286613a38565b602082019150613aaa8285613624565b9150613ab68284613a38565b602082019150819050979650505050505050565b6000613ad5826136e1565b9150613ae182846135a7565b60208201915081905092915050565b6000602082019050613b0560008301846134ee565b92915050565b6000606082019050613b2060008301876134ee565b613b2d6020830186613572565b8181036040830152613b408184866135be565b905095945050505050565b6000606082019050613b6060008301866134ee565b613b6d6020830185613a29565b8181036040830152613b7f81846135eb565b9050949350505050565b600060a082019050613b9e60008301886134ee565b613bab6020830187613a29565b8181036040830152613bbd81866135eb565b9050613bcc6060830185613a29565b613bd96080830184613a29565b9695505050505050565b60006020820190508181036000830152613bfd8184613514565b905092915050565b6000602082019050613c1a6000830184613572565b92915050565b6000608082019050613c356000830187613598565b613c426020830186613a4f565b613c4f6040830185613598565b613c5c6060830184613598565b95945050505050565b60006020820190508181036000830152613c7e81613655565b9050919050565b60006020820190508181036000830152613c9e81613678565b9050919050565b60006020820190508181036000830152613cbe8161369b565b9050919050565b60006020820190508181036000830152613cde816136be565b9050919050565b60006020820190508181036000830152613cfe81613704565b9050919050565b60006020820190508181036000830152613d1e81613727565b9050919050565b60006020820190508181036000830152613d3e8161374a565b9050919050565b60006020820190508181036000830152613d5e8161376d565b9050919050565b60006020820190508181036000830152613d7e81613790565b9050919050565b60006020820190508181036000830152613d9e816137b3565b9050919050565b60006020820190508181036000830152613dbe816137d6565b9050919050565b60006020820190508181036000830152613dde816137f9565b9050919050565b60006020820190508181036000830152613dfe8161381c565b9050919050565b60006020820190508181036000830152613e1e8161383f565b9050919050565b60006020820190508181036000830152613e3e81613862565b9050919050565b60006020820190508181036000830152613e5e81613885565b9050919050565b60006020820190508181036000830152613e7e816138a8565b9050919050565b60006020820190508181036000830152613e9e816138cb565b9050919050565b60006020820190508181036000830152613ebe816138ee565b9050919050565b60006020820190508181036000830152613ede81613911565b9050919050565b60006020820190508181036000830152613efe81613934565b9050919050565b60006020820190508181036000830152613f1e81613957565b9050919050565b60006020820190508181036000830152613f3e8161397a565b9050919050565b60006020820190508181036000830152613f5e8161399d565b9050919050565b60006020820190508181036000830152613f7e816139c0565b9050919050565b60006020820190508181036000830152613f9e816139e3565b9050919050565b60006020820190508181036000830152613fbe81613a06565b9050919050565b6000602082019050613fda6000830184613a29565b92915050565b6000604082019050613ff56000830185613a29565b61400260208301846134ee565b9392505050565b6000614013614024565b905061401f82826142a1565b919050565b6000604051905090565b600067ffffffffffffffff821115614049576140486143bb565b5b602082029050602081019050919050565b600067ffffffffffffffff821115614075576140746143bb565b5b61407e826143ea565b9050602081019050919050565b6000819050602082019050919050565b600081519050919050565b600081519050919050565b6000602082019050919050565b600082825260208201905092915050565b600082825260208201905092915050565b600081905092915050565b600082825260208201905092915050565b600081905092915050565b600061411282614248565b915061411d83614248565b9250827fffffffffffffffffffffffffffffffffffffffffffffffffffffffffffffffff038211156141525761415161435d565b5b828201905092915050565b600061416882614248565b915061417383614248565b9250826141835761418261438c565b5b828204905092915050565b600061419982614248565b91506141a483614248565b9250828210156141b7576141b661435d565b5b828203905092915050565b60006141cd82614228565b9050919050565b60008115159050919050565b60007fff0000000000000000000000000000000000000000000000000000000000000082169050919050565b6000819050919050565b6000614221826141c2565b9050919050565b600073ffffffffffffffffffffffffffffffffffffffff82169050919050565b6000819050919050565b600060ff82169050919050565b82818337600083830152505050565b60005b8381101561428c578082015181840152602081019050614271565b8381111561429b576000848401525b50505050565b6142aa826143ea565b810181811067ffffffffffffffff821117156142c9576142c86143bb565b5b80604052505050565b60006142dd82614248565b91507fffffffffffffffffffffffffffffffffffffffffffffffffffffffffffffffff8214156143105761430f61435d565b5b600182019050919050565b600061432682614341565b9050919050565b6000819050919050565b6000819050919050565b600061434c826143fb565b9050919050565b6000819050919050565b7f4e487b7100000000000000000000000000000000000000000000000000000000600052601160045260246000fd5b7f4e487b7100000000000000000000000000000000000000000000000000000000600052601260045260246000fd5b7f4e487b7100000000000000000000000000000000000000000000000000000000600052604160045260246000fd5b6000601f19601f8301169050919050565b60008160601b9050919050565b7f534d3a204e6f2076616c6964207265636f7665727920666f756e640000000000600082015250565b7f534d3a206e65774f776e65722063616e277420626520616e206578697374696e60008201527f67207369676e6572000000000000000000000000000000000000000000000000602082015250565b7f534d3a20496e76616c6964206e6577207369676e657200000000000000000000600082015250565b7f534d3a20496e76616c69642077616c6c65740000000000000000000000000000600082015250565b7f19457468657265756d205369676e6564204d6573736167653a0a333200000000600082015250565b7f534d3a2063616e6e6f7420756e6c6f636b000000000000000000000000000000600082015250565b7f534d3a206f776e65722063616e206e6f7420747269676765722061207265636f60008201527f7665727900000000000000000000000000000000000000000000000000000000602082015250565b7f534d3a204261646c79206f726465726564207369676e61747572657300000000600082015250565b7f534d3a207369676e65722063616e6e2774206265206f776e6572000000000000600082015250565b7f534d3a2073686f756c64206e6f74207472696767657220747769636500000000600082015250565b7f534d3a2073686f756c64206e6f74206164642073616d65206d6f64756c65207460008201527f6f2077616c6c6574207477696365000000000000000000000000000000000000602082015250565b7f534d3a206d757374206265207369676e65722f77616c6c657400000000000000600082015250565b7f534d3a204e6f7420656e6f7567682076616c6964207369676e61747572657300600082015250565b7f496e697469616c697a61626c653a20636f6e747261637420697320616c72656160008201527f647920696e697469616c697a6564000000000000000000000000000000000000602082015250565b7f534d3a206d6f64756c65206973206e6f74207265676973746572656400000000600082015250565b7f534d3a20696e76616c69642077616c6c65740000000000000000000000000000600082015250565b7f534d3a2077616c6c6574207369676e657220696e666f206e6f7420636f6e736960008201527f7374656e74000000000000000000000000000000000000000000000000000000602082015250565b7f424d3a2077616c6c6574206c6f636b6564000000000000000000000000000000600082015250565b7f534d3a206d757374206265206f776e6572000000000000000000000000000000600082015250565b7f534d3a2077616c6c65742073686f756c6420626520726567697374657265642060008201527f6265666f726520616464696e67207369676e6572730000000000000000000000602082015250565b7f534d3a20696e76616c6964206f6c645369676e65720000000000000000000000600082015250565b7f534d3a2077616c6c65742065786973747320696e207369676e6572496e666f73600082015250565b7f534d3a206e6f74207265636f766572696e670000000000000000000000000000600082015250565b7f534d3a20696e76616c6964206e65775369676e6572206f7220696e76616c696460008201527f206f6c645369676e657200000000000000000000000000000000000000000000602082015250565b7f534d3a204e6f7420656e6f756768207369676e61747572657300000000000000600082015250565b7f424d3a2063616c6c6572206d7573742062652077616c6c657400000000000000600082015250565b7f424d3a2077616c6c6574206d757374206265206c6f636b656400000000000000600082015250565b7f534d3a20496e76616c6964207600000000000000000000000000000000000000600082015250565b614997816141c2565b81146149a257600080fd5b50565b6149ae816141d4565b81146149b957600080fd5b50565b6149c581614216565b81146149d057600080fd5b50565b6149dc81614248565b81146149e757600080fd5b5056fea264697066735822122090a3f328ad66129aa601a3693e578daa9a80104cd70a63668c1720d6ea13907964736f6c63430008030033",
  "linkReferences": {},
  "deployedLinkReferences": {}
}