{
  "_format": "hh-sol-artifact-1",
  "contractName": "SecurityModule",
  "sourceName": "contracts/SecurityModule.sol",
  "abi": [
    {
      "inputs": [],
      "stateMutability": "nonpayable",
      "type": "constructor"
    },
    {
      "anonymous": false,
      "inputs": [
        {
          "indexed": false,
          "internalType": "address",
          "name": "_wallet",
          "type": "address"
        }
      ],
      "name": "Locked",
      "type": "event"
    },
    {
      "anonymous": false,
      "inputs": [
        {
          "indexed": false,
          "internalType": "address",
          "name": "to",
          "type": "address"
        },
        {
          "indexed": false,
          "internalType": "uint256",
          "name": "value",
          "type": "uint256"
        },
        {
          "indexed": false,
          "internalType": "bytes",
          "name": "data",
          "type": "bytes"
        }
      ],
      "name": "MultiCalled",
      "type": "event"
    },
    {
      "anonymous": false,
      "inputs": [
        {
          "indexed": false,
          "internalType": "address",
          "name": "_wallet",
          "type": "address"
        }
      ],
      "name": "RecoveryCancelled",
      "type": "event"
    },
    {
      "anonymous": false,
      "inputs": [
        {
          "indexed": false,
          "internalType": "address",
          "name": "_wallet",
          "type": "address"
        }
      ],
      "name": "RecoveryExecuted",
      "type": "event"
    },
    {
      "anonymous": false,
      "inputs": [
        {
          "indexed": false,
          "internalType": "address",
          "name": "_wallet",
          "type": "address"
        },
        {
          "indexed": false,
          "internalType": "address",
          "name": "_recovery",
          "type": "address"
        }
      ],
      "name": "RecoveryTriggered",
      "type": "event"
    },
    {
      "anonymous": false,
      "inputs": [
        {
          "indexed": false,
          "internalType": "address",
          "name": "_wallet",
          "type": "address"
        },
        {
          "indexed": false,
          "internalType": "bytes",
          "name": "data",
          "type": "bytes"
        }
      ],
      "name": "SMInited",
      "type": "event"
    },
    {
      "anonymous": false,
      "inputs": [
        {
          "indexed": false,
          "internalType": "address",
          "name": "_wallet",
          "type": "address"
        },
        {
          "indexed": false,
          "internalType": "uint256",
          "name": "_lockedSecurityPeriod",
          "type": "uint256"
        },
        {
          "indexed": false,
          "internalType": "uint256",
          "name": "_recoverySecurityPeriod",
          "type": "uint256"
        }
      ],
      "name": "SMParameterChanged",
      "type": "event"
    },
    {
      "anonymous": false,
      "inputs": [
        {
          "indexed": false,
          "internalType": "address",
          "name": "_wallet",
          "type": "address"
        },
        {
          "indexed": false,
          "internalType": "address",
          "name": "signer",
          "type": "address"
        }
      ],
      "name": "SignerAdded",
      "type": "event"
    },
    {
      "anonymous": false,
      "inputs": [
        {
          "indexed": false,
          "internalType": "address",
          "name": "_wallet",
          "type": "address"
        },
        {
          "indexed": false,
          "internalType": "address",
          "name": "_oldSigner",
          "type": "address"
        }
      ],
      "name": "SignerRemoved",
      "type": "event"
    },
    {
      "anonymous": false,
      "inputs": [
        {
          "indexed": false,
          "internalType": "address",
          "name": "_wallet",
          "type": "address"
        },
        {
          "indexed": false,
          "internalType": "address",
          "name": "_newSigner",
          "type": "address"
        },
        {
          "indexed": false,
          "internalType": "address",
          "name": "_oldSigner",
          "type": "address"
        }
      ],
      "name": "SignerReplaced",
      "type": "event"
    },
    {
      "anonymous": false,
      "inputs": [
        {
          "indexed": false,
          "internalType": "address",
          "name": "_wallet",
          "type": "address"
        }
      ],
      "name": "Unlocked",
      "type": "event"
    },
    {
      "inputs": [
        {
          "internalType": "address",
          "name": "_moduleRegistry",
          "type": "address"
        },
        {
          "internalType": "address",
          "name": "_wallet",
          "type": "address"
        },
        {
          "internalType": "address",
          "name": "_module",
          "type": "address"
        },
        {
          "internalType": "bytes",
          "name": "data",
          "type": "bytes"
        }
      ],
      "name": "addModule",
      "outputs": [],
      "stateMutability": "nonpayable",
      "type": "function"
    },
    {
      "inputs": [
        {
          "internalType": "address",
          "name": "_wallet",
          "type": "address"
        },
        {
          "internalType": "address",
          "name": "signer",
          "type": "address"
        }
      ],
      "name": "addSigner",
      "outputs": [],
      "stateMutability": "nonpayable",
      "type": "function"
    },
    {
      "inputs": [
        {
          "internalType": "address",
          "name": "_wallet",
          "type": "address"
        }
      ],
      "name": "cancelRecovery",
      "outputs": [],
      "stateMutability": "nonpayable",
      "type": "function"
    },
    {
      "inputs": [
        {
          "internalType": "address",
          "name": "_wallet",
          "type": "address"
        }
      ],
      "name": "executeRecovery",
      "outputs": [],
      "stateMutability": "nonpayable",
      "type": "function"
    },
    {
      "inputs": [
        {
          "internalType": "address[]",
          "name": "_signers",
          "type": "address[]"
        },
        {
          "internalType": "address",
          "name": "_signer",
          "type": "address"
        }
      ],
      "name": "findSigner",
      "outputs": [
        {
          "internalType": "bool",
          "name": "",
          "type": "bool"
        }
      ],
      "stateMutability": "pure",
      "type": "function"
    },
    {
      "inputs": [
        {
          "internalType": "address",
          "name": "_wallet",
          "type": "address"
        }
      ],
      "name": "getLockedSecurityPeriod",
      "outputs": [
        {
          "internalType": "uint256",
          "name": "",
          "type": "uint256"
        }
      ],
      "stateMutability": "view",
      "type": "function"
    },
    {
      "inputs": [
        {
          "internalType": "address",
          "name": "_wallet",
          "type": "address"
        }
      ],
      "name": "getRecoveryExpiryTime",
      "outputs": [
        {
          "internalType": "uint256",
          "name": "",
          "type": "uint256"
        }
      ],
      "stateMutability": "view",
      "type": "function"
    },
    {
      "inputs": [
        {
          "internalType": "address",
          "name": "_wallet",
          "type": "address"
        }
      ],
      "name": "getRecoverySecurityPeriod",
      "outputs": [
        {
          "internalType": "uint256",
          "name": "",
          "type": "uint256"
        }
      ],
      "stateMutability": "view",
      "type": "function"
    },
    {
      "inputs": [
        {
          "internalType": "address",
          "name": "_wallet",
          "type": "address"
        }
      ],
      "name": "getSigners",
      "outputs": [
        {
          "internalType": "address[]",
          "name": "",
          "type": "address[]"
        }
      ],
      "stateMutability": "view",
      "type": "function"
    },
    {
      "inputs": [],
      "name": "implementation",
      "outputs": [
        {
          "internalType": "address",
          "name": "",
          "type": "address"
        }
      ],
      "stateMutability": "view",
      "type": "function"
    },
    {
      "inputs": [
        {
          "internalType": "address",
          "name": "_wallet",
          "type": "address"
        },
        {
          "internalType": "bytes",
          "name": "data",
          "type": "bytes"
        }
      ],
      "name": "init",
      "outputs": [],
      "stateMutability": "nonpayable",
      "type": "function"
    },
    {
      "inputs": [
        {
          "internalType": "contract IModuleRegistry",
          "name": "_registry",
          "type": "address"
        },
        {
          "internalType": "uint256",
          "name": "_lockedSecurityPeriod",
          "type": "uint256"
        },
        {
          "internalType": "uint256",
          "name": "_recoverySecurityPeriod",
          "type": "uint256"
        }
      ],
      "name": "initialize",
      "outputs": [],
      "stateMutability": "nonpayable",
      "type": "function"
    },
    {
      "inputs": [
        {
          "internalType": "address",
          "name": "_wallet",
          "type": "address"
        }
      ],
      "name": "isInRecovery",
      "outputs": [
        {
          "internalType": "bool",
          "name": "",
          "type": "bool"
        }
      ],
      "stateMutability": "view",
      "type": "function"
    },
    {
      "inputs": [
        {
          "internalType": "address",
          "name": "_wallet",
          "type": "address"
        }
      ],
      "name": "isLocked",
      "outputs": [
        {
          "internalType": "uint256",
          "name": "",
          "type": "uint256"
        }
      ],
      "stateMutability": "view",
      "type": "function"
    },
    {
      "inputs": [
        {
          "internalType": "address",
          "name": "_wallet",
          "type": "address"
        },
        {
          "internalType": "address",
          "name": "_signer",
          "type": "address"
        }
      ],
      "name": "isSigner",
      "outputs": [
        {
          "internalType": "bool",
          "name": "",
          "type": "bool"
        }
      ],
      "stateMutability": "view",
      "type": "function"
    },
    {
      "inputs": [
        {
          "internalType": "address",
          "name": "_wallet",
          "type": "address"
        }
      ],
      "name": "lock",
      "outputs": [],
      "stateMutability": "nonpayable",
      "type": "function"
    },
    {
      "inputs": [],
      "name": "lockedSecurityPeriod",
      "outputs": [
        {
          "internalType": "uint256",
          "name": "",
          "type": "uint256"
        }
      ],
      "stateMutability": "view",
      "type": "function"
    },
    {
      "inputs": [
        {
          "internalType": "address",
          "name": "_wallet",
          "type": "address"
        },
        {
          "components": [
            {
              "internalType": "address",
              "name": "to",
              "type": "address"
            },
            {
              "internalType": "uint256",
              "name": "value",
              "type": "uint256"
            },
            {
              "internalType": "bytes",
              "name": "data",
              "type": "bytes"
            },
            {
              "internalType": "uint256",
              "name": "sequenceId",
              "type": "uint256"
            },
            {
              "internalType": "uint256",
              "name": "expireTime",
              "type": "uint256"
            }
          ],
          "internalType": "struct BaseModule.CallArgs",
          "name": "_args",
          "type": "tuple"
        },
        {
          "internalType": "bytes",
          "name": "_signatures",
          "type": "bytes"
        }
      ],
      "name": "multicall",
      "outputs": [],
      "stateMutability": "nonpayable",
      "type": "function"
    },
    {
      "inputs": [
        {
          "internalType": "address",
          "name": "",
          "type": "address"
        }
      ],
      "name": "recoveries",
      "outputs": [
        {
          "internalType": "uint256",
          "name": "activeAt",
          "type": "uint256"
        },
        {
          "internalType": "address",
          "name": "recovery",
          "type": "address"
        }
      ],
      "stateMutability": "view",
      "type": "function"
    },
    {
      "inputs": [],
      "name": "recoverySecurityPeriod",
      "outputs": [
        {
          "internalType": "uint256",
          "name": "",
          "type": "uint256"
        }
      ],
      "stateMutability": "view",
      "type": "function"
    },
    {
      "inputs": [
        {
          "internalType": "address",
          "name": "_wallet",
          "type": "address"
        }
      ],
      "name": "removeModule",
      "outputs": [],
      "stateMutability": "nonpayable",
      "type": "function"
    },
    {
      "inputs": [
        {
          "internalType": "address",
          "name": "_wallet",
          "type": "address"
        },
        {
          "internalType": "address",
          "name": "_oldSigner",
          "type": "address"
        }
      ],
      "name": "removeSigner",
      "outputs": [],
      "stateMutability": "nonpayable",
      "type": "function"
    },
    {
      "inputs": [
        {
          "internalType": "address",
          "name": "_wallet",
          "type": "address"
        },
        {
          "internalType": "address",
          "name": "_newSigner",
          "type": "address"
        },
        {
          "internalType": "address",
          "name": "_oldSigner",
          "type": "address"
        }
      ],
      "name": "replaceSigner",
      "outputs": [],
      "stateMutability": "nonpayable",
      "type": "function"
    },
    {
      "inputs": [
        {
          "internalType": "address",
          "name": "_wallet",
          "type": "address"
        },
        {
          "internalType": "uint256",
          "name": "_lockedSecurityPeriod",
          "type": "uint256"
        },
        {
          "internalType": "uint256",
          "name": "_recoverySecurityPeriod",
          "type": "uint256"
        }
      ],
      "name": "setSecurityPeriod",
      "outputs": [],
      "stateMutability": "nonpayable",
      "type": "function"
    },
    {
      "inputs": [
        {
          "internalType": "address",
          "name": "",
          "type": "address"
        }
      ],
      "name": "signerConfInfos",
      "outputs": [
        {
          "internalType": "bool",
          "name": "exist",
          "type": "bool"
        },
        {
          "internalType": "uint256",
          "name": "lockedPeriod",
          "type": "uint256"
        },
        {
          "internalType": "uint256",
          "name": "recoveryPeriod",
          "type": "uint256"
        }
      ],
      "stateMutability": "view",
      "type": "function"
    },
    {
      "inputs": [
        {
          "internalType": "address",
          "name": "_wallet",
          "type": "address"
        },
        {
          "internalType": "address",
          "name": "_recovery",
          "type": "address"
        }
      ],
      "name": "triggerRecovery",
      "outputs": [],
      "stateMutability": "nonpayable",
      "type": "function"
    },
    {
      "inputs": [
        {
          "internalType": "address",
          "name": "_wallet",
          "type": "address"
        }
      ],
      "name": "unlock",
      "outputs": [],
      "stateMutability": "nonpayable",
      "type": "function"
    }
  ],
  "bytecode": "0x608060405234801561001057600080fd5b50613d46806100206000396000f3fe608060405234801561001057600080fd5b50600436106101a95760003560e01c80637e3ba6af116100f9578063c0d91eaf11610097578063cf0c137211610071578063cf0c1372146103d9578063f435f5a714610426578063f883822514610439578063fc1d47b81461044c576101a9565b8063c0d91eaf146103aa578063c6de2a3f146103bd578063c90db447146103c6576101a9565b80638d20efa7116100d35780638d20efa71461035e5780638f29d530146103715780639de9e40014610384578063a063246114610397576101a9565b80637e3ba6af1461031857806383765b991461033857806389ff98e41461034b576101a9565b806353a2a3f8116101665780636fa30cd4116101405780636fa30cd4146102bc57806378b248e4146102cf5780637a1ac61e146102f25780637b551f0d14610305576101a9565b806353a2a3f81461022b5780635c60da1b1461027e57806368f3073f146102a9576101a9565b80630fb436eb146101ae57806313f71305146101ca5780632239f556146101df5780632f6c493c146101f25780633bc2c4a7146102055780634a4fbeec14610218575b600080fd5b6101b760045481565b6040519081526020015b60405180910390f35b6101dd6101d83660046135b9565b61045f565b005b6101dd6101ed366004613372565b610666565b6101dd61020036600461333a565b610a73565b6101dd61021336600461333a565b610cab565b6101b761022636600461333a565b610e4d565b61026161023936600461333a565b60076020526000908152604090206001810154600282015460039092015460ff909116919083565b6040805193151584526020840192909252908201526060016101c1565b600054610291906001600160a01b031681565b6040516001600160a01b0390911681526020016101c1565b6101b76102b736600461333a565b610ec8565b6101dd6102ca3660046134e5565b610f99565b6102e26102dd366004613372565b6112b3565b60405190151581526020016101c1565b6101dd6103003660046135b9565b61136d565b6101dd6103133660046133aa565b61144d565b61032b61032636600461333a565b611873565b6040516101c19190613951565b6101dd610346366004613372565b6118e9565b6101dd6103593660046133f4565b611d6f565b6101dd61036c366004613372565b611f84565b6102e261037f36600461333a565b61241e565b6101b761039236600461333a565b612478565b6101dd6103a536600461333a565b612549565b6101dd6103b8366004613497565b6125f9565b6101b760055481565b6101dd6103d436600461333a565b612914565b6104096103e736600461333a565b600660205260009081526040902080546001909101546001600160a01b031682565b604080519283526001600160a01b039091166020830152016101c1565b6101dd61043436600461333a565b612a9e565b6101b761044736600461333a565b612cb4565b6102e261045a366004613689565b612d0d565b82336001600160a01b038216146104915760405162461bcd60e51b815260040161048890613b67565b60405180910390fd5b83806001600160a01b031663a4e2d6346040518163ffffffff1660e01b815260040160206040518083038186803b1580156104cb57600080fd5b505afa1580156104df573d6000803e3d6000fd5b505050506040513d601f19601f8201168201806040525081019061050391906137ca565b156105445760405162461bcd60e51b815260206004820152601160248201527010934e881dd85b1b195d081b1bd8dad959607a1b6044820152606401610488565b6001600160a01b0385166000908152600760205260409020600181015460ff166105805760405162461bcd60e51b8152600401610488906139b6565b848160020154141580610597575083816003015414155b6105ee5760405162461bcd60e51b815260206004820152602260248201527f534d3a4d757374206368616e6765206174206c65617374206f6e6520706572696044820152611bd960f21b6064820152608401610488565b8481600201541461060157600281018590555b8381600301541461061457600381018490555b604080516001600160a01b0388168152602081018790529081018590527fd93dd93d4d43d8f00148e4cb11174f8092cbda4e73ebe3a309b5ca984611e2529060600160405180910390a1505050505050565b81336001600160a01b0316816001600160a01b0316638da5cb5b6040518163ffffffff1660e01b815260040160206040518083038186803b1580156106aa57600080fd5b505afa1580156106be573d6000803e3d6000fd5b505050506040513d601f19601f820116820180604052508101906106e29190613356565b6001600160a01b0316146107085760405162461bcd60e51b815260040161048890613a50565b826000816001600160a01b031663a4e2d6346040518163ffffffff1660e01b815260040160206040518083038186803b15801561074457600080fd5b505afa158015610758573d6000803e3d6000fd5b505050506040513d601f19601f8201168201806040525081019061077c91906137ca565b9050610789600282613ca5565b156107a65760405162461bcd60e51b8152600401610488906139e2565b846000816001600160a01b031663a4e2d6346040518163ffffffff1660e01b815260040160206040518083038186803b1580156107e257600080fd5b505afa1580156107f6573d6000803e3d6000fd5b505050506040513d601f19601f8201168201806040525081019061081a91906137ca565b90508060021415801561082e575080600314155b61084a5760405162461bcd60e51b815260040161048890613b1a565b61085387612d81565b61086f5760405162461bcd60e51b815260040161048890613a7b565b6001600160a01b0386161580159061088e575061088c87876112b3565b155b6108aa5760405162461bcd60e51b815260040161048890613ad0565b6001600160a01b0387166000908152600760205260409020600181015460ff166109245760405162461bcd60e51b815260206004820152602560248201527f534d3a2077616c6c6574207369676e657220696e666f206e6f7420636f6e73696044820152641cdd195b9d60da1b6064820152608401610488565b80546001810182556000828152602080822090920180546001600160a01b0319166001600160a01b038b8116919091179091558a16815260079091526040902081548291906109769082908490613258565b50600182810154908201805460ff191660ff90921615159190911790556002808301548183015560039283015492909101919091558101546001600160a01b0389169063a0adf89f906109c99042613c1b565b6040516001600160e01b031960e084901b1681526109f3919063111cfaab60e11b9060040161399e565b600060405180830381600087803b158015610a0d57600080fd5b505af1158015610a21573d6000803e3d6000fd5b5050604080516001600160a01b03808d1682528b1660208201527f12146497b3b826918ec47f0cac7272a09ed06b30c16c030e99ec48ff5dd60b47935001905060405180910390a15050505050505050565b80336001600160a01b0316816001600160a01b0316638da5cb5b6040518163ffffffff1660e01b815260040160206040518083038186803b158015610ab757600080fd5b505afa158015610acb573d6000803e3d6000fd5b505050506040513d601f19601f82011682018060405250810190610aef9190613356565b6001600160a01b03161480610b095750610b0981336112b3565b610b255760405162461bcd60e51b815260040161048890613a19565b816000816001600160a01b031663a4e2d6346040518163ffffffff1660e01b815260040160206040518083038186803b158015610b6157600080fd5b505afa158015610b75573d6000803e3d6000fd5b505050506040513d601f19601f82011682018060405250810190610b9991906137ca565b9050610ba6600282613ca5565b600114610c005760405162461bcd60e51b815260206004820152602260248201527f424d3a2077616c6c6574206d75737420626520676c6f62616c6c79206c6f636b604482015261195960f21b6064820152608401610488565b60405163a0adf89f60e01b81526001600160a01b0385169063a0adf89f90610c369060009063f435f5a760e01b9060040161399e565b600060405180830381600087803b158015610c5057600080fd5b505af1158015610c64573d6000803e3d6000fd5b50506040516001600160a01b03871681527f7e6adfec7e3f286831a0200a754127c171a2da564078722cb97704741bbdb0ea9250602001905060405180910390a150505050565b610cb48161241e565b610d005760405162461bcd60e51b815260206004820152601b60248201527f534d3a204e6f2076616c6964207265636f7665727920666f756e6400000000006044820152606401610488565b6001600160a01b038181166000818152600660209081526040918290208251808401845281548152600190910154909416908401819052905163a39a45b760e01b8152600481019190915263a39a45b790602401600060405180830381600087803b158015610d6e57600080fd5b505af1158015610d82573d6000803e3d6000fd5b505050506001600160a01b03821660008181526006602052604080822082815560010180546001600160a01b03191690555163a0adf89f60e01b815263a0adf89f91610dd99163111cfaab60e11b9060040161399e565b600060405180830381600087803b158015610df357600080fd5b505af1158015610e07573d6000803e3d6000fd5b50506040516001600160a01b03851681527ffcd2de31341801b7fd80895c780aae50c1505fd674ff1b9b9764c56c633434d6925060200190505b60405180910390a15050565b6000816001600160a01b031663a4e2d6346040518163ffffffff1660e01b815260040160206040518083038186803b158015610e8857600080fd5b505afa158015610e9c573d6000803e3d6000fd5b505050506040513d601f19601f82011682018060405250810190610ec091906137ca565b90505b919050565b6001600160a01b03811660009081526007602090815260408083208151815460a09481028201850190935260808101838152859491938492849190840182828015610f3c57602002820191906000526020600020905b81546001600160a01b03168152600190910190602001808311610f1e575b5050509183525050600182015460ff16151560208083019190915260028301546040830152600390920154606090910152810151909150610f8f5760405162461bcd60e51b8152600401610488906139b6565b6040015192915050565b82336001600160a01b0316816001600160a01b0316638da5cb5b6040518163ffffffff1660e01b815260040160206040518083038186803b158015610fdd57600080fd5b505afa158015610ff1573d6000803e3d6000fd5b505050506040513d601f19601f820116820180604052508101906110159190613356565b6001600160a01b0316148061102f575061102f81336112b3565b61104b5760405162461bcd60e51b815260040161048890613a19565b6001600160a01b0384166000908152600760205260409020600181015460ff166110ac5760405162461bcd60e51b815260206004820152601260248201527114d34e881a5b9d985b1a59081dd85b1b195d60721b6044820152606401610488565b80546000906002906110bf906001613c1b565b6110c99190613c33565b90506000604185516110db9190613c33565b90508181101561112d5760405162461bcd60e51b815260206004820152601960248201527f534d3a204e6f7420656e6f756768207369676e617475726573000000000000006044820152606401610488565b600061113887612dfa565b905060008060005b84811015611264576000611155858b84612e51565b9050826001600160a01b0316816001600160a01b0316116111b85760405162461bcd60e51b815260206004820152601c60248201527f534d3a204261646c79206f726465726564207369676e617475726573000000006044820152606401610488565b8092506112218860000180548060200260200160405190810160405280929190818152602001828054801561121657602002820191906000526020600020905b81546001600160a01b031681526001909101906020018083116111f8575b505050505082612d0d565b1561125157611231600185613c1b565b9350868410611251576112448c8c612f13565b50505050505050506112ad565b508061125c81613c8a565b915050611140565b5060405162461bcd60e51b815260206004820152601f60248201527f534d3a204e6f7420656e6f7567682076616c6964207369676e617475726573006044820152606401610488565b50505050565b6001600160a01b03821660009081526007602090815260408083208151815460a0948102820185019093526080810183815285949193849284919084018282801561132757602002820191906000526020600020905b81546001600160a01b03168152600190910190602001808311611309575b5050509183525050600182015460ff16151560208201526002820154604082015260039091015460609091015280519091506113639084612d0d565b9150505b92915050565b600354610100900460ff166113885760035460ff161561138c565b303b155b6113ef5760405162461bcd60e51b815260206004820152602e60248201527f496e697469616c697a61626c653a20636f6e747261637420697320616c72656160448201526d191e481a5b9a5d1a585b1a5e995960921b6064820152608401610488565b600354610100900460ff16158015611411576003805461ffff19166101011790555b600180546001600160a01b0319166001600160a01b0386161790556005839055600482905580156112ad576003805461ff001916905550505050565b82336001600160a01b0316816001600160a01b0316638da5cb5b6040518163ffffffff1660e01b815260040160206040518083038186803b15801561149157600080fd5b505afa1580156114a5573d6000803e3d6000fd5b505050506040513d601f19601f820116820180604052508101906114c99190613356565b6001600160a01b0316146114ef5760405162461bcd60e51b815260040161048890613a50565b836000816001600160a01b031663a4e2d6346040518163ffffffff1660e01b815260040160206040518083038186803b15801561152b57600080fd5b505afa15801561153f573d6000803e3d6000fd5b505050506040513d601f19601f8201168201806040525081019061156391906137ca565b9050611570600282613ca5565b1561158d5760405162461bcd60e51b8152600401610488906139e2565b856000816001600160a01b031663a4e2d6346040518163ffffffff1660e01b815260040160206040518083038186803b1580156115c957600080fd5b505afa1580156115dd573d6000803e3d6000fd5b505050506040513d601f19601f8201168201806040525081019061160191906137ca565b905080600214158015611615575080600314155b6116315760405162461bcd60e51b815260040161048890613b1a565b61163a88612d81565b6116565760405162461bcd60e51b815260040161048890613a7b565b6001600160a01b03871615801590611673575061167388876112b3565b61168f5760405162461bcd60e51b815260040161048890613ad0565b6001600160a01b0388166000908152600760205260409020600181015460ff166116cb5760405162461bcd60e51b8152600401610488906139b6565b80546000906116dc90600190613c47565b905060005b82546116ef90600190613c47565b81101561179a5782600001818154811061171957634e487b7160e01b600052603260045260246000fd5b6000918252602090912001546001600160a01b038a811691161415611788578983600001828154811061175c57634e487b7160e01b600052603260045260246000fd5b600091825260209091200180546001600160a01b0319166001600160a01b039290921691909117905550805b8061179281613c8a565b9150506116e1565b50896001600160a01b031663a0adf89f8360020154426117ba9190613c1b565b6040516001600160e01b031960e084901b1681526117e4919063111cfaab60e11b9060040161399e565b600060405180830381600087803b1580156117fe57600080fd5b505af1158015611812573d6000803e3d6000fd5b5050604080516001600160a01b03808f168252808e1660208301528c16918101919091527f37852b11621736fac970fe97a5b848e91df7ca7dcf4f4804dcb59fb192104d2d925060600190505b60405180910390a150505050505050505050565b6001600160a01b0381166000908152600760209081526040918290208054835181840281018401909452808452606093928301828280156118dd57602002820191906000526020600020905b81546001600160a01b031681526001909101906020018083116118bf575b50505050509050919050565b81336001600160a01b038216146119125760405162461bcd60e51b815260040161048890613b67565b826000816001600160a01b031663a4e2d6346040518163ffffffff1660e01b815260040160206040518083038186803b15801561194e57600080fd5b505afa158015611962573d6000803e3d6000fd5b505050506040513d601f19601f8201168201806040525081019061198691906137ca565b9050611993600282613ca5565b156119b05760405162461bcd60e51b8152600401610488906139e2565b846000816001600160a01b031663a4e2d6346040518163ffffffff1660e01b815260040160206040518083038186803b1580156119ec57600080fd5b505afa158015611a00573d6000803e3d6000fd5b505050506040513d601f19601f82011682018060405250810190611a2491906137ca565b905080600214158015611a38575080600314155b611a545760405162461bcd60e51b815260040161048890613b1a565b6001600160a01b038616611aa35760405162461bcd60e51b815260206004820152601660248201527529a69d1024b73b30b634b2103732bb9039b4b3b732b960511b6044820152606401610488565b866001600160a01b0316638da5cb5b6040518163ffffffff1660e01b815260040160206040518083038186803b158015611adc57600080fd5b505afa158015611af0573d6000803e3d6000fd5b505050506040513d601f19601f82011682018060405250810190611b149190613356565b6001600160a01b0316866001600160a01b03161415611b815760405162461bcd60e51b8152602060048201526024808201527f534d3a206f776e65722063616e206e6f7420747269676765722061207265636f6044820152637665727960e01b6064820152608401610488565b611b8b87876112b3565b15611be95760405162461bcd60e51b815260206004820152602860248201527f534d3a206e65774f776e65722063616e277420626520616e206578697374696e604482015267339039b4b3b732b960c11b6064820152608401610488565b611bf28761241e565b15611c3f5760405162461bcd60e51b815260206004820152601c60248201527f534d3a2073686f756c64206e6f742074726967676572207477696365000000006044820152606401610488565b6001600160a01b0387166000818152600760205260409020600281015490919063a0adf89f90611c6f9042613c1b565b6040516001600160e01b031960e084901b168152611c99919063111cfaab60e11b9060040161399e565b600060405180830381600087803b158015611cb357600080fd5b505af1158015611cc7573d6000803e3d6000fd5b505050506000816003015442611cdd9190613c1b565b6040805180820182528281526001600160a01b038b811660208084018281528f8416600081815260068452879020955186559051600190950180546001600160a01b03191695909416949094179092558351928352908201529192507fd7170f681aaf2414cac5ce9811b90655ed4e8deaa1f57051d5773acdd69fc3fd910160405180910390a1505050505050505050565b83336001600160a01b03821614611d985760405162461bcd60e51b815260040161048890613b67565b84806001600160a01b031663a4e2d6346040518163ffffffff1660e01b815260040160206040518083038186803b158015611dd257600080fd5b505afa158015611de6573d6000803e3d6000fd5b505050506040513d601f19601f82011682018060405250810190611e0a91906137ca565b15611e4b5760405162461bcd60e51b815260206004820152601160248201527010934e881dd85b1b195d081b1bd8dad959607a1b6044820152606401610488565b600154604051630bcd4ebb60e01b81526001600160a01b03878116600483015290911690630bcd4ebb9060240160206040518083038186803b158015611e9057600080fd5b505afa158015611ea4573d6000803e3d6000fd5b505050506040513d601f19601f82011682018060405250810190611ec89190613737565b611f145760405162461bcd60e51b815260206004820152601c60248201527f534d3a206d6f64756c65206973206e6f742072656769737465726564000000006044820152606401610488565b604051636d1c590560e11b81526001600160a01b0387169063da38b20a90611f49908a9089906001908a908a90600401613871565b600060405180830381600087803b158015611f6357600080fd5b505af1158015611f77573d6000803e3d6000fd5b5050505050505050505050565b81336001600160a01b0316816001600160a01b0316638da5cb5b6040518163ffffffff1660e01b815260040160206040518083038186803b158015611fc857600080fd5b505afa158015611fdc573d6000803e3d6000fd5b505050506040513d601f19601f820116820180604052508101906120009190613356565b6001600160a01b0316146120265760405162461bcd60e51b815260040161048890613a50565b826000816001600160a01b031663a4e2d6346040518163ffffffff1660e01b815260040160206040518083038186803b15801561206257600080fd5b505afa158015612076573d6000803e3d6000fd5b505050506040513d601f19601f8201168201806040525081019061209a91906137ca565b90506120a7600282613ca5565b156120c45760405162461bcd60e51b8152600401610488906139e2565b846000816001600160a01b031663a4e2d6346040518163ffffffff1660e01b815260040160206040518083038186803b15801561210057600080fd5b505afa158015612114573d6000803e3d6000fd5b505050506040513d601f19601f8201168201806040525081019061213891906137ca565b90508060021415801561214c575080600314155b6121685760405162461bcd60e51b815260040161048890613b1a565b61217187612d81565b61218d5760405162461bcd60e51b815260040161048890613a7b565b61219787876112b3565b6121db5760405162461bcd60e51b815260206004820152601560248201527429a69d1034b73b30b634b21037b63229b4b3b732b960591b6044820152606401610488565b6001600160a01b0387166000908152600760205260409020600181015460ff166122175760405162461bcd60e51b8152600401610488906139b6565b805460009061222890600190613c47565b9050600082600001828154811061224f57634e487b7160e01b600052603260045260246000fd5b60009182526020822001546001600160a01b031691505b835461227490600190613c47565b81101561231f5783600001818154811061229e57634e487b7160e01b600052603260045260246000fd5b6000918252602090912001546001600160a01b038b81169116141561230d57818460000182815481106122e157634e487b7160e01b600052603260045260246000fd5b600091825260209091200180546001600160a01b0319166001600160a01b039290921691909117905550815b8061231781613c8a565b915050612266565b50825483908061233f57634e487b7160e01b600052603160045260246000fd5b600082815260209020810160001990810180546001600160a01b031916905501905560028301546001600160a01b038b169063a0adf89f906123819042613c1b565b6040516001600160e01b031960e084901b1681526123ab919063111cfaab60e11b9060040161399e565b600060405180830381600087803b1580156123c557600080fd5b505af11580156123d9573d6000803e3d6000fd5b5050604080516001600160a01b03808f1682528d1660208201527f98d1ebbe00ae92a5de96a0f49742a8afa89f42363592bc2e7cfaaed68b45e7a6935001905061185f565b6001600160a01b03808216600090815260066020908152604080832081518083019092528054808352600190910154909416918101919091529091158015906124715750805167ffffffffffffffff4216105b9392505050565b6001600160a01b03811660009081526007602090815260408083208151815460a094810282018501909352608081018381528594919384928491908401828280156124ec57602002820191906000526020600020905b81546001600160a01b031681526001909101906020018083116124ce575b5050509183525050600182015460ff1615156020808301919091526002830154604083015260039092015460609091015281015190915061253f5760405162461bcd60e51b8152600401610488906139b6565b6060015192915050565b80336001600160a01b038216146125725760405162461bcd60e51b815260040161048890613b67565b6001600160a01b03821660009081526007602052604090206001015460ff166125ad5760405162461bcd60e51b8152600401610488906139b6565b6125b682612ffc565b6001600160a01b0382166000908152600760205260408120906125d982826132a8565b5060018101805460ff191690556000600282018190556003909101555050565b81336001600160a01b038216146126225760405162461bcd60e51b815260040161048890613b67565b61262b83612d81565b1561268f5760405162461bcd60e51b815260206004820152602e60248201527f534d3a2073686f756c64206e6f74206164642073616d65206d6f64756c65207460448201526d6f2077616c6c657420747769636560901b6064820152608401610488565b6001600160a01b03831660009081526007602052604090206001015460ff16156127075760405162461bcd60e51b8152602060048201526024808201527f534d3a2077616c6c65742065786973747320696e207369676e6572436f6e66496044820152636e666f7360e01b6064820152608401610488565b61271083613140565b60008280602001905181019061272691906135ed565b6001600160a01b03851660009081526007602052604081209192505b82518110156128b2578160000183828151811061276f57634e487b7160e01b600052603260045260246000fd5b602090810291909101810151825460018101845560009384529282902090920180546001600160a01b0319166001600160a01b0393841617905560408051638da5cb5b60e01b8152905192891692638da5cb5b92600480840193919291829003018186803b1580156127e057600080fd5b505afa1580156127f4573d6000803e3d6000fd5b505050506040513d601f19601f820116820180604052508101906128189190613356565b6001600160a01b031683828151811061284157634e487b7160e01b600052603260045260246000fd5b60200260200101516001600160a01b031614156128a05760405162461bcd60e51b815260206004820152601a60248201527f534d3a207369676e65722063616e6e2774206265206f776e65720000000000006044820152606401610488565b806128aa81613c8a565b915050612742565b506001818101805460ff19169091179055600554600282015560045460038201556040517fa8d2f5a0d7d2b8f16c64d920753528ba37b74315cce0ad809a556564e88ddd589061290590879087906138c3565b60405180910390a15050505050565b6001600160a01b0380821660009081526006602052604090206001015482911633146129955760405162461bcd60e51b815260206004820152602a60248201527f534d3a206f6e6c7920746865206e6577206f776e65722063616e2063616e63656044820152696c207265636f7665727960b01b6064820152608401610488565b61299e8261241e565b6129df5760405162461bcd60e51b8152602060048201526012602482015271534d3a206e6f74207265636f766572696e6760701b6044820152606401610488565b6001600160a01b03821660008181526006602052604080822082815560010180546001600160a01b03191690555163a0adf89f60e01b815263a0adf89f91612a329163111cfaab60e11b9060040161399e565b600060405180830381600087803b158015612a4c57600080fd5b505af1158015612a60573d6000803e3d6000fd5b50506040516001600160a01b03851681527f8154b6c5e1fc90d44b49808ef93f9739148d0821411890f8cd684385e24b9f1e92506020019050610e41565b80336001600160a01b0316816001600160a01b0316638da5cb5b6040518163ffffffff1660e01b815260040160206040518083038186803b158015612ae257600080fd5b505afa158015612af6573d6000803e3d6000fd5b505050506040513d601f19601f82011682018060405250810190612b1a9190613356565b6001600160a01b03161480612b345750612b3481336112b3565b612b505760405162461bcd60e51b815260040161048890613a19565b816000816001600160a01b031663a4e2d6346040518163ffffffff1660e01b815260040160206040518083038186803b158015612b8c57600080fd5b505afa158015612ba0573d6000803e3d6000fd5b505050506040513d601f19601f82011682018060405250810190612bc491906137ca565b9050612bd1600282613ca5565b15612bee5760405162461bcd60e51b8152600401610488906139e2565b6001600160a01b0384166000818152600760205260409020600281015490919063a0adf89f90612c1e9042613c1b565b6040516001600160e01b031960e084901b168152612c48919063f435f5a760e01b9060040161399e565b600060405180830381600087803b158015612c6257600080fd5b505af1158015612c76573d6000803e3d6000fd5b50506040516001600160a01b03881681527f44427e3003a08f22cf803894075ac0297524e09e521fc1c15bc91741ce3dc15992506020019050612905565b6001600160a01b03808216600090815260066020908152604080832081518083019092528054808352600190910154909416918101919091529091421115612d00576000915050610ec3565b8051612471904290613c47565b6000805b8351811015612d7757826001600160a01b0316848281518110612d4457634e487b7160e01b600052603260045260246000fd5b60200260200101516001600160a01b03161415612d65576001915050611367565b80612d6f81613c8a565b915050612d11565b5060009392505050565b6000805b600254811015612df157826001600160a01b031660028281548110612dba57634e487b7160e01b600052603260045260246000fd5b6000918252602090912001546001600160a01b03161415612ddf576001915050610ec3565b80612de981613c8a565b915050612d85565b50600092915050565b80516020808301516040808501516060860151915160009594919291612e3091601960f81b91889188918891889188910161380e565b60405160208183030381529060405280519060200120945050505050919050565b600080600080612e6186866131e8565b6040517f19457468657265756d205369676e6564204d6573736167653a0a3332000000006020820152603c81018b90529295509093509150600190605c0160408051601f198184030181528282528051602091820120600084529083018083525260ff861690820152606081018490526080810183905260a0016020604051602081039080840390855afa158015612efd573d6000803e3d6000fd5b5050604051601f19015198975050505050505050565b8051602082015160408084015160608501516080860151925163b14f6c8360e01b8152919290916001600160a01b0388169063b14f6c8390612f619088908890889087908990600401613916565b600060405180830381600087803b158015612f7b57600080fd5b505af1158015612f8f573d6000803e3d6000fd5b505050506040513d6000823e601f3d908101601f19168201604052612fb79190810190613757565b507f16a95b1f4b59f6a32941b3b48a50be9d4d9f9c4da4cb504681489daabf991928858585604051612feb939291906138ef565b60405180910390a150505050505050565b60025460009061300e90600190613c47565b905060005b818110156130fa57826001600160a01b03166002828154811061304657634e487b7160e01b600052603260045260246000fd5b6000918252602090912001546001600160a01b031614156130e8576002828154811061308257634e487b7160e01b600052603260045260246000fd5b600091825260209091200154600280546001600160a01b0390921691839081106130bc57634e487b7160e01b600052603260045260246000fd5b600091825260209091200180546001600160a01b0319166001600160a01b039290921691909117905550805b806130f281613c8a565b915050613013565b50600280548061311a57634e487b7160e01b600052603160045260246000fd5b600082815260209020810160001990810180546001600160a01b03191690550190555050565b61314981612d81565b156131965760405162461bcd60e51b815260206004820152601d60248201527f424d3a2077616c6c657420616c726561647920726567697374657265640000006044820152606401610488565b600280546001810182556000919091527f405787fa12a823e0f2b7631cc41b3ba8828b3321ca811111fa75cd3aa3bb5ace0180546001600160a01b0319166001600160a01b0392909216919091179055565b6041808202830160208101516040820151919092015160ff169190601b83148061321557508260ff16601c145b6132515760405162461bcd60e51b815260206004820152600d60248201526c29a69d1024b73b30b634b2103b60991b6044820152606401610488565b9250925092565b8280548282559060005260206000209081019282156132985760005260206000209182015b8281111561329857825482559160010191906001019061327d565b506132a49291506132c9565b5090565b50805460008255906000526020600020908101906132c691906132c9565b50565b5b808211156132a457600081556001016132ca565b8035610ec381613cfb565b600082601f8301126132f9578081fd5b813561330c61330782613bf3565b613b9e565b818152846020838601011115613320578283fd5b816020850160208301379081016020019190915292915050565b60006020828403121561334b578081fd5b813561247181613cfb565b600060208284031215613367578081fd5b815161247181613cfb565b60008060408385031215613384578081fd5b823561338f81613cfb565b9150602083013561339f81613cfb565b809150509250929050565b6000806000606084860312156133be578081fd5b83356133c981613cfb565b925060208401356133d981613cfb565b915060408401356133e981613cfb565b809150509250925092565b60008060008060006080868803121561340b578081fd5b853561341681613cfb565b9450602086013561342681613cfb565b9350604086013561343681613cfb565b9250606086013567ffffffffffffffff80821115613452578283fd5b818801915088601f830112613465578283fd5b813581811115613473578384fd5b896020828501011115613484578384fd5b9699959850939650602001949392505050565b600080604083850312156134a9578182fd5b82356134b481613cfb565b9150602083013567ffffffffffffffff8111156134cf578182fd5b6134db858286016132e9565b9150509250929050565b6000806000606084860312156134f9578283fd5b833561350481613cfb565b9250602084013567ffffffffffffffff80821115613520578384fd5b9085019060a08288031215613533578384fd5b61353d60a0613b9e565b823561354881613cfb565b815260208381013590820152604083013582811115613565578586fd5b613571898286016132e9565b60408301525060608301356060820152608083013560808201528094505060408601359150808211156135a2578283fd5b506135af868287016132e9565b9150509250925092565b6000806000606084860312156135cd578081fd5b83356135d881613cfb565b95602085013595506040909401359392505050565b600060208083850312156135ff578182fd5b825167ffffffffffffffff811115613615578283fd5b8301601f81018513613625578283fd5b805161363361330782613bcf565b80828252848201915084840188868560051b8701011115613652578687fd5b8694505b8385101561367d57805161366981613cfb565b835260019490940193918501918501613656565b50979650505050505050565b6000806040838503121561369b578182fd5b823567ffffffffffffffff8111156136b1578283fd5b8301601f810185136136c1578283fd5b803560206136d161330783613bcf565b80838252828201915082850189848660051b88010111156136f0578788fd5b8795505b8486101561371b57803561370781613cfb565b8352600195909501949183019183016136f4565b50955061372b90508682016132de565b93505050509250929050565b600060208284031215613748578081fd5b81518015158114612471578182fd5b600060208284031215613768578081fd5b815167ffffffffffffffff81111561377e578182fd5b8201601f8101841361378e578182fd5b805161379c61330782613bf3565b8181528560208385010111156137b0578384fd5b6137c1826020830160208601613c5e565b95945050505050565b6000602082840312156137db578081fd5b5051919050565b600081518084526137fa816020860160208601613c5e565b601f01601f19169290920160200192915050565b6001600160f81b0319878116825286166001820152606085901b6bffffffffffffffffffffffff19166002820152601681018490528251600090613859816036850160208801613c5e565b60369201918201929092526056019695505050505050565b6001600160a01b03868116825285166020820152831515604082015260806060820181905281018290526000828460a084013781830160a090810191909152601f909201601f19160101949350505050565b6001600160a01b03831681526040602082018190526000906138e7908301846137e2565b949350505050565b600060018060a01b0385168252836020830152606060408301526137c160608301846137e2565b600060018060a01b038716825285602083015260a0604083015261393d60a08301866137e2565b606083019490945250608001529392505050565b6020808252825182820181905260009190848201906040850190845b818110156139925783516001600160a01b03168352928401929184019160010161396d565b50909695505050505050565b9182526001600160e01b031916602082015260400190565b60208082526012908201527114d34e88125b9d985b1a59081dd85b1b195d60721b604082015260600190565b6020808252601a908201527f424d3a2077616c6c6574206c6f636b656420676c6f62616c6c79000000000000604082015260600190565b60208082526019908201527f534d3a206d757374206265207369676e65722f77616c6c657400000000000000604082015260600190565b60208082526011908201527021269d1036bab9ba1031329037bbb732b960791b604082015260600190565b60208082526035908201527f534d3a2077616c6c65742073686f756c642062652072656769737465726564206040820152746265666f726520616464696e67207369676e65727360581b606082015260800190565b6020808252602a908201527f534d3a20696e76616c6964206e65775369676e6572206f7220696e76616c69646040820152691037b63229b4b3b732b960b11b606082015260800190565b6020808252602d908201527f424d3a2077616c6c6574206c6f636b6564206279207369676e65722072656c6160408201526c3a32b21037b832b930ba34b7b760991b606082015260800190565b60208082526019908201527f424d3a2063616c6c6572206d7573742062652077616c6c657400000000000000604082015260600190565b604051601f8201601f1916810167ffffffffffffffff81118282101715613bc757613bc7613ce5565b604052919050565b600067ffffffffffffffff821115613be957613be9613ce5565b5060051b60200190565b600067ffffffffffffffff821115613c0d57613c0d613ce5565b50601f01601f191660200190565b60008219821115613c2e57613c2e613cb9565b500190565b600082613c4257613c42613ccf565b500490565b600082821015613c5957613c59613cb9565b500390565b60005b83811015613c79578181015183820152602001613c61565b838111156112ad5750506000910152565b6000600019821415613c9e57613c9e613cb9565b5060010190565b600082613cb457613cb4613ccf565b500690565b634e487b7160e01b600052601160045260246000fd5b634e487b7160e01b600052601260045260246000fd5b634e487b7160e01b600052604160045260246000fd5b6001600160a01b03811681146132c657600080fdfea264697066735822122043cd869e2507bfdffdae3201d3ae4086e339b6c1f59ba01e8c0987857f3b1eee64736f6c63430008030033",
  "linkReferences": {},
  "deployedLinkReferences": {}
}