{
  "_format": "hh-sol-artifact-1",
  "contractName": "SecurityModule",
  "sourceName": "contracts/SecurityModule.sol",
  "abi": [
    {
      "inputs": [],
      "stateMutability": "nonpayable",
      "type": "constructor"
    },
    {
      "anonymous": false,
      "inputs": [
        {
          "indexed": false,
          "internalType": "address",
          "name": "_wallet",
          "type": "address"
        }
      ],
      "name": "Locked",
      "type": "event"
    },
    {
      "anonymous": false,
      "inputs": [
        {
          "indexed": false,
          "internalType": "address",
          "name": "to",
          "type": "address"
        },
        {
          "indexed": false,
          "internalType": "uint256",
          "name": "value",
          "type": "uint256"
        },
        {
          "indexed": false,
          "internalType": "bytes",
          "name": "data",
          "type": "bytes"
        }
      ],
      "name": "MultiCalled",
      "type": "event"
    },
    {
      "anonymous": false,
      "inputs": [
        {
          "indexed": false,
          "internalType": "address",
          "name": "_wallet",
          "type": "address"
        }
      ],
      "name": "RecoveryCancelled",
      "type": "event"
    },
    {
      "anonymous": false,
      "inputs": [
        {
          "indexed": false,
          "internalType": "address",
          "name": "_wallet",
          "type": "address"
        }
      ],
      "name": "RecoveryExecuted",
      "type": "event"
    },
    {
      "anonymous": false,
      "inputs": [
        {
          "indexed": false,
          "internalType": "address",
          "name": "_wallet",
          "type": "address"
        },
        {
          "indexed": false,
          "internalType": "address",
          "name": "_recovery",
          "type": "address"
        }
      ],
      "name": "RecoveryTriggered",
      "type": "event"
    },
    {
      "anonymous": false,
      "inputs": [
        {
          "indexed": false,
          "internalType": "address",
          "name": "_wallet",
          "type": "address"
        },
        {
          "indexed": false,
          "internalType": "bytes",
          "name": "data",
          "type": "bytes"
        }
      ],
      "name": "SMInited",
      "type": "event"
    },
    {
      "anonymous": false,
      "inputs": [
        {
          "indexed": false,
          "internalType": "address",
          "name": "_wallet",
          "type": "address"
        },
        {
          "indexed": false,
          "internalType": "uint256",
          "name": "_lockedSecurityPeriod",
          "type": "uint256"
        },
        {
          "indexed": false,
          "internalType": "uint256",
          "name": "_recoverySecurityPeriod",
          "type": "uint256"
        }
      ],
      "name": "SMParameterChanged",
      "type": "event"
    },
    {
      "anonymous": false,
      "inputs": [
        {
          "indexed": false,
          "internalType": "address",
          "name": "_wallet",
          "type": "address"
        },
        {
          "indexed": false,
          "internalType": "address",
          "name": "signer",
          "type": "address"
        }
      ],
      "name": "SignerAdded",
      "type": "event"
    },
    {
      "anonymous": false,
      "inputs": [
        {
          "indexed": false,
          "internalType": "address",
          "name": "_wallet",
          "type": "address"
        },
        {
          "indexed": false,
          "internalType": "address",
          "name": "_oldSigner",
          "type": "address"
        }
      ],
      "name": "SignerRemoved",
      "type": "event"
    },
    {
      "anonymous": false,
      "inputs": [
        {
          "indexed": false,
          "internalType": "address",
          "name": "_wallet",
          "type": "address"
        },
        {
          "indexed": false,
          "internalType": "address",
          "name": "_newSigner",
          "type": "address"
        },
        {
          "indexed": false,
          "internalType": "address",
          "name": "_oldSigner",
          "type": "address"
        }
      ],
      "name": "SignerReplaced",
      "type": "event"
    },
    {
      "anonymous": false,
      "inputs": [
        {
          "indexed": false,
          "internalType": "address",
          "name": "_wallet",
          "type": "address"
        }
      ],
      "name": "Unlocked",
      "type": "event"
    },
    {
      "inputs": [
        {
          "internalType": "address",
          "name": "_moduleRegistry",
          "type": "address"
        },
        {
          "internalType": "address",
          "name": "_wallet",
          "type": "address"
        },
        {
          "internalType": "address",
          "name": "_module",
          "type": "address"
        },
        {
          "internalType": "bytes",
          "name": "data",
          "type": "bytes"
        }
      ],
      "name": "addModule",
      "outputs": [],
      "stateMutability": "nonpayable",
      "type": "function"
    },
    {
      "inputs": [
        {
          "internalType": "address",
          "name": "_wallet",
          "type": "address"
        },
        {
          "internalType": "address",
          "name": "signer",
          "type": "address"
        }
      ],
      "name": "addSigner",
      "outputs": [],
      "stateMutability": "nonpayable",
      "type": "function"
    },
    {
      "inputs": [
        {
          "internalType": "address",
          "name": "_wallet",
          "type": "address"
        }
      ],
      "name": "cancelRecovery",
      "outputs": [],
      "stateMutability": "nonpayable",
      "type": "function"
    },
    {
      "inputs": [
        {
          "internalType": "address",
          "name": "_wallet",
          "type": "address"
        }
      ],
      "name": "executeRecovery",
      "outputs": [],
      "stateMutability": "nonpayable",
      "type": "function"
    },
    {
      "inputs": [
        {
          "internalType": "address[]",
          "name": "_signers",
          "type": "address[]"
        },
        {
          "internalType": "address",
          "name": "_signer",
          "type": "address"
        }
      ],
      "name": "findSigner",
      "outputs": [
        {
          "internalType": "bool",
          "name": "",
          "type": "bool"
        }
      ],
      "stateMutability": "pure",
      "type": "function"
    },
    {
      "inputs": [
        {
          "internalType": "address",
          "name": "_wallet",
          "type": "address"
        }
      ],
      "name": "getLockedSecurityPeriod",
      "outputs": [
        {
          "internalType": "uint256",
          "name": "",
          "type": "uint256"
        }
      ],
      "stateMutability": "view",
      "type": "function"
    },
    {
      "inputs": [
        {
          "internalType": "address",
          "name": "_wallet",
          "type": "address"
        }
      ],
      "name": "getRecoveryExpiryTime",
      "outputs": [
        {
          "internalType": "uint256",
          "name": "",
          "type": "uint256"
        }
      ],
      "stateMutability": "view",
      "type": "function"
    },
    {
      "inputs": [
        {
          "internalType": "address",
          "name": "_wallet",
          "type": "address"
        }
      ],
      "name": "getRecoverySecurityPeriod",
      "outputs": [
        {
          "internalType": "uint256",
          "name": "",
          "type": "uint256"
        }
      ],
      "stateMutability": "view",
      "type": "function"
    },
    {
      "inputs": [
        {
          "internalType": "address",
          "name": "_wallet",
          "type": "address"
        }
      ],
      "name": "getSigners",
      "outputs": [
        {
          "internalType": "address[]",
          "name": "",
          "type": "address[]"
        }
      ],
      "stateMutability": "view",
      "type": "function"
    },
    {
      "inputs": [
        {
          "internalType": "address",
          "name": "_wallet",
          "type": "address"
        },
        {
          "internalType": "bytes",
          "name": "data",
          "type": "bytes"
        }
      ],
      "name": "init",
      "outputs": [],
      "stateMutability": "nonpayable",
      "type": "function"
    },
    {
      "inputs": [
        {
          "internalType": "contract IModuleRegistry",
          "name": "_registry",
          "type": "address"
        },
        {
          "internalType": "uint256",
          "name": "_lockedSecurityPeriod",
          "type": "uint256"
        },
        {
          "internalType": "uint256",
          "name": "_recoverySecurityPeriod",
          "type": "uint256"
        }
      ],
      "name": "initialize",
      "outputs": [],
      "stateMutability": "nonpayable",
      "type": "function"
    },
    {
      "inputs": [
        {
          "internalType": "address",
          "name": "_wallet",
          "type": "address"
        }
      ],
      "name": "isInRecovery",
      "outputs": [
        {
          "internalType": "bool",
          "name": "",
          "type": "bool"
        }
      ],
      "stateMutability": "view",
      "type": "function"
    },
    {
      "inputs": [
        {
          "internalType": "address",
          "name": "_wallet",
          "type": "address"
        }
      ],
      "name": "isLocked",
      "outputs": [
        {
          "internalType": "uint256",
          "name": "",
          "type": "uint256"
        }
      ],
      "stateMutability": "view",
      "type": "function"
    },
    {
      "inputs": [
        {
          "internalType": "address",
          "name": "_wallet",
          "type": "address"
        },
        {
          "internalType": "address",
          "name": "_signer",
          "type": "address"
        }
      ],
      "name": "isSigner",
      "outputs": [
        {
          "internalType": "bool",
          "name": "",
          "type": "bool"
        }
      ],
      "stateMutability": "view",
      "type": "function"
    },
    {
      "inputs": [
        {
          "internalType": "address",
          "name": "_wallet",
          "type": "address"
        }
      ],
      "name": "lock",
      "outputs": [],
      "stateMutability": "nonpayable",
      "type": "function"
    },
    {
      "inputs": [],
      "name": "lockedSecurityPeriod",
      "outputs": [
        {
          "internalType": "uint256",
          "name": "",
          "type": "uint256"
        }
      ],
      "stateMutability": "view",
      "type": "function"
    },
    {
      "inputs": [
        {
          "internalType": "address",
          "name": "_wallet",
          "type": "address"
        },
        {
          "components": [
            {
              "internalType": "address",
              "name": "to",
              "type": "address"
            },
            {
              "internalType": "uint256",
              "name": "value",
              "type": "uint256"
            },
            {
              "internalType": "bytes",
              "name": "data",
              "type": "bytes"
            },
            {
              "internalType": "uint256",
              "name": "sequenceId",
              "type": "uint256"
            },
            {
              "internalType": "uint256",
              "name": "expireTime",
              "type": "uint256"
            }
          ],
          "internalType": "struct BaseModule.CallArgs",
          "name": "_args",
          "type": "tuple"
        },
        {
          "internalType": "bytes",
          "name": "_signatures",
          "type": "bytes"
        }
      ],
      "name": "multicall",
      "outputs": [],
      "stateMutability": "nonpayable",
      "type": "function"
    },
    {
      "inputs": [
        {
          "internalType": "address",
          "name": "",
          "type": "address"
        }
      ],
      "name": "recoveries",
      "outputs": [
        {
          "internalType": "uint256",
          "name": "activeAt",
          "type": "uint256"
        },
        {
          "internalType": "address",
          "name": "recovery",
          "type": "address"
        }
      ],
      "stateMutability": "view",
      "type": "function"
    },
    {
      "inputs": [],
      "name": "recoverySecurityPeriod",
      "outputs": [
        {
          "internalType": "uint256",
          "name": "",
          "type": "uint256"
        }
      ],
      "stateMutability": "view",
      "type": "function"
    },
    {
      "inputs": [
        {
          "internalType": "address",
          "name": "_wallet",
          "type": "address"
        }
      ],
      "name": "removeModule",
      "outputs": [],
      "stateMutability": "nonpayable",
      "type": "function"
    },
    {
      "inputs": [
        {
          "internalType": "address",
          "name": "_wallet",
          "type": "address"
        },
        {
          "internalType": "address",
          "name": "_oldSigner",
          "type": "address"
        }
      ],
      "name": "removeSigner",
      "outputs": [],
      "stateMutability": "nonpayable",
      "type": "function"
    },
    {
      "inputs": [
        {
          "internalType": "address",
          "name": "_wallet",
          "type": "address"
        },
        {
          "internalType": "address",
          "name": "_newSigner",
          "type": "address"
        },
        {
          "internalType": "address",
          "name": "_oldSigner",
          "type": "address"
        }
      ],
      "name": "replaceSigner",
      "outputs": [],
      "stateMutability": "nonpayable",
      "type": "function"
    },
    {
      "inputs": [
        {
          "internalType": "address",
          "name": "_wallet",
          "type": "address"
        },
        {
          "internalType": "uint256",
          "name": "_lockedSecurityPeriod",
          "type": "uint256"
        },
        {
          "internalType": "uint256",
          "name": "_recoverySecurityPeriod",
          "type": "uint256"
        }
      ],
      "name": "setSecurityPeriod",
      "outputs": [],
      "stateMutability": "nonpayable",
      "type": "function"
    },
    {
      "inputs": [
        {
          "internalType": "address",
          "name": "",
          "type": "address"
        }
      ],
      "name": "signerConfInfos",
      "outputs": [
        {
          "internalType": "bool",
          "name": "exist",
          "type": "bool"
        },
        {
          "internalType": "uint256",
          "name": "lockedPeriod",
          "type": "uint256"
        },
        {
          "internalType": "uint256",
          "name": "recoveryPeriod",
          "type": "uint256"
        }
      ],
      "stateMutability": "view",
      "type": "function"
    },
    {
      "inputs": [
        {
          "internalType": "address",
          "name": "_wallet",
          "type": "address"
        },
        {
          "internalType": "address",
          "name": "_recovery",
          "type": "address"
        }
      ],
      "name": "triggerRecovery",
      "outputs": [],
      "stateMutability": "nonpayable",
      "type": "function"
    },
    {
      "inputs": [
        {
          "internalType": "address",
          "name": "_wallet",
          "type": "address"
        }
      ],
      "name": "unlock",
      "outputs": [],
      "stateMutability": "nonpayable",
      "type": "function"
    }
  ],
  "bytecode": "0x608060405234801561001057600080fd5b50613c92806100206000396000f3fe608060405234801561001057600080fd5b506004361061018e5760003560e01c806383765b99116100de578063c0d91eaf11610097578063cf0c137211610071578063cf0c137214610393578063f435f5a7146103e0578063f8838225146103f3578063fc1d47b8146104065761018e565b8063c0d91eaf14610364578063c6de2a3f14610377578063c90db447146103805761018e565b806383765b99146102f257806389ff98e4146103055780638d20efa7146103185780638f29d5301461032b5780639de9e4001461033e578063a0632461146103515761018e565b806353a2a3f81161014b57806378b248e41161012557806378b248e4146102895780637a1ac61e146102ac5780637b551f0d146102bf5780637e3ba6af146102d25761018e565b806353a2a3f81461021057806368f3073f146102635780636fa30cd4146102765761018e565b80630fb436eb1461019357806313f71305146101af5780632239f556146101c45780632f6c493c146101d75780633bc2c4a7146101ea5780634a4fbeec146101fd575b600080fd5b61019c60035481565b6040519081526020015b60405180910390f35b6101c26101bd366004613505565b610419565b005b6101c26101d23660046132be565b610620565b6101c26101e5366004613286565b610a2d565b6101c26101f8366004613286565b610c65565b61019c61020b366004613286565b610e07565b61024661021e366004613286565b60066020526000908152604090206001810154600282015460039092015460ff909116919083565b6040805193151584526020840192909252908201526060016101a6565b61019c610271366004613286565b610e82565b6101c2610284366004613431565b610f53565b61029c6102973660046132be565b61126d565b60405190151581526020016101a6565b6101c26102ba366004613505565b611327565b6101c26102cd3660046132f6565b611407565b6102e56102e0366004613286565b61182d565b6040516101a6919061389d565b6101c26103003660046132be565b6118a3565b6101c2610313366004613340565b611d29565b6101c26103263660046132be565b611f3e565b61029c610339366004613286565b6123d8565b61019c61034c366004613286565b612432565b6101c261035f366004613286565b612503565b6101c26103723660046133e3565b6125b3565b61019c60045481565b6101c261038e366004613286565b6128ce565b6103c36103a1366004613286565b600560205260009081526040902080546001909101546001600160a01b031682565b604080519283526001600160a01b039091166020830152016101a6565b6101c26103ee366004613286565b612a00565b61019c610401366004613286565b612c16565b61029c6104143660046135d5565b612c5c565b82336001600160a01b0382161461044b5760405162461bcd60e51b815260040161044290613ab3565b60405180910390fd5b83806001600160a01b031663a4e2d6346040518163ffffffff1660e01b815260040160206040518083038186803b15801561048557600080fd5b505afa158015610499573d6000803e3d6000fd5b505050506040513d601f19601f820116820180604052508101906104bd9190613716565b156104fe5760405162461bcd60e51b815260206004820152601160248201527010934e881dd85b1b195d081b1bd8dad959607a1b6044820152606401610442565b6001600160a01b0385166000908152600660205260409020600181015460ff1661053a5760405162461bcd60e51b815260040161044290613902565b848160020154141580610551575083816003015414155b6105a85760405162461bcd60e51b815260206004820152602260248201527f534d3a4d757374206368616e6765206174206c65617374206f6e6520706572696044820152611bd960f21b6064820152608401610442565b848160020154146105bb57600281018590555b838160030154146105ce57600381018490555b604080516001600160a01b0388168152602081018790529081018590527fd93dd93d4d43d8f00148e4cb11174f8092cbda4e73ebe3a309b5ca984611e2529060600160405180910390a1505050505050565b81336001600160a01b0316816001600160a01b0316638da5cb5b6040518163ffffffff1660e01b815260040160206040518083038186803b15801561066457600080fd5b505afa158015610678573d6000803e3d6000fd5b505050506040513d601f19601f8201168201806040525081019061069c91906132a2565b6001600160a01b0316146106c25760405162461bcd60e51b81526004016104429061399c565b826000816001600160a01b031663a4e2d6346040518163ffffffff1660e01b815260040160206040518083038186803b1580156106fe57600080fd5b505afa158015610712573d6000803e3d6000fd5b505050506040513d601f19601f820116820180604052508101906107369190613716565b9050610743600282613bf1565b156107605760405162461bcd60e51b81526004016104429061392e565b846000816001600160a01b031663a4e2d6346040518163ffffffff1660e01b815260040160206040518083038186803b15801561079c57600080fd5b505afa1580156107b0573d6000803e3d6000fd5b505050506040513d601f19601f820116820180604052508101906107d49190613716565b9050806002141580156107e8575080600314155b6108045760405162461bcd60e51b815260040161044290613a66565b61080d87612cd0565b6108295760405162461bcd60e51b8152600401610442906139c7565b6001600160a01b038616158015906108485750610846878761126d565b155b6108645760405162461bcd60e51b815260040161044290613a1c565b6001600160a01b0387166000908152600660205260409020600181015460ff166108de5760405162461bcd60e51b815260206004820152602560248201527f534d3a2077616c6c6574207369676e657220696e666f206e6f7420636f6e73696044820152641cdd195b9d60da1b6064820152608401610442565b80546001810182556000828152602080822090920180546001600160a01b0319166001600160a01b038b8116919091179091558a168152600690915260409020815482919061093090829084906131a4565b50600182810154908201805460ff191660ff90921615159190911790556002808301548183015560039283015492909101919091558101546001600160a01b0389169063a0adf89f906109839042613b67565b6040516001600160e01b031960e084901b1681526109ad919063111cfaab60e11b906004016138ea565b600060405180830381600087803b1580156109c757600080fd5b505af11580156109db573d6000803e3d6000fd5b5050604080516001600160a01b03808d1682528b1660208201527f12146497b3b826918ec47f0cac7272a09ed06b30c16c030e99ec48ff5dd60b47935001905060405180910390a15050505050505050565b80336001600160a01b0316816001600160a01b0316638da5cb5b6040518163ffffffff1660e01b815260040160206040518083038186803b158015610a7157600080fd5b505afa158015610a85573d6000803e3d6000fd5b505050506040513d601f19601f82011682018060405250810190610aa991906132a2565b6001600160a01b03161480610ac35750610ac3813361126d565b610adf5760405162461bcd60e51b815260040161044290613965565b816000816001600160a01b031663a4e2d6346040518163ffffffff1660e01b815260040160206040518083038186803b158015610b1b57600080fd5b505afa158015610b2f573d6000803e3d6000fd5b505050506040513d601f19601f82011682018060405250810190610b539190613716565b9050610b60600282613bf1565b600114610bba5760405162461bcd60e51b815260206004820152602260248201527f424d3a2077616c6c6574206d75737420626520676c6f62616c6c79206c6f636b604482015261195960f21b6064820152608401610442565b60405163a0adf89f60e01b81526001600160a01b0385169063a0adf89f90610bf09060009063f435f5a760e01b906004016138ea565b600060405180830381600087803b158015610c0a57600080fd5b505af1158015610c1e573d6000803e3d6000fd5b50506040516001600160a01b03871681527f7e6adfec7e3f286831a0200a754127c171a2da564078722cb97704741bbdb0ea9250602001905060405180910390a150505050565b610c6e816123d8565b610cba5760405162461bcd60e51b815260206004820152601b60248201527f534d3a204e6f2076616c6964207265636f7665727920666f756e6400000000006044820152606401610442565b6001600160a01b038181166000818152600560209081526040918290208251808401845281548152600190910154909416908401819052905163a39a45b760e01b8152600481019190915263a39a45b790602401600060405180830381600087803b158015610d2857600080fd5b505af1158015610d3c573d6000803e3d6000fd5b505050506001600160a01b03821660008181526005602052604080822082815560010180546001600160a01b03191690555163a0adf89f60e01b815263a0adf89f91610d939163111cfaab60e11b906004016138ea565b600060405180830381600087803b158015610dad57600080fd5b505af1158015610dc1573d6000803e3d6000fd5b50506040516001600160a01b03851681527ffcd2de31341801b7fd80895c780aae50c1505fd674ff1b9b9764c56c633434d6925060200190505b60405180910390a15050565b6000816001600160a01b031663a4e2d6346040518163ffffffff1660e01b815260040160206040518083038186803b158015610e4257600080fd5b505afa158015610e56573d6000803e3d6000fd5b505050506040513d601f19601f82011682018060405250810190610e7a9190613716565b90505b919050565b6001600160a01b03811660009081526006602090815260408083208151815460a09481028201850190935260808101838152859491938492849190840182828015610ef657602002820191906000526020600020905b81546001600160a01b03168152600190910190602001808311610ed8575b5050509183525050600182015460ff16151560208083019190915260028301546040830152600390920154606090910152810151909150610f495760405162461bcd60e51b815260040161044290613902565b6040015192915050565b82336001600160a01b0316816001600160a01b0316638da5cb5b6040518163ffffffff1660e01b815260040160206040518083038186803b158015610f9757600080fd5b505afa158015610fab573d6000803e3d6000fd5b505050506040513d601f19601f82011682018060405250810190610fcf91906132a2565b6001600160a01b03161480610fe95750610fe9813361126d565b6110055760405162461bcd60e51b815260040161044290613965565b6001600160a01b0384166000908152600660205260409020600181015460ff166110665760405162461bcd60e51b815260206004820152601260248201527114d34e881a5b9d985b1a59081dd85b1b195d60721b6044820152606401610442565b8054600090600290611079906001613b67565b6110839190613b7f565b90506000604185516110959190613b7f565b9050818110156110e75760405162461bcd60e51b815260206004820152601960248201527f534d3a204e6f7420656e6f756768207369676e617475726573000000000000006044820152606401610442565b60006110f287612d49565b905060008060005b8481101561121e57600061110f858b84612da0565b9050826001600160a01b0316816001600160a01b0316116111725760405162461bcd60e51b815260206004820152601c60248201527f534d3a204261646c79206f726465726564207369676e617475726573000000006044820152606401610442565b8092506111db886000018054806020026020016040519081016040528092919081815260200182805480156111d057602002820191906000526020600020905b81546001600160a01b031681526001909101906020018083116111b2575b505050505082612c5c565b1561120b576111eb600185613b67565b935086841061120b576111fe8c8c612e62565b5050505050505050611267565b508061121681613bd6565b9150506110fa565b5060405162461bcd60e51b815260206004820152601f60248201527f534d3a204e6f7420656e6f7567682076616c6964207369676e617475726573006044820152606401610442565b50505050565b6001600160a01b03821660009081526006602090815260408083208151815460a094810282018501909352608081018381528594919384928491908401828280156112e157602002820191906000526020600020905b81546001600160a01b031681526001909101906020018083116112c3575b5050509183525050600182015460ff161515602082015260028201546040820152600390910154606090910152805190915061131d9084612c5c565b9150505b92915050565b600254610100900460ff166113425760025460ff1615611346565b303b155b6113a95760405162461bcd60e51b815260206004820152602e60248201527f496e697469616c697a61626c653a20636f6e747261637420697320616c72656160448201526d191e481a5b9a5d1a585b1a5e995960921b6064820152608401610442565b600254610100900460ff161580156113cb576002805461ffff19166101011790555b600080546001600160a01b0319166001600160a01b038616179055600483905560038290558015611267576002805461ff001916905550505050565b82336001600160a01b0316816001600160a01b0316638da5cb5b6040518163ffffffff1660e01b815260040160206040518083038186803b15801561144b57600080fd5b505afa15801561145f573d6000803e3d6000fd5b505050506040513d601f19601f8201168201806040525081019061148391906132a2565b6001600160a01b0316146114a95760405162461bcd60e51b81526004016104429061399c565b836000816001600160a01b031663a4e2d6346040518163ffffffff1660e01b815260040160206040518083038186803b1580156114e557600080fd5b505afa1580156114f9573d6000803e3d6000fd5b505050506040513d601f19601f8201168201806040525081019061151d9190613716565b905061152a600282613bf1565b156115475760405162461bcd60e51b81526004016104429061392e565b856000816001600160a01b031663a4e2d6346040518163ffffffff1660e01b815260040160206040518083038186803b15801561158357600080fd5b505afa158015611597573d6000803e3d6000fd5b505050506040513d601f19601f820116820180604052508101906115bb9190613716565b9050806002141580156115cf575080600314155b6115eb5760405162461bcd60e51b815260040161044290613a66565b6115f488612cd0565b6116105760405162461bcd60e51b8152600401610442906139c7565b6001600160a01b0387161580159061162d575061162d888761126d565b6116495760405162461bcd60e51b815260040161044290613a1c565b6001600160a01b0388166000908152600660205260409020600181015460ff166116855760405162461bcd60e51b815260040161044290613902565b805460009061169690600190613b93565b905060005b82546116a990600190613b93565b811015611754578260000181815481106116d357634e487b7160e01b600052603260045260246000fd5b6000918252602090912001546001600160a01b038a811691161415611742578983600001828154811061171657634e487b7160e01b600052603260045260246000fd5b600091825260209091200180546001600160a01b0319166001600160a01b039290921691909117905550805b8061174c81613bd6565b91505061169b565b50896001600160a01b031663a0adf89f8360020154426117749190613b67565b6040516001600160e01b031960e084901b16815261179e919063111cfaab60e11b906004016138ea565b600060405180830381600087803b1580156117b857600080fd5b505af11580156117cc573d6000803e3d6000fd5b5050604080516001600160a01b03808f168252808e1660208301528c16918101919091527f37852b11621736fac970fe97a5b848e91df7ca7dcf4f4804dcb59fb192104d2d925060600190505b60405180910390a150505050505050505050565b6001600160a01b03811660009081526006602090815260409182902080548351818402810184019094528084526060939283018282801561189757602002820191906000526020600020905b81546001600160a01b03168152600190910190602001808311611879575b50505050509050919050565b81336001600160a01b038216146118cc5760405162461bcd60e51b815260040161044290613ab3565b826000816001600160a01b031663a4e2d6346040518163ffffffff1660e01b815260040160206040518083038186803b15801561190857600080fd5b505afa15801561191c573d6000803e3d6000fd5b505050506040513d601f19601f820116820180604052508101906119409190613716565b905061194d600282613bf1565b1561196a5760405162461bcd60e51b81526004016104429061392e565b846000816001600160a01b031663a4e2d6346040518163ffffffff1660e01b815260040160206040518083038186803b1580156119a657600080fd5b505afa1580156119ba573d6000803e3d6000fd5b505050506040513d601f19601f820116820180604052508101906119de9190613716565b9050806002141580156119f2575080600314155b611a0e5760405162461bcd60e51b815260040161044290613a66565b6001600160a01b038616611a5d5760405162461bcd60e51b815260206004820152601660248201527529a69d1024b73b30b634b2103732bb9039b4b3b732b960511b6044820152606401610442565b866001600160a01b0316638da5cb5b6040518163ffffffff1660e01b815260040160206040518083038186803b158015611a9657600080fd5b505afa158015611aaa573d6000803e3d6000fd5b505050506040513d601f19601f82011682018060405250810190611ace91906132a2565b6001600160a01b0316866001600160a01b03161415611b3b5760405162461bcd60e51b8152602060048201526024808201527f534d3a206f776e65722063616e206e6f7420747269676765722061207265636f6044820152637665727960e01b6064820152608401610442565b611b45878761126d565b15611ba35760405162461bcd60e51b815260206004820152602860248201527f534d3a206e65774f776e65722063616e277420626520616e206578697374696e604482015267339039b4b3b732b960c11b6064820152608401610442565b611bac876123d8565b15611bf95760405162461bcd60e51b815260206004820152601c60248201527f534d3a2073686f756c64206e6f742074726967676572207477696365000000006044820152606401610442565b6001600160a01b0387166000818152600660205260409020600281015490919063a0adf89f90611c299042613b67565b6040516001600160e01b031960e084901b168152611c53919063111cfaab60e11b906004016138ea565b600060405180830381600087803b158015611c6d57600080fd5b505af1158015611c81573d6000803e3d6000fd5b505050506000816003015442611c979190613b67565b6040805180820182528281526001600160a01b038b811660208084018281528f8416600081815260058452879020955186559051600190950180546001600160a01b03191695909416949094179092558351928352908201529192507fd7170f681aaf2414cac5ce9811b90655ed4e8deaa1f57051d5773acdd69fc3fd910160405180910390a1505050505050505050565b83336001600160a01b03821614611d525760405162461bcd60e51b815260040161044290613ab3565b84806001600160a01b031663a4e2d6346040518163ffffffff1660e01b815260040160206040518083038186803b158015611d8c57600080fd5b505afa158015611da0573d6000803e3d6000fd5b505050506040513d601f19601f82011682018060405250810190611dc49190613716565b15611e055760405162461bcd60e51b815260206004820152601160248201527010934e881dd85b1b195d081b1bd8dad959607a1b6044820152606401610442565b600054604051630bcd4ebb60e01b81526001600160a01b03878116600483015290911690630bcd4ebb9060240160206040518083038186803b158015611e4a57600080fd5b505afa158015611e5e573d6000803e3d6000fd5b505050506040513d601f19601f82011682018060405250810190611e829190613683565b611ece5760405162461bcd60e51b815260206004820152601c60248201527f534d3a206d6f64756c65206973206e6f742072656769737465726564000000006044820152606401610442565b604051636d1c590560e11b81526001600160a01b0387169063da38b20a90611f03908a9089906001908a908a906004016137bd565b600060405180830381600087803b158015611f1d57600080fd5b505af1158015611f31573d6000803e3d6000fd5b5050505050505050505050565b81336001600160a01b0316816001600160a01b0316638da5cb5b6040518163ffffffff1660e01b815260040160206040518083038186803b158015611f8257600080fd5b505afa158015611f96573d6000803e3d6000fd5b505050506040513d601f19601f82011682018060405250810190611fba91906132a2565b6001600160a01b031614611fe05760405162461bcd60e51b81526004016104429061399c565b826000816001600160a01b031663a4e2d6346040518163ffffffff1660e01b815260040160206040518083038186803b15801561201c57600080fd5b505afa158015612030573d6000803e3d6000fd5b505050506040513d601f19601f820116820180604052508101906120549190613716565b9050612061600282613bf1565b1561207e5760405162461bcd60e51b81526004016104429061392e565b846000816001600160a01b031663a4e2d6346040518163ffffffff1660e01b815260040160206040518083038186803b1580156120ba57600080fd5b505afa1580156120ce573d6000803e3d6000fd5b505050506040513d601f19601f820116820180604052508101906120f29190613716565b905080600214158015612106575080600314155b6121225760405162461bcd60e51b815260040161044290613a66565b61212b87612cd0565b6121475760405162461bcd60e51b8152600401610442906139c7565b612151878761126d565b6121955760405162461bcd60e51b815260206004820152601560248201527429a69d1034b73b30b634b21037b63229b4b3b732b960591b6044820152606401610442565b6001600160a01b0387166000908152600660205260409020600181015460ff166121d15760405162461bcd60e51b815260040161044290613902565b80546000906121e290600190613b93565b9050600082600001828154811061220957634e487b7160e01b600052603260045260246000fd5b60009182526020822001546001600160a01b031691505b835461222e90600190613b93565b8110156122d95783600001818154811061225857634e487b7160e01b600052603260045260246000fd5b6000918252602090912001546001600160a01b038b8116911614156122c7578184600001828154811061229b57634e487b7160e01b600052603260045260246000fd5b600091825260209091200180546001600160a01b0319166001600160a01b039290921691909117905550815b806122d181613bd6565b915050612220565b5082548390806122f957634e487b7160e01b600052603160045260246000fd5b600082815260209020810160001990810180546001600160a01b031916905501905560028301546001600160a01b038b169063a0adf89f9061233b9042613b67565b6040516001600160e01b031960e084901b168152612365919063111cfaab60e11b906004016138ea565b600060405180830381600087803b15801561237f57600080fd5b505af1158015612393573d6000803e3d6000fd5b5050604080516001600160a01b03808f1682528d1660208201527f98d1ebbe00ae92a5de96a0f49742a8afa89f42363592bc2e7cfaaed68b45e7a69350019050611819565b6001600160a01b038082166000908152600560209081526040808320815180830190925280548083526001909101549094169181019190915290911580159061242b5750805167ffffffffffffffff4216105b9392505050565b6001600160a01b03811660009081526006602090815260408083208151815460a094810282018501909352608081018381528594919384928491908401828280156124a657602002820191906000526020600020905b81546001600160a01b03168152600190910190602001808311612488575b5050509183525050600182015460ff161515602080830191909152600283015460408301526003909201546060909101528101519091506124f95760405162461bcd60e51b815260040161044290613902565b6060015192915050565b80336001600160a01b0382161461252c5760405162461bcd60e51b815260040161044290613ab3565b6001600160a01b03821660009081526006602052604090206001015460ff166125675760405162461bcd60e51b815260040161044290613902565b61257082612f4b565b6001600160a01b03821660009081526006602052604081209061259382826131f4565b5060018101805460ff191690556000600282018190556003909101555050565b81336001600160a01b038216146125dc5760405162461bcd60e51b815260040161044290613ab3565b6125e583612cd0565b156126495760405162461bcd60e51b815260206004820152602e60248201527f534d3a2073686f756c64206e6f74206164642073616d65206d6f64756c65207460448201526d6f2077616c6c657420747769636560901b6064820152608401610442565b6001600160a01b03831660009081526006602052604090206001015460ff16156126c15760405162461bcd60e51b8152602060048201526024808201527f534d3a2077616c6c65742065786973747320696e207369676e6572436f6e66496044820152636e666f7360e01b6064820152608401610442565b6126ca8361308d565b6000828060200190518101906126e09190613539565b6001600160a01b03851660009081526006602052604081209192505b825181101561286c578160000183828151811061272957634e487b7160e01b600052603260045260246000fd5b602090810291909101810151825460018101845560009384529282902090920180546001600160a01b0319166001600160a01b0393841617905560408051638da5cb5b60e01b8152905192891692638da5cb5b92600480840193919291829003018186803b15801561279a57600080fd5b505afa1580156127ae573d6000803e3d6000fd5b505050506040513d601f19601f820116820180604052508101906127d291906132a2565b6001600160a01b03168382815181106127fb57634e487b7160e01b600052603260045260246000fd5b60200260200101516001600160a01b0316141561285a5760405162461bcd60e51b815260206004820152601a60248201527f534d3a207369676e65722063616e6e2774206265206f776e65720000000000006044820152606401610442565b8061286481613bd6565b9150506126fc565b506001818101805460ff19169091179055600454600282015560038054908201556040517fa8d2f5a0d7d2b8f16c64d920753528ba37b74315cce0ad809a556564e88ddd58906128bf908790879061380f565b60405180910390a15050505050565b80336001600160a01b038216146128f75760405162461bcd60e51b815260040161044290613ab3565b612900826123d8565b6129415760405162461bcd60e51b8152602060048201526012602482015271534d3a206e6f74207265636f766572696e6760701b6044820152606401610442565b6001600160a01b03821660008181526005602052604080822082815560010180546001600160a01b03191690555163a0adf89f60e01b815263a0adf89f916129949163111cfaab60e11b906004016138ea565b600060405180830381600087803b1580156129ae57600080fd5b505af11580156129c2573d6000803e3d6000fd5b50506040516001600160a01b03851681527f8154b6c5e1fc90d44b49808ef93f9739148d0821411890f8cd684385e24b9f1e92506020019050610dfb565b80336001600160a01b0316816001600160a01b0316638da5cb5b6040518163ffffffff1660e01b815260040160206040518083038186803b158015612a4457600080fd5b505afa158015612a58573d6000803e3d6000fd5b505050506040513d601f19601f82011682018060405250810190612a7c91906132a2565b6001600160a01b03161480612a965750612a96813361126d565b612ab25760405162461bcd60e51b815260040161044290613965565b816000816001600160a01b031663a4e2d6346040518163ffffffff1660e01b815260040160206040518083038186803b158015612aee57600080fd5b505afa158015612b02573d6000803e3d6000fd5b505050506040513d601f19601f82011682018060405250810190612b269190613716565b9050612b33600282613bf1565b15612b505760405162461bcd60e51b81526004016104429061392e565b6001600160a01b0384166000818152600660205260409020600281015490919063a0adf89f90612b809042613b67565b6040516001600160e01b031960e084901b168152612baa919063f435f5a760e01b906004016138ea565b600060405180830381600087803b158015612bc457600080fd5b505af1158015612bd8573d6000803e3d6000fd5b50506040516001600160a01b03881681527f44427e3003a08f22cf803894075ac0297524e09e521fc1c15bc91741ce3dc159925060200190506128bf565b6001600160a01b0380821660009081526005602090815260408083208151808301909252805480835260019091015490941691810191909152909161242b904290613b93565b6000805b8351811015612cc657826001600160a01b0316848281518110612c9357634e487b7160e01b600052603260045260246000fd5b60200260200101516001600160a01b03161415612cb4576001915050611321565b80612cbe81613bd6565b915050612c60565b5060009392505050565b6000805b600154811015612d4057826001600160a01b031660018281548110612d0957634e487b7160e01b600052603260045260246000fd5b6000918252602090912001546001600160a01b03161415612d2e576001915050610e7d565b80612d3881613bd6565b915050612cd4565b50600092915050565b80516020808301516040808501516060860151915160009594919291612d7f91601960f81b91889188918891889188910161375a565b60405160208183030381529060405280519060200120945050505050919050565b600080600080612db08686613134565b6040517f19457468657265756d205369676e6564204d6573736167653a0a3332000000006020820152603c81018b90529295509093509150600190605c0160408051601f198184030181528282528051602091820120600084529083018083525260ff861690820152606081018490526080810183905260a0016020604051602081039080840390855afa158015612e4c573d6000803e3d6000fd5b5050604051601f19015198975050505050505050565b8051602082015160408084015160608501516080860151925163b14f6c8360e01b8152919290916001600160a01b0388169063b14f6c8390612eb09088908890889087908990600401613862565b600060405180830381600087803b158015612eca57600080fd5b505af1158015612ede573d6000803e3d6000fd5b505050506040513d6000823e601f3d908101601f19168201604052612f0691908101906136a3565b507f16a95b1f4b59f6a32941b3b48a50be9d4d9f9c4da4cb504681489daabf991928858585604051612f3a9392919061383b565b60405180910390a150505050505050565b60018054600091612f5b91613b93565b905060005b8181101561304757826001600160a01b031660018281548110612f9357634e487b7160e01b600052603260045260246000fd5b6000918252602090912001546001600160a01b031614156130355760018281548110612fcf57634e487b7160e01b600052603260045260246000fd5b600091825260209091200154600180546001600160a01b03909216918390811061300957634e487b7160e01b600052603260045260246000fd5b600091825260209091200180546001600160a01b0319166001600160a01b039290921691909117905550805b8061303f81613bd6565b915050612f60565b50600180548061306757634e487b7160e01b600052603160045260246000fd5b600082815260209020810160001990810180546001600160a01b03191690550190555050565b61309681612cd0565b156130e35760405162461bcd60e51b815260206004820152601d60248201527f424d3a2077616c6c657420616c726561647920726567697374657265640000006044820152606401610442565b6001805480820182556000919091527fb10e2d527612073b26eecdfd717e6a320cf44b4afac2b0732d9fcbe2b7fa0cf60180546001600160a01b0319166001600160a01b0392909216919091179055565b6041808202830160208101516040820151919092015160ff169190601b83148061316157508260ff16601c145b61319d5760405162461bcd60e51b815260206004820152600d60248201526c29a69d1024b73b30b634b2103b60991b6044820152606401610442565b9250925092565b8280548282559060005260206000209081019282156131e45760005260206000209182015b828111156131e45782548255916001019190600101906131c9565b506131f0929150613215565b5090565b50805460008255906000526020600020908101906132129190613215565b50565b5b808211156131f05760008155600101613216565b8035610e7d81613c47565b600082601f830112613245578081fd5b813561325861325382613b3f565b613aea565b81815284602083860101111561326c578283fd5b816020850160208301379081016020019190915292915050565b600060208284031215613297578081fd5b813561242b81613c47565b6000602082840312156132b3578081fd5b815161242b81613c47565b600080604083850312156132d0578081fd5b82356132db81613c47565b915060208301356132eb81613c47565b809150509250929050565b60008060006060848603121561330a578081fd5b833561331581613c47565b9250602084013561332581613c47565b9150604084013561333581613c47565b809150509250925092565b600080600080600060808688031215613357578081fd5b853561336281613c47565b9450602086013561337281613c47565b9350604086013561338281613c47565b9250606086013567ffffffffffffffff8082111561339e578283fd5b818801915088601f8301126133b1578283fd5b8135818111156133bf578384fd5b8960208285010111156133d0578384fd5b9699959850939650602001949392505050565b600080604083850312156133f5578182fd5b823561340081613c47565b9150602083013567ffffffffffffffff81111561341b578182fd5b61342785828601613235565b9150509250929050565b600080600060608486031215613445578283fd5b833561345081613c47565b9250602084013567ffffffffffffffff8082111561346c578384fd5b9085019060a0828803121561347f578384fd5b61348960a0613aea565b823561349481613c47565b8152602083810135908201526040830135828111156134b1578586fd5b6134bd89828601613235565b60408301525060608301356060820152608083013560808201528094505060408601359150808211156134ee578283fd5b506134fb86828701613235565b9150509250925092565b600080600060608486031215613519578081fd5b833561352481613c47565b95602085013595506040909401359392505050565b6000602080838503121561354b578182fd5b825167ffffffffffffffff811115613561578283fd5b8301601f81018513613571578283fd5b805161357f61325382613b1b565b80828252848201915084840188868560051b870101111561359e578687fd5b8694505b838510156135c95780516135b581613c47565b8352600194909401939185019185016135a2565b50979650505050505050565b600080604083850312156135e7578182fd5b823567ffffffffffffffff8111156135fd578283fd5b8301601f8101851361360d578283fd5b8035602061361d61325383613b1b565b80838252828201915082850189848660051b880101111561363c578788fd5b8795505b8486101561366757803561365381613c47565b835260019590950194918301918301613640565b509550613677905086820161322a565b93505050509250929050565b600060208284031215613694578081fd5b8151801515811461242b578182fd5b6000602082840312156136b4578081fd5b815167ffffffffffffffff8111156136ca578182fd5b8201601f810184136136da578182fd5b80516136e861325382613b3f565b8181528560208385010111156136fc578384fd5b61370d826020830160208601613baa565b95945050505050565b600060208284031215613727578081fd5b5051919050565b60008151808452613746816020860160208601613baa565b601f01601f19169290920160200192915050565b6001600160f81b0319878116825286166001820152606085901b6bffffffffffffffffffffffff191660028201526016810184905282516000906137a5816036850160208801613baa565b60369201918201929092526056019695505050505050565b6001600160a01b03868116825285166020820152831515604082015260806060820181905281018290526000828460a084013781830160a090810191909152601f909201601f19160101949350505050565b6001600160a01b03831681526040602082018190526000906138339083018461372e565b949350505050565b600060018060a01b03851682528360208301526060604083015261370d606083018461372e565b600060018060a01b038716825285602083015260a0604083015261388960a083018661372e565b606083019490945250608001529392505050565b6020808252825182820181905260009190848201906040850190845b818110156138de5783516001600160a01b0316835292840192918401916001016138b9565b50909695505050505050565b9182526001600160e01b031916602082015260400190565b60208082526012908201527114d34e88125b9d985b1a59081dd85b1b195d60721b604082015260600190565b6020808252601a908201527f424d3a2077616c6c6574206c6f636b656420676c6f62616c6c79000000000000604082015260600190565b60208082526019908201527f534d3a206d757374206265207369676e65722f77616c6c657400000000000000604082015260600190565b60208082526011908201527021269d1036bab9ba1031329037bbb732b960791b604082015260600190565b60208082526035908201527f534d3a2077616c6c65742073686f756c642062652072656769737465726564206040820152746265666f726520616464696e67207369676e65727360581b606082015260800190565b6020808252602a908201527f534d3a20696e76616c6964206e65775369676e6572206f7220696e76616c69646040820152691037b63229b4b3b732b960b11b606082015260800190565b6020808252602d908201527f424d3a2077616c6c6574206c6f636b6564206279207369676e65722072656c6160408201526c3a32b21037b832b930ba34b7b760991b606082015260800190565b60208082526019908201527f424d3a2063616c6c6572206d7573742062652077616c6c657400000000000000604082015260600190565b604051601f8201601f1916810167ffffffffffffffff81118282101715613b1357613b13613c31565b604052919050565b600067ffffffffffffffff821115613b3557613b35613c31565b5060051b60200190565b600067ffffffffffffffff821115613b5957613b59613c31565b50601f01601f191660200190565b60008219821115613b7a57613b7a613c05565b500190565b600082613b8e57613b8e613c1b565b500490565b600082821015613ba557613ba5613c05565b500390565b60005b83811015613bc5578181015183820152602001613bad565b838111156112675750506000910152565b6000600019821415613bea57613bea613c05565b5060010190565b600082613c0057613c00613c1b565b500690565b634e487b7160e01b600052601160045260246000fd5b634e487b7160e01b600052601260045260246000fd5b634e487b7160e01b600052604160045260246000fd5b6001600160a01b038116811461321257600080fdfea264697066735822122059e5e7caf31adca40148ef148c6783e3dd1f5b5aaba1926ccb22d638325ce52b64736f6c63430008030033",
  "linkReferences": {},
  "deployedLinkReferences": {}
}