{
  "_format": "hh-sol-artifact-1",
  "contractName": "SecurityModule",
  "sourceName": "contracts/SecurityModule.sol",
  "abi": [
    {
      "inputs": [],
      "stateMutability": "nonpayable",
      "type": "constructor"
    },
    {
      "anonymous": false,
      "inputs": [
        {
          "indexed": false,
          "internalType": "address",
          "name": "_wallet",
          "type": "address"
        }
      ],
      "name": "Locked",
      "type": "event"
    },
    {
      "anonymous": false,
      "inputs": [
        {
          "indexed": false,
          "internalType": "address",
          "name": "to",
          "type": "address"
        },
        {
          "indexed": false,
          "internalType": "uint256",
          "name": "value",
          "type": "uint256"
        },
        {
          "indexed": false,
          "internalType": "bytes",
          "name": "data",
          "type": "bytes"
        }
      ],
      "name": "MultiCalled",
      "type": "event"
    },
    {
      "anonymous": false,
      "inputs": [
        {
          "indexed": false,
          "internalType": "address",
          "name": "_wallet",
          "type": "address"
        }
      ],
      "name": "RecoveryCancelled",
      "type": "event"
    },
    {
      "anonymous": false,
      "inputs": [
        {
          "indexed": false,
          "internalType": "address",
          "name": "_wallet",
          "type": "address"
        }
      ],
      "name": "RecoveryExecuted",
      "type": "event"
    },
    {
      "anonymous": false,
      "inputs": [
        {
          "indexed": false,
          "internalType": "address",
          "name": "_wallet",
          "type": "address"
        },
        {
          "indexed": false,
          "internalType": "address",
          "name": "_recovery",
          "type": "address"
        }
      ],
      "name": "RecoveryTriggered",
      "type": "event"
    },
    {
      "anonymous": false,
      "inputs": [
        {
          "indexed": false,
          "internalType": "address",
          "name": "_wallet",
          "type": "address"
        },
        {
          "indexed": false,
          "internalType": "bytes",
          "name": "data",
          "type": "bytes"
        }
      ],
      "name": "SMInited",
      "type": "event"
    },
    {
      "anonymous": false,
      "inputs": [
        {
          "indexed": false,
          "internalType": "address",
          "name": "_wallet",
          "type": "address"
        },
        {
          "indexed": false,
          "internalType": "uint256",
          "name": "_lockedSecurityPeriod",
          "type": "uint256"
        },
        {
          "indexed": false,
          "internalType": "uint256",
          "name": "_recoverySecurityPeriod",
          "type": "uint256"
        }
      ],
      "name": "SMParameterChanged",
      "type": "event"
    },
    {
      "anonymous": false,
      "inputs": [
        {
          "indexed": false,
          "internalType": "address",
          "name": "_wallet",
          "type": "address"
        },
        {
          "indexed": false,
          "internalType": "address",
          "name": "signer",
          "type": "address"
        }
      ],
      "name": "SignerAdded",
      "type": "event"
    },
    {
      "anonymous": false,
      "inputs": [
        {
          "indexed": false,
          "internalType": "address",
          "name": "_wallet",
          "type": "address"
        },
        {
          "indexed": false,
          "internalType": "address",
          "name": "_oldSigner",
          "type": "address"
        }
      ],
      "name": "SignerRemoved",
      "type": "event"
    },
    {
      "anonymous": false,
      "inputs": [
        {
          "indexed": false,
          "internalType": "address",
          "name": "_wallet",
          "type": "address"
        },
        {
          "indexed": false,
          "internalType": "address",
          "name": "_newSigner",
          "type": "address"
        },
        {
          "indexed": false,
          "internalType": "address",
          "name": "_oldSigner",
          "type": "address"
        }
      ],
      "name": "SignerReplaced",
      "type": "event"
    },
    {
      "anonymous": false,
      "inputs": [
        {
          "indexed": false,
          "internalType": "address",
          "name": "_wallet",
          "type": "address"
        }
      ],
      "name": "Unlocked",
      "type": "event"
    },
    {
      "inputs": [
        {
          "internalType": "address",
          "name": "_moduleRegistry",
          "type": "address"
        },
        {
          "internalType": "address",
          "name": "_wallet",
          "type": "address"
        },
        {
          "internalType": "address",
          "name": "_module",
          "type": "address"
        },
        {
          "internalType": "bytes",
          "name": "data",
          "type": "bytes"
        }
      ],
      "name": "addModule",
      "outputs": [],
      "stateMutability": "nonpayable",
      "type": "function"
    },
    {
      "inputs": [
        {
          "internalType": "address",
          "name": "_wallet",
          "type": "address"
        },
        {
          "internalType": "address",
          "name": "signer",
          "type": "address"
        }
      ],
      "name": "addSigner",
      "outputs": [],
      "stateMutability": "nonpayable",
      "type": "function"
    },
    {
      "inputs": [],
      "name": "admin",
      "outputs": [
        {
          "internalType": "address",
          "name": "",
          "type": "address"
        }
      ],
      "stateMutability": "view",
      "type": "function"
    },
    {
      "inputs": [
        {
          "internalType": "address",
          "name": "_wallet",
          "type": "address"
        }
      ],
      "name": "cancelRecovery",
      "outputs": [],
      "stateMutability": "nonpayable",
      "type": "function"
    },
    {
      "inputs": [
        {
          "internalType": "address",
          "name": "_wallet",
          "type": "address"
        }
      ],
      "name": "executeRecovery",
      "outputs": [],
      "stateMutability": "nonpayable",
      "type": "function"
    },
    {
      "inputs": [
        {
          "internalType": "address[]",
          "name": "_signers",
          "type": "address[]"
        },
        {
          "internalType": "address",
          "name": "_signer",
          "type": "address"
        }
      ],
      "name": "findSigner",
      "outputs": [
        {
          "internalType": "bool",
          "name": "",
          "type": "bool"
        }
      ],
      "stateMutability": "pure",
      "type": "function"
    },
    {
      "inputs": [
        {
          "internalType": "address",
          "name": "_wallet",
          "type": "address"
        }
      ],
      "name": "getLockedSecurityPeriod",
      "outputs": [
        {
          "internalType": "uint256",
          "name": "",
          "type": "uint256"
        }
      ],
      "stateMutability": "view",
      "type": "function"
    },
    {
      "inputs": [
        {
          "internalType": "address",
          "name": "_wallet",
          "type": "address"
        }
      ],
      "name": "getRecoveryExpiryTime",
      "outputs": [
        {
          "internalType": "uint256",
          "name": "",
          "type": "uint256"
        }
      ],
      "stateMutability": "view",
      "type": "function"
    },
    {
      "inputs": [
        {
          "internalType": "address",
          "name": "_wallet",
          "type": "address"
        }
      ],
      "name": "getRecoverySecurityPeriod",
      "outputs": [
        {
          "internalType": "uint256",
          "name": "",
          "type": "uint256"
        }
      ],
      "stateMutability": "view",
      "type": "function"
    },
    {
      "inputs": [
        {
          "internalType": "address",
          "name": "_wallet",
          "type": "address"
        }
      ],
      "name": "getSigners",
      "outputs": [
        {
          "internalType": "address[]",
          "name": "",
          "type": "address[]"
        }
      ],
      "stateMutability": "view",
      "type": "function"
    },
    {
      "inputs": [],
      "name": "implementation",
      "outputs": [
        {
          "internalType": "address",
          "name": "",
          "type": "address"
        }
      ],
      "stateMutability": "view",
      "type": "function"
    },
    {
      "inputs": [
        {
          "internalType": "address",
          "name": "_wallet",
          "type": "address"
        },
        {
          "internalType": "bytes",
          "name": "data",
          "type": "bytes"
        }
      ],
      "name": "init",
      "outputs": [],
      "stateMutability": "nonpayable",
      "type": "function"
    },
    {
      "inputs": [
        {
          "internalType": "contract IModuleRegistry",
          "name": "_registry",
          "type": "address"
        },
        {
          "internalType": "uint256",
          "name": "_lockedSecurityPeriod",
          "type": "uint256"
        },
        {
          "internalType": "uint256",
          "name": "_recoverySecurityPeriod",
          "type": "uint256"
        }
      ],
      "name": "initialize",
      "outputs": [],
      "stateMutability": "nonpayable",
      "type": "function"
    },
    {
      "inputs": [
        {
          "internalType": "address",
          "name": "_wallet",
          "type": "address"
        }
      ],
      "name": "isInRecovery",
      "outputs": [
        {
          "internalType": "bool",
          "name": "",
          "type": "bool"
        }
      ],
      "stateMutability": "view",
      "type": "function"
    },
    {
      "inputs": [
        {
          "internalType": "address",
          "name": "_wallet",
          "type": "address"
        }
      ],
      "name": "isLocked",
      "outputs": [
        {
          "internalType": "uint256",
          "name": "",
          "type": "uint256"
        }
      ],
      "stateMutability": "view",
      "type": "function"
    },
    {
      "inputs": [
        {
          "internalType": "address",
          "name": "_wallet",
          "type": "address"
        },
        {
          "internalType": "address",
          "name": "_signer",
          "type": "address"
        }
      ],
      "name": "isSigner",
      "outputs": [
        {
          "internalType": "bool",
          "name": "",
          "type": "bool"
        }
      ],
      "stateMutability": "view",
      "type": "function"
    },
    {
      "inputs": [
        {
          "internalType": "address",
          "name": "_wallet",
          "type": "address"
        }
      ],
      "name": "lock",
      "outputs": [],
      "stateMutability": "nonpayable",
      "type": "function"
    },
    {
      "inputs": [],
      "name": "lockedSecurityPeriod",
      "outputs": [
        {
          "internalType": "uint256",
          "name": "",
          "type": "uint256"
        }
      ],
      "stateMutability": "view",
      "type": "function"
    },
    {
      "inputs": [
        {
          "internalType": "address",
          "name": "_wallet",
          "type": "address"
        },
        {
          "components": [
            {
              "internalType": "address",
              "name": "to",
              "type": "address"
            },
            {
              "internalType": "uint256",
              "name": "value",
              "type": "uint256"
            },
            {
              "internalType": "bytes",
              "name": "data",
              "type": "bytes"
            },
            {
              "internalType": "uint256",
              "name": "sequenceId",
              "type": "uint256"
            },
            {
              "internalType": "uint256",
              "name": "expireTime",
              "type": "uint256"
            }
          ],
          "internalType": "struct BaseModule.CallArgs",
          "name": "_args",
          "type": "tuple"
        },
        {
          "internalType": "bytes",
          "name": "_signatures",
          "type": "bytes"
        }
      ],
      "name": "multicall",
      "outputs": [],
      "stateMutability": "nonpayable",
      "type": "function"
    },
    {
      "inputs": [
        {
          "internalType": "address",
          "name": "",
          "type": "address"
        }
      ],
      "name": "recoveries",
      "outputs": [
        {
          "internalType": "uint256",
          "name": "activeAt",
          "type": "uint256"
        },
        {
          "internalType": "address",
          "name": "recovery",
          "type": "address"
        }
      ],
      "stateMutability": "view",
      "type": "function"
    },
    {
      "inputs": [],
      "name": "recoverySecurityPeriod",
      "outputs": [
        {
          "internalType": "uint256",
          "name": "",
          "type": "uint256"
        }
      ],
      "stateMutability": "view",
      "type": "function"
    },
    {
      "inputs": [
        {
          "internalType": "address",
          "name": "_wallet",
          "type": "address"
        }
      ],
      "name": "removeModule",
      "outputs": [],
      "stateMutability": "nonpayable",
      "type": "function"
    },
    {
      "inputs": [
        {
          "internalType": "address",
          "name": "_wallet",
          "type": "address"
        },
        {
          "internalType": "address",
          "name": "_oldSigner",
          "type": "address"
        }
      ],
      "name": "removeSigner",
      "outputs": [],
      "stateMutability": "nonpayable",
      "type": "function"
    },
    {
      "inputs": [
        {
          "internalType": "address",
          "name": "_wallet",
          "type": "address"
        },
        {
          "internalType": "address",
          "name": "_newSigner",
          "type": "address"
        },
        {
          "internalType": "address",
          "name": "_oldSigner",
          "type": "address"
        }
      ],
      "name": "replaceSigner",
      "outputs": [],
      "stateMutability": "nonpayable",
      "type": "function"
    },
    {
      "inputs": [
        {
          "internalType": "address",
          "name": "_wallet",
          "type": "address"
        },
        {
          "internalType": "uint256",
          "name": "_lockedSecurityPeriod",
          "type": "uint256"
        },
        {
          "internalType": "uint256",
          "name": "_recoverySecurityPeriod",
          "type": "uint256"
        }
      ],
      "name": "setSecurityPeriod",
      "outputs": [],
      "stateMutability": "nonpayable",
      "type": "function"
    },
    {
      "inputs": [
        {
          "internalType": "address",
          "name": "",
          "type": "address"
        }
      ],
      "name": "signerConfInfos",
      "outputs": [
        {
          "internalType": "bool",
          "name": "exist",
          "type": "bool"
        },
        {
          "internalType": "uint256",
          "name": "lockedPeriod",
          "type": "uint256"
        },
        {
          "internalType": "uint256",
          "name": "recoveryPeriod",
          "type": "uint256"
        }
      ],
      "stateMutability": "view",
      "type": "function"
    },
    {
      "inputs": [
        {
          "internalType": "address",
          "name": "_wallet",
          "type": "address"
        },
        {
          "internalType": "address",
          "name": "_recovery",
          "type": "address"
        }
      ],
      "name": "triggerRecovery",
      "outputs": [],
      "stateMutability": "nonpayable",
      "type": "function"
    },
    {
      "inputs": [
        {
          "internalType": "address",
          "name": "_wallet",
          "type": "address"
        }
      ],
      "name": "unlock",
      "outputs": [],
      "stateMutability": "nonpayable",
      "type": "function"
    }
  ],
  "bytecode": "0x608060405234801561001057600080fd5b50613d74806100206000396000f3fe608060405234801561001057600080fd5b50600436106101c45760003560e01c806383765b99116100f9578063c6de2a3f11610097578063f435f5a711610071578063f435f5a714610441578063f851a44014610454578063f883822514610467578063fc1d47b81461047a576101c4565b8063c6de2a3f146103d8578063c90db447146103e1578063cf0c1372146103f4576101c4565b80638f29d530116100d35780638f29d5301461038c5780639de9e4001461039f578063a0632461146103b2578063c0d91eaf146103c5576101c4565b806383765b991461035357806389ff98e4146103665780638d20efa714610379576101c4565b80635c60da1b1161016657806378b248e41161014057806378b248e4146102ea5780637a1ac61e1461030d5780637b551f0d146103205780637e3ba6af14610333576101c4565b80635c60da1b1461029957806368f3073f146102c45780636fa30cd4146102d7576101c4565b80632f6c493c116101a25780632f6c493c1461020d5780633bc2c4a7146102205780634a4fbeec1461023357806353a2a3f814610246576101c4565b80630fb436eb146101c957806313f71305146101e55780632239f556146101fa575b600080fd5b6101d260055481565b6040519081526020015b60405180910390f35b6101f86101f33660046135e7565b61048d565b005b6101f86102083660046133a0565b610694565b6101f861021b366004613368565b610aa1565b6101f861022e366004613368565b610cd9565b6101d2610241366004613368565b610e7b565b61027c610254366004613368565b60086020526000908152604090206001810154600282015460039092015460ff909116919083565b6040805193151584526020840192909252908201526060016101dc565b6000546102ac906001600160a01b031681565b6040516001600160a01b0390911681526020016101dc565b6101d26102d2366004613368565b610ef6565b6101f86102e5366004613513565b610fc7565b6102fd6102f83660046133a0565b6112e1565b60405190151581526020016101dc565b6101f861031b3660046135e7565b61139b565b6101f861032e3660046133d8565b61147b565b610346610341366004613368565b6118a1565b6040516101dc919061397f565b6101f86103613660046133a0565b611917565b6101f8610374366004613422565b611d9d565b6101f86103873660046133a0565b611fb2565b6102fd61039a366004613368565b61244c565b6101d26103ad366004613368565b6124a6565b6101f86103c0366004613368565b612577565b6101f86103d33660046134c5565b612627565b6101d260065481565b6101f86103ef366004613368565b612942565b610424610402366004613368565b600760205260009081526040902080546001909101546001600160a01b031682565b604080519283526001600160a01b039091166020830152016101dc565b6101f861044f366004613368565b612acc565b6001546102ac906001600160a01b031681565b6101d2610475366004613368565b612ce2565b6102fd6104883660046136b7565b612d3b565b82336001600160a01b038216146104bf5760405162461bcd60e51b81526004016104b690613b95565b60405180910390fd5b83806001600160a01b031663a4e2d6346040518163ffffffff1660e01b815260040160206040518083038186803b1580156104f957600080fd5b505afa15801561050d573d6000803e3d6000fd5b505050506040513d601f19601f8201168201806040525081019061053191906137f8565b156105725760405162461bcd60e51b815260206004820152601160248201527010934e881dd85b1b195d081b1bd8dad959607a1b60448201526064016104b6565b6001600160a01b0385166000908152600860205260409020600181015460ff166105ae5760405162461bcd60e51b81526004016104b6906139e4565b8481600201541415806105c5575083816003015414155b61061c5760405162461bcd60e51b815260206004820152602260248201527f534d3a4d757374206368616e6765206174206c65617374206f6e6520706572696044820152611bd960f21b60648201526084016104b6565b8481600201541461062f57600281018590555b8381600301541461064257600381018490555b604080516001600160a01b0388168152602081018790529081018590527fd93dd93d4d43d8f00148e4cb11174f8092cbda4e73ebe3a309b5ca984611e2529060600160405180910390a1505050505050565b81336001600160a01b0316816001600160a01b0316638da5cb5b6040518163ffffffff1660e01b815260040160206040518083038186803b1580156106d857600080fd5b505afa1580156106ec573d6000803e3d6000fd5b505050506040513d601f19601f820116820180604052508101906107109190613384565b6001600160a01b0316146107365760405162461bcd60e51b81526004016104b690613a7e565b826000816001600160a01b031663a4e2d6346040518163ffffffff1660e01b815260040160206040518083038186803b15801561077257600080fd5b505afa158015610786573d6000803e3d6000fd5b505050506040513d601f19601f820116820180604052508101906107aa91906137f8565b90506107b7600282613cd3565b156107d45760405162461bcd60e51b81526004016104b690613a10565b846000816001600160a01b031663a4e2d6346040518163ffffffff1660e01b815260040160206040518083038186803b15801561081057600080fd5b505afa158015610824573d6000803e3d6000fd5b505050506040513d601f19601f8201168201806040525081019061084891906137f8565b90508060021415801561085c575080600314155b6108785760405162461bcd60e51b81526004016104b690613b48565b61088187612daf565b61089d5760405162461bcd60e51b81526004016104b690613aa9565b6001600160a01b038616158015906108bc57506108ba87876112e1565b155b6108d85760405162461bcd60e51b81526004016104b690613afe565b6001600160a01b0387166000908152600860205260409020600181015460ff166109525760405162461bcd60e51b815260206004820152602560248201527f534d3a2077616c6c6574207369676e657220696e666f206e6f7420636f6e73696044820152641cdd195b9d60da1b60648201526084016104b6565b80546001810182556000828152602080822090920180546001600160a01b0319166001600160a01b038b8116919091179091558a16815260089091526040902081548291906109a49082908490613286565b50600182810154908201805460ff191660ff90921615159190911790556002808301548183015560039283015492909101919091558101546001600160a01b0389169063a0adf89f906109f79042613c49565b6040516001600160e01b031960e084901b168152610a21919063111cfaab60e11b906004016139cc565b600060405180830381600087803b158015610a3b57600080fd5b505af1158015610a4f573d6000803e3d6000fd5b5050604080516001600160a01b03808d1682528b1660208201527f12146497b3b826918ec47f0cac7272a09ed06b30c16c030e99ec48ff5dd60b47935001905060405180910390a15050505050505050565b80336001600160a01b0316816001600160a01b0316638da5cb5b6040518163ffffffff1660e01b815260040160206040518083038186803b158015610ae557600080fd5b505afa158015610af9573d6000803e3d6000fd5b505050506040513d601f19601f82011682018060405250810190610b1d9190613384565b6001600160a01b03161480610b375750610b3781336112e1565b610b535760405162461bcd60e51b81526004016104b690613a47565b816000816001600160a01b031663a4e2d6346040518163ffffffff1660e01b815260040160206040518083038186803b158015610b8f57600080fd5b505afa158015610ba3573d6000803e3d6000fd5b505050506040513d601f19601f82011682018060405250810190610bc791906137f8565b9050610bd4600282613cd3565b600114610c2e5760405162461bcd60e51b815260206004820152602260248201527f424d3a2077616c6c6574206d75737420626520676c6f62616c6c79206c6f636b604482015261195960f21b60648201526084016104b6565b60405163a0adf89f60e01b81526001600160a01b0385169063a0adf89f90610c649060009063f435f5a760e01b906004016139cc565b600060405180830381600087803b158015610c7e57600080fd5b505af1158015610c92573d6000803e3d6000fd5b50506040516001600160a01b03871681527f7e6adfec7e3f286831a0200a754127c171a2da564078722cb97704741bbdb0ea9250602001905060405180910390a150505050565b610ce28161244c565b610d2e5760405162461bcd60e51b815260206004820152601b60248201527f534d3a204e6f2076616c6964207265636f7665727920666f756e64000000000060448201526064016104b6565b6001600160a01b038181166000818152600760209081526040918290208251808401845281548152600190910154909416908401819052905163a39a45b760e01b8152600481019190915263a39a45b790602401600060405180830381600087803b158015610d9c57600080fd5b505af1158015610db0573d6000803e3d6000fd5b505050506001600160a01b03821660008181526007602052604080822082815560010180546001600160a01b03191690555163a0adf89f60e01b815263a0adf89f91610e079163111cfaab60e11b906004016139cc565b600060405180830381600087803b158015610e2157600080fd5b505af1158015610e35573d6000803e3d6000fd5b50506040516001600160a01b03851681527ffcd2de31341801b7fd80895c780aae50c1505fd674ff1b9b9764c56c633434d6925060200190505b60405180910390a15050565b6000816001600160a01b031663a4e2d6346040518163ffffffff1660e01b815260040160206040518083038186803b158015610eb657600080fd5b505afa158015610eca573d6000803e3d6000fd5b505050506040513d601f19601f82011682018060405250810190610eee91906137f8565b90505b919050565b6001600160a01b03811660009081526008602090815260408083208151815460a09481028201850190935260808101838152859491938492849190840182828015610f6a57602002820191906000526020600020905b81546001600160a01b03168152600190910190602001808311610f4c575b5050509183525050600182015460ff16151560208083019190915260028301546040830152600390920154606090910152810151909150610fbd5760405162461bcd60e51b81526004016104b6906139e4565b6040015192915050565b82336001600160a01b0316816001600160a01b0316638da5cb5b6040518163ffffffff1660e01b815260040160206040518083038186803b15801561100b57600080fd5b505afa15801561101f573d6000803e3d6000fd5b505050506040513d601f19601f820116820180604052508101906110439190613384565b6001600160a01b0316148061105d575061105d81336112e1565b6110795760405162461bcd60e51b81526004016104b690613a47565b6001600160a01b0384166000908152600860205260409020600181015460ff166110da5760405162461bcd60e51b815260206004820152601260248201527114d34e881a5b9d985b1a59081dd85b1b195d60721b60448201526064016104b6565b80546000906002906110ed906001613c49565b6110f79190613c61565b90506000604185516111099190613c61565b90508181101561115b5760405162461bcd60e51b815260206004820152601960248201527f534d3a204e6f7420656e6f756768207369676e6174757265730000000000000060448201526064016104b6565b600061116687612e28565b905060008060005b84811015611292576000611183858b84612e7f565b9050826001600160a01b0316816001600160a01b0316116111e65760405162461bcd60e51b815260206004820152601c60248201527f534d3a204261646c79206f726465726564207369676e6174757265730000000060448201526064016104b6565b80925061124f8860000180548060200260200160405190810160405280929190818152602001828054801561124457602002820191906000526020600020905b81546001600160a01b03168152600190910190602001808311611226575b505050505082612d3b565b1561127f5761125f600185613c49565b935086841061127f576112728c8c612f41565b50505050505050506112db565b508061128a81613cb8565b91505061116e565b5060405162461bcd60e51b815260206004820152601f60248201527f534d3a204e6f7420656e6f7567682076616c6964207369676e6174757265730060448201526064016104b6565b50505050565b6001600160a01b03821660009081526008602090815260408083208151815460a0948102820185019093526080810183815285949193849284919084018282801561135557602002820191906000526020600020905b81546001600160a01b03168152600190910190602001808311611337575b5050509183525050600182015460ff16151560208201526002820154604082015260039091015460609091015280519091506113919084612d3b565b9150505b92915050565b600454610100900460ff166113b65760045460ff16156113ba565b303b155b61141d5760405162461bcd60e51b815260206004820152602e60248201527f496e697469616c697a61626c653a20636f6e747261637420697320616c72656160448201526d191e481a5b9a5d1a585b1a5e995960921b60648201526084016104b6565b600454610100900460ff1615801561143f576004805461ffff19166101011790555b600280546001600160a01b0319166001600160a01b0386161790556006839055600582905580156112db576004805461ff001916905550505050565b82336001600160a01b0316816001600160a01b0316638da5cb5b6040518163ffffffff1660e01b815260040160206040518083038186803b1580156114bf57600080fd5b505afa1580156114d3573d6000803e3d6000fd5b505050506040513d601f19601f820116820180604052508101906114f79190613384565b6001600160a01b03161461151d5760405162461bcd60e51b81526004016104b690613a7e565b836000816001600160a01b031663a4e2d6346040518163ffffffff1660e01b815260040160206040518083038186803b15801561155957600080fd5b505afa15801561156d573d6000803e3d6000fd5b505050506040513d601f19601f8201168201806040525081019061159191906137f8565b905061159e600282613cd3565b156115bb5760405162461bcd60e51b81526004016104b690613a10565b856000816001600160a01b031663a4e2d6346040518163ffffffff1660e01b815260040160206040518083038186803b1580156115f757600080fd5b505afa15801561160b573d6000803e3d6000fd5b505050506040513d601f19601f8201168201806040525081019061162f91906137f8565b905080600214158015611643575080600314155b61165f5760405162461bcd60e51b81526004016104b690613b48565b61166888612daf565b6116845760405162461bcd60e51b81526004016104b690613aa9565b6001600160a01b038716158015906116a157506116a188876112e1565b6116bd5760405162461bcd60e51b81526004016104b690613afe565b6001600160a01b0388166000908152600860205260409020600181015460ff166116f95760405162461bcd60e51b81526004016104b6906139e4565b805460009061170a90600190613c75565b905060005b825461171d90600190613c75565b8110156117c85782600001818154811061174757634e487b7160e01b600052603260045260246000fd5b6000918252602090912001546001600160a01b038a8116911614156117b6578983600001828154811061178a57634e487b7160e01b600052603260045260246000fd5b600091825260209091200180546001600160a01b0319166001600160a01b039290921691909117905550805b806117c081613cb8565b91505061170f565b50896001600160a01b031663a0adf89f8360020154426117e89190613c49565b6040516001600160e01b031960e084901b168152611812919063111cfaab60e11b906004016139cc565b600060405180830381600087803b15801561182c57600080fd5b505af1158015611840573d6000803e3d6000fd5b5050604080516001600160a01b03808f168252808e1660208301528c16918101919091527f37852b11621736fac970fe97a5b848e91df7ca7dcf4f4804dcb59fb192104d2d925060600190505b60405180910390a150505050505050505050565b6001600160a01b03811660009081526008602090815260409182902080548351818402810184019094528084526060939283018282801561190b57602002820191906000526020600020905b81546001600160a01b031681526001909101906020018083116118ed575b50505050509050919050565b81336001600160a01b038216146119405760405162461bcd60e51b81526004016104b690613b95565b826000816001600160a01b031663a4e2d6346040518163ffffffff1660e01b815260040160206040518083038186803b15801561197c57600080fd5b505afa158015611990573d6000803e3d6000fd5b505050506040513d601f19601f820116820180604052508101906119b491906137f8565b90506119c1600282613cd3565b156119de5760405162461bcd60e51b81526004016104b690613a10565b846000816001600160a01b031663a4e2d6346040518163ffffffff1660e01b815260040160206040518083038186803b158015611a1a57600080fd5b505afa158015611a2e573d6000803e3d6000fd5b505050506040513d601f19601f82011682018060405250810190611a5291906137f8565b905080600214158015611a66575080600314155b611a825760405162461bcd60e51b81526004016104b690613b48565b6001600160a01b038616611ad15760405162461bcd60e51b815260206004820152601660248201527529a69d1024b73b30b634b2103732bb9039b4b3b732b960511b60448201526064016104b6565b866001600160a01b0316638da5cb5b6040518163ffffffff1660e01b815260040160206040518083038186803b158015611b0a57600080fd5b505afa158015611b1e573d6000803e3d6000fd5b505050506040513d601f19601f82011682018060405250810190611b429190613384565b6001600160a01b0316866001600160a01b03161415611baf5760405162461bcd60e51b8152602060048201526024808201527f534d3a206f776e65722063616e206e6f7420747269676765722061207265636f6044820152637665727960e01b60648201526084016104b6565b611bb987876112e1565b15611c175760405162461bcd60e51b815260206004820152602860248201527f534d3a206e65774f776e65722063616e277420626520616e206578697374696e604482015267339039b4b3b732b960c11b60648201526084016104b6565b611c208761244c565b15611c6d5760405162461bcd60e51b815260206004820152601c60248201527f534d3a2073686f756c64206e6f7420747269676765722074776963650000000060448201526064016104b6565b6001600160a01b0387166000818152600860205260409020600281015490919063a0adf89f90611c9d9042613c49565b6040516001600160e01b031960e084901b168152611cc7919063111cfaab60e11b906004016139cc565b600060405180830381600087803b158015611ce157600080fd5b505af1158015611cf5573d6000803e3d6000fd5b505050506000816003015442611d0b9190613c49565b6040805180820182528281526001600160a01b038b811660208084018281528f8416600081815260078452879020955186559051600190950180546001600160a01b03191695909416949094179092558351928352908201529192507fd7170f681aaf2414cac5ce9811b90655ed4e8deaa1f57051d5773acdd69fc3fd910160405180910390a1505050505050505050565b83336001600160a01b03821614611dc65760405162461bcd60e51b81526004016104b690613b95565b84806001600160a01b031663a4e2d6346040518163ffffffff1660e01b815260040160206040518083038186803b158015611e0057600080fd5b505afa158015611e14573d6000803e3d6000fd5b505050506040513d601f19601f82011682018060405250810190611e3891906137f8565b15611e795760405162461bcd60e51b815260206004820152601160248201527010934e881dd85b1b195d081b1bd8dad959607a1b60448201526064016104b6565b600254604051630bcd4ebb60e01b81526001600160a01b03878116600483015290911690630bcd4ebb9060240160206040518083038186803b158015611ebe57600080fd5b505afa158015611ed2573d6000803e3d6000fd5b505050506040513d601f19601f82011682018060405250810190611ef69190613765565b611f425760405162461bcd60e51b815260206004820152601c60248201527f534d3a206d6f64756c65206973206e6f7420726567697374657265640000000060448201526064016104b6565b604051636d1c590560e11b81526001600160a01b0387169063da38b20a90611f77908a9089906001908a908a9060040161389f565b600060405180830381600087803b158015611f9157600080fd5b505af1158015611fa5573d6000803e3d6000fd5b5050505050505050505050565b81336001600160a01b0316816001600160a01b0316638da5cb5b6040518163ffffffff1660e01b815260040160206040518083038186803b158015611ff657600080fd5b505afa15801561200a573d6000803e3d6000fd5b505050506040513d601f19601f8201168201806040525081019061202e9190613384565b6001600160a01b0316146120545760405162461bcd60e51b81526004016104b690613a7e565b826000816001600160a01b031663a4e2d6346040518163ffffffff1660e01b815260040160206040518083038186803b15801561209057600080fd5b505afa1580156120a4573d6000803e3d6000fd5b505050506040513d601f19601f820116820180604052508101906120c891906137f8565b90506120d5600282613cd3565b156120f25760405162461bcd60e51b81526004016104b690613a10565b846000816001600160a01b031663a4e2d6346040518163ffffffff1660e01b815260040160206040518083038186803b15801561212e57600080fd5b505afa158015612142573d6000803e3d6000fd5b505050506040513d601f19601f8201168201806040525081019061216691906137f8565b90508060021415801561217a575080600314155b6121965760405162461bcd60e51b81526004016104b690613b48565b61219f87612daf565b6121bb5760405162461bcd60e51b81526004016104b690613aa9565b6121c587876112e1565b6122095760405162461bcd60e51b815260206004820152601560248201527429a69d1034b73b30b634b21037b63229b4b3b732b960591b60448201526064016104b6565b6001600160a01b0387166000908152600860205260409020600181015460ff166122455760405162461bcd60e51b81526004016104b6906139e4565b805460009061225690600190613c75565b9050600082600001828154811061227d57634e487b7160e01b600052603260045260246000fd5b60009182526020822001546001600160a01b031691505b83546122a290600190613c75565b81101561234d578360000181815481106122cc57634e487b7160e01b600052603260045260246000fd5b6000918252602090912001546001600160a01b038b81169116141561233b578184600001828154811061230f57634e487b7160e01b600052603260045260246000fd5b600091825260209091200180546001600160a01b0319166001600160a01b039290921691909117905550815b8061234581613cb8565b915050612294565b50825483908061236d57634e487b7160e01b600052603160045260246000fd5b600082815260209020810160001990810180546001600160a01b031916905501905560028301546001600160a01b038b169063a0adf89f906123af9042613c49565b6040516001600160e01b031960e084901b1681526123d9919063111cfaab60e11b906004016139cc565b600060405180830381600087803b1580156123f357600080fd5b505af1158015612407573d6000803e3d6000fd5b5050604080516001600160a01b03808f1682528d1660208201527f98d1ebbe00ae92a5de96a0f49742a8afa89f42363592bc2e7cfaaed68b45e7a6935001905061188d565b6001600160a01b038082166000908152600760209081526040808320815180830190925280548083526001909101549094169181019190915290911580159061249f5750805167ffffffffffffffff4216105b9392505050565b6001600160a01b03811660009081526008602090815260408083208151815460a0948102820185019093526080810183815285949193849284919084018282801561251a57602002820191906000526020600020905b81546001600160a01b031681526001909101906020018083116124fc575b5050509183525050600182015460ff1615156020808301919091526002830154604083015260039092015460609091015281015190915061256d5760405162461bcd60e51b81526004016104b6906139e4565b6060015192915050565b80336001600160a01b038216146125a05760405162461bcd60e51b81526004016104b690613b95565b6001600160a01b03821660009081526008602052604090206001015460ff166125db5760405162461bcd60e51b81526004016104b6906139e4565b6125e48261302a565b6001600160a01b03821660009081526008602052604081209061260782826132d6565b5060018101805460ff191690556000600282018190556003909101555050565b81336001600160a01b038216146126505760405162461bcd60e51b81526004016104b690613b95565b61265983612daf565b156126bd5760405162461bcd60e51b815260206004820152602e60248201527f534d3a2073686f756c64206e6f74206164642073616d65206d6f64756c65207460448201526d6f2077616c6c657420747769636560901b60648201526084016104b6565b6001600160a01b03831660009081526008602052604090206001015460ff16156127355760405162461bcd60e51b8152602060048201526024808201527f534d3a2077616c6c65742065786973747320696e207369676e6572436f6e66496044820152636e666f7360e01b60648201526084016104b6565b61273e8361316e565b600082806020019051810190612754919061361b565b6001600160a01b03851660009081526008602052604081209192505b82518110156128e0578160000183828151811061279d57634e487b7160e01b600052603260045260246000fd5b602090810291909101810151825460018101845560009384529282902090920180546001600160a01b0319166001600160a01b0393841617905560408051638da5cb5b60e01b8152905192891692638da5cb5b92600480840193919291829003018186803b15801561280e57600080fd5b505afa158015612822573d6000803e3d6000fd5b505050506040513d601f19601f820116820180604052508101906128469190613384565b6001600160a01b031683828151811061286f57634e487b7160e01b600052603260045260246000fd5b60200260200101516001600160a01b031614156128ce5760405162461bcd60e51b815260206004820152601a60248201527f534d3a207369676e65722063616e6e2774206265206f776e657200000000000060448201526064016104b6565b806128d881613cb8565b915050612770565b506001818101805460ff19169091179055600654600282015560055460038201556040517fa8d2f5a0d7d2b8f16c64d920753528ba37b74315cce0ad809a556564e88ddd589061293390879087906138f1565b60405180910390a15050505050565b6001600160a01b0380821660009081526007602052604090206001015482911633146129c35760405162461bcd60e51b815260206004820152602a60248201527f534d3a206f6e6c7920746865206e6577206f776e65722063616e2063616e63656044820152696c207265636f7665727960b01b60648201526084016104b6565b6129cc8261244c565b612a0d5760405162461bcd60e51b8152602060048201526012602482015271534d3a206e6f74207265636f766572696e6760701b60448201526064016104b6565b6001600160a01b03821660008181526007602052604080822082815560010180546001600160a01b03191690555163a0adf89f60e01b815263a0adf89f91612a609163111cfaab60e11b906004016139cc565b600060405180830381600087803b158015612a7a57600080fd5b505af1158015612a8e573d6000803e3d6000fd5b50506040516001600160a01b03851681527f8154b6c5e1fc90d44b49808ef93f9739148d0821411890f8cd684385e24b9f1e92506020019050610e6f565b80336001600160a01b0316816001600160a01b0316638da5cb5b6040518163ffffffff1660e01b815260040160206040518083038186803b158015612b1057600080fd5b505afa158015612b24573d6000803e3d6000fd5b505050506040513d601f19601f82011682018060405250810190612b489190613384565b6001600160a01b03161480612b625750612b6281336112e1565b612b7e5760405162461bcd60e51b81526004016104b690613a47565b816000816001600160a01b031663a4e2d6346040518163ffffffff1660e01b815260040160206040518083038186803b158015612bba57600080fd5b505afa158015612bce573d6000803e3d6000fd5b505050506040513d601f19601f82011682018060405250810190612bf291906137f8565b9050612bff600282613cd3565b15612c1c5760405162461bcd60e51b81526004016104b690613a10565b6001600160a01b0384166000818152600860205260409020600281015490919063a0adf89f90612c4c9042613c49565b6040516001600160e01b031960e084901b168152612c76919063f435f5a760e01b906004016139cc565b600060405180830381600087803b158015612c9057600080fd5b505af1158015612ca4573d6000803e3d6000fd5b50506040516001600160a01b03881681527f44427e3003a08f22cf803894075ac0297524e09e521fc1c15bc91741ce3dc15992506020019050612933565b6001600160a01b03808216600090815260076020908152604080832081518083019092528054808352600190910154909416918101919091529091421115612d2e576000915050610ef1565b805161249f904290613c75565b6000805b8351811015612da557826001600160a01b0316848281518110612d7257634e487b7160e01b600052603260045260246000fd5b60200260200101516001600160a01b03161415612d93576001915050611395565b80612d9d81613cb8565b915050612d3f565b5060009392505050565b6000805b600354811015612e1f57826001600160a01b031660038281548110612de857634e487b7160e01b600052603260045260246000fd5b6000918252602090912001546001600160a01b03161415612e0d576001915050610ef1565b80612e1781613cb8565b915050612db3565b50600092915050565b80516020808301516040808501516060860151915160009594919291612e5e91601960f81b91889188918891889188910161383c565b60405160208183030381529060405280519060200120945050505050919050565b600080600080612e8f8686613216565b6040517f19457468657265756d205369676e6564204d6573736167653a0a3332000000006020820152603c81018b90529295509093509150600190605c0160408051601f198184030181528282528051602091820120600084529083018083525260ff861690820152606081018490526080810183905260a0016020604051602081039080840390855afa158015612f2b573d6000803e3d6000fd5b5050604051601f19015198975050505050505050565b8051602082015160408084015160608501516080860151925163b14f6c8360e01b8152919290916001600160a01b0388169063b14f6c8390612f8f9088908890889087908990600401613944565b600060405180830381600087803b158015612fa957600080fd5b505af1158015612fbd573d6000803e3d6000fd5b505050506040513d6000823e601f3d908101601f19168201604052612fe59190810190613785565b507f16a95b1f4b59f6a32941b3b48a50be9d4d9f9c4da4cb504681489daabf9919288585856040516130199392919061391d565b60405180910390a150505050505050565b60035460009061303c90600190613c75565b905060005b8181101561312857826001600160a01b03166003828154811061307457634e487b7160e01b600052603260045260246000fd5b6000918252602090912001546001600160a01b0316141561311657600382815481106130b057634e487b7160e01b600052603260045260246000fd5b600091825260209091200154600380546001600160a01b0390921691839081106130ea57634e487b7160e01b600052603260045260246000fd5b600091825260209091200180546001600160a01b0319166001600160a01b039290921691909117905550805b8061312081613cb8565b915050613041565b50600380548061314857634e487b7160e01b600052603160045260246000fd5b600082815260209020810160001990810180546001600160a01b03191690550190555050565b61317781612daf565b156131c45760405162461bcd60e51b815260206004820152601d60248201527f424d3a2077616c6c657420616c7265616479207265676973746572656400000060448201526064016104b6565b600380546001810182556000919091527fc2575a0e9e593c00f959f8c92f12db2869c3395a3b0502d05e2516446f71f85b0180546001600160a01b0319166001600160a01b0392909216919091179055565b6041808202830160208101516040820151919092015160ff169190601b83148061324357508260ff16601c145b61327f5760405162461bcd60e51b815260206004820152600d60248201526c29a69d1024b73b30b634b2103b60991b60448201526064016104b6565b9250925092565b8280548282559060005260206000209081019282156132c65760005260206000209182015b828111156132c65782548255916001019190600101906132ab565b506132d29291506132f7565b5090565b50805460008255906000526020600020908101906132f491906132f7565b50565b5b808211156132d257600081556001016132f8565b8035610ef181613d29565b600082601f830112613327578081fd5b813561333a61333582613c21565b613bcc565b81815284602083860101111561334e578283fd5b816020850160208301379081016020019190915292915050565b600060208284031215613379578081fd5b813561249f81613d29565b600060208284031215613395578081fd5b815161249f81613d29565b600080604083850312156133b2578081fd5b82356133bd81613d29565b915060208301356133cd81613d29565b809150509250929050565b6000806000606084860312156133ec578081fd5b83356133f781613d29565b9250602084013561340781613d29565b9150604084013561341781613d29565b809150509250925092565b600080600080600060808688031215613439578081fd5b853561344481613d29565b9450602086013561345481613d29565b9350604086013561346481613d29565b9250606086013567ffffffffffffffff80821115613480578283fd5b818801915088601f830112613493578283fd5b8135818111156134a1578384fd5b8960208285010111156134b2578384fd5b9699959850939650602001949392505050565b600080604083850312156134d7578182fd5b82356134e281613d29565b9150602083013567ffffffffffffffff8111156134fd578182fd5b61350985828601613317565b9150509250929050565b600080600060608486031215613527578283fd5b833561353281613d29565b9250602084013567ffffffffffffffff8082111561354e578384fd5b9085019060a08288031215613561578384fd5b61356b60a0613bcc565b823561357681613d29565b815260208381013590820152604083013582811115613593578586fd5b61359f89828601613317565b60408301525060608301356060820152608083013560808201528094505060408601359150808211156135d0578283fd5b506135dd86828701613317565b9150509250925092565b6000806000606084860312156135fb578081fd5b833561360681613d29565b95602085013595506040909401359392505050565b6000602080838503121561362d578182fd5b825167ffffffffffffffff811115613643578283fd5b8301601f81018513613653578283fd5b805161366161333582613bfd565b80828252848201915084840188868560051b8701011115613680578687fd5b8694505b838510156136ab57805161369781613d29565b835260019490940193918501918501613684565b50979650505050505050565b600080604083850312156136c9578182fd5b823567ffffffffffffffff8111156136df578283fd5b8301601f810185136136ef578283fd5b803560206136ff61333583613bfd565b80838252828201915082850189848660051b880101111561371e578788fd5b8795505b8486101561374957803561373581613d29565b835260019590950194918301918301613722565b509550613759905086820161330c565b93505050509250929050565b600060208284031215613776578081fd5b8151801515811461249f578182fd5b600060208284031215613796578081fd5b815167ffffffffffffffff8111156137ac578182fd5b8201601f810184136137bc578182fd5b80516137ca61333582613c21565b8181528560208385010111156137de578384fd5b6137ef826020830160208601613c8c565b95945050505050565b600060208284031215613809578081fd5b5051919050565b60008151808452613828816020860160208601613c8c565b601f01601f19169290920160200192915050565b6001600160f81b0319878116825286166001820152606085901b6bffffffffffffffffffffffff19166002820152601681018490528251600090613887816036850160208801613c8c565b60369201918201929092526056019695505050505050565b6001600160a01b03868116825285166020820152831515604082015260806060820181905281018290526000828460a084013781830160a090810191909152601f909201601f19160101949350505050565b6001600160a01b038316815260406020820181905260009061391590830184613810565b949350505050565b600060018060a01b0385168252836020830152606060408301526137ef6060830184613810565b600060018060a01b038716825285602083015260a0604083015261396b60a0830186613810565b606083019490945250608001529392505050565b6020808252825182820181905260009190848201906040850190845b818110156139c05783516001600160a01b03168352928401929184019160010161399b565b50909695505050505050565b9182526001600160e01b031916602082015260400190565b60208082526012908201527114d34e88125b9d985b1a59081dd85b1b195d60721b604082015260600190565b6020808252601a908201527f424d3a2077616c6c6574206c6f636b656420676c6f62616c6c79000000000000604082015260600190565b60208082526019908201527f534d3a206d757374206265207369676e65722f77616c6c657400000000000000604082015260600190565b60208082526011908201527021269d1036bab9ba1031329037bbb732b960791b604082015260600190565b60208082526035908201527f534d3a2077616c6c65742073686f756c642062652072656769737465726564206040820152746265666f726520616464696e67207369676e65727360581b606082015260800190565b6020808252602a908201527f534d3a20696e76616c6964206e65775369676e6572206f7220696e76616c69646040820152691037b63229b4b3b732b960b11b606082015260800190565b6020808252602d908201527f424d3a2077616c6c6574206c6f636b6564206279207369676e65722072656c6160408201526c3a32b21037b832b930ba34b7b760991b606082015260800190565b60208082526019908201527f424d3a2063616c6c6572206d7573742062652077616c6c657400000000000000604082015260600190565b604051601f8201601f1916810167ffffffffffffffff81118282101715613bf557613bf5613d13565b604052919050565b600067ffffffffffffffff821115613c1757613c17613d13565b5060051b60200190565b600067ffffffffffffffff821115613c3b57613c3b613d13565b50601f01601f191660200190565b60008219821115613c5c57613c5c613ce7565b500190565b600082613c7057613c70613cfd565b500490565b600082821015613c8757613c87613ce7565b500390565b60005b83811015613ca7578181015183820152602001613c8f565b838111156112db5750506000910152565b6000600019821415613ccc57613ccc613ce7565b5060010190565b600082613ce257613ce2613cfd565b500690565b634e487b7160e01b600052601160045260246000fd5b634e487b7160e01b600052601260045260246000fd5b634e487b7160e01b600052604160045260246000fd5b6001600160a01b03811681146132f457600080fdfea2646970667358221220acf536f4863a28cdcdc56d25a6b5aecd667cb38551f522e6df620bf318bd3ce864736f6c63430008030033",
  "linkReferences": {},
  "deployedLinkReferences": {}
}