{
  "_format": "hh-sol-artifact-1",
  "contractName": "SecurityModule",
  "sourceName": "contracts/SecurityModule.sol",
  "abi": [
    {
      "inputs": [],
      "stateMutability": "nonpayable",
      "type": "constructor"
    },
    {
      "anonymous": false,
      "inputs": [
        {
          "indexed": false,
          "internalType": "address",
          "name": "_wallet",
          "type": "address"
        }
      ],
      "name": "Locked",
      "type": "event"
    },
    {
      "anonymous": false,
      "inputs": [
        {
          "indexed": false,
          "internalType": "address",
          "name": "to",
          "type": "address"
        },
        {
          "indexed": false,
          "internalType": "uint256",
          "name": "value",
          "type": "uint256"
        },
        {
          "indexed": false,
          "internalType": "bytes",
          "name": "data",
          "type": "bytes"
        }
      ],
      "name": "MultiCalled",
      "type": "event"
    },
    {
      "anonymous": false,
      "inputs": [
        {
          "indexed": false,
          "internalType": "address",
          "name": "_wallet",
          "type": "address"
        }
      ],
      "name": "RecoveryCancelled",
      "type": "event"
    },
    {
      "anonymous": false,
      "inputs": [
        {
          "indexed": false,
          "internalType": "address",
          "name": "_wallet",
          "type": "address"
        }
      ],
      "name": "RecoveryExecuted",
      "type": "event"
    },
    {
      "anonymous": false,
      "inputs": [
        {
          "indexed": false,
          "internalType": "address",
          "name": "_wallet",
          "type": "address"
        },
        {
          "indexed": false,
          "internalType": "address",
          "name": "_recovery",
          "type": "address"
        }
      ],
      "name": "RecoveryTriggered",
      "type": "event"
    },
    {
      "anonymous": false,
      "inputs": [
        {
          "indexed": false,
          "internalType": "address",
          "name": "_wallet",
          "type": "address"
        },
        {
          "indexed": false,
          "internalType": "bytes",
          "name": "data",
          "type": "bytes"
        }
      ],
      "name": "SMInited",
      "type": "event"
    },
    {
      "anonymous": false,
      "inputs": [
        {
          "indexed": false,
          "internalType": "address",
          "name": "_wallet",
          "type": "address"
        },
        {
          "indexed": false,
          "internalType": "uint256",
          "name": "_lockedSecurityPeriod",
          "type": "uint256"
        },
        {
          "indexed": false,
          "internalType": "uint256",
          "name": "_recoverySecurityPeriod",
          "type": "uint256"
        }
      ],
      "name": "SMParameterChanged",
      "type": "event"
    },
    {
      "anonymous": false,
      "inputs": [
        {
          "indexed": false,
          "internalType": "address",
          "name": "_wallet",
          "type": "address"
        },
        {
          "indexed": false,
          "internalType": "address",
          "name": "signer",
          "type": "address"
        }
      ],
      "name": "SignerAdded",
      "type": "event"
    },
    {
      "anonymous": false,
      "inputs": [
        {
          "indexed": false,
          "internalType": "address",
          "name": "_wallet",
          "type": "address"
        },
        {
          "indexed": false,
          "internalType": "address",
          "name": "_oldSigner",
          "type": "address"
        }
      ],
      "name": "SignerRemoved",
      "type": "event"
    },
    {
      "anonymous": false,
      "inputs": [
        {
          "indexed": false,
          "internalType": "address",
          "name": "_wallet",
          "type": "address"
        },
        {
          "indexed": false,
          "internalType": "address",
          "name": "_newSigner",
          "type": "address"
        },
        {
          "indexed": false,
          "internalType": "address",
          "name": "_oldSigner",
          "type": "address"
        }
      ],
      "name": "SignerReplaced",
      "type": "event"
    },
    {
      "anonymous": false,
      "inputs": [
        {
          "indexed": false,
          "internalType": "address",
          "name": "_wallet",
          "type": "address"
        }
      ],
      "name": "Unlocked",
      "type": "event"
    },
    {
      "inputs": [
        {
          "internalType": "address",
          "name": "_moduleRegistry",
          "type": "address"
        },
        {
          "internalType": "address",
          "name": "_wallet",
          "type": "address"
        },
        {
          "internalType": "address",
          "name": "_module",
          "type": "address"
        },
        {
          "internalType": "bytes",
          "name": "data",
          "type": "bytes"
        }
      ],
      "name": "addModule",
      "outputs": [],
      "stateMutability": "nonpayable",
      "type": "function"
    },
    {
      "inputs": [
        {
          "internalType": "address",
          "name": "_wallet",
          "type": "address"
        },
        {
          "internalType": "address",
          "name": "signer",
          "type": "address"
        }
      ],
      "name": "addSigner",
      "outputs": [],
      "stateMutability": "nonpayable",
      "type": "function"
    },
    {
      "inputs": [
        {
          "internalType": "address",
          "name": "_wallet",
          "type": "address"
        }
      ],
      "name": "cancelRecovery",
      "outputs": [],
      "stateMutability": "nonpayable",
      "type": "function"
    },
    {
      "inputs": [
        {
          "internalType": "address",
          "name": "_wallet",
          "type": "address"
        }
      ],
      "name": "executeRecovery",
      "outputs": [],
      "stateMutability": "nonpayable",
      "type": "function"
    },
    {
      "inputs": [
        {
          "internalType": "address[]",
          "name": "_signers",
          "type": "address[]"
        },
        {
          "internalType": "address",
          "name": "_signer",
          "type": "address"
        }
      ],
      "name": "findSigner",
      "outputs": [
        {
          "internalType": "bool",
          "name": "",
          "type": "bool"
        }
      ],
      "stateMutability": "pure",
      "type": "function"
    },
    {
      "inputs": [
        {
          "internalType": "address",
          "name": "_wallet",
          "type": "address"
        }
      ],
      "name": "getLockedSecurityPeriod",
      "outputs": [
        {
          "internalType": "uint256",
          "name": "",
          "type": "uint256"
        }
      ],
      "stateMutability": "view",
      "type": "function"
    },
    {
      "inputs": [
        {
          "internalType": "address",
          "name": "_wallet",
          "type": "address"
        }
      ],
      "name": "getRecoverySecurityPeriod",
      "outputs": [
        {
          "internalType": "uint256",
          "name": "",
          "type": "uint256"
        }
      ],
      "stateMutability": "view",
      "type": "function"
    },
    {
      "inputs": [
        {
          "internalType": "address",
          "name": "_wallet",
          "type": "address"
        }
      ],
      "name": "getSigners",
      "outputs": [
        {
          "internalType": "address[]",
          "name": "",
          "type": "address[]"
        }
      ],
      "stateMutability": "view",
      "type": "function"
    },
    {
      "inputs": [
        {
          "internalType": "address",
          "name": "_wallet",
          "type": "address"
        },
        {
          "internalType": "bytes",
          "name": "data",
          "type": "bytes"
        }
      ],
      "name": "init",
      "outputs": [],
      "stateMutability": "nonpayable",
      "type": "function"
    },
    {
      "inputs": [
        {
          "internalType": "contract IModuleRegistry",
          "name": "_registry",
          "type": "address"
        },
        {
          "internalType": "uint256",
          "name": "_lockedSecurityPeriod",
          "type": "uint256"
        },
        {
          "internalType": "uint256",
          "name": "_recoverySecurityPeriod",
          "type": "uint256"
        }
      ],
      "name": "initialize",
      "outputs": [],
      "stateMutability": "nonpayable",
      "type": "function"
    },
    {
      "inputs": [
        {
          "internalType": "address",
          "name": "_wallet",
          "type": "address"
        }
      ],
      "name": "isInRecovery",
      "outputs": [
        {
          "internalType": "bool",
          "name": "",
          "type": "bool"
        }
      ],
      "stateMutability": "view",
      "type": "function"
    },
    {
      "inputs": [
        {
          "internalType": "address",
          "name": "_wallet",
          "type": "address"
        }
      ],
      "name": "isLocked",
      "outputs": [
        {
          "internalType": "uint256",
          "name": "",
          "type": "uint256"
        }
      ],
      "stateMutability": "view",
      "type": "function"
    },
    {
      "inputs": [
        {
          "internalType": "address",
          "name": "_wallet",
          "type": "address"
        },
        {
          "internalType": "address",
          "name": "_signer",
          "type": "address"
        }
      ],
      "name": "isSigner",
      "outputs": [
        {
          "internalType": "bool",
          "name": "",
          "type": "bool"
        }
      ],
      "stateMutability": "view",
      "type": "function"
    },
    {
      "inputs": [
        {
          "internalType": "address",
          "name": "_wallet",
          "type": "address"
        }
      ],
      "name": "lock",
      "outputs": [],
      "stateMutability": "nonpayable",
      "type": "function"
    },
    {
      "inputs": [],
      "name": "lockedSecurityPeriod",
      "outputs": [
        {
          "internalType": "uint256",
          "name": "",
          "type": "uint256"
        }
      ],
      "stateMutability": "view",
      "type": "function"
    },
    {
      "inputs": [
        {
          "internalType": "address",
          "name": "_wallet",
          "type": "address"
        },
        {
          "components": [
            {
              "internalType": "address",
              "name": "to",
              "type": "address"
            },
            {
              "internalType": "uint256",
              "name": "value",
              "type": "uint256"
            },
            {
              "internalType": "bytes",
              "name": "data",
              "type": "bytes"
            },
            {
              "internalType": "uint256",
              "name": "sequenceId",
              "type": "uint256"
            },
            {
              "internalType": "uint256",
              "name": "expireTime",
              "type": "uint256"
            }
          ],
          "internalType": "struct BaseModule.CallArgs",
          "name": "_args",
          "type": "tuple"
        },
        {
          "internalType": "bytes",
          "name": "_signatures",
          "type": "bytes"
        }
      ],
      "name": "multicall",
      "outputs": [],
      "stateMutability": "nonpayable",
      "type": "function"
    },
    {
      "inputs": [
        {
          "internalType": "address",
          "name": "",
          "type": "address"
        }
      ],
      "name": "recoveries",
      "outputs": [
        {
          "internalType": "uint256",
          "name": "activeAt",
          "type": "uint256"
        },
        {
          "internalType": "address",
          "name": "recovery",
          "type": "address"
        }
      ],
      "stateMutability": "view",
      "type": "function"
    },
    {
      "inputs": [],
      "name": "recoverySecurityPeriod",
      "outputs": [
        {
          "internalType": "uint256",
          "name": "",
          "type": "uint256"
        }
      ],
      "stateMutability": "view",
      "type": "function"
    },
    {
      "inputs": [
        {
          "internalType": "address",
          "name": "_wallet",
          "type": "address"
        }
      ],
      "name": "removeModule",
      "outputs": [],
      "stateMutability": "nonpayable",
      "type": "function"
    },
    {
      "inputs": [
        {
          "internalType": "address",
          "name": "_wallet",
          "type": "address"
        },
        {
          "internalType": "address",
          "name": "_oldSigner",
          "type": "address"
        }
      ],
      "name": "removeSigner",
      "outputs": [],
      "stateMutability": "nonpayable",
      "type": "function"
    },
    {
      "inputs": [
        {
          "internalType": "address",
          "name": "_wallet",
          "type": "address"
        },
        {
          "internalType": "address",
          "name": "_newSigner",
          "type": "address"
        },
        {
          "internalType": "address",
          "name": "_oldSigner",
          "type": "address"
        }
      ],
      "name": "replaceSigner",
      "outputs": [],
      "stateMutability": "nonpayable",
      "type": "function"
    },
    {
      "inputs": [
        {
          "internalType": "address",
          "name": "_wallet",
          "type": "address"
        },
        {
          "internalType": "uint256",
          "name": "_lockedSecurityPeriod",
          "type": "uint256"
        },
        {
          "internalType": "uint256",
          "name": "_recoverySecurityPeriod",
          "type": "uint256"
        }
      ],
      "name": "setSecurityPeriod",
      "outputs": [],
      "stateMutability": "nonpayable",
      "type": "function"
    },
    {
      "inputs": [
        {
          "internalType": "address",
          "name": "",
          "type": "address"
        }
      ],
      "name": "signerConfInfos",
      "outputs": [
        {
          "internalType": "bool",
          "name": "exist",
          "type": "bool"
        },
        {
          "internalType": "uint256",
          "name": "lockedPeriod",
          "type": "uint256"
        },
        {
          "internalType": "uint256",
          "name": "recoveryPeriod",
          "type": "uint256"
        }
      ],
      "stateMutability": "view",
      "type": "function"
    },
    {
      "inputs": [
        {
          "internalType": "address",
          "name": "_wallet",
          "type": "address"
        },
        {
          "internalType": "address",
          "name": "_recovery",
          "type": "address"
        }
      ],
      "name": "triggerRecovery",
      "outputs": [],
      "stateMutability": "nonpayable",
      "type": "function"
    },
    {
      "inputs": [
        {
          "internalType": "address",
          "name": "_wallet",
          "type": "address"
        }
      ],
      "name": "unlock",
      "outputs": [],
      "stateMutability": "nonpayable",
      "type": "function"
    }
  ],
  "bytecode": "0x608060405234801561001057600080fd5b50613c1e806100206000396000f3fe608060405234801561001057600080fd5b50600436106101735760003560e01c80637e3ba6af116100de578063a063246111610097578063c90db44711610071578063c90db44714610365578063cf0c137214610378578063f435f5a7146103c5578063fc1d47b8146103d857610173565b8063a063246114610336578063c0d91eaf14610349578063c6de2a3f1461035c57610173565b80637e3ba6af146102b757806383765b99146102d757806389ff98e4146102ea5780638d20efa7146102fd5780638f29d530146103105780639de9e4001461032357610173565b806353a2a3f81161013057806353a2a3f8146101f557806368f3073f146102485780636fa30cd41461025b57806378b248e41461026e5780637a1ac61e146102915780637b551f0d146102a457610173565b80630fb436eb1461017857806313f71305146101945780632239f556146101a95780632f6c493c146101bc5780633bc2c4a7146101cf5780634a4fbeec146101e2575b600080fd5b61018160035481565b6040519081526020015b60405180910390f35b6101a76101a2366004613491565b6103eb565b005b6101a76101b736600461324a565b6105f2565b6101a76101ca366004613212565b6109ff565b6101a76101dd366004613212565b610c37565b6101816101f0366004613212565b610dd9565b61022b610203366004613212565b60066020526000908152604090206001810154600282015460039092015460ff909116919083565b60408051931515845260208401929092529082015260600161018b565b610181610256366004613212565b610e54565b6101a76102693660046133bd565b610f25565b61028161027c36600461324a565b61123f565b604051901515815260200161018b565b6101a761029f366004613491565b6112f9565b6101a76102b2366004613282565b6113d9565b6102ca6102c5366004613212565b6117ff565b60405161018b9190613829565b6101a76102e536600461324a565b611875565b6101a76102f83660046132cc565b611cfb565b6101a761030b36600461324a565b611f10565b61028161031e366004613212565b6123aa565b610181610331366004613212565b612404565b6101a7610344366004613212565b6124d5565b6101a761035736600461336f565b612585565b61018160045481565b6101a7610373366004613212565b6128a0565b6103a8610386366004613212565b600560205260009081526040902080546001909101546001600160a01b031682565b604080519283526001600160a01b0390911660208301520161018b565b6101a76103d3366004613212565b6129d2565b6102816103e6366004613561565b612be8565b82336001600160a01b0382161461041d5760405162461bcd60e51b815260040161041490613a3f565b60405180910390fd5b83806001600160a01b031663a4e2d6346040518163ffffffff1660e01b815260040160206040518083038186803b15801561045757600080fd5b505afa15801561046b573d6000803e3d6000fd5b505050506040513d601f19601f8201168201806040525081019061048f91906136a2565b156104d05760405162461bcd60e51b815260206004820152601160248201527010934e881dd85b1b195d081b1bd8dad959607a1b6044820152606401610414565b6001600160a01b0385166000908152600660205260409020600181015460ff1661050c5760405162461bcd60e51b81526004016104149061388e565b848160020154141580610523575083816003015414155b61057a5760405162461bcd60e51b815260206004820152602260248201527f534d3a4d757374206368616e6765206174206c65617374206f6e6520706572696044820152611bd960f21b6064820152608401610414565b8481600201541461058d57600281018590555b838160030154146105a057600381018490555b604080516001600160a01b0388168152602081018790529081018590527fd93dd93d4d43d8f00148e4cb11174f8092cbda4e73ebe3a309b5ca984611e2529060600160405180910390a1505050505050565b81336001600160a01b0316816001600160a01b0316638da5cb5b6040518163ffffffff1660e01b815260040160206040518083038186803b15801561063657600080fd5b505afa15801561064a573d6000803e3d6000fd5b505050506040513d601f19601f8201168201806040525081019061066e919061322e565b6001600160a01b0316146106945760405162461bcd60e51b815260040161041490613928565b826000816001600160a01b031663a4e2d6346040518163ffffffff1660e01b815260040160206040518083038186803b1580156106d057600080fd5b505afa1580156106e4573d6000803e3d6000fd5b505050506040513d601f19601f8201168201806040525081019061070891906136a2565b9050610715600282613b7d565b156107325760405162461bcd60e51b8152600401610414906138ba565b846000816001600160a01b031663a4e2d6346040518163ffffffff1660e01b815260040160206040518083038186803b15801561076e57600080fd5b505afa158015610782573d6000803e3d6000fd5b505050506040513d601f19601f820116820180604052508101906107a691906136a2565b9050806002141580156107ba575080600314155b6107d65760405162461bcd60e51b8152600401610414906139f2565b6107df87612c5c565b6107fb5760405162461bcd60e51b815260040161041490613953565b6001600160a01b0386161580159061081a5750610818878761123f565b155b6108365760405162461bcd60e51b8152600401610414906139a8565b6001600160a01b0387166000908152600660205260409020600181015460ff166108b05760405162461bcd60e51b815260206004820152602560248201527f534d3a2077616c6c6574207369676e657220696e666f206e6f7420636f6e73696044820152641cdd195b9d60da1b6064820152608401610414565b80546001810182556000828152602080822090920180546001600160a01b0319166001600160a01b038b8116919091179091558a16815260069091526040902081548291906109029082908490613130565b50600182810154908201805460ff191660ff90921615159190911790556002808301548183015560039283015492909101919091558101546001600160a01b0389169063a0adf89f906109559042613af3565b6040516001600160e01b031960e084901b16815261097f919063111cfaab60e11b90600401613876565b600060405180830381600087803b15801561099957600080fd5b505af11580156109ad573d6000803e3d6000fd5b5050604080516001600160a01b03808d1682528b1660208201527f12146497b3b826918ec47f0cac7272a09ed06b30c16c030e99ec48ff5dd60b47935001905060405180910390a15050505050505050565b80336001600160a01b0316816001600160a01b0316638da5cb5b6040518163ffffffff1660e01b815260040160206040518083038186803b158015610a4357600080fd5b505afa158015610a57573d6000803e3d6000fd5b505050506040513d601f19601f82011682018060405250810190610a7b919061322e565b6001600160a01b03161480610a955750610a95813361123f565b610ab15760405162461bcd60e51b8152600401610414906138f1565b816000816001600160a01b031663a4e2d6346040518163ffffffff1660e01b815260040160206040518083038186803b158015610aed57600080fd5b505afa158015610b01573d6000803e3d6000fd5b505050506040513d601f19601f82011682018060405250810190610b2591906136a2565b9050610b32600282613b7d565b600114610b8c5760405162461bcd60e51b815260206004820152602260248201527f424d3a2077616c6c6574206d75737420626520676c6f62616c6c79206c6f636b604482015261195960f21b6064820152608401610414565b60405163a0adf89f60e01b81526001600160a01b0385169063a0adf89f90610bc29060009063f435f5a760e01b90600401613876565b600060405180830381600087803b158015610bdc57600080fd5b505af1158015610bf0573d6000803e3d6000fd5b50506040516001600160a01b03871681527f7e6adfec7e3f286831a0200a754127c171a2da564078722cb97704741bbdb0ea9250602001905060405180910390a150505050565b610c40816123aa565b610c8c5760405162461bcd60e51b815260206004820152601b60248201527f534d3a204e6f2076616c6964207265636f7665727920666f756e6400000000006044820152606401610414565b6001600160a01b038181166000818152600560209081526040918290208251808401845281548152600190910154909416908401819052905163a39a45b760e01b8152600481019190915263a39a45b790602401600060405180830381600087803b158015610cfa57600080fd5b505af1158015610d0e573d6000803e3d6000fd5b505050506001600160a01b03821660008181526005602052604080822082815560010180546001600160a01b03191690555163a0adf89f60e01b815263a0adf89f91610d659163111cfaab60e11b90600401613876565b600060405180830381600087803b158015610d7f57600080fd5b505af1158015610d93573d6000803e3d6000fd5b50506040516001600160a01b03851681527ffcd2de31341801b7fd80895c780aae50c1505fd674ff1b9b9764c56c633434d6925060200190505b60405180910390a15050565b6000816001600160a01b031663a4e2d6346040518163ffffffff1660e01b815260040160206040518083038186803b158015610e1457600080fd5b505afa158015610e28573d6000803e3d6000fd5b505050506040513d601f19601f82011682018060405250810190610e4c91906136a2565b90505b919050565b6001600160a01b03811660009081526006602090815260408083208151815460a09481028201850190935260808101838152859491938492849190840182828015610ec857602002820191906000526020600020905b81546001600160a01b03168152600190910190602001808311610eaa575b5050509183525050600182015460ff16151560208083019190915260028301546040830152600390920154606090910152810151909150610f1b5760405162461bcd60e51b81526004016104149061388e565b6040015192915050565b82336001600160a01b0316816001600160a01b0316638da5cb5b6040518163ffffffff1660e01b815260040160206040518083038186803b158015610f6957600080fd5b505afa158015610f7d573d6000803e3d6000fd5b505050506040513d601f19601f82011682018060405250810190610fa1919061322e565b6001600160a01b03161480610fbb5750610fbb813361123f565b610fd75760405162461bcd60e51b8152600401610414906138f1565b6001600160a01b0384166000908152600660205260409020600181015460ff166110385760405162461bcd60e51b815260206004820152601260248201527114d34e881a5b9d985b1a59081dd85b1b195d60721b6044820152606401610414565b805460009060029061104b906001613af3565b6110559190613b0b565b90506000604185516110679190613b0b565b9050818110156110b95760405162461bcd60e51b815260206004820152601960248201527f534d3a204e6f7420656e6f756768207369676e617475726573000000000000006044820152606401610414565b60006110c487612cd5565b905060008060005b848110156111f05760006110e1858b84612d2c565b9050826001600160a01b0316816001600160a01b0316116111445760405162461bcd60e51b815260206004820152601c60248201527f534d3a204261646c79206f726465726564207369676e617475726573000000006044820152606401610414565b8092506111ad886000018054806020026020016040519081016040528092919081815260200182805480156111a257602002820191906000526020600020905b81546001600160a01b03168152600190910190602001808311611184575b505050505082612be8565b156111dd576111bd600185613af3565b93508684106111dd576111d08c8c612dee565b5050505050505050611239565b50806111e881613b62565b9150506110cc565b5060405162461bcd60e51b815260206004820152601f60248201527f534d3a204e6f7420656e6f7567682076616c6964207369676e617475726573006044820152606401610414565b50505050565b6001600160a01b03821660009081526006602090815260408083208151815460a094810282018501909352608081018381528594919384928491908401828280156112b357602002820191906000526020600020905b81546001600160a01b03168152600190910190602001808311611295575b5050509183525050600182015460ff16151560208201526002820154604082015260039091015460609091015280519091506112ef9084612be8565b9150505b92915050565b600254610100900460ff166113145760025460ff1615611318565b303b155b61137b5760405162461bcd60e51b815260206004820152602e60248201527f496e697469616c697a61626c653a20636f6e747261637420697320616c72656160448201526d191e481a5b9a5d1a585b1a5e995960921b6064820152608401610414565b600254610100900460ff1615801561139d576002805461ffff19166101011790555b600080546001600160a01b0319166001600160a01b038616179055600483905560038290558015611239576002805461ff001916905550505050565b82336001600160a01b0316816001600160a01b0316638da5cb5b6040518163ffffffff1660e01b815260040160206040518083038186803b15801561141d57600080fd5b505afa158015611431573d6000803e3d6000fd5b505050506040513d601f19601f82011682018060405250810190611455919061322e565b6001600160a01b03161461147b5760405162461bcd60e51b815260040161041490613928565b836000816001600160a01b031663a4e2d6346040518163ffffffff1660e01b815260040160206040518083038186803b1580156114b757600080fd5b505afa1580156114cb573d6000803e3d6000fd5b505050506040513d601f19601f820116820180604052508101906114ef91906136a2565b90506114fc600282613b7d565b156115195760405162461bcd60e51b8152600401610414906138ba565b856000816001600160a01b031663a4e2d6346040518163ffffffff1660e01b815260040160206040518083038186803b15801561155557600080fd5b505afa158015611569573d6000803e3d6000fd5b505050506040513d601f19601f8201168201806040525081019061158d91906136a2565b9050806002141580156115a1575080600314155b6115bd5760405162461bcd60e51b8152600401610414906139f2565b6115c688612c5c565b6115e25760405162461bcd60e51b815260040161041490613953565b6001600160a01b038716158015906115ff57506115ff888761123f565b61161b5760405162461bcd60e51b8152600401610414906139a8565b6001600160a01b0388166000908152600660205260409020600181015460ff166116575760405162461bcd60e51b81526004016104149061388e565b805460009061166890600190613b1f565b905060005b825461167b90600190613b1f565b811015611726578260000181815481106116a557634e487b7160e01b600052603260045260246000fd5b6000918252602090912001546001600160a01b038a81169116141561171457898360000182815481106116e857634e487b7160e01b600052603260045260246000fd5b600091825260209091200180546001600160a01b0319166001600160a01b039290921691909117905550805b8061171e81613b62565b91505061166d565b50896001600160a01b031663a0adf89f8360020154426117469190613af3565b6040516001600160e01b031960e084901b168152611770919063111cfaab60e11b90600401613876565b600060405180830381600087803b15801561178a57600080fd5b505af115801561179e573d6000803e3d6000fd5b5050604080516001600160a01b03808f168252808e1660208301528c16918101919091527f37852b11621736fac970fe97a5b848e91df7ca7dcf4f4804dcb59fb192104d2d925060600190505b60405180910390a150505050505050505050565b6001600160a01b03811660009081526006602090815260409182902080548351818402810184019094528084526060939283018282801561186957602002820191906000526020600020905b81546001600160a01b0316815260019091019060200180831161184b575b50505050509050919050565b81336001600160a01b0382161461189e5760405162461bcd60e51b815260040161041490613a3f565b826000816001600160a01b031663a4e2d6346040518163ffffffff1660e01b815260040160206040518083038186803b1580156118da57600080fd5b505afa1580156118ee573d6000803e3d6000fd5b505050506040513d601f19601f8201168201806040525081019061191291906136a2565b905061191f600282613b7d565b1561193c5760405162461bcd60e51b8152600401610414906138ba565b846000816001600160a01b031663a4e2d6346040518163ffffffff1660e01b815260040160206040518083038186803b15801561197857600080fd5b505afa15801561198c573d6000803e3d6000fd5b505050506040513d601f19601f820116820180604052508101906119b091906136a2565b9050806002141580156119c4575080600314155b6119e05760405162461bcd60e51b8152600401610414906139f2565b6001600160a01b038616611a2f5760405162461bcd60e51b815260206004820152601660248201527529a69d1024b73b30b634b2103732bb9039b4b3b732b960511b6044820152606401610414565b866001600160a01b0316638da5cb5b6040518163ffffffff1660e01b815260040160206040518083038186803b158015611a6857600080fd5b505afa158015611a7c573d6000803e3d6000fd5b505050506040513d601f19601f82011682018060405250810190611aa0919061322e565b6001600160a01b0316866001600160a01b03161415611b0d5760405162461bcd60e51b8152602060048201526024808201527f534d3a206f776e65722063616e206e6f7420747269676765722061207265636f6044820152637665727960e01b6064820152608401610414565b611b17878761123f565b15611b755760405162461bcd60e51b815260206004820152602860248201527f534d3a206e65774f776e65722063616e277420626520616e206578697374696e604482015267339039b4b3b732b960c11b6064820152608401610414565b611b7e876123aa565b15611bcb5760405162461bcd60e51b815260206004820152601c60248201527f534d3a2073686f756c64206e6f742074726967676572207477696365000000006044820152606401610414565b6001600160a01b0387166000818152600660205260409020600281015490919063a0adf89f90611bfb9042613af3565b6040516001600160e01b031960e084901b168152611c25919063111cfaab60e11b90600401613876565b600060405180830381600087803b158015611c3f57600080fd5b505af1158015611c53573d6000803e3d6000fd5b505050506000816003015442611c699190613af3565b6040805180820182528281526001600160a01b038b811660208084018281528f8416600081815260058452879020955186559051600190950180546001600160a01b03191695909416949094179092558351928352908201529192507fd7170f681aaf2414cac5ce9811b90655ed4e8deaa1f57051d5773acdd69fc3fd910160405180910390a1505050505050505050565b83336001600160a01b03821614611d245760405162461bcd60e51b815260040161041490613a3f565b84806001600160a01b031663a4e2d6346040518163ffffffff1660e01b815260040160206040518083038186803b158015611d5e57600080fd5b505afa158015611d72573d6000803e3d6000fd5b505050506040513d601f19601f82011682018060405250810190611d9691906136a2565b15611dd75760405162461bcd60e51b815260206004820152601160248201527010934e881dd85b1b195d081b1bd8dad959607a1b6044820152606401610414565b600054604051630bcd4ebb60e01b81526001600160a01b03878116600483015290911690630bcd4ebb9060240160206040518083038186803b158015611e1c57600080fd5b505afa158015611e30573d6000803e3d6000fd5b505050506040513d601f19601f82011682018060405250810190611e54919061360f565b611ea05760405162461bcd60e51b815260206004820152601c60248201527f534d3a206d6f64756c65206973206e6f742072656769737465726564000000006044820152606401610414565b604051636d1c590560e11b81526001600160a01b0387169063da38b20a90611ed5908a9089906001908a908a90600401613749565b600060405180830381600087803b158015611eef57600080fd5b505af1158015611f03573d6000803e3d6000fd5b5050505050505050505050565b81336001600160a01b0316816001600160a01b0316638da5cb5b6040518163ffffffff1660e01b815260040160206040518083038186803b158015611f5457600080fd5b505afa158015611f68573d6000803e3d6000fd5b505050506040513d601f19601f82011682018060405250810190611f8c919061322e565b6001600160a01b031614611fb25760405162461bcd60e51b815260040161041490613928565b826000816001600160a01b031663a4e2d6346040518163ffffffff1660e01b815260040160206040518083038186803b158015611fee57600080fd5b505afa158015612002573d6000803e3d6000fd5b505050506040513d601f19601f8201168201806040525081019061202691906136a2565b9050612033600282613b7d565b156120505760405162461bcd60e51b8152600401610414906138ba565b846000816001600160a01b031663a4e2d6346040518163ffffffff1660e01b815260040160206040518083038186803b15801561208c57600080fd5b505afa1580156120a0573d6000803e3d6000fd5b505050506040513d601f19601f820116820180604052508101906120c491906136a2565b9050806002141580156120d8575080600314155b6120f45760405162461bcd60e51b8152600401610414906139f2565b6120fd87612c5c565b6121195760405162461bcd60e51b815260040161041490613953565b612123878761123f565b6121675760405162461bcd60e51b815260206004820152601560248201527429a69d1034b73b30b634b21037b63229b4b3b732b960591b6044820152606401610414565b6001600160a01b0387166000908152600660205260409020600181015460ff166121a35760405162461bcd60e51b81526004016104149061388e565b80546000906121b490600190613b1f565b905060008260000182815481106121db57634e487b7160e01b600052603260045260246000fd5b60009182526020822001546001600160a01b031691505b835461220090600190613b1f565b8110156122ab5783600001818154811061222a57634e487b7160e01b600052603260045260246000fd5b6000918252602090912001546001600160a01b038b811691161415612299578184600001828154811061226d57634e487b7160e01b600052603260045260246000fd5b600091825260209091200180546001600160a01b0319166001600160a01b039290921691909117905550815b806122a381613b62565b9150506121f2565b5082548390806122cb57634e487b7160e01b600052603160045260246000fd5b600082815260209020810160001990810180546001600160a01b031916905501905560028301546001600160a01b038b169063a0adf89f9061230d9042613af3565b6040516001600160e01b031960e084901b168152612337919063111cfaab60e11b90600401613876565b600060405180830381600087803b15801561235157600080fd5b505af1158015612365573d6000803e3d6000fd5b5050604080516001600160a01b03808f1682528d1660208201527f98d1ebbe00ae92a5de96a0f49742a8afa89f42363592bc2e7cfaaed68b45e7a693500190506117eb565b6001600160a01b03808216600090815260056020908152604080832081518083019092528054808352600190910154909416918101919091529091158015906123fd5750805167ffffffffffffffff4216105b9392505050565b6001600160a01b03811660009081526006602090815260408083208151815460a0948102820185019093526080810183815285949193849284919084018282801561247857602002820191906000526020600020905b81546001600160a01b0316815260019091019060200180831161245a575b5050509183525050600182015460ff161515602080830191909152600283015460408301526003909201546060909101528101519091506124cb5760405162461bcd60e51b81526004016104149061388e565b6060015192915050565b80336001600160a01b038216146124fe5760405162461bcd60e51b815260040161041490613a3f565b6001600160a01b03821660009081526006602052604090206001015460ff166125395760405162461bcd60e51b81526004016104149061388e565b61254282612ed7565b6001600160a01b0382166000908152600660205260408120906125658282613180565b5060018101805460ff191690556000600282018190556003909101555050565b81336001600160a01b038216146125ae5760405162461bcd60e51b815260040161041490613a3f565b6125b783612c5c565b1561261b5760405162461bcd60e51b815260206004820152602e60248201527f534d3a2073686f756c64206e6f74206164642073616d65206d6f64756c65207460448201526d6f2077616c6c657420747769636560901b6064820152608401610414565b6001600160a01b03831660009081526006602052604090206001015460ff16156126935760405162461bcd60e51b8152602060048201526024808201527f534d3a2077616c6c65742065786973747320696e207369676e6572436f6e66496044820152636e666f7360e01b6064820152608401610414565b61269c83613019565b6000828060200190518101906126b291906134c5565b6001600160a01b03851660009081526006602052604081209192505b825181101561283e57816000018382815181106126fb57634e487b7160e01b600052603260045260246000fd5b602090810291909101810151825460018101845560009384529282902090920180546001600160a01b0319166001600160a01b0393841617905560408051638da5cb5b60e01b8152905192891692638da5cb5b92600480840193919291829003018186803b15801561276c57600080fd5b505afa158015612780573d6000803e3d6000fd5b505050506040513d601f19601f820116820180604052508101906127a4919061322e565b6001600160a01b03168382815181106127cd57634e487b7160e01b600052603260045260246000fd5b60200260200101516001600160a01b0316141561282c5760405162461bcd60e51b815260206004820152601a60248201527f534d3a207369676e65722063616e6e2774206265206f776e65720000000000006044820152606401610414565b8061283681613b62565b9150506126ce565b506001818101805460ff19169091179055600454600282015560038054908201556040517fa8d2f5a0d7d2b8f16c64d920753528ba37b74315cce0ad809a556564e88ddd5890612891908790879061379b565b60405180910390a15050505050565b80336001600160a01b038216146128c95760405162461bcd60e51b815260040161041490613a3f565b6128d2826123aa565b6129135760405162461bcd60e51b8152602060048201526012602482015271534d3a206e6f74207265636f766572696e6760701b6044820152606401610414565b6001600160a01b03821660008181526005602052604080822082815560010180546001600160a01b03191690555163a0adf89f60e01b815263a0adf89f916129669163111cfaab60e11b90600401613876565b600060405180830381600087803b15801561298057600080fd5b505af1158015612994573d6000803e3d6000fd5b50506040516001600160a01b03851681527f8154b6c5e1fc90d44b49808ef93f9739148d0821411890f8cd684385e24b9f1e92506020019050610dcd565b80336001600160a01b0316816001600160a01b0316638da5cb5b6040518163ffffffff1660e01b815260040160206040518083038186803b158015612a1657600080fd5b505afa158015612a2a573d6000803e3d6000fd5b505050506040513d601f19601f82011682018060405250810190612a4e919061322e565b6001600160a01b03161480612a685750612a68813361123f565b612a845760405162461bcd60e51b8152600401610414906138f1565b816000816001600160a01b031663a4e2d6346040518163ffffffff1660e01b815260040160206040518083038186803b158015612ac057600080fd5b505afa158015612ad4573d6000803e3d6000fd5b505050506040513d601f19601f82011682018060405250810190612af891906136a2565b9050612b05600282613b7d565b15612b225760405162461bcd60e51b8152600401610414906138ba565b6001600160a01b0384166000818152600660205260409020600281015490919063a0adf89f90612b529042613af3565b6040516001600160e01b031960e084901b168152612b7c919063f435f5a760e01b90600401613876565b600060405180830381600087803b158015612b9657600080fd5b505af1158015612baa573d6000803e3d6000fd5b50506040516001600160a01b03881681527f44427e3003a08f22cf803894075ac0297524e09e521fc1c15bc91741ce3dc15992506020019050612891565b6000805b8351811015612c5257826001600160a01b0316848281518110612c1f57634e487b7160e01b600052603260045260246000fd5b60200260200101516001600160a01b03161415612c405760019150506112f3565b80612c4a81613b62565b915050612bec565b5060009392505050565b6000805b600154811015612ccc57826001600160a01b031660018281548110612c9557634e487b7160e01b600052603260045260246000fd5b6000918252602090912001546001600160a01b03161415612cba576001915050610e4f565b80612cc481613b62565b915050612c60565b50600092915050565b80516020808301516040808501516060860151915160009594919291612d0b91601960f81b9188918891889188918891016136e6565b60405160208183030381529060405280519060200120945050505050919050565b600080600080612d3c86866130c0565b6040517f19457468657265756d205369676e6564204d6573736167653a0a3332000000006020820152603c81018b90529295509093509150600190605c0160408051601f198184030181528282528051602091820120600084529083018083525260ff861690820152606081018490526080810183905260a0016020604051602081039080840390855afa158015612dd8573d6000803e3d6000fd5b5050604051601f19015198975050505050505050565b8051602082015160408084015160608501516080860151925163b14f6c8360e01b8152919290916001600160a01b0388169063b14f6c8390612e3c90889088908890879089906004016137ee565b600060405180830381600087803b158015612e5657600080fd5b505af1158015612e6a573d6000803e3d6000fd5b505050506040513d6000823e601f3d908101601f19168201604052612e92919081019061362f565b507f16a95b1f4b59f6a32941b3b48a50be9d4d9f9c4da4cb504681489daabf991928858585604051612ec6939291906137c7565b60405180910390a150505050505050565b60018054600091612ee791613b1f565b905060005b81811015612fd357826001600160a01b031660018281548110612f1f57634e487b7160e01b600052603260045260246000fd5b6000918252602090912001546001600160a01b03161415612fc15760018281548110612f5b57634e487b7160e01b600052603260045260246000fd5b600091825260209091200154600180546001600160a01b039092169183908110612f9557634e487b7160e01b600052603260045260246000fd5b600091825260209091200180546001600160a01b0319166001600160a01b039290921691909117905550805b80612fcb81613b62565b915050612eec565b506001805480612ff357634e487b7160e01b600052603160045260246000fd5b600082815260209020810160001990810180546001600160a01b03191690550190555050565b61302281612c5c565b1561306f5760405162461bcd60e51b815260206004820152601d60248201527f424d3a2077616c6c657420616c726561647920726567697374657265640000006044820152606401610414565b6001805480820182556000919091527fb10e2d527612073b26eecdfd717e6a320cf44b4afac2b0732d9fcbe2b7fa0cf60180546001600160a01b0319166001600160a01b0392909216919091179055565b6041808202830160208101516040820151919092015160ff169190601b8314806130ed57508260ff16601c145b6131295760405162461bcd60e51b815260206004820152600d60248201526c29a69d1024b73b30b634b2103b60991b6044820152606401610414565b9250925092565b8280548282559060005260206000209081019282156131705760005260206000209182015b82811115613170578254825591600101919060010190613155565b5061317c9291506131a1565b5090565b508054600082559060005260206000209081019061319e91906131a1565b50565b5b8082111561317c57600081556001016131a2565b8035610e4f81613bd3565b600082601f8301126131d1578081fd5b81356131e46131df82613acb565b613a76565b8181528460208386010111156131f8578283fd5b816020850160208301379081016020019190915292915050565b600060208284031215613223578081fd5b81356123fd81613bd3565b60006020828403121561323f578081fd5b81516123fd81613bd3565b6000806040838503121561325c578081fd5b823561326781613bd3565b9150602083013561327781613bd3565b809150509250929050565b600080600060608486031215613296578081fd5b83356132a181613bd3565b925060208401356132b181613bd3565b915060408401356132c181613bd3565b809150509250925092565b6000806000806000608086880312156132e3578081fd5b85356132ee81613bd3565b945060208601356132fe81613bd3565b9350604086013561330e81613bd3565b9250606086013567ffffffffffffffff8082111561332a578283fd5b818801915088601f83011261333d578283fd5b81358181111561334b578384fd5b89602082850101111561335c578384fd5b9699959850939650602001949392505050565b60008060408385031215613381578182fd5b823561338c81613bd3565b9150602083013567ffffffffffffffff8111156133a7578182fd5b6133b3858286016131c1565b9150509250929050565b6000806000606084860312156133d1578283fd5b83356133dc81613bd3565b9250602084013567ffffffffffffffff808211156133f8578384fd5b9085019060a0828803121561340b578384fd5b61341560a0613a76565b823561342081613bd3565b81526020838101359082015260408301358281111561343d578586fd5b613449898286016131c1565b604083015250606083013560608201526080830135608082015280945050604086013591508082111561347a578283fd5b50613487868287016131c1565b9150509250925092565b6000806000606084860312156134a5578081fd5b83356134b081613bd3565b95602085013595506040909401359392505050565b600060208083850312156134d7578182fd5b825167ffffffffffffffff8111156134ed578283fd5b8301601f810185136134fd578283fd5b805161350b6131df82613aa7565b80828252848201915084840188868560051b870101111561352a578687fd5b8694505b8385101561355557805161354181613bd3565b83526001949094019391850191850161352e565b50979650505050505050565b60008060408385031215613573578182fd5b823567ffffffffffffffff811115613589578283fd5b8301601f81018513613599578283fd5b803560206135a96131df83613aa7565b80838252828201915082850189848660051b88010111156135c8578788fd5b8795505b848610156135f35780356135df81613bd3565b8352600195909501949183019183016135cc565b50955061360390508682016131b6565b93505050509250929050565b600060208284031215613620578081fd5b815180151581146123fd578182fd5b600060208284031215613640578081fd5b815167ffffffffffffffff811115613656578182fd5b8201601f81018413613666578182fd5b80516136746131df82613acb565b818152856020838501011115613688578384fd5b613699826020830160208601613b36565b95945050505050565b6000602082840312156136b3578081fd5b5051919050565b600081518084526136d2816020860160208601613b36565b601f01601f19169290920160200192915050565b6001600160f81b0319878116825286166001820152606085901b6bffffffffffffffffffffffff19166002820152601681018490528251600090613731816036850160208801613b36565b60369201918201929092526056019695505050505050565b6001600160a01b03868116825285166020820152831515604082015260806060820181905281018290526000828460a084013781830160a090810191909152601f909201601f19160101949350505050565b6001600160a01b03831681526040602082018190526000906137bf908301846136ba565b949350505050565b600060018060a01b03851682528360208301526060604083015261369960608301846136ba565b600060018060a01b038716825285602083015260a0604083015261381560a08301866136ba565b606083019490945250608001529392505050565b6020808252825182820181905260009190848201906040850190845b8181101561386a5783516001600160a01b031683529284019291840191600101613845565b50909695505050505050565b9182526001600160e01b031916602082015260400190565b60208082526012908201527114d34e88125b9d985b1a59081dd85b1b195d60721b604082015260600190565b6020808252601a908201527f424d3a2077616c6c6574206c6f636b656420676c6f62616c6c79000000000000604082015260600190565b60208082526019908201527f534d3a206d757374206265207369676e65722f77616c6c657400000000000000604082015260600190565b60208082526011908201527021269d1036bab9ba1031329037bbb732b960791b604082015260600190565b60208082526035908201527f534d3a2077616c6c65742073686f756c642062652072656769737465726564206040820152746265666f726520616464696e67207369676e65727360581b606082015260800190565b6020808252602a908201527f534d3a20696e76616c6964206e65775369676e6572206f7220696e76616c69646040820152691037b63229b4b3b732b960b11b606082015260800190565b6020808252602d908201527f424d3a2077616c6c6574206c6f636b6564206279207369676e65722072656c6160408201526c3a32b21037b832b930ba34b7b760991b606082015260800190565b60208082526019908201527f424d3a2063616c6c6572206d7573742062652077616c6c657400000000000000604082015260600190565b604051601f8201601f1916810167ffffffffffffffff81118282101715613a9f57613a9f613bbd565b604052919050565b600067ffffffffffffffff821115613ac157613ac1613bbd565b5060051b60200190565b600067ffffffffffffffff821115613ae557613ae5613bbd565b50601f01601f191660200190565b60008219821115613b0657613b06613b91565b500190565b600082613b1a57613b1a613ba7565b500490565b600082821015613b3157613b31613b91565b500390565b60005b83811015613b51578181015183820152602001613b39565b838111156112395750506000910152565b6000600019821415613b7657613b76613b91565b5060010190565b600082613b8c57613b8c613ba7565b500690565b634e487b7160e01b600052601160045260246000fd5b634e487b7160e01b600052601260045260246000fd5b634e487b7160e01b600052604160045260246000fd5b6001600160a01b038116811461319e57600080fdfea2646970667358221220737e9d208fd52526241971e4b2180d9460c4d6b12bcae40516cd9e622f77edf264736f6c63430008030033",
  "linkReferences": {},
  "deployedLinkReferences": {}
}