{
  "_format": "hh-sol-artifact-1",
  "contractName": "SecurityModule",
  "sourceName": "contracts/SecurityModule.sol",
  "abi": [
    {
      "inputs": [],
      "stateMutability": "nonpayable",
      "type": "constructor"
    },
    {
      "anonymous": false,
      "inputs": [
        {
          "indexed": false,
          "internalType": "address",
          "name": "to",
          "type": "address"
        },
        {
          "indexed": false,
          "internalType": "uint256",
          "name": "value",
          "type": "uint256"
        },
        {
          "indexed": false,
          "internalType": "bytes",
          "name": "data",
          "type": "bytes"
        }
      ],
      "name": "MultiCalled",
      "type": "event"
    },
    {
      "inputs": [
        {
          "internalType": "address",
          "name": "_wallet",
          "type": "address"
        },
        {
          "internalType": "address",
          "name": "_module",
          "type": "address"
        },
        {
          "internalType": "bytes",
          "name": "data",
          "type": "bytes"
        }
      ],
      "name": "addModule",
      "outputs": [],
      "stateMutability": "nonpayable",
      "type": "function"
    },
    {
      "inputs": [
        {
          "internalType": "address",
          "name": "_wallet",
          "type": "address"
        },
        {
          "internalType": "address",
          "name": "signer",
          "type": "address"
        }
      ],
      "name": "addSigner",
      "outputs": [],
      "stateMutability": "nonpayable",
      "type": "function"
    },
    {
      "inputs": [
        {
          "internalType": "address",
          "name": "_wallet",
          "type": "address"
        }
      ],
      "name": "cancelRecovery",
      "outputs": [],
      "stateMutability": "nonpayable",
      "type": "function"
    },
    {
      "inputs": [
        {
          "internalType": "address",
          "name": "_wallet",
          "type": "address"
        }
      ],
      "name": "executeRecovery",
      "outputs": [],
      "stateMutability": "nonpayable",
      "type": "function"
    },
    {
      "inputs": [
        {
          "internalType": "address[]",
          "name": "_signers",
          "type": "address[]"
        },
        {
          "internalType": "address",
          "name": "_signer",
          "type": "address"
        }
      ],
      "name": "findSigner",
      "outputs": [
        {
          "internalType": "bool",
          "name": "",
          "type": "bool"
        }
      ],
      "stateMutability": "pure",
      "type": "function"
    },
    {
      "inputs": [
        {
          "internalType": "address",
          "name": "_wallet",
          "type": "address"
        }
      ],
      "name": "getSigners",
      "outputs": [
        {
          "internalType": "address[]",
          "name": "",
          "type": "address[]"
        }
      ],
      "stateMutability": "view",
      "type": "function"
    },
    {
      "inputs": [
        {
          "internalType": "address",
          "name": "_wallet",
          "type": "address"
        },
        {
          "internalType": "bytes",
          "name": "data",
          "type": "bytes"
        }
      ],
      "name": "init",
      "outputs": [],
      "stateMutability": "nonpayable",
      "type": "function"
    },
    {
      "inputs": [
        {
          "internalType": "contract IModuleRegistry",
          "name": "_registry",
          "type": "address"
        },
        {
          "internalType": "uint256",
          "name": "_locked_security_period",
          "type": "uint256"
        },
        {
          "internalType": "uint256",
          "name": "_recovery_security_period",
          "type": "uint256"
        }
      ],
      "name": "initialize",
      "outputs": [],
      "stateMutability": "nonpayable",
      "type": "function"
    },
    {
      "inputs": [
        {
          "internalType": "address",
          "name": "_wallet",
          "type": "address"
        }
      ],
      "name": "isInRecovery",
      "outputs": [
        {
          "internalType": "bool",
          "name": "",
          "type": "bool"
        }
      ],
      "stateMutability": "view",
      "type": "function"
    },
    {
      "inputs": [
        {
          "internalType": "address",
          "name": "_wallet",
          "type": "address"
        }
      ],
      "name": "isLocked",
      "outputs": [
        {
          "internalType": "bool",
          "name": "",
          "type": "bool"
        }
      ],
      "stateMutability": "view",
      "type": "function"
    },
    {
      "inputs": [
        {
          "internalType": "address",
          "name": "_wallet",
          "type": "address"
        },
        {
          "internalType": "address",
          "name": "_signer",
          "type": "address"
        }
      ],
      "name": "isSigner",
      "outputs": [
        {
          "internalType": "bool",
          "name": "",
          "type": "bool"
        }
      ],
      "stateMutability": "view",
      "type": "function"
    },
    {
      "inputs": [
        {
          "internalType": "address",
          "name": "_wallet",
          "type": "address"
        }
      ],
      "name": "lock",
      "outputs": [],
      "stateMutability": "nonpayable",
      "type": "function"
    },
    {
      "inputs": [],
      "name": "locked_security_period",
      "outputs": [
        {
          "internalType": "uint256",
          "name": "",
          "type": "uint256"
        }
      ],
      "stateMutability": "view",
      "type": "function"
    },
    {
      "inputs": [
        {
          "internalType": "address",
          "name": "_wallet",
          "type": "address"
        },
        {
          "components": [
            {
              "internalType": "address",
              "name": "to",
              "type": "address"
            },
            {
              "internalType": "uint256",
              "name": "value",
              "type": "uint256"
            },
            {
              "internalType": "bytes",
              "name": "data",
              "type": "bytes"
            },
            {
              "internalType": "uint256",
              "name": "sequenceId",
              "type": "uint256"
            },
            {
              "internalType": "uint256",
              "name": "expireTime",
              "type": "uint256"
            }
          ],
          "internalType": "struct BaseModule.CallArgs",
          "name": "_args",
          "type": "tuple"
        },
        {
          "internalType": "bytes",
          "name": "_signatures",
          "type": "bytes"
        }
      ],
      "name": "multicall",
      "outputs": [],
      "stateMutability": "nonpayable",
      "type": "function"
    },
    {
      "inputs": [
        {
          "internalType": "address",
          "name": "",
          "type": "address"
        }
      ],
      "name": "recoveries",
      "outputs": [
        {
          "internalType": "uint256",
          "name": "activeAt",
          "type": "uint256"
        },
        {
          "internalType": "address",
          "name": "recovery",
          "type": "address"
        }
      ],
      "stateMutability": "view",
      "type": "function"
    },
    {
      "inputs": [],
      "name": "recovery_security_period",
      "outputs": [
        {
          "internalType": "uint256",
          "name": "",
          "type": "uint256"
        }
      ],
      "stateMutability": "view",
      "type": "function"
    },
    {
      "inputs": [
        {
          "internalType": "address",
          "name": "_wallet",
          "type": "address"
        },
        {
          "internalType": "address",
          "name": "_oldSigner",
          "type": "address"
        }
      ],
      "name": "removeSigner",
      "outputs": [],
      "stateMutability": "nonpayable",
      "type": "function"
    },
    {
      "inputs": [
        {
          "internalType": "address",
          "name": "_wallet",
          "type": "address"
        },
        {
          "internalType": "address",
          "name": "_newSigner",
          "type": "address"
        },
        {
          "internalType": "address",
          "name": "_oldSigner",
          "type": "address"
        }
      ],
      "name": "replaceSigner",
      "outputs": [],
      "stateMutability": "nonpayable",
      "type": "function"
    },
    {
      "inputs": [
        {
          "internalType": "address",
          "name": "",
          "type": "address"
        }
      ],
      "name": "signerInfos",
      "outputs": [
        {
          "internalType": "bool",
          "name": "exist",
          "type": "bool"
        }
      ],
      "stateMutability": "view",
      "type": "function"
    },
    {
      "inputs": [
        {
          "internalType": "address",
          "name": "_wallet",
          "type": "address"
        },
        {
          "internalType": "address",
          "name": "_recovery",
          "type": "address"
        }
      ],
      "name": "triggerRecovery",
      "outputs": [],
      "stateMutability": "nonpayable",
      "type": "function"
    },
    {
      "inputs": [
        {
          "internalType": "address",
          "name": "_wallet",
          "type": "address"
        }
      ],
      "name": "unlock",
      "outputs": [],
      "stateMutability": "nonpayable",
      "type": "function"
    }
  ],
  "bytecode": "0x608060405234801561001057600080fd5b50614a4f806100206000396000f3fe608060405234801561001057600080fd5b50600436106101375760003560e01c80637b551f0d116100b8578063c0d91eaf1161007c578063c0d91eaf14610346578063c90db44714610362578063cf0c13721461037e578063e8b3a966146103af578063f435f5a7146103cd578063fc1d47b8146103e957610137565b80637b551f0d146102925780637e3ba6af146102ae57806383765b99146102de5780638d20efa7146102fa5780638f29d5301461031657610137565b80636fa30cd4116100ff5780636fa30cd4146101f057806371bf3af11461020c5780637846b9b91461022857806378b248e4146102465780637a1ac61e1461027657610137565b80632239f5561461013c5780632f6c493c146101585780633bc2c4a7146101745780634a4fbeec146101905780635b127533146101c0575b600080fd5b610156600480360381019061015191906131de565b610419565b005b610172600480360381019061016d919061318c565b6107c0565b005b61018e6004803603810190610189919061318c565b6109f0565b005b6101aa60048036038101906101a5919061318c565b610bd9565b6040516101b79190613c34565b60405180910390f35b6101da60048036038101906101d5919061318c565b610beb565b6040516101e79190613c34565b60405180910390f35b61020a60048036038101906102059190613329565b610c16565b005b61022660048036038101906102219190613269565b610fd6565b005b6102306111f1565b60405161023d9190613ff4565b60405180910390f35b610260600480360381019061025b91906131de565b6111f7565b60405161026d9190613c34565b60405180910390f35b610290600480360381019061028b91906134a7565b6112d6565b005b6102ac60048036038101906102a7919061321a565b611410565b005b6102c860048036038101906102c3919061318c565b6117cf565b6040516102d59190613c12565b60405180910390f35b6102f860048036038101906102f391906131de565b61189f565b005b610314600480360381019061030f91906131de565b611bf2565b005b610330600480360381019061032b919061318c565b612052565b60405161033d9190613c34565b60405180910390f35b610360600480360381019061035b91906132d5565b61212b565b005b61037c6004803603810190610377919061318c565b6124ec565b005b6103986004803603810190610393919061318c565b612627565b6040516103a692919061400f565b60405180910390f35b6103b761266b565b6040516103c49190613ff4565b60405180910390f35b6103e760048036038101906103e2919061318c565b612671565b005b61040360048036038101906103fe91906133e9565b6127dc565b6040516104109190613c34565b60405180910390f35b813373ffffffffffffffffffffffffffffffffffffffff168173ffffffffffffffffffffffffffffffffffffffff16638da5cb5b6040518163ffffffff1660e01b815260040160206040518083038186803b15801561047757600080fd5b505afa15801561048b573d6000803e3d6000fd5b505050506040513d601f19601f820116820180604052508101906104af91906131b5565b73ffffffffffffffffffffffffffffffffffffffff1614610505576040517f08c379a00000000000000000000000000000000000000000000000000000000081526004016104fc90613eb4565b60405180910390fd5b8261050f8161288a565b1561054f576040517f08c379a000000000000000000000000000000000000000000000000000000000815260040161054690613e94565b60405180910390fd5b61055884612900565b610597576040517f08c379a000000000000000000000000000000000000000000000000000000000815260040161058e90613ed4565b60405180910390fd5b600073ffffffffffffffffffffffffffffffffffffffff168373ffffffffffffffffffffffffffffffffffffffff16141580156105db57506105d984846111f7565b155b61061a576040517f08c379a000000000000000000000000000000000000000000000000000000000815260040161061190613f54565b60405180910390fd5b6000600760008673ffffffffffffffffffffffffffffffffffffffff1673ffffffffffffffffffffffffffffffffffffffff16815260200190815260200160002090508060010160009054906101000a900460ff166106ae576040517f08c379a00000000000000000000000000000000000000000000000000000000081526004016106a590613e74565b60405180910390fd5b80600001849080600181540180825580915050600190039060005260206000200160009091909190916101000a81548173ffffffffffffffffffffffffffffffffffffffff021916908373ffffffffffffffffffffffffffffffffffffffff16021790555080600760008773ffffffffffffffffffffffffffffffffffffffff1673ffffffffffffffffffffffffffffffffffffffff1681526020019081526020016000206000820181600001908054610769929190612dce565b506001820160009054906101000a900460ff168160010160006101000a81548160ff0219169083151502179055509050506107b985600454426107ac9190614136565b632239f55660e01b6129d5565b5050505050565b803373ffffffffffffffffffffffffffffffffffffffff168173ffffffffffffffffffffffffffffffffffffffff16638da5cb5b6040518163ffffffff1660e01b815260040160206040518083038186803b15801561081e57600080fd5b505afa158015610832573d6000803e3d6000fd5b505050506040513d601f19601f8201168201806040525081019061085691906131b5565b73ffffffffffffffffffffffffffffffffffffffff16148061087e575061087d81336111f7565b5b6108bd576040517f08c379a00000000000000000000000000000000000000000000000000000000081526004016108b490613dd4565b60405180910390fd5b816108c78161288a565b610906576040517f08c379a00000000000000000000000000000000000000000000000000000000081526004016108fd90613fb4565b60405180910390fd5b63f435f5a760e01b7bffffffffffffffffffffffffffffffffffffffffffffffffffffffff1916600260008573ffffffffffffffffffffffffffffffffffffffff1673ffffffffffffffffffffffffffffffffffffffff16815260200190815260200160002060000160089054906101000a900460e01b7bffffffffffffffffffffffffffffffffffffffffffffffffffffffff1916146109dc576040517f08c379a00000000000000000000000000000000000000000000000000000000081526004016109d390613d14565b60405180910390fd5b6109eb8360008060e01b6129d5565b505050565b6109f981612052565b610a38576040517f08c379a0000000000000000000000000000000000000000000000000000000008152600401610a2f90613c94565b60405180910390fd5b6000600660008373ffffffffffffffffffffffffffffffffffffffff1673ffffffffffffffffffffffffffffffffffffffff168152602001908152602001600020604051806040016040529081600082015481526020016001820160009054906101000a900473ffffffffffffffffffffffffffffffffffffffff1673ffffffffffffffffffffffffffffffffffffffff1673ffffffffffffffffffffffffffffffffffffffff168152505090508173ffffffffffffffffffffffffffffffffffffffff1663a39a45b782602001516040518263ffffffff1660e01b8152600401610b239190613b1f565b600060405180830381600087803b158015610b3d57600080fd5b505af1158015610b51573d6000803e3d6000fd5b50505050600660008373ffffffffffffffffffffffffffffffffffffffff1673ffffffffffffffffffffffffffffffffffffffff1681526020019081526020016000206000808201600090556001820160006101000a81549073ffffffffffffffffffffffffffffffffffffffff02191690555050610bd58260008060e01b6129d5565b5050565b6000610be48261288a565b9050919050565b60076020528060005260406000206000915090508060010160009054906101000a900460ff16905081565b823373ffffffffffffffffffffffffffffffffffffffff168173ffffffffffffffffffffffffffffffffffffffff16638da5cb5b6040518163ffffffff1660e01b815260040160206040518083038186803b158015610c7457600080fd5b505afa158015610c88573d6000803e3d6000fd5b505050506040513d601f19601f82011682018060405250810190610cac91906131b5565b73ffffffffffffffffffffffffffffffffffffffff161480610cd45750610cd381336111f7565b5b610d13576040517f08c379a0000000000000000000000000000000000000000000000000000000008152600401610d0a90613dd4565b60405180910390fd5b6000600760008673ffffffffffffffffffffffffffffffffffffffff1673ffffffffffffffffffffffffffffffffffffffff16815260200190815260200160002090508060010160009054906101000a900460ff16610da7576040517f08c379a0000000000000000000000000000000000000000000000000000000008152600401610d9e90613e54565b60405180910390fd5b6000600260018360000180549050610dbf9190614136565b610dc9919061418c565b9050600060418551610ddb919061418c565b905081811015610e20576040517f08c379a0000000000000000000000000000000000000000000000000000000008152600401610e1790613f74565b60405180910390fd5b6000610e2b87612aad565b905060008060005b84811015610f94576000610e48858b84612b16565b90508273ffffffffffffffffffffffffffffffffffffffff168173ffffffffffffffffffffffffffffffffffffffff1611610eb8576040517f08c379a0000000000000000000000000000000000000000000000000000000008152600401610eaf90613d54565b60405180910390fd5b809250610f4d88600001805480602002602001604051908101604052809291908181526020018280548015610f4257602002820191906000526020600020905b8160009054906101000a900473ffffffffffffffffffffffffffffffffffffffff1673ffffffffffffffffffffffffffffffffffffffff1681526020019060010190808311610ef8575b5050505050826127dc565b15610f8057600184610f5f9190614136565b9350868410610f7f57610f728c8c612bb3565b5050505050505050610fd0565b5b508080610f8c90614301565b915050610e33565b506040517f08c379a0000000000000000000000000000000000000000000000000000000008152600401610fc790613df4565b60405180910390fd5b50505050565b838073ffffffffffffffffffffffffffffffffffffffff163373ffffffffffffffffffffffffffffffffffffffff1614611045576040517f08c379a000000000000000000000000000000000000000000000000000000000815260040161103c90613f94565b60405180910390fd5b8461104f8161288a565b1561108f576040517f08c379a000000000000000000000000000000000000000000000000000000000815260040161108690613e94565b60405180910390fd5b60008054906101000a900473ffffffffffffffffffffffffffffffffffffffff1673ffffffffffffffffffffffffffffffffffffffff16630bcd4ebb866040518263ffffffff1660e01b81526004016110e89190613b1f565b60206040518083038186803b15801561110057600080fd5b505afa158015611114573d6000803e3d6000fd5b505050506040513d601f19601f82011682018060405250810190611138919061343d565b611177576040517f08c379a000000000000000000000000000000000000000000000000000000000815260040161116e90613e34565b60405180910390fd5b8573ffffffffffffffffffffffffffffffffffffffff1663904723e486600187876040518563ffffffff1660e01b81526004016111b79493929190613b3a565b600060405180830381600087803b1580156111d157600080fd5b505af11580156111e5573d6000803e3d6000fd5b50505050505050505050565b60045481565b600080600760008573ffffffffffffffffffffffffffffffffffffffff1673ffffffffffffffffffffffffffffffffffffffff16815260200190815260200160002090506112cd816000018054806020026020016040519081016040528092919081815260200182805480156112c257602002820191906000526020600020905b8160009054906101000a900473ffffffffffffffffffffffffffffffffffffffff1673ffffffffffffffffffffffffffffffffffffffff1681526020019060010190808311611278575b5050505050846127dc565b91505092915050565b600360019054906101000a900460ff1661130057600360009054906101000a900460ff1615611309565b611308612cbd565b5b611348576040517f08c379a000000000000000000000000000000000000000000000000000000000815260040161133f90613e14565b60405180910390fd5b6000600360019054906101000a900460ff16159050801561139a576001600360016101000a81548160ff0219169083151502179055506001600360006101000a81548160ff0219169083151502179055505b836000806101000a81548173ffffffffffffffffffffffffffffffffffffffff021916908373ffffffffffffffffffffffffffffffffffffffff1602179055508260048190555081600581905550801561140a576000600360016101000a81548160ff0219169083151502179055505b50505050565b823373ffffffffffffffffffffffffffffffffffffffff168173ffffffffffffffffffffffffffffffffffffffff16638da5cb5b6040518163ffffffff1660e01b815260040160206040518083038186803b15801561146e57600080fd5b505afa158015611482573d6000803e3d6000fd5b505050506040513d601f19601f820116820180604052508101906114a691906131b5565b73ffffffffffffffffffffffffffffffffffffffff16146114fc576040517f08c379a00000000000000000000000000000000000000000000000000000000081526004016114f390613eb4565b60405180910390fd5b61150584612900565b611544576040517f08c379a000000000000000000000000000000000000000000000000000000000815260040161153b90613ed4565b60405180910390fd5b600073ffffffffffffffffffffffffffffffffffffffff168373ffffffffffffffffffffffffffffffffffffffff1614158015611587575061158684836111f7565b5b6115c6576040517f08c379a00000000000000000000000000000000000000000000000000000000081526004016115bd90613f54565b60405180910390fd5b6000600760008673ffffffffffffffffffffffffffffffffffffffff1673ffffffffffffffffffffffffffffffffffffffff16815260200190815260200160002090508060010160009054906101000a900460ff1661165a576040517f08c379a000000000000000000000000000000000000000000000000000000000815260040161165190613cf4565b60405180910390fd5b60006001826000018054905061167091906141bd565b905060005b6001836000018054905061168991906141bd565b8110156117c6578260000181815481106116cc577f4e487b7100000000000000000000000000000000000000000000000000000000600052603260045260246000fd5b9060005260206000200160009054906101000a900473ffffffffffffffffffffffffffffffffffffffff1673ffffffffffffffffffffffffffffffffffffffff168573ffffffffffffffffffffffffffffffffffffffff1614156117b35785836000018281548110611767577f4e487b7100000000000000000000000000000000000000000000000000000000600052603260045260246000fd5b9060005260206000200160006101000a81548173ffffffffffffffffffffffffffffffffffffffff021916908373ffffffffffffffffffffffffffffffffffffffff1602179055508190505b80806117be90614301565b915050611675565b50505050505050565b6060600760008373ffffffffffffffffffffffffffffffffffffffff1673ffffffffffffffffffffffffffffffffffffffff16815260200190815260200160002060000180548060200260200160405190810160405280929190818152602001828054801561189357602002820191906000526020600020905b8160009054906101000a900473ffffffffffffffffffffffffffffffffffffffff1673ffffffffffffffffffffffffffffffffffffffff1681526020019060010190808311611849575b50505050509050919050565b818073ffffffffffffffffffffffffffffffffffffffff163373ffffffffffffffffffffffffffffffffffffffff161461190e576040517f08c379a000000000000000000000000000000000000000000000000000000000815260040161190590613f94565b60405180910390fd5b600073ffffffffffffffffffffffffffffffffffffffff168273ffffffffffffffffffffffffffffffffffffffff16141561197e576040517f08c379a000000000000000000000000000000000000000000000000000000000815260040161197590613cd4565b60405180910390fd5b8273ffffffffffffffffffffffffffffffffffffffff16638da5cb5b6040518163ffffffff1660e01b815260040160206040518083038186803b1580156119c457600080fd5b505afa1580156119d8573d6000803e3d6000fd5b505050506040513d601f19601f820116820180604052508101906119fc91906131b5565b73ffffffffffffffffffffffffffffffffffffffff168273ffffffffffffffffffffffffffffffffffffffff161415611a6a576040517f08c379a0000000000000000000000000000000000000000000000000000000008152600401611a6190613d34565b60405180910390fd5b611a7483836111f7565b15611ab4576040517f08c379a0000000000000000000000000000000000000000000000000000000008152600401611aab90613cb4565b60405180910390fd5b611abd83612052565b15611afd576040517f08c379a0000000000000000000000000000000000000000000000000000000008152600401611af490613d94565b60405180910390fd5b611b1c8360045442611b0f9190614136565b6383765b9960e01b6129d5565b600060055442611b2c9190614136565b905060405180604001604052808281526020018473ffffffffffffffffffffffffffffffffffffffff16815250600660008673ffffffffffffffffffffffffffffffffffffffff1673ffffffffffffffffffffffffffffffffffffffff1681526020019081526020016000206000820151816000015560208201518160010160006101000a81548173ffffffffffffffffffffffffffffffffffffffff021916908373ffffffffffffffffffffffffffffffffffffffff16021790555090505050505050565b813373ffffffffffffffffffffffffffffffffffffffff168173ffffffffffffffffffffffffffffffffffffffff16638da5cb5b6040518163ffffffff1660e01b815260040160206040518083038186803b158015611c5057600080fd5b505afa158015611c64573d6000803e3d6000fd5b505050506040513d601f19601f82011682018060405250810190611c8891906131b5565b73ffffffffffffffffffffffffffffffffffffffff1614611cde576040517f08c379a0000000000000000000000000000000000000000000000000000000008152600401611cd590613eb4565b60405180910390fd5b611ce783612900565b611d26576040517f08c379a0000000000000000000000000000000000000000000000000000000008152600401611d1d90613ed4565b60405180910390fd5b611d3083836111f7565b611d6f576040517f08c379a0000000000000000000000000000000000000000000000000000000008152600401611d6690613ef4565b60405180910390fd5b6000600760008573ffffffffffffffffffffffffffffffffffffffff1673ffffffffffffffffffffffffffffffffffffffff16815260200190815260200160002090508060010160009054906101000a900460ff16611e03576040517f08c379a0000000000000000000000000000000000000000000000000000000008152600401611dfa90613cf4565b60405180910390fd5b600060018260000180549050611e1991906141bd565b90506000826000018281548110611e59577f4e487b7100000000000000000000000000000000000000000000000000000000600052603260045260246000fd5b9060005260206000200160009054906101000a900473ffffffffffffffffffffffffffffffffffffffff16905060005b60018460000180549050611e9d91906141bd565b811015611fda57836000018181548110611ee0577f4e487b7100000000000000000000000000000000000000000000000000000000600052603260045260246000fd5b9060005260206000200160009054906101000a900473ffffffffffffffffffffffffffffffffffffffff1673ffffffffffffffffffffffffffffffffffffffff168673ffffffffffffffffffffffffffffffffffffffff161415611fc75781846000018281548110611f7b577f4e487b7100000000000000000000000000000000000000000000000000000000600052603260045260246000fd5b9060005260206000200160006101000a81548173ffffffffffffffffffffffffffffffffffffffff021916908373ffffffffffffffffffffffffffffffffffffffff1602179055508290505b8080611fd290614301565b915050611e89565b5082600001805480612015577f4e487b7100000000000000000000000000000000000000000000000000000000600052603160045260246000fd5b6001900381819060005260206000200160006101000a81549073ffffffffffffffffffffffffffffffffffffffff02191690559055505050505050565b600080600660008473ffffffffffffffffffffffffffffffffffffffff1673ffffffffffffffffffffffffffffffffffffffff168152602001908152602001600020604051806040016040529081600082015481526020016001820160009054906101000a900473ffffffffffffffffffffffffffffffffffffffff1673ffffffffffffffffffffffffffffffffffffffff1673ffffffffffffffffffffffffffffffffffffffff16815250509050600081600001511415801561212357504267ffffffffffffffff168160000151115b915050919050565b818073ffffffffffffffffffffffffffffffffffffffff163373ffffffffffffffffffffffffffffffffffffffff161461219a576040517f08c379a000000000000000000000000000000000000000000000000000000000815260040161219190613f94565b60405180910390fd5b6121a383612900565b156121e3576040517f08c379a00000000000000000000000000000000000000000000000000000000081526004016121da90613db4565b60405180910390fd5b600760008473ffffffffffffffffffffffffffffffffffffffff1673ffffffffffffffffffffffffffffffffffffffff16815260200190815260200160002060010160009054906101000a900460ff1615612273576040517f08c379a000000000000000000000000000000000000000000000000000000000815260040161226a90613f14565b60405180910390fd5b61227c83612cce565b60008280602001905181019061229291906133a8565b90506000600760008673ffffffffffffffffffffffffffffffffffffffff1673ffffffffffffffffffffffffffffffffffffffff168152602001908152602001600020905060005b82518110156124c75781600001838281518110612320577f4e487b7100000000000000000000000000000000000000000000000000000000600052603260045260246000fd5b60200260200101519080600181540180825580915050600190039060005260206000200160009091909190916101000a81548173ffffffffffffffffffffffffffffffffffffffff021916908373ffffffffffffffffffffffffffffffffffffffff1602179055508573ffffffffffffffffffffffffffffffffffffffff16638da5cb5b6040518163ffffffff1660e01b815260040160206040518083038186803b1580156123ce57600080fd5b505afa1580156123e2573d6000803e3d6000fd5b505050506040513d601f19601f8201168201806040525081019061240691906131b5565b73ffffffffffffffffffffffffffffffffffffffff16838281518110612455577f4e487b7100000000000000000000000000000000000000000000000000000000600052603260045260246000fd5b602002602001015173ffffffffffffffffffffffffffffffffffffffff1614156124b4576040517f08c379a00000000000000000000000000000000000000000000000000000000081526004016124ab90613d74565b60405180910390fd5b80806124bf90614301565b9150506122da565b5060018160010160006101000a81548160ff0219169083151502179055505050505050565b808073ffffffffffffffffffffffffffffffffffffffff163373ffffffffffffffffffffffffffffffffffffffff161461255b576040517f08c379a000000000000000000000000000000000000000000000000000000000815260040161255290613f94565b60405180910390fd5b61256482612052565b6125a3576040517f08c379a000000000000000000000000000000000000000000000000000000000815260040161259a90613f34565b60405180910390fd5b600660008373ffffffffffffffffffffffffffffffffffffffff1673ffffffffffffffffffffffffffffffffffffffff1681526020019081526020016000206000808201600090556001820160006101000a81549073ffffffffffffffffffffffffffffffffffffffff021916905550506126238260008060e01b6129d5565b5050565b60066020528060005260406000206000915090508060000154908060010160009054906101000a900473ffffffffffffffffffffffffffffffffffffffff16905082565b60055481565b803373ffffffffffffffffffffffffffffffffffffffff168173ffffffffffffffffffffffffffffffffffffffff16638da5cb5b6040518163ffffffff1660e01b815260040160206040518083038186803b1580156126cf57600080fd5b505afa1580156126e3573d6000803e3d6000fd5b505050506040513d601f19601f8201168201806040525081019061270791906131b5565b73ffffffffffffffffffffffffffffffffffffffff16148061272f575061272e81336111f7565b5b61276e576040517f08c379a000000000000000000000000000000000000000000000000000000000815260040161276590613dd4565b60405180910390fd5b816127788161288a565b156127b8576040517f08c379a00000000000000000000000000000000000000000000000000000000081526004016127af90613e94565b60405180910390fd5b6127d783600454426127ca9190614136565b63f435f5a760e01b6129d5565b505050565b600080600090505b835181101561287e578273ffffffffffffffffffffffffffffffffffffffff1684828151811061283d577f4e487b7100000000000000000000000000000000000000000000000000000000600052603260045260246000fd5b602002602001015173ffffffffffffffffffffffffffffffffffffffff16141561286b576001915050612884565b808061287690614301565b9150506127e4565b50600090505b92915050565b60004267ffffffffffffffff16600260008473ffffffffffffffffffffffffffffffffffffffff1673ffffffffffffffffffffffffffffffffffffffff16815260200190815260200160002060000160009054906101000a900467ffffffffffffffff1667ffffffffffffffff16119050919050565b600080600090505b6001805490508110156129ca578273ffffffffffffffffffffffffffffffffffffffff1660018281548110612966577f4e487b7100000000000000000000000000000000000000000000000000000000600052603260045260246000fd5b9060005260206000200160009054906101000a900473ffffffffffffffffffffffffffffffffffffffff1673ffffffffffffffffffffffffffffffffffffffff1614156129b75760019150506129d0565b80806129c290614301565b915050612908565b50600090505b919050565b60405180604001604052808367ffffffffffffffff168152602001827bffffffffffffffffffffffffffffffffffffffffffffffffffffffff1916815250600260008573ffffffffffffffffffffffffffffffffffffffff1673ffffffffffffffffffffffffffffffffffffffff16815260200190815260200160002060008201518160000160006101000a81548167ffffffffffffffff021916908367ffffffffffffffff16021790555060208201518160000160086101000a81548163ffffffff021916908360e01c0217905550905050505050565b60008082600001519050600083602001519050600084604001519050600085606001519050601960f81b600060f81b85858585604051602001612af596959493929190613a8d565b60405160208183030381529060405280519060200120945050505050919050565b600080600080612b268686612d34565b809350819450829550505050600187604051602001612b459190613af9565b6040516020818303038152906040528051906020012084848460405160008152602001604052604051612b7b9493929190613c4f565b6020604051602081039080840390855afa158015612b9d573d6000803e3d6000fd5b5050506020604051035193505050509392505050565b6000816000015190506000826020015190506000836040015190506000846060015190506000856080015190508673ffffffffffffffffffffffffffffffffffffffff1663b14f6c8386868685876040518663ffffffff1660e01b8152600401612c21959493929190613bb8565b600060405180830381600087803b158015612c3b57600080fd5b505af1158015612c4f573d6000803e3d6000fd5b505050506040513d6000823e3d601f19601f82011682018060405250810190612c789190613466565b507f16a95b1f4b59f6a32941b3b48a50be9d4d9f9c4da4cb504681489daabf991928858585604051612cac93929190613b7a565b60405180910390a150505050505050565b6000612cc830612dbb565b15905090565b6001819080600181540180825580915050600190039060005260206000200160009091909190916101000a81548173ffffffffffffffffffffffffffffffffffffffff021916908373ffffffffffffffffffffffffffffffffffffffff16021790555050565b600080600083604102602001850151915083604102604001850151905060ff84604102604101860151169250601b8360ff161480612d755750601c8360ff16145b612db4576040517f08c379a0000000000000000000000000000000000000000000000000000000008152600401612dab90613fd4565b60405180910390fd5b9250925092565b600080823b905060008111915050919050565b828054828255906000526020600020908101928215612e0f5760005260206000209182015b82811115612e0e578254825591600101919060010190612df3565b5b509050612e1c9190612e20565b5090565b5b80821115612e39576000816000905550600101612e21565b5090565b6000612e50612e4b8461405d565b614038565b90508083825260208201905082856020860282011115612e6f57600080fd5b60005b85811015612e9f5781612e858882612f91565b845260208401935060208301925050600181019050612e72565b5050509392505050565b6000612ebc612eb78461405d565b614038565b90508083825260208201905082856020860282011115612edb57600080fd5b60005b85811015612f0b5781612ef18882612fa6565b845260208401935060208301925050600181019050612ede565b5050509392505050565b6000612f28612f2384614089565b614038565b905082815260208101848484011115612f4057600080fd5b612f4b84828561428e565b509392505050565b6000612f66612f6184614089565b614038565b905082815260208101848484011115612f7e57600080fd5b612f8984828561429d565b509392505050565b600081359050612fa0816149bd565b92915050565b600081519050612fb5816149bd565b92915050565b600082601f830112612fcc57600080fd5b8135612fdc848260208601612e3d565b91505092915050565b600082601f830112612ff657600080fd5b8151613006848260208601612ea9565b91505092915050565b60008151905061301e816149d4565b92915050565b60008083601f84011261303657600080fd5b8235905067ffffffffffffffff81111561304f57600080fd5b60208301915083600182028301111561306757600080fd5b9250929050565b600082601f83011261307f57600080fd5b813561308f848260208601612f15565b91505092915050565b600082601f8301126130a957600080fd5b81516130b9848260208601612f53565b91505092915050565b6000813590506130d1816149eb565b92915050565b600060a082840312156130e957600080fd5b6130f360a0614038565b9050600061310384828501612f91565b600083015250602061311784828501613177565b602083015250604082013567ffffffffffffffff81111561313757600080fd5b6131438482850161306e565b604083015250606061315784828501613177565b606083015250608061316b84828501613177565b60808301525092915050565b60008135905061318681614a02565b92915050565b60006020828403121561319e57600080fd5b60006131ac84828501612f91565b91505092915050565b6000602082840312156131c757600080fd5b60006131d584828501612fa6565b91505092915050565b600080604083850312156131f157600080fd5b60006131ff85828601612f91565b925050602061321085828601612f91565b9150509250929050565b60008060006060848603121561322f57600080fd5b600061323d86828701612f91565b935050602061324e86828701612f91565b925050604061325f86828701612f91565b9150509250925092565b6000806000806060858703121561327f57600080fd5b600061328d87828801612f91565b945050602061329e87828801612f91565b935050604085013567ffffffffffffffff8111156132bb57600080fd5b6132c787828801613024565b925092505092959194509250565b600080604083850312156132e857600080fd5b60006132f685828601612f91565b925050602083013567ffffffffffffffff81111561331357600080fd5b61331f8582860161306e565b9150509250929050565b60008060006060848603121561333e57600080fd5b600061334c86828701612f91565b935050602084013567ffffffffffffffff81111561336957600080fd5b613375868287016130d7565b925050604084013567ffffffffffffffff81111561339257600080fd5b61339e8682870161306e565b9150509250925092565b6000602082840312156133ba57600080fd5b600082015167ffffffffffffffff8111156133d457600080fd5b6133e084828501612fe5565b91505092915050565b600080604083850312156133fc57600080fd5b600083013567ffffffffffffffff81111561341657600080fd5b61342285828601612fbb565b925050602061343385828601612f91565b9150509250929050565b60006020828403121561344f57600080fd5b600061345d8482850161300f565b91505092915050565b60006020828403121561347857600080fd5b600082015167ffffffffffffffff81111561349257600080fd5b61349e84828501613098565b91505092915050565b6000806000606084860312156134bc57600080fd5b60006134ca868287016130c2565b93505060206134db86828701613177565b92505060406134ec86828701613177565b9150509250925092565b6000613502838361350e565b60208301905092915050565b613517816141f1565b82525050565b613526816141f1565b82525050565b61353d613538826141f1565b61434a565b82525050565b600061354e826140ca565b61355881856140ed565b9350613563836140ba565b8060005b8381101561359457815161357b88826134f6565b9750613586836140e0565b925050600181019050613567565b5085935050505092915050565b6135aa81614203565b82525050565b6135c16135bc8261420f565b61435c565b82525050565b6135d08161423b565b82525050565b6135e76135e28261423b565b614366565b82525050565b60006135f983856140fe565b935061360683858461428e565b61360f83614419565b840190509392505050565b6000613625826140d5565b61362f81856140fe565b935061363f81856020860161429d565b61364881614419565b840191505092915050565b600061365e826140d5565b613668818561410f565b935061367881856020860161429d565b80840191505092915050565b6000613691601b8361411a565b915061369c82614437565b602082019050919050565b60006136b460288361411a565b91506136bf82614460565b604082019050919050565b60006136d760168361411a565b91506136e2826144af565b602082019050919050565b60006136fa60128361411a565b9150613705826144d8565b602082019050919050565b600061371d601c8361412b565b915061372882614501565b601c82019050919050565b600061374060118361411a565b915061374b8261452a565b602082019050919050565b600061376360248361411a565b915061376e82614553565b604082019050919050565b6000613786601c8361411a565b9150613791826145a2565b602082019050919050565b60006137a9601a8361411a565b91506137b4826145cb565b602082019050919050565b60006137cc601c8361411a565b91506137d7826145f4565b602082019050919050565b60006137ef602e8361411a565b91506137fa8261461d565b604082019050919050565b600061381260198361411a565b915061381d8261466c565b602082019050919050565b6000613835601f8361411a565b915061384082614695565b602082019050919050565b6000613858602e8361411a565b9150613863826146be565b604082019050919050565b600061387b601c8361411a565b91506138868261470d565b602082019050919050565b600061389e60128361411a565b91506138a982614736565b602082019050919050565b60006138c160258361411a565b91506138cc8261475f565b604082019050919050565b60006138e460118361411a565b91506138ef826147ae565b602082019050919050565b600061390760118361411a565b9150613912826147d7565b602082019050919050565b600061392a60358361411a565b915061393582614800565b604082019050919050565b600061394d60158361411a565b91506139588261484f565b602082019050919050565b600061397060208361411a565b915061397b82614878565b602082019050919050565b600061399360128361411a565b915061399e826148a1565b602082019050919050565b60006139b6602a8361411a565b91506139c1826148ca565b604082019050919050565b60006139d960198361411a565b91506139e482614919565b602082019050919050565b60006139fc60198361411a565b9150613a0782614942565b602082019050919050565b6000613a1f60198361411a565b9150613a2a8261496b565b602082019050919050565b6000613a42600d8361411a565b9150613a4d82614994565b602082019050919050565b613a6181614277565b82525050565b613a78613a7382614277565b614382565b82525050565b613a8781614281565b82525050565b6000613a9982896135b0565b600182019150613aa982886135b0565b600182019150613ab9828761352c565b601482019150613ac98286613a67565b602082019150613ad98285613653565b9150613ae58284613a67565b602082019150819050979650505050505050565b6000613b0482613710565b9150613b1082846135d6565b60208201915081905092915050565b6000602082019050613b34600083018461351d565b92915050565b6000606082019050613b4f600083018761351d565b613b5c60208301866135a1565b8181036040830152613b6f8184866135ed565b905095945050505050565b6000606082019050613b8f600083018661351d565b613b9c6020830185613a58565b8181036040830152613bae818461361a565b9050949350505050565b600060a082019050613bcd600083018861351d565b613bda6020830187613a58565b8181036040830152613bec818661361a565b9050613bfb6060830185613a58565b613c086080830184613a58565b9695505050505050565b60006020820190508181036000830152613c2c8184613543565b905092915050565b6000602082019050613c4960008301846135a1565b92915050565b6000608082019050613c6460008301876135c7565b613c716020830186613a7e565b613c7e60408301856135c7565b613c8b60608301846135c7565b95945050505050565b60006020820190508181036000830152613cad81613684565b9050919050565b60006020820190508181036000830152613ccd816136a7565b9050919050565b60006020820190508181036000830152613ced816136ca565b9050919050565b60006020820190508181036000830152613d0d816136ed565b9050919050565b60006020820190508181036000830152613d2d81613733565b9050919050565b60006020820190508181036000830152613d4d81613756565b9050919050565b60006020820190508181036000830152613d6d81613779565b9050919050565b60006020820190508181036000830152613d8d8161379c565b9050919050565b60006020820190508181036000830152613dad816137bf565b9050919050565b60006020820190508181036000830152613dcd816137e2565b9050919050565b60006020820190508181036000830152613ded81613805565b9050919050565b60006020820190508181036000830152613e0d81613828565b9050919050565b60006020820190508181036000830152613e2d8161384b565b9050919050565b60006020820190508181036000830152613e4d8161386e565b9050919050565b60006020820190508181036000830152613e6d81613891565b9050919050565b60006020820190508181036000830152613e8d816138b4565b9050919050565b60006020820190508181036000830152613ead816138d7565b9050919050565b60006020820190508181036000830152613ecd816138fa565b9050919050565b60006020820190508181036000830152613eed8161391d565b9050919050565b60006020820190508181036000830152613f0d81613940565b9050919050565b60006020820190508181036000830152613f2d81613963565b9050919050565b60006020820190508181036000830152613f4d81613986565b9050919050565b60006020820190508181036000830152613f6d816139a9565b9050919050565b60006020820190508181036000830152613f8d816139cc565b9050919050565b60006020820190508181036000830152613fad816139ef565b9050919050565b60006020820190508181036000830152613fcd81613a12565b9050919050565b60006020820190508181036000830152613fed81613a35565b9050919050565b60006020820190506140096000830184613a58565b92915050565b60006040820190506140246000830185613a58565b614031602083018461351d565b9392505050565b6000614042614053565b905061404e82826142d0565b919050565b6000604051905090565b600067ffffffffffffffff821115614078576140776143ea565b5b602082029050602081019050919050565b600067ffffffffffffffff8211156140a4576140a36143ea565b5b6140ad82614419565b9050602081019050919050565b6000819050602082019050919050565b600081519050919050565b600081519050919050565b6000602082019050919050565b600082825260208201905092915050565b600082825260208201905092915050565b600081905092915050565b600082825260208201905092915050565b600081905092915050565b600061414182614277565b915061414c83614277565b9250827fffffffffffffffffffffffffffffffffffffffffffffffffffffffffffffffff038211156141815761418061438c565b5b828201905092915050565b600061419782614277565b91506141a283614277565b9250826141b2576141b16143bb565b5b828204905092915050565b60006141c882614277565b91506141d383614277565b9250828210156141e6576141e561438c565b5b828203905092915050565b60006141fc82614257565b9050919050565b60008115159050919050565b60007fff0000000000000000000000000000000000000000000000000000000000000082169050919050565b6000819050919050565b6000614250826141f1565b9050919050565b600073ffffffffffffffffffffffffffffffffffffffff82169050919050565b6000819050919050565b600060ff82169050919050565b82818337600083830152505050565b60005b838110156142bb5780820151818401526020810190506142a0565b838111156142ca576000848401525b50505050565b6142d982614419565b810181811067ffffffffffffffff821117156142f8576142f76143ea565b5b80604052505050565b600061430c82614277565b91507fffffffffffffffffffffffffffffffffffffffffffffffffffffffffffffffff82141561433f5761433e61438c565b5b600182019050919050565b600061435582614370565b9050919050565b6000819050919050565b6000819050919050565b600061437b8261442a565b9050919050565b6000819050919050565b7f4e487b7100000000000000000000000000000000000000000000000000000000600052601160045260246000fd5b7f4e487b7100000000000000000000000000000000000000000000000000000000600052601260045260246000fd5b7f4e487b7100000000000000000000000000000000000000000000000000000000600052604160045260246000fd5b6000601f19601f8301169050919050565b60008160601b9050919050565b7f534d3a204e6f2076616c6964207265636f7665727920666f756e640000000000600082015250565b7f534d3a206e65774f776e65722063616e277420626520616e206578697374696e60008201527f67207369676e6572000000000000000000000000000000000000000000000000602082015250565b7f534d3a20496e76616c6964206e6577207369676e657200000000000000000000600082015250565b7f534d3a20496e76616c69642077616c6c65740000000000000000000000000000600082015250565b7f19457468657265756d205369676e6564204d6573736167653a0a333200000000600082015250565b7f534d3a2063616e6e6f7420756e6c6f636b000000000000000000000000000000600082015250565b7f534d3a206f776e65722063616e206e6f7420747269676765722061207265636f60008201527f7665727900000000000000000000000000000000000000000000000000000000602082015250565b7f534d3a204261646c79206f726465726564207369676e61747572657300000000600082015250565b7f534d3a207369676e65722063616e6e2774206265206f776e6572000000000000600082015250565b7f534d3a2073686f756c64206e6f74207472696767657220747769636500000000600082015250565b7f534d3a2073686f756c64206e6f74206164642073616d65206d6f64756c65207460008201527f6f2077616c6c6574207477696365000000000000000000000000000000000000602082015250565b7f534d3a206d757374206265207369676e65722f77616c6c657400000000000000600082015250565b7f534d3a204e6f7420656e6f7567682076616c6964207369676e61747572657300600082015250565b7f496e697469616c697a61626c653a20636f6e747261637420697320616c72656160008201527f647920696e697469616c697a6564000000000000000000000000000000000000602082015250565b7f534d3a206d6f64756c65206973206e6f74207265676973746572656400000000600082015250565b7f534d3a20696e76616c69642077616c6c65740000000000000000000000000000600082015250565b7f534d3a2077616c6c6574207369676e657220696e666f206e6f7420636f6e736960008201527f7374656e74000000000000000000000000000000000000000000000000000000602082015250565b7f424d3a2077616c6c6574206c6f636b6564000000000000000000000000000000600082015250565b7f534d3a206d757374206265206f776e6572000000000000000000000000000000600082015250565b7f534d3a2077616c6c65742073686f756c6420626520726567697374657265642060008201527f6265666f726520616464696e67207369676e6572730000000000000000000000602082015250565b7f534d3a20696e76616c6964206f6c645369676e65720000000000000000000000600082015250565b7f534d3a2077616c6c65742065786973747320696e207369676e6572496e666f73600082015250565b7f534d3a206e6f74207265636f766572696e670000000000000000000000000000600082015250565b7f534d3a20696e76616c6964206e65775369676e6572206f7220696e76616c696460008201527f206f6c645369676e657200000000000000000000000000000000000000000000602082015250565b7f534d3a204e6f7420656e6f756768207369676e61747572657300000000000000600082015250565b7f424d3a2063616c6c6572206d7573742062652077616c6c657400000000000000600082015250565b7f424d3a2077616c6c6574206d757374206265206c6f636b656400000000000000600082015250565b7f534d3a20496e76616c6964207600000000000000000000000000000000000000600082015250565b6149c6816141f1565b81146149d157600080fd5b50565b6149dd81614203565b81146149e857600080fd5b50565b6149f481614245565b81146149ff57600080fd5b50565b614a0b81614277565b8114614a1657600080fd5b5056fea2646970667358221220715240d80cde300eba8a4196c314f0a33f79b8ab49e488c7bb7ce392c5f3cd6964736f6c63430008030033",
  "linkReferences": {},
  "deployedLinkReferences": {}
}