{
  "_format": "hh-sol-artifact-1",
  "contractName": "SecurityModule",
  "sourceName": "contracts/SecurityModule.sol",
  "abi": [
    {
      "inputs": [],
      "stateMutability": "nonpayable",
      "type": "constructor"
    },
    {
      "anonymous": false,
      "inputs": [
        {
          "indexed": false,
          "internalType": "uint8",
          "name": "version",
          "type": "uint8"
        }
      ],
      "name": "Initialized",
      "type": "event"
    },
    {
      "anonymous": false,
      "inputs": [
        {
          "indexed": false,
          "internalType": "address",
          "name": "_wallet",
          "type": "address"
        }
      ],
      "name": "Locked",
      "type": "event"
    },
    {
      "anonymous": false,
      "inputs": [
        {
          "indexed": false,
          "internalType": "address",
          "name": "to",
          "type": "address"
        },
        {
          "indexed": false,
          "internalType": "uint256",
          "name": "value",
          "type": "uint256"
        },
        {
          "indexed": false,
          "internalType": "bytes",
          "name": "data",
          "type": "bytes"
        }
      ],
      "name": "MultiCalled",
      "type": "event"
    },
    {
      "anonymous": false,
      "inputs": [
        {
          "indexed": false,
          "internalType": "address",
          "name": "_wallet",
          "type": "address"
        }
      ],
      "name": "RecoveryCancelled",
      "type": "event"
    },
    {
      "anonymous": false,
      "inputs": [
        {
          "indexed": false,
          "internalType": "address",
          "name": "_wallet",
          "type": "address"
        }
      ],
      "name": "RecoveryExecuted",
      "type": "event"
    },
    {
      "anonymous": false,
      "inputs": [
        {
          "indexed": false,
          "internalType": "address",
          "name": "_wallet",
          "type": "address"
        },
        {
          "indexed": false,
          "internalType": "address",
          "name": "_recovery",
          "type": "address"
        }
      ],
      "name": "RecoveryTriggered",
      "type": "event"
    },
    {
      "anonymous": false,
      "inputs": [
        {
          "indexed": false,
          "internalType": "address",
          "name": "_wallet",
          "type": "address"
        },
        {
          "indexed": false,
          "internalType": "bytes",
          "name": "data",
          "type": "bytes"
        }
      ],
      "name": "SMInited",
      "type": "event"
    },
    {
      "anonymous": false,
      "inputs": [
        {
          "indexed": false,
          "internalType": "address",
          "name": "_wallet",
          "type": "address"
        },
        {
          "indexed": false,
          "internalType": "uint256",
          "name": "_lockedSecurityPeriod",
          "type": "uint256"
        },
        {
          "indexed": false,
          "internalType": "uint256",
          "name": "_recoverySecurityPeriod",
          "type": "uint256"
        }
      ],
      "name": "SMParameterChanged",
      "type": "event"
    },
    {
      "anonymous": false,
      "inputs": [
        {
          "indexed": false,
          "internalType": "address",
          "name": "_wallet",
          "type": "address"
        },
        {
          "indexed": false,
          "internalType": "address",
          "name": "signer",
          "type": "address"
        }
      ],
      "name": "SignerAdded",
      "type": "event"
    },
    {
      "anonymous": false,
      "inputs": [
        {
          "indexed": false,
          "internalType": "address",
          "name": "_wallet",
          "type": "address"
        },
        {
          "indexed": false,
          "internalType": "address",
          "name": "_oldSigner",
          "type": "address"
        }
      ],
      "name": "SignerRemoved",
      "type": "event"
    },
    {
      "anonymous": false,
      "inputs": [
        {
          "indexed": false,
          "internalType": "address",
          "name": "_wallet",
          "type": "address"
        },
        {
          "indexed": false,
          "internalType": "address",
          "name": "_newSigner",
          "type": "address"
        },
        {
          "indexed": false,
          "internalType": "address",
          "name": "_oldSigner",
          "type": "address"
        }
      ],
      "name": "SignerReplaced",
      "type": "event"
    },
    {
      "anonymous": false,
      "inputs": [
        {
          "indexed": false,
          "internalType": "address",
          "name": "_wallet",
          "type": "address"
        }
      ],
      "name": "Unlocked",
      "type": "event"
    },
    {
      "inputs": [
        {
          "internalType": "address",
          "name": "_moduleRegistry",
          "type": "address"
        },
        {
          "internalType": "address",
          "name": "_wallet",
          "type": "address"
        },
        {
          "internalType": "address",
          "name": "_module",
          "type": "address"
        },
        {
          "internalType": "bytes",
          "name": "data",
          "type": "bytes"
        }
      ],
      "name": "addModule",
      "outputs": [],
      "stateMutability": "nonpayable",
      "type": "function"
    },
    {
      "inputs": [
        {
          "internalType": "address",
          "name": "_wallet",
          "type": "address"
        },
        {
          "internalType": "address",
          "name": "signer",
          "type": "address"
        }
      ],
      "name": "addSigner",
      "outputs": [],
      "stateMutability": "nonpayable",
      "type": "function"
    },
    {
      "inputs": [],
      "name": "admin",
      "outputs": [
        {
          "internalType": "address",
          "name": "",
          "type": "address"
        }
      ],
      "stateMutability": "view",
      "type": "function"
    },
    {
      "inputs": [
        {
          "internalType": "address",
          "name": "_wallet",
          "type": "address"
        }
      ],
      "name": "cancelRecovery",
      "outputs": [],
      "stateMutability": "nonpayable",
      "type": "function"
    },
    {
      "inputs": [
        {
          "internalType": "address",
          "name": "_wallet",
          "type": "address"
        }
      ],
      "name": "executeRecovery",
      "outputs": [],
      "stateMutability": "nonpayable",
      "type": "function"
    },
    {
      "inputs": [
        {
          "internalType": "address[]",
          "name": "_signers",
          "type": "address[]"
        },
        {
          "internalType": "address",
          "name": "_signer",
          "type": "address"
        }
      ],
      "name": "findSigner",
      "outputs": [
        {
          "internalType": "bool",
          "name": "",
          "type": "bool"
        }
      ],
      "stateMutability": "pure",
      "type": "function"
    },
    {
      "inputs": [
        {
          "internalType": "address",
          "name": "_wallet",
          "type": "address"
        }
      ],
      "name": "getLockedSecurityPeriod",
      "outputs": [
        {
          "internalType": "uint256",
          "name": "",
          "type": "uint256"
        }
      ],
      "stateMutability": "view",
      "type": "function"
    },
    {
      "inputs": [
        {
          "internalType": "address",
          "name": "_wallet",
          "type": "address"
        }
      ],
      "name": "getRecoveryExpiryTime",
      "outputs": [
        {
          "internalType": "uint256",
          "name": "",
          "type": "uint256"
        }
      ],
      "stateMutability": "view",
      "type": "function"
    },
    {
      "inputs": [
        {
          "internalType": "address",
          "name": "_wallet",
          "type": "address"
        }
      ],
      "name": "getRecoverySecurityPeriod",
      "outputs": [
        {
          "internalType": "uint256",
          "name": "",
          "type": "uint256"
        }
      ],
      "stateMutability": "view",
      "type": "function"
    },
    {
      "inputs": [
        {
          "internalType": "address",
          "name": "_wallet",
          "type": "address"
        }
      ],
      "name": "getSigners",
      "outputs": [
        {
          "internalType": "address[]",
          "name": "",
          "type": "address[]"
        }
      ],
      "stateMutability": "view",
      "type": "function"
    },
    {
      "inputs": [],
      "name": "implementation",
      "outputs": [
        {
          "internalType": "address",
          "name": "",
          "type": "address"
        }
      ],
      "stateMutability": "view",
      "type": "function"
    },
    {
      "inputs": [
        {
          "internalType": "address",
          "name": "_wallet",
          "type": "address"
        },
        {
          "internalType": "bytes",
          "name": "data",
          "type": "bytes"
        }
      ],
      "name": "init",
      "outputs": [],
      "stateMutability": "nonpayable",
      "type": "function"
    },
    {
      "inputs": [
        {
          "internalType": "contract IModuleRegistry",
          "name": "_registry",
          "type": "address"
        },
        {
          "internalType": "uint256",
          "name": "_lockedSecurityPeriod",
          "type": "uint256"
        },
        {
          "internalType": "uint256",
          "name": "_recoverySecurityPeriod",
          "type": "uint256"
        }
      ],
      "name": "initialize",
      "outputs": [],
      "stateMutability": "nonpayable",
      "type": "function"
    },
    {
      "inputs": [
        {
          "internalType": "address",
          "name": "_wallet",
          "type": "address"
        }
      ],
      "name": "isInRecovery",
      "outputs": [
        {
          "internalType": "bool",
          "name": "",
          "type": "bool"
        }
      ],
      "stateMutability": "view",
      "type": "function"
    },
    {
      "inputs": [
        {
          "internalType": "address",
          "name": "_wallet",
          "type": "address"
        }
      ],
      "name": "isLocked",
      "outputs": [
        {
          "internalType": "uint256",
          "name": "",
          "type": "uint256"
        }
      ],
      "stateMutability": "view",
      "type": "function"
    },
    {
      "inputs": [
        {
          "internalType": "address",
          "name": "_wallet",
          "type": "address"
        },
        {
          "internalType": "address",
          "name": "_signer",
          "type": "address"
        }
      ],
      "name": "isSigner",
      "outputs": [
        {
          "internalType": "bool",
          "name": "",
          "type": "bool"
        }
      ],
      "stateMutability": "view",
      "type": "function"
    },
    {
      "inputs": [
        {
          "internalType": "address",
          "name": "_wallet",
          "type": "address"
        }
      ],
      "name": "lock",
      "outputs": [],
      "stateMutability": "nonpayable",
      "type": "function"
    },
    {
      "inputs": [],
      "name": "lockedSecurityPeriod",
      "outputs": [
        {
          "internalType": "uint256",
          "name": "",
          "type": "uint256"
        }
      ],
      "stateMutability": "view",
      "type": "function"
    },
    {
      "inputs": [
        {
          "internalType": "address",
          "name": "_wallet",
          "type": "address"
        },
        {
          "components": [
            {
              "internalType": "address",
              "name": "to",
              "type": "address"
            },
            {
              "internalType": "uint256",
              "name": "value",
              "type": "uint256"
            },
            {
              "internalType": "bytes",
              "name": "data",
              "type": "bytes"
            },
            {
              "internalType": "uint256",
              "name": "sequenceId",
              "type": "uint256"
            },
            {
              "internalType": "uint256",
              "name": "expireTime",
              "type": "uint256"
            }
          ],
          "internalType": "struct BaseModule.CallArgs",
          "name": "_args",
          "type": "tuple"
        },
        {
          "internalType": "bytes",
          "name": "_signatures",
          "type": "bytes"
        }
      ],
      "name": "multicall",
      "outputs": [],
      "stateMutability": "nonpayable",
      "type": "function"
    },
    {
      "inputs": [
        {
          "internalType": "address",
          "name": "",
          "type": "address"
        }
      ],
      "name": "recoveries",
      "outputs": [
        {
          "internalType": "uint256",
          "name": "activeAt",
          "type": "uint256"
        },
        {
          "internalType": "address",
          "name": "recovery",
          "type": "address"
        }
      ],
      "stateMutability": "view",
      "type": "function"
    },
    {
      "inputs": [],
      "name": "recoverySecurityPeriod",
      "outputs": [
        {
          "internalType": "uint256",
          "name": "",
          "type": "uint256"
        }
      ],
      "stateMutability": "view",
      "type": "function"
    },
    {
      "inputs": [
        {
          "internalType": "address",
          "name": "_wallet",
          "type": "address"
        }
      ],
      "name": "removeModule",
      "outputs": [],
      "stateMutability": "nonpayable",
      "type": "function"
    },
    {
      "inputs": [
        {
          "internalType": "address",
          "name": "_wallet",
          "type": "address"
        },
        {
          "internalType": "address",
          "name": "_oldSigner",
          "type": "address"
        }
      ],
      "name": "removeSigner",
      "outputs": [],
      "stateMutability": "nonpayable",
      "type": "function"
    },
    {
      "inputs": [
        {
          "internalType": "address",
          "name": "_wallet",
          "type": "address"
        },
        {
          "internalType": "address",
          "name": "_newSigner",
          "type": "address"
        },
        {
          "internalType": "address",
          "name": "_oldSigner",
          "type": "address"
        }
      ],
      "name": "replaceSigner",
      "outputs": [],
      "stateMutability": "nonpayable",
      "type": "function"
    },
    {
      "inputs": [
        {
          "internalType": "address",
          "name": "_wallet",
          "type": "address"
        },
        {
          "internalType": "uint256",
          "name": "_lockedSecurityPeriod",
          "type": "uint256"
        },
        {
          "internalType": "uint256",
          "name": "_recoverySecurityPeriod",
          "type": "uint256"
        }
      ],
      "name": "setSecurityPeriod",
      "outputs": [],
      "stateMutability": "nonpayable",
      "type": "function"
    },
    {
      "inputs": [
        {
          "internalType": "address",
          "name": "",
          "type": "address"
        }
      ],
      "name": "signerConfInfos",
      "outputs": [
        {
          "internalType": "bool",
          "name": "exist",
          "type": "bool"
        },
        {
          "internalType": "uint256",
          "name": "lockedPeriod",
          "type": "uint256"
        },
        {
          "internalType": "uint256",
          "name": "recoveryPeriod",
          "type": "uint256"
        }
      ],
      "stateMutability": "view",
      "type": "function"
    },
    {
      "inputs": [
        {
          "internalType": "address",
          "name": "_wallet",
          "type": "address"
        },
        {
          "internalType": "address",
          "name": "_recovery",
          "type": "address"
        }
      ],
      "name": "triggerRecovery",
      "outputs": [],
      "stateMutability": "nonpayable",
      "type": "function"
    },
    {
      "inputs": [
        {
          "internalType": "address",
          "name": "_wallet",
          "type": "address"
        }
      ],
      "name": "unlock",
      "outputs": [],
      "stateMutability": "nonpayable",
      "type": "function"
    }
  ],
  "bytecode": "0x608060405234801561001057600080fd5b50613df5806100206000396000f3fe608060405234801561001057600080fd5b50600436106101c45760003560e01c806383765b99116100f9578063c6de2a3f11610097578063f435f5a711610071578063f435f5a714610441578063f851a44014610454578063f883822514610467578063fc1d47b81461047a576101c4565b8063c6de2a3f146103d8578063c90db447146103e1578063cf0c1372146103f4576101c4565b80638f29d530116100d35780638f29d5301461038c5780639de9e4001461039f578063a0632461146103b2578063c0d91eaf146103c5576101c4565b806383765b991461035357806389ff98e4146103665780638d20efa714610379576101c4565b80635c60da1b1161016657806378b248e41161014057806378b248e4146102ea5780637a1ac61e1461030d5780637b551f0d146103205780637e3ba6af14610333576101c4565b80635c60da1b1461029957806368f3073f146102c45780636fa30cd4146102d7576101c4565b80632f6c493c116101a25780632f6c493c1461020d5780633bc2c4a7146102205780634a4fbeec1461023357806353a2a3f814610246576101c4565b80630fb436eb146101c957806313f71305146101e55780632239f556146101fa575b600080fd5b6101d260055481565b6040519081526020015b60405180910390f35b6101f86101f336600461361a565b61048d565b005b6101f86102083660046133d3565b610694565b6101f861021b36600461339b565b610aa1565b6101f861022e36600461339b565b610cda565b6101d261024136600461339b565b610e7c565b61027c61025436600461339b565b60086020526000908152604090206001810154600282015460039092015460ff909116919083565b6040805193151584526020840192909252908201526060016101dc565b6000546102ac906001600160a01b031681565b6040516001600160a01b0390911681526020016101dc565b6101d26102d236600461339b565b610ef7565b6101f86102e5366004613546565b610fc8565b6102fd6102f83660046133d3565b6112e2565b60405190151581526020016101dc565b6101f861031b36600461361a565b61139c565b6101f861032e36600461340b565b611427565b61034661034136600461339b565b61184d565b6040516101dc91906139b2565b6101f86103613660046133d3565b6118c3565b6101f8610374366004613455565b611d49565b6101f86103873660046133d3565b611f5e565b6102fd61039a36600461339b565b6123f8565b6101d26103ad36600461339b565b612452565b6101f86103c036600461339b565b612523565b6101f86103d33660046134f8565b6125d3565b6101d260065481565b6101f86103ef36600461339b565b6128ee565b61042461040236600461339b565b600760205260009081526040902080546001909101546001600160a01b031682565b604080519283526001600160a01b039091166020830152016101dc565b6101f861044f36600461339b565b612a78565b6001546102ac906001600160a01b031681565b6101d261047536600461339b565b612c8e565b6102fd6104883660046136ea565b612ce7565b82336001600160a01b038216146104bf5760405162461bcd60e51b81526004016104b690613c16565b60405180910390fd5b83806001600160a01b031663a4e2d6346040518163ffffffff1660e01b815260040160206040518083038186803b1580156104f957600080fd5b505afa15801561050d573d6000803e3d6000fd5b505050506040513d601f19601f82011682018060405250810190610531919061382b565b156105725760405162461bcd60e51b815260206004820152601160248201527010934e881dd85b1b195d081b1bd8dad959607a1b60448201526064016104b6565b6001600160a01b0385166000908152600860205260409020600181015460ff166105ae5760405162461bcd60e51b81526004016104b690613a17565b8481600201541415806105c5575083816003015414155b61061c5760405162461bcd60e51b815260206004820152602260248201527f534d3a4d757374206368616e6765206174206c65617374206f6e6520706572696044820152611bd960f21b60648201526084016104b6565b8481600201541461062f57600281018590555b8381600301541461064257600381018490555b604080516001600160a01b0388168152602081018790529081018590527fd93dd93d4d43d8f00148e4cb11174f8092cbda4e73ebe3a309b5ca984611e2529060600160405180910390a1505050505050565b81336001600160a01b0316816001600160a01b0316638da5cb5b6040518163ffffffff1660e01b815260040160206040518083038186803b1580156106d857600080fd5b505afa1580156106ec573d6000803e3d6000fd5b505050506040513d601f19601f8201168201806040525081019061071091906133b7565b6001600160a01b0316146107365760405162461bcd60e51b81526004016104b690613aff565b826000816001600160a01b031663a4e2d6346040518163ffffffff1660e01b815260040160206040518083038186803b15801561077257600080fd5b505afa158015610786573d6000803e3d6000fd5b505050506040513d601f19601f820116820180604052508101906107aa919061382b565b90506107b7600282613d54565b156107d45760405162461bcd60e51b81526004016104b690613a43565b846000816001600160a01b031663a4e2d6346040518163ffffffff1660e01b815260040160206040518083038186803b15801561081057600080fd5b505afa158015610824573d6000803e3d6000fd5b505050506040513d601f19601f82011682018060405250810190610848919061382b565b90508060021415801561085c575080600314155b6108785760405162461bcd60e51b81526004016104b690613bc9565b61088187612d5b565b61089d5760405162461bcd60e51b81526004016104b690613b2a565b6001600160a01b038616158015906108bc57506108ba87876112e2565b155b6108d85760405162461bcd60e51b81526004016104b690613b7f565b6001600160a01b0387166000908152600860205260409020600181015460ff166109525760405162461bcd60e51b815260206004820152602560248201527f534d3a2077616c6c6574207369676e657220696e666f206e6f7420636f6e73696044820152641cdd195b9d60da1b60648201526084016104b6565b80546001810182556000828152602080822090920180546001600160a01b0319166001600160a01b038b8116919091179091558a16815260089091526040902081548291906109a490829084906132b9565b50600182810154908201805460ff191660ff90921615159190911790556002808301548183015560039283015492909101919091558101546001600160a01b0389169063a0adf89f906109f79042613cca565b6040516001600160e01b031960e084901b168152610a21919063111cfaab60e11b906004016139ff565b600060405180830381600087803b158015610a3b57600080fd5b505af1158015610a4f573d6000803e3d6000fd5b5050604080516001600160a01b03808d1682528b1660208201527f12146497b3b826918ec47f0cac7272a09ed06b30c16c030e99ec48ff5dd60b47935001905060405180910390a15050505050505050565b80336001600160a01b0316816001600160a01b0316638da5cb5b6040518163ffffffff1660e01b815260040160206040518083038186803b158015610ae557600080fd5b505afa158015610af9573d6000803e3d6000fd5b505050506040513d601f19601f82011682018060405250810190610b1d91906133b7565b6001600160a01b03161480610b375750610b3781336112e2565b610b535760405162461bcd60e51b81526004016104b690613a7a565b816000816001600160a01b031663a4e2d6346040518163ffffffff1660e01b815260040160206040518083038186803b158015610b8f57600080fd5b505afa158015610ba3573d6000803e3d6000fd5b505050506040513d601f19601f82011682018060405250810190610bc7919061382b565b9050610bd4600282613d54565b600114610c2e5760405162461bcd60e51b815260206004820152602260248201527f424d3a2077616c6c6574206d75737420626520676c6f62616c6c79206c6f636b604482015261195960f21b60648201526084016104b6565b60405163a0adf89f60e01b81526001600160a01b0385169063a0adf89f90610c649060009063f435f5a760e01b906004016139ff565b600060405180830381600087803b158015610c7e57600080fd5b505af1158015610c92573d6000803e3d6000fd5b50506040516001600160a01b03871681527f7e6adfec7e3f286831a0200a754127c171a2da564078722cb97704741bbdb0ea925060200190505b60405180910390a150505050565b610ce3816123f8565b610d2f5760405162461bcd60e51b815260206004820152601b60248201527f534d3a204e6f2076616c6964207265636f7665727920666f756e64000000000060448201526064016104b6565b6001600160a01b038181166000818152600760209081526040918290208251808401845281548152600190910154909416908401819052905163a39a45b760e01b8152600481019190915263a39a45b790602401600060405180830381600087803b158015610d9d57600080fd5b505af1158015610db1573d6000803e3d6000fd5b505050506001600160a01b03821660008181526007602052604080822082815560010180546001600160a01b03191690555163a0adf89f60e01b815263a0adf89f91610e089163111cfaab60e11b906004016139ff565b600060405180830381600087803b158015610e2257600080fd5b505af1158015610e36573d6000803e3d6000fd5b50506040516001600160a01b03851681527ffcd2de31341801b7fd80895c780aae50c1505fd674ff1b9b9764c56c633434d6925060200190505b60405180910390a15050565b6000816001600160a01b031663a4e2d6346040518163ffffffff1660e01b815260040160206040518083038186803b158015610eb757600080fd5b505afa158015610ecb573d6000803e3d6000fd5b505050506040513d601f19601f82011682018060405250810190610eef919061382b565b90505b919050565b6001600160a01b03811660009081526008602090815260408083208151815460a09481028201850190935260808101838152859491938492849190840182828015610f6b57602002820191906000526020600020905b81546001600160a01b03168152600190910190602001808311610f4d575b5050509183525050600182015460ff16151560208083019190915260028301546040830152600390920154606090910152810151909150610fbe5760405162461bcd60e51b81526004016104b690613a17565b6040015192915050565b82336001600160a01b0316816001600160a01b0316638da5cb5b6040518163ffffffff1660e01b815260040160206040518083038186803b15801561100c57600080fd5b505afa158015611020573d6000803e3d6000fd5b505050506040513d601f19601f8201168201806040525081019061104491906133b7565b6001600160a01b0316148061105e575061105e81336112e2565b61107a5760405162461bcd60e51b81526004016104b690613a7a565b6001600160a01b0384166000908152600860205260409020600181015460ff166110db5760405162461bcd60e51b815260206004820152601260248201527114d34e881a5b9d985b1a59081dd85b1b195d60721b60448201526064016104b6565b80546000906002906110ee906001613cca565b6110f89190613ce2565b905060006041855161110a9190613ce2565b90508181101561115c5760405162461bcd60e51b815260206004820152601960248201527f534d3a204e6f7420656e6f756768207369676e6174757265730000000000000060448201526064016104b6565b600061116787612dd4565b905060008060005b84811015611293576000611184858b84612e2b565b9050826001600160a01b0316816001600160a01b0316116111e75760405162461bcd60e51b815260206004820152601c60248201527f534d3a204261646c79206f726465726564207369676e6174757265730000000060448201526064016104b6565b8092506112508860000180548060200260200160405190810160405280929190818152602001828054801561124557602002820191906000526020600020905b81546001600160a01b03168152600190910190602001808311611227575b505050505082612ce7565b1561128057611260600185613cca565b9350868410611280576112738c8c612eed565b50505050505050506112dc565b508061128b81613d39565b91505061116f565b5060405162461bcd60e51b815260206004820152601f60248201527f534d3a204e6f7420656e6f7567682076616c6964207369676e6174757265730060448201526064016104b6565b50505050565b6001600160a01b03821660009081526008602090815260408083208151815460a0948102820185019093526080810183815285949193849284919084018282801561135657602002820191906000526020600020905b81546001600160a01b03168152600190910190602001808311611338575b5050509183525050600182015460ff16151560208201526002820154604082015260039091015460609091015280519091506113929084612ce7565b9150505b92915050565b60006113a86001612fd6565b905080156113c0576004805461ff0019166101001790555b600280546001600160a01b0319166001600160a01b0386161790556006839055600582905580156112dc576004805461ff0019169055604051600181527f7f26b83ff96e1f2b6a682f133852f6798a09c465da95921460cefb384740249890602001610ccc565b82336001600160a01b0316816001600160a01b0316638da5cb5b6040518163ffffffff1660e01b815260040160206040518083038186803b15801561146b57600080fd5b505afa15801561147f573d6000803e3d6000fd5b505050506040513d601f19601f820116820180604052508101906114a391906133b7565b6001600160a01b0316146114c95760405162461bcd60e51b81526004016104b690613aff565b836000816001600160a01b031663a4e2d6346040518163ffffffff1660e01b815260040160206040518083038186803b15801561150557600080fd5b505afa158015611519573d6000803e3d6000fd5b505050506040513d601f19601f8201168201806040525081019061153d919061382b565b905061154a600282613d54565b156115675760405162461bcd60e51b81526004016104b690613a43565b856000816001600160a01b031663a4e2d6346040518163ffffffff1660e01b815260040160206040518083038186803b1580156115a357600080fd5b505afa1580156115b7573d6000803e3d6000fd5b505050506040513d601f19601f820116820180604052508101906115db919061382b565b9050806002141580156115ef575080600314155b61160b5760405162461bcd60e51b81526004016104b690613bc9565b61161488612d5b565b6116305760405162461bcd60e51b81526004016104b690613b2a565b6001600160a01b0387161580159061164d575061164d88876112e2565b6116695760405162461bcd60e51b81526004016104b690613b7f565b6001600160a01b0388166000908152600860205260409020600181015460ff166116a55760405162461bcd60e51b81526004016104b690613a17565b80546000906116b690600190613cf6565b905060005b82546116c990600190613cf6565b811015611774578260000181815481106116f357634e487b7160e01b600052603260045260246000fd5b6000918252602090912001546001600160a01b038a811691161415611762578983600001828154811061173657634e487b7160e01b600052603260045260246000fd5b600091825260209091200180546001600160a01b0319166001600160a01b039290921691909117905550805b8061176c81613d39565b9150506116bb565b50896001600160a01b031663a0adf89f8360020154426117949190613cca565b6040516001600160e01b031960e084901b1681526117be919063111cfaab60e11b906004016139ff565b600060405180830381600087803b1580156117d857600080fd5b505af11580156117ec573d6000803e3d6000fd5b5050604080516001600160a01b03808f168252808e1660208301528c16918101919091527f37852b11621736fac970fe97a5b848e91df7ca7dcf4f4804dcb59fb192104d2d925060600190505b60405180910390a150505050505050505050565b6001600160a01b0381166000908152600860209081526040918290208054835181840281018401909452808452606093928301828280156118b757602002820191906000526020600020905b81546001600160a01b03168152600190910190602001808311611899575b50505050509050919050565b81336001600160a01b038216146118ec5760405162461bcd60e51b81526004016104b690613c16565b826000816001600160a01b031663a4e2d6346040518163ffffffff1660e01b815260040160206040518083038186803b15801561192857600080fd5b505afa15801561193c573d6000803e3d6000fd5b505050506040513d601f19601f82011682018060405250810190611960919061382b565b905061196d600282613d54565b1561198a5760405162461bcd60e51b81526004016104b690613a43565b846000816001600160a01b031663a4e2d6346040518163ffffffff1660e01b815260040160206040518083038186803b1580156119c657600080fd5b505afa1580156119da573d6000803e3d6000fd5b505050506040513d601f19601f820116820180604052508101906119fe919061382b565b905080600214158015611a12575080600314155b611a2e5760405162461bcd60e51b81526004016104b690613bc9565b6001600160a01b038616611a7d5760405162461bcd60e51b815260206004820152601660248201527529a69d1024b73b30b634b2103732bb9039b4b3b732b960511b60448201526064016104b6565b866001600160a01b0316638da5cb5b6040518163ffffffff1660e01b815260040160206040518083038186803b158015611ab657600080fd5b505afa158015611aca573d6000803e3d6000fd5b505050506040513d601f19601f82011682018060405250810190611aee91906133b7565b6001600160a01b0316866001600160a01b03161415611b5b5760405162461bcd60e51b8152602060048201526024808201527f534d3a206f776e65722063616e206e6f7420747269676765722061207265636f6044820152637665727960e01b60648201526084016104b6565b611b6587876112e2565b15611bc35760405162461bcd60e51b815260206004820152602860248201527f534d3a206e65774f776e65722063616e277420626520616e206578697374696e604482015267339039b4b3b732b960c11b60648201526084016104b6565b611bcc876123f8565b15611c195760405162461bcd60e51b815260206004820152601c60248201527f534d3a2073686f756c64206e6f7420747269676765722074776963650000000060448201526064016104b6565b6001600160a01b0387166000818152600860205260409020600281015490919063a0adf89f90611c499042613cca565b6040516001600160e01b031960e084901b168152611c73919063111cfaab60e11b906004016139ff565b600060405180830381600087803b158015611c8d57600080fd5b505af1158015611ca1573d6000803e3d6000fd5b505050506000816003015442611cb79190613cca565b6040805180820182528281526001600160a01b038b811660208084018281528f8416600081815260078452879020955186559051600190950180546001600160a01b03191695909416949094179092558351928352908201529192507fd7170f681aaf2414cac5ce9811b90655ed4e8deaa1f57051d5773acdd69fc3fd910160405180910390a1505050505050505050565b83336001600160a01b03821614611d725760405162461bcd60e51b81526004016104b690613c16565b84806001600160a01b031663a4e2d6346040518163ffffffff1660e01b815260040160206040518083038186803b158015611dac57600080fd5b505afa158015611dc0573d6000803e3d6000fd5b505050506040513d601f19601f82011682018060405250810190611de4919061382b565b15611e255760405162461bcd60e51b815260206004820152601160248201527010934e881dd85b1b195d081b1bd8dad959607a1b60448201526064016104b6565b600254604051630bcd4ebb60e01b81526001600160a01b03878116600483015290911690630bcd4ebb9060240160206040518083038186803b158015611e6a57600080fd5b505afa158015611e7e573d6000803e3d6000fd5b505050506040513d601f19601f82011682018060405250810190611ea29190613798565b611eee5760405162461bcd60e51b815260206004820152601c60248201527f534d3a206d6f64756c65206973206e6f7420726567697374657265640000000060448201526064016104b6565b604051636d1c590560e11b81526001600160a01b0387169063da38b20a90611f23908a9089906001908a908a906004016138d2565b600060405180830381600087803b158015611f3d57600080fd5b505af1158015611f51573d6000803e3d6000fd5b5050505050505050505050565b81336001600160a01b0316816001600160a01b0316638da5cb5b6040518163ffffffff1660e01b815260040160206040518083038186803b158015611fa257600080fd5b505afa158015611fb6573d6000803e3d6000fd5b505050506040513d601f19601f82011682018060405250810190611fda91906133b7565b6001600160a01b0316146120005760405162461bcd60e51b81526004016104b690613aff565b826000816001600160a01b031663a4e2d6346040518163ffffffff1660e01b815260040160206040518083038186803b15801561203c57600080fd5b505afa158015612050573d6000803e3d6000fd5b505050506040513d601f19601f82011682018060405250810190612074919061382b565b9050612081600282613d54565b1561209e5760405162461bcd60e51b81526004016104b690613a43565b846000816001600160a01b031663a4e2d6346040518163ffffffff1660e01b815260040160206040518083038186803b1580156120da57600080fd5b505afa1580156120ee573d6000803e3d6000fd5b505050506040513d601f19601f82011682018060405250810190612112919061382b565b905080600214158015612126575080600314155b6121425760405162461bcd60e51b81526004016104b690613bc9565b61214b87612d5b565b6121675760405162461bcd60e51b81526004016104b690613b2a565b61217187876112e2565b6121b55760405162461bcd60e51b815260206004820152601560248201527429a69d1034b73b30b634b21037b63229b4b3b732b960591b60448201526064016104b6565b6001600160a01b0387166000908152600860205260409020600181015460ff166121f15760405162461bcd60e51b81526004016104b690613a17565b805460009061220290600190613cf6565b9050600082600001828154811061222957634e487b7160e01b600052603260045260246000fd5b60009182526020822001546001600160a01b031691505b835461224e90600190613cf6565b8110156122f95783600001818154811061227857634e487b7160e01b600052603260045260246000fd5b6000918252602090912001546001600160a01b038b8116911614156122e757818460000182815481106122bb57634e487b7160e01b600052603260045260246000fd5b600091825260209091200180546001600160a01b0319166001600160a01b039290921691909117905550815b806122f181613d39565b915050612240565b50825483908061231957634e487b7160e01b600052603160045260246000fd5b600082815260209020810160001990810180546001600160a01b031916905501905560028301546001600160a01b038b169063a0adf89f9061235b9042613cca565b6040516001600160e01b031960e084901b168152612385919063111cfaab60e11b906004016139ff565b600060405180830381600087803b15801561239f57600080fd5b505af11580156123b3573d6000803e3d6000fd5b5050604080516001600160a01b03808f1682528d1660208201527f98d1ebbe00ae92a5de96a0f49742a8afa89f42363592bc2e7cfaaed68b45e7a69350019050611839565b6001600160a01b038082166000908152600760209081526040808320815180830190925280548083526001909101549094169181019190915290911580159061244b5750805167ffffffffffffffff4216105b9392505050565b6001600160a01b03811660009081526008602090815260408083208151815460a094810282018501909352608081018381528594919384928491908401828280156124c657602002820191906000526020600020905b81546001600160a01b031681526001909101906020018083116124a8575b5050509183525050600182015460ff161515602080830191909152600283015460408301526003909201546060909101528101519091506125195760405162461bcd60e51b81526004016104b690613a17565b6060015192915050565b80336001600160a01b0382161461254c5760405162461bcd60e51b81526004016104b690613c16565b6001600160a01b03821660009081526008602052604090206001015460ff166125875760405162461bcd60e51b81526004016104b690613a17565b6125908261305d565b6001600160a01b0382166000908152600860205260408120906125b38282613309565b5060018101805460ff191690556000600282018190556003909101555050565b81336001600160a01b038216146125fc5760405162461bcd60e51b81526004016104b690613c16565b61260583612d5b565b156126695760405162461bcd60e51b815260206004820152602e60248201527f534d3a2073686f756c64206e6f74206164642073616d65206d6f64756c65207460448201526d6f2077616c6c657420747769636560901b60648201526084016104b6565b6001600160a01b03831660009081526008602052604090206001015460ff16156126e15760405162461bcd60e51b8152602060048201526024808201527f534d3a2077616c6c65742065786973747320696e207369676e6572436f6e66496044820152636e666f7360e01b60648201526084016104b6565b6126ea836131a1565b600082806020019051810190612700919061364e565b6001600160a01b03851660009081526008602052604081209192505b825181101561288c578160000183828151811061274957634e487b7160e01b600052603260045260246000fd5b602090810291909101810151825460018101845560009384529282902090920180546001600160a01b0319166001600160a01b0393841617905560408051638da5cb5b60e01b8152905192891692638da5cb5b92600480840193919291829003018186803b1580156127ba57600080fd5b505afa1580156127ce573d6000803e3d6000fd5b505050506040513d601f19601f820116820180604052508101906127f291906133b7565b6001600160a01b031683828151811061281b57634e487b7160e01b600052603260045260246000fd5b60200260200101516001600160a01b0316141561287a5760405162461bcd60e51b815260206004820152601a60248201527f534d3a207369676e65722063616e6e2774206265206f776e657200000000000060448201526064016104b6565b8061288481613d39565b91505061271c565b506001818101805460ff19169091179055600654600282015560055460038201556040517fa8d2f5a0d7d2b8f16c64d920753528ba37b74315cce0ad809a556564e88ddd58906128df9087908790613924565b60405180910390a15050505050565b6001600160a01b03808216600090815260076020526040902060010154829116331461296f5760405162461bcd60e51b815260206004820152602a60248201527f534d3a206f6e6c7920746865206e6577206f776e65722063616e2063616e63656044820152696c207265636f7665727960b01b60648201526084016104b6565b612978826123f8565b6129b95760405162461bcd60e51b8152602060048201526012602482015271534d3a206e6f74207265636f766572696e6760701b60448201526064016104b6565b6001600160a01b03821660008181526007602052604080822082815560010180546001600160a01b03191690555163a0adf89f60e01b815263a0adf89f91612a0c9163111cfaab60e11b906004016139ff565b600060405180830381600087803b158015612a2657600080fd5b505af1158015612a3a573d6000803e3d6000fd5b50506040516001600160a01b03851681527f8154b6c5e1fc90d44b49808ef93f9739148d0821411890f8cd684385e24b9f1e92506020019050610e70565b80336001600160a01b0316816001600160a01b0316638da5cb5b6040518163ffffffff1660e01b815260040160206040518083038186803b158015612abc57600080fd5b505afa158015612ad0573d6000803e3d6000fd5b505050506040513d601f19601f82011682018060405250810190612af491906133b7565b6001600160a01b03161480612b0e5750612b0e81336112e2565b612b2a5760405162461bcd60e51b81526004016104b690613a7a565b816000816001600160a01b031663a4e2d6346040518163ffffffff1660e01b815260040160206040518083038186803b158015612b6657600080fd5b505afa158015612b7a573d6000803e3d6000fd5b505050506040513d601f19601f82011682018060405250810190612b9e919061382b565b9050612bab600282613d54565b15612bc85760405162461bcd60e51b81526004016104b690613a43565b6001600160a01b0384166000818152600860205260409020600281015490919063a0adf89f90612bf89042613cca565b6040516001600160e01b031960e084901b168152612c22919063f435f5a760e01b906004016139ff565b600060405180830381600087803b158015612c3c57600080fd5b505af1158015612c50573d6000803e3d6000fd5b50506040516001600160a01b03881681527f44427e3003a08f22cf803894075ac0297524e09e521fc1c15bc91741ce3dc159925060200190506128df565b6001600160a01b03808216600090815260076020908152604080832081518083019092528054808352600190910154909416918101919091529091421115612cda576000915050610ef2565b805161244b904290613cf6565b6000805b8351811015612d5157826001600160a01b0316848281518110612d1e57634e487b7160e01b600052603260045260246000fd5b60200260200101516001600160a01b03161415612d3f576001915050611396565b80612d4981613d39565b915050612ceb565b5060009392505050565b6000805b600354811015612dcb57826001600160a01b031660038281548110612d9457634e487b7160e01b600052603260045260246000fd5b6000918252602090912001546001600160a01b03161415612db9576001915050610ef2565b80612dc381613d39565b915050612d5f565b50600092915050565b80516020808301516040808501516060860151915160009594919291612e0a91601960f81b91889188918891889188910161386f565b60405160208183030381529060405280519060200120945050505050919050565b600080600080612e3b8686613249565b6040517f19457468657265756d205369676e6564204d6573736167653a0a3332000000006020820152603c81018b90529295509093509150600190605c0160408051601f198184030181528282528051602091820120600084529083018083525260ff861690820152606081018490526080810183905260a0016020604051602081039080840390855afa158015612ed7573d6000803e3d6000fd5b5050604051601f19015198975050505050505050565b8051602082015160408084015160608501516080860151925163b14f6c8360e01b8152919290916001600160a01b0388169063b14f6c8390612f3b9088908890889087908990600401613977565b600060405180830381600087803b158015612f5557600080fd5b505af1158015612f69573d6000803e3d6000fd5b505050506040513d6000823e601f3d908101601f19168201604052612f9191908101906137b8565b507f16a95b1f4b59f6a32941b3b48a50be9d4d9f9c4da4cb504681489daabf991928858585604051612fc593929190613950565b60405180910390a150505050505050565b600454600090610100900460ff161561301f578160ff166001148015612ffb5750303b155b6130175760405162461bcd60e51b81526004016104b690613ab1565b506000610ef2565b60045460ff8084169116106130465760405162461bcd60e51b81526004016104b690613ab1565b506004805460ff191660ff83161790556001610ef2565b60035460009061306f90600190613cf6565b905060005b8181101561315b57826001600160a01b0316600382815481106130a757634e487b7160e01b600052603260045260246000fd5b6000918252602090912001546001600160a01b0316141561314957600382815481106130e357634e487b7160e01b600052603260045260246000fd5b600091825260209091200154600380546001600160a01b03909216918390811061311d57634e487b7160e01b600052603260045260246000fd5b600091825260209091200180546001600160a01b0319166001600160a01b039290921691909117905550805b8061315381613d39565b915050613074565b50600380548061317b57634e487b7160e01b600052603160045260246000fd5b600082815260209020810160001990810180546001600160a01b03191690550190555050565b6131aa81612d5b565b156131f75760405162461bcd60e51b815260206004820152601d60248201527f424d3a2077616c6c657420616c7265616479207265676973746572656400000060448201526064016104b6565b600380546001810182556000919091527fc2575a0e9e593c00f959f8c92f12db2869c3395a3b0502d05e2516446f71f85b0180546001600160a01b0319166001600160a01b0392909216919091179055565b6041808202830160208101516040820151919092015160ff169190601b83148061327657508260ff16601c145b6132b25760405162461bcd60e51b815260206004820152600d60248201526c29a69d1024b73b30b634b2103b60991b60448201526064016104b6565b9250925092565b8280548282559060005260206000209081019282156132f95760005260206000209182015b828111156132f95782548255916001019190600101906132de565b5061330592915061332a565b5090565b5080546000825590600052602060002090810190613327919061332a565b50565b5b80821115613305576000815560010161332b565b8035610ef281613daa565b600082601f83011261335a578081fd5b813561336d61336882613ca2565b613c4d565b818152846020838601011115613381578283fd5b816020850160208301379081016020019190915292915050565b6000602082840312156133ac578081fd5b813561244b81613daa565b6000602082840312156133c8578081fd5b815161244b81613daa565b600080604083850312156133e5578081fd5b82356133f081613daa565b9150602083013561340081613daa565b809150509250929050565b60008060006060848603121561341f578081fd5b833561342a81613daa565b9250602084013561343a81613daa565b9150604084013561344a81613daa565b809150509250925092565b60008060008060006080868803121561346c578081fd5b853561347781613daa565b9450602086013561348781613daa565b9350604086013561349781613daa565b9250606086013567ffffffffffffffff808211156134b3578283fd5b818801915088601f8301126134c6578283fd5b8135818111156134d4578384fd5b8960208285010111156134e5578384fd5b9699959850939650602001949392505050565b6000806040838503121561350a578182fd5b823561351581613daa565b9150602083013567ffffffffffffffff811115613530578182fd5b61353c8582860161334a565b9150509250929050565b60008060006060848603121561355a578283fd5b833561356581613daa565b9250602084013567ffffffffffffffff80821115613581578384fd5b9085019060a08288031215613594578384fd5b61359e60a0613c4d565b82356135a981613daa565b8152602083810135908201526040830135828111156135c6578586fd5b6135d28982860161334a565b6040830152506060830135606082015260808301356080820152809450506040860135915080821115613603578283fd5b506136108682870161334a565b9150509250925092565b60008060006060848603121561362e578081fd5b833561363981613daa565b95602085013595506040909401359392505050565b60006020808385031215613660578182fd5b825167ffffffffffffffff811115613676578283fd5b8301601f81018513613686578283fd5b805161369461336882613c7e565b80828252848201915084840188868560051b87010111156136b3578687fd5b8694505b838510156136de5780516136ca81613daa565b8352600194909401939185019185016136b7565b50979650505050505050565b600080604083850312156136fc578182fd5b823567ffffffffffffffff811115613712578283fd5b8301601f81018513613722578283fd5b8035602061373261336883613c7e565b80838252828201915082850189848660051b8801011115613751578788fd5b8795505b8486101561377c57803561376881613daa565b835260019590950194918301918301613755565b50955061378c905086820161333f565b93505050509250929050565b6000602082840312156137a9578081fd5b8151801515811461244b578182fd5b6000602082840312156137c9578081fd5b815167ffffffffffffffff8111156137df578182fd5b8201601f810184136137ef578182fd5b80516137fd61336882613ca2565b818152856020838501011115613811578384fd5b613822826020830160208601613d0d565b95945050505050565b60006020828403121561383c578081fd5b5051919050565b6000815180845261385b816020860160208601613d0d565b601f01601f19169290920160200192915050565b6001600160f81b0319878116825286166001820152606085901b6bffffffffffffffffffffffff191660028201526016810184905282516000906138ba816036850160208801613d0d565b60369201918201929092526056019695505050505050565b6001600160a01b03868116825285166020820152831515604082015260806060820181905281018290526000828460a084013781830160a090810191909152601f909201601f19160101949350505050565b6001600160a01b038316815260406020820181905260009061394890830184613843565b949350505050565b600060018060a01b0385168252836020830152606060408301526138226060830184613843565b600060018060a01b038716825285602083015260a0604083015261399e60a0830186613843565b606083019490945250608001529392505050565b6020808252825182820181905260009190848201906040850190845b818110156139f35783516001600160a01b0316835292840192918401916001016139ce565b50909695505050505050565b9182526001600160e01b031916602082015260400190565b60208082526012908201527114d34e88125b9d985b1a59081dd85b1b195d60721b604082015260600190565b6020808252601a908201527f424d3a2077616c6c6574206c6f636b656420676c6f62616c6c79000000000000604082015260600190565b60208082526019908201527f534d3a206d757374206265207369676e65722f77616c6c657400000000000000604082015260600190565b6020808252602e908201527f496e697469616c697a61626c653a20636f6e747261637420697320616c72656160408201526d191e481a5b9a5d1a585b1a5e995960921b606082015260800190565b60208082526011908201527021269d1036bab9ba1031329037bbb732b960791b604082015260600190565b60208082526035908201527f534d3a2077616c6c65742073686f756c642062652072656769737465726564206040820152746265666f726520616464696e67207369676e65727360581b606082015260800190565b6020808252602a908201527f534d3a20696e76616c6964206e65775369676e6572206f7220696e76616c69646040820152691037b63229b4b3b732b960b11b606082015260800190565b6020808252602d908201527f424d3a2077616c6c6574206c6f636b6564206279207369676e65722072656c6160408201526c3a32b21037b832b930ba34b7b760991b606082015260800190565b60208082526019908201527f424d3a2063616c6c6572206d7573742062652077616c6c657400000000000000604082015260600190565b604051601f8201601f1916810167ffffffffffffffff81118282101715613c7657613c76613d94565b604052919050565b600067ffffffffffffffff821115613c9857613c98613d94565b5060051b60200190565b600067ffffffffffffffff821115613cbc57613cbc613d94565b50601f01601f191660200190565b60008219821115613cdd57613cdd613d68565b500190565b600082613cf157613cf1613d7e565b500490565b600082821015613d0857613d08613d68565b500390565b60005b83811015613d28578181015183820152602001613d10565b838111156112dc5750506000910152565b6000600019821415613d4d57613d4d613d68565b5060010190565b600082613d6357613d63613d7e565b500690565b634e487b7160e01b600052601160045260246000fd5b634e487b7160e01b600052601260045260246000fd5b634e487b7160e01b600052604160045260246000fd5b6001600160a01b038116811461332757600080fdfea26469706673582212208502a4ebd5e3f1a9c9069a81581f97a89a8ae471c4d3e6174b598d6d3340476264736f6c63430008030033",
  "linkReferences": {},
  "deployedLinkReferences": {}
}