{
  "_format": "hh-sol-artifact-1",
  "contractName": "SecurityModule",
  "sourceName": "contracts/SecurityModule.sol",
  "abi": [
    {
      "inputs": [],
      "stateMutability": "nonpayable",
      "type": "constructor"
    },
    {
      "anonymous": false,
      "inputs": [
        {
          "indexed": false,
          "internalType": "address",
          "name": "_wallet",
          "type": "address"
        }
      ],
      "name": "Locked",
      "type": "event"
    },
    {
      "anonymous": false,
      "inputs": [
        {
          "indexed": false,
          "internalType": "address",
          "name": "to",
          "type": "address"
        },
        {
          "indexed": false,
          "internalType": "uint256",
          "name": "value",
          "type": "uint256"
        },
        {
          "indexed": false,
          "internalType": "bytes",
          "name": "data",
          "type": "bytes"
        }
      ],
      "name": "MultiCalled",
      "type": "event"
    },
    {
      "anonymous": false,
      "inputs": [
        {
          "indexed": false,
          "internalType": "address",
          "name": "_wallet",
          "type": "address"
        }
      ],
      "name": "RecoveryCancelled",
      "type": "event"
    },
    {
      "anonymous": false,
      "inputs": [
        {
          "indexed": false,
          "internalType": "address",
          "name": "_wallet",
          "type": "address"
        }
      ],
      "name": "RecoveryExecuted",
      "type": "event"
    },
    {
      "anonymous": false,
      "inputs": [
        {
          "indexed": false,
          "internalType": "address",
          "name": "_wallet",
          "type": "address"
        },
        {
          "indexed": false,
          "internalType": "address",
          "name": "_recovery",
          "type": "address"
        }
      ],
      "name": "RecoveryTriggered",
      "type": "event"
    },
    {
      "anonymous": false,
      "inputs": [
        {
          "indexed": false,
          "internalType": "address",
          "name": "_wallet",
          "type": "address"
        },
        {
          "indexed": false,
          "internalType": "bytes",
          "name": "data",
          "type": "bytes"
        }
      ],
      "name": "SMInited",
      "type": "event"
    },
    {
      "anonymous": false,
      "inputs": [
        {
          "indexed": false,
          "internalType": "address",
          "name": "_wallet",
          "type": "address"
        },
        {
          "indexed": false,
          "internalType": "uint256",
          "name": "_lockedSecurityPeriod",
          "type": "uint256"
        },
        {
          "indexed": false,
          "internalType": "uint256",
          "name": "_recoverySecurityPeriod",
          "type": "uint256"
        }
      ],
      "name": "SMParameterChanged",
      "type": "event"
    },
    {
      "anonymous": false,
      "inputs": [
        {
          "indexed": false,
          "internalType": "address",
          "name": "_wallet",
          "type": "address"
        },
        {
          "indexed": false,
          "internalType": "address",
          "name": "signer",
          "type": "address"
        }
      ],
      "name": "SignerAdded",
      "type": "event"
    },
    {
      "anonymous": false,
      "inputs": [
        {
          "indexed": false,
          "internalType": "address",
          "name": "_wallet",
          "type": "address"
        },
        {
          "indexed": false,
          "internalType": "address",
          "name": "_oldSigner",
          "type": "address"
        }
      ],
      "name": "SignerRemoved",
      "type": "event"
    },
    {
      "anonymous": false,
      "inputs": [
        {
          "indexed": false,
          "internalType": "address",
          "name": "_wallet",
          "type": "address"
        },
        {
          "indexed": false,
          "internalType": "address",
          "name": "_newSigner",
          "type": "address"
        },
        {
          "indexed": false,
          "internalType": "address",
          "name": "_oldSigner",
          "type": "address"
        }
      ],
      "name": "SignerReplaced",
      "type": "event"
    },
    {
      "anonymous": false,
      "inputs": [
        {
          "indexed": false,
          "internalType": "address",
          "name": "_wallet",
          "type": "address"
        }
      ],
      "name": "Unlocked",
      "type": "event"
    },
    {
      "inputs": [
        {
          "internalType": "address",
          "name": "_moduleRegistry",
          "type": "address"
        },
        {
          "internalType": "address",
          "name": "_wallet",
          "type": "address"
        },
        {
          "internalType": "address",
          "name": "_module",
          "type": "address"
        },
        {
          "internalType": "bytes",
          "name": "data",
          "type": "bytes"
        }
      ],
      "name": "addModule",
      "outputs": [],
      "stateMutability": "nonpayable",
      "type": "function"
    },
    {
      "inputs": [
        {
          "internalType": "address",
          "name": "_wallet",
          "type": "address"
        },
        {
          "internalType": "address",
          "name": "signer",
          "type": "address"
        }
      ],
      "name": "addSigner",
      "outputs": [],
      "stateMutability": "nonpayable",
      "type": "function"
    },
    {
      "inputs": [
        {
          "internalType": "address",
          "name": "_wallet",
          "type": "address"
        }
      ],
      "name": "cancelRecovery",
      "outputs": [],
      "stateMutability": "nonpayable",
      "type": "function"
    },
    {
      "inputs": [
        {
          "internalType": "address",
          "name": "_wallet",
          "type": "address"
        }
      ],
      "name": "executeRecovery",
      "outputs": [],
      "stateMutability": "nonpayable",
      "type": "function"
    },
    {
      "inputs": [
        {
          "internalType": "address[]",
          "name": "_signers",
          "type": "address[]"
        },
        {
          "internalType": "address",
          "name": "_signer",
          "type": "address"
        }
      ],
      "name": "findSigner",
      "outputs": [
        {
          "internalType": "bool",
          "name": "",
          "type": "bool"
        }
      ],
      "stateMutability": "pure",
      "type": "function"
    },
    {
      "inputs": [
        {
          "internalType": "address",
          "name": "_wallet",
          "type": "address"
        }
      ],
      "name": "getLockedSecurityPeriod",
      "outputs": [
        {
          "internalType": "uint256",
          "name": "",
          "type": "uint256"
        }
      ],
      "stateMutability": "view",
      "type": "function"
    },
    {
      "inputs": [
        {
          "internalType": "address",
          "name": "_wallet",
          "type": "address"
        }
      ],
      "name": "getRecoverySecurityPeriod",
      "outputs": [
        {
          "internalType": "uint256",
          "name": "",
          "type": "uint256"
        }
      ],
      "stateMutability": "view",
      "type": "function"
    },
    {
      "inputs": [
        {
          "internalType": "address",
          "name": "_wallet",
          "type": "address"
        }
      ],
      "name": "getSigners",
      "outputs": [
        {
          "internalType": "address[]",
          "name": "",
          "type": "address[]"
        }
      ],
      "stateMutability": "view",
      "type": "function"
    },
    {
      "inputs": [
        {
          "internalType": "address",
          "name": "_wallet",
          "type": "address"
        },
        {
          "internalType": "bytes",
          "name": "data",
          "type": "bytes"
        }
      ],
      "name": "init",
      "outputs": [],
      "stateMutability": "nonpayable",
      "type": "function"
    },
    {
      "inputs": [
        {
          "internalType": "contract IModuleRegistry",
          "name": "_registry",
          "type": "address"
        },
        {
          "internalType": "uint256",
          "name": "_lockedSecurityPeriod",
          "type": "uint256"
        },
        {
          "internalType": "uint256",
          "name": "_recoverySecurityPeriod",
          "type": "uint256"
        }
      ],
      "name": "initialize",
      "outputs": [],
      "stateMutability": "nonpayable",
      "type": "function"
    },
    {
      "inputs": [
        {
          "internalType": "address",
          "name": "_wallet",
          "type": "address"
        }
      ],
      "name": "isInRecovery",
      "outputs": [
        {
          "internalType": "bool",
          "name": "",
          "type": "bool"
        }
      ],
      "stateMutability": "view",
      "type": "function"
    },
    {
      "inputs": [
        {
          "internalType": "address",
          "name": "_wallet",
          "type": "address"
        }
      ],
      "name": "isLocked",
      "outputs": [
        {
          "internalType": "uint256",
          "name": "",
          "type": "uint256"
        }
      ],
      "stateMutability": "view",
      "type": "function"
    },
    {
      "inputs": [
        {
          "internalType": "address",
          "name": "_wallet",
          "type": "address"
        },
        {
          "internalType": "address",
          "name": "_signer",
          "type": "address"
        }
      ],
      "name": "isSigner",
      "outputs": [
        {
          "internalType": "bool",
          "name": "",
          "type": "bool"
        }
      ],
      "stateMutability": "view",
      "type": "function"
    },
    {
      "inputs": [
        {
          "internalType": "address",
          "name": "_wallet",
          "type": "address"
        }
      ],
      "name": "lock",
      "outputs": [],
      "stateMutability": "nonpayable",
      "type": "function"
    },
    {
      "inputs": [
        {
          "internalType": "address",
          "name": "_wallet",
          "type": "address"
        },
        {
          "components": [
            {
              "internalType": "address",
              "name": "to",
              "type": "address"
            },
            {
              "internalType": "uint256",
              "name": "value",
              "type": "uint256"
            },
            {
              "internalType": "bytes",
              "name": "data",
              "type": "bytes"
            },
            {
              "internalType": "uint256",
              "name": "sequenceId",
              "type": "uint256"
            },
            {
              "internalType": "uint256",
              "name": "expireTime",
              "type": "uint256"
            }
          ],
          "internalType": "struct BaseModule.CallArgs",
          "name": "_args",
          "type": "tuple"
        },
        {
          "internalType": "bytes",
          "name": "_signatures",
          "type": "bytes"
        }
      ],
      "name": "multicall",
      "outputs": [],
      "stateMutability": "nonpayable",
      "type": "function"
    },
    {
      "inputs": [
        {
          "internalType": "address",
          "name": "",
          "type": "address"
        }
      ],
      "name": "recoveries",
      "outputs": [
        {
          "internalType": "uint256",
          "name": "activeAt",
          "type": "uint256"
        },
        {
          "internalType": "address",
          "name": "recovery",
          "type": "address"
        }
      ],
      "stateMutability": "view",
      "type": "function"
    },
    {
      "inputs": [],
      "name": "recoverySecurityPeriod",
      "outputs": [
        {
          "internalType": "uint256",
          "name": "",
          "type": "uint256"
        }
      ],
      "stateMutability": "view",
      "type": "function"
    },
    {
      "inputs": [
        {
          "internalType": "address",
          "name": "_wallet",
          "type": "address"
        }
      ],
      "name": "removeModule",
      "outputs": [],
      "stateMutability": "nonpayable",
      "type": "function"
    },
    {
      "inputs": [
        {
          "internalType": "address",
          "name": "_wallet",
          "type": "address"
        },
        {
          "internalType": "address",
          "name": "_oldSigner",
          "type": "address"
        }
      ],
      "name": "removeSigner",
      "outputs": [],
      "stateMutability": "nonpayable",
      "type": "function"
    },
    {
      "inputs": [
        {
          "internalType": "address",
          "name": "_wallet",
          "type": "address"
        },
        {
          "internalType": "address",
          "name": "_newSigner",
          "type": "address"
        },
        {
          "internalType": "address",
          "name": "_oldSigner",
          "type": "address"
        }
      ],
      "name": "replaceSigner",
      "outputs": [],
      "stateMutability": "nonpayable",
      "type": "function"
    },
    {
      "inputs": [
        {
          "internalType": "address",
          "name": "_wallet",
          "type": "address"
        },
        {
          "internalType": "uint256",
          "name": "_lockedSecurityPeriod",
          "type": "uint256"
        },
        {
          "internalType": "uint256",
          "name": "_recoverySecurityPeriod",
          "type": "uint256"
        }
      ],
      "name": "setSecurityPeriod",
      "outputs": [],
      "stateMutability": "nonpayable",
      "type": "function"
    },
    {
      "inputs": [
        {
          "internalType": "address",
          "name": "",
          "type": "address"
        }
      ],
      "name": "signerConfInfos",
      "outputs": [
        {
          "internalType": "bool",
          "name": "exist",
          "type": "bool"
        },
        {
          "internalType": "uint256",
          "name": "lockedPeriod",
          "type": "uint256"
        },
        {
          "internalType": "uint256",
          "name": "recoveryPeriod",
          "type": "uint256"
        }
      ],
      "stateMutability": "view",
      "type": "function"
    },
    {
      "inputs": [
        {
          "internalType": "address",
          "name": "_wallet",
          "type": "address"
        },
        {
          "internalType": "address",
          "name": "_recovery",
          "type": "address"
        }
      ],
      "name": "triggerRecovery",
      "outputs": [],
      "stateMutability": "nonpayable",
      "type": "function"
    },
    {
      "inputs": [
        {
          "internalType": "address",
          "name": "_wallet",
          "type": "address"
        }
      ],
      "name": "unlock",
      "outputs": [],
      "stateMutability": "nonpayable",
      "type": "function"
    }
  ],
  "bytecode": "0x608060405234801561001057600080fd5b506132f3806100206000396000f3fe608060405234801561001057600080fd5b50600436106101585760003560e01c80637e3ba6af116100c3578063a06324611161007c578063a06324611461031b578063c0d91eaf1461032e578063c90db44714610341578063cf0c137214610354578063f435f5a7146103a1578063fc1d47b8146103b457610158565b80637e3ba6af1461029c57806383765b99146102bc57806389ff98e4146102cf5780638d20efa7146102e25780638f29d530146102f55780639de9e4001461030857610158565b806353a2a3f81161011557806353a2a3f8146101da57806368f3073f1461022d5780636fa30cd41461024057806378b248e4146102535780637a1ac61e146102765780637b551f0d1461028957610158565b80630fb436eb1461015d57806313f71305146101795780632239f5561461018e5780632f6c493c146101a15780633bc2c4a7146101b45780634a4fbeec146101c7575b600080fd5b61016660055481565b6040519081526020015b60405180910390f35b61018c610187366004612c0d565b6103c7565b005b61018c61019c3660046129c6565b610542565b61018c6101af36600461298e565b6107d7565b61018c6101c236600461298e565b6109a2565b6101666101d536600461298e565b610af6565b6102106101e836600461298e565b60076020526000908152604090206001810154600282015460039092015460ff909116919083565b604080519315158452602084019290925290820152606001610170565b61016661023b36600461298e565b610b09565b61018c61024e366004612b39565b610bda565b6102666102613660046129c6565b610ef4565b6040519015158152602001610170565b61018c610284366004612c0d565b610fae565b61018c6102973660046129fe565b611088565b6102af6102aa36600461298e565b611328565b6040516101709190612f8d565b61018c6102ca3660046129c6565b61139e565b61018c6102dd366004612a48565b611682565b61018c6102f03660046129c6565b61180b565b61026661030336600461298e565b611b22565b61016661031636600461298e565b611b7c565b61018c61032936600461298e565b611c4d565b61018c61033c366004612aeb565b611cfd565b61018c61034f36600461298e565b612009565b61038461036236600461298e565b600660205260009081526040902080546001909101546001600160a01b031682565b604080519283526001600160a01b03909116602083015201610170565b61018c6103af36600461298e565b6120ed565b6102666103c2366004612cdd565b612242565b82336001600160a01b038216146103f95760405162461bcd60e51b81526004016103f090613132565b60405180910390fd5b83610403816122b6565b156104205760405162461bcd60e51b81526004016103f090613068565b6001600160a01b0385166000908152600760205260409020600181015460ff1661045c5760405162461bcd60e51b81526004016103f090612fda565b848160020154141580610473575083816003015414155b6104ca5760405162461bcd60e51b815260206004820152602260248201527f534d3a4d757374206368616e6765206174206c65617374206f6e6520706572696044820152611bd960f21b60648201526084016103f0565b848160020154146104dd57600281018590555b838160030154146104f057600381018490555b604080516001600160a01b0388168152602081018790529081018590527fd93dd93d4d43d8f00148e4cb11174f8092cbda4e73ebe3a309b5ca984611e2529060600160405180910390a1505050505050565b81336001600160a01b0316816001600160a01b0316638da5cb5b6040518163ffffffff1660e01b815260040160206040518083038186803b15801561058657600080fd5b505afa15801561059a573d6000803e3d6000fd5b505050506040513d601f19601f820116820180604052508101906105be91906129aa565b6001600160a01b0316146105e45760405162461bcd60e51b81526004016103f09061303d565b826105ee816122b6565b1561060b5760405162461bcd60e51b81526004016103f090613068565b61061484612379565b6106305760405162461bcd60e51b81526004016103f090613093565b6001600160a01b0383161580159061064f575061064d8484610ef4565b155b61066b5760405162461bcd60e51b81526004016103f0906130e8565b6001600160a01b0384166000908152600760205260409020600181015460ff166106e55760405162461bcd60e51b815260206004820152602560248201527f534d3a2077616c6c6574207369676e657220696e666f206e6f7420636f6e73696044820152641cdd195b9d60da1b60648201526084016103f0565b80546001810182556000828152602080822090920180546001600160a01b0319166001600160a01b038881169190911790915587168152600790915260409020815482919061073790829084906128ac565b50600182810154908201805460ff191660ff909216151591909117905560028083015481830155600392830154929091019190915581015461078c90869061077f90426131e6565b63111cfaab60e11b6123f2565b604080516001600160a01b038088168252861660208201527f12146497b3b826918ec47f0cac7272a09ed06b30c16c030e99ec48ff5dd60b4791015b60405180910390a15050505050565b80336001600160a01b0316816001600160a01b0316638da5cb5b6040518163ffffffff1660e01b815260040160206040518083038186803b15801561081b57600080fd5b505afa15801561082f573d6000803e3d6000fd5b505050506040513d601f19601f8201168201806040525081019061085391906129aa565b6001600160a01b0316148061086d575061086d8133610ef4565b6108895760405162461bcd60e51b81526004016103f090613006565b81610893816122b6565b6108df5760405162461bcd60e51b815260206004820152601960248201527f424d3a2077616c6c6574206d757374206265206c6f636b65640000000000000060448201526064016103f0565b6001600160a01b038316600090815260026020526040902054600160401b900460e01b6001600160e01b03191663f435f5a760e01b146109555760405162461bcd60e51b8152602060048201526011602482015270534d3a2063616e6e6f7420756e6c6f636b60781b60448201526064016103f0565b610961836000806123f2565b6040516001600160a01b03841681527f7e6adfec7e3f286831a0200a754127c171a2da564078722cb97704741bbdb0ea9060200160405180910390a1505050565b6109ab81611b22565b6109f75760405162461bcd60e51b815260206004820152601b60248201527f534d3a204e6f2076616c6964207265636f7665727920666f756e64000000000060448201526064016103f0565b6001600160a01b038181166000818152600660209081526040918290208251808401845281548152600190910154909416908401819052905163a39a45b760e01b8152600481019190915263a39a45b790602401600060405180830381600087803b158015610a6557600080fd5b505af1158015610a79573d6000803e3d6000fd5b5050506001600160a01b038316600090815260066020526040812081815560010180546001600160a01b0319169055610ab591508390806123f2565b6040516001600160a01b03831681527ffcd2de31341801b7fd80895c780aae50c1505fd674ff1b9b9764c56c633434d6906020015b60405180910390a15050565b6000610b01826122b6565b90505b919050565b6001600160a01b03811660009081526007602090815260408083208151815460a09481028201850190935260808101838152859491938492849190840182828015610b7d57602002820191906000526020600020905b81546001600160a01b03168152600190910190602001808311610b5f575b5050509183525050600182015460ff16151560208083019190915260028301546040830152600390920154606090910152810151909150610bd05760405162461bcd60e51b81526004016103f090612fda565b6040015192915050565b82336001600160a01b0316816001600160a01b0316638da5cb5b6040518163ffffffff1660e01b815260040160206040518083038186803b158015610c1e57600080fd5b505afa158015610c32573d6000803e3d6000fd5b505050506040513d601f19601f82011682018060405250810190610c5691906129aa565b6001600160a01b03161480610c705750610c708133610ef4565b610c8c5760405162461bcd60e51b81526004016103f090613006565b6001600160a01b0384166000908152600760205260409020600181015460ff16610ced5760405162461bcd60e51b815260206004820152601260248201527114d34e881a5b9d985b1a59081dd85b1b195d60721b60448201526064016103f0565b8054600090600290610d009060016131e6565b610d0a91906131fe565b9050600060418551610d1c91906131fe565b905081811015610d6e5760405162461bcd60e51b815260206004820152601960248201527f534d3a204e6f7420656e6f756768207369676e6174757265730000000000000060448201526064016103f0565b6000610d7987612462565b905060008060005b84811015610ea5576000610d96858b846124b9565b9050826001600160a01b0316816001600160a01b031611610df95760405162461bcd60e51b815260206004820152601c60248201527f534d3a204261646c79206f726465726564207369676e6174757265730000000060448201526064016103f0565b809250610e6288600001805480602002602001604051908101604052809291908181526020018280548015610e5757602002820191906000526020600020905b81546001600160a01b03168152600190910190602001808311610e39575b505050505082612242565b15610e9257610e726001856131e6565b9350868410610e9257610e858c8c61257b565b5050505050505050610eee565b5080610e9d81613261565b915050610d81565b5060405162461bcd60e51b815260206004820152601f60248201527f534d3a204e6f7420656e6f7567682076616c6964207369676e6174757265730060448201526064016103f0565b50505050565b6001600160a01b03821660009081526007602090815260408083208151815460a09481028201850190935260808101838152859491938492849190840182828015610f6857602002820191906000526020600020905b81546001600160a01b03168152600190910190602001808311610f4a575b5050509183525050600182015460ff1615156020820152600282015460408201526003909101546060909101528051909150610fa49084612242565b9150505b92915050565b600454610100900460ff1680610fc7575060045460ff16155b61102a5760405162461bcd60e51b815260206004820152602e60248201527f496e697469616c697a61626c653a20636f6e747261637420697320616c72656160448201526d191e481a5b9a5d1a585b1a5e995960921b60648201526084016103f0565b600454610100900460ff1615801561104c576004805461ffff19166101011790555b600080546001600160a01b0319166001600160a01b038616179055600383905560058290558015610eee576004805461ff001916905550505050565b82336001600160a01b0316816001600160a01b0316638da5cb5b6040518163ffffffff1660e01b815260040160206040518083038186803b1580156110cc57600080fd5b505afa1580156110e0573d6000803e3d6000fd5b505050506040513d601f19601f8201168201806040525081019061110491906129aa565b6001600160a01b03161461112a5760405162461bcd60e51b81526004016103f09061303d565b83611134816122b6565b156111515760405162461bcd60e51b81526004016103f090613068565b61115a85612379565b6111765760405162461bcd60e51b81526004016103f090613093565b6001600160a01b0384161580159061119357506111938584610ef4565b6111af5760405162461bcd60e51b81526004016103f0906130e8565b6001600160a01b0385166000908152600760205260409020600181015460ff166111eb5760405162461bcd60e51b81526004016103f090612fda565b80546000906111fc9060019061321e565b905060005b825461120f9060019061321e565b8110156112ba5782600001818154811061123957634e487b7160e01b600052603260045260246000fd5b6000918252602090912001546001600160a01b03878116911614156112a8578683600001828154811061127c57634e487b7160e01b600052603260045260246000fd5b600091825260209091200180546001600160a01b0319166001600160a01b039290921691909117905550805b806112b281613261565b915050611201565b506112cf8783600201544261077f91906131e6565b604080516001600160a01b03808a16825280891660208301528716918101919091527f37852b11621736fac970fe97a5b848e91df7ca7dcf4f4804dcb59fb192104d2d906060015b60405180910390a150505050505050565b6001600160a01b03811660009081526007602090815260409182902080548351818402810184019094528084526060939283018282801561139257602002820191906000526020600020905b81546001600160a01b03168152600190910190602001808311611374575b50505050509050919050565b81336001600160a01b038216146113c75760405162461bcd60e51b81526004016103f090613132565b6001600160a01b0382166114165760405162461bcd60e51b815260206004820152601660248201527529a69d1024b73b30b634b2103732bb9039b4b3b732b960511b60448201526064016103f0565b826001600160a01b0316638da5cb5b6040518163ffffffff1660e01b815260040160206040518083038186803b15801561144f57600080fd5b505afa158015611463573d6000803e3d6000fd5b505050506040513d601f19601f8201168201806040525081019061148791906129aa565b6001600160a01b0316826001600160a01b031614156114f45760405162461bcd60e51b8152602060048201526024808201527f534d3a206f776e65722063616e206e6f7420747269676765722061207265636f6044820152637665727960e01b60648201526084016103f0565b6114fe8383610ef4565b1561155c5760405162461bcd60e51b815260206004820152602860248201527f534d3a206e65774f776e65722063616e277420626520616e206578697374696e604482015267339039b4b3b732b960c11b60648201526084016103f0565b61156583611b22565b156115b25760405162461bcd60e51b815260206004820152601c60248201527f534d3a2073686f756c64206e6f7420747269676765722074776963650000000060448201526064016103f0565b6001600160a01b038316600090815260076020526040902060028101546115ec9085906115df90426131e6565b6383765b9960e01b6123f2565b60008160030154426115fe91906131e6565b6040805180820182528281526001600160a01b0387811660208084018281528b8416600081815260068452879020955186559051600190950180546001600160a01b03191695909416949094179092558351928352908201529192507fd7170f681aaf2414cac5ce9811b90655ed4e8deaa1f57051d5773acdd69fc3fd91016107c8565b83336001600160a01b038216146116ab5760405162461bcd60e51b81526004016103f090613132565b846116b5816122b6565b156116d25760405162461bcd60e51b81526004016103f090613068565b600054604051630bcd4ebb60e01b81526001600160a01b03878116600483015290911690630bcd4ebb9060240160206040518083038186803b15801561171757600080fd5b505afa15801561172b573d6000803e3d6000fd5b505050506040513d601f19601f8201168201806040525081019061174f9190612d8b565b61179b5760405162461bcd60e51b815260206004820152601c60248201527f534d3a206d6f64756c65206973206e6f7420726567697374657265640000000060448201526064016103f0565b604051636d1c590560e11b81526001600160a01b0387169063da38b20a906117d0908a9089906001908a908a90600401612ead565b600060405180830381600087803b1580156117ea57600080fd5b505af11580156117fe573d6000803e3d6000fd5b5050505050505050505050565b81336001600160a01b0316816001600160a01b0316638da5cb5b6040518163ffffffff1660e01b815260040160206040518083038186803b15801561184f57600080fd5b505afa158015611863573d6000803e3d6000fd5b505050506040513d601f19601f8201168201806040525081019061188791906129aa565b6001600160a01b0316146118ad5760405162461bcd60e51b81526004016103f09061303d565b826118b7816122b6565b156118d45760405162461bcd60e51b81526004016103f090613068565b6118dd84612379565b6118f95760405162461bcd60e51b81526004016103f090613093565b6119038484610ef4565b6119475760405162461bcd60e51b815260206004820152601560248201527429a69d1034b73b30b634b21037b63229b4b3b732b960591b60448201526064016103f0565b6001600160a01b0384166000908152600760205260409020600181015460ff166119835760405162461bcd60e51b81526004016103f090612fda565b80546000906119949060019061321e565b905060008260000182815481106119bb57634e487b7160e01b600052603260045260246000fd5b60009182526020822001546001600160a01b031691505b83546119e09060019061321e565b811015611a8b57836000018181548110611a0a57634e487b7160e01b600052603260045260246000fd5b6000918252602090912001546001600160a01b0388811691161415611a795781846000018281548110611a4d57634e487b7160e01b600052603260045260246000fd5b600091825260209091200180546001600160a01b0319166001600160a01b039290921691909117905550815b80611a8381613261565b9150506119d2565b508254839080611aab57634e487b7160e01b600052603160045260246000fd5b600082815260209020810160001990810180546001600160a01b03191690550190556002830154611ae290889061077f90426131e6565b604080516001600160a01b03808a168252881660208201527f98d1ebbe00ae92a5de96a0f49742a8afa89f42363592bc2e7cfaaed68b45e7a69101611317565b6001600160a01b0380821660009081526006602090815260408083208151808301909252805480835260019091015490941691810191909152909115801590611b755750805167ffffffffffffffff4216105b9392505050565b6001600160a01b03811660009081526007602090815260408083208151815460a09481028201850190935260808101838152859491938492849190840182828015611bf057602002820191906000526020600020905b81546001600160a01b03168152600190910190602001808311611bd2575b5050509183525050600182015460ff16151560208083019190915260028301546040830152600390920154606090910152810151909150611c435760405162461bcd60e51b81526004016103f090612fda565b6060015192915050565b80336001600160a01b03821614611c765760405162461bcd60e51b81526004016103f090613132565b6001600160a01b03821660009081526007602052604090206001015460ff16611cb15760405162461bcd60e51b81526004016103f090612fda565b611cba82612653565b6001600160a01b038216600090815260076020526040812090611cdd82826128fc565b5060018101805460ff191690556000600282018190556003909101555050565b81336001600160a01b03821614611d265760405162461bcd60e51b81526004016103f090613132565b611d2f83612379565b15611d935760405162461bcd60e51b815260206004820152602e60248201527f534d3a2073686f756c64206e6f74206164642073616d65206d6f64756c65207460448201526d6f2077616c6c657420747769636560901b60648201526084016103f0565b6001600160a01b03831660009081526007602052604090206001015460ff1615611e0b5760405162461bcd60e51b8152602060048201526024808201527f534d3a2077616c6c65742065786973747320696e207369676e6572436f6e66496044820152636e666f7360e01b60648201526084016103f0565b611e1483612795565b600082806020019051810190611e2a9190612c41565b6001600160a01b03851660009081526007602052604081209192505b8251811015611fb65781600001838281518110611e7357634e487b7160e01b600052603260045260246000fd5b602090810291909101810151825460018101845560009384529282902090920180546001600160a01b0319166001600160a01b0393841617905560408051638da5cb5b60e01b8152905192891692638da5cb5b92600480840193919291829003018186803b158015611ee457600080fd5b505afa158015611ef8573d6000803e3d6000fd5b505050506040513d601f19601f82011682018060405250810190611f1c91906129aa565b6001600160a01b0316838281518110611f4557634e487b7160e01b600052603260045260246000fd5b60200260200101516001600160a01b03161415611fa45760405162461bcd60e51b815260206004820152601a60248201527f534d3a207369676e65722063616e6e2774206265206f776e657200000000000060448201526064016103f0565b80611fae81613261565b915050611e46565b506001818101805460ff19169091179055600380546002830155600554908201556040517fa8d2f5a0d7d2b8f16c64d920753528ba37b74315cce0ad809a556564e88ddd58906107c89087908790612eff565b80336001600160a01b038216146120325760405162461bcd60e51b81526004016103f090613132565b61203b82611b22565b61207c5760405162461bcd60e51b8152602060048201526012602482015271534d3a206e6f74207265636f766572696e6760701b60448201526064016103f0565b6001600160a01b038216600090815260066020526040812081815560010180546001600160a01b03191690556120b4908390806123f2565b6040516001600160a01b03831681527f8154b6c5e1fc90d44b49808ef93f9739148d0821411890f8cd684385e24b9f1e90602001610aea565b80336001600160a01b0316816001600160a01b0316638da5cb5b6040518163ffffffff1660e01b815260040160206040518083038186803b15801561213157600080fd5b505afa158015612145573d6000803e3d6000fd5b505050506040513d601f19601f8201168201806040525081019061216991906129aa565b6001600160a01b0316148061218357506121838133610ef4565b61219f5760405162461bcd60e51b81526004016103f090613006565b816121a9816122b6565b156121c65760405162461bcd60e51b81526004016103f090613068565b6001600160a01b038316600090815260076020526040902060028101546122009085906121f390426131e6565b63f435f5a760e01b6123f2565b6040516001600160a01b03851681527f44427e3003a08f22cf803894075ac0297524e09e521fc1c15bc91741ce3dc1599060200160405180910390a150505050565b6000805b83518110156122ac57826001600160a01b031684828151811061227957634e487b7160e01b600052603260045260246000fd5b60200260200101516001600160a01b0316141561229a576001915050610fa8565b806122a481613261565b915050612246565b5060009392505050565b6001600160a01b03811660009081526002602052604081205467ffffffffffffffff42811691161115612371576001600160a01b038216600090815260026020526040902054600160401b900460e01b6001600160e01b03191663111cfaab60e11b141561232657506001610b04565b6001600160a01b038216600090815260026020526040902054600160401b900460e01b6001600160e01b03191663413cd83160e11b141561236957506002610b04565b506003610b04565b506000919050565b6000805b6001548110156123e957826001600160a01b0316600182815481106123b257634e487b7160e01b600052603260045260246000fd5b6000918252602090912001546001600160a01b031614156123d7576001915050610b04565b806123e181613261565b91505061237d565b50600092915050565b60408051808201825267ffffffffffffffff93841681526001600160e01b031990921660208084019182526001600160a01b0390951660009081526002909552932090518154935160e01c600160401b026bffffffffffffffffffffffff19909416921691909117919091179055565b8051602080830151604080850151606086015191516000959491929161249891601960f81b918891889188918891889101612e4a565b60405160208183030381529060405280519060200120945050505050919050565b6000806000806124c9868661283c565b6040517f19457468657265756d205369676e6564204d6573736167653a0a3332000000006020820152603c81018b90529295509093509150600190605c0160408051601f198184030181528282528051602091820120600084529083018083525260ff861690820152606081018490526080810183905260a0016020604051602081039080840390855afa158015612565573d6000803e3d6000fd5b5050604051601f19015198975050505050505050565b8051602082015160408084015160608501516080860151925163b14f6c8360e01b8152919290916001600160a01b0388169063b14f6c83906125c99088908890889087908990600401612f52565b600060405180830381600087803b1580156125e357600080fd5b505af11580156125f7573d6000803e3d6000fd5b505050506040513d6000823e601f3d908101601f1916820160405261261f9190810190612dab565b507f16a95b1f4b59f6a32941b3b48a50be9d4d9f9c4da4cb504681489daabf99192885858560405161131793929190612f2b565b600180546000916126639161321e565b905060005b8181101561274f57826001600160a01b03166001828154811061269b57634e487b7160e01b600052603260045260246000fd5b6000918252602090912001546001600160a01b0316141561273d57600182815481106126d757634e487b7160e01b600052603260045260246000fd5b600091825260209091200154600180546001600160a01b03909216918390811061271157634e487b7160e01b600052603260045260246000fd5b600091825260209091200180546001600160a01b0319166001600160a01b039290921691909117905550805b8061274781613261565b915050612668565b50600180548061276f57634e487b7160e01b600052603160045260246000fd5b600082815260209020810160001990810180546001600160a01b03191690550190555050565b61279e81612379565b156127eb5760405162461bcd60e51b815260206004820152601d60248201527f424d3a2077616c6c657420616c7265616479207265676973746572656400000060448201526064016103f0565b6001805480820182556000919091527fb10e2d527612073b26eecdfd717e6a320cf44b4afac2b0732d9fcbe2b7fa0cf60180546001600160a01b0319166001600160a01b0392909216919091179055565b6041808202830160208101516040820151919092015160ff169190601b83148061286957508260ff16601c145b6128a55760405162461bcd60e51b815260206004820152600d60248201526c29a69d1024b73b30b634b2103b60991b60448201526064016103f0565b9250925092565b8280548282559060005260206000209081019282156128ec5760005260206000209182015b828111156128ec5782548255916001019190600101906128d1565b506128f892915061291d565b5090565b508054600082559060005260206000209081019061291a919061291d565b50565b5b808211156128f8576000815560010161291e565b8035610b04816132a8565b600082601f83011261294d578081fd5b813561296061295b826131be565b613169565b818152846020838601011115612974578283fd5b816020850160208301379081016020019190915292915050565b60006020828403121561299f578081fd5b8135611b75816132a8565b6000602082840312156129bb578081fd5b8151611b75816132a8565b600080604083850312156129d8578081fd5b82356129e3816132a8565b915060208301356129f3816132a8565b809150509250929050565b600080600060608486031215612a12578081fd5b8335612a1d816132a8565b92506020840135612a2d816132a8565b91506040840135612a3d816132a8565b809150509250925092565b600080600080600060808688031215612a5f578081fd5b8535612a6a816132a8565b94506020860135612a7a816132a8565b93506040860135612a8a816132a8565b9250606086013567ffffffffffffffff80821115612aa6578283fd5b818801915088601f830112612ab9578283fd5b813581811115612ac7578384fd5b896020828501011115612ad8578384fd5b9699959850939650602001949392505050565b60008060408385031215612afd578182fd5b8235612b08816132a8565b9150602083013567ffffffffffffffff811115612b23578182fd5b612b2f8582860161293d565b9150509250929050565b600080600060608486031215612b4d578283fd5b8335612b58816132a8565b9250602084013567ffffffffffffffff80821115612b74578384fd5b9085019060a08288031215612b87578384fd5b612b9160a0613169565b8235612b9c816132a8565b815260208381013590820152604083013582811115612bb9578586fd5b612bc58982860161293d565b6040830152506060830135606082015260808301356080820152809450506040860135915080821115612bf6578283fd5b50612c038682870161293d565b9150509250925092565b600080600060608486031215612c21578081fd5b8335612c2c816132a8565b95602085013595506040909401359392505050565b60006020808385031215612c53578182fd5b825167ffffffffffffffff811115612c69578283fd5b8301601f81018513612c79578283fd5b8051612c8761295b8261319a565b80828252848201915084840188868560051b8701011115612ca6578687fd5b8694505b83851015612cd1578051612cbd816132a8565b835260019490940193918501918501612caa565b50979650505050505050565b60008060408385031215612cef578182fd5b823567ffffffffffffffff811115612d05578283fd5b8301601f81018513612d15578283fd5b80356020612d2561295b8361319a565b80838252828201915082850189848660051b8801011115612d44578788fd5b8795505b84861015612d6f578035612d5b816132a8565b835260019590950194918301918301612d48565b509550612d7f9050868201612932565b93505050509250929050565b600060208284031215612d9c578081fd5b81518015158114611b75578182fd5b600060208284031215612dbc578081fd5b815167ffffffffffffffff811115612dd2578182fd5b8201601f81018413612de2578182fd5b8051612df061295b826131be565b818152856020838501011115612e04578384fd5b612e15826020830160208601613235565b95945050505050565b60008151808452612e36816020860160208601613235565b601f01601f19169290920160200192915050565b6001600160f81b0319878116825286166001820152606085901b6bffffffffffffffffffffffff19166002820152601681018490528251600090612e95816036850160208801613235565b60369201918201929092526056019695505050505050565b6001600160a01b03868116825285166020820152831515604082015260806060820181905281018290526000828460a084013781830160a090810191909152601f909201601f19160101949350505050565b6001600160a01b0383168152604060208201819052600090612f2390830184612e1e565b949350505050565b600060018060a01b038516825283602083015260606040830152612e156060830184612e1e565b600060018060a01b038716825285602083015260a06040830152612f7960a0830186612e1e565b606083019490945250608001529392505050565b6020808252825182820181905260009190848201906040850190845b81811015612fce5783516001600160a01b031683529284019291840191600101612fa9565b50909695505050505050565b60208082526012908201527114d34e88125b9d985b1a59081dd85b1b195d60721b604082015260600190565b60208082526019908201527f534d3a206d757374206265207369676e65722f77616c6c657400000000000000604082015260600190565b60208082526011908201527021269d1036bab9ba1031329037bbb732b960791b604082015260600190565b60208082526011908201527010934e881dd85b1b195d081b1bd8dad959607a1b604082015260600190565b60208082526035908201527f534d3a2077616c6c65742073686f756c642062652072656769737465726564206040820152746265666f726520616464696e67207369676e65727360581b606082015260800190565b6020808252602a908201527f534d3a20696e76616c6964206e65775369676e6572206f7220696e76616c69646040820152691037b63229b4b3b732b960b11b606082015260800190565b60208082526019908201527f424d3a2063616c6c6572206d7573742062652077616c6c657400000000000000604082015260600190565b604051601f8201601f1916810167ffffffffffffffff8111828210171561319257613192613292565b604052919050565b600067ffffffffffffffff8211156131b4576131b4613292565b5060051b60200190565b600067ffffffffffffffff8211156131d8576131d8613292565b50601f01601f191660200190565b600082198211156131f9576131f961327c565b500190565b60008261321957634e487b7160e01b81526012600452602481fd5b500490565b6000828210156132305761323061327c565b500390565b60005b83811015613250578181015183820152602001613238565b83811115610eee5750506000910152565b60006000198214156132755761327561327c565b5060010190565b634e487b7160e01b600052601160045260246000fd5b634e487b7160e01b600052604160045260246000fd5b6001600160a01b038116811461291a57600080fdfea26469706673582212206da0ae4e4c8028280770ddd703b12a959846f3299ced5efb59ddbec10f154c8264736f6c63430008030033",
  "linkReferences": {},
  "deployedLinkReferences": {}
}