{
  "_format": "hh-sol-artifact-1",
  "contractName": "SecurityModule",
  "sourceName": "contracts/SecurityModule.sol",
  "abi": [
    {
      "inputs": [],
      "stateMutability": "nonpayable",
      "type": "constructor"
    },
    {
      "anonymous": false,
      "inputs": [
        {
          "indexed": false,
          "internalType": "address",
          "name": "to",
          "type": "address"
        },
        {
          "indexed": false,
          "internalType": "uint256",
          "name": "value",
          "type": "uint256"
        },
        {
          "indexed": false,
          "internalType": "bytes",
          "name": "data",
          "type": "bytes"
        }
      ],
      "name": "MultiCalled",
      "type": "event"
    },
    {
      "inputs": [
        {
          "internalType": "address",
          "name": "_wallet",
          "type": "address"
        },
        {
          "internalType": "address",
          "name": "_module",
          "type": "address"
        },
        {
          "internalType": "bytes",
          "name": "data",
          "type": "bytes"
        }
      ],
      "name": "addModule",
      "outputs": [],
      "stateMutability": "nonpayable",
      "type": "function"
    },
    {
      "inputs": [
        {
          "internalType": "address",
          "name": "_wallet",
          "type": "address"
        },
        {
          "internalType": "address",
          "name": "signer",
          "type": "address"
        }
      ],
      "name": "addSigner",
      "outputs": [],
      "stateMutability": "nonpayable",
      "type": "function"
    },
    {
      "inputs": [
        {
          "internalType": "address",
          "name": "_wallet",
          "type": "address"
        }
      ],
      "name": "cancelRecovery",
      "outputs": [],
      "stateMutability": "nonpayable",
      "type": "function"
    },
    {
      "inputs": [
        {
          "internalType": "address",
          "name": "_wallet",
          "type": "address"
        }
      ],
      "name": "executeRecovery",
      "outputs": [],
      "stateMutability": "nonpayable",
      "type": "function"
    },
    {
      "inputs": [
        {
          "internalType": "address[]",
          "name": "_signers",
          "type": "address[]"
        },
        {
          "internalType": "address",
          "name": "_signer",
          "type": "address"
        }
      ],
      "name": "findSigner",
      "outputs": [
        {
          "internalType": "bool",
          "name": "",
          "type": "bool"
        }
      ],
      "stateMutability": "pure",
      "type": "function"
    },
    {
      "inputs": [
        {
          "internalType": "address",
          "name": "_wallet",
          "type": "address"
        }
      ],
      "name": "getLockedSecurityPeriod",
      "outputs": [
        {
          "internalType": "uint256",
          "name": "",
          "type": "uint256"
        }
      ],
      "stateMutability": "view",
      "type": "function"
    },
    {
      "inputs": [
        {
          "internalType": "address",
          "name": "_wallet",
          "type": "address"
        }
      ],
      "name": "getRecoverySecurityPeriod",
      "outputs": [
        {
          "internalType": "uint256",
          "name": "",
          "type": "uint256"
        }
      ],
      "stateMutability": "view",
      "type": "function"
    },
    {
      "inputs": [
        {
          "internalType": "address",
          "name": "_wallet",
          "type": "address"
        }
      ],
      "name": "getSigners",
      "outputs": [
        {
          "internalType": "address[]",
          "name": "",
          "type": "address[]"
        }
      ],
      "stateMutability": "view",
      "type": "function"
    },
    {
      "inputs": [
        {
          "internalType": "address",
          "name": "_wallet",
          "type": "address"
        },
        {
          "internalType": "bytes",
          "name": "data",
          "type": "bytes"
        }
      ],
      "name": "init",
      "outputs": [],
      "stateMutability": "nonpayable",
      "type": "function"
    },
    {
      "inputs": [
        {
          "internalType": "contract IModuleRegistry",
          "name": "_registry",
          "type": "address"
        },
        {
          "internalType": "uint256",
          "name": "_lockedSecurityPeriod",
          "type": "uint256"
        },
        {
          "internalType": "uint256",
          "name": "_recoverySecurityPeriod",
          "type": "uint256"
        }
      ],
      "name": "initialize",
      "outputs": [],
      "stateMutability": "nonpayable",
      "type": "function"
    },
    {
      "inputs": [
        {
          "internalType": "address",
          "name": "_wallet",
          "type": "address"
        }
      ],
      "name": "isInRecovery",
      "outputs": [
        {
          "internalType": "bool",
          "name": "",
          "type": "bool"
        }
      ],
      "stateMutability": "view",
      "type": "function"
    },
    {
      "inputs": [
        {
          "internalType": "address",
          "name": "_wallet",
          "type": "address"
        }
      ],
      "name": "isLocked",
      "outputs": [
        {
          "internalType": "bool",
          "name": "",
          "type": "bool"
        }
      ],
      "stateMutability": "view",
      "type": "function"
    },
    {
      "inputs": [
        {
          "internalType": "address",
          "name": "_wallet",
          "type": "address"
        },
        {
          "internalType": "address",
          "name": "_signer",
          "type": "address"
        }
      ],
      "name": "isSigner",
      "outputs": [
        {
          "internalType": "bool",
          "name": "",
          "type": "bool"
        }
      ],
      "stateMutability": "view",
      "type": "function"
    },
    {
      "inputs": [
        {
          "internalType": "address",
          "name": "_wallet",
          "type": "address"
        }
      ],
      "name": "lock",
      "outputs": [],
      "stateMutability": "nonpayable",
      "type": "function"
    },
    {
      "inputs": [],
      "name": "lockedSecurityPeriod",
      "outputs": [
        {
          "internalType": "uint256",
          "name": "",
          "type": "uint256"
        }
      ],
      "stateMutability": "view",
      "type": "function"
    },
    {
      "inputs": [
        {
          "internalType": "address",
          "name": "_wallet",
          "type": "address"
        },
        {
          "components": [
            {
              "internalType": "address",
              "name": "to",
              "type": "address"
            },
            {
              "internalType": "uint256",
              "name": "value",
              "type": "uint256"
            },
            {
              "internalType": "bytes",
              "name": "data",
              "type": "bytes"
            },
            {
              "internalType": "uint256",
              "name": "sequenceId",
              "type": "uint256"
            },
            {
              "internalType": "uint256",
              "name": "expireTime",
              "type": "uint256"
            }
          ],
          "internalType": "struct BaseModule.CallArgs",
          "name": "_args",
          "type": "tuple"
        },
        {
          "internalType": "bytes",
          "name": "_signatures",
          "type": "bytes"
        }
      ],
      "name": "multicall",
      "outputs": [],
      "stateMutability": "nonpayable",
      "type": "function"
    },
    {
      "inputs": [
        {
          "internalType": "address",
          "name": "",
          "type": "address"
        }
      ],
      "name": "recoveries",
      "outputs": [
        {
          "internalType": "uint256",
          "name": "activeAt",
          "type": "uint256"
        },
        {
          "internalType": "address",
          "name": "recovery",
          "type": "address"
        }
      ],
      "stateMutability": "view",
      "type": "function"
    },
    {
      "inputs": [],
      "name": "recoverySecurityPeriod",
      "outputs": [
        {
          "internalType": "uint256",
          "name": "",
          "type": "uint256"
        }
      ],
      "stateMutability": "view",
      "type": "function"
    },
    {
      "inputs": [
        {
          "internalType": "address",
          "name": "_wallet",
          "type": "address"
        },
        {
          "internalType": "address",
          "name": "_oldSigner",
          "type": "address"
        }
      ],
      "name": "removeSigner",
      "outputs": [],
      "stateMutability": "nonpayable",
      "type": "function"
    },
    {
      "inputs": [
        {
          "internalType": "address",
          "name": "_wallet",
          "type": "address"
        },
        {
          "internalType": "address",
          "name": "_newSigner",
          "type": "address"
        },
        {
          "internalType": "address",
          "name": "_oldSigner",
          "type": "address"
        }
      ],
      "name": "replaceSigner",
      "outputs": [],
      "stateMutability": "nonpayable",
      "type": "function"
    },
    {
      "inputs": [
        {
          "internalType": "address",
          "name": "_wallet",
          "type": "address"
        },
        {
          "internalType": "uint256",
          "name": "_lockedSecurityPeriod",
          "type": "uint256"
        },
        {
          "internalType": "uint256",
          "name": "_recoverySecurityPeriod",
          "type": "uint256"
        }
      ],
      "name": "setSecurityPeriod",
      "outputs": [],
      "stateMutability": "nonpayable",
      "type": "function"
    },
    {
      "inputs": [
        {
          "internalType": "address",
          "name": "",
          "type": "address"
        }
      ],
      "name": "signerConfInfos",
      "outputs": [
        {
          "internalType": "bool",
          "name": "exist",
          "type": "bool"
        },
        {
          "internalType": "uint256",
          "name": "lockedPeriod",
          "type": "uint256"
        },
        {
          "internalType": "uint256",
          "name": "recoveryPeriod",
          "type": "uint256"
        }
      ],
      "stateMutability": "view",
      "type": "function"
    },
    {
      "inputs": [
        {
          "internalType": "address",
          "name": "_wallet",
          "type": "address"
        },
        {
          "internalType": "address",
          "name": "_recovery",
          "type": "address"
        }
      ],
      "name": "triggerRecovery",
      "outputs": [],
      "stateMutability": "nonpayable",
      "type": "function"
    },
    {
      "inputs": [
        {
          "internalType": "address",
          "name": "_wallet",
          "type": "address"
        }
      ],
      "name": "unlock",
      "outputs": [],
      "stateMutability": "nonpayable",
      "type": "function"
    }
  ],
  "bytecode": "0x608060405234801561001057600080fd5b506151f7806100206000396000f3fe608060405234801561001057600080fd5b50600436106101585760003560e01c80637b551f0d116100c3578063c0d91eaf1161007c578063c0d91eaf146103e5578063c6de2a3f14610401578063c90db4471461041f578063cf0c13721461043b578063f435f5a71461046c578063fc1d47b81461048857610158565b80637b551f0d146103015780637e3ba6af1461031d57806383765b991461034d5780638d20efa7146103695780638f29d530146103855780639de9e400146103b557610158565b806353a2a3f81161011557806353a2a3f81461021b57806368f3073f1461024d5780636fa30cd41461027d57806371bf3af11461029957806378b248e4146102b55780637a1ac61e146102e557610158565b80630fb436eb1461015d57806313f713051461017b5780632239f556146101975780632f6c493c146101b35780633bc2c4a7146101cf5780634a4fbeec146101eb575b600080fd5b6101656104b8565b6040516101729190614727565b60405180910390f35b61019560048036038101906101909190613a12565b6104be565b005b6101b160048036038101906101ac9190613848565b6106c5565b005b6101cd60048036038101906101c891906137f6565b610a82565b005b6101e960048036038101906101e491906137f6565b610cb2565b005b610205600480360381019061020091906137f6565b610e9b565b6040516102129190614310565b60405180910390f35b610235600480360381019061023091906137f6565b610ead565b6040516102449392919061432b565b60405180910390f35b610267600480360381019061026291906137f6565b610ee4565b6040516102749190614727565b60405180910390f35b61029760048036038101906102929190613993565b611041565b005b6102b360048036038101906102ae91906138d3565b611401565b005b6102cf60048036038101906102ca9190613848565b61161c565b6040516102dc9190614310565b60405180910390f35b6102ff60048036038101906102fa9190613b60565b61173f565b005b61031b60048036038101906103169190613884565b611879565b005b610337600480360381019061033291906137f6565b611c38565b60405161034491906142ee565b60405180910390f35b61036760048036038101906103629190613848565b611d08565b005b610383600480360381019061037e9190613848565b6120a3565b005b61039f600480360381019061039a91906137f6565b612503565b6040516103ac9190614310565b60405180910390f35b6103cf60048036038101906103ca91906137f6565b6125dc565b6040516103dc9190614727565b60405180910390f35b6103ff60048036038101906103fa919061393f565b612739565b005b610409612b10565b6040516104169190614727565b60405180910390f35b610439600480360381019061043491906137f6565b612b16565b005b610455600480360381019061045091906137f6565b612c51565b604051610463929190614742565b60405180910390f35b610486600480360381019061048191906137f6565b612c95565b005b6104a2600480360381019061049d9190613aa2565b612e46565b6040516104af9190614310565b60405180910390f35b60055481565b823373ffffffffffffffffffffffffffffffffffffffff168173ffffffffffffffffffffffffffffffffffffffff16638da5cb5b6040518163ffffffff1660e01b815260040160206040518083038186803b15801561051c57600080fd5b505afa158015610530573d6000803e3d6000fd5b505050506040513d601f19601f82011682018060405250810190610554919061381f565b73ffffffffffffffffffffffffffffffffffffffff16146105aa576040517f08c379a00000000000000000000000000000000000000000000000000000000081526004016105a190614567565b60405180910390fd5b6000600760008673ffffffffffffffffffffffffffffffffffffffff1673ffffffffffffffffffffffffffffffffffffffff16815260200190815260200160002090508060010160009054906101000a900460ff1661063e576040517f08c379a000000000000000000000000000000000000000000000000000000000815260040161063590614407565b60405180910390fd5b838160020154141580610655575082816003015414155b610694576040517f08c379a000000000000000000000000000000000000000000000000000000000815260040161068b90614707565b60405180910390fd5b838160020154146106a9578381600201819055505b828160030154146106be578281600301819055505b5050505050565b813373ffffffffffffffffffffffffffffffffffffffff168173ffffffffffffffffffffffffffffffffffffffff16638da5cb5b6040518163ffffffff1660e01b815260040160206040518083038186803b15801561072357600080fd5b505afa158015610737573d6000803e3d6000fd5b505050506040513d601f19601f8201168201806040525081019061075b919061381f565b73ffffffffffffffffffffffffffffffffffffffff16146107b1576040517f08c379a00000000000000000000000000000000000000000000000000000000081526004016107a890614567565b60405180910390fd5b826107bb81612ef4565b156107fb576040517f08c379a00000000000000000000000000000000000000000000000000000000081526004016107f2906145c7565b60405180910390fd5b61080484612f6a565b610843576040517f08c379a000000000000000000000000000000000000000000000000000000000815260040161083a906145e7565b60405180910390fd5b600073ffffffffffffffffffffffffffffffffffffffff168373ffffffffffffffffffffffffffffffffffffffff16141580156108875750610885848461161c565b155b6108c6576040517f08c379a00000000000000000000000000000000000000000000000000000000081526004016108bd90614647565b60405180910390fd5b6000600760008673ffffffffffffffffffffffffffffffffffffffff1673ffffffffffffffffffffffffffffffffffffffff16815260200190815260200160002090508060010160009054906101000a900460ff1661095a576040517f08c379a0000000000000000000000000000000000000000000000000000000008152600401610951906145a7565b60405180910390fd5b80600001849080600181540180825580915050600190039060005260206000200160009091909190916101000a81548173ffffffffffffffffffffffffffffffffffffffff021916908373ffffffffffffffffffffffffffffffffffffffff16021790555080600760008773ffffffffffffffffffffffffffffffffffffffff1673ffffffffffffffffffffffffffffffffffffffff1681526020019081526020016000206000820181600001908054610a15929190613438565b506001820160009054906101000a900460ff168160010160006101000a81548160ff0219169083151502179055506002820154816002015560038201548160030155905050610a7b85826002015442610a6e9190614869565b632239f55660e01b61303f565b5050505050565b803373ffffffffffffffffffffffffffffffffffffffff168173ffffffffffffffffffffffffffffffffffffffff16638da5cb5b6040518163ffffffff1660e01b815260040160206040518083038186803b158015610ae057600080fd5b505afa158015610af4573d6000803e3d6000fd5b505050506040513d601f19601f82011682018060405250810190610b18919061381f565b73ffffffffffffffffffffffffffffffffffffffff161480610b405750610b3f813361161c565b5b610b7f576040517f08c379a0000000000000000000000000000000000000000000000000000000008152600401610b76906144e7565b60405180910390fd5b81610b8981612ef4565b610bc8576040517f08c379a0000000000000000000000000000000000000000000000000000000008152600401610bbf906146c7565b60405180910390fd5b63f435f5a760e01b7bffffffffffffffffffffffffffffffffffffffffffffffffffffffff1916600260008573ffffffffffffffffffffffffffffffffffffffff1673ffffffffffffffffffffffffffffffffffffffff16815260200190815260200160002060000160089054906101000a900460e01b7bffffffffffffffffffffffffffffffffffffffffffffffffffffffff191614610c9e576040517f08c379a0000000000000000000000000000000000000000000000000000000008152600401610c9590614427565b60405180910390fd5b610cad8360008060e01b61303f565b505050565b610cbb81612503565b610cfa576040517f08c379a0000000000000000000000000000000000000000000000000000000008152600401610cf1906143a7565b60405180910390fd5b6000600660008373ffffffffffffffffffffffffffffffffffffffff1673ffffffffffffffffffffffffffffffffffffffff168152602001908152602001600020604051806040016040529081600082015481526020016001820160009054906101000a900473ffffffffffffffffffffffffffffffffffffffff1673ffffffffffffffffffffffffffffffffffffffff1673ffffffffffffffffffffffffffffffffffffffff168152505090508173ffffffffffffffffffffffffffffffffffffffff1663a39a45b782602001516040518263ffffffff1660e01b8152600401610de591906141fb565b600060405180830381600087803b158015610dff57600080fd5b505af1158015610e13573d6000803e3d6000fd5b50505050600660008373ffffffffffffffffffffffffffffffffffffffff1673ffffffffffffffffffffffffffffffffffffffff1681526020019081526020016000206000808201600090556001820160006101000a81549073ffffffffffffffffffffffffffffffffffffffff02191690555050610e978260008060e01b61303f565b5050565b6000610ea682612ef4565b9050919050565b60076020528060005260406000206000915090508060010160009054906101000a900460ff16908060020154908060030154905083565b600080600760008473ffffffffffffffffffffffffffffffffffffffff1673ffffffffffffffffffffffffffffffffffffffff16815260200190815260200160002060405180608001604052908160008201805480602002602001604051908101604052809291908181526020018280548015610fb657602002820191906000526020600020905b8160009054906101000a900473ffffffffffffffffffffffffffffffffffffffff1673ffffffffffffffffffffffffffffffffffffffff1681526020019060010190808311610f6c575b505050505081526020016001820160009054906101000a900460ff161515151581526020016002820154815260200160038201548152505090508060200151611034576040517f08c379a000000000000000000000000000000000000000000000000000000000815260040161102b90614407565b60405180910390fd5b8060400151915050919050565b823373ffffffffffffffffffffffffffffffffffffffff168173ffffffffffffffffffffffffffffffffffffffff16638da5cb5b6040518163ffffffff1660e01b815260040160206040518083038186803b15801561109f57600080fd5b505afa1580156110b3573d6000803e3d6000fd5b505050506040513d601f19601f820116820180604052508101906110d7919061381f565b73ffffffffffffffffffffffffffffffffffffffff1614806110ff57506110fe813361161c565b5b61113e576040517f08c379a0000000000000000000000000000000000000000000000000000000008152600401611135906144e7565b60405180910390fd5b6000600760008673ffffffffffffffffffffffffffffffffffffffff1673ffffffffffffffffffffffffffffffffffffffff16815260200190815260200160002090508060010160009054906101000a900460ff166111d2576040517f08c379a00000000000000000000000000000000000000000000000000000000081526004016111c990614587565b60405180910390fd5b60006002600183600001805490506111ea9190614869565b6111f491906148bf565b905060006041855161120691906148bf565b90508181101561124b576040517f08c379a000000000000000000000000000000000000000000000000000000000815260040161124290614667565b60405180910390fd5b600061125687613117565b905060008060005b848110156113bf576000611273858b84613180565b90508273ffffffffffffffffffffffffffffffffffffffff168173ffffffffffffffffffffffffffffffffffffffff16116112e3576040517f08c379a00000000000000000000000000000000000000000000000000000000081526004016112da90614467565b60405180910390fd5b8092506113788860000180548060200260200160405190810160405280929190818152602001828054801561136d57602002820191906000526020600020905b8160009054906101000a900473ffffffffffffffffffffffffffffffffffffffff1673ffffffffffffffffffffffffffffffffffffffff1681526020019060010190808311611323575b505050505082612e46565b156113ab5760018461138a9190614869565b93508684106113aa5761139d8c8c61321d565b50505050505050506113fb565b5b5080806113b790614a34565b91505061125e565b506040517f08c379a00000000000000000000000000000000000000000000000000000000081526004016113f290614507565b60405180910390fd5b50505050565b838073ffffffffffffffffffffffffffffffffffffffff163373ffffffffffffffffffffffffffffffffffffffff1614611470576040517f08c379a0000000000000000000000000000000000000000000000000000000008152600401611467906146a7565b60405180910390fd5b8461147a81612ef4565b156114ba576040517f08c379a00000000000000000000000000000000000000000000000000000000081526004016114b1906145c7565b60405180910390fd5b60008054906101000a900473ffffffffffffffffffffffffffffffffffffffff1673ffffffffffffffffffffffffffffffffffffffff16630bcd4ebb866040518263ffffffff1660e01b815260040161151391906141fb565b60206040518083038186803b15801561152b57600080fd5b505afa15801561153f573d6000803e3d6000fd5b505050506040513d601f19601f820116820180604052508101906115639190613af6565b6115a2576040517f08c379a000000000000000000000000000000000000000000000000000000000815260040161159990614547565b60405180910390fd5b8573ffffffffffffffffffffffffffffffffffffffff1663904723e486600187876040518563ffffffff1660e01b81526004016115e29493929190614216565b600060405180830381600087803b1580156115fc57600080fd5b505af1158015611610573d6000803e3d6000fd5b50505050505050505050565b600080600760008573ffffffffffffffffffffffffffffffffffffffff1673ffffffffffffffffffffffffffffffffffffffff168152602001908152602001600020604051806080016040529081600082018054806020026020016040519081016040528092919081815260200182805480156116ee57602002820191906000526020600020905b8160009054906101000a900473ffffffffffffffffffffffffffffffffffffffff1673ffffffffffffffffffffffffffffffffffffffff16815260200190600101908083116116a4575b505050505081526020016001820160009054906101000a900460ff16151515158152602001600282015481526020016003820154815250509050611736816000015184612e46565b91505092915050565b600360019054906101000a900460ff1661176957600360009054906101000a900460ff1615611772565b611771613327565b5b6117b1576040517f08c379a00000000000000000000000000000000000000000000000000000000081526004016117a890614527565b60405180910390fd5b6000600360019054906101000a900460ff161590508015611803576001600360016101000a81548160ff0219169083151502179055506001600360006101000a81548160ff0219169083151502179055505b836000806101000a81548173ffffffffffffffffffffffffffffffffffffffff021916908373ffffffffffffffffffffffffffffffffffffffff16021790555082600481905550816005819055508015611873576000600360016101000a81548160ff0219169083151502179055505b50505050565b823373ffffffffffffffffffffffffffffffffffffffff168173ffffffffffffffffffffffffffffffffffffffff16638da5cb5b6040518163ffffffff1660e01b815260040160206040518083038186803b1580156118d757600080fd5b505afa1580156118eb573d6000803e3d6000fd5b505050506040513d601f19601f8201168201806040525081019061190f919061381f565b73ffffffffffffffffffffffffffffffffffffffff1614611965576040517f08c379a000000000000000000000000000000000000000000000000000000000815260040161195c90614567565b60405180910390fd5b61196e84612f6a565b6119ad576040517f08c379a00000000000000000000000000000000000000000000000000000000081526004016119a4906145e7565b60405180910390fd5b600073ffffffffffffffffffffffffffffffffffffffff168373ffffffffffffffffffffffffffffffffffffffff16141580156119f057506119ef848361161c565b5b611a2f576040517f08c379a0000000000000000000000000000000000000000000000000000000008152600401611a2690614647565b60405180910390fd5b6000600760008673ffffffffffffffffffffffffffffffffffffffff1673ffffffffffffffffffffffffffffffffffffffff16815260200190815260200160002090508060010160009054906101000a900460ff16611ac3576040517f08c379a0000000000000000000000000000000000000000000000000000000008152600401611aba90614407565b60405180910390fd5b600060018260000180549050611ad991906148f0565b905060005b60018360000180549050611af291906148f0565b811015611c2f57826000018181548110611b35577f4e487b7100000000000000000000000000000000000000000000000000000000600052603260045260246000fd5b9060005260206000200160009054906101000a900473ffffffffffffffffffffffffffffffffffffffff1673ffffffffffffffffffffffffffffffffffffffff168573ffffffffffffffffffffffffffffffffffffffff161415611c1c5785836000018281548110611bd0577f4e487b7100000000000000000000000000000000000000000000000000000000600052603260045260246000fd5b9060005260206000200160006101000a81548173ffffffffffffffffffffffffffffffffffffffff021916908373ffffffffffffffffffffffffffffffffffffffff1602179055508190505b8080611c2790614a34565b915050611ade565b50505050505050565b6060600760008373ffffffffffffffffffffffffffffffffffffffff1673ffffffffffffffffffffffffffffffffffffffff168152602001908152602001600020600001805480602002602001604051908101604052809291908181526020018280548015611cfc57602002820191906000526020600020905b8160009054906101000a900473ffffffffffffffffffffffffffffffffffffffff1673ffffffffffffffffffffffffffffffffffffffff1681526020019060010190808311611cb2575b50505050509050919050565b818073ffffffffffffffffffffffffffffffffffffffff163373ffffffffffffffffffffffffffffffffffffffff1614611d77576040517f08c379a0000000000000000000000000000000000000000000000000000000008152600401611d6e906146a7565b60405180910390fd5b600073ffffffffffffffffffffffffffffffffffffffff168273ffffffffffffffffffffffffffffffffffffffff161415611de7576040517f08c379a0000000000000000000000000000000000000000000000000000000008152600401611dde906143e7565b60405180910390fd5b8273ffffffffffffffffffffffffffffffffffffffff16638da5cb5b6040518163ffffffff1660e01b815260040160206040518083038186803b158015611e2d57600080fd5b505afa158015611e41573d6000803e3d6000fd5b505050506040513d601f19601f82011682018060405250810190611e65919061381f565b73ffffffffffffffffffffffffffffffffffffffff168273ffffffffffffffffffffffffffffffffffffffff161415611ed3576040517f08c379a0000000000000000000000000000000000000000000000000000000008152600401611eca90614447565b60405180910390fd5b611edd838361161c565b15611f1d576040517f08c379a0000000000000000000000000000000000000000000000000000000008152600401611f14906143c7565b60405180910390fd5b611f2683612503565b15611f66576040517f08c379a0000000000000000000000000000000000000000000000000000000008152600401611f5d906144a7565b60405180910390fd5b6000600760008573ffffffffffffffffffffffffffffffffffffffff1673ffffffffffffffffffffffffffffffffffffffff1681526020019081526020016000209050611fca84826002015442611fbd9190614869565b6383765b9960e01b61303f565b6000816003015442611fdc9190614869565b905060405180604001604052808281526020018573ffffffffffffffffffffffffffffffffffffffff16815250600660008773ffffffffffffffffffffffffffffffffffffffff1673ffffffffffffffffffffffffffffffffffffffff1681526020019081526020016000206000820151816000015560208201518160010160006101000a81548173ffffffffffffffffffffffffffffffffffffffff021916908373ffffffffffffffffffffffffffffffffffffffff1602179055509050505050505050565b813373ffffffffffffffffffffffffffffffffffffffff168173ffffffffffffffffffffffffffffffffffffffff16638da5cb5b6040518163ffffffff1660e01b815260040160206040518083038186803b15801561210157600080fd5b505afa158015612115573d6000803e3d6000fd5b505050506040513d601f19601f82011682018060405250810190612139919061381f565b73ffffffffffffffffffffffffffffffffffffffff161461218f576040517f08c379a000000000000000000000000000000000000000000000000000000000815260040161218690614567565b60405180910390fd5b61219883612f6a565b6121d7576040517f08c379a00000000000000000000000000000000000000000000000000000000081526004016121ce906145e7565b60405180910390fd5b6121e1838361161c565b612220576040517f08c379a000000000000000000000000000000000000000000000000000000000815260040161221790614607565b60405180910390fd5b6000600760008573ffffffffffffffffffffffffffffffffffffffff1673ffffffffffffffffffffffffffffffffffffffff16815260200190815260200160002090508060010160009054906101000a900460ff166122b4576040517f08c379a00000000000000000000000000000000000000000000000000000000081526004016122ab90614407565b60405180910390fd5b6000600182600001805490506122ca91906148f0565b9050600082600001828154811061230a577f4e487b7100000000000000000000000000000000000000000000000000000000600052603260045260246000fd5b9060005260206000200160009054906101000a900473ffffffffffffffffffffffffffffffffffffffff16905060005b6001846000018054905061234e91906148f0565b81101561248b57836000018181548110612391577f4e487b7100000000000000000000000000000000000000000000000000000000600052603260045260246000fd5b9060005260206000200160009054906101000a900473ffffffffffffffffffffffffffffffffffffffff1673ffffffffffffffffffffffffffffffffffffffff168673ffffffffffffffffffffffffffffffffffffffff161415612478578184600001828154811061242c577f4e487b7100000000000000000000000000000000000000000000000000000000600052603260045260246000fd5b9060005260206000200160006101000a81548173ffffffffffffffffffffffffffffffffffffffff021916908373ffffffffffffffffffffffffffffffffffffffff1602179055508290505b808061248390614a34565b91505061233a565b50826000018054806124c6577f4e487b7100000000000000000000000000000000000000000000000000000000600052603160045260246000fd5b6001900381819060005260206000200160006101000a81549073ffffffffffffffffffffffffffffffffffffffff02191690559055505050505050565b600080600660008473ffffffffffffffffffffffffffffffffffffffff1673ffffffffffffffffffffffffffffffffffffffff168152602001908152602001600020604051806040016040529081600082015481526020016001820160009054906101000a900473ffffffffffffffffffffffffffffffffffffffff1673ffffffffffffffffffffffffffffffffffffffff1673ffffffffffffffffffffffffffffffffffffffff1681525050905060008160000151141580156125d457504267ffffffffffffffff168160000151115b915050919050565b600080600760008473ffffffffffffffffffffffffffffffffffffffff1673ffffffffffffffffffffffffffffffffffffffff168152602001908152602001600020604051806080016040529081600082018054806020026020016040519081016040528092919081815260200182805480156126ae57602002820191906000526020600020905b8160009054906101000a900473ffffffffffffffffffffffffffffffffffffffff1673ffffffffffffffffffffffffffffffffffffffff1681526020019060010190808311612664575b505050505081526020016001820160009054906101000a900460ff16151515158152602001600282015481526020016003820154815250509050806020015161272c576040517f08c379a000000000000000000000000000000000000000000000000000000000815260040161272390614407565b60405180910390fd5b8060600151915050919050565b818073ffffffffffffffffffffffffffffffffffffffff163373ffffffffffffffffffffffffffffffffffffffff16146127a8576040517f08c379a000000000000000000000000000000000000000000000000000000000815260040161279f906146a7565b60405180910390fd5b6127b183612f6a565b156127f1576040517f08c379a00000000000000000000000000000000000000000000000000000000081526004016127e8906144c7565b60405180910390fd5b600760008473ffffffffffffffffffffffffffffffffffffffff1673ffffffffffffffffffffffffffffffffffffffff16815260200190815260200160002060010160009054906101000a900460ff1615612881576040517f08c379a000000000000000000000000000000000000000000000000000000000815260040161287890614687565b60405180910390fd5b61288a83613338565b6000828060200190518101906128a09190613a61565b90506000600760008673ffffffffffffffffffffffffffffffffffffffff1673ffffffffffffffffffffffffffffffffffffffff168152602001908152602001600020905060005b8251811015612ad5578160000183828151811061292e577f4e487b7100000000000000000000000000000000000000000000000000000000600052603260045260246000fd5b60200260200101519080600181540180825580915050600190039060005260206000200160009091909190916101000a81548173ffffffffffffffffffffffffffffffffffffffff021916908373ffffffffffffffffffffffffffffffffffffffff1602179055508573ffffffffffffffffffffffffffffffffffffffff16638da5cb5b6040518163ffffffff1660e01b815260040160206040518083038186803b1580156129dc57600080fd5b505afa1580156129f0573d6000803e3d6000fd5b505050506040513d601f19601f82011682018060405250810190612a14919061381f565b73ffffffffffffffffffffffffffffffffffffffff16838281518110612a63577f4e487b7100000000000000000000000000000000000000000000000000000000600052603260045260246000fd5b602002602001015173ffffffffffffffffffffffffffffffffffffffff161415612ac2576040517f08c379a0000000000000000000000000000000000000000000000000000000008152600401612ab990614487565b60405180910390fd5b8080612acd90614a34565b9150506128e8565b5060018160010160006101000a81548160ff021916908315150217905550600454816002018190555060055481600301819055505050505050565b60045481565b808073ffffffffffffffffffffffffffffffffffffffff163373ffffffffffffffffffffffffffffffffffffffff1614612b85576040517f08c379a0000000000000000000000000000000000000000000000000000000008152600401612b7c906146a7565b60405180910390fd5b612b8e82612503565b612bcd576040517f08c379a0000000000000000000000000000000000000000000000000000000008152600401612bc490614627565b60405180910390fd5b600660008373ffffffffffffffffffffffffffffffffffffffff1673ffffffffffffffffffffffffffffffffffffffff1681526020019081526020016000206000808201600090556001820160006101000a81549073ffffffffffffffffffffffffffffffffffffffff02191690555050612c4d8260008060e01b61303f565b5050565b60066020528060005260406000206000915090508060000154908060010160009054906101000a900473ffffffffffffffffffffffffffffffffffffffff16905082565b803373ffffffffffffffffffffffffffffffffffffffff168173ffffffffffffffffffffffffffffffffffffffff16638da5cb5b6040518163ffffffff1660e01b815260040160206040518083038186803b158015612cf357600080fd5b505afa158015612d07573d6000803e3d6000fd5b505050506040513d601f19601f82011682018060405250810190612d2b919061381f565b73ffffffffffffffffffffffffffffffffffffffff161480612d535750612d52813361161c565b5b612d92576040517f08c379a0000000000000000000000000000000000000000000000000000000008152600401612d89906144e7565b60405180910390fd5b81612d9c81612ef4565b15612ddc576040517f08c379a0000000000000000000000000000000000000000000000000000000008152600401612dd3906145c7565b60405180910390fd5b6000600760008573ffffffffffffffffffffffffffffffffffffffff1673ffffffffffffffffffffffffffffffffffffffff1681526020019081526020016000209050612e4084826002015442612e339190614869565b63f435f5a760e01b61303f565b50505050565b600080600090505b8351811015612ee8578273ffffffffffffffffffffffffffffffffffffffff16848281518110612ea7577f4e487b7100000000000000000000000000000000000000000000000000000000600052603260045260246000fd5b602002602001015173ffffffffffffffffffffffffffffffffffffffff161415612ed5576001915050612eee565b8080612ee090614a34565b915050612e4e565b50600090505b92915050565b60004267ffffffffffffffff16600260008473ffffffffffffffffffffffffffffffffffffffff1673ffffffffffffffffffffffffffffffffffffffff16815260200190815260200160002060000160009054906101000a900467ffffffffffffffff1667ffffffffffffffff16119050919050565b600080600090505b600180549050811015613034578273ffffffffffffffffffffffffffffffffffffffff1660018281548110612fd0577f4e487b7100000000000000000000000000000000000000000000000000000000600052603260045260246000fd5b9060005260206000200160009054906101000a900473ffffffffffffffffffffffffffffffffffffffff1673ffffffffffffffffffffffffffffffffffffffff16141561302157600191505061303a565b808061302c90614a34565b915050612f72565b50600090505b919050565b60405180604001604052808367ffffffffffffffff168152602001827bffffffffffffffffffffffffffffffffffffffffffffffffffffffff1916815250600260008573ffffffffffffffffffffffffffffffffffffffff1673ffffffffffffffffffffffffffffffffffffffff16815260200190815260200160002060008201518160000160006101000a81548167ffffffffffffffff021916908367ffffffffffffffff16021790555060208201518160000160086101000a81548163ffffffff021916908360e01c0217905550905050505050565b60008082600001519050600083602001519050600084604001519050600085606001519050601960f81b600060f81b8585858560405160200161315f96959493929190614169565b60405160208183030381529060405280519060200120945050505050919050565b600080600080613190868661339e565b8093508194508295505050506001876040516020016131af91906141d5565b60405160208183030381529060405280519060200120848484604051600081526020016040526040516131e59493929190614362565b6020604051602081039080840390855afa158015613207573d6000803e3d6000fd5b5050506020604051035193505050509392505050565b6000816000015190506000826020015190506000836040015190506000846060015190506000856080015190508673ffffffffffffffffffffffffffffffffffffffff1663b14f6c8386868685876040518663ffffffff1660e01b815260040161328b959493929190614294565b600060405180830381600087803b1580156132a557600080fd5b505af11580156132b9573d6000803e3d6000fd5b505050506040513d6000823e3d601f19601f820116820180604052508101906132e29190613b1f565b507f16a95b1f4b59f6a32941b3b48a50be9d4d9f9c4da4cb504681489daabf99192885858560405161331693929190614256565b60405180910390a150505050505050565b600061333230613425565b15905090565b6001819080600181540180825580915050600190039060005260206000200160009091909190916101000a81548173ffffffffffffffffffffffffffffffffffffffff021916908373ffffffffffffffffffffffffffffffffffffffff16021790555050565b600080600083604102602001850151915083604102604001850151905060ff84604102604101860151169250601b8360ff1614806133df5750601c8360ff16145b61341e576040517f08c379a0000000000000000000000000000000000000000000000000000000008152600401613415906146e7565b60405180910390fd5b9250925092565b600080823b905060008111915050919050565b8280548282559060005260206000209081019282156134795760005260206000209182015b8281111561347857825482559160010191906001019061345d565b5b509050613486919061348a565b5090565b5b808211156134a357600081600090555060010161348b565b5090565b60006134ba6134b584614790565b61476b565b905080838252602082019050828560208602820111156134d957600080fd5b60005b8581101561350957816134ef88826135fb565b8452602084019350602083019250506001810190506134dc565b5050509392505050565b600061352661352184614790565b61476b565b9050808382526020820190508285602086028201111561354557600080fd5b60005b85811015613575578161355b8882613610565b845260208401935060208301925050600181019050613548565b5050509392505050565b600061359261358d846147bc565b61476b565b9050828152602081018484840111156135aa57600080fd5b6135b58482856149c1565b509392505050565b60006135d06135cb846147bc565b61476b565b9050828152602081018484840111156135e857600080fd5b6135f38482856149d0565b509392505050565b60008135905061360a81615165565b92915050565b60008151905061361f81615165565b92915050565b600082601f83011261363657600080fd5b81356136468482602086016134a7565b91505092915050565b600082601f83011261366057600080fd5b8151613670848260208601613513565b91505092915050565b6000815190506136888161517c565b92915050565b60008083601f8401126136a057600080fd5b8235905067ffffffffffffffff8111156136b957600080fd5b6020830191508360018202830111156136d157600080fd5b9250929050565b600082601f8301126136e957600080fd5b81356136f984826020860161357f565b91505092915050565b600082601f83011261371357600080fd5b81516137238482602086016135bd565b91505092915050565b60008135905061373b81615193565b92915050565b600060a0828403121561375357600080fd5b61375d60a061476b565b9050600061376d848285016135fb565b6000830152506020613781848285016137e1565b602083015250604082013567ffffffffffffffff8111156137a157600080fd5b6137ad848285016136d8565b60408301525060606137c1848285016137e1565b60608301525060806137d5848285016137e1565b60808301525092915050565b6000813590506137f0816151aa565b92915050565b60006020828403121561380857600080fd5b6000613816848285016135fb565b91505092915050565b60006020828403121561383157600080fd5b600061383f84828501613610565b91505092915050565b6000806040838503121561385b57600080fd5b6000613869858286016135fb565b925050602061387a858286016135fb565b9150509250929050565b60008060006060848603121561389957600080fd5b60006138a7868287016135fb565b93505060206138b8868287016135fb565b92505060406138c9868287016135fb565b9150509250925092565b600080600080606085870312156138e957600080fd5b60006138f7878288016135fb565b9450506020613908878288016135fb565b935050604085013567ffffffffffffffff81111561392557600080fd5b6139318782880161368e565b925092505092959194509250565b6000806040838503121561395257600080fd5b6000613960858286016135fb565b925050602083013567ffffffffffffffff81111561397d57600080fd5b613989858286016136d8565b9150509250929050565b6000806000606084860312156139a857600080fd5b60006139b6868287016135fb565b935050602084013567ffffffffffffffff8111156139d357600080fd5b6139df86828701613741565b925050604084013567ffffffffffffffff8111156139fc57600080fd5b613a08868287016136d8565b9150509250925092565b600080600060608486031215613a2757600080fd5b6000613a35868287016135fb565b9350506020613a46868287016137e1565b9250506040613a57868287016137e1565b9150509250925092565b600060208284031215613a7357600080fd5b600082015167ffffffffffffffff811115613a8d57600080fd5b613a998482850161364f565b91505092915050565b60008060408385031215613ab557600080fd5b600083013567ffffffffffffffff811115613acf57600080fd5b613adb85828601613625565b9250506020613aec858286016135fb565b9150509250929050565b600060208284031215613b0857600080fd5b6000613b1684828501613679565b91505092915050565b600060208284031215613b3157600080fd5b600082015167ffffffffffffffff811115613b4b57600080fd5b613b5784828501613702565b91505092915050565b600080600060608486031215613b7557600080fd5b6000613b838682870161372c565b9350506020613b94868287016137e1565b9250506040613ba5868287016137e1565b9150509250925092565b6000613bbb8383613bc7565b60208301905092915050565b613bd081614924565b82525050565b613bdf81614924565b82525050565b613bf6613bf182614924565b614a7d565b82525050565b6000613c07826147fd565b613c118185614820565b9350613c1c836147ed565b8060005b83811015613c4d578151613c348882613baf565b9750613c3f83614813565b925050600181019050613c20565b5085935050505092915050565b613c6381614936565b82525050565b613c7a613c7582614942565b614a8f565b82525050565b613c898161496e565b82525050565b613ca0613c9b8261496e565b614a99565b82525050565b6000613cb28385614831565b9350613cbf8385846149c1565b613cc883614b4c565b840190509392505050565b6000613cde82614808565b613ce88185614831565b9350613cf88185602086016149d0565b613d0181614b4c565b840191505092915050565b6000613d1782614808565b613d218185614842565b9350613d318185602086016149d0565b80840191505092915050565b6000613d4a601b8361484d565b9150613d5582614b6a565b602082019050919050565b6000613d6d60288361484d565b9150613d7882614b93565b604082019050919050565b6000613d9060168361484d565b9150613d9b82614be2565b602082019050919050565b6000613db360128361484d565b9150613dbe82614c0b565b602082019050919050565b6000613dd6601c8361485e565b9150613de182614c34565b601c82019050919050565b6000613df960118361484d565b9150613e0482614c5d565b602082019050919050565b6000613e1c60248361484d565b9150613e2782614c86565b604082019050919050565b6000613e3f601c8361484d565b9150613e4a82614cd5565b602082019050919050565b6000613e62601a8361484d565b9150613e6d82614cfe565b602082019050919050565b6000613e85601c8361484d565b9150613e9082614d27565b602082019050919050565b6000613ea8602e8361484d565b9150613eb382614d50565b604082019050919050565b6000613ecb60198361484d565b9150613ed682614d9f565b602082019050919050565b6000613eee601f8361484d565b9150613ef982614dc8565b602082019050919050565b6000613f11602e8361484d565b9150613f1c82614df1565b604082019050919050565b6000613f34601c8361484d565b9150613f3f82614e40565b602082019050919050565b6000613f5760118361484d565b9150613f6282614e69565b602082019050919050565b6000613f7a60128361484d565b9150613f8582614e92565b602082019050919050565b6000613f9d60258361484d565b9150613fa882614ebb565b604082019050919050565b6000613fc060118361484d565b9150613fcb82614f0a565b602082019050919050565b6000613fe360358361484d565b9150613fee82614f33565b604082019050919050565b600061400660158361484d565b915061401182614f82565b602082019050919050565b600061402960128361484d565b915061403482614fab565b602082019050919050565b600061404c602a8361484d565b915061405782614fd4565b604082019050919050565b600061406f60198361484d565b915061407a82615023565b602082019050919050565b600061409260248361484d565b915061409d8261504c565b604082019050919050565b60006140b560198361484d565b91506140c08261509b565b602082019050919050565b60006140d860198361484d565b91506140e3826150c4565b602082019050919050565b60006140fb600d8361484d565b9150614106826150ed565b602082019050919050565b600061411e60228361484d565b915061412982615116565b604082019050919050565b61413d816149aa565b82525050565b61415461414f826149aa565b614ab5565b82525050565b614163816149b4565b82525050565b60006141758289613c69565b6001820191506141858288613c69565b6001820191506141958287613be5565b6014820191506141a58286614143565b6020820191506141b58285613d0c565b91506141c18284614143565b602082019150819050979650505050505050565b60006141e082613dc9565b91506141ec8284613c8f565b60208201915081905092915050565b60006020820190506142106000830184613bd6565b92915050565b600060608201905061422b6000830187613bd6565b6142386020830186613c5a565b818103604083015261424b818486613ca6565b905095945050505050565b600060608201905061426b6000830186613bd6565b6142786020830185614134565b818103604083015261428a8184613cd3565b9050949350505050565b600060a0820190506142a96000830188613bd6565b6142b66020830187614134565b81810360408301526142c88186613cd3565b90506142d76060830185614134565b6142e46080830184614134565b9695505050505050565b600060208201905081810360008301526143088184613bfc565b905092915050565b60006020820190506143256000830184613c5a565b92915050565b60006060820190506143406000830186613c5a565b61434d6020830185614134565b61435a6040830184614134565b949350505050565b60006080820190506143776000830187613c80565b614384602083018661415a565b6143916040830185613c80565b61439e6060830184613c80565b95945050505050565b600060208201905081810360008301526143c081613d3d565b9050919050565b600060208201905081810360008301526143e081613d60565b9050919050565b6000602082019050818103600083015261440081613d83565b9050919050565b6000602082019050818103600083015261442081613da6565b9050919050565b6000602082019050818103600083015261444081613dec565b9050919050565b6000602082019050818103600083015261446081613e0f565b9050919050565b6000602082019050818103600083015261448081613e32565b9050919050565b600060208201905081810360008301526144a081613e55565b9050919050565b600060208201905081810360008301526144c081613e78565b9050919050565b600060208201905081810360008301526144e081613e9b565b9050919050565b6000602082019050818103600083015261450081613ebe565b9050919050565b6000602082019050818103600083015261452081613ee1565b9050919050565b6000602082019050818103600083015261454081613f04565b9050919050565b6000602082019050818103600083015261456081613f27565b9050919050565b6000602082019050818103600083015261458081613f4a565b9050919050565b600060208201905081810360008301526145a081613f6d565b9050919050565b600060208201905081810360008301526145c081613f90565b9050919050565b600060208201905081810360008301526145e081613fb3565b9050919050565b6000602082019050818103600083015261460081613fd6565b9050919050565b6000602082019050818103600083015261462081613ff9565b9050919050565b600060208201905081810360008301526146408161401c565b9050919050565b600060208201905081810360008301526146608161403f565b9050919050565b6000602082019050818103600083015261468081614062565b9050919050565b600060208201905081810360008301526146a081614085565b9050919050565b600060208201905081810360008301526146c0816140a8565b9050919050565b600060208201905081810360008301526146e0816140cb565b9050919050565b60006020820190508181036000830152614700816140ee565b9050919050565b6000602082019050818103600083015261472081614111565b9050919050565b600060208201905061473c6000830184614134565b92915050565b60006040820190506147576000830185614134565b6147646020830184613bd6565b9392505050565b6000614775614786565b90506147818282614a03565b919050565b6000604051905090565b600067ffffffffffffffff8211156147ab576147aa614b1d565b5b602082029050602081019050919050565b600067ffffffffffffffff8211156147d7576147d6614b1d565b5b6147e082614b4c565b9050602081019050919050565b6000819050602082019050919050565b600081519050919050565b600081519050919050565b6000602082019050919050565b600082825260208201905092915050565b600082825260208201905092915050565b600081905092915050565b600082825260208201905092915050565b600081905092915050565b6000614874826149aa565b915061487f836149aa565b9250827fffffffffffffffffffffffffffffffffffffffffffffffffffffffffffffffff038211156148b4576148b3614abf565b5b828201905092915050565b60006148ca826149aa565b91506148d5836149aa565b9250826148e5576148e4614aee565b5b828204905092915050565b60006148fb826149aa565b9150614906836149aa565b92508282101561491957614918614abf565b5b828203905092915050565b600061492f8261498a565b9050919050565b60008115159050919050565b60007fff0000000000000000000000000000000000000000000000000000000000000082169050919050565b6000819050919050565b600061498382614924565b9050919050565b600073ffffffffffffffffffffffffffffffffffffffff82169050919050565b6000819050919050565b600060ff82169050919050565b82818337600083830152505050565b60005b838110156149ee5780820151818401526020810190506149d3565b838111156149fd576000848401525b50505050565b614a0c82614b4c565b810181811067ffffffffffffffff82111715614a2b57614a2a614b1d565b5b80604052505050565b6000614a3f826149aa565b91507fffffffffffffffffffffffffffffffffffffffffffffffffffffffffffffffff821415614a7257614a71614abf565b5b600182019050919050565b6000614a8882614aa3565b9050919050565b6000819050919050565b6000819050919050565b6000614aae82614b5d565b9050919050565b6000819050919050565b7f4e487b7100000000000000000000000000000000000000000000000000000000600052601160045260246000fd5b7f4e487b7100000000000000000000000000000000000000000000000000000000600052601260045260246000fd5b7f4e487b7100000000000000000000000000000000000000000000000000000000600052604160045260246000fd5b6000601f19601f8301169050919050565b60008160601b9050919050565b7f534d3a204e6f2076616c6964207265636f7665727920666f756e640000000000600082015250565b7f534d3a206e65774f776e65722063616e277420626520616e206578697374696e60008201527f67207369676e6572000000000000000000000000000000000000000000000000602082015250565b7f534d3a20496e76616c6964206e6577207369676e657200000000000000000000600082015250565b7f534d3a20496e76616c69642077616c6c65740000000000000000000000000000600082015250565b7f19457468657265756d205369676e6564204d6573736167653a0a333200000000600082015250565b7f534d3a2063616e6e6f7420756e6c6f636b000000000000000000000000000000600082015250565b7f534d3a206f776e65722063616e206e6f7420747269676765722061207265636f60008201527f7665727900000000000000000000000000000000000000000000000000000000602082015250565b7f534d3a204261646c79206f726465726564207369676e61747572657300000000600082015250565b7f534d3a207369676e65722063616e6e2774206265206f776e6572000000000000600082015250565b7f534d3a2073686f756c64206e6f74207472696767657220747769636500000000600082015250565b7f534d3a2073686f756c64206e6f74206164642073616d65206d6f64756c65207460008201527f6f2077616c6c6574207477696365000000000000000000000000000000000000602082015250565b7f534d3a206d757374206265207369676e65722f77616c6c657400000000000000600082015250565b7f534d3a204e6f7420656e6f7567682076616c6964207369676e61747572657300600082015250565b7f496e697469616c697a61626c653a20636f6e747261637420697320616c72656160008201527f647920696e697469616c697a6564000000000000000000000000000000000000602082015250565b7f534d3a206d6f64756c65206973206e6f74207265676973746572656400000000600082015250565b7f424d3a206d757374206265206f776e6572000000000000000000000000000000600082015250565b7f534d3a20696e76616c69642077616c6c65740000000000000000000000000000600082015250565b7f534d3a2077616c6c6574207369676e657220696e666f206e6f7420636f6e736960008201527f7374656e74000000000000000000000000000000000000000000000000000000602082015250565b7f424d3a2077616c6c6574206c6f636b6564000000000000000000000000000000600082015250565b7f534d3a2077616c6c65742073686f756c6420626520726567697374657265642060008201527f6265666f726520616464696e67207369676e6572730000000000000000000000602082015250565b7f534d3a20696e76616c6964206f6c645369676e65720000000000000000000000600082015250565b7f534d3a206e6f74207265636f766572696e670000000000000000000000000000600082015250565b7f534d3a20696e76616c6964206e65775369676e6572206f7220696e76616c696460008201527f206f6c645369676e657200000000000000000000000000000000000000000000602082015250565b7f534d3a204e6f7420656e6f756768207369676e61747572657300000000000000600082015250565b7f534d3a2077616c6c65742065786973747320696e207369676e6572436f6e664960008201527f6e666f7300000000000000000000000000000000000000000000000000000000602082015250565b7f424d3a2063616c6c6572206d7573742062652077616c6c657400000000000000600082015250565b7f424d3a2077616c6c6574206d757374206265206c6f636b656400000000000000600082015250565b7f534d3a20496e76616c6964207600000000000000000000000000000000000000600082015250565b7f534d3a4d757374206368616e6765206174206c65617374206f6e65207065726960008201527f6f64000000000000000000000000000000000000000000000000000000000000602082015250565b61516e81614924565b811461517957600080fd5b50565b61518581614936565b811461519057600080fd5b50565b61519c81614978565b81146151a757600080fd5b50565b6151b3816149aa565b81146151be57600080fd5b5056fea26469706673582212201661abb1c78b107e90488a7c38ed9cd4015349a55f3480cf1f515dfec609c17a64736f6c63430008030033",
  "linkReferences": {},
  "deployedLinkReferences": {}
}