{
  "_format": "hh-sol-artifact-1",
  "contractName": "SecurityModule",
  "sourceName": "contracts/SecurityModule.sol",
  "abi": [
    {
      "inputs": [],
      "stateMutability": "nonpayable",
      "type": "constructor"
    },
    {
      "anonymous": false,
      "inputs": [
        {
          "indexed": false,
          "internalType": "address",
          "name": "to",
          "type": "address"
        },
        {
          "indexed": false,
          "internalType": "uint256",
          "name": "value",
          "type": "uint256"
        },
        {
          "indexed": false,
          "internalType": "bytes",
          "name": "data",
          "type": "bytes"
        }
      ],
      "name": "MultiCalled",
      "type": "event"
    },
    {
      "inputs": [
        {
          "internalType": "address",
          "name": "_wallet",
          "type": "address"
        },
        {
          "internalType": "address",
          "name": "_module",
          "type": "address"
        },
        {
          "internalType": "bytes",
          "name": "data",
          "type": "bytes"
        }
      ],
      "name": "addModule",
      "outputs": [],
      "stateMutability": "nonpayable",
      "type": "function"
    },
    {
      "inputs": [
        {
          "internalType": "address",
          "name": "_wallet",
          "type": "address"
        },
        {
          "internalType": "address",
          "name": "signer",
          "type": "address"
        }
      ],
      "name": "addSigner",
      "outputs": [],
      "stateMutability": "nonpayable",
      "type": "function"
    },
    {
      "inputs": [
        {
          "internalType": "address",
          "name": "_wallet",
          "type": "address"
        }
      ],
      "name": "cancelRecovery",
      "outputs": [],
      "stateMutability": "nonpayable",
      "type": "function"
    },
    {
      "inputs": [
        {
          "internalType": "address",
          "name": "_wallet",
          "type": "address"
        }
      ],
      "name": "executeRecovery",
      "outputs": [],
      "stateMutability": "nonpayable",
      "type": "function"
    },
    {
      "inputs": [
        {
          "internalType": "address[]",
          "name": "_signers",
          "type": "address[]"
        },
        {
          "internalType": "address",
          "name": "_signer",
          "type": "address"
        }
      ],
      "name": "findSigner",
      "outputs": [
        {
          "internalType": "bool",
          "name": "",
          "type": "bool"
        }
      ],
      "stateMutability": "pure",
      "type": "function"
    },
    {
      "inputs": [
        {
          "internalType": "address",
          "name": "_wallet",
          "type": "address"
        },
        {
          "internalType": "bytes",
          "name": "data",
          "type": "bytes"
        }
      ],
      "name": "init",
      "outputs": [],
      "stateMutability": "nonpayable",
      "type": "function"
    },
    {
      "inputs": [
        {
          "internalType": "contract IModuleRegistry",
          "name": "_registry",
          "type": "address"
        },
        {
          "internalType": "uint256",
          "name": "_locked_security_period",
          "type": "uint256"
        },
        {
          "internalType": "uint256",
          "name": "_recovery_security_period",
          "type": "uint256"
        }
      ],
      "name": "initialize",
      "outputs": [],
      "stateMutability": "nonpayable",
      "type": "function"
    },
    {
      "inputs": [
        {
          "internalType": "address",
          "name": "_wallet",
          "type": "address"
        }
      ],
      "name": "isInRecovery",
      "outputs": [
        {
          "internalType": "bool",
          "name": "",
          "type": "bool"
        }
      ],
      "stateMutability": "view",
      "type": "function"
    },
    {
      "inputs": [
        {
          "internalType": "address",
          "name": "_wallet",
          "type": "address"
        },
        {
          "internalType": "address",
          "name": "_signer",
          "type": "address"
        }
      ],
      "name": "isSigner",
      "outputs": [
        {
          "internalType": "bool",
          "name": "",
          "type": "bool"
        }
      ],
      "stateMutability": "view",
      "type": "function"
    },
    {
      "inputs": [
        {
          "internalType": "address",
          "name": "_wallet",
          "type": "address"
        }
      ],
      "name": "lock",
      "outputs": [],
      "stateMutability": "nonpayable",
      "type": "function"
    },
    {
      "inputs": [],
      "name": "locked_security_period",
      "outputs": [
        {
          "internalType": "uint256",
          "name": "",
          "type": "uint256"
        }
      ],
      "stateMutability": "view",
      "type": "function"
    },
    {
      "inputs": [
        {
          "internalType": "address",
          "name": "_wallet",
          "type": "address"
        },
        {
          "components": [
            {
              "internalType": "address",
              "name": "to",
              "type": "address"
            },
            {
              "internalType": "uint256",
              "name": "value",
              "type": "uint256"
            },
            {
              "internalType": "bytes",
              "name": "data",
              "type": "bytes"
            },
            {
              "internalType": "uint256",
              "name": "sequenceId",
              "type": "uint256"
            },
            {
              "internalType": "uint256",
              "name": "expireTime",
              "type": "uint256"
            }
          ],
          "internalType": "struct SecurityModule.CallArgs",
          "name": "_args",
          "type": "tuple"
        },
        {
          "internalType": "bytes",
          "name": "_signatures",
          "type": "bytes"
        }
      ],
      "name": "multicall",
      "outputs": [],
      "stateMutability": "nonpayable",
      "type": "function"
    },
    {
      "inputs": [
        {
          "internalType": "address",
          "name": "",
          "type": "address"
        }
      ],
      "name": "recoveries",
      "outputs": [
        {
          "internalType": "uint256",
          "name": "activeAt",
          "type": "uint256"
        },
        {
          "internalType": "address",
          "name": "recovery",
          "type": "address"
        }
      ],
      "stateMutability": "view",
      "type": "function"
    },
    {
      "inputs": [],
      "name": "recovery_security_period",
      "outputs": [
        {
          "internalType": "uint256",
          "name": "",
          "type": "uint256"
        }
      ],
      "stateMutability": "view",
      "type": "function"
    },
    {
      "inputs": [
        {
          "internalType": "address",
          "name": "_wallet",
          "type": "address"
        },
        {
          "internalType": "address",
          "name": "_oldSigner",
          "type": "address"
        }
      ],
      "name": "removeSigner",
      "outputs": [],
      "stateMutability": "nonpayable",
      "type": "function"
    },
    {
      "inputs": [
        {
          "internalType": "address",
          "name": "_wallet",
          "type": "address"
        },
        {
          "internalType": "address",
          "name": "_newSigner",
          "type": "address"
        },
        {
          "internalType": "address",
          "name": "_oldSigner",
          "type": "address"
        }
      ],
      "name": "replaceSigner",
      "outputs": [],
      "stateMutability": "nonpayable",
      "type": "function"
    },
    {
      "inputs": [
        {
          "internalType": "address",
          "name": "",
          "type": "address"
        }
      ],
      "name": "signerInfos",
      "outputs": [
        {
          "internalType": "bool",
          "name": "exist",
          "type": "bool"
        }
      ],
      "stateMutability": "view",
      "type": "function"
    },
    {
      "inputs": [
        {
          "internalType": "address",
          "name": "_wallet",
          "type": "address"
        },
        {
          "internalType": "address",
          "name": "_recovery",
          "type": "address"
        }
      ],
      "name": "triggerRecovery",
      "outputs": [],
      "stateMutability": "nonpayable",
      "type": "function"
    },
    {
      "inputs": [
        {
          "internalType": "address",
          "name": "_wallet",
          "type": "address"
        }
      ],
      "name": "unlock",
      "outputs": [],
      "stateMutability": "nonpayable",
      "type": "function"
    }
  ],
  "bytecode": "0x608060405234801561001057600080fd5b50614887806100206000396000f3fe608060405234801561001057600080fd5b50600436106101215760003560e01c80637b551f0d116100ad578063c90db44711610071578063c90db447146102ec578063cf0c137214610308578063e8b3a96614610339578063f435f5a714610357578063fc1d47b81461037357610121565b80637b551f0d1461024c57806383765b99146102685780638d20efa7146102845780638f29d530146102a0578063c0d91eaf146102d057610121565b80636fa30cd4116100f45780636fa30cd4146101aa57806371bf3af1146101c65780637846b9b9146101e257806378b248e4146102005780637a1ac61e1461023057610121565b80632239f556146101265780632f6c493c146101425780633bc2c4a71461015e5780635b1275331461017a575b600080fd5b610140600480360381019061013b91906130f6565b6103a3565b005b61015c600480360381019061015791906130a4565b61074a565b005b610178600480360381019061017391906130a4565b61097a565b005b610194600480360381019061018f91906130a4565b610bd3565b6040516101a19190613aa5565b60405180910390f35b6101c460048036038101906101bf9190613241565b610bfe565b005b6101e060048036038101906101db9190613181565b610fbe565b005b6101ea6111d9565b6040516101f79190613e65565b60405180910390f35b61021a600480360381019061021591906130f6565b6111df565b6040516102279190613aa5565b60405180910390f35b61024a600480360381019061024591906133bf565b6112be565b005b61026660048036038101906102619190613132565b6113f8565b005b610282600480360381019061027d91906130f6565b6117b7565b005b61029e600480360381019061029991906130f6565b611b0a565b005b6102ba60048036038101906102b591906130a4565b611f6a565b6040516102c79190613aa5565b60405180910390f35b6102ea60048036038101906102e591906131ed565b612043565b005b610306600480360381019061030191906130a4565b612404565b005b610322600480360381019061031d91906130a4565b61253f565b604051610330929190613e80565b60405180910390f35b610341612583565b60405161034e9190613e65565b60405180910390f35b610371600480360381019061036c91906130a4565b612589565b005b61038d60048036038101906103889190613301565b6126f4565b60405161039a9190613aa5565b60405180910390f35b813373ffffffffffffffffffffffffffffffffffffffff168173ffffffffffffffffffffffffffffffffffffffff16638da5cb5b6040518163ffffffff1660e01b815260040160206040518083038186803b15801561040157600080fd5b505afa158015610415573d6000803e3d6000fd5b505050506040513d601f19601f8201168201806040525081019061043991906130cd565b73ffffffffffffffffffffffffffffffffffffffff161461048f576040517f08c379a000000000000000000000000000000000000000000000000000000000815260040161048690613d25565b60405180910390fd5b82610499816127a2565b156104d9576040517f08c379a00000000000000000000000000000000000000000000000000000000081526004016104d090613d05565b60405180910390fd5b6104e284612818565b610521576040517f08c379a000000000000000000000000000000000000000000000000000000000815260040161051890613d45565b60405180910390fd5b600073ffffffffffffffffffffffffffffffffffffffff168373ffffffffffffffffffffffffffffffffffffffff1614158015610565575061056384846111df565b155b6105a4576040517f08c379a000000000000000000000000000000000000000000000000000000000815260040161059b90613dc5565b60405180910390fd5b6000600760008673ffffffffffffffffffffffffffffffffffffffff1673ffffffffffffffffffffffffffffffffffffffff16815260200190815260200160002090508060010160009054906101000a900460ff16610638576040517f08c379a000000000000000000000000000000000000000000000000000000000815260040161062f90613ce5565b60405180910390fd5b80600001849080600181540180825580915050600190039060005260206000200160009091909190916101000a81548173ffffffffffffffffffffffffffffffffffffffff021916908373ffffffffffffffffffffffffffffffffffffffff16021790555080600760008773ffffffffffffffffffffffffffffffffffffffff1673ffffffffffffffffffffffffffffffffffffffff16815260200190815260200160002060008201816000019080546106f3929190612ce6565b506001820160009054906101000a900460ff168160010160006101000a81548160ff02191690831515021790555090505061074385600454426107369190613f6e565b632239f55660e01b6128ed565b5050505050565b803373ffffffffffffffffffffffffffffffffffffffff168173ffffffffffffffffffffffffffffffffffffffff16638da5cb5b6040518163ffffffff1660e01b815260040160206040518083038186803b1580156107a857600080fd5b505afa1580156107bc573d6000803e3d6000fd5b505050506040513d601f19601f820116820180604052508101906107e091906130cd565b73ffffffffffffffffffffffffffffffffffffffff161480610808575061080781336111df565b5b610847576040517f08c379a000000000000000000000000000000000000000000000000000000000815260040161083e90613c45565b60405180910390fd5b81610851816127a2565b610890576040517f08c379a000000000000000000000000000000000000000000000000000000000815260040161088790613e25565b60405180910390fd5b63f435f5a760e01b7bffffffffffffffffffffffffffffffffffffffffffffffffffffffff1916600260008573ffffffffffffffffffffffffffffffffffffffff1673ffffffffffffffffffffffffffffffffffffffff16815260200190815260200160002060000160089054906101000a900460e01b7bffffffffffffffffffffffffffffffffffffffffffffffffffffffff191614610966576040517f08c379a000000000000000000000000000000000000000000000000000000000815260040161095d90613b85565b60405180910390fd5b6109758360008060e01b6128ed565b505050565b808073ffffffffffffffffffffffffffffffffffffffff163373ffffffffffffffffffffffffffffffffffffffff16146109e9576040517f08c379a00000000000000000000000000000000000000000000000000000000081526004016109e090613e05565b60405180910390fd5b6109f282611f6a565b610a31576040517f08c379a0000000000000000000000000000000000000000000000000000000008152600401610a2890613b05565b60405180910390fd5b6000600660008473ffffffffffffffffffffffffffffffffffffffff1673ffffffffffffffffffffffffffffffffffffffff168152602001908152602001600020604051806040016040529081600082015481526020016001820160009054906101000a900473ffffffffffffffffffffffffffffffffffffffff1673ffffffffffffffffffffffffffffffffffffffff1673ffffffffffffffffffffffffffffffffffffffff168152505090508273ffffffffffffffffffffffffffffffffffffffff1663a39a45b782602001516040518263ffffffff1660e01b8152600401610b1c91906139b2565b600060405180830381600087803b158015610b3657600080fd5b505af1158015610b4a573d6000803e3d6000fd5b50505050600660008473ffffffffffffffffffffffffffffffffffffffff1673ffffffffffffffffffffffffffffffffffffffff1681526020019081526020016000206000808201600090556001820160006101000a81549073ffffffffffffffffffffffffffffffffffffffff02191690555050610bce8360008060e01b6128ed565b505050565b60076020528060005260406000206000915090508060010160009054906101000a900460ff16905081565b823373ffffffffffffffffffffffffffffffffffffffff168173ffffffffffffffffffffffffffffffffffffffff16638da5cb5b6040518163ffffffff1660e01b815260040160206040518083038186803b158015610c5c57600080fd5b505afa158015610c70573d6000803e3d6000fd5b505050506040513d601f19601f82011682018060405250810190610c9491906130cd565b73ffffffffffffffffffffffffffffffffffffffff161480610cbc5750610cbb81336111df565b5b610cfb576040517f08c379a0000000000000000000000000000000000000000000000000000000008152600401610cf290613c45565b60405180910390fd5b6000600760008673ffffffffffffffffffffffffffffffffffffffff1673ffffffffffffffffffffffffffffffffffffffff16815260200190815260200160002090508060010160009054906101000a900460ff16610d8f576040517f08c379a0000000000000000000000000000000000000000000000000000000008152600401610d8690613cc5565b60405180910390fd5b6000600260018360000180549050610da79190613f6e565b610db19190613fc4565b9050600060418551610dc39190613fc4565b905081811015610e08576040517f08c379a0000000000000000000000000000000000000000000000000000000008152600401610dff90613de5565b60405180910390fd5b6000610e13876129c5565b905060008060005b84811015610f7c576000610e30858b84612a2e565b90508273ffffffffffffffffffffffffffffffffffffffff168173ffffffffffffffffffffffffffffffffffffffff1611610ea0576040517f08c379a0000000000000000000000000000000000000000000000000000000008152600401610e9790613bc5565b60405180910390fd5b809250610f3588600001805480602002602001604051908101604052809291908181526020018280548015610f2a57602002820191906000526020600020905b8160009054906101000a900473ffffffffffffffffffffffffffffffffffffffff1673ffffffffffffffffffffffffffffffffffffffff1681526020019060010190808311610ee0575b5050505050826126f4565b15610f6857600184610f479190613f6e565b9350868410610f6757610f5a8c8c612acb565b5050505050505050610fb8565b5b508080610f7490614139565b915050610e1b565b506040517f08c379a0000000000000000000000000000000000000000000000000000000008152600401610faf90613c65565b60405180910390fd5b50505050565b838073ffffffffffffffffffffffffffffffffffffffff163373ffffffffffffffffffffffffffffffffffffffff161461102d576040517f08c379a000000000000000000000000000000000000000000000000000000000815260040161102490613e05565b60405180910390fd5b84611037816127a2565b15611077576040517f08c379a000000000000000000000000000000000000000000000000000000000815260040161106e90613d05565b60405180910390fd5b60008054906101000a900473ffffffffffffffffffffffffffffffffffffffff1673ffffffffffffffffffffffffffffffffffffffff16630bcd4ebb866040518263ffffffff1660e01b81526004016110d091906139b2565b60206040518083038186803b1580156110e857600080fd5b505afa1580156110fc573d6000803e3d6000fd5b505050506040513d601f19601f820116820180604052508101906111209190613355565b61115f576040517f08c379a000000000000000000000000000000000000000000000000000000000815260040161115690613ca5565b60405180910390fd5b8573ffffffffffffffffffffffffffffffffffffffff1663904723e486600187876040518563ffffffff1660e01b815260040161119f94939291906139cd565b600060405180830381600087803b1580156111b957600080fd5b505af11580156111cd573d6000803e3d6000fd5b50505050505050505050565b60045481565b600080600760008573ffffffffffffffffffffffffffffffffffffffff1673ffffffffffffffffffffffffffffffffffffffff16815260200190815260200160002090506112b5816000018054806020026020016040519081016040528092919081815260200182805480156112aa57602002820191906000526020600020905b8160009054906101000a900473ffffffffffffffffffffffffffffffffffffffff1673ffffffffffffffffffffffffffffffffffffffff1681526020019060010190808311611260575b5050505050846126f4565b91505092915050565b600360019054906101000a900460ff166112e857600360009054906101000a900460ff16156112f1565b6112f0612bd5565b5b611330576040517f08c379a000000000000000000000000000000000000000000000000000000000815260040161132790613c85565b60405180910390fd5b6000600360019054906101000a900460ff161590508015611382576001600360016101000a81548160ff0219169083151502179055506001600360006101000a81548160ff0219169083151502179055505b836000806101000a81548173ffffffffffffffffffffffffffffffffffffffff021916908373ffffffffffffffffffffffffffffffffffffffff160217905550826004819055508160058190555080156113f2576000600360016101000a81548160ff0219169083151502179055505b50505050565b823373ffffffffffffffffffffffffffffffffffffffff168173ffffffffffffffffffffffffffffffffffffffff16638da5cb5b6040518163ffffffff1660e01b815260040160206040518083038186803b15801561145657600080fd5b505afa15801561146a573d6000803e3d6000fd5b505050506040513d601f19601f8201168201806040525081019061148e91906130cd565b73ffffffffffffffffffffffffffffffffffffffff16146114e4576040517f08c379a00000000000000000000000000000000000000000000000000000000081526004016114db90613d25565b60405180910390fd5b6114ed84612818565b61152c576040517f08c379a000000000000000000000000000000000000000000000000000000000815260040161152390613d45565b60405180910390fd5b600073ffffffffffffffffffffffffffffffffffffffff168373ffffffffffffffffffffffffffffffffffffffff161415801561156f575061156e84836111df565b5b6115ae576040517f08c379a00000000000000000000000000000000000000000000000000000000081526004016115a590613dc5565b60405180910390fd5b6000600760008673ffffffffffffffffffffffffffffffffffffffff1673ffffffffffffffffffffffffffffffffffffffff16815260200190815260200160002090508060010160009054906101000a900460ff16611642576040517f08c379a000000000000000000000000000000000000000000000000000000000815260040161163990613b65565b60405180910390fd5b6000600182600001805490506116589190613ff5565b905060005b600183600001805490506116719190613ff5565b8110156117ae578260000181815481106116b4577f4e487b7100000000000000000000000000000000000000000000000000000000600052603260045260246000fd5b9060005260206000200160009054906101000a900473ffffffffffffffffffffffffffffffffffffffff1673ffffffffffffffffffffffffffffffffffffffff168573ffffffffffffffffffffffffffffffffffffffff16141561179b578583600001828154811061174f577f4e487b7100000000000000000000000000000000000000000000000000000000600052603260045260246000fd5b9060005260206000200160006101000a81548173ffffffffffffffffffffffffffffffffffffffff021916908373ffffffffffffffffffffffffffffffffffffffff1602179055508190505b80806117a690614139565b91505061165d565b50505050505050565b818073ffffffffffffffffffffffffffffffffffffffff163373ffffffffffffffffffffffffffffffffffffffff1614611826576040517f08c379a000000000000000000000000000000000000000000000000000000000815260040161181d90613e05565b60405180910390fd5b600073ffffffffffffffffffffffffffffffffffffffff168273ffffffffffffffffffffffffffffffffffffffff161415611896576040517f08c379a000000000000000000000000000000000000000000000000000000000815260040161188d90613b45565b60405180910390fd5b8273ffffffffffffffffffffffffffffffffffffffff16638da5cb5b6040518163ffffffff1660e01b815260040160206040518083038186803b1580156118dc57600080fd5b505afa1580156118f0573d6000803e3d6000fd5b505050506040513d601f19601f8201168201806040525081019061191491906130cd565b73ffffffffffffffffffffffffffffffffffffffff168273ffffffffffffffffffffffffffffffffffffffff161415611982576040517f08c379a000000000000000000000000000000000000000000000000000000000815260040161197990613ba5565b60405180910390fd5b61198c83836111df565b156119cc576040517f08c379a00000000000000000000000000000000000000000000000000000000081526004016119c390613b25565b60405180910390fd5b6119d583611f6a565b15611a15576040517f08c379a0000000000000000000000000000000000000000000000000000000008152600401611a0c90613c05565b60405180910390fd5b611a348360045442611a279190613f6e565b6383765b9960e01b6128ed565b600060055442611a449190613f6e565b905060405180604001604052808281526020018473ffffffffffffffffffffffffffffffffffffffff16815250600660008673ffffffffffffffffffffffffffffffffffffffff1673ffffffffffffffffffffffffffffffffffffffff1681526020019081526020016000206000820151816000015560208201518160010160006101000a81548173ffffffffffffffffffffffffffffffffffffffff021916908373ffffffffffffffffffffffffffffffffffffffff16021790555090505050505050565b813373ffffffffffffffffffffffffffffffffffffffff168173ffffffffffffffffffffffffffffffffffffffff16638da5cb5b6040518163ffffffff1660e01b815260040160206040518083038186803b158015611b6857600080fd5b505afa158015611b7c573d6000803e3d6000fd5b505050506040513d601f19601f82011682018060405250810190611ba091906130cd565b73ffffffffffffffffffffffffffffffffffffffff1614611bf6576040517f08c379a0000000000000000000000000000000000000000000000000000000008152600401611bed90613d25565b60405180910390fd5b611bff83612818565b611c3e576040517f08c379a0000000000000000000000000000000000000000000000000000000008152600401611c3590613d45565b60405180910390fd5b611c4883836111df565b611c87576040517f08c379a0000000000000000000000000000000000000000000000000000000008152600401611c7e90613d65565b60405180910390fd5b6000600760008573ffffffffffffffffffffffffffffffffffffffff1673ffffffffffffffffffffffffffffffffffffffff16815260200190815260200160002090508060010160009054906101000a900460ff16611d1b576040517f08c379a0000000000000000000000000000000000000000000000000000000008152600401611d1290613b65565b60405180910390fd5b600060018260000180549050611d319190613ff5565b90506000826000018281548110611d71577f4e487b7100000000000000000000000000000000000000000000000000000000600052603260045260246000fd5b9060005260206000200160009054906101000a900473ffffffffffffffffffffffffffffffffffffffff16905060005b60018460000180549050611db59190613ff5565b811015611ef257836000018181548110611df8577f4e487b7100000000000000000000000000000000000000000000000000000000600052603260045260246000fd5b9060005260206000200160009054906101000a900473ffffffffffffffffffffffffffffffffffffffff1673ffffffffffffffffffffffffffffffffffffffff168673ffffffffffffffffffffffffffffffffffffffff161415611edf5781846000018281548110611e93577f4e487b7100000000000000000000000000000000000000000000000000000000600052603260045260246000fd5b9060005260206000200160006101000a81548173ffffffffffffffffffffffffffffffffffffffff021916908373ffffffffffffffffffffffffffffffffffffffff1602179055508290505b8080611eea90614139565b915050611da1565b5082600001805480611f2d577f4e487b7100000000000000000000000000000000000000000000000000000000600052603160045260246000fd5b6001900381819060005260206000200160006101000a81549073ffffffffffffffffffffffffffffffffffffffff02191690559055505050505050565b600080600660008473ffffffffffffffffffffffffffffffffffffffff1673ffffffffffffffffffffffffffffffffffffffff168152602001908152602001600020604051806040016040529081600082015481526020016001820160009054906101000a900473ffffffffffffffffffffffffffffffffffffffff1673ffffffffffffffffffffffffffffffffffffffff1673ffffffffffffffffffffffffffffffffffffffff16815250509050600081600001511415801561203b57504267ffffffffffffffff168160000151115b915050919050565b818073ffffffffffffffffffffffffffffffffffffffff163373ffffffffffffffffffffffffffffffffffffffff16146120b2576040517f08c379a00000000000000000000000000000000000000000000000000000000081526004016120a990613e05565b60405180910390fd5b6120bb83612818565b156120fb576040517f08c379a00000000000000000000000000000000000000000000000000000000081526004016120f290613c25565b60405180910390fd5b600760008473ffffffffffffffffffffffffffffffffffffffff1673ffffffffffffffffffffffffffffffffffffffff16815260200190815260200160002060010160009054906101000a900460ff161561218b576040517f08c379a000000000000000000000000000000000000000000000000000000000815260040161218290613d85565b60405180910390fd5b61219483612be6565b6000828060200190518101906121aa91906132c0565b90506000600760008673ffffffffffffffffffffffffffffffffffffffff1673ffffffffffffffffffffffffffffffffffffffff168152602001908152602001600020905060005b82518110156123df5781600001838281518110612238577f4e487b7100000000000000000000000000000000000000000000000000000000600052603260045260246000fd5b60200260200101519080600181540180825580915050600190039060005260206000200160009091909190916101000a81548173ffffffffffffffffffffffffffffffffffffffff021916908373ffffffffffffffffffffffffffffffffffffffff1602179055508573ffffffffffffffffffffffffffffffffffffffff16638da5cb5b6040518163ffffffff1660e01b815260040160206040518083038186803b1580156122e657600080fd5b505afa1580156122fa573d6000803e3d6000fd5b505050506040513d601f19601f8201168201806040525081019061231e91906130cd565b73ffffffffffffffffffffffffffffffffffffffff1683828151811061236d577f4e487b7100000000000000000000000000000000000000000000000000000000600052603260045260246000fd5b602002602001015173ffffffffffffffffffffffffffffffffffffffff1614156123cc576040517f08c379a00000000000000000000000000000000000000000000000000000000081526004016123c390613be5565b60405180910390fd5b80806123d790614139565b9150506121f2565b5060018160010160006101000a81548160ff0219169083151502179055505050505050565b808073ffffffffffffffffffffffffffffffffffffffff163373ffffffffffffffffffffffffffffffffffffffff1614612473576040517f08c379a000000000000000000000000000000000000000000000000000000000815260040161246a90613e05565b60405180910390fd5b61247c82611f6a565b6124bb576040517f08c379a00000000000000000000000000000000000000000000000000000000081526004016124b290613da5565b60405180910390fd5b600660008373ffffffffffffffffffffffffffffffffffffffff1673ffffffffffffffffffffffffffffffffffffffff1681526020019081526020016000206000808201600090556001820160006101000a81549073ffffffffffffffffffffffffffffffffffffffff0219169055505061253b8260008060e01b6128ed565b5050565b60066020528060005260406000206000915090508060000154908060010160009054906101000a900473ffffffffffffffffffffffffffffffffffffffff16905082565b60055481565b803373ffffffffffffffffffffffffffffffffffffffff168173ffffffffffffffffffffffffffffffffffffffff16638da5cb5b6040518163ffffffff1660e01b815260040160206040518083038186803b1580156125e757600080fd5b505afa1580156125fb573d6000803e3d6000fd5b505050506040513d601f19601f8201168201806040525081019061261f91906130cd565b73ffffffffffffffffffffffffffffffffffffffff161480612647575061264681336111df565b5b612686576040517f08c379a000000000000000000000000000000000000000000000000000000000815260040161267d90613c45565b60405180910390fd5b81612690816127a2565b156126d0576040517f08c379a00000000000000000000000000000000000000000000000000000000081526004016126c790613d05565b60405180910390fd5b6126ef83600454426126e29190613f6e565b63f435f5a760e01b6128ed565b505050565b600080600090505b8351811015612796578273ffffffffffffffffffffffffffffffffffffffff16848281518110612755577f4e487b7100000000000000000000000000000000000000000000000000000000600052603260045260246000fd5b602002602001015173ffffffffffffffffffffffffffffffffffffffff16141561278357600191505061279c565b808061278e90614139565b9150506126fc565b50600090505b92915050565b60004267ffffffffffffffff16600260008473ffffffffffffffffffffffffffffffffffffffff1673ffffffffffffffffffffffffffffffffffffffff16815260200190815260200160002060000160009054906101000a900467ffffffffffffffff1667ffffffffffffffff16119050919050565b600080600090505b6001805490508110156128e2578273ffffffffffffffffffffffffffffffffffffffff166001828154811061287e577f4e487b7100000000000000000000000000000000000000000000000000000000600052603260045260246000fd5b9060005260206000200160009054906101000a900473ffffffffffffffffffffffffffffffffffffffff1673ffffffffffffffffffffffffffffffffffffffff1614156128cf5760019150506128e8565b80806128da90614139565b915050612820565b50600090505b919050565b60405180604001604052808367ffffffffffffffff168152602001827bffffffffffffffffffffffffffffffffffffffffffffffffffffffff1916815250600260008573ffffffffffffffffffffffffffffffffffffffff1673ffffffffffffffffffffffffffffffffffffffff16815260200190815260200160002060008201518160000160006101000a81548167ffffffffffffffff021916908367ffffffffffffffff16021790555060208201518160000160086101000a81548163ffffffff021916908360e01c0217905550905050505050565b60008082600001519050600083602001519050600084604001519050600085606001519050601960f81b600060f81b85858585604051602001612a0d96959493929190613920565b60405160208183030381529060405280519060200120945050505050919050565b600080600080612a3e8686612c4c565b809350819450829550505050600187604051602001612a5d919061398c565b6040516020818303038152906040528051906020012084848460405160008152602001604052604051612a939493929190613ac0565b6020604051602081039080840390855afa158015612ab5573d6000803e3d6000fd5b5050506020604051035193505050509392505050565b6000816000015190506000826020015190506000836040015190506000846060015190506000856080015190508673ffffffffffffffffffffffffffffffffffffffff1663b14f6c8386868685876040518663ffffffff1660e01b8152600401612b39959493929190613a4b565b600060405180830381600087803b158015612b5357600080fd5b505af1158015612b67573d6000803e3d6000fd5b505050506040513d6000823e3d601f19601f82011682018060405250810190612b90919061337e565b507f16a95b1f4b59f6a32941b3b48a50be9d4d9f9c4da4cb504681489daabf991928858585604051612bc493929190613a0d565b60405180910390a150505050505050565b6000612be030612cd3565b15905090565b6001819080600181540180825580915050600190039060005260206000200160009091909190916101000a81548173ffffffffffffffffffffffffffffffffffffffff021916908373ffffffffffffffffffffffffffffffffffffffff16021790555050565b600080600083604102602001850151915083604102604001850151905060ff84604102604101860151169250601b8360ff161480612c8d5750601c8360ff16145b612ccc576040517f08c379a0000000000000000000000000000000000000000000000000000000008152600401612cc390613e45565b60405180910390fd5b9250925092565b600080823b905060008111915050919050565b828054828255906000526020600020908101928215612d275760005260206000209182015b82811115612d26578254825591600101919060010190612d0b565b5b509050612d349190612d38565b5090565b5b80821115612d51576000816000905550600101612d39565b5090565b6000612d68612d6384613ece565b613ea9565b90508083825260208201905082856020860282011115612d8757600080fd5b60005b85811015612db75781612d9d8882612ea9565b845260208401935060208301925050600181019050612d8a565b5050509392505050565b6000612dd4612dcf84613ece565b613ea9565b90508083825260208201905082856020860282011115612df357600080fd5b60005b85811015612e235781612e098882612ebe565b845260208401935060208301925050600181019050612df6565b5050509392505050565b6000612e40612e3b84613efa565b613ea9565b905082815260208101848484011115612e5857600080fd5b612e638482856140c6565b509392505050565b6000612e7e612e7984613efa565b613ea9565b905082815260208101848484011115612e9657600080fd5b612ea18482856140d5565b509392505050565b600081359050612eb8816147f5565b92915050565b600081519050612ecd816147f5565b92915050565b600082601f830112612ee457600080fd5b8135612ef4848260208601612d55565b91505092915050565b600082601f830112612f0e57600080fd5b8151612f1e848260208601612dc1565b91505092915050565b600081519050612f368161480c565b92915050565b60008083601f840112612f4e57600080fd5b8235905067ffffffffffffffff811115612f6757600080fd5b602083019150836001820283011115612f7f57600080fd5b9250929050565b600082601f830112612f9757600080fd5b8135612fa7848260208601612e2d565b91505092915050565b600082601f830112612fc157600080fd5b8151612fd1848260208601612e6b565b91505092915050565b600081359050612fe981614823565b92915050565b600060a0828403121561300157600080fd5b61300b60a0613ea9565b9050600061301b84828501612ea9565b600083015250602061302f8482850161308f565b602083015250604082013567ffffffffffffffff81111561304f57600080fd5b61305b84828501612f86565b604083015250606061306f8482850161308f565b60608301525060806130838482850161308f565b60808301525092915050565b60008135905061309e8161483a565b92915050565b6000602082840312156130b657600080fd5b60006130c484828501612ea9565b91505092915050565b6000602082840312156130df57600080fd5b60006130ed84828501612ebe565b91505092915050565b6000806040838503121561310957600080fd5b600061311785828601612ea9565b925050602061312885828601612ea9565b9150509250929050565b60008060006060848603121561314757600080fd5b600061315586828701612ea9565b935050602061316686828701612ea9565b925050604061317786828701612ea9565b9150509250925092565b6000806000806060858703121561319757600080fd5b60006131a587828801612ea9565b94505060206131b687828801612ea9565b935050604085013567ffffffffffffffff8111156131d357600080fd5b6131df87828801612f3c565b925092505092959194509250565b6000806040838503121561320057600080fd5b600061320e85828601612ea9565b925050602083013567ffffffffffffffff81111561322b57600080fd5b61323785828601612f86565b9150509250929050565b60008060006060848603121561325657600080fd5b600061326486828701612ea9565b935050602084013567ffffffffffffffff81111561328157600080fd5b61328d86828701612fef565b925050604084013567ffffffffffffffff8111156132aa57600080fd5b6132b686828701612f86565b9150509250925092565b6000602082840312156132d257600080fd5b600082015167ffffffffffffffff8111156132ec57600080fd5b6132f884828501612efd565b91505092915050565b6000806040838503121561331457600080fd5b600083013567ffffffffffffffff81111561332e57600080fd5b61333a85828601612ed3565b925050602061334b85828601612ea9565b9150509250929050565b60006020828403121561336757600080fd5b600061337584828501612f27565b91505092915050565b60006020828403121561339057600080fd5b600082015167ffffffffffffffff8111156133aa57600080fd5b6133b684828501612fb0565b91505092915050565b6000806000606084860312156133d457600080fd5b60006133e286828701612fda565b93505060206133f38682870161308f565b92505060406134048682870161308f565b9150509250925092565b61341781614029565b82525050565b61342e61342982614029565b614182565b82525050565b61343d8161403b565b82525050565b61345461344f82614047565b614194565b82525050565b61346381614073565b82525050565b61347a61347582614073565b61419e565b82525050565b600061348c8385613f36565b93506134998385846140c6565b6134a283614251565b840190509392505050565b60006134b882613f2b565b6134c28185613f36565b93506134d28185602086016140d5565b6134db81614251565b840191505092915050565b60006134f182613f2b565b6134fb8185613f47565b935061350b8185602086016140d5565b80840191505092915050565b6000613524601b83613f52565b915061352f8261426f565b602082019050919050565b6000613547602883613f52565b915061355282614298565b604082019050919050565b600061356a601683613f52565b9150613575826142e7565b602082019050919050565b600061358d601283613f52565b915061359882614310565b602082019050919050565b60006135b0601c83613f63565b91506135bb82614339565b601c82019050919050565b60006135d3601183613f52565b91506135de82614362565b602082019050919050565b60006135f6602483613f52565b91506136018261438b565b604082019050919050565b6000613619601c83613f52565b9150613624826143da565b602082019050919050565b600061363c601a83613f52565b915061364782614403565b602082019050919050565b600061365f601c83613f52565b915061366a8261442c565b602082019050919050565b6000613682602e83613f52565b915061368d82614455565b604082019050919050565b60006136a5601983613f52565b91506136b0826144a4565b602082019050919050565b60006136c8601f83613f52565b91506136d3826144cd565b602082019050919050565b60006136eb602e83613f52565b91506136f6826144f6565b604082019050919050565b600061370e601c83613f52565b915061371982614545565b602082019050919050565b6000613731601283613f52565b915061373c8261456e565b602082019050919050565b6000613754602583613f52565b915061375f82614597565b604082019050919050565b6000613777601183613f52565b9150613782826145e6565b602082019050919050565b600061379a601183613f52565b91506137a58261460f565b602082019050919050565b60006137bd603583613f52565b91506137c882614638565b604082019050919050565b60006137e0601583613f52565b91506137eb82614687565b602082019050919050565b6000613803602083613f52565b915061380e826146b0565b602082019050919050565b6000613826601283613f52565b9150613831826146d9565b602082019050919050565b6000613849602a83613f52565b915061385482614702565b604082019050919050565b600061386c601983613f52565b915061387782614751565b602082019050919050565b600061388f601983613f52565b915061389a8261477a565b602082019050919050565b60006138b2601983613f52565b91506138bd826147a3565b602082019050919050565b60006138d5600d83613f52565b91506138e0826147cc565b602082019050919050565b6138f4816140af565b82525050565b61390b613906826140af565b6141ba565b82525050565b61391a816140b9565b82525050565b600061392c8289613443565b60018201915061393c8288613443565b60018201915061394c828761341d565b60148201915061395c82866138fa565b60208201915061396c82856134e6565b915061397882846138fa565b602082019150819050979650505050505050565b6000613997826135a3565b91506139a38284613469565b60208201915081905092915050565b60006020820190506139c7600083018461340e565b92915050565b60006060820190506139e2600083018761340e565b6139ef6020830186613434565b8181036040830152613a02818486613480565b905095945050505050565b6000606082019050613a22600083018661340e565b613a2f60208301856138eb565b8181036040830152613a4181846134ad565b9050949350505050565b600060a082019050613a60600083018861340e565b613a6d60208301876138eb565b8181036040830152613a7f81866134ad565b9050613a8e60608301856138eb565b613a9b60808301846138eb565b9695505050505050565b6000602082019050613aba6000830184613434565b92915050565b6000608082019050613ad5600083018761345a565b613ae26020830186613911565b613aef604083018561345a565b613afc606083018461345a565b95945050505050565b60006020820190508181036000830152613b1e81613517565b9050919050565b60006020820190508181036000830152613b3e8161353a565b9050919050565b60006020820190508181036000830152613b5e8161355d565b9050919050565b60006020820190508181036000830152613b7e81613580565b9050919050565b60006020820190508181036000830152613b9e816135c6565b9050919050565b60006020820190508181036000830152613bbe816135e9565b9050919050565b60006020820190508181036000830152613bde8161360c565b9050919050565b60006020820190508181036000830152613bfe8161362f565b9050919050565b60006020820190508181036000830152613c1e81613652565b9050919050565b60006020820190508181036000830152613c3e81613675565b9050919050565b60006020820190508181036000830152613c5e81613698565b9050919050565b60006020820190508181036000830152613c7e816136bb565b9050919050565b60006020820190508181036000830152613c9e816136de565b9050919050565b60006020820190508181036000830152613cbe81613701565b9050919050565b60006020820190508181036000830152613cde81613724565b9050919050565b60006020820190508181036000830152613cfe81613747565b9050919050565b60006020820190508181036000830152613d1e8161376a565b9050919050565b60006020820190508181036000830152613d3e8161378d565b9050919050565b60006020820190508181036000830152613d5e816137b0565b9050919050565b60006020820190508181036000830152613d7e816137d3565b9050919050565b60006020820190508181036000830152613d9e816137f6565b9050919050565b60006020820190508181036000830152613dbe81613819565b9050919050565b60006020820190508181036000830152613dde8161383c565b9050919050565b60006020820190508181036000830152613dfe8161385f565b9050919050565b60006020820190508181036000830152613e1e81613882565b9050919050565b60006020820190508181036000830152613e3e816138a5565b9050919050565b60006020820190508181036000830152613e5e816138c8565b9050919050565b6000602082019050613e7a60008301846138eb565b92915050565b6000604082019050613e9560008301856138eb565b613ea2602083018461340e565b9392505050565b6000613eb3613ec4565b9050613ebf8282614108565b919050565b6000604051905090565b600067ffffffffffffffff821115613ee957613ee8614222565b5b602082029050602081019050919050565b600067ffffffffffffffff821115613f1557613f14614222565b5b613f1e82614251565b9050602081019050919050565b600081519050919050565b600082825260208201905092915050565b600081905092915050565b600082825260208201905092915050565b600081905092915050565b6000613f79826140af565b9150613f84836140af565b9250827fffffffffffffffffffffffffffffffffffffffffffffffffffffffffffffffff03821115613fb957613fb86141c4565b5b828201905092915050565b6000613fcf826140af565b9150613fda836140af565b925082613fea57613fe96141f3565b5b828204905092915050565b6000614000826140af565b915061400b836140af565b92508282101561401e5761401d6141c4565b5b828203905092915050565b60006140348261408f565b9050919050565b60008115159050919050565b60007fff0000000000000000000000000000000000000000000000000000000000000082169050919050565b6000819050919050565b600061408882614029565b9050919050565b600073ffffffffffffffffffffffffffffffffffffffff82169050919050565b6000819050919050565b600060ff82169050919050565b82818337600083830152505050565b60005b838110156140f35780820151818401526020810190506140d8565b83811115614102576000848401525b50505050565b61411182614251565b810181811067ffffffffffffffff821117156141305761412f614222565b5b80604052505050565b6000614144826140af565b91507fffffffffffffffffffffffffffffffffffffffffffffffffffffffffffffffff821415614177576141766141c4565b5b600182019050919050565b600061418d826141a8565b9050919050565b6000819050919050565b6000819050919050565b60006141b382614262565b9050919050565b6000819050919050565b7f4e487b7100000000000000000000000000000000000000000000000000000000600052601160045260246000fd5b7f4e487b7100000000000000000000000000000000000000000000000000000000600052601260045260246000fd5b7f4e487b7100000000000000000000000000000000000000000000000000000000600052604160045260246000fd5b6000601f19601f8301169050919050565b60008160601b9050919050565b7f534d3a204e6f2076616c6964207265636f7665727920666f756e640000000000600082015250565b7f534d3a206e65774f776e65722063616e277420626520616e206578697374696e60008201527f67207369676e6572000000000000000000000000000000000000000000000000602082015250565b7f534d3a20496e76616c6964206e6577207369676e657200000000000000000000600082015250565b7f534d3a20496e76616c69642077616c6c65740000000000000000000000000000600082015250565b7f19457468657265756d205369676e6564204d6573736167653a0a333200000000600082015250565b7f534d3a2063616e6e6f7420756e6c6f636b000000000000000000000000000000600082015250565b7f534d3a206f776e65722063616e206e6f7420747269676765722061207265636f60008201527f7665727900000000000000000000000000000000000000000000000000000000602082015250565b7f534d3a204261646c79206f726465726564207369676e61747572657300000000600082015250565b7f534d3a207369676e65722063616e6e2774206265206f776e6572000000000000600082015250565b7f534d3a2073686f756c64206e6f74207472696767657220747769636500000000600082015250565b7f534d3a2073686f756c64206e6f74206164642073616d65206d6f64756c65207460008201527f6f2077616c6c6574207477696365000000000000000000000000000000000000602082015250565b7f534d3a206d757374206265207369676e65722f77616c6c657400000000000000600082015250565b7f534d3a204e6f7420656e6f7567682076616c6964207369676e61747572657300600082015250565b7f496e697469616c697a61626c653a20636f6e747261637420697320616c72656160008201527f647920696e697469616c697a6564000000000000000000000000000000000000602082015250565b7f534d3a206d6f64756c65206973206e6f74207265676973746572656400000000600082015250565b7f534d3a20696e76616c69642077616c6c65740000000000000000000000000000600082015250565b7f534d3a2077616c6c6574207369676e657220696e666f206e6f7420636f6e736960008201527f7374656e74000000000000000000000000000000000000000000000000000000602082015250565b7f424d3a2077616c6c6574206c6f636b6564000000000000000000000000000000600082015250565b7f534d3a206d757374206265206f776e6572000000000000000000000000000000600082015250565b7f534d3a2077616c6c65742073686f756c6420626520726567697374657265642060008201527f6265666f726520616464696e67207369676e6572730000000000000000000000602082015250565b7f534d3a20696e76616c6964206f6c645369676e65720000000000000000000000600082015250565b7f534d3a2077616c6c65742065786973747320696e207369676e6572496e666f73600082015250565b7f534d3a206e6f74207265636f766572696e670000000000000000000000000000600082015250565b7f534d3a20696e76616c6964206e65775369676e6572206f7220696e76616c696460008201527f206f6c645369676e657200000000000000000000000000000000000000000000602082015250565b7f534d3a204e6f7420656e6f756768207369676e61747572657300000000000000600082015250565b7f424d3a2063616c6c6572206d7573742062652077616c6c657400000000000000600082015250565b7f424d3a2077616c6c6574206d757374206265206c6f636b656400000000000000600082015250565b7f534d3a20496e76616c6964207600000000000000000000000000000000000000600082015250565b6147fe81614029565b811461480957600080fd5b50565b6148158161403b565b811461482057600080fd5b50565b61482c8161407d565b811461483757600080fd5b50565b614843816140af565b811461484e57600080fd5b5056fea2646970667358221220f762a67621726707686a1c1fd1c72a98caa0c6d04c5351b35b26771b6ced385764736f6c63430008030033",
  "linkReferences": {},
  "deployedLinkReferences": {}
}