{
  "_format": "hh-sol-artifact-1",
  "contractName": "TestCustomTokenL1",
  "sourceName": "contracts/tokenbridge/test/TestCustomTokenL1.sol",
  "abi": [
    {
      "inputs": [
        {
          "internalType": "address",
          "name": "_bridge",
          "type": "address"
        }
      ],
      "stateMutability": "nonpayable",
      "type": "constructor"
    },
    {
      "anonymous": false,
      "inputs": [
        {
          "indexed": true,
          "internalType": "address",
          "name": "owner",
          "type": "address"
        },
        {
          "indexed": true,
          "internalType": "address",
          "name": "spender",
          "type": "address"
        },
        {
          "indexed": false,
          "internalType": "uint256",
          "name": "value",
          "type": "uint256"
        }
      ],
      "name": "Approval",
      "type": "event"
    },
    {
      "anonymous": false,
      "inputs": [
        {
          "indexed": true,
          "internalType": "address",
          "name": "from",
          "type": "address"
        },
        {
          "indexed": true,
          "internalType": "address",
          "name": "to",
          "type": "address"
        },
        {
          "indexed": false,
          "internalType": "uint256",
          "name": "value",
          "type": "uint256"
        },
        {
          "indexed": false,
          "internalType": "bytes",
          "name": "data",
          "type": "bytes"
        }
      ],
      "name": "Transfer",
      "type": "event"
    },
    {
      "anonymous": false,
      "inputs": [
        {
          "indexed": true,
          "internalType": "address",
          "name": "from",
          "type": "address"
        },
        {
          "indexed": true,
          "internalType": "address",
          "name": "to",
          "type": "address"
        },
        {
          "indexed": false,
          "internalType": "uint256",
          "name": "value",
          "type": "uint256"
        }
      ],
      "name": "Transfer",
      "type": "event"
    },
    {
      "inputs": [],
      "name": "DOMAIN_SEPARATOR",
      "outputs": [
        {
          "internalType": "bytes32",
          "name": "",
          "type": "bytes32"
        }
      ],
      "stateMutability": "view",
      "type": "function"
    },
    {
      "inputs": [
        {
          "internalType": "address",
          "name": "owner",
          "type": "address"
        },
        {
          "internalType": "address",
          "name": "spender",
          "type": "address"
        }
      ],
      "name": "allowance",
      "outputs": [
        {
          "internalType": "uint256",
          "name": "",
          "type": "uint256"
        }
      ],
      "stateMutability": "view",
      "type": "function"
    },
    {
      "inputs": [
        {
          "internalType": "address",
          "name": "spender",
          "type": "address"
        },
        {
          "internalType": "uint256",
          "name": "amount",
          "type": "uint256"
        }
      ],
      "name": "approve",
      "outputs": [
        {
          "internalType": "bool",
          "name": "",
          "type": "bool"
        }
      ],
      "stateMutability": "nonpayable",
      "type": "function"
    },
    {
      "inputs": [
        {
          "internalType": "address",
          "name": "account",
          "type": "address"
        }
      ],
      "name": "balanceOf",
      "outputs": [
        {
          "internalType": "uint256",
          "name": "",
          "type": "uint256"
        }
      ],
      "stateMutability": "view",
      "type": "function"
    },
    {
      "inputs": [],
      "name": "bridge",
      "outputs": [
        {
          "internalType": "contract EthERC20Bridge",
          "name": "",
          "type": "address"
        }
      ],
      "stateMutability": "view",
      "type": "function"
    },
    {
      "inputs": [],
      "name": "decimals",
      "outputs": [
        {
          "internalType": "uint8",
          "name": "",
          "type": "uint8"
        }
      ],
      "stateMutability": "view",
      "type": "function"
    },
    {
      "inputs": [
        {
          "internalType": "address",
          "name": "spender",
          "type": "address"
        },
        {
          "internalType": "uint256",
          "name": "subtractedValue",
          "type": "uint256"
        }
      ],
      "name": "decreaseAllowance",
      "outputs": [
        {
          "internalType": "bool",
          "name": "",
          "type": "bool"
        }
      ],
      "stateMutability": "nonpayable",
      "type": "function"
    },
    {
      "inputs": [
        {
          "internalType": "address",
          "name": "spender",
          "type": "address"
        },
        {
          "internalType": "uint256",
          "name": "addedValue",
          "type": "uint256"
        }
      ],
      "name": "increaseAllowance",
      "outputs": [
        {
          "internalType": "bool",
          "name": "",
          "type": "bool"
        }
      ],
      "stateMutability": "nonpayable",
      "type": "function"
    },
    {
      "inputs": [
        {
          "internalType": "string",
          "name": "name",
          "type": "string"
        },
        {
          "internalType": "string",
          "name": "symbol",
          "type": "string"
        },
        {
          "internalType": "uint8",
          "name": "decimals",
          "type": "uint8"
        }
      ],
      "name": "initialize",
      "outputs": [],
      "stateMutability": "nonpayable",
      "type": "function"
    },
    {
      "inputs": [],
      "name": "mint",
      "outputs": [],
      "stateMutability": "nonpayable",
      "type": "function"
    },
    {
      "inputs": [],
      "name": "name",
      "outputs": [
        {
          "internalType": "string",
          "name": "",
          "type": "string"
        }
      ],
      "stateMutability": "view",
      "type": "function"
    },
    {
      "inputs": [
        {
          "internalType": "address",
          "name": "owner",
          "type": "address"
        }
      ],
      "name": "nonces",
      "outputs": [
        {
          "internalType": "uint256",
          "name": "",
          "type": "uint256"
        }
      ],
      "stateMutability": "view",
      "type": "function"
    },
    {
      "inputs": [
        {
          "internalType": "address",
          "name": "owner",
          "type": "address"
        },
        {
          "internalType": "address",
          "name": "spender",
          "type": "address"
        },
        {
          "internalType": "uint256",
          "name": "value",
          "type": "uint256"
        },
        {
          "internalType": "uint256",
          "name": "deadline",
          "type": "uint256"
        },
        {
          "internalType": "uint8",
          "name": "v",
          "type": "uint8"
        },
        {
          "internalType": "bytes32",
          "name": "r",
          "type": "bytes32"
        },
        {
          "internalType": "bytes32",
          "name": "s",
          "type": "bytes32"
        }
      ],
      "name": "permit",
      "outputs": [],
      "stateMutability": "nonpayable",
      "type": "function"
    },
    {
      "inputs": [
        {
          "internalType": "address",
          "name": "l2CustomTokenAddress",
          "type": "address"
        },
        {
          "internalType": "uint256",
          "name": "maxSubmissionCost",
          "type": "uint256"
        },
        {
          "internalType": "uint256",
          "name": "maxGas",
          "type": "uint256"
        },
        {
          "internalType": "uint256",
          "name": "gasPriceBid",
          "type": "uint256"
        },
        {
          "internalType": "address",
          "name": "refundAddress",
          "type": "address"
        }
      ],
      "name": "registerTokenOnL2",
      "outputs": [],
      "stateMutability": "nonpayable",
      "type": "function"
    },
    {
      "inputs": [],
      "name": "symbol",
      "outputs": [
        {
          "internalType": "string",
          "name": "",
          "type": "string"
        }
      ],
      "stateMutability": "view",
      "type": "function"
    },
    {
      "inputs": [],
      "name": "totalSupply",
      "outputs": [
        {
          "internalType": "uint256",
          "name": "",
          "type": "uint256"
        }
      ],
      "stateMutability": "view",
      "type": "function"
    },
    {
      "inputs": [
        {
          "internalType": "address",
          "name": "recipient",
          "type": "address"
        },
        {
          "internalType": "uint256",
          "name": "amount",
          "type": "uint256"
        }
      ],
      "name": "transfer",
      "outputs": [
        {
          "internalType": "bool",
          "name": "",
          "type": "bool"
        }
      ],
      "stateMutability": "nonpayable",
      "type": "function"
    },
    {
      "inputs": [
        {
          "internalType": "address",
          "name": "_to",
          "type": "address"
        },
        {
          "internalType": "uint256",
          "name": "_value",
          "type": "uint256"
        },
        {
          "internalType": "bytes",
          "name": "_data",
          "type": "bytes"
        }
      ],
      "name": "transferAndCall",
      "outputs": [
        {
          "internalType": "bool",
          "name": "success",
          "type": "bool"
        }
      ],
      "stateMutability": "nonpayable",
      "type": "function"
    },
    {
      "inputs": [
        {
          "internalType": "address",
          "name": "sender",
          "type": "address"
        },
        {
          "internalType": "address",
          "name": "recipient",
          "type": "address"
        },
        {
          "internalType": "uint256",
          "name": "amount",
          "type": "uint256"
        }
      ],
      "name": "transferFrom",
      "outputs": [
        {
          "internalType": "bool",
          "name": "",
          "type": "bool"
        }
      ],
      "stateMutability": "nonpayable",
      "type": "function"
    }
  ],
  "bytecode": "0x60806040523480156200001157600080fd5b50604051620036ec380380620036ec833981810160405260208110156200003757600080fd5b81019080805190602001909291905050508060cc60006101000a81548173ffffffffffffffffffffffffffffffffffffffff021916908373ffffffffffffffffffffffffffffffffffffffff1602179055506200010c6040518060400160405280600f81526020017f54657374437573746f6d546f6b656e00000000000000000000000000000000008152506040518060400160405280600481526020017f434152420000000000000000000000000000000000000000000000000000000081525060126200011360201b62000a761760201c565b5062000acb565b600060019054906101000a900460ff16806200013b57506200013a6200025760201b60201c565b5b806200015357506000809054906101000a900460ff16155b620001aa576040517f08c379a000000000000000000000000000000000000000000000000000000000815260040180806020018281038252602e815260200180620036be602e913960400191505060405180910390fd5b60008060019054906101000a900460ff161590508015620001fb576001600060016101000a81548160ff02191690831515021790555060016000806101000a81548160ff0219169083151502179055505b6200020c846200027560201b60201c565b6200021e8484620003eb60201b60201c565b6200022f826200051c60201b60201c565b8015620002515760008060016101000a81548160ff0219169083151502179055505b50505050565b60006200026f306200053a60201b620013e21760201c565b15905090565b600060019054906101000a900460ff16806200029d57506200029c6200025760201b60201c565b5b80620002b557506000809054906101000a900460ff16155b6200030c576040517f08c379a000000000000000000000000000000000000000000000000000000000815260040180806020018281038252602e815260200180620036be602e913960400191505060405180910390fd5b60008060019054906101000a900460ff1615905080156200035d576001600060016101000a81548160ff02191690831515021790555060016000806101000a81548160ff0219169083151502179055505b6200036d6200054d60201b60201c565b620003b4826040518060400160405280600181526020017f31000000000000000000000000000000000000000000000000000000000000008152506200065a60201b60201c565b620003c5826200079160201b60201c565b8015620003e75760008060016101000a81548160ff0219169083151502179055505b5050565b600060019054906101000a900460ff1680620004135750620004126200025760201b60201c565b5b806200042b57506000809054906101000a900460ff16155b62000482576040517f08c379a000000000000000000000000000000000000000000000000000000000815260040180806020018281038252602e815260200180620036be602e913960400191505060405180910390fd5b60008060019054906101000a900460ff161590508015620004d3576001600060016101000a81548160ff02191690831515021790555060016000806101000a81548160ff0219169083151502179055505b620004e36200054d60201b60201c565b620004f58383620008bf60201b60201c565b8015620005175760008060016101000a81548160ff0219169083151502179055505b505050565b80603860006101000a81548160ff021916908360ff16021790555050565b600080823b905060008111915050919050565b600060019054906101000a900460ff1680620005755750620005746200025760201b60201c565b5b806200058d57506000809054906101000a900460ff16155b620005e4576040517f08c379a000000000000000000000000000000000000000000000000000000000815260040180806020018281038252602e815260200180620036be602e913960400191505060405180910390fd5b60008060019054906101000a900460ff16159050801562000635576001600060016101000a81548160ff02191690831515021790555060016000806101000a81548160ff0219169083151502179055505b8015620006575760008060016101000a81548160ff0219169083151502179055505b50565b600060019054906101000a900460ff1680620006825750620006816200025760201b60201c565b5b806200069a57506000809054906101000a900460ff16155b620006f1576040517f08c379a000000000000000000000000000000000000000000000000000000000815260040180806020018281038252602e815260200180620036be602e913960400191505060405180910390fd5b60008060019054906101000a900460ff16159050801562000742576001600060016101000a81548160ff02191690831515021790555060016000806101000a81548160ff0219169083151502179055505b6000838051906020012090506000838051906020012090508160658190555080606681905550505080156200078c5760008060016101000a81548160ff0219169083151502179055505b505050565b600060019054906101000a900460ff1680620007b95750620007b86200025760201b60201c565b5b80620007d157506000809054906101000a900460ff16155b62000828576040517f08c379a000000000000000000000000000000000000000000000000000000000815260040180806020018281038252602e815260200180620036be602e913960400191505060405180910390fd5b60008060019054906101000a900460ff16159050801562000879576001600060016101000a81548160ff02191690831515021790555060016000806101000a81548160ff0219169083151502179055505b60405180806200366c6052913960520190506040518091039020609a819055508015620008bb5760008060016101000a81548160ff0219169083151502179055505b5050565b600060019054906101000a900460ff1680620008e75750620008e66200025760201b60201c565b5b80620008ff57506000809054906101000a900460ff16155b62000956576040517f08c379a000000000000000000000000000000000000000000000000000000000815260040180806020018281038252602e815260200180620036be602e913960400191505060405180910390fd5b60008060019054906101000a900460ff161590508015620009a7576001600060016101000a81548160ff02191690831515021790555060016000806101000a81548160ff0219169083151502179055505b8260369080519060200190620009bf92919062000a1c565b508160379080519060200190620009d892919062000a1c565b506012603860006101000a81548160ff021916908360ff160217905550801562000a175760008060016101000a81548160ff0219169083151502179055505b505050565b828054600181600116156101000203166002900490600052602060002090601f016020900481019282601f1062000a5f57805160ff191683800117855562000a90565b8280016001018555821562000a90579182015b8281111562000a8f57825182559160200191906001019062000a72565b5b50905062000a9f919062000aa3565b5090565b62000ac891905b8082111562000ac457600081600090555060010162000aaa565b5090565b90565b612b918062000adb6000396000f3fe608060405234801561001057600080fd5b50600436106101215760003560e01c80634000aea0116100ad578063a9059cbb11610071578063a9059cbb1461075a578063d505accf146107c0578063dd62ed3e14610859578063e78cea92146108d1578063f8aece8d1461091b57610121565b80634000aea0146104c457806370a08231146105c15780637ecebe001461061957806395d89b4114610671578063a457c2d7146106f457610121565b806318160ddd116100f457806318160ddd1461037857806323b872dd14610396578063313ce5671461041c5780633644e51514610440578063395093511461045e57610121565b806306fdde0314610126578063095ea7b3146101a95780631249c58b1461020f5780631624f6c614610219575b600080fd5b61012e61099d565b6040518080602001828103825283818151815260200191508051906020019080838360005b8381101561016e578082015181840152602081019050610153565b50505050905090810190601f16801561019b5780820380516001836020036101000a031916815260200191505b509250505060405180910390f35b6101f5600480360360408110156101bf57600080fd5b81019080803573ffffffffffffffffffffffffffffffffffffffff16906020019092919080359060200190929190505050610a3f565b604051808215151515815260200191505060405180910390f35b610217610a5d565b005b6103766004803603606081101561022f57600080fd5b810190808035906020019064010000000081111561024c57600080fd5b82018360208201111561025e57600080fd5b8035906020019184600183028401116401000000008311171561028057600080fd5b91908080601f016020809104026020016040519081016040528093929190818152602001838380828437600081840152601f19601f820116905080830192505050505050509192919290803590602001906401000000008111156102e357600080fd5b8201836020820111156102f557600080fd5b8035906020019184600183028401116401000000008311171561031757600080fd5b91908080601f016020809104026020016040519081016040528093929190818152602001838380828437600081840152601f19601f820116905080830192505050505050509192919290803560ff169060200190929190505050610a76565b005b610380610b94565b6040518082815260200191505060405180910390f35b610402600480360360608110156103ac57600080fd5b81019080803573ffffffffffffffffffffffffffffffffffffffff169060200190929190803573ffffffffffffffffffffffffffffffffffffffff16906020019092919080359060200190929190505050610b9e565b604051808215151515815260200191505060405180910390f35b610424610bb4565b604051808260ff1660ff16815260200191505060405180910390f35b610448610bcb565b6040518082815260200191505060405180910390f35b6104aa6004803603604081101561047457600080fd5b81019080803573ffffffffffffffffffffffffffffffffffffffff16906020019092919080359060200190929190505050610bda565b604051808215151515815260200191505060405180910390f35b6105a7600480360360608110156104da57600080fd5b81019080803573ffffffffffffffffffffffffffffffffffffffff169060200190929190803590602001909291908035906020019064010000000081111561052157600080fd5b82018360208201111561053357600080fd5b8035906020019184600183028401116401000000008311171561055557600080fd5b91908080601f016020809104026020016040519081016040528093929190818152602001838380828437600081840152601f19601f820116905080830192505050505050509192919290505050610c8d565b604051808215151515815260200191505060405180910390f35b610603600480360360208110156105d757600080fd5b81019080803573ffffffffffffffffffffffffffffffffffffffff169060200190929190505050610d91565b6040518082815260200191505060405180910390f35b61065b6004803603602081101561062f57600080fd5b81019080803573ffffffffffffffffffffffffffffffffffffffff169060200190929190505050610da3565b6040518082815260200191505060405180910390f35b610679610df3565b6040518080602001828103825283818151815260200191508051906020019080838360005b838110156106b957808201518184015260208101905061069e565b50505050905090810190601f1680156106e65780820380516001836020036101000a031916815260200191505b509250505060405180910390f35b6107406004803603604081101561070a57600080fd5b81019080803573ffffffffffffffffffffffffffffffffffffffff16906020019092919080359060200190929190505050610e95565b604051808215151515815260200191505060405180910390f35b6107a66004803603604081101561077057600080fd5b81019080803573ffffffffffffffffffffffffffffffffffffffff16906020019092919080359060200190929190505050610f62565b604051808215151515815260200191505060405180910390f35b610857600480360360e08110156107d657600080fd5b81019080803573ffffffffffffffffffffffffffffffffffffffff169060200190929190803573ffffffffffffffffffffffffffffffffffffffff1690602001909291908035906020019092919080359060200190929190803560ff1690602001909291908035906020019092919080359060200190929190505050610f80565b005b6108bb6004803603604081101561086f57600080fd5b81019080803573ffffffffffffffffffffffffffffffffffffffff169060200190929190803573ffffffffffffffffffffffffffffffffffffffff169060200190929190505050611205565b6040518082815260200191505060405180910390f35b6108d961128c565b604051808273ffffffffffffffffffffffffffffffffffffffff1673ffffffffffffffffffffffffffffffffffffffff16815260200191505060405180910390f35b61099b600480360360a081101561093157600080fd5b81019080803573ffffffffffffffffffffffffffffffffffffffff169060200190929190803590602001909291908035906020019092919080359060200190929190803573ffffffffffffffffffffffffffffffffffffffff1690602001909291905050506112b2565b005b606060368054600181600116156101000203166002900480601f016020809104026020016040519081016040528092919081815260200182805460018160011615610100020316600290048015610a355780601f10610a0a57610100808354040283529160200191610a35565b820191906000526020600020905b815481529060010190602001808311610a1857829003601f168201915b5050505050905090565b6000610a53610a4c6113f5565b84846113fd565b6001905092915050565b610a74336c7e37be2022c0914b26800000006115f4565b565b600060019054906101000a900460ff1680610a955750610a946117bd565b5b80610aac57506000809054906101000a900460ff16155b610b01576040517f08c379a000000000000000000000000000000000000000000000000000000000815260040180806020018281038252602e815260200180612a24602e913960400191505060405180910390fd5b60008060019054906101000a900460ff161590508015610b51576001600060016101000a81548160ff02191690831515021790555060016000806101000a81548160ff0219169083151502179055505b610b5a846117ce565b610b64848461191e565b610b6d82611a31565b8015610b8e5760008060016101000a81548160ff0219169083151502179055505b50505050565b6000603554905090565b6000610bab848484611a4f565b90509392505050565b6000603860009054906101000a900460ff16905090565b6000610bd5611b28565b905090565b6000610c83610be76113f5565b84610c7e8560346000610bf86113f5565b73ffffffffffffffffffffffffffffffffffffffff1673ffffffffffffffffffffffffffffffffffffffff16815260200190815260200160002060008973ffffffffffffffffffffffffffffffffffffffff1673ffffffffffffffffffffffffffffffffffffffff16815260200190815260200160002054611b6090919063ffffffff16565b6113fd565b6001905092915050565b6000610c998484610f62565b508373ffffffffffffffffffffffffffffffffffffffff163373ffffffffffffffffffffffffffffffffffffffff167fe19260aff97b920c7df27010903aeb9c8d2be5d310a2c67824cf3f15396e4c1685856040518083815260200180602001828103825283818151815260200191508051906020019080838360005b83811015610d31578082015181840152602081019050610d16565b50505050905090810190601f168015610d5e5780820380516001836020036101000a031916815260200191505b50935050505060405180910390a3610d7584611be8565b15610d8657610d85848484611bfb565b5b600190509392505050565b6000610d9c82611d12565b9050919050565b6000610dec609960008473ffffffffffffffffffffffffffffffffffffffff1673ffffffffffffffffffffffffffffffffffffffff168152602001908152602001600020611d5b565b9050919050565b606060378054600181600116156101000203166002900480601f016020809104026020016040519081016040528092919081815260200182805460018160011615610100020316600290048015610e8b5780601f10610e6057610100808354040283529160200191610e8b565b820191906000526020600020905b815481529060010190602001808311610e6e57829003601f168201915b5050505050905090565b6000610f58610ea26113f5565b84610f5385604051806060016040528060258152602001612b376025913960346000610ecc6113f5565b73ffffffffffffffffffffffffffffffffffffffff1673ffffffffffffffffffffffffffffffffffffffff16815260200190815260200160002060008a73ffffffffffffffffffffffffffffffffffffffff1673ffffffffffffffffffffffffffffffffffffffff16815260200190815260200160002054611d699092919063ffffffff16565b6113fd565b6001905092915050565b6000610f76610f6f6113f5565b8484611e23565b6001905092915050565b83421115610ff6576040517f08c379a000000000000000000000000000000000000000000000000000000000815260040180806020018281038252601d8152602001807f45524332305065726d69743a206578706972656420646561646c696e6500000081525060200191505060405180910390fd5b6000609a54888888611045609960008e73ffffffffffffffffffffffffffffffffffffffff1673ffffffffffffffffffffffffffffffffffffffff168152602001908152602001600020611d5b565b89604051602001808781526020018673ffffffffffffffffffffffffffffffffffffffff1673ffffffffffffffffffffffffffffffffffffffff1681526020018573ffffffffffffffffffffffffffffffffffffffff1673ffffffffffffffffffffffffffffffffffffffff168152602001848152602001838152602001828152602001965050505050505060405160208183030381529060405280519060200120905060006110f4826120e8565b905060006111048287878761214f565b90508973ffffffffffffffffffffffffffffffffffffffff168173ffffffffffffffffffffffffffffffffffffffff16146111a7576040517f08c379a000000000000000000000000000000000000000000000000000000000815260040180806020018281038252601e8152602001807f45524332305065726d69743a20696e76616c6964207369676e6174757265000081525060200191505060405180910390fd5b6111ee609960008c73ffffffffffffffffffffffffffffffffffffffff1673ffffffffffffffffffffffffffffffffffffffff168152602001908152602001600020612351565b6111f98a8a8a6113fd565b50505050505050505050565b6000603460008473ffffffffffffffffffffffffffffffffffffffff1673ffffffffffffffffffffffffffffffffffffffff16815260200190815260200160002060008373ffffffffffffffffffffffffffffffffffffffff1673ffffffffffffffffffffffffffffffffffffffff16815260200190815260200160002054905092915050565b60cc60009054906101000a900473ffffffffffffffffffffffffffffffffffffffff1681565b60cc60009054906101000a900473ffffffffffffffffffffffffffffffffffffffff1673ffffffffffffffffffffffffffffffffffffffff16631a743cb686868686866040518663ffffffff1660e01b8152600401808673ffffffffffffffffffffffffffffffffffffffff1673ffffffffffffffffffffffffffffffffffffffff1681526020018581526020018481526020018381526020018273ffffffffffffffffffffffffffffffffffffffff1673ffffffffffffffffffffffffffffffffffffffff16815260200195505050505050602060405180830381600087803b15801561139f57600080fd5b505af11580156113b3573d6000803e3d6000fd5b505050506040513d60208110156113c957600080fd5b8101908080519060200190929190505050505050505050565b600080823b905060008111915050919050565b600033905090565b600073ffffffffffffffffffffffffffffffffffffffff168373ffffffffffffffffffffffffffffffffffffffff161415611483576040517f08c379a0000000000000000000000000000000000000000000000000000000008152600401808060200182810382526024815260200180612b136024913960400191505060405180910390fd5b600073ffffffffffffffffffffffffffffffffffffffff168273ffffffffffffffffffffffffffffffffffffffff161415611509576040517f08c379a00000000000000000000000000000000000000000000000000000000081526004018080602001828103825260228152602001806129686022913960400191505060405180910390fd5b80603460008573ffffffffffffffffffffffffffffffffffffffff1673ffffffffffffffffffffffffffffffffffffffff16815260200190815260200160002060008473ffffffffffffffffffffffffffffffffffffffff1673ffffffffffffffffffffffffffffffffffffffff168152602001908152602001600020819055508173ffffffffffffffffffffffffffffffffffffffff168373ffffffffffffffffffffffffffffffffffffffff167f8c5be1e5ebec7d5bd14f71427d1e84f3dd0314c0f7b2291e5b200ac8c7c3b925836040518082815260200191505060405180910390a3505050565b600073ffffffffffffffffffffffffffffffffffffffff168273ffffffffffffffffffffffffffffffffffffffff161415611697576040517f08c379a000000000000000000000000000000000000000000000000000000000815260040180806020018281038252601f8152602001807f45524332303a206d696e7420746f20746865207a65726f20616464726573730081525060200191505060405180910390fd5b6116a360008383612367565b6116b881603554611b6090919063ffffffff16565b60358190555061171081603360008573ffffffffffffffffffffffffffffffffffffffff1673ffffffffffffffffffffffffffffffffffffffff16815260200190815260200160002054611b6090919063ffffffff16565b603360008473ffffffffffffffffffffffffffffffffffffffff1673ffffffffffffffffffffffffffffffffffffffff168152602001908152602001600020819055508173ffffffffffffffffffffffffffffffffffffffff16600073ffffffffffffffffffffffffffffffffffffffff167fddf252ad1be2c89b69c2b068fc378daa952ba7f163c4a11628f55a4df523b3ef836040518082815260200191505060405180910390a35050565b60006117c8306113e2565b15905090565b600060019054906101000a900460ff16806117ed57506117ec6117bd565b5b8061180457506000809054906101000a900460ff16155b611859576040517f08c379a000000000000000000000000000000000000000000000000000000000815260040180806020018281038252602e815260200180612a24602e913960400191505060405180910390fd5b60008060019054906101000a900460ff1615905080156118a9576001600060016101000a81548160ff02191690831515021790555060016000806101000a81548160ff0219169083151502179055505b6118b161236c565b6118f0826040518060400160405280600181526020017f310000000000000000000000000000000000000000000000000000000000000081525061246b565b6118f982612594565b801561191a5760008060016101000a81548160ff0219169083151502179055505b5050565b600060019054906101000a900460ff168061193d575061193c6117bd565b5b8061195457506000809054906101000a900460ff16155b6119a9576040517f08c379a000000000000000000000000000000000000000000000000000000000815260040180806020018281038252602e815260200180612a24602e913960400191505060405180910390fd5b60008060019054906101000a900460ff1615905080156119f9576001600060016101000a81548160ff02191690831515021790555060016000806101000a81548160ff0219169083151502179055505b611a0161236c565b611a0b83836126b3565b8015611a2c5760008060016101000a81548160ff0219169083151502179055505b505050565b80603860006101000a81548160ff021916908360ff16021790555050565b6000611a5c848484611e23565b611b1d84611a686113f5565b611b1885604051806060016040528060288152602001612ac660289139603460008b73ffffffffffffffffffffffffffffffffffffffff1673ffffffffffffffffffffffffffffffffffffffff1681526020019081526020016000206000611ace6113f5565b73ffffffffffffffffffffffffffffffffffffffff1673ffffffffffffffffffffffffffffffffffffffff16815260200190815260200160002054611d699092919063ffffffff16565b6113fd565b600190509392505050565b6000611b5b6040518080612a746052913960520190506040518091039020611b4e6127fe565b611b56612808565b612812565b905090565b600080828401905083811015611bde576040517f08c379a000000000000000000000000000000000000000000000000000000000815260040180806020018281038252601b8152602001807f536166654d6174683a206164646974696f6e206f766572666c6f77000000000081525060200191505060405180910390fd5b8091505092915050565b600080823b905060008111915050919050565b60008390508073ffffffffffffffffffffffffffffffffffffffff1663a4c0ed363385856040518463ffffffff1660e01b8152600401808473ffffffffffffffffffffffffffffffffffffffff1673ffffffffffffffffffffffffffffffffffffffff16815260200183815260200180602001828103825283818151815260200191508051906020019080838360005b83811015611ca6578082015181840152602081019050611c8b565b50505050905090810190601f168015611cd35780820380516001836020036101000a031916815260200191505b50945050505050600060405180830381600087803b158015611cf457600080fd5b505af1158015611d08573d6000803e3d6000fd5b5050505050505050565b6000603360008373ffffffffffffffffffffffffffffffffffffffff1673ffffffffffffffffffffffffffffffffffffffff168152602001908152602001600020549050919050565b600081600001549050919050565b6000838311158290611e16576040517f08c379a00000000000000000000000000000000000000000000000000000000081526004018080602001828103825283818151815260200191508051906020019080838360005b83811015611ddb578082015181840152602081019050611dc0565b50505050905090810190601f168015611e085780820380516001836020036101000a031916815260200191505b509250505060405180910390fd5b5082840390509392505050565b600073ffffffffffffffffffffffffffffffffffffffff168373ffffffffffffffffffffffffffffffffffffffff161415611ea9576040517f08c379a0000000000000000000000000000000000000000000000000000000008152600401808060200182810382526025815260200180612aee6025913960400191505060405180910390fd5b600073ffffffffffffffffffffffffffffffffffffffff168273ffffffffffffffffffffffffffffffffffffffff161415611f2f576040517f08c379a00000000000000000000000000000000000000000000000000000000081526004018080602001828103825260238152602001806129456023913960400191505060405180910390fd5b611f3a838383612367565b611fa68160405180606001604052806026815260200161298a60269139603360008773ffffffffffffffffffffffffffffffffffffffff1673ffffffffffffffffffffffffffffffffffffffff16815260200190815260200160002054611d699092919063ffffffff16565b603360008573ffffffffffffffffffffffffffffffffffffffff1673ffffffffffffffffffffffffffffffffffffffff1681526020019081526020016000208190555061203b81603360008573ffffffffffffffffffffffffffffffffffffffff1673ffffffffffffffffffffffffffffffffffffffff16815260200190815260200160002054611b6090919063ffffffff16565b603360008473ffffffffffffffffffffffffffffffffffffffff1673ffffffffffffffffffffffffffffffffffffffff168152602001908152602001600020819055508173ffffffffffffffffffffffffffffffffffffffff168373ffffffffffffffffffffffffffffffffffffffff167fddf252ad1be2c89b69c2b068fc378daa952ba7f163c4a11628f55a4df523b3ef836040518082815260200191505060405180910390a3505050565b60006120f2611b28565b8260405160200180807f190100000000000000000000000000000000000000000000000000000000000081525060020183815260200182815260200192505050604051602081830303815290604052805190602001209050919050565b60007f7fffffffffffffffffffffffffffffff5d576e7357a4501ddfe92f46681b20a08260001c11156121cd576040517f08c379a00000000000000000000000000000000000000000000000000000000081526004018080602001828103825260228152602001806129b06022913960400191505060405180910390fd5b601b8460ff1614806121e25750601c8460ff16145b612237576040517f08c379a0000000000000000000000000000000000000000000000000000000008152600401808060200182810382526022815260200180612a526022913960400191505060405180910390fd5b600060018686868660405160008152602001604052604051808581526020018460ff1660ff1681526020018381526020018281526020019450505050506020604051602081039080840390855afa158015612296573d6000803e3d6000fd5b505050602060405103519050600073ffffffffffffffffffffffffffffffffffffffff168173ffffffffffffffffffffffffffffffffffffffff161415612345576040517f08c379a00000000000000000000000000000000000000000000000000000000081526004018080602001828103825260188152602001807f45434453413a20696e76616c6964207369676e6174757265000000000000000081525060200191505060405180910390fd5b80915050949350505050565b6001816000016000828254019250508190555050565b505050565b600060019054906101000a900460ff168061238b575061238a6117bd565b5b806123a257506000809054906101000a900460ff16155b6123f7576040517f08c379a000000000000000000000000000000000000000000000000000000000815260040180806020018281038252602e815260200180612a24602e913960400191505060405180910390fd5b60008060019054906101000a900460ff161590508015612447576001600060016101000a81548160ff02191690831515021790555060016000806101000a81548160ff0219169083151502179055505b80156124685760008060016101000a81548160ff0219169083151502179055505b50565b600060019054906101000a900460ff168061248a57506124896117bd565b5b806124a157506000809054906101000a900460ff16155b6124f6576040517f08c379a000000000000000000000000000000000000000000000000000000000815260040180806020018281038252602e815260200180612a24602e913960400191505060405180910390fd5b60008060019054906101000a900460ff161590508015612546576001600060016101000a81548160ff02191690831515021790555060016000806101000a81548160ff0219169083151502179055505b60008380519060200120905060008380519060200120905081606581905550806066819055505050801561258f5760008060016101000a81548160ff0219169083151502179055505b505050565b600060019054906101000a900460ff16806125b357506125b26117bd565b5b806125ca57506000809054906101000a900460ff16155b61261f576040517f08c379a000000000000000000000000000000000000000000000000000000000815260040180806020018281038252602e815260200180612a24602e913960400191505060405180910390fd5b60008060019054906101000a900460ff16159050801561266f576001600060016101000a81548160ff02191690831515021790555060016000806101000a81548160ff0219169083151502179055505b60405180806129d26052913960520190506040518091039020609a8190555080156126af5760008060016101000a81548160ff0219169083151502179055505b5050565b600060019054906101000a900460ff16806126d257506126d16117bd565b5b806126e957506000809054906101000a900460ff16155b61273e576040517f08c379a000000000000000000000000000000000000000000000000000000000815260040180806020018281038252602e815260200180612a24602e913960400191505060405180910390fd5b60008060019054906101000a900460ff16159050801561278e576001600060016101000a81548160ff02191690831515021790555060016000806101000a81548160ff0219169083151502179055505b82603690805190602001906127a492919061289f565b5081603790805190602001906127bb92919061289f565b506012603860006101000a81548160ff021916908360ff16021790555080156127f95760008060016101000a81548160ff0219169083151502179055505b505050565b6000606554905090565b6000606654905090565b600083838361281f612897565b30604051602001808681526020018581526020018481526020018381526020018273ffffffffffffffffffffffffffffffffffffffff1673ffffffffffffffffffffffffffffffffffffffff168152602001955050505050506040516020818303038152906040528051906020012090509392505050565b600046905090565b828054600181600116156101000203166002900490600052602060002090601f016020900481019282601f106128e057805160ff191683800117855561290e565b8280016001018555821561290e579182015b8281111561290d5782518255916020019190600101906128f2565b5b50905061291b919061291f565b5090565b61294191905b8082111561293d576000816000905550600101612925565b5090565b9056fe45524332303a207472616e7366657220746f20746865207a65726f206164647265737345524332303a20617070726f766520746f20746865207a65726f206164647265737345524332303a207472616e7366657220616d6f756e7420657863656564732062616c616e636545434453413a20696e76616c6964207369676e6174757265202773272076616c75655065726d69742861646472657373206f776e65722c61646472657373207370656e6465722c75696e743235362076616c75652c75696e74323536206e6f6e63652c75696e7432353620646561646c696e6529496e697469616c697a61626c653a20636f6e747261637420697320616c726561647920696e697469616c697a656445434453413a20696e76616c6964207369676e6174757265202776272076616c7565454950373132446f6d61696e28737472696e67206e616d652c737472696e672076657273696f6e2c75696e7432353620636861696e49642c6164647265737320766572696679696e67436f6e74726163742945524332303a207472616e7366657220616d6f756e74206578636565647320616c6c6f77616e636545524332303a207472616e736665722066726f6d20746865207a65726f206164647265737345524332303a20617070726f76652066726f6d20746865207a65726f206164647265737345524332303a2064656372656173656420616c6c6f77616e63652062656c6f77207a65726fa26469706673582212208fa1456dc8ebb48c40071c49f8354414c2c64f29bdc7a6590782710d30cc454364736f6c634300060b00335065726d69742861646472657373206f776e65722c61646472657373207370656e6465722c75696e743235362076616c75652c75696e74323536206e6f6e63652c75696e7432353620646561646c696e6529496e697469616c697a61626c653a20636f6e747261637420697320616c726561647920696e697469616c697a6564",
  "linkReferences": {},
  "deployedLinkReferences": {}
}