{
  "_format": "hh-sol-artifact-1",
  "contractName": "TestArbCustomToken",
  "sourceName": "contracts/tokenbridge/test/TestArbCustomToken.sol",
  "abi": [
    {
      "inputs": [
        {
          "internalType": "address",
          "name": "_bridge",
          "type": "address"
        },
        {
          "internalType": "address",
          "name": "_l1Address",
          "type": "address"
        }
      ],
      "stateMutability": "nonpayable",
      "type": "constructor"
    },
    {
      "anonymous": false,
      "inputs": [
        {
          "indexed": true,
          "internalType": "address",
          "name": "owner",
          "type": "address"
        },
        {
          "indexed": true,
          "internalType": "address",
          "name": "spender",
          "type": "address"
        },
        {
          "indexed": false,
          "internalType": "uint256",
          "name": "value",
          "type": "uint256"
        }
      ],
      "name": "Approval",
      "type": "event"
    },
    {
      "anonymous": false,
      "inputs": [
        {
          "indexed": true,
          "internalType": "address",
          "name": "from",
          "type": "address"
        },
        {
          "indexed": true,
          "internalType": "address",
          "name": "to",
          "type": "address"
        },
        {
          "indexed": false,
          "internalType": "uint256",
          "name": "value",
          "type": "uint256"
        },
        {
          "indexed": false,
          "internalType": "bytes",
          "name": "data",
          "type": "bytes"
        }
      ],
      "name": "Transfer",
      "type": "event"
    },
    {
      "anonymous": false,
      "inputs": [
        {
          "indexed": true,
          "internalType": "address",
          "name": "from",
          "type": "address"
        },
        {
          "indexed": true,
          "internalType": "address",
          "name": "to",
          "type": "address"
        },
        {
          "indexed": false,
          "internalType": "uint256",
          "name": "value",
          "type": "uint256"
        }
      ],
      "name": "Transfer",
      "type": "event"
    },
    {
      "anonymous": false,
      "inputs": [
        {
          "indexed": true,
          "internalType": "address",
          "name": "from",
          "type": "address"
        },
        {
          "indexed": true,
          "internalType": "address",
          "name": "to",
          "type": "address"
        },
        {
          "indexed": false,
          "internalType": "bytes",
          "name": "value",
          "type": "bytes"
        }
      ],
      "name": "TransferCipher",
      "type": "event"
    },
    {
      "inputs": [],
      "name": "DOMAIN_SEPARATOR",
      "outputs": [
        {
          "internalType": "bytes32",
          "name": "",
          "type": "bytes32"
        }
      ],
      "stateMutability": "view",
      "type": "function"
    },
    {
      "inputs": [
        {
          "internalType": "bytes",
          "name": "cipher1",
          "type": "bytes"
        },
        {
          "internalType": "bytes",
          "name": "cipher2",
          "type": "bytes"
        }
      ],
      "name": "addCipherCipher",
      "outputs": [
        {
          "internalType": "bytes",
          "name": "",
          "type": "bytes"
        }
      ],
      "stateMutability": "pure",
      "type": "function"
    },
    {
      "inputs": [
        {
          "internalType": "bytes",
          "name": "cipher",
          "type": "bytes"
        },
        {
          "internalType": "uint256",
          "name": "plain",
          "type": "uint256"
        }
      ],
      "name": "addCipherPlain",
      "outputs": [
        {
          "internalType": "bytes",
          "name": "",
          "type": "bytes"
        }
      ],
      "stateMutability": "pure",
      "type": "function"
    },
    {
      "inputs": [
        {
          "internalType": "address",
          "name": "owner",
          "type": "address"
        },
        {
          "internalType": "address",
          "name": "spender",
          "type": "address"
        }
      ],
      "name": "allowance",
      "outputs": [
        {
          "internalType": "uint256",
          "name": "",
          "type": "uint256"
        }
      ],
      "stateMutability": "view",
      "type": "function"
    },
    {
      "inputs": [
        {
          "internalType": "address",
          "name": "spender",
          "type": "address"
        },
        {
          "internalType": "uint256",
          "name": "amount",
          "type": "uint256"
        }
      ],
      "name": "approve",
      "outputs": [
        {
          "internalType": "bool",
          "name": "",
          "type": "bool"
        }
      ],
      "stateMutability": "nonpayable",
      "type": "function"
    },
    {
      "inputs": [
        {
          "internalType": "address",
          "name": "account",
          "type": "address"
        }
      ],
      "name": "balanceOf",
      "outputs": [
        {
          "internalType": "uint256",
          "name": "",
          "type": "uint256"
        }
      ],
      "stateMutability": "view",
      "type": "function"
    },
    {
      "inputs": [],
      "name": "bridge",
      "outputs": [
        {
          "internalType": "contract ArbTokenBridge",
          "name": "",
          "type": "address"
        }
      ],
      "stateMutability": "view",
      "type": "function"
    },
    {
      "inputs": [
        {
          "internalType": "address",
          "name": "account",
          "type": "address"
        },
        {
          "internalType": "uint256",
          "name": "amount",
          "type": "uint256"
        }
      ],
      "name": "bridgeBurn",
      "outputs": [],
      "stateMutability": "nonpayable",
      "type": "function"
    },
    {
      "inputs": [
        {
          "internalType": "address",
          "name": "account",
          "type": "address"
        },
        {
          "internalType": "uint256",
          "name": "amount",
          "type": "uint256"
        }
      ],
      "name": "bridgeMint",
      "outputs": [],
      "stateMutability": "nonpayable",
      "type": "function"
    },
    {
      "inputs": [
        {
          "internalType": "address",
          "name": "account",
          "type": "address"
        }
      ],
      "name": "cipherBalanceOf",
      "outputs": [
        {
          "internalType": "bytes",
          "name": "",
          "type": "bytes"
        }
      ],
      "stateMutability": "view",
      "type": "function"
    },
    {
      "inputs": [
        {
          "internalType": "address",
          "name": "recipient",
          "type": "address"
        },
        {
          "internalType": "bytes",
          "name": "cipher_amount",
          "type": "bytes"
        }
      ],
      "name": "cipherTransfer",
      "outputs": [
        {
          "internalType": "bool",
          "name": "",
          "type": "bool"
        }
      ],
      "stateMutability": "nonpayable",
      "type": "function"
    },
    {
      "inputs": [
        {
          "internalType": "address",
          "name": "sender",
          "type": "address"
        },
        {
          "internalType": "address",
          "name": "recipient",
          "type": "address"
        },
        {
          "internalType": "bytes",
          "name": "cipher_amount",
          "type": "bytes"
        }
      ],
      "name": "cipherTransferFrom",
      "outputs": [
        {
          "internalType": "bool",
          "name": "",
          "type": "bool"
        }
      ],
      "stateMutability": "nonpayable",
      "type": "function"
    },
    {
      "inputs": [
        {
          "internalType": "bytes",
          "name": "cipher1",
          "type": "bytes"
        },
        {
          "internalType": "bytes",
          "name": "cipher2",
          "type": "bytes"
        }
      ],
      "name": "compareCipherCipher",
      "outputs": [
        {
          "internalType": "int256",
          "name": "",
          "type": "int256"
        }
      ],
      "stateMutability": "pure",
      "type": "function"
    },
    {
      "inputs": [
        {
          "internalType": "bytes",
          "name": "cipher",
          "type": "bytes"
        },
        {
          "internalType": "uint256",
          "name": "plain",
          "type": "uint256"
        }
      ],
      "name": "compareCipherPlain",
      "outputs": [
        {
          "internalType": "int256",
          "name": "",
          "type": "int256"
        }
      ],
      "stateMutability": "pure",
      "type": "function"
    },
    {
      "inputs": [],
      "name": "decimals",
      "outputs": [
        {
          "internalType": "uint8",
          "name": "",
          "type": "uint8"
        }
      ],
      "stateMutability": "view",
      "type": "function"
    },
    {
      "inputs": [
        {
          "internalType": "address",
          "name": "spender",
          "type": "address"
        },
        {
          "internalType": "uint256",
          "name": "subtractedValue",
          "type": "uint256"
        }
      ],
      "name": "decreaseAllowance",
      "outputs": [
        {
          "internalType": "bool",
          "name": "",
          "type": "bool"
        }
      ],
      "stateMutability": "nonpayable",
      "type": "function"
    },
    {
      "inputs": [
        {
          "internalType": "bytes",
          "name": "cipher",
          "type": "bytes"
        }
      ],
      "name": "decrypt",
      "outputs": [
        {
          "internalType": "bytes",
          "name": "",
          "type": "bytes"
        }
      ],
      "stateMutability": "pure",
      "type": "function"
    },
    {
      "inputs": [
        {
          "internalType": "uint256",
          "name": "plain",
          "type": "uint256"
        }
      ],
      "name": "encrypt",
      "outputs": [
        {
          "internalType": "bytes",
          "name": "",
          "type": "bytes"
        }
      ],
      "stateMutability": "pure",
      "type": "function"
    },
    {
      "inputs": [
        {
          "internalType": "address",
          "name": "spender",
          "type": "address"
        },
        {
          "internalType": "uint256",
          "name": "addedValue",
          "type": "uint256"
        }
      ],
      "name": "increaseAllowance",
      "outputs": [
        {
          "internalType": "bool",
          "name": "",
          "type": "bool"
        }
      ],
      "stateMutability": "nonpayable",
      "type": "function"
    },
    {
      "inputs": [
        {
          "internalType": "string",
          "name": "name",
          "type": "string"
        },
        {
          "internalType": "string",
          "name": "symbol",
          "type": "string"
        },
        {
          "internalType": "uint8",
          "name": "decimals",
          "type": "uint8"
        }
      ],
      "name": "initialize",
      "outputs": [],
      "stateMutability": "nonpayable",
      "type": "function"
    },
    {
      "inputs": [],
      "name": "l1Address",
      "outputs": [
        {
          "internalType": "address",
          "name": "",
          "type": "address"
        }
      ],
      "stateMutability": "view",
      "type": "function"
    },
    {
      "inputs": [],
      "name": "name",
      "outputs": [
        {
          "internalType": "string",
          "name": "",
          "type": "string"
        }
      ],
      "stateMutability": "view",
      "type": "function"
    },
    {
      "inputs": [
        {
          "internalType": "address",
          "name": "owner",
          "type": "address"
        }
      ],
      "name": "nonces",
      "outputs": [
        {
          "internalType": "uint256",
          "name": "",
          "type": "uint256"
        }
      ],
      "stateMutability": "view",
      "type": "function"
    },
    {
      "inputs": [
        {
          "internalType": "address",
          "name": "owner",
          "type": "address"
        },
        {
          "internalType": "address",
          "name": "spender",
          "type": "address"
        },
        {
          "internalType": "uint256",
          "name": "value",
          "type": "uint256"
        },
        {
          "internalType": "uint256",
          "name": "deadline",
          "type": "uint256"
        },
        {
          "internalType": "uint8",
          "name": "v",
          "type": "uint8"
        },
        {
          "internalType": "bytes32",
          "name": "r",
          "type": "bytes32"
        },
        {
          "internalType": "bytes32",
          "name": "s",
          "type": "bytes32"
        }
      ],
      "name": "permit",
      "outputs": [],
      "stateMutability": "nonpayable",
      "type": "function"
    },
    {
      "inputs": [],
      "name": "someWackyCustomStuff",
      "outputs": [],
      "stateMutability": "nonpayable",
      "type": "function"
    },
    {
      "inputs": [
        {
          "internalType": "bytes",
          "name": "cipher1",
          "type": "bytes"
        },
        {
          "internalType": "bytes",
          "name": "cipher2",
          "type": "bytes"
        }
      ],
      "name": "subCipherCipher",
      "outputs": [
        {
          "internalType": "bytes",
          "name": "",
          "type": "bytes"
        }
      ],
      "stateMutability": "pure",
      "type": "function"
    },
    {
      "inputs": [
        {
          "internalType": "bytes",
          "name": "cipher",
          "type": "bytes"
        },
        {
          "internalType": "uint256",
          "name": "plain",
          "type": "uint256"
        }
      ],
      "name": "subCipherPlain",
      "outputs": [
        {
          "internalType": "bytes",
          "name": "",
          "type": "bytes"
        }
      ],
      "stateMutability": "pure",
      "type": "function"
    },
    {
      "inputs": [],
      "name": "symbol",
      "outputs": [
        {
          "internalType": "string",
          "name": "",
          "type": "string"
        }
      ],
      "stateMutability": "view",
      "type": "function"
    },
    {
      "inputs": [],
      "name": "totalSupply",
      "outputs": [
        {
          "internalType": "uint256",
          "name": "",
          "type": "uint256"
        }
      ],
      "stateMutability": "view",
      "type": "function"
    },
    {
      "inputs": [
        {
          "internalType": "address",
          "name": "recipient",
          "type": "address"
        },
        {
          "internalType": "uint256",
          "name": "amount",
          "type": "uint256"
        }
      ],
      "name": "transfer",
      "outputs": [
        {
          "internalType": "bool",
          "name": "",
          "type": "bool"
        }
      ],
      "stateMutability": "nonpayable",
      "type": "function"
    },
    {
      "inputs": [
        {
          "internalType": "address",
          "name": "_to",
          "type": "address"
        },
        {
          "internalType": "uint256",
          "name": "_value",
          "type": "uint256"
        },
        {
          "internalType": "bytes",
          "name": "_data",
          "type": "bytes"
        }
      ],
      "name": "transferAndCall",
      "outputs": [
        {
          "internalType": "bool",
          "name": "success",
          "type": "bool"
        }
      ],
      "stateMutability": "nonpayable",
      "type": "function"
    },
    {
      "inputs": [
        {
          "internalType": "address",
          "name": "sender",
          "type": "address"
        },
        {
          "internalType": "address",
          "name": "recipient",
          "type": "address"
        },
        {
          "internalType": "uint256",
          "name": "amount",
          "type": "uint256"
        }
      ],
      "name": "transferFrom",
      "outputs": [
        {
          "internalType": "bool",
          "name": "",
          "type": "bool"
        }
      ],
      "stateMutability": "nonpayable",
      "type": "function"
    },
    {
      "inputs": [
        {
          "internalType": "address",
          "name": "destination",
          "type": "address"
        },
        {
          "internalType": "uint256",
          "name": "amount",
          "type": "uint256"
        }
      ],
      "name": "withdraw",
      "outputs": [],
      "stateMutability": "nonpayable",
      "type": "function"
    }
  ],
  "bytecode": "0x60806040523480156200001157600080fd5b50604051620075c2380380620075c2833981810160405260408110156200003757600080fd5b8101908080519060200190929190805190602001909291905050508160cc60006101000a81548173ffffffffffffffffffffffffffffffffffffffff021916908373ffffffffffffffffffffffffffffffffffffffff1602179055508060cd60006101000a81548173ffffffffffffffffffffffffffffffffffffffff021916908373ffffffffffffffffffffffffffffffffffffffff160217905550620001576040518060400160405280600f81526020017f54657374437573746f6d546f6b656e00000000000000000000000000000000008152506040518060400160405280600481526020017f434152420000000000000000000000000000000000000000000000000000000081525060126200015f60201b620018d81760201c565b505062000b17565b600060019054906101000a900460ff168062000187575062000186620002a360201b60201c565b5b806200019f57506000809054906101000a900460ff16155b620001f6576040517f08c379a000000000000000000000000000000000000000000000000000000000815260040180806020018281038252602e81526020018062007594602e913960400191505060405180910390fd5b60008060019054906101000a900460ff16159050801562000247576001600060016101000a81548160ff02191690831515021790555060016000806101000a81548160ff0219169083151502179055505b6200025884620002c160201b60201c565b6200026a84846200043760201b60201c565b6200027b826200056860201b60201c565b80156200029d5760008060016101000a81548160ff0219169083151502179055505b50505050565b6000620002bb306200058660201b620044401760201c565b15905090565b600060019054906101000a900460ff1680620002e95750620002e8620002a360201b60201c565b5b806200030157506000809054906101000a900460ff16155b62000358576040517f08c379a000000000000000000000000000000000000000000000000000000000815260040180806020018281038252602e81526020018062007594602e913960400191505060405180910390fd5b60008060019054906101000a900460ff161590508015620003a9576001600060016101000a81548160ff02191690831515021790555060016000806101000a81548160ff0219169083151502179055505b620003b96200059960201b60201c565b62000400826040518060400160405280600181526020017f3100000000000000000000000000000000000000000000000000000000000000815250620006a660201b60201c565b6200041182620007dd60201b60201c565b8015620004335760008060016101000a81548160ff0219169083151502179055505b5050565b600060019054906101000a900460ff16806200045f57506200045e620002a360201b60201c565b5b806200047757506000809054906101000a900460ff16155b620004ce576040517f08c379a000000000000000000000000000000000000000000000000000000000815260040180806020018281038252602e81526020018062007594602e913960400191505060405180910390fd5b60008060019054906101000a900460ff1615905080156200051f576001600060016101000a81548160ff02191690831515021790555060016000806101000a81548160ff0219169083151502179055505b6200052f6200059960201b60201c565b6200054183836200090b60201b60201c565b8015620005635760008060016101000a81548160ff0219169083151502179055505b505050565b80603860006101000a81548160ff021916908360ff16021790555050565b600080823b905060008111915050919050565b600060019054906101000a900460ff1680620005c15750620005c0620002a360201b60201c565b5b80620005d957506000809054906101000a900460ff16155b62000630576040517f08c379a000000000000000000000000000000000000000000000000000000000815260040180806020018281038252602e81526020018062007594602e913960400191505060405180910390fd5b60008060019054906101000a900460ff16159050801562000681576001600060016101000a81548160ff02191690831515021790555060016000806101000a81548160ff0219169083151502179055505b8015620006a35760008060016101000a81548160ff0219169083151502179055505b50565b600060019054906101000a900460ff1680620006ce5750620006cd620002a360201b60201c565b5b80620006e657506000809054906101000a900460ff16155b6200073d576040517f08c379a000000000000000000000000000000000000000000000000000000000815260040180806020018281038252602e81526020018062007594602e913960400191505060405180910390fd5b60008060019054906101000a900460ff1615905080156200078e576001600060016101000a81548160ff02191690831515021790555060016000806101000a81548160ff0219169083151502179055505b600083805190602001209050600083805190602001209050816065819055508060668190555050508015620007d85760008060016101000a81548160ff0219169083151502179055505b505050565b600060019054906101000a900460ff168062000805575062000804620002a360201b60201c565b5b806200081d57506000809054906101000a900460ff16155b62000874576040517f08c379a000000000000000000000000000000000000000000000000000000000815260040180806020018281038252602e81526020018062007594602e913960400191505060405180910390fd5b60008060019054906101000a900460ff161590508015620008c5576001600060016101000a81548160ff02191690831515021790555060016000806101000a81548160ff0219169083151502179055505b6040518080620075426052913960520190506040518091039020609a819055508015620009075760008060016101000a81548160ff0219169083151502179055505b5050565b600060019054906101000a900460ff168062000933575062000932620002a360201b60201c565b5b806200094b57506000809054906101000a900460ff16155b620009a2576040517f08c379a000000000000000000000000000000000000000000000000000000000815260040180806020018281038252602e81526020018062007594602e913960400191505060405180910390fd5b60008060019054906101000a900460ff161590508015620009f3576001600060016101000a81548160ff02191690831515021790555060016000806101000a81548160ff0219169083151502179055505b826036908051906020019062000a0b92919062000a68565b50816037908051906020019062000a2492919062000a68565b506012603860006101000a81548160ff021916908360ff160217905550801562000a635760008060016101000a81548160ff0219169083151502179055505b505050565b828054600181600116156101000203166002900490600052602060002090601f016020900481019282601f1062000aab57805160ff191683800117855562000adc565b8280016001018555821562000adc579182015b8281111562000adb57825182559160200191906001019062000abe565b5b50905062000aeb919062000aef565b5090565b62000b1491905b8082111562000b1057600081600090555060010162000af6565b5090565b90565b616a1b8062000b276000396000f3fe608060405234801561001057600080fd5b50600436106101fb5760003560e01c80638c2a993e1161011a578063c6004925116100ad578063e06936a21161007c578063e06936a21461143c578063e5fca8b41461157a578063e78cea921461168d578063ecf1ba5d146116d7578063f3fef3a3146117ca576101fb565b8063c6004925146110b9578063cc733d4a14611160578063d505accf1461132b578063dd62ed3e146113c4576101fb565b8063a708acce116100e9578063a708acce14610f26578063a9059cbb14610f30578063b5c0f7d714610f96578063c2eeeebd1461106f576101fb565b80638c2a993e14610c2457806395d89b4114610c72578063a457c2d714610cf5578063a5d318f114610d5b576101fb565b80633644e5151161019257806374bf058c1161016157806374bf058c1461098357806374f4f54714610ac15780637ecebe0014610b0f578063899e767714610b67576101fb565b80633644e515146107aa57806339509351146107c85780634000aea01461082e57806370a082311461092b576101fb565b806318160ddd116101ce57806318160ddd146105ae578063210ca7be146105cc57806323b872dd14610700578063313ce56714610786576101fb565b806306fdde0314610200578063095ea7b3146102835780631624f6c6146102e957806316c7b35014610448575b600080fd5b610208611818565b6040518080602001828103825283818151815260200191508051906020019080838360005b8381101561024857808201518184015260208101905061022d565b50505050905090810190601f1680156102755780820380516001836020036101000a031916815260200191505b509250505060405180910390f35b6102cf6004803603604081101561029957600080fd5b81019080803573ffffffffffffffffffffffffffffffffffffffff169060200190929190803590602001909291905050506118ba565b604051808215151515815260200191505060405180910390f35b610446600480360360608110156102ff57600080fd5b810190808035906020019064010000000081111561031c57600080fd5b82018360208201111561032e57600080fd5b8035906020019184600183028401116401000000008311171561035057600080fd5b91908080601f016020809104026020016040519081016040528093929190818152602001838380828437600081840152601f19601f820116905080830192505050505050509192919290803590602001906401000000008111156103b357600080fd5b8201836020820111156103c557600080fd5b803590602001918460018302840111640100000000831117156103e757600080fd5b91908080601f016020809104026020016040519081016040528093929190818152602001838380828437600081840152601f19601f820116905080830192505050505050509192919290803560ff1690602001909291905050506118d8565b005b6105986004803603604081101561045e57600080fd5b810190808035906020019064010000000081111561047b57600080fd5b82018360208201111561048d57600080fd5b803590602001918460018302840111640100000000831117156104af57600080fd5b91908080601f016020809104026020016040519081016040528093929190818152602001838380828437600081840152601f19601f8201169050808301925050505050505091929192908035906020019064010000000081111561051257600080fd5b82018360208201111561052457600080fd5b8035906020019184600183028401116401000000008311171561054657600080fd5b91908080601f016020809104026020016040519081016040528093929190818152602001838380828437600081840152601f19601f8201169050808301925050505050505091929192905050506119f6565b6040518082815260200191505060405180910390f35b6105b6611c33565b6040518082815260200191505060405180910390f35b610685600480360360208110156105e257600080fd5b81019080803590602001906401000000008111156105ff57600080fd5b82018360208201111561061157600080fd5b8035906020019184600183028401116401000000008311171561063357600080fd5b91908080601f016020809104026020016040519081016040528093929190818152602001838380828437600081840152601f19601f820116905080830192505050505050509192919290505050611c3d565b6040518080602001828103825283818151815260200191508051906020019080838360005b838110156106c55780820151818401526020810190506106aa565b50505050905090810190601f1680156106f25780820380516001836020036101000a031916815260200191505b509250505060405180910390f35b61076c6004803603606081101561071657600080fd5b81019080803573ffffffffffffffffffffffffffffffffffffffff169060200190929190803573ffffffffffffffffffffffffffffffffffffffff16906020019092919080359060200190929190505050611d31565b604051808215151515815260200191505060405180910390f35b61078e612209565b604051808260ff1660ff16815260200191505060405180910390f35b6107b2612220565b6040518082815260200191505060405180910390f35b610814600480360360408110156107de57600080fd5b81019080803573ffffffffffffffffffffffffffffffffffffffff1690602001909291908035906020019092919050505061222f565b604051808215151515815260200191505060405180910390f35b6109116004803603606081101561084457600080fd5b81019080803573ffffffffffffffffffffffffffffffffffffffff169060200190929190803590602001909291908035906020019064010000000081111561088b57600080fd5b82018360208201111561089d57600080fd5b803590602001918460018302840111640100000000831117156108bf57600080fd5b91908080601f016020809104026020016040519081016040528093929190818152602001838380828437600081840152601f19601f8201169050808301925050505050505091929192905050506122e2565b604051808215151515815260200191505060405180910390f35b61096d6004803603602081101561094157600080fd5b81019080803573ffffffffffffffffffffffffffffffffffffffff1690602001909291905050506123e6565b6040518082815260200191505060405180910390f35b610a466004803603604081101561099957600080fd5b81019080803590602001906401000000008111156109b657600080fd5b8201836020820111156109c857600080fd5b803590602001918460018302840111640100000000831117156109ea57600080fd5b91908080601f016020809104026020016040519081016040528093929190818152602001838380828437600081840152601f19601f8201169050808301925050505050505091929192908035906020019092919050505061242f565b6040518080602001828103825283818151815260200191508051906020019080838360005b83811015610a86578082015181840152602081019050610a6b565b50505050905090810190601f168015610ab35780820380516001836020036101000a031916815260200191505b509250505060405180910390f35b610b0d60048036036040811015610ad757600080fd5b81019080803573ffffffffffffffffffffffffffffffffffffffff169060200190929190803590602001909291905050506124c0565b005b610b5160048036036020811015610b2557600080fd5b81019080803573ffffffffffffffffffffffffffffffffffffffff1690602001909291905050506126d9565b6040518082815260200191505060405180910390f35b610ba960048036036020811015610b7d57600080fd5b81019080803573ffffffffffffffffffffffffffffffffffffffff169060200190929190505050612729565b6040518080602001828103825283818151815260200191508051906020019080838360005b83811015610be9578082015181840152602081019050610bce565b50505050905090810190601f168015610c165780820380516001836020036101000a031916815260200191505b509250505060405180910390f35b610c7060048036036040811015610c3a57600080fd5b81019080803573ffffffffffffffffffffffffffffffffffffffff1690602001909291908035906020019092919050505061280a565b005b610c7a612945565b6040518080602001828103825283818151815260200191508051906020019080838360005b83811015610cba578082015181840152602081019050610c9f565b50505050905090810190601f168015610ce75780820380516001836020036101000a031916815260200191505b509250505060405180910390f35b610d4160048036036040811015610d0b57600080fd5b81019080803573ffffffffffffffffffffffffffffffffffffffff169060200190929190803590602001909291905050506129e7565b604051808215151515815260200191505060405180910390f35b610eab60048036036040811015610d7157600080fd5b8101908080359060200190640100000000811115610d8e57600080fd5b820183602082011115610da057600080fd5b80359060200191846001830284011164010000000083111715610dc257600080fd5b91908080601f016020809104026020016040519081016040528093929190818152602001838380828437600081840152601f19601f82011690508083019250505050505050919291929080359060200190640100000000811115610e2557600080fd5b820183602082011115610e3757600080fd5b80359060200191846001830284011164010000000083111715610e5957600080fd5b91908080601f016020809104026020016040519081016040528093929190818152602001838380828437600081840152601f19601f820116905080830192505050505050509192919290505050612ab4565b6040518080602001828103825283818151815260200191508051906020019080838360005b83811015610eeb578082015181840152602081019050610ed0565b50505050905090810190601f168015610f185780820380516001836020036101000a031916815260200191505b509250505060405180910390f35b610f2e612c26565b005b610f7c60048036036040811015610f4657600080fd5b81019080803573ffffffffffffffffffffffffffffffffffffffff16906020019092919080359060200190929190505050612c28565b604051808215151515815260200191505060405180910390f35b61105960048036036040811015610fac57600080fd5b8101908080359060200190640100000000811115610fc957600080fd5b820183602082011115610fdb57600080fd5b80359060200191846001830284011164010000000083111715610ffd57600080fd5b91908080601f016020809104026020016040519081016040528093929190818152602001838380828437600081840152601f19601f82011690508083019250505050505050919291929080359060200190929190505050613122565b6040518082815260200191505060405180910390f35b611077613367565b604051808273ffffffffffffffffffffffffffffffffffffffff1673ffffffffffffffffffffffffffffffffffffffff16815260200191505060405180910390f35b6110e5600480360360208110156110cf57600080fd5b810190808035906020019092919050505061338d565b6040518080602001828103825283818151815260200191508051906020019080838360005b8381101561112557808201518184015260208101905061110a565b50505050905090810190601f1680156111525780820380516001836020036101000a031916815260200191505b509250505060405180910390f35b6112b06004803603604081101561117657600080fd5b810190808035906020019064010000000081111561119357600080fd5b8201836020820111156111a557600080fd5b803590602001918460018302840111640100000000831117156111c757600080fd5b91908080601f016020809104026020016040519081016040528093929190818152602001838380828437600081840152601f19601f8201169050808301925050505050505091929192908035906020019064010000000081111561122a57600080fd5b82018360208201111561123c57600080fd5b8035906020019184600183028401116401000000008311171561125e57600080fd5b91908080601f016020809104026020016040519081016040528093929190818152602001838380828437600081840152601f19601f8201169050808301925050505050505091929192905050506133fd565b6040518080602001828103825283818151815260200191508051906020019080838360005b838110156112f05780820151818401526020810190506112d5565b50505050905090810190601f16801561131d5780820380516001836020036101000a031916815260200191505b509250505060405180910390f35b6113c2600480360360e081101561134157600080fd5b81019080803573ffffffffffffffffffffffffffffffffffffffff169060200190929190803573ffffffffffffffffffffffffffffffffffffffff1690602001909291908035906020019092919080359060200190929190803560ff169060200190929190803590602001909291908035906020019092919050505061350a565b005b611426600480360360408110156113da57600080fd5b81019080803573ffffffffffffffffffffffffffffffffffffffff169060200190929190803573ffffffffffffffffffffffffffffffffffffffff16906020019092919050505061378f565b6040518082815260200191505060405180910390f35b6114ff6004803603604081101561145257600080fd5b810190808035906020019064010000000081111561146f57600080fd5b82018360208201111561148157600080fd5b803590602001918460018302840111640100000000831117156114a357600080fd5b91908080601f016020809104026020016040519081016040528093929190818152602001838380828437600081840152601f19601f82011690508083019250505050505050919291929080359060200190929190505050613816565b6040518080602001828103825283818151815260200191508051906020019080838360005b8381101561153f578082015181840152602081019050611524565b50505050905090810190601f16801561156c5780820380516001836020036101000a031916815260200191505b509250505060405180910390f35b6116736004803603606081101561159057600080fd5b81019080803573ffffffffffffffffffffffffffffffffffffffff169060200190929190803573ffffffffffffffffffffffffffffffffffffffff169060200190929190803590602001906401000000008111156115ed57600080fd5b8201836020820111156115ff57600080fd5b8035906020019184600183028401116401000000008311171561162157600080fd5b91908080601f016020809104026020016040519081016040528093929190818152602001838380828437600081840152601f19601f820116905080830192505050505050509192919290505050613904565b604051808215151515815260200191505060405180910390f35b611695613dc8565b604051808273ffffffffffffffffffffffffffffffffffffffff1673ffffffffffffffffffffffffffffffffffffffff16815260200191505060405180910390f35b6117b0600480360360408110156116ed57600080fd5b81019080803573ffffffffffffffffffffffffffffffffffffffff1690602001909291908035906020019064010000000081111561172a57600080fd5b82018360208201111561173c57600080fd5b8035906020019184600183028401116401000000008311171561175e57600080fd5b91908080601f016020809104026020016040519081016040528093929190818152602001838380828437600081840152601f19601f820116905080830192505050505050509192919290505050613dee565b604051808215151515815260200191505060405180910390f35b611816600480360360408110156117e057600080fd5b81019080803573ffffffffffffffffffffffffffffffffffffffff169060200190929190803590602001909291905050506142cd565b005b606060368054600181600116156101000203166002900480601f0160208091040260200160405190810160405280929190818152602001828054600181600116156101000203166002900480156118b05780601f10611885576101008083540402835291602001916118b0565b820191906000526020600020905b81548152906001019060200180831161189357829003601f168201915b5050505050905090565b60006118ce6118c7614453565b848461445b565b6001905092915050565b600060019054906101000a900460ff16806118f757506118f6614652565b5b8061190e57506000809054906101000a900460ff16155b611963576040517f08c379a000000000000000000000000000000000000000000000000000000000815260040180806020018281038252602e81526020018061684f602e913960400191505060405180910390fd5b60008060019054906101000a900460ff1615905080156119b3576001600060016101000a81548160ff02191690831515021790555060016000806101000a81548160ff0219169083151502179055505b6119bc84614663565b6119c684846147b3565b6119cf826148c6565b80156119f05760008060016101000a81548160ff0219169083151502179055505b50505050565b60006060611a4a6040518060400160405280601581526020017f636f6d706172655f6369706865725f63697068657200000000000000000000008152508585604051806020016040528060008152506148e4565b9050611a8b816040518060400160405280600181526020017f3000000000000000000000000000000000000000000000000000000000000000815250614c0f565b80611ad15750611ad0816040518060400160405280600181526020017f3100000000000000000000000000000000000000000000000000000000000000815250614c0f565b5b80611b175750611b16816040518060400160405280600281526020017f2d31000000000000000000000000000000000000000000000000000000000000815250614c0f565b5b611b6c576040517f08c379a000000000000000000000000000000000000000000000000000000000815260040180806020018281038252602681526020018061699b6026913960400191505060405180910390fd5b611bab816040518060400160405280600281526020017f2d31000000000000000000000000000000000000000000000000000000000000815250614c0f565b15611bd9577fffffffffffffffffffffffffffffffffffffffffffffffffffffffffffffffff915050611c2d565b611c18816040518060400160405280600181526020017f3100000000000000000000000000000000000000000000000000000000000000815250614c0f565b15611c27576001915050611c2d565b60009150505b92915050565b6000603554905090565b6060611c588260405180602001604052806000815250614c0f565b15611ccb576040517f08c379a000000000000000000000000000000000000000000000000000000000815260040180806020018281038252601a8152602001807f6369706865722073686f756c64206e6f7420626520656d70747900000000000081525060200191505060405180910390fd5b611d2a6040518060400160405280600781526020017f64656372797074000000000000000000000000000000000000000000000000008152508360405180602001604052806000815250604051806020016040528060008152506148e4565b9050919050565b6000611d3e848484614c2a565b600073ffffffffffffffffffffffffffffffffffffffff168473ffffffffffffffffffffffffffffffffffffffff161415611dc4576040517f08c379a00000000000000000000000000000000000000000000000000000000081526004018080602001828103825260258152602001806169526025913960400191505060405180910390fd5b600073ffffffffffffffffffffffffffffffffffffffff168373ffffffffffffffffffffffffffffffffffffffff161415611e4a576040517f08c379a000000000000000000000000000000000000000000000000000000000815260040180806020018281038252602381526020018061674e6023913960400191505060405180910390fd5b6060600467ffffffffffffffff81118015611e6457600080fd5b50604051908082528060200260200182016040528015611e9857816020015b6060815260200190600190039081611e835790505b509050606060ce60008773ffffffffffffffffffffffffffffffffffffffff1673ffffffffffffffffffffffffffffffffffffffff1681526020019081526020016000208054600181600116156101000203166002900480601f016020809104026020016040519081016040528092919081815260200182805460018160011615610100020316600290048015611f705780601f10611f4557610100808354040283529160200191611f70565b820191906000526020600020905b815481529060010190602001808311611f5357829003601f168201915b505050505090506060611f838286613816565b9050611f8e81614eef565b60ce60008973ffffffffffffffffffffffffffffffffffffffff1673ffffffffffffffffffffffffffffffffffffffff1681526020019081526020016000209080519060200190611fe092919061660e565b50606060ce60008873ffffffffffffffffffffffffffffffffffffffff1673ffffffffffffffffffffffffffffffffffffffff1681526020019081526020016000208054600181600116156101000203166002900480601f0160208091040260200160405190810160405280929190818152602001828054600181600116156101000203166002900480156120b65780601f1061208b576101008083540402835291602001916120b6565b820191906000526020600020905b81548152906001019060200180831161209957829003601f168201915b5050505050905060606120c9828861242f565b90506120d481614eef565b60ce60008a73ffffffffffffffffffffffffffffffffffffffff1673ffffffffffffffffffffffffffffffffffffffff168152602001908152602001600020908051906020019061212692919061660e565b508773ffffffffffffffffffffffffffffffffffffffff168973ffffffffffffffffffffffffffffffffffffffff167f301643d1cde6cba66545d57ba6dc374ac02479b4fe5f60419fcd6cc35a692fd561217f8a614f75565b6040518080602001828103825283818151815260200191508051906020019080838360005b838110156121bf5780820151818401526020810190506121a4565b50505050905090810190601f1680156121ec5780820380516001836020036101000a031916815260200191505b509250505060405180910390a36001955050505050509392505050565b6000603860009054906101000a900460ff16905090565b600061222a6150bc565b905090565b60006122d861223c614453565b846122d3856034600061224d614453565b73ffffffffffffffffffffffffffffffffffffffff1673ffffffffffffffffffffffffffffffffffffffff16815260200190815260200160002060008973ffffffffffffffffffffffffffffffffffffffff1673ffffffffffffffffffffffffffffffffffffffff168152602001908152602001600020546150f490919063ffffffff16565b61445b565b6001905092915050565b60006122ee848461517c565b508373ffffffffffffffffffffffffffffffffffffffff163373ffffffffffffffffffffffffffffffffffffffff167fe19260aff97b920c7df27010903aeb9c8d2be5d310a2c67824cf3f15396e4c1685856040518083815260200180602001828103825283818151815260200191508051906020019080838360005b8381101561238657808201518184015260208101905061236b565b50505050905090810190601f1680156123b35780820380516001836020036101000a031916815260200191505b50935050505060405180910390a36123ca8461519a565b156123db576123da8484846151ad565b5b600190509392505050565b6000603360008373ffffffffffffffffffffffffffffffffffffffff1673ffffffffffffffffffffffffffffffffffffffff168152602001908152602001600020549050919050565b606061244a8360405180602001604052806000815250614c0f565b1561245f576124588261338d565b90506124ba565b6124b76040518060400160405280601081526020017f6164645f6369706865725f706c61696e00000000000000000000000000000000815250846124a285614f75565b604051806020016040528060008152506148e4565b90505b92915050565b60cc60009054906101000a900473ffffffffffffffffffffffffffffffffffffffff1673ffffffffffffffffffffffffffffffffffffffff163373ffffffffffffffffffffffffffffffffffffffff1614612583576040517f08c379a000000000000000000000000000000000000000000000000000000000815260040180806020018281038252600b8152602001807f4f4e4c595f42524944474500000000000000000000000000000000000000000081525060200191505060405180910390fd5b61258d82826152c4565b606060ce60008473ffffffffffffffffffffffffffffffffffffffff1673ffffffffffffffffffffffffffffffffffffffff1681526020019081526020016000208054600181600116156101000203166002900480601f0160208091040260200160405190810160405280929190818152602001828054600181600116156101000203166002900480156126625780601f1061263757610100808354040283529160200191612662565b820191906000526020600020905b81548152906001019060200180831161264557829003601f168201915b5050505050905060606126758284613816565b905061268081614eef565b60ce60008673ffffffffffffffffffffffffffffffffffffffff1673ffffffffffffffffffffffffffffffffffffffff16815260200190815260200160002090805190602001906126d292919061660e565b5050505050565b6000612722609960008473ffffffffffffffffffffffffffffffffffffffff1673ffffffffffffffffffffffffffffffffffffffff16815260200190815260200160002061548a565b9050919050565b606060ce60008373ffffffffffffffffffffffffffffffffffffffff1673ffffffffffffffffffffffffffffffffffffffff1681526020019081526020016000208054600181600116156101000203166002900480601f0160208091040260200160405190810160405280929190818152602001828054600181600116156101000203166002900480156127fe5780601f106127d3576101008083540402835291602001916127fe565b820191906000526020600020905b8154815290600101906020018083116127e157829003601f168201915b50505050509050919050565b60cc60009054906101000a900473ffffffffffffffffffffffffffffffffffffffff1673ffffffffffffffffffffffffffffffffffffffff163373ffffffffffffffffffffffffffffffffffffffff16146128cd576040517f08c379a000000000000000000000000000000000000000000000000000000000815260040180806020018281038252600b8152602001807f4f4e4c595f42524944474500000000000000000000000000000000000000000081525060200191505060405180910390fd5b6128d78282615498565b60606128e28261338d565b90506128ed81614eef565b60ce60008573ffffffffffffffffffffffffffffffffffffffff1673ffffffffffffffffffffffffffffffffffffffff168152602001908152602001600020908051906020019061293f92919061660e565b50505050565b606060378054600181600116156101000203166002900480601f0160208091040260200160405190810160405280929190818152602001828054600181600116156101000203166002900480156129dd5780601f106129b2576101008083540402835291602001916129dd565b820191906000526020600020905b8154815290600101906020018083116129c057829003601f168201915b5050505050905090565b6000612aaa6129f4614453565b84612aa5856040518060600160405280602581526020016169c16025913960346000612a1e614453565b73ffffffffffffffffffffffffffffffffffffffff1673ffffffffffffffffffffffffffffffffffffffff16815260200190815260200160002060008a73ffffffffffffffffffffffffffffffffffffffff1673ffffffffffffffffffffffffffffffffffffffff168152602001908152602001600020546156619092919063ffffffff16565b61445b565b6001905092915050565b6060612acf8360405180602001604052806000815250614c0f565b15612b42576040517f08c379a000000000000000000000000000000000000000000000000000000000815260040180806020018281038252601b8152602001807f636970686572312073686f756c64206e6f7420626520656d707479000000000081525060200191505060405180910390fd5b612b5b8260405180602001604052806000815250614c0f565b15612bce576040517f08c379a000000000000000000000000000000000000000000000000000000000815260040180806020018281038252601b8152602001807f636970686572322073686f756c64206e6f7420626520656d707479000000000081525060200191505060405180910390fd5b612c1e6040518060400160405280601181526020017f7375625f6369706865725f6369706865720000000000000000000000000000008152508484604051806020016040528060008152506148e4565b905092915050565b565b6000612c3c612c35614453565b8484614c2a565b600073ffffffffffffffffffffffffffffffffffffffff16612c5c614453565b73ffffffffffffffffffffffffffffffffffffffff161415612cc9576040517f08c379a00000000000000000000000000000000000000000000000000000000081526004018080602001828103825260258152602001806169526025913960400191505060405180910390fd5b600073ffffffffffffffffffffffffffffffffffffffff168373ffffffffffffffffffffffffffffffffffffffff161415612d4f576040517f08c379a000000000000000000000000000000000000000000000000000000000815260040180806020018281038252602381526020018061674e6023913960400191505060405180910390fd5b6060600467ffffffffffffffff81118015612d6957600080fd5b50604051908082528060200260200182016040528015612d9d57816020015b6060815260200190600190039081612d885790505b509050606060ce6000612dae614453565b73ffffffffffffffffffffffffffffffffffffffff1673ffffffffffffffffffffffffffffffffffffffff1681526020019081526020016000208054600181600116156101000203166002900480601f016020809104026020016040519081016040528092919081815260200182805460018160011615610100020316600290048015612e7c5780601f10612e5157610100808354040283529160200191612e7c565b820191906000526020600020905b815481529060010190602001808311612e5f57829003601f168201915b505050505090506060612e8f8286613816565b9050612e9a81614eef565b60ce6000612ea6614453565b73ffffffffffffffffffffffffffffffffffffffff1673ffffffffffffffffffffffffffffffffffffffff1681526020019081526020016000209080519060200190612ef392919061660e565b50606060ce60008873ffffffffffffffffffffffffffffffffffffffff1673ffffffffffffffffffffffffffffffffffffffff1681526020019081526020016000208054600181600116156101000203166002900480601f016020809104026020016040519081016040528092919081815260200182805460018160011615610100020316600290048015612fc95780601f10612f9e57610100808354040283529160200191612fc9565b820191906000526020600020905b815481529060010190602001808311612fac57829003601f168201915b505050505090506060612fdc828861242f565b9050612fe781614eef565b60ce60008a73ffffffffffffffffffffffffffffffffffffffff1673ffffffffffffffffffffffffffffffffffffffff168152602001908152602001600020908051906020019061303992919061660e565b508773ffffffffffffffffffffffffffffffffffffffff16613059614453565b73ffffffffffffffffffffffffffffffffffffffff167f301643d1cde6cba66545d57ba6dc374ac02479b4fe5f60419fcd6cc35a692fd56130998a614f75565b6040518080602001828103825283818151815260200191508051906020019080838360005b838110156130d95780820151818401526020810190506130be565b50505050905090810190601f1680156131065780820380516001836020036101000a031916815260200191505b509250505060405180910390a360019550505050505092915050565b6000606061317e6040518060400160405280601481526020017f636f6d706172655f6369706865725f706c61696e0000000000000000000000008152508561316986614f75565b604051806020016040528060008152506148e4565b90506131bf816040518060400160405280600181526020017f3000000000000000000000000000000000000000000000000000000000000000815250614c0f565b806132055750613204816040518060400160405280600181526020017f3100000000000000000000000000000000000000000000000000000000000000815250614c0f565b5b8061324b575061324a816040518060400160405280600281526020017f2d31000000000000000000000000000000000000000000000000000000000000815250614c0f565b5b6132a0576040517f08c379a000000000000000000000000000000000000000000000000000000000815260040180806020018281038252602681526020018061699b6026913960400191505060405180910390fd5b6132df816040518060400160405280600281526020017f2d31000000000000000000000000000000000000000000000000000000000000815250614c0f565b1561330d577fffffffffffffffffffffffffffffffffffffffffffffffffffffffffffffffff915050613361565b61334c816040518060400160405280600181526020017f3100000000000000000000000000000000000000000000000000000000000000815250614c0f565b1561335b576001915050613361565b60009150505b92915050565b60cd60009054906101000a900473ffffffffffffffffffffffffffffffffffffffff1681565b60606133f66040518060400160405280600781526020017f656e6372797074000000000000000000000000000000000000000000000000008152506133d184614f75565b60405180602001604052806000815250604051806020016040528060008152506148e4565b9050919050565b60606134188260405180602001604052806000815250614c0f565b1561348b576040517f08c379a000000000000000000000000000000000000000000000000000000000815260040180806020018281038252601b8152602001807f636970686572322073686f756c64206e6f7420626520656d707479000000000081525060200191505060405180910390fd5b6134a48360405180602001604052806000815250614c0f565b156134b157819050613504565b6135016040518060400160405280601181526020017f6164645f6369706865725f6369706865720000000000000000000000000000008152508484604051806020016040528060008152506148e4565b90505b92915050565b83421115613580576040517f08c379a000000000000000000000000000000000000000000000000000000000815260040180806020018281038252601d8152602001807f45524332305065726d69743a206578706972656420646561646c696e6500000081525060200191505060405180910390fd5b6000609a548888886135cf609960008e73ffffffffffffffffffffffffffffffffffffffff1673ffffffffffffffffffffffffffffffffffffffff16815260200190815260200160002061548a565b89604051602001808781526020018673ffffffffffffffffffffffffffffffffffffffff1673ffffffffffffffffffffffffffffffffffffffff1681526020018573ffffffffffffffffffffffffffffffffffffffff1673ffffffffffffffffffffffffffffffffffffffff1681526020018481526020018381526020018281526020019650505050505050604051602081830303815290604052805190602001209050600061367e8261571b565b9050600061368e82878787615782565b90508973ffffffffffffffffffffffffffffffffffffffff168173ffffffffffffffffffffffffffffffffffffffff1614613731576040517f08c379a000000000000000000000000000000000000000000000000000000000815260040180806020018281038252601e8152602001807f45524332305065726d69743a20696e76616c6964207369676e6174757265000081525060200191505060405180910390fd5b613778609960008c73ffffffffffffffffffffffffffffffffffffffff1673ffffffffffffffffffffffffffffffffffffffff168152602001908152602001600020615984565b6137838a8a8a61445b565b50505050505050505050565b6000603460008473ffffffffffffffffffffffffffffffffffffffff1673ffffffffffffffffffffffffffffffffffffffff16815260200190815260200160002060008373ffffffffffffffffffffffffffffffffffffffff1673ffffffffffffffffffffffffffffffffffffffff16815260200190815260200160002054905092915050565b60606138318360405180602001604052806000815250614c0f565b156138a4576040517f08c379a000000000000000000000000000000000000000000000000000000000815260040180806020018281038252601a8152602001807f6369706865722073686f756c64206e6f7420626520656d70747900000000000081525060200191505060405180910390fd5b6138fc6040518060400160405280601081526020017f7375625f6369706865725f706c61696e00000000000000000000000000000000815250846138e785614f75565b604051806020016040528060008152506148e4565b905092915050565b60008073ffffffffffffffffffffffffffffffffffffffff168473ffffffffffffffffffffffffffffffffffffffff16141561398b576040517f08c379a00000000000000000000000000000000000000000000000000000000081526004018080602001828103825260258152602001806169526025913960400191505060405180910390fd5b600073ffffffffffffffffffffffffffffffffffffffff168373ffffffffffffffffffffffffffffffffffffffff161415613a11576040517f08c379a000000000000000000000000000000000000000000000000000000000815260040180806020018281038252602381526020018061674e6023913960400191505060405180910390fd5b6060600467ffffffffffffffff81118015613a2b57600080fd5b50604051908082528060200260200182016040528015613a5f57816020015b6060815260200190600190039081613a4a5790505b509050606060ce60008773ffffffffffffffffffffffffffffffffffffffff1673ffffffffffffffffffffffffffffffffffffffff1681526020019081526020016000208054600181600116156101000203166002900480601f016020809104026020016040519081016040528092919081815260200182805460018160011615610100020316600290048015613b375780601f10613b0c57610100808354040283529160200191613b37565b820191906000526020600020905b815481529060010190602001808311613b1a57829003601f168201915b505050505090506060613b4a8286612ab4565b9050613b5581614eef565b60ce60008973ffffffffffffffffffffffffffffffffffffffff1673ffffffffffffffffffffffffffffffffffffffff1681526020019081526020016000209080519060200190613ba792919061660e565b50606060ce60008873ffffffffffffffffffffffffffffffffffffffff1673ffffffffffffffffffffffffffffffffffffffff1681526020019081526020016000208054600181600116156101000203166002900480601f016020809104026020016040519081016040528092919081815260200182805460018160011615610100020316600290048015613c7d5780601f10613c5257610100808354040283529160200191613c7d565b820191906000526020600020905b815481529060010190602001808311613c6057829003601f168201915b505050505090506060613c9082886133fd565b9050613c9b81614eef565b60ce60008a73ffffffffffffffffffffffffffffffffffffffff1673ffffffffffffffffffffffffffffffffffffffff1681526020019081526020016000209080519060200190613ced92919061660e565b508773ffffffffffffffffffffffffffffffffffffffff168973ffffffffffffffffffffffffffffffffffffffff167f301643d1cde6cba66545d57ba6dc374ac02479b4fe5f60419fcd6cc35a692fd5896040518080602001828103825283818151815260200191508051906020019080838360005b83811015613d7e578082015181840152602081019050613d63565b50505050905090810190601f168015613dab5780820380516001836020036101000a031916815260200191505b509250505060405180910390a36001955050505050509392505050565b60cc60009054906101000a900473ffffffffffffffffffffffffffffffffffffffff1681565b60008073ffffffffffffffffffffffffffffffffffffffff16613e0f614453565b73ffffffffffffffffffffffffffffffffffffffff161415613e7c576040517f08c379a00000000000000000000000000000000000000000000000000000000081526004018080602001828103825260258152602001806169526025913960400191505060405180910390fd5b600073ffffffffffffffffffffffffffffffffffffffff168373ffffffffffffffffffffffffffffffffffffffff161415613f02576040517f08c379a000000000000000000000000000000000000000000000000000000000815260040180806020018281038252602381526020018061674e6023913960400191505060405180910390fd5b6060600467ffffffffffffffff81118015613f1c57600080fd5b50604051908082528060200260200182016040528015613f5057816020015b6060815260200190600190039081613f3b5790505b509050606060ce6000613f61614453565b73ffffffffffffffffffffffffffffffffffffffff1673ffffffffffffffffffffffffffffffffffffffff1681526020019081526020016000208054600181600116156101000203166002900480601f01602080910402602001604051908101604052809291908181526020018280546001816001161561010002031660029004801561402f5780601f106140045761010080835404028352916020019161402f565b820191906000526020600020905b81548152906001019060200180831161401257829003601f168201915b5050505050905060606140428286612ab4565b905061404d81614eef565b60ce6000614059614453565b73ffffffffffffffffffffffffffffffffffffffff1673ffffffffffffffffffffffffffffffffffffffff16815260200190815260200160002090805190602001906140a692919061660e565b50606060ce60008873ffffffffffffffffffffffffffffffffffffffff1673ffffffffffffffffffffffffffffffffffffffff1681526020019081526020016000208054600181600116156101000203166002900480601f01602080910402602001604051908101604052809291908181526020018280546001816001161561010002031660029004801561417c5780601f106141515761010080835404028352916020019161417c565b820191906000526020600020905b81548152906001019060200180831161415f57829003601f168201915b50505050509050606061418f82886133fd565b905061419a81614eef565b60ce60008a73ffffffffffffffffffffffffffffffffffffffff1673ffffffffffffffffffffffffffffffffffffffff16815260200190815260200160002090805190602001906141ec92919061660e565b508773ffffffffffffffffffffffffffffffffffffffff1661420c614453565b73ffffffffffffffffffffffffffffffffffffffff167f301643d1cde6cba66545d57ba6dc374ac02479b4fe5f60419fcd6cc35a692fd5896040518080602001828103825283818151815260200191508051906020019080838360005b83811015614284578082015181840152602081019050614269565b50505050905090810190601f1680156142b15780820380516001836020036101000a031916815260200191505b509250505060405180910390a360019550505050505092915050565b60cc60009054906101000a900473ffffffffffffffffffffffffffffffffffffffff1673ffffffffffffffffffffffffffffffffffffffff16630b620b8160cd60009054906101000a900473ffffffffffffffffffffffffffffffffffffffff163385856040518563ffffffff1660e01b8152600401808573ffffffffffffffffffffffffffffffffffffffff1673ffffffffffffffffffffffffffffffffffffffff1681526020018473ffffffffffffffffffffffffffffffffffffffff1673ffffffffffffffffffffffffffffffffffffffff1681526020018373ffffffffffffffffffffffffffffffffffffffff1673ffffffffffffffffffffffffffffffffffffffff168152602001828152602001945050505050602060405180830381600087803b15801561440057600080fd5b505af1158015614414573d6000803e3d6000fd5b505050506040513d602081101561442a57600080fd5b8101908080519060200190929190505050505050565b600080823b905060008111915050919050565b600033905090565b600073ffffffffffffffffffffffffffffffffffffffff168373ffffffffffffffffffffffffffffffffffffffff1614156144e1576040517f08c379a00000000000000000000000000000000000000000000000000000000081526004018080602001828103825260248152602001806169776024913960400191505060405180910390fd5b600073ffffffffffffffffffffffffffffffffffffffff168273ffffffffffffffffffffffffffffffffffffffff161415614567576040517f08c379a00000000000000000000000000000000000000000000000000000000081526004018080602001828103825260228152602001806167936022913960400191505060405180910390fd5b80603460008573ffffffffffffffffffffffffffffffffffffffff1673ffffffffffffffffffffffffffffffffffffffff16815260200190815260200160002060008473ffffffffffffffffffffffffffffffffffffffff1673ffffffffffffffffffffffffffffffffffffffff168152602001908152602001600020819055508173ffffffffffffffffffffffffffffffffffffffff168373ffffffffffffffffffffffffffffffffffffffff167f8c5be1e5ebec7d5bd14f71427d1e84f3dd0314c0f7b2291e5b200ac8c7c3b925836040518082815260200191505060405180910390a3505050565b600061465d30614440565b15905090565b600060019054906101000a900460ff16806146825750614681614652565b5b8061469957506000809054906101000a900460ff16155b6146ee576040517f08c379a000000000000000000000000000000000000000000000000000000000815260040180806020018281038252602e81526020018061684f602e913960400191505060405180910390fd5b60008060019054906101000a900460ff16159050801561473e576001600060016101000a81548160ff02191690831515021790555060016000806101000a81548160ff0219169083151502179055505b61474661599a565b614785826040518060400160405280600181526020017f3100000000000000000000000000000000000000000000000000000000000000815250615a99565b61478e82615bc2565b80156147af5760008060016101000a81548160ff0219169083151502179055505b5050565b600060019054906101000a900460ff16806147d257506147d1614652565b5b806147e957506000809054906101000a900460ff16155b61483e576040517f08c379a000000000000000000000000000000000000000000000000000000000815260040180806020018281038252602e81526020018061684f602e913960400191505060405180910390fd5b60008060019054906101000a900460ff16159050801561488e576001600060016101000a81548160ff02191690831515021790555060016000806101000a81548160ff0219169083151502179055505b61489661599a565b6148a08383615ce1565b80156148c15760008060016101000a81548160ff0219169083151502179055505b505050565b80603860006101000a81548160ff021916908360ff16021790555050565b606080600467ffffffffffffffff811180156148ff57600080fd5b5060405190808252806020026020018201604052801561493357816020015b606081526020019060019003908161491e5790505b50905061493f86615e2c565b8160008151811061494c57fe5b602002602001018190525061496085615e2c565b8160018151811061496d57fe5b602002602001018190525061498184615e2c565b8160028151811061498e57fe5b60200260200101819052506149a283615e2c565b816003815181106149af57fe5b602002602001018190525060606149c582615e8c565b90506060606473ffffffffffffffffffffffffffffffffffffffff1663355f7e37836040518263ffffffff1660e01b81526004018080602001828103825283818151815260200191508051906020019080838360005b83811015614a36578082015181840152602081019050614a1b565b50505050905090810190601f168015614a635780820380516001836020036101000a031916815260200191505b509250505060006040518083038186803b158015614a8057600080fd5b505afa158015614a94573d6000803e3d6000fd5b505050506040513d6000823e3d601f19601f820116820180604052506020811015614abe57600080fd5b8101908080516040519392919084640100000000821115614ade57600080fd5b83820191506020820185811115614af457600080fd5b8251866001820283011164010000000082111715614b1157600080fd5b8083526020830192505050908051906020019080838360005b83811015614b45578082015181840152602081019050614b2a565b50505050905090810190601f168015614b725780820380516001836020036101000a031916815260200191505b50604052505050905060011515614ba082614b9b60405180602001604052806000815250615e2c565b614c0f565b15151415614bf9576040517f08c379a00000000000000000000000000000000000000000000000000000000081526004018080602001828103825260408152602001806168f16040913960400191505060405180910390fd5b614c0281615eb7565b9350505050949350505050565b60008180519060200120838051906020012014905092915050565b600073ffffffffffffffffffffffffffffffffffffffff168373ffffffffffffffffffffffffffffffffffffffff161415614cb0576040517f08c379a00000000000000000000000000000000000000000000000000000000081526004018080602001828103825260258152602001806169526025913960400191505060405180910390fd5b600073ffffffffffffffffffffffffffffffffffffffff168273ffffffffffffffffffffffffffffffffffffffff161415614d36576040517f08c379a000000000000000000000000000000000000000000000000000000000815260040180806020018281038252602381526020018061674e6023913960400191505060405180910390fd5b614d41838383615ed1565b614dad816040518060600160405280602681526020016167b560269139603360008773ffffffffffffffffffffffffffffffffffffffff1673ffffffffffffffffffffffffffffffffffffffff168152602001908152602001600020546156619092919063ffffffff16565b603360008573ffffffffffffffffffffffffffffffffffffffff1673ffffffffffffffffffffffffffffffffffffffff16815260200190815260200160002081905550614e4281603360008573ffffffffffffffffffffffffffffffffffffffff1673ffffffffffffffffffffffffffffffffffffffff168152602001908152602001600020546150f490919063ffffffff16565b603360008473ffffffffffffffffffffffffffffffffffffffff1673ffffffffffffffffffffffffffffffffffffffff168152602001908152602001600020819055508173ffffffffffffffffffffffffffffffffffffffff168373ffffffffffffffffffffffffffffffffffffffff167fddf252ad1be2c89b69c2b068fc378daa952ba7f163c4a11628f55a4df523b3ef836040518082815260200191505060405180910390a3505050565b606080825167ffffffffffffffff81118015614f0a57600080fd5b506040519080825280601f01601f191660200182016040528015614f3d5781602001600182028036833780820191505090505b5090506000601f84510190506000602090505b818111614f6a578085015181840152602081019050614f50565b508192505050919050565b60606000821415614fbd576040518060400160405280600181526020017f300000000000000000000000000000000000000000000000000000000000000081525090506150b7565b600082905060005b60008214614fe7578080600101915050600a8281614fdf57fe5b049150614fc5565b60608167ffffffffffffffff8111801561500057600080fd5b506040519080825280601f01601f1916602001820160405280156150335781602001600182028036833780820191505090505b50905060006001830390508593505b600084146150af57600a848161505457fe5b0660300160f81b8282806001900393508151811061506e57fe5b60200101907effffffffffffffffffffffffffffffffffffffffffffffffffffffffffffff1916908160001a905350600a84816150a757fe5b049350615042565b819450505050505b919050565b60006150ef604051808061689f60529139605201905060405180910390206150e2615ed6565b6150ea615ee0565b615eea565b905090565b600080828401905083811015615172576040517f08c379a000000000000000000000000000000000000000000000000000000000815260040180806020018281038252601b8152602001807f536166654d6174683a206164646974696f6e206f766572666c6f77000000000081525060200191505060405180910390fd5b8091505092915050565b6000615190615189614453565b8484614c2a565b6001905092915050565b600080823b905060008111915050919050565b60008390508073ffffffffffffffffffffffffffffffffffffffff1663a4c0ed363385856040518463ffffffff1660e01b8152600401808473ffffffffffffffffffffffffffffffffffffffff1673ffffffffffffffffffffffffffffffffffffffff16815260200183815260200180602001828103825283818151815260200191508051906020019080838360005b8381101561525857808201518184015260208101905061523d565b50505050905090810190601f1680156152855780820380516001836020036101000a031916815260200191505b50945050505050600060405180830381600087803b1580156152a657600080fd5b505af11580156152ba573d6000803e3d6000fd5b5050505050505050565b600073ffffffffffffffffffffffffffffffffffffffff168273ffffffffffffffffffffffffffffffffffffffff16141561534a576040517f08c379a00000000000000000000000000000000000000000000000000000000081526004018080602001828103825260218152602001806169316021913960400191505060405180910390fd5b61535682600083615ed1565b6153c28160405180606001604052806022815260200161677160229139603360008673ffffffffffffffffffffffffffffffffffffffff1673ffffffffffffffffffffffffffffffffffffffff168152602001908152602001600020546156619092919063ffffffff16565b603360008473ffffffffffffffffffffffffffffffffffffffff1673ffffffffffffffffffffffffffffffffffffffff1681526020019081526020016000208190555061541a81603554615f6f90919063ffffffff16565b603581905550600073ffffffffffffffffffffffffffffffffffffffff168273ffffffffffffffffffffffffffffffffffffffff167fddf252ad1be2c89b69c2b068fc378daa952ba7f163c4a11628f55a4df523b3ef836040518082815260200191505060405180910390a35050565b600081600001549050919050565b600073ffffffffffffffffffffffffffffffffffffffff168273ffffffffffffffffffffffffffffffffffffffff16141561553b576040517f08c379a000000000000000000000000000000000000000000000000000000000815260040180806020018281038252601f8152602001807f45524332303a206d696e7420746f20746865207a65726f20616464726573730081525060200191505060405180910390fd5b61554760008383615ed1565b61555c816035546150f490919063ffffffff16565b6035819055506155b481603360008573ffffffffffffffffffffffffffffffffffffffff1673ffffffffffffffffffffffffffffffffffffffff168152602001908152602001600020546150f490919063ffffffff16565b603360008473ffffffffffffffffffffffffffffffffffffffff1673ffffffffffffffffffffffffffffffffffffffff168152602001908152602001600020819055508173ffffffffffffffffffffffffffffffffffffffff16600073ffffffffffffffffffffffffffffffffffffffff167fddf252ad1be2c89b69c2b068fc378daa952ba7f163c4a11628f55a4df523b3ef836040518082815260200191505060405180910390a35050565b600083831115829061570e576040517f08c379a00000000000000000000000000000000000000000000000000000000081526004018080602001828103825283818151815260200191508051906020019080838360005b838110156156d35780820151818401526020810190506156b8565b50505050905090810190601f1680156157005780820380516001836020036101000a031916815260200191505b509250505060405180910390fd5b5082840390509392505050565b60006157256150bc565b8260405160200180807f190100000000000000000000000000000000000000000000000000000000000081525060020183815260200182815260200192505050604051602081830303815290604052805190602001209050919050565b60007f7fffffffffffffffffffffffffffffff5d576e7357a4501ddfe92f46681b20a08260001c1115615800576040517f08c379a00000000000000000000000000000000000000000000000000000000081526004018080602001828103825260228152602001806167db6022913960400191505060405180910390fd5b601b8460ff1614806158155750601c8460ff16145b61586a576040517f08c379a000000000000000000000000000000000000000000000000000000000815260040180806020018281038252602281526020018061687d6022913960400191505060405180910390fd5b600060018686868660405160008152602001604052604051808581526020018460ff1660ff1681526020018381526020018281526020019450505050506020604051602081039080840390855afa1580156158c9573d6000803e3d6000fd5b505050602060405103519050600073ffffffffffffffffffffffffffffffffffffffff168173ffffffffffffffffffffffffffffffffffffffff161415615978576040517f08c379a00000000000000000000000000000000000000000000000000000000081526004018080602001828103825260188152602001807f45434453413a20696e76616c6964207369676e6174757265000000000000000081525060200191505060405180910390fd5b80915050949350505050565b6001816000016000828254019250508190555050565b600060019054906101000a900460ff16806159b957506159b8614652565b5b806159d057506000809054906101000a900460ff16155b615a25576040517f08c379a000000000000000000000000000000000000000000000000000000000815260040180806020018281038252602e81526020018061684f602e913960400191505060405180910390fd5b60008060019054906101000a900460ff161590508015615a75576001600060016101000a81548160ff02191690831515021790555060016000806101000a81548160ff0219169083151502179055505b8015615a965760008060016101000a81548160ff0219169083151502179055505b50565b600060019054906101000a900460ff1680615ab85750615ab7614652565b5b80615acf57506000809054906101000a900460ff16155b615b24576040517f08c379a000000000000000000000000000000000000000000000000000000000815260040180806020018281038252602e81526020018061684f602e913960400191505060405180910390fd5b60008060019054906101000a900460ff161590508015615b74576001600060016101000a81548160ff02191690831515021790555060016000806101000a81548160ff0219169083151502179055505b600083805190602001209050600083805190602001209050816065819055508060668190555050508015615bbd5760008060016101000a81548160ff0219169083151502179055505b505050565b600060019054906101000a900460ff1680615be15750615be0614652565b5b80615bf857506000809054906101000a900460ff16155b615c4d576040517f08c379a000000000000000000000000000000000000000000000000000000000815260040180806020018281038252602e81526020018061684f602e913960400191505060405180910390fd5b60008060019054906101000a900460ff161590508015615c9d576001600060016101000a81548160ff02191690831515021790555060016000806101000a81548160ff0219169083151502179055505b60405180806167fd6052913960520190506040518091039020609a819055508015615cdd5760008060016101000a81548160ff0219169083151502179055505b5050565b600060019054906101000a900460ff1680615d005750615cff614652565b5b80615d1757506000809054906101000a900460ff16155b615d6c576040517f08c379a000000000000000000000000000000000000000000000000000000000815260040180806020018281038252602e81526020018061684f602e913960400191505060405180910390fd5b60008060019054906101000a900460ff161590508015615dbc576001600060016101000a81548160ff02191690831515021790555060016000806101000a81548160ff0219169083151502179055505b8260369080519060200190615dd292919061668e565b508160379080519060200190615de992919061668e565b506012603860006101000a81548160ff021916908360ff1602179055508015615e275760008060016101000a81548160ff0219169083151502179055505b505050565b60608060018351148015615e5e5750608083600081518110615e4a57fe5b602001015160f81c60f81b60f81c60ff1611155b15615e6b57829050615e83565b615e80615e7a84516080615ff2565b846161d4565b90505b80915050919050565b606080615e988361625e565b9050615eaf615ea9825160c0615ff2565b826161d4565b915050919050565b6060615eca615ec5836163ba565b6163e8565b9050919050565b505050565b6000606554905090565b6000606654905090565b6000838383615ef7616479565b30604051602001808681526020018581526020018481526020018381526020018273ffffffffffffffffffffffffffffffffffffffff1673ffffffffffffffffffffffffffffffffffffffff168152602001955050505050506040516020818303038152906040528051906020012090509392505050565b600082821115615fe7576040517f08c379a000000000000000000000000000000000000000000000000000000000815260040180806020018281038252601e8152602001807f536166654d6174683a207375627472616374696f6e206f766572666c6f77000081525060200191505060405180910390fd5b818303905092915050565b606080603884101561609357600167ffffffffffffffff8111801561601657600080fd5b506040519080825280601f01601f1916602001820160405280156160495781602001600182028036833780820191505090505b50905082840160f81b8160008151811061605f57fe5b60200101907effffffffffffffffffffffffffffffffffffffffffffffffffffffffffffff1916908160001a9053506161ca565b600080600190505b60008187816160a657fe5b04146160c05781806001019250506101008102905061609b565b6001820167ffffffffffffffff811180156160da57600080fd5b506040519080825280601f01601f19166020018201604052801561610d5781602001600182028036833780820191505090505b50925060378583010160f81b8360008151811061612657fe5b60200101907effffffffffffffffffffffffffffffffffffffffffffffffffffffffffffff1916908160001a905350600190505b8181116161c7576101008183036101000a878161617357fe5b048161617b57fe5b0660f81b83828151811061618b57fe5b60200101907effffffffffffffffffffffffffffffffffffffffffffffffffffffffffffff1916908160001a905350808060010191505061615a565b50505b8091505092915050565b6060806040519050835180825260208201818101602087015b8183101561620a57805183526020830192506020810190506161ed565b50855192508351830184528091508282019050602086015b8183101561623f5780518352602083019250602081019050616222565b50601f19601f8851850115830101166040525050508091505092915050565b60606000825114156162bd57600067ffffffffffffffff8111801561628257600080fd5b506040519080825280601f01601f1916602001820160405280156162b55781602001600182028036833780820191505090505b5090506163b5565b600080600090505b83518110156162f4578381815181106162da57fe5b6020026020010151518201915080806001019150506162c5565b60608267ffffffffffffffff8111801561630d57600080fd5b506040519080825280601f01601f1916602001820160405280156163405781602001600182028036833780820191505090505b5090506000602082019050600092505b85518310156163ad57606086848151811061636757fe5b60200260200101519050600060208201905061638583828451616481565b87858151811061639157fe5b6020026020010151518301925050508280600101935050616350565b819450505050505b919050565b6163c261670e565b600060208301905060405180604001604052808451815260200182815250915050919050565b606060008260000151116163fb57600080fd5b600080616407846164dc565b9150915060608167ffffffffffffffff8111801561642457600080fd5b506040519080825280601f01601f1916602001820160405280156164575781602001600182028036833780820191505090505b509050600081602001905061646d848285616514565b81945050505050919050565b600046905090565b6000839050600083905060008390505b602081106164b45781518352602083019250602082019150602081039050616491565b60006001826020036101000a0390508019835116818551168181178652505050505050505050565b60008060006164ee8460200151616585565b905060008185602001510190506000828660000151039050818194509450505050915091565b600081141561652257616580565b5b602060ff1681106165525782518252602060ff1683019250602060ff1682019150602060ff1681039050616523565b600081111561657f576000600182602060ff16036101000a03905080198451168184511681811785525050505b5b505050565b600080825160001a9050608060ff168110156165a5576000915050616609565b60b860ff168110806165ca575060c060ff1681101580156165c9575060f860ff1681105b5b156165d9576001915050616609565b60c060ff168110156165f95760018060b80360ff16820301915050616609565b60018060f80360ff168203019150505b919050565b828054600181600116156101000203166002900490600052602060002090601f016020900481019282601f1061664f57805160ff191683800117855561667d565b8280016001018555821561667d579182015b8281111561667c578251825591602001919060010190616661565b5b50905061668a9190616728565b5090565b828054600181600116156101000203166002900490600052602060002090601f016020900481019282601f106166cf57805160ff19168380011785556166fd565b828001600101855582156166fd579182015b828111156166fc5782518255916020019190600101906166e1565b5b50905061670a9190616728565b5090565b604051806040016040528060008152602001600081525090565b61674a91905b8082111561674657600081600090555060010161672e565b5090565b9056fe45524332303a207472616e7366657220746f20746865207a65726f206164647265737345524332303a206275726e20616d6f756e7420657863656564732062616c616e636545524332303a20617070726f766520746f20746865207a65726f206164647265737345524332303a207472616e7366657220616d6f756e7420657863656564732062616c616e636545434453413a20696e76616c6964207369676e6174757265202773272076616c75655065726d69742861646472657373206f776e65722c61646472657373207370656e6465722c75696e743235362076616c75652c75696e74323536206e6f6e63652c75696e7432353620646561646c696e6529496e697469616c697a61626c653a20636f6e747261637420697320616c726561647920696e697469616c697a656445434453413a20696e76616c6964207369676e6174757265202776272076616c7565454950373132446f6d61696e28737472696e67206e616d652c737472696e672076657273696f6e2c75696e7432353620636861696e49642c6164647265737320766572696679696e67436f6e747261637429456967656e63616c6c2072657475726e7320616e20656d70747920737472696e67207768696368206d65616e7320776520656e636f756e746572206572726f7245524332303a206275726e2066726f6d20746865207a65726f206164647265737345524332303a207472616e736665722066726f6d20746865207a65726f206164647265737345524332303a20617070726f76652066726f6d20746865207a65726f2061646472657373636f6d7061726520726573756c742063616e206f6e6c79206265202d312c20302c206f72203145524332303a2064656372656173656420616c6c6f77616e63652062656c6f77207a65726fa2646970667358221220e3694879cd8a1e10583a2e9d7add7d68acc00107129916248599426b0da84a3c64736f6c634300060b00335065726d69742861646472657373206f776e65722c61646472657373207370656e6465722c75696e743235362076616c75652c75696e74323536206e6f6e63652c75696e7432353620646561646c696e6529496e697469616c697a61626c653a20636f6e747261637420697320616c726561647920696e697469616c697a6564",
  "linkReferences": {},
  "deployedLinkReferences": {}
}