{
  "_format": "hh-sol-artifact-1",
  "contractName": "TestArbCustomToken",
  "sourceName": "contracts/tokenbridge/test/TestArbCustomToken.sol",
  "abi": [
    {
      "inputs": [
        {
          "internalType": "address",
          "name": "_bridge",
          "type": "address"
        },
        {
          "internalType": "address",
          "name": "_l1Address",
          "type": "address"
        }
      ],
      "stateMutability": "nonpayable",
      "type": "constructor"
    },
    {
      "anonymous": false,
      "inputs": [
        {
          "indexed": true,
          "internalType": "address",
          "name": "owner",
          "type": "address"
        },
        {
          "indexed": true,
          "internalType": "address",
          "name": "spender",
          "type": "address"
        },
        {
          "indexed": false,
          "internalType": "uint256",
          "name": "value",
          "type": "uint256"
        }
      ],
      "name": "Approval",
      "type": "event"
    },
    {
      "anonymous": false,
      "inputs": [
        {
          "indexed": true,
          "internalType": "address",
          "name": "from",
          "type": "address"
        },
        {
          "indexed": true,
          "internalType": "address",
          "name": "to",
          "type": "address"
        },
        {
          "indexed": false,
          "internalType": "uint256",
          "name": "value",
          "type": "uint256"
        },
        {
          "indexed": false,
          "internalType": "bytes",
          "name": "data",
          "type": "bytes"
        }
      ],
      "name": "Transfer",
      "type": "event"
    },
    {
      "anonymous": false,
      "inputs": [
        {
          "indexed": true,
          "internalType": "address",
          "name": "from",
          "type": "address"
        },
        {
          "indexed": true,
          "internalType": "address",
          "name": "to",
          "type": "address"
        },
        {
          "indexed": false,
          "internalType": "uint256",
          "name": "value",
          "type": "uint256"
        }
      ],
      "name": "Transfer",
      "type": "event"
    },
    {
      "anonymous": false,
      "inputs": [
        {
          "indexed": true,
          "internalType": "address",
          "name": "from",
          "type": "address"
        },
        {
          "indexed": true,
          "internalType": "address",
          "name": "to",
          "type": "address"
        },
        {
          "indexed": false,
          "internalType": "bytes",
          "name": "value",
          "type": "bytes"
        }
      ],
      "name": "TransferCipher",
      "type": "event"
    },
    {
      "inputs": [],
      "name": "DOMAIN_SEPARATOR",
      "outputs": [
        {
          "internalType": "bytes32",
          "name": "",
          "type": "bytes32"
        }
      ],
      "stateMutability": "view",
      "type": "function"
    },
    {
      "inputs": [
        {
          "internalType": "address",
          "name": "owner",
          "type": "address"
        },
        {
          "internalType": "address",
          "name": "spender",
          "type": "address"
        }
      ],
      "name": "allowance",
      "outputs": [
        {
          "internalType": "uint256",
          "name": "",
          "type": "uint256"
        }
      ],
      "stateMutability": "view",
      "type": "function"
    },
    {
      "inputs": [
        {
          "internalType": "address",
          "name": "spender",
          "type": "address"
        },
        {
          "internalType": "uint256",
          "name": "amount",
          "type": "uint256"
        }
      ],
      "name": "approve",
      "outputs": [
        {
          "internalType": "bool",
          "name": "",
          "type": "bool"
        }
      ],
      "stateMutability": "nonpayable",
      "type": "function"
    },
    {
      "inputs": [
        {
          "internalType": "address",
          "name": "account",
          "type": "address"
        }
      ],
      "name": "balanceOf",
      "outputs": [
        {
          "internalType": "uint256",
          "name": "",
          "type": "uint256"
        }
      ],
      "stateMutability": "view",
      "type": "function"
    },
    {
      "inputs": [],
      "name": "bridge",
      "outputs": [
        {
          "internalType": "contract ArbTokenBridge",
          "name": "",
          "type": "address"
        }
      ],
      "stateMutability": "view",
      "type": "function"
    },
    {
      "inputs": [
        {
          "internalType": "address",
          "name": "account",
          "type": "address"
        },
        {
          "internalType": "uint256",
          "name": "amount",
          "type": "uint256"
        }
      ],
      "name": "bridgeBurn",
      "outputs": [],
      "stateMutability": "nonpayable",
      "type": "function"
    },
    {
      "inputs": [
        {
          "internalType": "address",
          "name": "account",
          "type": "address"
        },
        {
          "internalType": "uint256",
          "name": "amount",
          "type": "uint256"
        }
      ],
      "name": "bridgeMint",
      "outputs": [],
      "stateMutability": "nonpayable",
      "type": "function"
    },
    {
      "inputs": [
        {
          "internalType": "address",
          "name": "account",
          "type": "address"
        }
      ],
      "name": "cipherBalanceOf",
      "outputs": [
        {
          "internalType": "bytes",
          "name": "",
          "type": "bytes"
        }
      ],
      "stateMutability": "view",
      "type": "function"
    },
    {
      "inputs": [
        {
          "internalType": "address",
          "name": "recipient",
          "type": "address"
        },
        {
          "internalType": "bytes",
          "name": "cipher_amount",
          "type": "bytes"
        }
      ],
      "name": "cipherTransfer",
      "outputs": [
        {
          "internalType": "bool",
          "name": "",
          "type": "bool"
        }
      ],
      "stateMutability": "nonpayable",
      "type": "function"
    },
    {
      "inputs": [],
      "name": "decimals",
      "outputs": [
        {
          "internalType": "uint8",
          "name": "",
          "type": "uint8"
        }
      ],
      "stateMutability": "view",
      "type": "function"
    },
    {
      "inputs": [
        {
          "internalType": "address",
          "name": "spender",
          "type": "address"
        },
        {
          "internalType": "uint256",
          "name": "subtractedValue",
          "type": "uint256"
        }
      ],
      "name": "decreaseAllowance",
      "outputs": [
        {
          "internalType": "bool",
          "name": "",
          "type": "bool"
        }
      ],
      "stateMutability": "nonpayable",
      "type": "function"
    },
    {
      "inputs": [
        {
          "internalType": "address",
          "name": "spender",
          "type": "address"
        },
        {
          "internalType": "uint256",
          "name": "addedValue",
          "type": "uint256"
        }
      ],
      "name": "increaseAllowance",
      "outputs": [
        {
          "internalType": "bool",
          "name": "",
          "type": "bool"
        }
      ],
      "stateMutability": "nonpayable",
      "type": "function"
    },
    {
      "inputs": [
        {
          "internalType": "string",
          "name": "name",
          "type": "string"
        },
        {
          "internalType": "string",
          "name": "symbol",
          "type": "string"
        },
        {
          "internalType": "uint8",
          "name": "decimals",
          "type": "uint8"
        }
      ],
      "name": "initialize",
      "outputs": [],
      "stateMutability": "nonpayable",
      "type": "function"
    },
    {
      "inputs": [],
      "name": "l1Address",
      "outputs": [
        {
          "internalType": "address",
          "name": "",
          "type": "address"
        }
      ],
      "stateMutability": "view",
      "type": "function"
    },
    {
      "inputs": [],
      "name": "name",
      "outputs": [
        {
          "internalType": "string",
          "name": "",
          "type": "string"
        }
      ],
      "stateMutability": "view",
      "type": "function"
    },
    {
      "inputs": [
        {
          "internalType": "address",
          "name": "owner",
          "type": "address"
        }
      ],
      "name": "nonces",
      "outputs": [
        {
          "internalType": "uint256",
          "name": "",
          "type": "uint256"
        }
      ],
      "stateMutability": "view",
      "type": "function"
    },
    {
      "inputs": [
        {
          "internalType": "address",
          "name": "owner",
          "type": "address"
        },
        {
          "internalType": "address",
          "name": "spender",
          "type": "address"
        },
        {
          "internalType": "uint256",
          "name": "value",
          "type": "uint256"
        },
        {
          "internalType": "uint256",
          "name": "deadline",
          "type": "uint256"
        },
        {
          "internalType": "uint8",
          "name": "v",
          "type": "uint8"
        },
        {
          "internalType": "bytes32",
          "name": "r",
          "type": "bytes32"
        },
        {
          "internalType": "bytes32",
          "name": "s",
          "type": "bytes32"
        }
      ],
      "name": "permit",
      "outputs": [],
      "stateMutability": "nonpayable",
      "type": "function"
    },
    {
      "inputs": [],
      "name": "someWackyCustomStuff",
      "outputs": [],
      "stateMutability": "nonpayable",
      "type": "function"
    },
    {
      "inputs": [],
      "name": "symbol",
      "outputs": [
        {
          "internalType": "string",
          "name": "",
          "type": "string"
        }
      ],
      "stateMutability": "view",
      "type": "function"
    },
    {
      "inputs": [],
      "name": "totalSupply",
      "outputs": [
        {
          "internalType": "uint256",
          "name": "",
          "type": "uint256"
        }
      ],
      "stateMutability": "view",
      "type": "function"
    },
    {
      "inputs": [
        {
          "internalType": "address",
          "name": "recipient",
          "type": "address"
        },
        {
          "internalType": "uint256",
          "name": "amount",
          "type": "uint256"
        }
      ],
      "name": "transfer",
      "outputs": [
        {
          "internalType": "bool",
          "name": "",
          "type": "bool"
        }
      ],
      "stateMutability": "nonpayable",
      "type": "function"
    },
    {
      "inputs": [
        {
          "internalType": "address",
          "name": "_to",
          "type": "address"
        },
        {
          "internalType": "uint256",
          "name": "_value",
          "type": "uint256"
        },
        {
          "internalType": "bytes",
          "name": "_data",
          "type": "bytes"
        }
      ],
      "name": "transferAndCall",
      "outputs": [
        {
          "internalType": "bool",
          "name": "success",
          "type": "bool"
        }
      ],
      "stateMutability": "nonpayable",
      "type": "function"
    },
    {
      "inputs": [
        {
          "internalType": "address",
          "name": "sender",
          "type": "address"
        },
        {
          "internalType": "address",
          "name": "recipient",
          "type": "address"
        },
        {
          "internalType": "uint256",
          "name": "amount",
          "type": "uint256"
        }
      ],
      "name": "transferFrom",
      "outputs": [
        {
          "internalType": "bool",
          "name": "",
          "type": "bool"
        }
      ],
      "stateMutability": "nonpayable",
      "type": "function"
    },
    {
      "inputs": [
        {
          "internalType": "address",
          "name": "destination",
          "type": "address"
        },
        {
          "internalType": "uint256",
          "name": "amount",
          "type": "uint256"
        }
      ],
      "name": "withdraw",
      "outputs": [],
      "stateMutability": "nonpayable",
      "type": "function"
    }
  ],
  "bytecode": "0x60806040523480156200001157600080fd5b506040516200636a3803806200636a833981810160405260408110156200003757600080fd5b8101908080519060200190929190805190602001909291905050508160cc60006101000a81548173ffffffffffffffffffffffffffffffffffffffff021916908373ffffffffffffffffffffffffffffffffffffffff1602179055508060cd60006101000a81548173ffffffffffffffffffffffffffffffffffffffff021916908373ffffffffffffffffffffffffffffffffffffffff160217905550620001576040518060400160405280600f81526020017f54657374437573746f6d546f6b656e00000000000000000000000000000000008152506040518060400160405280600481526020017f434152420000000000000000000000000000000000000000000000000000000081525060126200015f60201b62000cf61760201c565b505062000b17565b600060019054906101000a900460ff168062000187575062000186620002a360201b60201c565b5b806200019f57506000809054906101000a900460ff16155b620001f6576040517f08c379a000000000000000000000000000000000000000000000000000000000815260040180806020018281038252602e8152602001806200633c602e913960400191505060405180910390fd5b60008060019054906101000a900460ff16159050801562000247576001600060016101000a81548160ff02191690831515021790555060016000806101000a81548160ff0219169083151502179055505b6200025884620002c160201b60201c565b6200026a84846200043760201b60201c565b6200027b826200056860201b60201c565b80156200029d5760008060016101000a81548160ff0219169083151502179055505b50505050565b6000620002bb306200058660201b620035771760201c565b15905090565b600060019054906101000a900460ff1680620002e95750620002e8620002a360201b60201c565b5b806200030157506000809054906101000a900460ff16155b62000358576040517f08c379a000000000000000000000000000000000000000000000000000000000815260040180806020018281038252602e8152602001806200633c602e913960400191505060405180910390fd5b60008060019054906101000a900460ff161590508015620003a9576001600060016101000a81548160ff02191690831515021790555060016000806101000a81548160ff0219169083151502179055505b620003b96200059960201b60201c565b62000400826040518060400160405280600181526020017f3100000000000000000000000000000000000000000000000000000000000000815250620006a660201b60201c565b6200041182620007dd60201b60201c565b8015620004335760008060016101000a81548160ff0219169083151502179055505b5050565b600060019054906101000a900460ff16806200045f57506200045e620002a360201b60201c565b5b806200047757506000809054906101000a900460ff16155b620004ce576040517f08c379a000000000000000000000000000000000000000000000000000000000815260040180806020018281038252602e8152602001806200633c602e913960400191505060405180910390fd5b60008060019054906101000a900460ff1615905080156200051f576001600060016101000a81548160ff02191690831515021790555060016000806101000a81548160ff0219169083151502179055505b6200052f6200059960201b60201c565b6200054183836200090b60201b60201c565b8015620005635760008060016101000a81548160ff0219169083151502179055505b505050565b80603860006101000a81548160ff021916908360ff16021790555050565b600080823b905060008111915050919050565b600060019054906101000a900460ff1680620005c15750620005c0620002a360201b60201c565b5b80620005d957506000809054906101000a900460ff16155b62000630576040517f08c379a000000000000000000000000000000000000000000000000000000000815260040180806020018281038252602e8152602001806200633c602e913960400191505060405180910390fd5b60008060019054906101000a900460ff16159050801562000681576001600060016101000a81548160ff02191690831515021790555060016000806101000a81548160ff0219169083151502179055505b8015620006a35760008060016101000a81548160ff0219169083151502179055505b50565b600060019054906101000a900460ff1680620006ce5750620006cd620002a360201b60201c565b5b80620006e657506000809054906101000a900460ff16155b6200073d576040517f08c379a000000000000000000000000000000000000000000000000000000000815260040180806020018281038252602e8152602001806200633c602e913960400191505060405180910390fd5b60008060019054906101000a900460ff1615905080156200078e576001600060016101000a81548160ff02191690831515021790555060016000806101000a81548160ff0219169083151502179055505b600083805190602001209050600083805190602001209050816065819055508060668190555050508015620007d85760008060016101000a81548160ff0219169083151502179055505b505050565b600060019054906101000a900460ff168062000805575062000804620002a360201b60201c565b5b806200081d57506000809054906101000a900460ff16155b62000874576040517f08c379a000000000000000000000000000000000000000000000000000000000815260040180806020018281038252602e8152602001806200633c602e913960400191505060405180910390fd5b60008060019054906101000a900460ff161590508015620008c5576001600060016101000a81548160ff02191690831515021790555060016000806101000a81548160ff0219169083151502179055505b6040518080620062ea6052913960520190506040518091039020609a819055508015620009075760008060016101000a81548160ff0219169083151502179055505b5050565b600060019054906101000a900460ff168062000933575062000932620002a360201b60201c565b5b806200094b57506000809054906101000a900460ff16155b620009a2576040517f08c379a000000000000000000000000000000000000000000000000000000000815260040180806020018281038252602e8152602001806200633c602e913960400191505060405180910390fd5b60008060019054906101000a900460ff161590508015620009f3576001600060016101000a81548160ff02191690831515021790555060016000806101000a81548160ff0219169083151502179055505b826036908051906020019062000a0b92919062000a68565b50816037908051906020019062000a2492919062000a68565b506012603860006101000a81548160ff021916908360ff160217905550801562000a635760008060016101000a81548160ff0219169083151502179055505b505050565b828054600181600116156101000203166002900490600052602060002090601f016020900481019282601f1062000aab57805160ff191683800117855562000adc565b8280016001018555821562000adc579182015b8281111562000adb57825182559160200191906001019062000abe565b5b50905062000aeb919062000aef565b5090565b62000b1491905b8082111562000b1057600081600090555060010162000af6565b5090565b90565b6157c38062000b276000396000f3fe608060405234801561001057600080fd5b50600436106101585760003560e01c8063899e7677116100c3578063c2eeeebd1161007c578063c2eeeebd14610950578063d505accf1461099a578063dd62ed3e14610a33578063e78cea9214610aab578063ecf1ba5d14610af5578063f3fef3a314610be857610158565b8063899e7677146106ec5780638c2a993e146107a957806395d89b41146107f7578063a457c2d71461087a578063a708acce146108e0578063a9059cbb146108ea57610158565b80633644e515116101155780633644e5151461046d578063395093511461048b5780634000aea0146104f157806370a08231146105ee57806374f4f547146106465780637ecebe001461069457610158565b806306fdde031461015d578063095ea7b3146101e05780631624f6c61461024657806318160ddd146103a557806323b872dd146103c3578063313ce56714610449575b600080fd5b610165610c36565b6040518080602001828103825283818151815260200191508051906020019080838360005b838110156101a557808201518184015260208101905061018a565b50505050905090810190601f1680156101d25780820380516001836020036101000a031916815260200191505b509250505060405180910390f35b61022c600480360360408110156101f657600080fd5b81019080803573ffffffffffffffffffffffffffffffffffffffff16906020019092919080359060200190929190505050610cd8565b604051808215151515815260200191505060405180910390f35b6103a36004803603606081101561025c57600080fd5b810190808035906020019064010000000081111561027957600080fd5b82018360208201111561028b57600080fd5b803590602001918460018302840111640100000000831117156102ad57600080fd5b91908080601f016020809104026020016040519081016040528093929190818152602001838380828437600081840152601f19601f8201169050808301925050505050505091929192908035906020019064010000000081111561031057600080fd5b82018360208201111561032257600080fd5b8035906020019184600183028401116401000000008311171561034457600080fd5b91908080601f016020809104026020016040519081016040528093929190818152602001838380828437600081840152601f19601f820116905080830192505050505050509192919290803560ff169060200190929190505050610cf6565b005b6103ad610e14565b6040518082815260200191505060405180910390f35b61042f600480360360608110156103d957600080fd5b81019080803573ffffffffffffffffffffffffffffffffffffffff169060200190929190803573ffffffffffffffffffffffffffffffffffffffff16906020019092919080359060200190929190505050610e1e565b604051808215151515815260200191505060405180910390f35b610451610ef7565b604051808260ff1660ff16815260200191505060405180910390f35b610475610f0e565b6040518082815260200191505060405180910390f35b6104d7600480360360408110156104a157600080fd5b81019080803573ffffffffffffffffffffffffffffffffffffffff16906020019092919080359060200190929190505050610f1d565b604051808215151515815260200191505060405180910390f35b6105d46004803603606081101561050757600080fd5b81019080803573ffffffffffffffffffffffffffffffffffffffff169060200190929190803590602001909291908035906020019064010000000081111561054e57600080fd5b82018360208201111561056057600080fd5b8035906020019184600183028401116401000000008311171561058257600080fd5b91908080601f016020809104026020016040519081016040528093929190818152602001838380828437600081840152601f19601f820116905080830192505050505050509192919290505050610fd0565b604051808215151515815260200191505060405180910390f35b6106306004803603602081101561060457600080fd5b81019080803573ffffffffffffffffffffffffffffffffffffffff1690602001909291905050506110d4565b6040518082815260200191505060405180910390f35b6106926004803603604081101561065c57600080fd5b81019080803573ffffffffffffffffffffffffffffffffffffffff1690602001909291908035906020019092919050505061111d565b005b6106d6600480360360208110156106aa57600080fd5b81019080803573ffffffffffffffffffffffffffffffffffffffff169060200190929190505050611622565b6040518082815260200191505060405180910390f35b61072e6004803603602081101561070257600080fd5b81019080803573ffffffffffffffffffffffffffffffffffffffff169060200190929190505050611672565b6040518080602001828103825283818151815260200191508051906020019080838360005b8381101561076e578082015181840152602081019050610753565b50505050905090810190601f16801561079b5780820380516001836020036101000a031916815260200191505b509250505060405180910390f35b6107f5600480360360408110156107bf57600080fd5b81019080803573ffffffffffffffffffffffffffffffffffffffff16906020019092919080359060200190929190505050611753565b005b6107ff611b8a565b6040518080602001828103825283818151815260200191508051906020019080838360005b8381101561083f578082015181840152602081019050610824565b50505050905090810190601f16801561086c5780820380516001836020036101000a031916815260200191505b509250505060405180910390f35b6108c66004803603604081101561089057600080fd5b81019080803573ffffffffffffffffffffffffffffffffffffffff16906020019092919080359060200190929190505050611c2c565b604051808215151515815260200191505060405180910390f35b6108e8611cf9565b005b6109366004803603604081101561090057600080fd5b81019080803573ffffffffffffffffffffffffffffffffffffffff16906020019092919080359060200190929190505050611cfb565b604051808215151515815260200191505060405180910390f35b6109586126a9565b604051808273ffffffffffffffffffffffffffffffffffffffff1673ffffffffffffffffffffffffffffffffffffffff16815260200191505060405180910390f35b610a31600480360360e08110156109b057600080fd5b81019080803573ffffffffffffffffffffffffffffffffffffffff169060200190929190803573ffffffffffffffffffffffffffffffffffffffff1690602001909291908035906020019092919080359060200190929190803560ff16906020019092919080359060200190929190803590602001909291905050506126cf565b005b610a9560048036036040811015610a4957600080fd5b81019080803573ffffffffffffffffffffffffffffffffffffffff169060200190929190803573ffffffffffffffffffffffffffffffffffffffff169060200190929190505050612954565b6040518082815260200191505060405180910390f35b610ab36129db565b604051808273ffffffffffffffffffffffffffffffffffffffff1673ffffffffffffffffffffffffffffffffffffffff16815260200191505060405180910390f35b610bce60048036036040811015610b0b57600080fd5b81019080803573ffffffffffffffffffffffffffffffffffffffff16906020019092919080359060200190640100000000811115610b4857600080fd5b820183602082011115610b5a57600080fd5b80359060200191846001830284011164010000000083111715610b7c57600080fd5b91908080601f016020809104026020016040519081016040528093929190818152602001838380828437600081840152601f19601f820116905080830192505050505050509192919290505050612a01565b604051808215151515815260200191505060405180910390f35b610c3460048036036040811015610bfe57600080fd5b81019080803573ffffffffffffffffffffffffffffffffffffffff16906020019092919080359060200190929190505050613404565b005b606060368054600181600116156101000203166002900480601f016020809104026020016040519081016040528092919081815260200182805460018160011615610100020316600290048015610cce5780601f10610ca357610100808354040283529160200191610cce565b820191906000526020600020905b815481529060010190602001808311610cb157829003601f168201915b5050505050905090565b6000610cec610ce561358a565b8484613592565b6001905092915050565b600060019054906101000a900460ff1680610d155750610d14613789565b5b80610d2c57506000809054906101000a900460ff16155b610d81576040517f08c379a000000000000000000000000000000000000000000000000000000000815260040180806020018281038252602e815260200180615635602e913960400191505060405180910390fd5b60008060019054906101000a900460ff161590508015610dd1576001600060016101000a81548160ff02191690831515021790555060016000806101000a81548160ff0219169083151502179055505b610dda8461379a565b610de484846138ea565b610ded826139fd565b8015610e0e5760008060016101000a81548160ff0219169083151502179055505b50505050565b6000603554905090565b6000610e2b848484613a1b565b610eec84610e3761358a565b610ee7856040518060600160405280602881526020016156d760289139603460008b73ffffffffffffffffffffffffffffffffffffffff1673ffffffffffffffffffffffffffffffffffffffff1681526020019081526020016000206000610e9d61358a565b73ffffffffffffffffffffffffffffffffffffffff1673ffffffffffffffffffffffffffffffffffffffff16815260200190815260200160002054613ce09092919063ffffffff16565b613592565b600190509392505050565b6000603860009054906101000a900460ff16905090565b6000610f18613d9a565b905090565b6000610fc6610f2a61358a565b84610fc18560346000610f3b61358a565b73ffffffffffffffffffffffffffffffffffffffff1673ffffffffffffffffffffffffffffffffffffffff16815260200190815260200160002060008973ffffffffffffffffffffffffffffffffffffffff1673ffffffffffffffffffffffffffffffffffffffff16815260200190815260200160002054613dd290919063ffffffff16565b613592565b6001905092915050565b6000610fdc8484613e5a565b508373ffffffffffffffffffffffffffffffffffffffff163373ffffffffffffffffffffffffffffffffffffffff167fe19260aff97b920c7df27010903aeb9c8d2be5d310a2c67824cf3f15396e4c1685856040518083815260200180602001828103825283818151815260200191508051906020019080838360005b83811015611074578082015181840152602081019050611059565b50505050905090810190601f1680156110a15780820380516001836020036101000a031916815260200191505b50935050505060405180910390a36110b884613e78565b156110c9576110c8848484613e8b565b5b600190509392505050565b6000603360008373ffffffffffffffffffffffffffffffffffffffff1673ffffffffffffffffffffffffffffffffffffffff168152602001908152602001600020549050919050565b60cc60009054906101000a900473ffffffffffffffffffffffffffffffffffffffff1673ffffffffffffffffffffffffffffffffffffffff163373ffffffffffffffffffffffffffffffffffffffff16146111e0576040517f08c379a000000000000000000000000000000000000000000000000000000000815260040180806020018281038252600b8152602001807f4f4e4c595f42524944474500000000000000000000000000000000000000000081525060200191505060405180910390fd5b6111ea8282613fa2565b6060600467ffffffffffffffff8111801561120457600080fd5b5060405190808252806020026020018201604052801561123857816020015b60608152602001906001900390816112235790505b509050606060ce60008573ffffffffffffffffffffffffffffffffffffffff1673ffffffffffffffffffffffffffffffffffffffff1681526020019081526020016000208054600181600116156101000203166002900480601f0160208091040260200160405190810160405280929190818152602001828054600181600116156101000203166002900480156113105780601f106112e557610100808354040283529160200191611310565b820191906000526020600020905b8154815290600101906020018083116112f357829003601f168201915b505050505090506113556040518060400160405280601081526020017f7375625f6369706865725f706c61696e00000000000000000000000000000000815250614168565b8260008151811061136257fe5b60200260200101819052506113768161417a565b8260018151811061138357fe5b602002602001018190525061139f61139a846141da565b614168565b826002815181106113ac57fe5b60200260200101819052506113cf60405180602001604052806000815250614168565b826003815181106113dc57fe5b602002602001018190525060606113f28361431e565b90506060606473ffffffffffffffffffffffffffffffffffffffff1663355f7e37836040518263ffffffff1660e01b81526004018080602001828103825283818151815260200191508051906020019080838360005b83811015611463578082015181840152602081019050611448565b50505050905090810190601f1680156114905780820380516001836020036101000a031916815260200191505b509250505060006040518083038186803b1580156114ad57600080fd5b505afa1580156114c1573d6000803e3d6000fd5b505050506040513d6000823e3d601f19601f8201168201806040525060208110156114eb57600080fd5b810190808051604051939291908464010000000082111561150b57600080fd5b8382019150602082018581111561152157600080fd5b825186600182028301116401000000008211171561153e57600080fd5b8083526020830192505050908051906020019080838360005b83811015611572578082015181840152602081019050611557565b50505050905090810190601f16801561159f5780820380516001836020036101000a031916815260200191505b50604052505050905060606115bb6115b683614349565b614377565b90506115c681614408565b60ce60008973ffffffffffffffffffffffffffffffffffffffff1673ffffffffffffffffffffffffffffffffffffffff16815260200190815260200160002090805190602001906116189291906153f4565b5050505050505050565b600061166b609960008473ffffffffffffffffffffffffffffffffffffffff1673ffffffffffffffffffffffffffffffffffffffff16815260200190815260200160002061448e565b9050919050565b606060ce60008373ffffffffffffffffffffffffffffffffffffffff1673ffffffffffffffffffffffffffffffffffffffff1681526020019081526020016000208054600181600116156101000203166002900480601f0160208091040260200160405190810160405280929190818152602001828054600181600116156101000203166002900480156117475780601f1061171c57610100808354040283529160200191611747565b820191906000526020600020905b81548152906001019060200180831161172a57829003601f168201915b50505050509050919050565b60cc60009054906101000a900473ffffffffffffffffffffffffffffffffffffffff1673ffffffffffffffffffffffffffffffffffffffff163373ffffffffffffffffffffffffffffffffffffffff1614611816576040517f08c379a000000000000000000000000000000000000000000000000000000000815260040180806020018281038252600b8152602001807f4f4e4c595f42524944474500000000000000000000000000000000000000000081525060200191505060405180910390fd5b611820828261449c565b6060600467ffffffffffffffff8111801561183a57600080fd5b5060405190808252806020026020018201604052801561186e57816020015b60608152602001906001900390816118595790505b5090506118af6040518060400160405280600781526020017f656e637279707400000000000000000000000000000000000000000000000000815250614168565b816000815181106118bc57fe5b60200260200101819052506118d86118d3836141da565b614168565b816001815181106118e557fe5b602002602001018190525061190860405180602001604052806000815250614168565b8160028151811061191557fe5b602002602001018190525061193860405180602001604052806000815250614168565b8160038151811061194557fe5b6020026020010181905250606061195b8261431e565b90506060606473ffffffffffffffffffffffffffffffffffffffff1663355f7e37836040518263ffffffff1660e01b81526004018080602001828103825283818151815260200191508051906020019080838360005b838110156119cc5780820151818401526020810190506119b1565b50505050905090810190601f1680156119f95780820380516001836020036101000a031916815260200191505b509250505060006040518083038186803b158015611a1657600080fd5b505afa158015611a2a573d6000803e3d6000fd5b505050506040513d6000823e3d601f19601f820116820180604052506020811015611a5457600080fd5b8101908080516040519392919084640100000000821115611a7457600080fd5b83820191506020820185811115611a8a57600080fd5b8251866001820283011164010000000082111715611aa757600080fd5b8083526020830192505050908051906020019080838360005b83811015611adb578082015181840152602081019050611ac0565b50505050905090810190601f168015611b085780820380516001836020036101000a031916815260200191505b5060405250505090506060611b24611b1f83614349565b614377565b9050611b2f81614408565b60ce60008873ffffffffffffffffffffffffffffffffffffffff1673ffffffffffffffffffffffffffffffffffffffff1681526020019081526020016000209080519060200190611b819291906153f4565b50505050505050565b606060378054600181600116156101000203166002900480601f016020809104026020016040519081016040528092919081815260200182805460018160011615610100020316600290048015611c225780601f10611bf757610100808354040283529160200191611c22565b820191906000526020600020905b815481529060010190602001808311611c0557829003601f168201915b5050505050905090565b6000611cef611c3961358a565b84611cea856040518060600160405280602581526020016157696025913960346000611c6361358a565b73ffffffffffffffffffffffffffffffffffffffff1673ffffffffffffffffffffffffffffffffffffffff16815260200190815260200160002060008a73ffffffffffffffffffffffffffffffffffffffff1673ffffffffffffffffffffffffffffffffffffffff16815260200190815260200160002054613ce09092919063ffffffff16565b613592565b6001905092915050565b565b60008073ffffffffffffffffffffffffffffffffffffffff16611d1c61358a565b73ffffffffffffffffffffffffffffffffffffffff161415611d89576040517f08c379a00000000000000000000000000000000000000000000000000000000081526004018080602001828103825260258152602001806157206025913960400191505060405180910390fd5b600073ffffffffffffffffffffffffffffffffffffffff168373ffffffffffffffffffffffffffffffffffffffff161415611e0f576040517f08c379a00000000000000000000000000000000000000000000000000000000081526004018080602001828103825260238152602001806155346023913960400191505060405180910390fd5b6060600467ffffffffffffffff81118015611e2957600080fd5b50604051908082528060200260200182016040528015611e5d57816020015b6060815260200190600190039081611e485790505b509050606060ce6000611e6e61358a565b73ffffffffffffffffffffffffffffffffffffffff1673ffffffffffffffffffffffffffffffffffffffff1681526020019081526020016000208054600181600116156101000203166002900480601f016020809104026020016040519081016040528092919081815260200182805460018160011615610100020316600290048015611f3c5780601f10611f1157610100808354040283529160200191611f3c565b820191906000526020600020905b815481529060010190602001808311611f1f57829003601f168201915b50505050509050611f816040518060400160405280601081526020017f7375625f6369706865725f706c61696e00000000000000000000000000000000815250614168565b82600081518110611f8e57fe5b6020026020010181905250611fa28161417a565b82600181518110611faf57fe5b6020026020010181905250611fcb611fc6856141da565b614168565b82600281518110611fd857fe5b6020026020010181905250611ffb60405180602001604052806000815250614168565b8260038151811061200857fe5b6020026020010181905250606061201e8361431e565b90506060606473ffffffffffffffffffffffffffffffffffffffff1663355f7e37836040518263ffffffff1660e01b81526004018080602001828103825283818151815260200191508051906020019080838360005b8381101561208f578082015181840152602081019050612074565b50505050905090810190601f1680156120bc5780820380516001836020036101000a031916815260200191505b509250505060006040518083038186803b1580156120d957600080fd5b505afa1580156120ed573d6000803e3d6000fd5b505050506040513d6000823e3d601f19601f82011682018060405250602081101561211757600080fd5b810190808051604051939291908464010000000082111561213757600080fd5b8382019150602082018581111561214d57600080fd5b825186600182028301116401000000008211171561216a57600080fd5b8083526020830192505050908051906020019080838360005b8381101561219e578082015181840152602081019050612183565b50505050905090810190601f1680156121cb5780820380516001836020036101000a031916815260200191505b50604052505050905060606121e76121e283614349565b614377565b90506121f281614408565b60ce60006121fe61358a565b73ffffffffffffffffffffffffffffffffffffffff1673ffffffffffffffffffffffffffffffffffffffff168152602001908152602001600020908051906020019061224b9291906153f4565b50606060ce60008a73ffffffffffffffffffffffffffffffffffffffff1673ffffffffffffffffffffffffffffffffffffffff1681526020019081526020016000208054600181600116156101000203166002900480601f0160208091040260200160405190810160405280929190818152602001828054600181600116156101000203166002900480156123215780601f106122f657610100808354040283529160200191612321565b820191906000526020600020905b81548152906001019060200180831161230457829003601f168201915b505050505090506123666040518060400160405280601081526020017f6164645f6369706865725f706c61696e00000000000000000000000000000000815250614168565b8660008151811061237357fe5b60200260200101819052506123878161417a565b8660018151811061239457fe5b60200260200101819052506123b06123ab896141da565b614168565b866002815181106123bd57fe5b60200260200101819052506123e060405180602001604052806000815250614168565b866003815181106123ed57fe5b602002602001018190525060606124038761431e565b90506060606473ffffffffffffffffffffffffffffffffffffffff1663355f7e37836040518263ffffffff1660e01b81526004018080602001828103825283818151815260200191508051906020019080838360005b83811015612474578082015181840152602081019050612459565b50505050905090810190601f1680156124a15780820380516001836020036101000a031916815260200191505b509250505060006040518083038186803b1580156124be57600080fd5b505afa1580156124d2573d6000803e3d6000fd5b505050506040513d6000823e3d601f19601f8201168201806040525060208110156124fc57600080fd5b810190808051604051939291908464010000000082111561251c57600080fd5b8382019150602082018581111561253257600080fd5b825186600182028301116401000000008211171561254f57600080fd5b8083526020830192505050908051906020019080838360005b83811015612583578082015181840152602081019050612568565b50505050905090810190601f1680156125b05780820380516001836020036101000a031916815260200191505b50604052505050905060606125cc6125c783614349565b614377565b90506125d781614408565b60ce60008e73ffffffffffffffffffffffffffffffffffffffff1673ffffffffffffffffffffffffffffffffffffffff16815260200190815260200160002090805190602001906126299291906153f4565b508b73ffffffffffffffffffffffffffffffffffffffff1661264961358a565b73ffffffffffffffffffffffffffffffffffffffff167fddf252ad1be2c89b69c2b068fc378daa952ba7f163c4a11628f55a4df523b3ef8d6040518082815260200191505060405180910390a36001995050505050505050505092915050565b60cd60009054906101000a900473ffffffffffffffffffffffffffffffffffffffff1681565b83421115612745576040517f08c379a000000000000000000000000000000000000000000000000000000000815260040180806020018281038252601d8152602001807f45524332305065726d69743a206578706972656420646561646c696e6500000081525060200191505060405180910390fd5b6000609a54888888612794609960008e73ffffffffffffffffffffffffffffffffffffffff1673ffffffffffffffffffffffffffffffffffffffff16815260200190815260200160002061448e565b89604051602001808781526020018673ffffffffffffffffffffffffffffffffffffffff1673ffffffffffffffffffffffffffffffffffffffff1681526020018573ffffffffffffffffffffffffffffffffffffffff1673ffffffffffffffffffffffffffffffffffffffff1681526020018481526020018381526020018281526020019650505050505050604051602081830303815290604052805190602001209050600061284382614665565b90506000612853828787876146cc565b90508973ffffffffffffffffffffffffffffffffffffffff168173ffffffffffffffffffffffffffffffffffffffff16146128f6576040517f08c379a000000000000000000000000000000000000000000000000000000000815260040180806020018281038252601e8152602001807f45524332305065726d69743a20696e76616c6964207369676e6174757265000081525060200191505060405180910390fd5b61293d609960008c73ffffffffffffffffffffffffffffffffffffffff1673ffffffffffffffffffffffffffffffffffffffff1681526020019081526020016000206148ce565b6129488a8a8a613592565b50505050505050505050565b6000603460008473ffffffffffffffffffffffffffffffffffffffff1673ffffffffffffffffffffffffffffffffffffffff16815260200190815260200160002060008373ffffffffffffffffffffffffffffffffffffffff1673ffffffffffffffffffffffffffffffffffffffff16815260200190815260200160002054905092915050565b60cc60009054906101000a900473ffffffffffffffffffffffffffffffffffffffff1681565b60008073ffffffffffffffffffffffffffffffffffffffff16612a2261358a565b73ffffffffffffffffffffffffffffffffffffffff161415612a8f576040517f08c379a00000000000000000000000000000000000000000000000000000000081526004018080602001828103825260258152602001806157206025913960400191505060405180910390fd5b600073ffffffffffffffffffffffffffffffffffffffff168373ffffffffffffffffffffffffffffffffffffffff161415612b15576040517f08c379a00000000000000000000000000000000000000000000000000000000081526004018080602001828103825260238152602001806155346023913960400191505060405180910390fd5b6060600467ffffffffffffffff81118015612b2f57600080fd5b50604051908082528060200260200182016040528015612b6357816020015b6060815260200190600190039081612b4e5790505b509050606060ce6000612b7461358a565b73ffffffffffffffffffffffffffffffffffffffff1673ffffffffffffffffffffffffffffffffffffffff1681526020019081526020016000208054600181600116156101000203166002900480601f016020809104026020016040519081016040528092919081815260200182805460018160011615610100020316600290048015612c425780601f10612c1757610100808354040283529160200191612c42565b820191906000526020600020905b815481529060010190602001808311612c2557829003601f168201915b50505050509050612c876040518060400160405280601181526020017f7375625f6369706865725f636970686572000000000000000000000000000000815250614168565b82600081518110612c9457fe5b6020026020010181905250612ca88161417a565b82600181518110612cb557fe5b6020026020010181905250612cc98461417a565b82600281518110612cd657fe5b6020026020010181905250612cf960405180602001604052806000815250614168565b82600381518110612d0657fe5b60200260200101819052506060612d1c8361431e565b90506060606473ffffffffffffffffffffffffffffffffffffffff1663355f7e37836040518263ffffffff1660e01b81526004018080602001828103825283818151815260200191508051906020019080838360005b83811015612d8d578082015181840152602081019050612d72565b50505050905090810190601f168015612dba5780820380516001836020036101000a031916815260200191505b509250505060006040518083038186803b158015612dd757600080fd5b505afa158015612deb573d6000803e3d6000fd5b505050506040513d6000823e3d601f19601f820116820180604052506020811015612e1557600080fd5b8101908080516040519392919084640100000000821115612e3557600080fd5b83820191506020820185811115612e4b57600080fd5b8251866001820283011164010000000082111715612e6857600080fd5b8083526020830192505050908051906020019080838360005b83811015612e9c578082015181840152602081019050612e81565b50505050905090810190601f168015612ec95780820380516001836020036101000a031916815260200191505b5060405250505090506060612ee5612ee083614349565b614377565b9050612ef081614408565b60ce6000612efc61358a565b73ffffffffffffffffffffffffffffffffffffffff1673ffffffffffffffffffffffffffffffffffffffff1681526020019081526020016000209080519060200190612f499291906153f4565b50606060ce60008a73ffffffffffffffffffffffffffffffffffffffff1673ffffffffffffffffffffffffffffffffffffffff1681526020019081526020016000208054600181600116156101000203166002900480601f01602080910402602001604051908101604052809291908181526020018280546001816001161561010002031660029004801561301f5780601f10612ff45761010080835404028352916020019161301f565b820191906000526020600020905b81548152906001019060200180831161300257829003601f168201915b505050505090506130646040518060400160405280601181526020017f6164645f6369706865725f636970686572000000000000000000000000000000815250614168565b8660008151811061307157fe5b60200260200101819052506130858161417a565b8660018151811061309257fe5b60200260200101819052506130a68861417a565b866002815181106130b357fe5b60200260200101819052506130d660405180602001604052806000815250614168565b866003815181106130e357fe5b602002602001018190525060606130f98761431e565b90506060606473ffffffffffffffffffffffffffffffffffffffff1663355f7e37836040518263ffffffff1660e01b81526004018080602001828103825283818151815260200191508051906020019080838360005b8381101561316a57808201518184015260208101905061314f565b50505050905090810190601f1680156131975780820380516001836020036101000a031916815260200191505b509250505060006040518083038186803b1580156131b457600080fd5b505afa1580156131c8573d6000803e3d6000fd5b505050506040513d6000823e3d601f19601f8201168201806040525060208110156131f257600080fd5b810190808051604051939291908464010000000082111561321257600080fd5b8382019150602082018581111561322857600080fd5b825186600182028301116401000000008211171561324557600080fd5b8083526020830192505050908051906020019080838360005b8381101561327957808201518184015260208101905061325e565b50505050905090810190601f1680156132a65780820380516001836020036101000a031916815260200191505b50604052505050905060606132c26132bd83614349565b614377565b90506132cd81614408565b60ce60008e73ffffffffffffffffffffffffffffffffffffffff1673ffffffffffffffffffffffffffffffffffffffff168152602001908152602001600020908051906020019061331f9291906153f4565b508b73ffffffffffffffffffffffffffffffffffffffff1661333f61358a565b73ffffffffffffffffffffffffffffffffffffffff167f301643d1cde6cba66545d57ba6dc374ac02479b4fe5f60419fcd6cc35a692fd58d6040518080602001828103825283818151815260200191508051906020019080838360005b838110156133b757808201518184015260208101905061339c565b50505050905090810190601f1680156133e45780820380516001836020036101000a031916815260200191505b509250505060405180910390a36001995050505050505050505092915050565b60cc60009054906101000a900473ffffffffffffffffffffffffffffffffffffffff1673ffffffffffffffffffffffffffffffffffffffff16630b620b8160cd60009054906101000a900473ffffffffffffffffffffffffffffffffffffffff163385856040518563ffffffff1660e01b8152600401808573ffffffffffffffffffffffffffffffffffffffff1673ffffffffffffffffffffffffffffffffffffffff1681526020018473ffffffffffffffffffffffffffffffffffffffff1673ffffffffffffffffffffffffffffffffffffffff1681526020018373ffffffffffffffffffffffffffffffffffffffff1673ffffffffffffffffffffffffffffffffffffffff168152602001828152602001945050505050602060405180830381600087803b15801561353757600080fd5b505af115801561354b573d6000803e3d6000fd5b505050506040513d602081101561356157600080fd5b8101908080519060200190929190505050505050565b600080823b905060008111915050919050565b600033905090565b600073ffffffffffffffffffffffffffffffffffffffff168373ffffffffffffffffffffffffffffffffffffffff161415613618576040517f08c379a00000000000000000000000000000000000000000000000000000000081526004018080602001828103825260248152602001806157456024913960400191505060405180910390fd5b600073ffffffffffffffffffffffffffffffffffffffff168273ffffffffffffffffffffffffffffffffffffffff16141561369e576040517f08c379a00000000000000000000000000000000000000000000000000000000081526004018080602001828103825260228152602001806155796022913960400191505060405180910390fd5b80603460008573ffffffffffffffffffffffffffffffffffffffff1673ffffffffffffffffffffffffffffffffffffffff16815260200190815260200160002060008473ffffffffffffffffffffffffffffffffffffffff1673ffffffffffffffffffffffffffffffffffffffff168152602001908152602001600020819055508173ffffffffffffffffffffffffffffffffffffffff168373ffffffffffffffffffffffffffffffffffffffff167f8c5be1e5ebec7d5bd14f71427d1e84f3dd0314c0f7b2291e5b200ac8c7c3b925836040518082815260200191505060405180910390a3505050565b600061379430613577565b15905090565b600060019054906101000a900460ff16806137b957506137b8613789565b5b806137d057506000809054906101000a900460ff16155b613825576040517f08c379a000000000000000000000000000000000000000000000000000000000815260040180806020018281038252602e815260200180615635602e913960400191505060405180910390fd5b60008060019054906101000a900460ff161590508015613875576001600060016101000a81548160ff02191690831515021790555060016000806101000a81548160ff0219169083151502179055505b61387d6148e4565b6138bc826040518060400160405280600181526020017f31000000000000000000000000000000000000000000000000000000000000008152506149e3565b6138c582614b0c565b80156138e65760008060016101000a81548160ff0219169083151502179055505b5050565b600060019054906101000a900460ff16806139095750613908613789565b5b8061392057506000809054906101000a900460ff16155b613975576040517f08c379a000000000000000000000000000000000000000000000000000000000815260040180806020018281038252602e815260200180615635602e913960400191505060405180910390fd5b60008060019054906101000a900460ff1615905080156139c5576001600060016101000a81548160ff02191690831515021790555060016000806101000a81548160ff0219169083151502179055505b6139cd6148e4565b6139d78383614c2b565b80156139f85760008060016101000a81548160ff0219169083151502179055505b505050565b80603860006101000a81548160ff021916908360ff16021790555050565b600073ffffffffffffffffffffffffffffffffffffffff168373ffffffffffffffffffffffffffffffffffffffff161415613aa1576040517f08c379a00000000000000000000000000000000000000000000000000000000081526004018080602001828103825260258152602001806157206025913960400191505060405180910390fd5b600073ffffffffffffffffffffffffffffffffffffffff168273ffffffffffffffffffffffffffffffffffffffff161415613b27576040517f08c379a00000000000000000000000000000000000000000000000000000000081526004018080602001828103825260238152602001806155346023913960400191505060405180910390fd5b613b32838383614d76565b613b9e8160405180606001604052806026815260200161559b60269139603360008773ffffffffffffffffffffffffffffffffffffffff1673ffffffffffffffffffffffffffffffffffffffff16815260200190815260200160002054613ce09092919063ffffffff16565b603360008573ffffffffffffffffffffffffffffffffffffffff1673ffffffffffffffffffffffffffffffffffffffff16815260200190815260200160002081905550613c3381603360008573ffffffffffffffffffffffffffffffffffffffff1673ffffffffffffffffffffffffffffffffffffffff16815260200190815260200160002054613dd290919063ffffffff16565b603360008473ffffffffffffffffffffffffffffffffffffffff1673ffffffffffffffffffffffffffffffffffffffff168152602001908152602001600020819055508173ffffffffffffffffffffffffffffffffffffffff168373ffffffffffffffffffffffffffffffffffffffff167fddf252ad1be2c89b69c2b068fc378daa952ba7f163c4a11628f55a4df523b3ef836040518082815260200191505060405180910390a3505050565b6000838311158290613d8d576040517f08c379a00000000000000000000000000000000000000000000000000000000081526004018080602001828103825283818151815260200191508051906020019080838360005b83811015613d52578082015181840152602081019050613d37565b50505050905090810190601f168015613d7f5780820380516001836020036101000a031916815260200191505b509250505060405180910390fd5b5082840390509392505050565b6000613dcd60405180806156856052913960520190506040518091039020613dc0614d7b565b613dc8614d85565b614d8f565b905090565b600080828401905083811015613e50576040517f08c379a000000000000000000000000000000000000000000000000000000000815260040180806020018281038252601b8152602001807f536166654d6174683a206164646974696f6e206f766572666c6f77000000000081525060200191505060405180910390fd5b8091505092915050565b6000613e6e613e6761358a565b8484613a1b565b6001905092915050565b600080823b905060008111915050919050565b60008390508073ffffffffffffffffffffffffffffffffffffffff1663a4c0ed363385856040518463ffffffff1660e01b8152600401808473ffffffffffffffffffffffffffffffffffffffff1673ffffffffffffffffffffffffffffffffffffffff16815260200183815260200180602001828103825283818151815260200191508051906020019080838360005b83811015613f36578082015181840152602081019050613f1b565b50505050905090810190601f168015613f635780820380516001836020036101000a031916815260200191505b50945050505050600060405180830381600087803b158015613f8457600080fd5b505af1158015613f98573d6000803e3d6000fd5b5050505050505050565b600073ffffffffffffffffffffffffffffffffffffffff168273ffffffffffffffffffffffffffffffffffffffff161415614028576040517f08c379a00000000000000000000000000000000000000000000000000000000081526004018080602001828103825260218152602001806156ff6021913960400191505060405180910390fd5b61403482600083614d76565b6140a08160405180606001604052806022815260200161555760229139603360008673ffffffffffffffffffffffffffffffffffffffff1673ffffffffffffffffffffffffffffffffffffffff16815260200190815260200160002054613ce09092919063ffffffff16565b603360008473ffffffffffffffffffffffffffffffffffffffff1673ffffffffffffffffffffffffffffffffffffffff168152602001908152602001600020819055506140f881603554614e1490919063ffffffff16565b603581905550600073ffffffffffffffffffffffffffffffffffffffff168273ffffffffffffffffffffffffffffffffffffffff167fddf252ad1be2c89b69c2b068fc378daa952ba7f163c4a11628f55a4df523b3ef836040518082815260200191505060405180910390a35050565b60606141738261417a565b9050919050565b606080600183511480156141ac575060808360008151811061419857fe5b602001015160f81c60f81b60f81c60ff1611155b156141b9578290506141d1565b6141ce6141c884516080614e97565b84615079565b90505b80915050919050565b60606000821415614222576040518060400160405280600181526020017f30000000000000000000000000000000000000000000000000000000000000008152509050614319565b600082905060005b6000821461424c578080600101915050600a828161424457fe5b04915061422a565b60608167ffffffffffffffff8111801561426557600080fd5b506040519080825280601f01601f1916602001820160405280156142985781602001600182028036833780820191505090505b50905060008290508593505b6000841461431157600a84816142b657fe5b0660300160f81b828260019003925082815181106142d057fe5b60200101907effffffffffffffffffffffffffffffffffffffffffffffffffffffffffffff1916908160001a905350600a848161430957fe5b0493506142a4565b819450505050505b919050565b60608061432a83615103565b905061434161433b825160c0614e97565b82615079565b915050919050565b614351615474565b600060208301905060405180604001604052808451815260200182815250915050919050565b6060600082600001511161438a57600080fd5b6000806143968461525f565b9150915060608167ffffffffffffffff811180156143b357600080fd5b506040519080825280601f01601f1916602001820160405280156143e65781602001600182028036833780820191505090505b50905060008160200190506143fc848285615297565b81945050505050919050565b606080825167ffffffffffffffff8111801561442357600080fd5b506040519080825280601f01601f1916602001820160405280156144565781602001600182028036833780820191505090505b5090506000601f84510190506000602090505b818111614483578085015181840152602081019050614469565b508192505050919050565b600081600001549050919050565b600073ffffffffffffffffffffffffffffffffffffffff168273ffffffffffffffffffffffffffffffffffffffff16141561453f576040517f08c379a000000000000000000000000000000000000000000000000000000000815260040180806020018281038252601f8152602001807f45524332303a206d696e7420746f20746865207a65726f20616464726573730081525060200191505060405180910390fd5b61454b60008383614d76565b61456081603554613dd290919063ffffffff16565b6035819055506145b881603360008573ffffffffffffffffffffffffffffffffffffffff1673ffffffffffffffffffffffffffffffffffffffff16815260200190815260200160002054613dd290919063ffffffff16565b603360008473ffffffffffffffffffffffffffffffffffffffff1673ffffffffffffffffffffffffffffffffffffffff168152602001908152602001600020819055508173ffffffffffffffffffffffffffffffffffffffff16600073ffffffffffffffffffffffffffffffffffffffff167fddf252ad1be2c89b69c2b068fc378daa952ba7f163c4a11628f55a4df523b3ef836040518082815260200191505060405180910390a35050565b600061466f613d9a565b8260405160200180807f190100000000000000000000000000000000000000000000000000000000000081525060020183815260200182815260200192505050604051602081830303815290604052805190602001209050919050565b60007f7fffffffffffffffffffffffffffffff5d576e7357a4501ddfe92f46681b20a08260001c111561474a576040517f08c379a00000000000000000000000000000000000000000000000000000000081526004018080602001828103825260228152602001806155c16022913960400191505060405180910390fd5b601b8460ff16148061475f5750601c8460ff16145b6147b4576040517f08c379a00000000000000000000000000000000000000000000000000000000081526004018080602001828103825260228152602001806156636022913960400191505060405180910390fd5b600060018686868660405160008152602001604052604051808581526020018460ff1660ff1681526020018381526020018281526020019450505050506020604051602081039080840390855afa158015614813573d6000803e3d6000fd5b505050602060405103519050600073ffffffffffffffffffffffffffffffffffffffff168173ffffffffffffffffffffffffffffffffffffffff1614156148c2576040517f08c379a00000000000000000000000000000000000000000000000000000000081526004018080602001828103825260188152602001807f45434453413a20696e76616c6964207369676e6174757265000000000000000081525060200191505060405180910390fd5b80915050949350505050565b6001816000016000828254019250508190555050565b600060019054906101000a900460ff16806149035750614902613789565b5b8061491a57506000809054906101000a900460ff16155b61496f576040517f08c379a000000000000000000000000000000000000000000000000000000000815260040180806020018281038252602e815260200180615635602e913960400191505060405180910390fd5b60008060019054906101000a900460ff1615905080156149bf576001600060016101000a81548160ff02191690831515021790555060016000806101000a81548160ff0219169083151502179055505b80156149e05760008060016101000a81548160ff0219169083151502179055505b50565b600060019054906101000a900460ff1680614a025750614a01613789565b5b80614a1957506000809054906101000a900460ff16155b614a6e576040517f08c379a000000000000000000000000000000000000000000000000000000000815260040180806020018281038252602e815260200180615635602e913960400191505060405180910390fd5b60008060019054906101000a900460ff161590508015614abe576001600060016101000a81548160ff02191690831515021790555060016000806101000a81548160ff0219169083151502179055505b600083805190602001209050600083805190602001209050816065819055508060668190555050508015614b075760008060016101000a81548160ff0219169083151502179055505b505050565b600060019054906101000a900460ff1680614b2b5750614b2a613789565b5b80614b4257506000809054906101000a900460ff16155b614b97576040517f08c379a000000000000000000000000000000000000000000000000000000000815260040180806020018281038252602e815260200180615635602e913960400191505060405180910390fd5b60008060019054906101000a900460ff161590508015614be7576001600060016101000a81548160ff02191690831515021790555060016000806101000a81548160ff0219169083151502179055505b60405180806155e36052913960520190506040518091039020609a819055508015614c275760008060016101000a81548160ff0219169083151502179055505b5050565b600060019054906101000a900460ff1680614c4a5750614c49613789565b5b80614c6157506000809054906101000a900460ff16155b614cb6576040517f08c379a000000000000000000000000000000000000000000000000000000000815260040180806020018281038252602e815260200180615635602e913960400191505060405180910390fd5b60008060019054906101000a900460ff161590508015614d06576001600060016101000a81548160ff02191690831515021790555060016000806101000a81548160ff0219169083151502179055505b8260369080519060200190614d1c92919061548e565b508160379080519060200190614d3392919061548e565b506012603860006101000a81548160ff021916908360ff1602179055508015614d715760008060016101000a81548160ff0219169083151502179055505b505050565b505050565b6000606554905090565b6000606654905090565b6000838383614d9c615308565b30604051602001808681526020018581526020018481526020018381526020018273ffffffffffffffffffffffffffffffffffffffff1673ffffffffffffffffffffffffffffffffffffffff168152602001955050505050506040516020818303038152906040528051906020012090509392505050565b600082821115614e8c576040517f08c379a000000000000000000000000000000000000000000000000000000000815260040180806020018281038252601e8152602001807f536166654d6174683a207375627472616374696f6e206f766572666c6f77000081525060200191505060405180910390fd5b818303905092915050565b6060806038841015614f3857600167ffffffffffffffff81118015614ebb57600080fd5b506040519080825280601f01601f191660200182016040528015614eee5781602001600182028036833780820191505090505b50905082840160f81b81600081518110614f0457fe5b60200101907effffffffffffffffffffffffffffffffffffffffffffffffffffffffffffff1916908160001a90535061506f565b600080600190505b6000818781614f4b57fe5b0414614f6557818060010192505061010081029050614f40565b6001820167ffffffffffffffff81118015614f7f57600080fd5b506040519080825280601f01601f191660200182016040528015614fb25781602001600182028036833780820191505090505b50925060378583010160f81b83600081518110614fcb57fe5b60200101907effffffffffffffffffffffffffffffffffffffffffffffffffffffffffffff1916908160001a905350600190505b81811161506c576101008183036101000a878161501857fe5b048161502057fe5b0660f81b83828151811061503057fe5b60200101907effffffffffffffffffffffffffffffffffffffffffffffffffffffffffffff1916908160001a9053508080600101915050614fff565b50505b8091505092915050565b6060806040519050835180825260208201818101602087015b818310156150af5780518352602083019250602081019050615092565b50855192508351830184528091508282019050602086015b818310156150e457805183526020830192506020810190506150c7565b50601f19601f8851850115830101166040525050508091505092915050565b606060008251141561516257600067ffffffffffffffff8111801561512757600080fd5b506040519080825280601f01601f19166020018201604052801561515a5781602001600182028036833780820191505090505b50905061525a565b600080600090505b83518110156151995783818151811061517f57fe5b60200260200101515182019150808060010191505061516a565b60608267ffffffffffffffff811180156151b257600080fd5b506040519080825280601f01601f1916602001820160405280156151e55781602001600182028036833780820191505090505b5090506000602082019050600092505b855183101561525257606086848151811061520c57fe5b60200260200101519050600060208201905061522a83828451615310565b87858151811061523657fe5b60200260200101515183019250505082806001019350506151f5565b819450505050505b919050565b6000806000615271846020015161536b565b905060008185602001510190506000828660000151039050818194509450505050915091565b60008114156152a557615303565b5b602060ff1681106152d55782518252602060ff1683019250602060ff1682019150602060ff16810390506152a6565b6000811115615302576000600182602060ff16036101000a03905080198451168184511681811785525050505b5b505050565b600046905090565b6000839050600083905060008390505b602081106153435781518352602083019250602082019150602081039050615320565b60006001826020036101000a0390508019835116818551168181178652505050505050505050565b600080825160001a9050608060ff1681101561538b5760009150506153ef565b60b860ff168110806153b0575060c060ff1681101580156153af575060f860ff1681105b5b156153bf5760019150506153ef565b60c060ff168110156153df5760018060b80360ff168203019150506153ef565b60018060f80360ff168203019150505b919050565b828054600181600116156101000203166002900490600052602060002090601f016020900481019282601f1061543557805160ff1916838001178555615463565b82800160010185558215615463579182015b82811115615462578251825591602001919060010190615447565b5b509050615470919061550e565b5090565b604051806040016040528060008152602001600081525090565b828054600181600116156101000203166002900490600052602060002090601f016020900481019282601f106154cf57805160ff19168380011785556154fd565b828001600101855582156154fd579182015b828111156154fc5782518255916020019190600101906154e1565b5b50905061550a919061550e565b5090565b61553091905b8082111561552c576000816000905550600101615514565b5090565b9056fe45524332303a207472616e7366657220746f20746865207a65726f206164647265737345524332303a206275726e20616d6f756e7420657863656564732062616c616e636545524332303a20617070726f766520746f20746865207a65726f206164647265737345524332303a207472616e7366657220616d6f756e7420657863656564732062616c616e636545434453413a20696e76616c6964207369676e6174757265202773272076616c75655065726d69742861646472657373206f776e65722c61646472657373207370656e6465722c75696e743235362076616c75652c75696e74323536206e6f6e63652c75696e7432353620646561646c696e6529496e697469616c697a61626c653a20636f6e747261637420697320616c726561647920696e697469616c697a656445434453413a20696e76616c6964207369676e6174757265202776272076616c7565454950373132446f6d61696e28737472696e67206e616d652c737472696e672076657273696f6e2c75696e7432353620636861696e49642c6164647265737320766572696679696e67436f6e74726163742945524332303a207472616e7366657220616d6f756e74206578636565647320616c6c6f77616e636545524332303a206275726e2066726f6d20746865207a65726f206164647265737345524332303a207472616e736665722066726f6d20746865207a65726f206164647265737345524332303a20617070726f76652066726f6d20746865207a65726f206164647265737345524332303a2064656372656173656420616c6c6f77616e63652062656c6f77207a65726fa2646970667358221220ca7be57c78819d96844f6c300c41cae34f3fce31ba02c72f2dd15cd411a93dc164736f6c634300060b00335065726d69742861646472657373206f776e65722c61646472657373207370656e6465722c75696e743235362076616c75652c75696e74323536206e6f6e63652c75696e7432353620646561646c696e6529496e697469616c697a61626c653a20636f6e747261637420697320616c726561647920696e697469616c697a6564",
  "linkReferences": {},
  "deployedLinkReferences": {}
}