{
  "_format": "hh-sol-artifact-1",
  "contractName": "TransactionModule",
  "sourceName": "contracts/TransactionModule.sol",
  "abi": [
    {
      "inputs": [],
      "stateMutability": "nonpayable",
      "type": "constructor"
    },
    {
      "anonymous": false,
      "inputs": [
        {
          "indexed": false,
          "internalType": "address",
          "name": "_wallet",
          "type": "address"
        },
        {
          "indexed": false,
          "internalType": "address",
          "name": "_to",
          "type": "address"
        },
        {
          "indexed": false,
          "internalType": "uint256",
          "name": "_value",
          "type": "uint256"
        },
        {
          "indexed": false,
          "internalType": "bytes",
          "name": "_data",
          "type": "bytes"
        }
      ],
      "name": "ExecuteLargeTransaction",
      "type": "event"
    },
    {
      "anonymous": false,
      "inputs": [
        {
          "indexed": false,
          "internalType": "address",
          "name": "_wallet",
          "type": "address"
        },
        {
          "components": [
            {
              "internalType": "address",
              "name": "to",
              "type": "address"
            },
            {
              "internalType": "uint256",
              "name": "value",
              "type": "uint256"
            },
            {
              "internalType": "bytes",
              "name": "data",
              "type": "bytes"
            },
            {
              "internalType": "uint256",
              "name": "sequenceId",
              "type": "uint256"
            },
            {
              "internalType": "uint256",
              "name": "expireTime",
              "type": "uint256"
            }
          ],
          "indexed": false,
          "internalType": "struct BaseModule.CallArgs",
          "name": "_args",
          "type": "tuple"
        }
      ],
      "name": "ExecuteTransaction",
      "type": "event"
    },
    {
      "anonymous": false,
      "inputs": [
        {
          "indexed": false,
          "internalType": "address",
          "name": "to",
          "type": "address"
        },
        {
          "indexed": false,
          "internalType": "uint256",
          "name": "value",
          "type": "uint256"
        },
        {
          "indexed": false,
          "internalType": "bytes",
          "name": "data",
          "type": "bytes"
        }
      ],
      "name": "MultiCalled",
      "type": "event"
    },
    {
      "anonymous": false,
      "inputs": [
        {
          "indexed": false,
          "internalType": "address",
          "name": "_walslet",
          "type": "address"
        },
        {
          "indexed": false,
          "internalType": "bytes",
          "name": "data",
          "type": "bytes"
        }
      ],
      "name": "TMInited",
      "type": "event"
    },
    {
      "anonymous": false,
      "inputs": [
        {
          "indexed": false,
          "internalType": "address",
          "name": "_wallet",
          "type": "address"
        },
        {
          "indexed": false,
          "internalType": "uint256",
          "name": "_dailyUpbound",
          "type": "uint256"
        },
        {
          "indexed": false,
          "internalType": "uint256",
          "name": "_largeAmountPayment",
          "type": "uint256"
        }
      ],
      "name": "TMParameterChanged",
      "type": "event"
    },
    {
      "inputs": [
        {
          "internalType": "address",
          "name": "_moduleRegistry",
          "type": "address"
        },
        {
          "internalType": "address",
          "name": "_wallet",
          "type": "address"
        },
        {
          "internalType": "address",
          "name": "_module",
          "type": "address"
        },
        {
          "internalType": "bytes",
          "name": "data",
          "type": "bytes"
        }
      ],
      "name": "addModule",
      "outputs": [],
      "stateMutability": "nonpayable",
      "type": "function"
    },
    {
      "inputs": [
        {
          "internalType": "address",
          "name": "_wallet",
          "type": "address"
        },
        {
          "internalType": "address",
          "name": "_to",
          "type": "address"
        },
        {
          "internalType": "uint256",
          "name": "_value",
          "type": "uint256"
        },
        {
          "internalType": "bytes",
          "name": "_data",
          "type": "bytes"
        }
      ],
      "name": "executeLargeTransaction",
      "outputs": [
        {
          "internalType": "bytes",
          "name": "_result",
          "type": "bytes"
        }
      ],
      "stateMutability": "nonpayable",
      "type": "function"
    },
    {
      "inputs": [
        {
          "internalType": "address",
          "name": "_wallet",
          "type": "address"
        },
        {
          "components": [
            {
              "internalType": "address",
              "name": "to",
              "type": "address"
            },
            {
              "internalType": "uint256",
              "name": "value",
              "type": "uint256"
            },
            {
              "internalType": "bytes",
              "name": "data",
              "type": "bytes"
            },
            {
              "internalType": "uint256",
              "name": "sequenceId",
              "type": "uint256"
            },
            {
              "internalType": "uint256",
              "name": "expireTime",
              "type": "uint256"
            }
          ],
          "internalType": "struct BaseModule.CallArgs",
          "name": "_args",
          "type": "tuple"
        }
      ],
      "name": "executeTransaction",
      "outputs": [],
      "stateMutability": "nonpayable",
      "type": "function"
    },
    {
      "inputs": [
        {
          "internalType": "address",
          "name": "_wallet",
          "type": "address"
        }
      ],
      "name": "getDailyUpbound",
      "outputs": [
        {
          "internalType": "uint256",
          "name": "",
          "type": "uint256"
        }
      ],
      "stateMutability": "view",
      "type": "function"
    },
    {
      "inputs": [
        {
          "internalType": "address",
          "name": "_wallet",
          "type": "address"
        }
      ],
      "name": "getLargeAmountPayment",
      "outputs": [
        {
          "internalType": "uint256",
          "name": "",
          "type": "uint256"
        }
      ],
      "stateMutability": "view",
      "type": "function"
    },
    {
      "inputs": [
        {
          "internalType": "address",
          "name": "_wallet",
          "type": "address"
        },
        {
          "internalType": "bytes",
          "name": "data",
          "type": "bytes"
        }
      ],
      "name": "init",
      "outputs": [],
      "stateMutability": "nonpayable",
      "type": "function"
    },
    {
      "inputs": [
        {
          "internalType": "contract IModuleRegistry",
          "name": "_registry",
          "type": "address"
        }
      ],
      "name": "initialize",
      "outputs": [],
      "stateMutability": "nonpayable",
      "type": "function"
    },
    {
      "inputs": [
        {
          "internalType": "address",
          "name": "",
          "type": "address"
        }
      ],
      "name": "paymentInfos",
      "outputs": [
        {
          "internalType": "uint256",
          "name": "dailyUpbound",
          "type": "uint256"
        },
        {
          "internalType": "uint256",
          "name": "largeAmountPayment",
          "type": "uint256"
        },
        {
          "internalType": "bool",
          "name": "exist",
          "type": "bool"
        },
        {
          "internalType": "uint256",
          "name": "dailySpendLeft",
          "type": "uint256"
        },
        {
          "internalType": "uint256",
          "name": "lastSpendWindow",
          "type": "uint256"
        }
      ],
      "stateMutability": "view",
      "type": "function"
    },
    {
      "inputs": [
        {
          "internalType": "address",
          "name": "_wallet",
          "type": "address"
        }
      ],
      "name": "removeModule",
      "outputs": [],
      "stateMutability": "nonpayable",
      "type": "function"
    },
    {
      "inputs": [
        {
          "internalType": "address",
          "name": "_wallet",
          "type": "address"
        },
        {
          "internalType": "uint256",
          "name": "_dailyUpbound",
          "type": "uint256"
        },
        {
          "internalType": "uint256",
          "name": "_largeAmountPayment",
          "type": "uint256"
        }
      ],
      "name": "setTMParameter",
      "outputs": [],
      "stateMutability": "nonpayable",
      "type": "function"
    }
  ],
  "bytecode": "0x608060405234801561001057600080fd5b50611bae806100206000396000f3fe608060405234801561001057600080fd5b506004361061009e5760003560e01c8063acc2968e11610066578063acc2968e14610178578063b490c3e014610199578063c0d91eaf146101ac578063c4d66de8146101bf578063c6963c45146101d25761009e565b806319806681146100a35780638279b0621461011d578063837fa03d1461013d57806389ff98e414610152578063a063246114610165575b600080fd5b6100e56100b13660046114b0565b6003602081905260009182526040909120805460018201546002830154938301546004909301549193909260ff9091169185565b604051610114959493929190948552602085019390935290151560408401526060830152608082015260a00190565b60405180910390f35b61013061012b366004611592565b6101e5565b60405161011491906119aa565b61015061014b36600461164a565b610567565b005b6101506101603660046114ef565b6108b2565b6101506101733660046114b0565b610ac7565b61018b6101863660046114b0565b610b70565b604051908152602001610114565b6101506101a73660046116fb565b610c0e565b6101506101ba3660046115fc565b610e11565b6101506101cd3660046114b0565b610fa9565b61018b6101e03660046114b0565b611078565b606084336001600160a01b038216146102195760405162461bcd60e51b8152600401610210906119bd565b60405180910390fd5b856000816001600160a01b031663a4e2d6346040518163ffffffff1660e01b815260040160206040518083038186803b15801561025557600080fd5b505afa158015610269573d6000803e3d6000fd5b505050506040513d601f19601f8201168201806040525081019061028d91906117c2565b905061029a600282611b14565b156102e75760405162461bcd60e51b815260206004820152601a60248201527f424d3a2077616c6c6574206c6f636b656420676c6f62616c6c790000000000006044820152606401610210565b6001600160a01b0387163014156103395760405162461bcd60e51b81526020600482015260166024820152752a269d1031b0b73713ba1031b0b6361034ba39b2b63360511b6044820152606401610210565b6001600160a01b03881660009081526003602052604090206002015460ff166103745760405162461bcd60e51b8152600401610210906119f4565b6001600160a01b0388166000908152600360205260409020600181015487116103f85760405162461bcd60e51b815260206004820152603060248201527f544d3a2053696e676c65207061796d656e74206c6f776572207468616e206c6160448201526f1c99d9505b5bdd5b9d14185e5b595b9d60821b6064820152608401610210565b8060040154421061042c578054610410908890611ab2565b60038201556104224262015180611a9a565b6004820155610493565b86816003015410156104795760405162461bcd60e51b815260206004820152601660248201527515134e91185a5b1e481b1a5b5a5d081c995858da195960521b6044820152606401610210565b8681600301600082825461048d9190611ab2565b90915550505b7f5ecc7245b8ada49983c60fb43f7ba2bf9d602da91dd71d3ad1e4ab9a175bf511898989896040516104c8949392919061187b565b60405180910390a16040516314056d1560e11b81526000906001600160a01b038b169063280ada2a90610503908c908c908c90600401611948565b600060405180830381600087803b15801561051d57600080fd5b505af1158015610531573d6000803e3d6000fd5b505050506040513d6000823e601f3d908101601f19168201604052610559919081019061174f565b9a9950505050505050505050565b81336001600160a01b0316816001600160a01b0316638da5cb5b6040518163ffffffff1660e01b815260040160206040518083038186803b1580156105ab57600080fd5b505afa1580156105bf573d6000803e3d6000fd5b505050506040513d601f19601f820116820180604052508101906105e391906114d3565b6001600160a01b03161461062d5760405162461bcd60e51b815260206004820152601160248201527021269d1036bab9ba1031329037bbb732b960791b6044820152606401610210565b826000816001600160a01b031663a4e2d6346040518163ffffffff1660e01b815260040160206040518083038186803b15801561066957600080fd5b505afa15801561067d573d6000803e3d6000fd5b505050506040513d601f19601f820116820180604052508101906106a191906117c2565b90506106ae600282611b14565b156106fb5760405162461bcd60e51b815260206004820152601a60248201527f424d3a2077616c6c6574206c6f636b656420676c6f62616c6c790000000000006044820152606401610210565b6001600160a01b03851660009081526003602052604090206002015460ff166107365760405162461bcd60e51b8152600401610210906119f4565b6001600160a01b0385166000908152600360209081526040909120600181015491860151909110156107c05760405162461bcd60e51b815260206004820152602d60248201527f544d3a2053696e676c65207061796d656e742065786363656564206c6172676560448201526c105b5bdd5b9d14185e5b595b9d609a1b6064820152608401610210565b806004015442106107f857602085015181546107dc9190611ab2565b60038201556107ee4262015180611a9a565b6004820155610867565b8460200151816003015410156108495760405162461bcd60e51b815260206004820152601660248201527515134e91185a5b1e481b1a5b5a5d081c995858da195960521b6044820152606401610210565b84602001518160030160008282546108619190611ab2565b90915550505b6108718686611114565b7f1b5d7d9142038e9c88db5b5e61838886ab831a44abefba443ccc7c2982ae9ee186866040516108a29291906118e4565b60405180910390a1505050505050565b83336001600160a01b038216146108db5760405162461bcd60e51b8152600401610210906119bd565b84806001600160a01b031663a4e2d6346040518163ffffffff1660e01b815260040160206040518083038186803b15801561091557600080fd5b505afa158015610929573d6000803e3d6000fd5b505050506040513d601f19601f8201168201806040525081019061094d91906117c2565b1561098e5760405162461bcd60e51b815260206004820152601160248201527010934e881dd85b1b195d081b1bd8dad959607a1b6044820152606401610210565b600054604051630bcd4ebb60e01b81526001600160a01b03878116600483015290911690630bcd4ebb9060240160206040518083038186803b1580156109d357600080fd5b505afa1580156109e7573d6000803e3d6000fd5b505050506040513d601f19601f82011682018060405250810190610a0b919061172f565b610a575760405162461bcd60e51b815260206004820152601c60248201527f544d3a206d6f64756c65206973206e6f742072656769737465726564000000006044820152606401610210565b604051636d1c590560e11b81526001600160a01b0387169063da38b20a90610a8c908a9089906001908a908a90600401611829565b600060405180830381600087803b158015610aa657600080fd5b505af1158015610aba573d6000803e3d6000fd5b5050505050505050505050565b80336001600160a01b03821614610af05760405162461bcd60e51b8152600401610210906119bd565b6001600160a01b03821660009081526003602052604090206002015460ff16610b2b5760405162461bcd60e51b8152600401610210906119f4565b610b34826111fd565b506001600160a01b0316600090815260036020819052604082208281556001810183905560028101805460ff1916905590810182905560040155565b6001600160a01b03811660009081526003602052604081206002015460ff16610bab5760405162461bcd60e51b8152600401610210906119f4565b506001600160a01b038116600090815260036020818152604092839020835160a081018552815481526001820154928101839052600282015460ff161515948101949094529182015460608401526004909101546080909201919091525b919050565b82336001600160a01b03821614610c375760405162461bcd60e51b8152600401610210906119bd565b83806001600160a01b031663a4e2d6346040518163ffffffff1660e01b815260040160206040518083038186803b158015610c7157600080fd5b505afa158015610c85573d6000803e3d6000fd5b505050506040513d601f19601f82011682018060405250810190610ca991906117c2565b15610cea5760405162461bcd60e51b815260206004820152601160248201527010934e881dd85b1b195d081b1bd8dad959607a1b6044820152606401610210565b6001600160a01b03851660009081526003602052604090206002015460ff16610d255760405162461bcd60e51b8152600401610210906119f4565b6001600160a01b0385166000908152600360205260409020805485141580610d51575083816001015414155b610dab5760405162461bcd60e51b815260206004820152602560248201527f544d3a6d757374206368616e6765206174206c65617374206f6e65207061726160448201526436b2ba32b960d91b6064820152608401610210565b80548514610db7578481555b83816001015414610dca57600181018490555b604080516001600160a01b0388168152602081018790529081018590527fdc8b788f2c29bd2566dda2a5ed84b4d1adb5643289ac79275c306af046896f54906060016108a2565b81336001600160a01b03821614610e3a5760405162461bcd60e51b8152600401610210906119bd565b610e438361133f565b15610ea75760405162461bcd60e51b815260206004820152602e60248201527f544d3a2073686f756c64206e6f74206164642073616d65206d6f64756c65207460448201526d6f2077616c6c657420747769636560901b6064820152608401610210565b6001600160a01b03831660009081526003602052604090206002015460ff1615610f1d5760405162461bcd60e51b815260206004820152602160248201527f544d3a2077616c6c65742065786973747320696e207061796d656e74496e666f6044820152607360f81b6064820152608401610210565b610f26836113b8565b60008083806020019051810190610f3d91906117da565b6001600160a01b03871660009081526003602052604090819020838155600180820184905560028201805460ff191690911790559051929450909250907f58fc26d5e9fe8d800d65e5e5caf208b0201a3ac373b8ade71e832dca61830a6f906108a290889088906118b8565b600254610100900460ff1680610fc2575060025460ff16155b6110255760405162461bcd60e51b815260206004820152602e60248201527f496e697469616c697a61626c653a20636f6e747261637420697320616c72656160448201526d191e481a5b9a5d1a585b1a5e995960921b6064820152608401610210565b600254610100900460ff16158015611047576002805461ffff19166101011790555b600080546001600160a01b0319166001600160a01b0384161790558015611074576002805461ff00191690555b5050565b6001600160a01b03811660009081526003602052604081206002015460ff166110b35760405162461bcd60e51b8152600401610210906119f4565b506001600160a01b0316600090815260036020818152604092839020835160a0810185528154808252600183015493820193909352600282015460ff1615159481019490945291820154606084015260049091015460809092019190915290565b8051602082015160408084015160608501516080860151925163b14f6c8360e01b8152919290916001600160a01b0388169063b14f6c8390611162908890889088908790899060040161196f565b600060405180830381600087803b15801561117c57600080fd5b505af1158015611190573d6000803e3d6000fd5b505050506040513d6000823e601f3d908101601f191682016040526111b8919081019061174f565b507f16a95b1f4b59f6a32941b3b48a50be9d4d9f9c4da4cb504681489daabf9919288585856040516111ec93929190611948565b60405180910390a150505050505050565b6001805460009161120d91611ab2565b905060005b818110156112f957826001600160a01b03166001828154811061124557634e487b7160e01b600052603260045260246000fd5b6000918252602090912001546001600160a01b031614156112e7576001828154811061128157634e487b7160e01b600052603260045260246000fd5b600091825260209091200154600180546001600160a01b0390921691839081106112bb57634e487b7160e01b600052603260045260246000fd5b600091825260209091200180546001600160a01b0319166001600160a01b039290921691909117905550805b806112f181611af9565b915050611212565b50600180548061131957634e487b7160e01b600052603160045260246000fd5b600082815260209020810160001990810180546001600160a01b03191690550190555050565b6000805b6001548110156113af57826001600160a01b03166001828154811061137857634e487b7160e01b600052603260045260246000fd5b6000918252602090912001546001600160a01b0316141561139d576001915050610c09565b806113a781611af9565b915050611343565b50600092915050565b6113c18161133f565b1561140e5760405162461bcd60e51b815260206004820152601d60248201527f424d3a2077616c6c657420616c726561647920726567697374657265640000006044820152606401610210565b6001805480820182556000919091527fb10e2d527612073b26eecdfd717e6a320cf44b4afac2b0732d9fcbe2b7fa0cf60180546001600160a01b0319166001600160a01b0392909216919091179055565b600082601f83011261146f578081fd5b813561148261147d82611a72565b611a41565b818152846020838601011115611496578283fd5b816020850160208301379081016020019190915292915050565b6000602082840312156114c1578081fd5b81356114cc81611b60565b9392505050565b6000602082840312156114e4578081fd5b81516114cc81611b60565b600080600080600060808688031215611506578081fd5b853561151181611b60565b9450602086013561152181611b60565b9350604086013561153181611b60565b9250606086013567ffffffffffffffff8082111561154d578283fd5b818801915088601f830112611560578283fd5b81358181111561156e578384fd5b89602082850101111561157f578384fd5b9699959850939650602001949392505050565b600080600080608085870312156115a7578384fd5b84356115b281611b60565b935060208501356115c281611b60565b925060408501359150606085013567ffffffffffffffff8111156115e4578182fd5b6115f08782880161145f565b91505092959194509250565b6000806040838503121561160e578182fd5b823561161981611b60565b9150602083013567ffffffffffffffff811115611634578182fd5b6116408582860161145f565b9150509250929050565b6000806040838503121561165c578182fd5b823561166781611b60565b9150602083013567ffffffffffffffff80821115611683578283fd5b9084019060a08287031215611696578283fd5b6116a060a0611a41565b82356116ab81611b60565b8152602083810135908201526040830135828111156116c8578485fd5b6116d48882860161145f565b60408301525060608301356060820152608083013560808201528093505050509250929050565b60008060006060848603121561170f578283fd5b833561171a81611b60565b95602085013595506040909401359392505050565b600060208284031215611740578081fd5b815180151581146114cc578182fd5b600060208284031215611760578081fd5b815167ffffffffffffffff811115611776578182fd5b8201601f81018413611786578182fd5b805161179461147d82611a72565b8181528560208385010111156117a8578384fd5b6117b9826020830160208601611ac9565b95945050505050565b6000602082840312156117d3578081fd5b5051919050565b600080604083850312156117ec578182fd5b505080516020909101519092909150565b60008151808452611815816020860160208601611ac9565b601f01601f19169290920160200192915050565b6001600160a01b03868116825285166020820152831515604082015260806060820181905281018290526000828460a084013781830160a090810191909152601f909201601f19160101949350505050565b6001600160a01b03858116825284166020820152604081018390526080606082018190526000906118ae908301846117fd565b9695505050505050565b6001600160a01b03831681526040602082018190526000906118dc908301846117fd565b949350505050565b6001600160a01b0383811682526040602080840182905284519092168184015290830151606083015282015160a0608083015260009061192760e08401826117fd565b9050606084015160a0840152608084015160c0840152809150509392505050565b600060018060a01b0385168252836020830152606060408301526117b960608301846117fd565b600060018060a01b038716825285602083015260a0604083015261199660a08301866117fd565b606083019490945250608001529392505050565b6000602082526114cc60208301846117fd565b60208082526019908201527f424d3a2063616c6c6572206d7573742062652077616c6c657400000000000000604082015260600190565b6020808252602d908201527f544d3a2077616c6c657420646f65736e2774207265676973746572205061796d60408201526c32b73a2634b6b4ba30ba34b7b760991b606082015260800190565b604051601f8201601f1916810167ffffffffffffffff81118282101715611a6a57611a6a611b4a565b604052919050565b600067ffffffffffffffff821115611a8c57611a8c611b4a565b50601f01601f191660200190565b60008219821115611aad57611aad611b34565b500190565b600082821015611ac457611ac4611b34565b500390565b60005b83811015611ae4578181015183820152602001611acc565b83811115611af3576000848401525b50505050565b6000600019821415611b0d57611b0d611b34565b5060010190565b600082611b2f57634e487b7160e01b81526012600452602481fd5b500690565b634e487b7160e01b600052601160045260246000fd5b634e487b7160e01b600052604160045260246000fd5b6001600160a01b0381168114611b7557600080fd5b5056fea264697066735822122089849fec8052aa284efc0c7b1135418626af7abd0430eaf67c65fe83c6b21c2764736f6c63430008030033",
  "linkReferences": {},
  "deployedLinkReferences": {}
}