{
  "_format": "hh-sol-artifact-1",
  "contractName": "TransactionModule",
  "sourceName": "contracts/TransactionModule.sol",
  "abi": [
    {
      "inputs": [],
      "stateMutability": "nonpayable",
      "type": "constructor"
    },
    {
      "anonymous": false,
      "inputs": [
        {
          "indexed": false,
          "internalType": "address",
          "name": "_wallet",
          "type": "address"
        },
        {
          "indexed": false,
          "internalType": "address",
          "name": "_to",
          "type": "address"
        },
        {
          "indexed": false,
          "internalType": "uint256",
          "name": "_value",
          "type": "uint256"
        },
        {
          "indexed": false,
          "internalType": "bytes",
          "name": "_data",
          "type": "bytes"
        }
      ],
      "name": "ExecuteLargeTransaction",
      "type": "event"
    },
    {
      "anonymous": false,
      "inputs": [
        {
          "indexed": false,
          "internalType": "address",
          "name": "_wallet",
          "type": "address"
        },
        {
          "components": [
            {
              "internalType": "address",
              "name": "to",
              "type": "address"
            },
            {
              "internalType": "uint256",
              "name": "value",
              "type": "uint256"
            },
            {
              "internalType": "bytes",
              "name": "data",
              "type": "bytes"
            },
            {
              "internalType": "uint256",
              "name": "sequenceId",
              "type": "uint256"
            },
            {
              "internalType": "uint256",
              "name": "expireTime",
              "type": "uint256"
            }
          ],
          "indexed": false,
          "internalType": "struct BaseModule.CallArgs",
          "name": "_args",
          "type": "tuple"
        }
      ],
      "name": "ExecuteTransaction",
      "type": "event"
    },
    {
      "anonymous": false,
      "inputs": [
        {
          "indexed": false,
          "internalType": "address",
          "name": "to",
          "type": "address"
        },
        {
          "indexed": false,
          "internalType": "uint256",
          "name": "value",
          "type": "uint256"
        },
        {
          "indexed": false,
          "internalType": "bytes",
          "name": "data",
          "type": "bytes"
        }
      ],
      "name": "MultiCalled",
      "type": "event"
    },
    {
      "anonymous": false,
      "inputs": [
        {
          "indexed": false,
          "internalType": "address",
          "name": "_walslet",
          "type": "address"
        },
        {
          "indexed": false,
          "internalType": "bytes",
          "name": "data",
          "type": "bytes"
        }
      ],
      "name": "TMInited",
      "type": "event"
    },
    {
      "anonymous": false,
      "inputs": [
        {
          "indexed": false,
          "internalType": "address",
          "name": "_wallet",
          "type": "address"
        },
        {
          "indexed": false,
          "internalType": "uint256",
          "name": "_dailyUpbound",
          "type": "uint256"
        },
        {
          "indexed": false,
          "internalType": "uint256",
          "name": "_largeAmountPayment",
          "type": "uint256"
        }
      ],
      "name": "TMParameterChanged",
      "type": "event"
    },
    {
      "inputs": [
        {
          "internalType": "address",
          "name": "_moduleRegistry",
          "type": "address"
        },
        {
          "internalType": "address",
          "name": "_wallet",
          "type": "address"
        },
        {
          "internalType": "address",
          "name": "_module",
          "type": "address"
        },
        {
          "internalType": "bytes",
          "name": "data",
          "type": "bytes"
        }
      ],
      "name": "addModule",
      "outputs": [],
      "stateMutability": "nonpayable",
      "type": "function"
    },
    {
      "inputs": [
        {
          "internalType": "address",
          "name": "_wallet",
          "type": "address"
        },
        {
          "internalType": "address",
          "name": "_to",
          "type": "address"
        },
        {
          "internalType": "uint256",
          "name": "_value",
          "type": "uint256"
        },
        {
          "internalType": "bytes",
          "name": "_data",
          "type": "bytes"
        }
      ],
      "name": "executeLargeTransaction",
      "outputs": [
        {
          "internalType": "bytes",
          "name": "_result",
          "type": "bytes"
        }
      ],
      "stateMutability": "nonpayable",
      "type": "function"
    },
    {
      "inputs": [
        {
          "internalType": "address",
          "name": "_wallet",
          "type": "address"
        },
        {
          "components": [
            {
              "internalType": "address",
              "name": "to",
              "type": "address"
            },
            {
              "internalType": "uint256",
              "name": "value",
              "type": "uint256"
            },
            {
              "internalType": "bytes",
              "name": "data",
              "type": "bytes"
            },
            {
              "internalType": "uint256",
              "name": "sequenceId",
              "type": "uint256"
            },
            {
              "internalType": "uint256",
              "name": "expireTime",
              "type": "uint256"
            }
          ],
          "internalType": "struct BaseModule.CallArgs",
          "name": "_args",
          "type": "tuple"
        }
      ],
      "name": "executeTransaction",
      "outputs": [],
      "stateMutability": "nonpayable",
      "type": "function"
    },
    {
      "inputs": [
        {
          "internalType": "address",
          "name": "_wallet",
          "type": "address"
        }
      ],
      "name": "getDailyUpbound",
      "outputs": [
        {
          "internalType": "uint256",
          "name": "",
          "type": "uint256"
        }
      ],
      "stateMutability": "view",
      "type": "function"
    },
    {
      "inputs": [
        {
          "internalType": "address",
          "name": "_wallet",
          "type": "address"
        }
      ],
      "name": "getLargeAmountPayment",
      "outputs": [
        {
          "internalType": "uint256",
          "name": "",
          "type": "uint256"
        }
      ],
      "stateMutability": "view",
      "type": "function"
    },
    {
      "inputs": [
        {
          "internalType": "address",
          "name": "_wallet",
          "type": "address"
        },
        {
          "internalType": "bytes",
          "name": "data",
          "type": "bytes"
        }
      ],
      "name": "init",
      "outputs": [],
      "stateMutability": "nonpayable",
      "type": "function"
    },
    {
      "inputs": [
        {
          "internalType": "contract IModuleRegistry",
          "name": "_registry",
          "type": "address"
        },
        {
          "internalType": "uint256",
          "name": "_lockedSecurityPeriod",
          "type": "uint256"
        }
      ],
      "name": "initialize",
      "outputs": [],
      "stateMutability": "nonpayable",
      "type": "function"
    },
    {
      "inputs": [],
      "name": "lockedSecurityPeriod",
      "outputs": [
        {
          "internalType": "uint256",
          "name": "",
          "type": "uint256"
        }
      ],
      "stateMutability": "view",
      "type": "function"
    },
    {
      "inputs": [
        {
          "internalType": "address",
          "name": "",
          "type": "address"
        }
      ],
      "name": "paymentInfos",
      "outputs": [
        {
          "internalType": "uint256",
          "name": "dailyUpbound",
          "type": "uint256"
        },
        {
          "internalType": "uint256",
          "name": "largeAmountPayment",
          "type": "uint256"
        },
        {
          "internalType": "bool",
          "name": "exist",
          "type": "bool"
        },
        {
          "internalType": "uint256",
          "name": "dailySpendLeft",
          "type": "uint256"
        },
        {
          "internalType": "uint256",
          "name": "lastSpendWindow",
          "type": "uint256"
        }
      ],
      "stateMutability": "view",
      "type": "function"
    },
    {
      "inputs": [
        {
          "internalType": "address",
          "name": "_wallet",
          "type": "address"
        }
      ],
      "name": "removeModule",
      "outputs": [],
      "stateMutability": "nonpayable",
      "type": "function"
    },
    {
      "inputs": [
        {
          "internalType": "address",
          "name": "_wallet",
          "type": "address"
        },
        {
          "internalType": "uint256",
          "name": "_dailyUpbound",
          "type": "uint256"
        },
        {
          "internalType": "uint256",
          "name": "_largeAmountPayment",
          "type": "uint256"
        }
      ],
      "name": "setTMParameter",
      "outputs": [],
      "stateMutability": "nonpayable",
      "type": "function"
    }
  ],
  "bytecode": "0x608060405234801561001057600080fd5b50611bf6806100206000396000f3fe608060405234801561001057600080fd5b50600436106100a95760003560e01c8063acc2968e11610071578063acc2968e14610183578063b490c3e0146101a4578063c0d91eaf146101b7578063c6963c45146101ca578063c6de2a3f146101dd578063cd6dc687146101e6576100a9565b806319806681146100ae5780638279b06214610128578063837fa03d1461014857806389ff98e41461015d578063a063246114610170575b600080fd5b6100f06100bc3660046114cd565b6004602081905260009182526040909120805460018201546002830154600384015493909401549193909260ff9091169185565b60405161011f959493929190948552602085019390935290151560408401526060830152608082015260a00190565b60405180910390f35b61013b6101363660046115af565b6101f9565b60405161011f91906119f2565b61015b610156366004611667565b61057b565b005b61015b61016b36600461150c565b6108c6565b61015b61017e3660046114cd565b610adb565b6101966101913660046114cd565b610b83565b60405190815260200161011f565b61015b6101b2366004611718565b610c20565b61015b6101c5366004611619565b610e23565b6101966101d83660046114cd565b610fbb565b61019660035481565b61015b6101f43660046117df565b611056565b606084336001600160a01b0382161461022d5760405162461bcd60e51b815260040161022490611a05565b60405180910390fd5b856000816001600160a01b031663a4e2d6346040518163ffffffff1660e01b815260040160206040518083038186803b15801561026957600080fd5b505afa15801561027d573d6000803e3d6000fd5b505050506040513d601f19601f820116820180604052508101906102a1919061180a565b90506102ae600282611b5c565b156102fb5760405162461bcd60e51b815260206004820152601a60248201527f424d3a2077616c6c6574206c6f636b656420676c6f62616c6c790000000000006044820152606401610224565b6001600160a01b03871630141561034d5760405162461bcd60e51b81526020600482015260166024820152752a269d1031b0b73713ba1031b0b6361034ba39b2b63360511b6044820152606401610224565b6001600160a01b03881660009081526004602052604090206002015460ff166103885760405162461bcd60e51b815260040161022490611a3c565b6001600160a01b03881660009081526004602052604090206001810154871161040c5760405162461bcd60e51b815260206004820152603060248201527f544d3a2053696e676c65207061796d656e74206c6f776572207468616e206c6160448201526f1c99d9505b5bdd5b9d14185e5b595b9d60821b6064820152608401610224565b80600401544210610440578054610424908890611afa565b60038201556104364262015180611ae2565b60048201556104a7565b868160030154101561048d5760405162461bcd60e51b815260206004820152601660248201527515134e91185a5b1e481b1a5b5a5d081c995858da195960521b6044820152606401610224565b868160030160008282546104a19190611afa565b90915550505b7f5ecc7245b8ada49983c60fb43f7ba2bf9d602da91dd71d3ad1e4ab9a175bf511898989896040516104dc94939291906118c3565b60405180910390a16040516314056d1560e11b81526000906001600160a01b038b169063280ada2a90610517908c908c908c90600401611990565b600060405180830381600087803b15801561053157600080fd5b505af1158015610545573d6000803e3d6000fd5b505050506040513d6000823e601f3d908101601f1916820160405261056d919081019061176c565b9a9950505050505050505050565b81336001600160a01b0316816001600160a01b0316638da5cb5b6040518163ffffffff1660e01b815260040160206040518083038186803b1580156105bf57600080fd5b505afa1580156105d3573d6000803e3d6000fd5b505050506040513d601f19601f820116820180604052508101906105f791906114f0565b6001600160a01b0316146106415760405162461bcd60e51b815260206004820152601160248201527021269d1036bab9ba1031329037bbb732b960791b6044820152606401610224565b826000816001600160a01b031663a4e2d6346040518163ffffffff1660e01b815260040160206040518083038186803b15801561067d57600080fd5b505afa158015610691573d6000803e3d6000fd5b505050506040513d601f19601f820116820180604052508101906106b5919061180a565b90506106c2600282611b5c565b1561070f5760405162461bcd60e51b815260206004820152601a60248201527f424d3a2077616c6c6574206c6f636b656420676c6f62616c6c790000000000006044820152606401610224565b6001600160a01b03851660009081526004602052604090206002015460ff1661074a5760405162461bcd60e51b815260040161022490611a3c565b6001600160a01b0385166000908152600460209081526040909120600181015491860151909110156107d45760405162461bcd60e51b815260206004820152602d60248201527f544d3a2053696e676c65207061796d656e742065786363656564206c6172676560448201526c105b5bdd5b9d14185e5b595b9d609a1b6064820152608401610224565b8060040154421061080c57602085015181546107f09190611afa565b60038201556108024262015180611ae2565b600482015561087b565b84602001518160030154101561085d5760405162461bcd60e51b815260206004820152601660248201527515134e91185a5b1e481b1a5b5a5d081c995858da195960521b6044820152606401610224565b84602001518160030160008282546108759190611afa565b90915550505b6108858686611131565b7f1b5d7d9142038e9c88db5b5e61838886ab831a44abefba443ccc7c2982ae9ee186866040516108b692919061192c565b60405180910390a1505050505050565b83336001600160a01b038216146108ef5760405162461bcd60e51b815260040161022490611a05565b84806001600160a01b031663a4e2d6346040518163ffffffff1660e01b815260040160206040518083038186803b15801561092957600080fd5b505afa15801561093d573d6000803e3d6000fd5b505050506040513d601f19601f82011682018060405250810190610961919061180a565b156109a25760405162461bcd60e51b815260206004820152601160248201527010934e881dd85b1b195d081b1bd8dad959607a1b6044820152606401610224565b600054604051630bcd4ebb60e01b81526001600160a01b03878116600483015290911690630bcd4ebb9060240160206040518083038186803b1580156109e757600080fd5b505afa1580156109fb573d6000803e3d6000fd5b505050506040513d601f19601f82011682018060405250810190610a1f919061174c565b610a6b5760405162461bcd60e51b815260206004820152601c60248201527f544d3a206d6f64756c65206973206e6f742072656769737465726564000000006044820152606401610224565b604051636d1c590560e11b81526001600160a01b0387169063da38b20a90610aa0908a9089906001908a908a90600401611871565b600060405180830381600087803b158015610aba57600080fd5b505af1158015610ace573d6000803e3d6000fd5b5050505050505050505050565b80336001600160a01b03821614610b045760405162461bcd60e51b815260040161022490611a05565b6001600160a01b03821660009081526004602052604090206002015460ff16610b3f5760405162461bcd60e51b815260040161022490611a3c565b610b488261121a565b506001600160a01b0316600090815260046020819052604082208281556001810183905560028101805460ff19169055600381018390550155565b6001600160a01b03811660009081526004602052604081206002015460ff16610bbe5760405162461bcd60e51b815260040161022490611a3c565b506001600160a01b038116600090815260046020818152604092839020835160a081018552815481526001820154928101839052600282015460ff1615159481019490945260038101546060850152909101546080909201919091525b919050565b82336001600160a01b03821614610c495760405162461bcd60e51b815260040161022490611a05565b83806001600160a01b031663a4e2d6346040518163ffffffff1660e01b815260040160206040518083038186803b158015610c8357600080fd5b505afa158015610c97573d6000803e3d6000fd5b505050506040513d601f19601f82011682018060405250810190610cbb919061180a565b15610cfc5760405162461bcd60e51b815260206004820152601160248201527010934e881dd85b1b195d081b1bd8dad959607a1b6044820152606401610224565b6001600160a01b03851660009081526004602052604090206002015460ff16610d375760405162461bcd60e51b815260040161022490611a3c565b6001600160a01b0385166000908152600460205260409020805485141580610d63575083816001015414155b610dbd5760405162461bcd60e51b815260206004820152602560248201527f544d3a6d757374206368616e6765206174206c65617374206f6e65207061726160448201526436b2ba32b960d91b6064820152608401610224565b80548514610dc9578481555b83816001015414610ddc57600181018490555b604080516001600160a01b0388168152602081018790529081018590527fdc8b788f2c29bd2566dda2a5ed84b4d1adb5643289ac79275c306af046896f54906060016108b6565b81336001600160a01b03821614610e4c5760405162461bcd60e51b815260040161022490611a05565b610e558361135c565b15610eb95760405162461bcd60e51b815260206004820152602e60248201527f544d3a2073686f756c64206e6f74206164642073616d65206d6f64756c65207460448201526d6f2077616c6c657420747769636560901b6064820152608401610224565b6001600160a01b03831660009081526004602052604090206002015460ff1615610f2f5760405162461bcd60e51b815260206004820152602160248201527f544d3a2077616c6c65742065786973747320696e207061796d656e74496e666f6044820152607360f81b6064820152608401610224565b610f38836113d5565b60008083806020019051810190610f4f9190611822565b6001600160a01b03871660009081526004602052604090819020838155600180820184905560028201805460ff191690911790559051929450909250907f58fc26d5e9fe8d800d65e5e5caf208b0201a3ac373b8ade71e832dca61830a6f906108b69088908890611900565b6001600160a01b03811660009081526004602052604081206002015460ff16610ff65760405162461bcd60e51b815260040161022490611a3c565b506001600160a01b0316600090815260046020818152604092839020835160a0810185528154808252600183015493820193909352600282015460ff16151594810194909452600381015460608501529091015460809092019190915290565b600254610100900460ff166110715760025460ff1615611075565b303b155b6110d85760405162461bcd60e51b815260206004820152602e60248201527f496e697469616c697a61626c653a20636f6e747261637420697320616c72656160448201526d191e481a5b9a5d1a585b1a5e995960921b6064820152608401610224565b600254610100900460ff161580156110fa576002805461ffff19166101011790555b600080546001600160a01b0319166001600160a01b0385161790556003829055801561112c576002805461ff00191690555b505050565b8051602082015160408084015160608501516080860151925163b14f6c8360e01b8152919290916001600160a01b0388169063b14f6c839061117f90889088908890879089906004016119b7565b600060405180830381600087803b15801561119957600080fd5b505af11580156111ad573d6000803e3d6000fd5b505050506040513d6000823e601f3d908101601f191682016040526111d5919081019061176c565b507f16a95b1f4b59f6a32941b3b48a50be9d4d9f9c4da4cb504681489daabf99192885858560405161120993929190611990565b60405180910390a150505050505050565b6001805460009161122a91611afa565b905060005b8181101561131657826001600160a01b03166001828154811061126257634e487b7160e01b600052603260045260246000fd5b6000918252602090912001546001600160a01b03161415611304576001828154811061129e57634e487b7160e01b600052603260045260246000fd5b600091825260209091200154600180546001600160a01b0390921691839081106112d857634e487b7160e01b600052603260045260246000fd5b600091825260209091200180546001600160a01b0319166001600160a01b039290921691909117905550805b8061130e81611b41565b91505061122f565b50600180548061133657634e487b7160e01b600052603160045260246000fd5b600082815260209020810160001990810180546001600160a01b03191690550190555050565b6000805b6001548110156113cc57826001600160a01b03166001828154811061139557634e487b7160e01b600052603260045260246000fd5b6000918252602090912001546001600160a01b031614156113ba576001915050610c1b565b806113c481611b41565b915050611360565b50600092915050565b6113de8161135c565b1561142b5760405162461bcd60e51b815260206004820152601d60248201527f424d3a2077616c6c657420616c726561647920726567697374657265640000006044820152606401610224565b6001805480820182556000919091527fb10e2d527612073b26eecdfd717e6a320cf44b4afac2b0732d9fcbe2b7fa0cf60180546001600160a01b0319166001600160a01b0392909216919091179055565b600082601f83011261148c578081fd5b813561149f61149a82611aba565b611a89565b8181528460208386010111156114b3578283fd5b816020850160208301379081016020019190915292915050565b6000602082840312156114de578081fd5b81356114e981611ba8565b9392505050565b600060208284031215611501578081fd5b81516114e981611ba8565b600080600080600060808688031215611523578081fd5b853561152e81611ba8565b9450602086013561153e81611ba8565b9350604086013561154e81611ba8565b9250606086013567ffffffffffffffff8082111561156a578283fd5b818801915088601f83011261157d578283fd5b81358181111561158b578384fd5b89602082850101111561159c578384fd5b9699959850939650602001949392505050565b600080600080608085870312156115c4578384fd5b84356115cf81611ba8565b935060208501356115df81611ba8565b925060408501359150606085013567ffffffffffffffff811115611601578182fd5b61160d8782880161147c565b91505092959194509250565b6000806040838503121561162b578182fd5b823561163681611ba8565b9150602083013567ffffffffffffffff811115611651578182fd5b61165d8582860161147c565b9150509250929050565b60008060408385031215611679578182fd5b823561168481611ba8565b9150602083013567ffffffffffffffff808211156116a0578283fd5b9084019060a082870312156116b3578283fd5b6116bd60a0611a89565b82356116c881611ba8565b8152602083810135908201526040830135828111156116e5578485fd5b6116f18882860161147c565b60408301525060608301356060820152608083013560808201528093505050509250929050565b60008060006060848603121561172c578283fd5b833561173781611ba8565b95602085013595506040909401359392505050565b60006020828403121561175d578081fd5b815180151581146114e9578182fd5b60006020828403121561177d578081fd5b815167ffffffffffffffff811115611793578182fd5b8201601f810184136117a3578182fd5b80516117b161149a82611aba565b8181528560208385010111156117c5578384fd5b6117d6826020830160208601611b11565b95945050505050565b600080604083850312156117f1578182fd5b82356117fc81611ba8565b946020939093013593505050565b60006020828403121561181b578081fd5b5051919050565b60008060408385031215611834578182fd5b505080516020909101519092909150565b6000815180845261185d816020860160208601611b11565b601f01601f19169290920160200192915050565b6001600160a01b03868116825285166020820152831515604082015260806060820181905281018290526000828460a084013781830160a090810191909152601f909201601f19160101949350505050565b6001600160a01b03858116825284166020820152604081018390526080606082018190526000906118f690830184611845565b9695505050505050565b6001600160a01b038316815260406020820181905260009061192490830184611845565b949350505050565b6001600160a01b0383811682526040602080840182905284519092168184015290830151606083015282015160a0608083015260009061196f60e0840182611845565b9050606084015160a0840152608084015160c0840152809150509392505050565b600060018060a01b0385168252836020830152606060408301526117d66060830184611845565b600060018060a01b038716825285602083015260a060408301526119de60a0830186611845565b606083019490945250608001529392505050565b6000602082526114e96020830184611845565b60208082526019908201527f424d3a2063616c6c6572206d7573742062652077616c6c657400000000000000604082015260600190565b6020808252602d908201527f544d3a2077616c6c657420646f65736e2774207265676973746572205061796d60408201526c32b73a2634b6b4ba30ba34b7b760991b606082015260800190565b604051601f8201601f1916810167ffffffffffffffff81118282101715611ab257611ab2611b92565b604052919050565b600067ffffffffffffffff821115611ad457611ad4611b92565b50601f01601f191660200190565b60008219821115611af557611af5611b7c565b500190565b600082821015611b0c57611b0c611b7c565b500390565b60005b83811015611b2c578181015183820152602001611b14565b83811115611b3b576000848401525b50505050565b6000600019821415611b5557611b55611b7c565b5060010190565b600082611b7757634e487b7160e01b81526012600452602481fd5b500690565b634e487b7160e01b600052601160045260246000fd5b634e487b7160e01b600052604160045260246000fd5b6001600160a01b0381168114611bbd57600080fd5b5056fea2646970667358221220707b071210057c28c689efa4d231901f01d3ae6d253e0d22af5b2f61108b081564736f6c63430008030033",
  "linkReferences": {},
  "deployedLinkReferences": {}
}