{
  "_format": "hh-sol-artifact-1",
  "contractName": "TransactionModule",
  "sourceName": "contracts/TransactionModule.sol",
  "abi": [
    {
      "inputs": [],
      "stateMutability": "nonpayable",
      "type": "constructor"
    },
    {
      "anonymous": false,
      "inputs": [
        {
          "indexed": false,
          "internalType": "address",
          "name": "to",
          "type": "address"
        },
        {
          "indexed": false,
          "internalType": "uint256",
          "name": "value",
          "type": "uint256"
        },
        {
          "indexed": false,
          "internalType": "bytes",
          "name": "data",
          "type": "bytes"
        }
      ],
      "name": "MultiCalled",
      "type": "event"
    },
    {
      "inputs": [
        {
          "internalType": "address",
          "name": "_wallet",
          "type": "address"
        },
        {
          "internalType": "address",
          "name": "_module",
          "type": "address"
        },
        {
          "internalType": "bytes",
          "name": "data",
          "type": "bytes"
        }
      ],
      "name": "addModule",
      "outputs": [],
      "stateMutability": "nonpayable",
      "type": "function"
    },
    {
      "inputs": [
        {
          "internalType": "address",
          "name": "_wallet",
          "type": "address"
        },
        {
          "internalType": "address",
          "name": "_to",
          "type": "address"
        },
        {
          "internalType": "uint256",
          "name": "_value",
          "type": "uint256"
        },
        {
          "internalType": "bytes",
          "name": "_data",
          "type": "bytes"
        }
      ],
      "name": "executeLargeTransaction",
      "outputs": [
        {
          "internalType": "bytes",
          "name": "_result",
          "type": "bytes"
        }
      ],
      "stateMutability": "nonpayable",
      "type": "function"
    },
    {
      "inputs": [
        {
          "internalType": "address",
          "name": "_wallet",
          "type": "address"
        },
        {
          "components": [
            {
              "internalType": "address",
              "name": "to",
              "type": "address"
            },
            {
              "internalType": "uint256",
              "name": "value",
              "type": "uint256"
            },
            {
              "internalType": "bytes",
              "name": "data",
              "type": "bytes"
            },
            {
              "internalType": "uint256",
              "name": "sequenceId",
              "type": "uint256"
            },
            {
              "internalType": "uint256",
              "name": "expireTime",
              "type": "uint256"
            }
          ],
          "internalType": "struct BaseModule.CallArgs",
          "name": "_args",
          "type": "tuple"
        }
      ],
      "name": "executeTransaction",
      "outputs": [],
      "stateMutability": "nonpayable",
      "type": "function"
    },
    {
      "inputs": [
        {
          "internalType": "address",
          "name": "_wallet",
          "type": "address"
        },
        {
          "internalType": "bytes",
          "name": "data",
          "type": "bytes"
        }
      ],
      "name": "init",
      "outputs": [],
      "stateMutability": "nonpayable",
      "type": "function"
    },
    {
      "inputs": [
        {
          "internalType": "contract IModuleRegistry",
          "name": "_registry",
          "type": "address"
        }
      ],
      "name": "initialize",
      "outputs": [],
      "stateMutability": "nonpayable",
      "type": "function"
    },
    {
      "inputs": [
        {
          "internalType": "address",
          "name": "",
          "type": "address"
        }
      ],
      "name": "paymentInfos",
      "outputs": [
        {
          "internalType": "uint256",
          "name": "daily_upbound",
          "type": "uint256"
        },
        {
          "internalType": "uint256",
          "name": "large_amount_payment",
          "type": "uint256"
        },
        {
          "internalType": "bool",
          "name": "exist",
          "type": "bool"
        }
      ],
      "stateMutability": "view",
      "type": "function"
    }
  ],
  "bytecode": "0x608060405234801561001057600080fd5b50611daa806100206000396000f3fe608060405234801561001057600080fd5b50600436106100625760003560e01c8063198066811461006757806371bf3af1146100995780638279b062146100b5578063837fa03d146100e5578063c0d91eaf14610101578063c4d66de81461011d575b600080fd5b610081600480360381019061007c91906110f9565b610139565b60405161009093929190611832565b60405180910390f35b6100b360048036038101906100ae919061114b565b610170565b005b6100cf60048036038101906100ca91906111b7565b61038b565b6040516100dc91906116b0565b60405180910390f35b6100ff60048036038101906100fa9190611286565b61066e565b005b61011b60048036038101906101169190611232565b6108d2565b005b61013760048036038101906101329190611344565b610ab8565b005b60046020528060005260406000206000915090508060000154908060010154908060020160009054906101000a900460ff16905083565b838073ffffffffffffffffffffffffffffffffffffffff163373ffffffffffffffffffffffffffffffffffffffff16146101df576040517f08c379a00000000000000000000000000000000000000000000000000000000081526004016101d6906117d2565b60405180910390fd5b846101e981610be2565b15610229576040517f08c379a000000000000000000000000000000000000000000000000000000000815260040161022090611772565b60405180910390fd5b60008054906101000a900473ffffffffffffffffffffffffffffffffffffffff1673ffffffffffffffffffffffffffffffffffffffff16630bcd4ebb866040518263ffffffff1660e01b815260040161028291906115bd565b60206040518083038186803b15801561029a57600080fd5b505afa1580156102ae573d6000803e3d6000fd5b505050506040513d601f19601f820116820180604052508101906102d291906112da565b610311576040517f08c379a000000000000000000000000000000000000000000000000000000000815260040161030890611752565b60405180910390fd5b8573ffffffffffffffffffffffffffffffffffffffff1663904723e486600187876040518563ffffffff1660e01b815260040161035194939291906115d8565b600060405180830381600087803b15801561036b57600080fd5b505af115801561037f573d6000803e3d6000fd5b50505050505050505050565b6060848073ffffffffffffffffffffffffffffffffffffffff163373ffffffffffffffffffffffffffffffffffffffff16146103fc576040517f08c379a00000000000000000000000000000000000000000000000000000000081526004016103f3906117d2565b60405180910390fd5b8561040681610be2565b15610446576040517f08c379a000000000000000000000000000000000000000000000000000000000815260040161043d90611772565b60405180910390fd5b3073ffffffffffffffffffffffffffffffffffffffff168673ffffffffffffffffffffffffffffffffffffffff1614156104b5576040517f08c379a00000000000000000000000000000000000000000000000000000000081526004016104ac90611732565b60405180910390fd5b600460008873ffffffffffffffffffffffffffffffffffffffff1673ffffffffffffffffffffffffffffffffffffffff16815260200190815260200160002060020160009054906101000a900460ff16610544576040517f08c379a000000000000000000000000000000000000000000000000000000000815260040161053b90611812565b60405180910390fd5b6000600460008973ffffffffffffffffffffffffffffffffffffffff1673ffffffffffffffffffffffffffffffffffffffff1681526020019081526020016000209050806001015486116105cd576040517f08c379a00000000000000000000000000000000000000000000000000000000081526004016105c4906116d2565b60405180910390fd5b8773ffffffffffffffffffffffffffffffffffffffff1663280ada2a8888886040518463ffffffff1660e01b815260040161060a93929190611618565b600060405180830381600087803b15801561062457600080fd5b505af1158015610638573d6000803e3d6000fd5b505050506040513d6000823e3d601f19601f820116820180604052508101906106619190611303565b9350505050949350505050565b813373ffffffffffffffffffffffffffffffffffffffff168173ffffffffffffffffffffffffffffffffffffffff16638da5cb5b6040518163ffffffff1660e01b815260040160206040518083038186803b1580156106cc57600080fd5b505afa1580156106e0573d6000803e3d6000fd5b505050506040513d601f19601f820116820180604052508101906107049190611122565b73ffffffffffffffffffffffffffffffffffffffff161461075a576040517f08c379a000000000000000000000000000000000000000000000000000000000815260040161075190611792565b60405180910390fd5b8261076481610be2565b156107a4576040517f08c379a000000000000000000000000000000000000000000000000000000000815260040161079b90611772565b60405180910390fd5b600460008573ffffffffffffffffffffffffffffffffffffffff1673ffffffffffffffffffffffffffffffffffffffff16815260200190815260200160002060020160009054906101000a900460ff16610833576040517f08c379a000000000000000000000000000000000000000000000000000000000815260040161082a90611812565b60405180910390fd5b6000600460008673ffffffffffffffffffffffffffffffffffffffff1673ffffffffffffffffffffffffffffffffffffffff16815260200190815260200160002090508060010154846020015111156108c1576040517f08c379a00000000000000000000000000000000000000000000000000000000081526004016108b8906116f2565b60405180910390fd5b6108cb8585610c58565b5050505050565b818073ffffffffffffffffffffffffffffffffffffffff163373ffffffffffffffffffffffffffffffffffffffff1614610941576040517f08c379a0000000000000000000000000000000000000000000000000000000008152600401610938906117d2565b60405180910390fd5b61094a83610d62565b1561098a576040517f08c379a0000000000000000000000000000000000000000000000000000000008152600401610981906117f2565b60405180910390fd5b600460008473ffffffffffffffffffffffffffffffffffffffff1673ffffffffffffffffffffffffffffffffffffffff16815260200190815260200160002060020160009054906101000a900460ff1615610a1a576040517f08c379a0000000000000000000000000000000000000000000000000000000008152600401610a11906117b2565b60405180910390fd5b610a2383610e37565b60008083806020019051810190610a3a919061136d565b915091506000600460008773ffffffffffffffffffffffffffffffffffffffff1673ffffffffffffffffffffffffffffffffffffffff168152602001908152602001600020905082816000018190555081816001018190555060018160020160006101000a81548160ff021916908315150217905550505050505050565b600360019054906101000a900460ff16610ae257600360009054906101000a900460ff1615610aeb565b610aea610e9d565b5b610b2a576040517f08c379a0000000000000000000000000000000000000000000000000000000008152600401610b2190611712565b60405180910390fd5b6000600360019054906101000a900460ff161590508015610b7c576001600360016101000a81548160ff0219169083151502179055506001600360006101000a81548160ff0219169083151502179055505b816000806101000a81548173ffffffffffffffffffffffffffffffffffffffff021916908373ffffffffffffffffffffffffffffffffffffffff1602179055508015610bde576000600360016101000a81548160ff0219169083151502179055505b5050565b60004267ffffffffffffffff16600260008473ffffffffffffffffffffffffffffffffffffffff1673ffffffffffffffffffffffffffffffffffffffff16815260200190815260200160002060000160009054906101000a900467ffffffffffffffff1667ffffffffffffffff16119050919050565b6000816000015190506000826020015190506000836040015190506000846060015190506000856080015190508673ffffffffffffffffffffffffffffffffffffffff1663b14f6c8386868685876040518663ffffffff1660e01b8152600401610cc6959493929190611656565b600060405180830381600087803b158015610ce057600080fd5b505af1158015610cf4573d6000803e3d6000fd5b505050506040513d6000823e3d601f19601f82011682018060405250810190610d1d9190611303565b507f16a95b1f4b59f6a32941b3b48a50be9d4d9f9c4da4cb504681489daabf991928858585604051610d5193929190611618565b60405180910390a150505050505050565b600080600090505b600180549050811015610e2c578273ffffffffffffffffffffffffffffffffffffffff1660018281548110610dc8577f4e487b7100000000000000000000000000000000000000000000000000000000600052603260045260246000fd5b9060005260206000200160009054906101000a900473ffffffffffffffffffffffffffffffffffffffff1673ffffffffffffffffffffffffffffffffffffffff161415610e19576001915050610e32565b8080610e24906119b9565b915050610d6a565b50600090505b919050565b6001819080600181540180825580915050600190039060005260206000200160009091909190916101000a81548173ffffffffffffffffffffffffffffffffffffffff021916908373ffffffffffffffffffffffffffffffffffffffff16021790555050565b6000610ea830610eae565b15905090565b600080823b905060008111915050919050565b6000610ed4610ecf8461188e565b611869565b905082815260208101848484011115610eec57600080fd5b610ef7848285611946565b509392505050565b6000610f12610f0d8461188e565b611869565b905082815260208101848484011115610f2a57600080fd5b610f35848285611955565b509392505050565b600081359050610f4c81611d18565b92915050565b600081519050610f6181611d18565b92915050565b600081519050610f7681611d2f565b92915050565b60008083601f840112610f8e57600080fd5b8235905067ffffffffffffffff811115610fa757600080fd5b602083019150836001820283011115610fbf57600080fd5b9250929050565b600082601f830112610fd757600080fd5b8135610fe7848260208601610ec1565b91505092915050565b600082601f83011261100157600080fd5b8151611011848260208601610eff565b91505092915050565b60008135905061102981611d46565b92915050565b600060a0828403121561104157600080fd5b61104b60a0611869565b9050600061105b84828501610f3d565b600083015250602061106f848285016110cf565b602083015250604082013567ffffffffffffffff81111561108f57600080fd5b61109b84828501610fc6565b60408301525060606110af848285016110cf565b60608301525060806110c3848285016110cf565b60808301525092915050565b6000813590506110de81611d5d565b92915050565b6000815190506110f381611d5d565b92915050565b60006020828403121561110b57600080fd5b600061111984828501610f3d565b91505092915050565b60006020828403121561113457600080fd5b600061114284828501610f52565b91505092915050565b6000806000806060858703121561116157600080fd5b600061116f87828801610f3d565b945050602061118087828801610f3d565b935050604085013567ffffffffffffffff81111561119d57600080fd5b6111a987828801610f7c565b925092505092959194509250565b600080600080608085870312156111cd57600080fd5b60006111db87828801610f3d565b94505060206111ec87828801610f3d565b93505060406111fd878288016110cf565b925050606085013567ffffffffffffffff81111561121a57600080fd5b61122687828801610fc6565b91505092959194509250565b6000806040838503121561124557600080fd5b600061125385828601610f3d565b925050602083013567ffffffffffffffff81111561127057600080fd5b61127c85828601610fc6565b9150509250929050565b6000806040838503121561129957600080fd5b60006112a785828601610f3d565b925050602083013567ffffffffffffffff8111156112c457600080fd5b6112d08582860161102f565b9150509250929050565b6000602082840312156112ec57600080fd5b60006112fa84828501610f67565b91505092915050565b60006020828403121561131557600080fd5b600082015167ffffffffffffffff81111561132f57600080fd5b61133b84828501610ff0565b91505092915050565b60006020828403121561135657600080fd5b60006113648482850161101a565b91505092915050565b6000806040838503121561138057600080fd5b600061138e858286016110e4565b925050602061139f858286016110e4565b9150509250929050565b6113b2816118ec565b82525050565b6113c1816118fe565b82525050565b60006113d383856118ca565b93506113e0838584611946565b6113e983611a60565b840190509392505050565b60006113ff826118bf565b61140981856118ca565b9350611419818560208601611955565b61142281611a60565b840191505092915050565b600061143a6032836118db565b915061144582611a71565b604082019050919050565b600061145d602f836118db565b915061146882611ac0565b604082019050919050565b6000611480602e836118db565b915061148b82611b0f565b604082019050919050565b60006114a36016836118db565b91506114ae82611b5e565b602082019050919050565b60006114c6601c836118db565b91506114d182611b87565b602082019050919050565b60006114e96011836118db565b91506114f482611bb0565b602082019050919050565b600061150c6011836118db565b915061151782611bd9565b602082019050919050565b600061152f6021836118db565b915061153a82611c02565b604082019050919050565b60006115526019836118db565b915061155d82611c51565b602082019050919050565b6000611575602e836118db565b915061158082611c7a565b604082019050919050565b6000611598602d836118db565b91506115a382611cc9565b604082019050919050565b6115b78161193c565b82525050565b60006020820190506115d260008301846113a9565b92915050565b60006060820190506115ed60008301876113a9565b6115fa60208301866113b8565b818103604083015261160d8184866113c7565b905095945050505050565b600060608201905061162d60008301866113a9565b61163a60208301856115ae565b818103604083015261164c81846113f4565b9050949350505050565b600060a08201905061166b60008301886113a9565b61167860208301876115ae565b818103604083015261168a81866113f4565b905061169960608301856115ae565b6116a660808301846115ae565b9695505050505050565b600060208201905081810360008301526116ca81846113f4565b905092915050565b600060208201905081810360008301526116eb8161142d565b9050919050565b6000602082019050818103600083015261170b81611450565b9050919050565b6000602082019050818103600083015261172b81611473565b9050919050565b6000602082019050818103600083015261174b81611496565b9050919050565b6000602082019050818103600083015261176b816114b9565b9050919050565b6000602082019050818103600083015261178b816114dc565b9050919050565b600060208201905081810360008301526117ab816114ff565b9050919050565b600060208201905081810360008301526117cb81611522565b9050919050565b600060208201905081810360008301526117eb81611545565b9050919050565b6000602082019050818103600083015261180b81611568565b9050919050565b6000602082019050818103600083015261182b8161158b565b9050919050565b600060608201905061184760008301866115ae565b61185460208301856115ae565b61186160408301846113b8565b949350505050565b6000611873611884565b905061187f8282611988565b919050565b6000604051905090565b600067ffffffffffffffff8211156118a9576118a8611a31565b5b6118b282611a60565b9050602081019050919050565b600081519050919050565b600082825260208201905092915050565b600082825260208201905092915050565b60006118f78261191c565b9050919050565b60008115159050919050565b6000611915826118ec565b9050919050565b600073ffffffffffffffffffffffffffffffffffffffff82169050919050565b6000819050919050565b82818337600083830152505050565b60005b83811015611973578082015181840152602081019050611958565b83811115611982576000848401525b50505050565b61199182611a60565b810181811067ffffffffffffffff821117156119b0576119af611a31565b5b80604052505050565b60006119c48261193c565b91507fffffffffffffffffffffffffffffffffffffffffffffffffffffffffffffffff8214156119f7576119f6611a02565b5b600182019050919050565b7f4e487b7100000000000000000000000000000000000000000000000000000000600052601160045260246000fd5b7f4e487b7100000000000000000000000000000000000000000000000000000000600052604160045260246000fd5b6000601f19601f8301169050919050565b7f544d3a2053696e676c65207061796d656e74206c6f776572207468616e206c6160008201527f7267655f616d6f756e745f7061796d656e740000000000000000000000000000602082015250565b7f544d3a2053696e676c65207061796d656e742065786363656564206c6172676560008201527f5f616d6f756e745f7061796d656e740000000000000000000000000000000000602082015250565b7f496e697469616c697a61626c653a20636f6e747261637420697320616c72656160008201527f647920696e697469616c697a6564000000000000000000000000000000000000602082015250565b7f544d3a2063616e6e27742063616c6c20697473656c6600000000000000000000600082015250565b7f534d3a206d6f64756c65206973206e6f74207265676973746572656400000000600082015250565b7f424d3a2077616c6c6574206c6f636b6564000000000000000000000000000000600082015250565b7f534d3a206d757374206265206f776e6572000000000000000000000000000000600082015250565b7f544d3a2077616c6c65742065786973747320696e207061796d656e74496e666f60008201527f7300000000000000000000000000000000000000000000000000000000000000602082015250565b7f424d3a2063616c6c6572206d7573742062652077616c6c657400000000000000600082015250565b7f544d3a2073686f756c64206e6f74206164642073616d65206d6f64756c65207460008201527f6f2077616c6c6574207477696365000000000000000000000000000000000000602082015250565b7f544d3a2077616c6c657420646f65736e2774207265676973746572205061796d60008201527f656e744c696d69746174696f6e00000000000000000000000000000000000000602082015250565b611d21816118ec565b8114611d2c57600080fd5b50565b611d38816118fe565b8114611d4357600080fd5b50565b611d4f8161190a565b8114611d5a57600080fd5b50565b611d668161193c565b8114611d7157600080fd5b5056fea2646970667358221220301e975c4892917269916aa59ff9d9bd9d3f299032de1497ce3ac1a05631da3d64736f6c63430008030033",
  "linkReferences": {},
  "deployedLinkReferences": {}
}