{
  "_format": "hh-sol-artifact-1",
  "contractName": "TransactionModule",
  "sourceName": "contracts/TransactionModule.sol",
  "abi": [
    {
      "inputs": [],
      "stateMutability": "nonpayable",
      "type": "constructor"
    },
    {
      "anonymous": false,
      "inputs": [
        {
          "indexed": false,
          "internalType": "address",
          "name": "_wallet",
          "type": "address"
        },
        {
          "indexed": false,
          "internalType": "address",
          "name": "_to",
          "type": "address"
        },
        {
          "indexed": false,
          "internalType": "uint256",
          "name": "_value",
          "type": "uint256"
        },
        {
          "indexed": false,
          "internalType": "bytes",
          "name": "_data",
          "type": "bytes"
        }
      ],
      "name": "ExecuteLargeTransaction",
      "type": "event"
    },
    {
      "anonymous": false,
      "inputs": [
        {
          "indexed": false,
          "internalType": "address",
          "name": "_wallet",
          "type": "address"
        },
        {
          "components": [
            {
              "internalType": "address",
              "name": "to",
              "type": "address"
            },
            {
              "internalType": "uint256",
              "name": "value",
              "type": "uint256"
            },
            {
              "internalType": "bytes",
              "name": "data",
              "type": "bytes"
            },
            {
              "internalType": "uint256",
              "name": "sequenceId",
              "type": "uint256"
            },
            {
              "internalType": "uint256",
              "name": "expireTime",
              "type": "uint256"
            }
          ],
          "indexed": false,
          "internalType": "struct BaseModule.CallArgs",
          "name": "_args",
          "type": "tuple"
        }
      ],
      "name": "ExecuteTransaction",
      "type": "event"
    },
    {
      "anonymous": false,
      "inputs": [
        {
          "indexed": false,
          "internalType": "uint8",
          "name": "version",
          "type": "uint8"
        }
      ],
      "name": "Initialized",
      "type": "event"
    },
    {
      "anonymous": false,
      "inputs": [
        {
          "indexed": false,
          "internalType": "address",
          "name": "to",
          "type": "address"
        },
        {
          "indexed": false,
          "internalType": "uint256",
          "name": "value",
          "type": "uint256"
        },
        {
          "indexed": false,
          "internalType": "bytes",
          "name": "data",
          "type": "bytes"
        }
      ],
      "name": "MultiCalled",
      "type": "event"
    },
    {
      "anonymous": false,
      "inputs": [
        {
          "indexed": false,
          "internalType": "address",
          "name": "_walslet",
          "type": "address"
        },
        {
          "indexed": false,
          "internalType": "bytes",
          "name": "data",
          "type": "bytes"
        }
      ],
      "name": "TMInited",
      "type": "event"
    },
    {
      "anonymous": false,
      "inputs": [
        {
          "indexed": false,
          "internalType": "address",
          "name": "_wallet",
          "type": "address"
        },
        {
          "indexed": false,
          "internalType": "uint256",
          "name": "_dailyUpbound",
          "type": "uint256"
        },
        {
          "indexed": false,
          "internalType": "uint256",
          "name": "_largeAmountPayment",
          "type": "uint256"
        }
      ],
      "name": "TMParameterChanged",
      "type": "event"
    },
    {
      "inputs": [
        {
          "internalType": "address",
          "name": "_moduleRegistry",
          "type": "address"
        },
        {
          "internalType": "address",
          "name": "_wallet",
          "type": "address"
        },
        {
          "internalType": "address",
          "name": "_module",
          "type": "address"
        },
        {
          "internalType": "bytes",
          "name": "data",
          "type": "bytes"
        }
      ],
      "name": "addModule",
      "outputs": [],
      "stateMutability": "nonpayable",
      "type": "function"
    },
    {
      "inputs": [],
      "name": "admin",
      "outputs": [
        {
          "internalType": "address",
          "name": "",
          "type": "address"
        }
      ],
      "stateMutability": "view",
      "type": "function"
    },
    {
      "inputs": [
        {
          "internalType": "address",
          "name": "_wallet",
          "type": "address"
        },
        {
          "internalType": "address",
          "name": "_to",
          "type": "address"
        },
        {
          "internalType": "uint256",
          "name": "_value",
          "type": "uint256"
        },
        {
          "internalType": "bytes",
          "name": "_data",
          "type": "bytes"
        }
      ],
      "name": "executeLargeTransaction",
      "outputs": [
        {
          "internalType": "bytes",
          "name": "_result",
          "type": "bytes"
        }
      ],
      "stateMutability": "nonpayable",
      "type": "function"
    },
    {
      "inputs": [
        {
          "internalType": "address",
          "name": "_wallet",
          "type": "address"
        },
        {
          "components": [
            {
              "internalType": "address",
              "name": "to",
              "type": "address"
            },
            {
              "internalType": "uint256",
              "name": "value",
              "type": "uint256"
            },
            {
              "internalType": "bytes",
              "name": "data",
              "type": "bytes"
            },
            {
              "internalType": "uint256",
              "name": "sequenceId",
              "type": "uint256"
            },
            {
              "internalType": "uint256",
              "name": "expireTime",
              "type": "uint256"
            }
          ],
          "internalType": "struct BaseModule.CallArgs",
          "name": "_args",
          "type": "tuple"
        }
      ],
      "name": "executeTransaction",
      "outputs": [],
      "stateMutability": "nonpayable",
      "type": "function"
    },
    {
      "inputs": [
        {
          "internalType": "address",
          "name": "_wallet",
          "type": "address"
        }
      ],
      "name": "getDailyUpbound",
      "outputs": [
        {
          "internalType": "uint256",
          "name": "",
          "type": "uint256"
        }
      ],
      "stateMutability": "view",
      "type": "function"
    },
    {
      "inputs": [
        {
          "internalType": "address",
          "name": "_wallet",
          "type": "address"
        }
      ],
      "name": "getLargeAmountPayment",
      "outputs": [
        {
          "internalType": "uint256",
          "name": "",
          "type": "uint256"
        }
      ],
      "stateMutability": "view",
      "type": "function"
    },
    {
      "inputs": [],
      "name": "implementation",
      "outputs": [
        {
          "internalType": "address",
          "name": "",
          "type": "address"
        }
      ],
      "stateMutability": "view",
      "type": "function"
    },
    {
      "inputs": [
        {
          "internalType": "address",
          "name": "_wallet",
          "type": "address"
        },
        {
          "internalType": "bytes",
          "name": "data",
          "type": "bytes"
        }
      ],
      "name": "init",
      "outputs": [],
      "stateMutability": "nonpayable",
      "type": "function"
    },
    {
      "inputs": [
        {
          "internalType": "contract IModuleRegistry",
          "name": "_registry",
          "type": "address"
        }
      ],
      "name": "initialize",
      "outputs": [],
      "stateMutability": "nonpayable",
      "type": "function"
    },
    {
      "inputs": [
        {
          "internalType": "address",
          "name": "",
          "type": "address"
        }
      ],
      "name": "paymentInfos",
      "outputs": [
        {
          "internalType": "uint256",
          "name": "dailyUpbound",
          "type": "uint256"
        },
        {
          "internalType": "uint256",
          "name": "largeAmountPayment",
          "type": "uint256"
        },
        {
          "internalType": "bool",
          "name": "exist",
          "type": "bool"
        },
        {
          "internalType": "uint256",
          "name": "dailySpendLeft",
          "type": "uint256"
        },
        {
          "internalType": "uint256",
          "name": "lastSpendWindow",
          "type": "uint256"
        }
      ],
      "stateMutability": "view",
      "type": "function"
    },
    {
      "inputs": [
        {
          "internalType": "address",
          "name": "_wallet",
          "type": "address"
        }
      ],
      "name": "removeModule",
      "outputs": [],
      "stateMutability": "nonpayable",
      "type": "function"
    },
    {
      "inputs": [
        {
          "internalType": "address",
          "name": "_wallet",
          "type": "address"
        },
        {
          "internalType": "uint256",
          "name": "_dailyUpbound",
          "type": "uint256"
        },
        {
          "internalType": "uint256",
          "name": "_largeAmountPayment",
          "type": "uint256"
        }
      ],
      "name": "setTMParameter",
      "outputs": [],
      "stateMutability": "nonpayable",
      "type": "function"
    }
  ],
  "bytecode": "0x608060405234801561001057600080fd5b50611c90806100206000396000f3fe608060405234801561001057600080fd5b50600436106100b45760003560e01c8063acc2968e11610071578063acc2968e146101b8578063b490c3e0146101d9578063c0d91eaf146101ec578063c4d66de8146101ff578063c6963c4514610212578063f851a44014610225576100b4565b806319806681146100b95780635c60da1b146101325780638279b0621461015d578063837fa03d1461017d57806389ff98e414610192578063a0632461146101a5575b600080fd5b6100fa6100c7366004611544565b600560205260009081526040902080546001820154600283015460038401546004909401549293919260ff909116919085565b604051610129959493929190948552602085019390935290151560408401526060830152608082015260a00190565b60405180910390f35b600054610145906001600160a01b031681565b6040516001600160a01b039091168152602001610129565b61017061016b366004611626565b610238565b6040516101299190611a3e565b61019061018b3660046116de565b6105ba565b005b6101906101a0366004611583565b610905565b6101906101b3366004611544565b610b1a565b6101cb6101c6366004611544565b610bc2565b604051908152602001610129565b6101906101e736600461178f565b610c5f565b6101906101fa366004611690565b610e62565b61019061020d366004611544565b610ffa565b6101cb610220366004611544565b611083565b600154610145906001600160a01b031681565b606084336001600160a01b0382161461026c5760405162461bcd60e51b815260040161026390611a9f565b60405180910390fd5b856000816001600160a01b031663a4e2d6346040518163ffffffff1660e01b815260040160206040518083038186803b1580156102a857600080fd5b505afa1580156102bc573d6000803e3d6000fd5b505050506040513d601f19601f820116820180604052508101906102e09190611856565b90506102ed600282611bf6565b1561033a5760405162461bcd60e51b815260206004820152601a60248201527f424d3a2077616c6c6574206c6f636b656420676c6f62616c6c790000000000006044820152606401610263565b6001600160a01b03871630141561038c5760405162461bcd60e51b81526020600482015260166024820152752a269d1031b0b73713ba1031b0b6361034ba39b2b63360511b6044820152606401610263565b6001600160a01b03881660009081526005602052604090206002015460ff166103c75760405162461bcd60e51b815260040161026390611ad6565b6001600160a01b03881660009081526005602052604090206001810154871161044b5760405162461bcd60e51b815260206004820152603060248201527f544d3a2053696e676c65207061796d656e74206c6f776572207468616e206c6160448201526f1c99d9505b5bdd5b9d14185e5b595b9d60821b6064820152608401610263565b8060040154421061047f578054610463908890611b94565b60038201556104754262015180611b7c565b60048201556104e6565b86816003015410156104cc5760405162461bcd60e51b815260206004820152601660248201527515134e91185a5b1e481b1a5b5a5d081c995858da195960521b6044820152606401610263565b868160030160008282546104e09190611b94565b90915550505b7f5ecc7245b8ada49983c60fb43f7ba2bf9d602da91dd71d3ad1e4ab9a175bf5118989898960405161051b949392919061190f565b60405180910390a16040516314056d1560e11b81526000906001600160a01b038b169063280ada2a90610556908c908c908c906004016119dc565b600060405180830381600087803b15801561057057600080fd5b505af1158015610584573d6000803e3d6000fd5b505050506040513d6000823e601f3d908101601f191682016040526105ac91908101906117e3565b9a9950505050505050505050565b81336001600160a01b0316816001600160a01b0316638da5cb5b6040518163ffffffff1660e01b815260040160206040518083038186803b1580156105fe57600080fd5b505afa158015610612573d6000803e3d6000fd5b505050506040513d601f19601f820116820180604052508101906106369190611567565b6001600160a01b0316146106805760405162461bcd60e51b815260206004820152601160248201527021269d1036bab9ba1031329037bbb732b960791b6044820152606401610263565b826000816001600160a01b031663a4e2d6346040518163ffffffff1660e01b815260040160206040518083038186803b1580156106bc57600080fd5b505afa1580156106d0573d6000803e3d6000fd5b505050506040513d601f19601f820116820180604052508101906106f49190611856565b9050610701600282611bf6565b1561074e5760405162461bcd60e51b815260206004820152601a60248201527f424d3a2077616c6c6574206c6f636b656420676c6f62616c6c790000000000006044820152606401610263565b6001600160a01b03851660009081526005602052604090206002015460ff166107895760405162461bcd60e51b815260040161026390611ad6565b6001600160a01b0385166000908152600560209081526040909120600181015491860151909110156108135760405162461bcd60e51b815260206004820152602d60248201527f544d3a2053696e676c65207061796d656e742065786363656564206c6172676560448201526c105b5bdd5b9d14185e5b595b9d609a1b6064820152608401610263565b8060040154421061084b576020850151815461082f9190611b94565b60038201556108414262015180611b7c565b60048201556108ba565b84602001518160030154101561089c5760405162461bcd60e51b815260206004820152601660248201527515134e91185a5b1e481b1a5b5a5d081c995858da195960521b6044820152606401610263565b84602001518160030160008282546108b49190611b94565b90915550505b6108c4868661111e565b7f1b5d7d9142038e9c88db5b5e61838886ab831a44abefba443ccc7c2982ae9ee186866040516108f5929190611978565b60405180910390a1505050505050565b83336001600160a01b0382161461092e5760405162461bcd60e51b815260040161026390611a9f565b84806001600160a01b031663a4e2d6346040518163ffffffff1660e01b815260040160206040518083038186803b15801561096857600080fd5b505afa15801561097c573d6000803e3d6000fd5b505050506040513d601f19601f820116820180604052508101906109a09190611856565b156109e15760405162461bcd60e51b815260206004820152601160248201527010934e881dd85b1b195d081b1bd8dad959607a1b6044820152606401610263565b600254604051630bcd4ebb60e01b81526001600160a01b03878116600483015290911690630bcd4ebb9060240160206040518083038186803b158015610a2657600080fd5b505afa158015610a3a573d6000803e3d6000fd5b505050506040513d601f19601f82011682018060405250810190610a5e91906117c3565b610aaa5760405162461bcd60e51b815260206004820152601c60248201527f544d3a206d6f64756c65206973206e6f742072656769737465726564000000006044820152606401610263565b604051636d1c590560e11b81526001600160a01b0387169063da38b20a90610adf908a9089906001908a908a906004016118bd565b600060405180830381600087803b158015610af957600080fd5b505af1158015610b0d573d6000803e3d6000fd5b5050505050505050505050565b80336001600160a01b03821614610b435760405162461bcd60e51b815260040161026390611a9f565b6001600160a01b03821660009081526005602052604090206002015460ff16610b7e5760405162461bcd60e51b815260040161026390611ad6565b610b8782611207565b506001600160a01b031660009081526005602052604081208181556001810182905560028101805460ff191690556003810182905560040155565b6001600160a01b03811660009081526005602052604081206002015460ff16610bfd5760405162461bcd60e51b815260040161026390611ad6565b506001600160a01b038116600090815260056020908152604091829020825160a081018452815481526001820154928101839052600282015460ff1615159381019390935260038101546060840152600401546080909201919091525b919050565b82336001600160a01b03821614610c885760405162461bcd60e51b815260040161026390611a9f565b83806001600160a01b031663a4e2d6346040518163ffffffff1660e01b815260040160206040518083038186803b158015610cc257600080fd5b505afa158015610cd6573d6000803e3d6000fd5b505050506040513d601f19601f82011682018060405250810190610cfa9190611856565b15610d3b5760405162461bcd60e51b815260206004820152601160248201527010934e881dd85b1b195d081b1bd8dad959607a1b6044820152606401610263565b6001600160a01b03851660009081526005602052604090206002015460ff16610d765760405162461bcd60e51b815260040161026390611ad6565b6001600160a01b0385166000908152600560205260409020805485141580610da2575083816001015414155b610dfc5760405162461bcd60e51b815260206004820152602560248201527f544d3a6d757374206368616e6765206174206c65617374206f6e65207061726160448201526436b2ba32b960d91b6064820152608401610263565b80548514610e08578481555b83816001015414610e1b57600181018490555b604080516001600160a01b0388168152602081018790529081018590527fdc8b788f2c29bd2566dda2a5ed84b4d1adb5643289ac79275c306af046896f54906060016108f5565b81336001600160a01b03821614610e8b5760405162461bcd60e51b815260040161026390611a9f565b610e948361134b565b15610ef85760405162461bcd60e51b815260206004820152602e60248201527f544d3a2073686f756c64206e6f74206164642073616d65206d6f64756c65207460448201526d6f2077616c6c657420747769636560901b6064820152608401610263565b6001600160a01b03831660009081526005602052604090206002015460ff1615610f6e5760405162461bcd60e51b815260206004820152602160248201527f544d3a2077616c6c65742065786973747320696e207061796d656e74496e666f6044820152607360f81b6064820152608401610263565b610f77836113c4565b60008083806020019051810190610f8e919061186e565b6001600160a01b03871660009081526005602052604090819020838155600180820184905560028201805460ff191690911790559051929450909250907f58fc26d5e9fe8d800d65e5e5caf208b0201a3ac373b8ade71e832dca61830a6f906108f5908890889061194c565b6000611006600161146c565b9050801561101e576004805461ff0019166101001790555b600280546001600160a01b0319166001600160a01b038416179055801561107f576004805461ff0019169055604051600181527f7f26b83ff96e1f2b6a682f133852f6798a09c465da95921460cefb38474024989060200160405180910390a15b5050565b6001600160a01b03811660009081526005602052604081206002015460ff166110be5760405162461bcd60e51b815260040161026390611ad6565b506001600160a01b0316600090815260056020908152604091829020825160a0810184528154808252600183015493820193909352600282015460ff16151593810193909352600381015460608401526004015460809092019190915290565b8051602082015160408084015160608501516080860151925163b14f6c8360e01b8152919290916001600160a01b0388169063b14f6c839061116c9088908890889087908990600401611a03565b600060405180830381600087803b15801561118657600080fd5b505af115801561119a573d6000803e3d6000fd5b505050506040513d6000823e601f3d908101601f191682016040526111c291908101906117e3565b507f16a95b1f4b59f6a32941b3b48a50be9d4d9f9c4da4cb504681489daabf9919288585856040516111f6939291906119dc565b60405180910390a150505050505050565b60035460009061121990600190611b94565b905060005b8181101561130557826001600160a01b03166003828154811061125157634e487b7160e01b600052603260045260246000fd5b6000918252602090912001546001600160a01b031614156112f3576003828154811061128d57634e487b7160e01b600052603260045260246000fd5b600091825260209091200154600380546001600160a01b0390921691839081106112c757634e487b7160e01b600052603260045260246000fd5b600091825260209091200180546001600160a01b0319166001600160a01b039290921691909117905550805b806112fd81611bdb565b91505061121e565b50600380548061132557634e487b7160e01b600052603160045260246000fd5b600082815260209020810160001990810180546001600160a01b03191690550190555050565b6000805b6003548110156113bb57826001600160a01b03166003828154811061138457634e487b7160e01b600052603260045260246000fd5b6000918252602090912001546001600160a01b031614156113a9576001915050610c5a565b806113b381611bdb565b91505061134f565b50600092915050565b6113cd8161134b565b1561141a5760405162461bcd60e51b815260206004820152601d60248201527f424d3a2077616c6c657420616c726561647920726567697374657265640000006044820152606401610263565b600380546001810182556000919091527fc2575a0e9e593c00f959f8c92f12db2869c3395a3b0502d05e2516446f71f85b0180546001600160a01b0319166001600160a01b0392909216919091179055565b600454600090610100900460ff16156114b5578160ff1660011480156114915750303b155b6114ad5760405162461bcd60e51b815260040161026390611a51565b506000610c5a565b60045460ff8084169116106114dc5760405162461bcd60e51b815260040161026390611a51565b506004805460ff191660ff83161790556001610c5a565b600082601f830112611503578081fd5b813561151661151182611b54565b611b23565b81815284602083860101111561152a578283fd5b816020850160208301379081016020019190915292915050565b600060208284031215611555578081fd5b813561156081611c42565b9392505050565b600060208284031215611578578081fd5b815161156081611c42565b60008060008060006080868803121561159a578081fd5b85356115a581611c42565b945060208601356115b581611c42565b935060408601356115c581611c42565b9250606086013567ffffffffffffffff808211156115e1578283fd5b818801915088601f8301126115f4578283fd5b813581811115611602578384fd5b896020828501011115611613578384fd5b9699959850939650602001949392505050565b6000806000806080858703121561163b578384fd5b843561164681611c42565b9350602085013561165681611c42565b925060408501359150606085013567ffffffffffffffff811115611678578182fd5b611684878288016114f3565b91505092959194509250565b600080604083850312156116a2578182fd5b82356116ad81611c42565b9150602083013567ffffffffffffffff8111156116c8578182fd5b6116d4858286016114f3565b9150509250929050565b600080604083850312156116f0578182fd5b82356116fb81611c42565b9150602083013567ffffffffffffffff80821115611717578283fd5b9084019060a0828703121561172a578283fd5b61173460a0611b23565b823561173f81611c42565b81526020838101359082015260408301358281111561175c578485fd5b611768888286016114f3565b60408301525060608301356060820152608083013560808201528093505050509250929050565b6000806000606084860312156117a3578283fd5b83356117ae81611c42565b95602085013595506040909401359392505050565b6000602082840312156117d4578081fd5b81518015158114611560578182fd5b6000602082840312156117f4578081fd5b815167ffffffffffffffff81111561180a578182fd5b8201601f8101841361181a578182fd5b805161182861151182611b54565b81815285602083850101111561183c578384fd5b61184d826020830160208601611bab565b95945050505050565b600060208284031215611867578081fd5b5051919050565b60008060408385031215611880578182fd5b505080516020909101519092909150565b600081518084526118a9816020860160208601611bab565b601f01601f19169290920160200192915050565b6001600160a01b03868116825285166020820152831515604082015260806060820181905281018290526000828460a084013781830160a090810191909152601f909201601f19160101949350505050565b6001600160a01b038581168252841660208201526040810183905260806060820181905260009061194290830184611891565b9695505050505050565b6001600160a01b038316815260406020820181905260009061197090830184611891565b949350505050565b6001600160a01b0383811682526040602080840182905284519092168184015290830151606083015282015160a060808301526000906119bb60e0840182611891565b9050606084015160a0840152608084015160c0840152809150509392505050565b600060018060a01b03851682528360208301526060604083015261184d6060830184611891565b600060018060a01b038716825285602083015260a06040830152611a2a60a0830186611891565b606083019490945250608001529392505050565b6000602082526115606020830184611891565b6020808252602e908201527f496e697469616c697a61626c653a20636f6e747261637420697320616c72656160408201526d191e481a5b9a5d1a585b1a5e995960921b606082015260800190565b60208082526019908201527f424d3a2063616c6c6572206d7573742062652077616c6c657400000000000000604082015260600190565b6020808252602d908201527f544d3a2077616c6c657420646f65736e2774207265676973746572205061796d60408201526c32b73a2634b6b4ba30ba34b7b760991b606082015260800190565b604051601f8201601f1916810167ffffffffffffffff81118282101715611b4c57611b4c611c2c565b604052919050565b600067ffffffffffffffff821115611b6e57611b6e611c2c565b50601f01601f191660200190565b60008219821115611b8f57611b8f611c16565b500190565b600082821015611ba657611ba6611c16565b500390565b60005b83811015611bc6578181015183820152602001611bae565b83811115611bd5576000848401525b50505050565b6000600019821415611bef57611bef611c16565b5060010190565b600082611c1157634e487b7160e01b81526012600452602481fd5b500690565b634e487b7160e01b600052601160045260246000fd5b634e487b7160e01b600052604160045260246000fd5b6001600160a01b0381168114611c5757600080fd5b5056fea2646970667358221220160e74778f6222a8415f37c75d0a64bd5f30e3f94d669ddfbb5b1bdfeea1e16a64736f6c63430008030033",
  "linkReferences": {},
  "deployedLinkReferences": {}
}