{
  "_format": "hh-sol-artifact-1",
  "contractName": "TransactionModule",
  "sourceName": "contracts/TransactionModule.sol",
  "abi": [
    {
      "inputs": [],
      "stateMutability": "nonpayable",
      "type": "constructor"
    },
    {
      "anonymous": false,
      "inputs": [
        {
          "indexed": false,
          "internalType": "address",
          "name": "_wallet",
          "type": "address"
        },
        {
          "indexed": false,
          "internalType": "address",
          "name": "_to",
          "type": "address"
        },
        {
          "indexed": false,
          "internalType": "uint256",
          "name": "_value",
          "type": "uint256"
        },
        {
          "indexed": false,
          "internalType": "bytes",
          "name": "_data",
          "type": "bytes"
        }
      ],
      "name": "ExecuteLargeTransaction",
      "type": "event"
    },
    {
      "anonymous": false,
      "inputs": [
        {
          "indexed": false,
          "internalType": "address",
          "name": "_wallet",
          "type": "address"
        },
        {
          "components": [
            {
              "internalType": "address",
              "name": "to",
              "type": "address"
            },
            {
              "internalType": "uint256",
              "name": "value",
              "type": "uint256"
            },
            {
              "internalType": "bytes",
              "name": "data",
              "type": "bytes"
            },
            {
              "internalType": "uint256",
              "name": "sequenceId",
              "type": "uint256"
            },
            {
              "internalType": "uint256",
              "name": "expireTime",
              "type": "uint256"
            }
          ],
          "indexed": false,
          "internalType": "struct BaseModule.CallArgs",
          "name": "_args",
          "type": "tuple"
        }
      ],
      "name": "ExecuteTransaction",
      "type": "event"
    },
    {
      "anonymous": false,
      "inputs": [
        {
          "indexed": false,
          "internalType": "address",
          "name": "to",
          "type": "address"
        },
        {
          "indexed": false,
          "internalType": "uint256",
          "name": "value",
          "type": "uint256"
        },
        {
          "indexed": false,
          "internalType": "bytes",
          "name": "data",
          "type": "bytes"
        }
      ],
      "name": "MultiCalled",
      "type": "event"
    },
    {
      "anonymous": false,
      "inputs": [
        {
          "indexed": false,
          "internalType": "address",
          "name": "_walslet",
          "type": "address"
        },
        {
          "indexed": false,
          "internalType": "bytes",
          "name": "data",
          "type": "bytes"
        }
      ],
      "name": "TMInited",
      "type": "event"
    },
    {
      "anonymous": false,
      "inputs": [
        {
          "indexed": false,
          "internalType": "address",
          "name": "_wallet",
          "type": "address"
        },
        {
          "indexed": false,
          "internalType": "uint256",
          "name": "_dailyUpbound",
          "type": "uint256"
        },
        {
          "indexed": false,
          "internalType": "uint256",
          "name": "_largeAmountPayment",
          "type": "uint256"
        }
      ],
      "name": "TMParameterChanged",
      "type": "event"
    },
    {
      "inputs": [
        {
          "internalType": "address",
          "name": "_moduleRegistry",
          "type": "address"
        },
        {
          "internalType": "address",
          "name": "_wallet",
          "type": "address"
        },
        {
          "internalType": "address",
          "name": "_module",
          "type": "address"
        },
        {
          "internalType": "bytes",
          "name": "data",
          "type": "bytes"
        }
      ],
      "name": "addModule",
      "outputs": [],
      "stateMutability": "nonpayable",
      "type": "function"
    },
    {
      "inputs": [
        {
          "internalType": "address",
          "name": "_wallet",
          "type": "address"
        },
        {
          "internalType": "address",
          "name": "_to",
          "type": "address"
        },
        {
          "internalType": "uint256",
          "name": "_value",
          "type": "uint256"
        },
        {
          "internalType": "bytes",
          "name": "_data",
          "type": "bytes"
        }
      ],
      "name": "executeLargeTransaction",
      "outputs": [
        {
          "internalType": "bytes",
          "name": "_result",
          "type": "bytes"
        }
      ],
      "stateMutability": "nonpayable",
      "type": "function"
    },
    {
      "inputs": [
        {
          "internalType": "address",
          "name": "_wallet",
          "type": "address"
        },
        {
          "components": [
            {
              "internalType": "address",
              "name": "to",
              "type": "address"
            },
            {
              "internalType": "uint256",
              "name": "value",
              "type": "uint256"
            },
            {
              "internalType": "bytes",
              "name": "data",
              "type": "bytes"
            },
            {
              "internalType": "uint256",
              "name": "sequenceId",
              "type": "uint256"
            },
            {
              "internalType": "uint256",
              "name": "expireTime",
              "type": "uint256"
            }
          ],
          "internalType": "struct BaseModule.CallArgs",
          "name": "_args",
          "type": "tuple"
        }
      ],
      "name": "executeTransaction",
      "outputs": [],
      "stateMutability": "nonpayable",
      "type": "function"
    },
    {
      "inputs": [
        {
          "internalType": "address",
          "name": "_wallet",
          "type": "address"
        }
      ],
      "name": "getDailyUpbound",
      "outputs": [
        {
          "internalType": "uint256",
          "name": "",
          "type": "uint256"
        }
      ],
      "stateMutability": "view",
      "type": "function"
    },
    {
      "inputs": [
        {
          "internalType": "address",
          "name": "_wallet",
          "type": "address"
        }
      ],
      "name": "getLargeAmountPayment",
      "outputs": [
        {
          "internalType": "uint256",
          "name": "",
          "type": "uint256"
        }
      ],
      "stateMutability": "view",
      "type": "function"
    },
    {
      "inputs": [
        {
          "internalType": "address",
          "name": "_wallet",
          "type": "address"
        },
        {
          "internalType": "bytes",
          "name": "data",
          "type": "bytes"
        }
      ],
      "name": "init",
      "outputs": [],
      "stateMutability": "nonpayable",
      "type": "function"
    },
    {
      "inputs": [
        {
          "internalType": "contract IModuleRegistry",
          "name": "_registry",
          "type": "address"
        }
      ],
      "name": "initialize",
      "outputs": [],
      "stateMutability": "nonpayable",
      "type": "function"
    },
    {
      "inputs": [
        {
          "internalType": "address",
          "name": "",
          "type": "address"
        }
      ],
      "name": "paymentInfos",
      "outputs": [
        {
          "internalType": "uint256",
          "name": "dailyUpbound",
          "type": "uint256"
        },
        {
          "internalType": "uint256",
          "name": "largeAmountPayment",
          "type": "uint256"
        },
        {
          "internalType": "bool",
          "name": "exist",
          "type": "bool"
        },
        {
          "internalType": "uint256",
          "name": "dailySpendLeft",
          "type": "uint256"
        },
        {
          "internalType": "uint256",
          "name": "lastSpendWindow",
          "type": "uint256"
        }
      ],
      "stateMutability": "view",
      "type": "function"
    },
    {
      "inputs": [
        {
          "internalType": "address",
          "name": "_wallet",
          "type": "address"
        }
      ],
      "name": "removeModule",
      "outputs": [],
      "stateMutability": "nonpayable",
      "type": "function"
    },
    {
      "inputs": [
        {
          "internalType": "address",
          "name": "_wallet",
          "type": "address"
        },
        {
          "internalType": "uint256",
          "name": "_dailyUpbound",
          "type": "uint256"
        },
        {
          "internalType": "uint256",
          "name": "_largeAmountPayment",
          "type": "uint256"
        }
      ],
      "name": "setTMParameter",
      "outputs": [],
      "stateMutability": "nonpayable",
      "type": "function"
    }
  ],
  "bytecode": "0x608060405234801561001057600080fd5b50611ab6806100206000396000f3fe608060405234801561001057600080fd5b506004361061009e5760003560e01c8063acc2968e11610066578063acc2968e14610177578063b490c3e014610198578063c0d91eaf146101ab578063c4d66de8146101be578063c6963c45146101d15761009e565b806319806681146100a35780638279b0621461011c578063837fa03d1461013c57806389ff98e414610151578063a063246114610164575b600080fd5b6100e46100b13660046113c5565b600560205260009081526040902080546001820154600283015460038401546004909401549293919260ff909116919085565b604051610113959493929190948552602085019390935290151560408401526060830152608082015260a00190565b60405180910390f35b61012f61012a3660046114a7565b6101e4565b60405161011391906118a7565b61014f61014a36600461155f565b61053d565b005b61014f61015f366004611404565b610813565b61014f6101723660046113c5565b61099c565b61018a6101853660046113c5565b610a44565b604051908152602001610113565b61014f6101a6366004611610565b610ae1565b61014f6101b9366004611511565b610c64565b61014f6101cc3660046113c5565b610dfc565b61018a6101df3660046113c5565b610ecb565b606084336001600160a01b038216146102185760405162461bcd60e51b815260040161020f906118e5565b60405180910390fd5b8561022281610f66565b1561023f5760405162461bcd60e51b815260040161020f906118ba565b6001600160a01b0386163014156102915760405162461bcd60e51b81526020600482015260166024820152752a269d1031b0b73713ba1031b0b6361034ba39b2b63360511b604482015260640161020f565b6001600160a01b03871660009081526005602052604090206002015460ff166102cc5760405162461bcd60e51b815260040161020f9061191c565b6001600160a01b0387166000908152600560205260409020600181015486116103505760405162461bcd60e51b815260206004820152603060248201527f544d3a2053696e676c65207061796d656e74206c6f776572207468616e206c6160448201526f1c99d9505b5bdd5b9d14185e5b595b9d60821b606482015260840161020f565b806004015442106103845780546103689087906119da565b600382015561037a42620151806119c2565b60048201556103eb565b85816003015410156103d15760405162461bcd60e51b815260206004820152601660248201527515134e91185a5b1e481b1a5b5a5d081c995858da195960521b604482015260640161020f565b858160030160008282546103e591906119da565b90915550505b7f5ecc7245b8ada49983c60fb43f7ba2bf9d602da91dd71d3ad1e4ab9a175bf511888888886040516104209493929190611778565b60405180910390a16040516314056d1560e11b81526000906001600160a01b038a169063280ada2a9061045b908b908b908b90600401611845565b600060405180830381600087803b15801561047557600080fd5b505af1158015610489573d6000803e3d6000fd5b505050506040513d6000823e601f3d908101601f191682016040526104b19190810190611664565b905061053189600354426104c591906119c2565b60408051808201825267ffffffffffffffff928316815263413cd83160e11b60208083019182526001600160a01b0395909516600090815260029095529190932092518354915160e01c600160401b026bffffffffffffffffffffffff19909216921691909117179055565b98975050505050505050565b81336001600160a01b0316816001600160a01b0316638da5cb5b6040518163ffffffff1660e01b815260040160206040518083038186803b15801561058157600080fd5b505afa158015610595573d6000803e3d6000fd5b505050506040513d601f19601f820116820180604052508101906105b991906113e8565b6001600160a01b0316146106035760405162461bcd60e51b815260206004820152601160248201527021269d1036bab9ba1031329037bbb732b960791b604482015260640161020f565b8261060d81610f66565b6003141561065d5760405162461bcd60e51b815260206004820152601960248201527f424d3a77616c6c6574206c6f636b656420676c6f62616c6c7900000000000000604482015260640161020f565b6001600160a01b03841660009081526005602052604090206002015460ff166106985760405162461bcd60e51b815260040161020f9061191c565b6001600160a01b0384166000908152600560209081526040909120600181015491850151909110156107225760405162461bcd60e51b815260206004820152602d60248201527f544d3a2053696e676c65207061796d656e742065786363656564206c6172676560448201526c105b5bdd5b9d14185e5b595b9d609a1b606482015260840161020f565b8060040154421061075a576020840151815461073e91906119da565b600382015561075042620151806119c2565b60048201556107c9565b8360200151816003015410156107ab5760405162461bcd60e51b815260206004820152601660248201527515134e91185a5b1e481b1a5b5a5d081c995858da195960521b604482015260640161020f565b83602001518160030160008282546107c391906119da565b90915550505b6107d38585611029565b7f1b5d7d9142038e9c88db5b5e61838886ab831a44abefba443ccc7c2982ae9ee185856040516108049291906117e1565b60405180910390a15050505050565b83336001600160a01b0382161461083c5760405162461bcd60e51b815260040161020f906118e5565b8461084681610f66565b156108635760405162461bcd60e51b815260040161020f906118ba565b600054604051630bcd4ebb60e01b81526001600160a01b03878116600483015290911690630bcd4ebb9060240160206040518083038186803b1580156108a857600080fd5b505afa1580156108bc573d6000803e3d6000fd5b505050506040513d601f19601f820116820180604052508101906108e09190611644565b61092c5760405162461bcd60e51b815260206004820152601c60248201527f544d3a206d6f64756c65206973206e6f74207265676973746572656400000000604482015260640161020f565b604051636d1c590560e11b81526001600160a01b0387169063da38b20a90610961908a9089906001908a908a90600401611726565b600060405180830381600087803b15801561097b57600080fd5b505af115801561098f573d6000803e3d6000fd5b5050505050505050505050565b80336001600160a01b038216146109c55760405162461bcd60e51b815260040161020f906118e5565b6001600160a01b03821660009081526005602052604090206002015460ff16610a005760405162461bcd60e51b815260040161020f9061191c565b610a0982611112565b506001600160a01b031660009081526005602052604081208181556001810182905560028101805460ff191690556003810182905560040155565b6001600160a01b03811660009081526005602052604081206002015460ff16610a7f5760405162461bcd60e51b815260040161020f9061191c565b506001600160a01b038116600090815260056020908152604091829020825160a081018452815481526001820154928101839052600282015460ff1615159381019390935260038101546060840152600401546080909201919091525b919050565b82336001600160a01b03821614610b0a5760405162461bcd60e51b815260040161020f906118e5565b83610b1481610f66565b15610b315760405162461bcd60e51b815260040161020f906118ba565b6001600160a01b03851660009081526005602052604090206002015460ff16610b6c5760405162461bcd60e51b815260040161020f9061191c565b6001600160a01b0385166000908152600560205260409020805485141580610b98575083816001015414155b610bf25760405162461bcd60e51b815260206004820152602560248201527f544d3a6d757374206368616e6765206174206c65617374206f6e65207061726160448201526436b2ba32b960d91b606482015260840161020f565b80548514610bfe578481555b83816001015414610c1157600181018490555b604080516001600160a01b0388168152602081018790529081018590527fdc8b788f2c29bd2566dda2a5ed84b4d1adb5643289ac79275c306af046896f54906060015b60405180910390a1505050505050565b81336001600160a01b03821614610c8d5760405162461bcd60e51b815260040161020f906118e5565b610c9683611254565b15610cfa5760405162461bcd60e51b815260206004820152602e60248201527f544d3a2073686f756c64206e6f74206164642073616d65206d6f64756c65207460448201526d6f2077616c6c657420747769636560901b606482015260840161020f565b6001600160a01b03831660009081526005602052604090206002015460ff1615610d705760405162461bcd60e51b815260206004820152602160248201527f544d3a2077616c6c65742065786973747320696e207061796d656e74496e666f6044820152607360f81b606482015260840161020f565b610d79836112cd565b60008083806020019051810190610d9091906116d7565b6001600160a01b03871660009081526005602052604090819020838155600180820184905560028201805460ff191690911790559051929450909250907f58fc26d5e9fe8d800d65e5e5caf208b0201a3ac373b8ade71e832dca61830a6f90610c5490889088906117b5565b600454610100900460ff1680610e15575060045460ff16155b610e785760405162461bcd60e51b815260206004820152602e60248201527f496e697469616c697a61626c653a20636f6e747261637420697320616c72656160448201526d191e481a5b9a5d1a585b1a5e995960921b606482015260840161020f565b600454610100900460ff16158015610e9a576004805461ffff19166101011790555b600080546001600160a01b0319166001600160a01b0384161790558015610ec7576004805461ff00191690555b5050565b6001600160a01b03811660009081526005602052604081206002015460ff16610f065760405162461bcd60e51b815260040161020f9061191c565b506001600160a01b0316600090815260056020908152604091829020825160a0810184528154808252600183015493820193909352600282015460ff16151593810193909352600381015460608401526004015460809092019190915290565b6001600160a01b03811660009081526002602052604081205467ffffffffffffffff42811691161115611021576001600160a01b038216600090815260026020526040902054600160401b900460e01b6001600160e01b03191663111cfaab60e11b1415610fd657506001610adc565b6001600160a01b038216600090815260026020526040902054600160401b900460e01b6001600160e01b03191663413cd83160e11b141561101957506002610adc565b506003610adc565b506000919050565b8051602082015160408084015160608501516080860151925163b14f6c8360e01b8152919290916001600160a01b0388169063b14f6c8390611077908890889088908790899060040161186c565b600060405180830381600087803b15801561109157600080fd5b505af11580156110a5573d6000803e3d6000fd5b505050506040513d6000823e601f3d908101601f191682016040526110cd9190810190611664565b507f16a95b1f4b59f6a32941b3b48a50be9d4d9f9c4da4cb504681489daabf99192885858560405161110193929190611845565b60405180910390a150505050505050565b60018054600091611122916119da565b905060005b8181101561120e57826001600160a01b03166001828154811061115a57634e487b7160e01b600052603260045260246000fd5b6000918252602090912001546001600160a01b031614156111fc576001828154811061119657634e487b7160e01b600052603260045260246000fd5b600091825260209091200154600180546001600160a01b0390921691839081106111d057634e487b7160e01b600052603260045260246000fd5b600091825260209091200180546001600160a01b0319166001600160a01b039290921691909117905550805b8061120681611a21565b915050611127565b50600180548061122e57634e487b7160e01b600052603160045260246000fd5b600082815260209020810160001990810180546001600160a01b03191690550190555050565b6000805b6001548110156112c457826001600160a01b03166001828154811061128d57634e487b7160e01b600052603260045260246000fd5b6000918252602090912001546001600160a01b031614156112b2576001915050610adc565b806112bc81611a21565b915050611258565b50600092915050565b6112d681611254565b156113235760405162461bcd60e51b815260206004820152601d60248201527f424d3a2077616c6c657420616c72656164792072656769737465726564000000604482015260640161020f565b6001805480820182556000919091527fb10e2d527612073b26eecdfd717e6a320cf44b4afac2b0732d9fcbe2b7fa0cf60180546001600160a01b0319166001600160a01b0392909216919091179055565b600082601f830112611384578081fd5b81356113976113928261199a565b611969565b8181528460208386010111156113ab578283fd5b816020850160208301379081016020019190915292915050565b6000602082840312156113d6578081fd5b81356113e181611a68565b9392505050565b6000602082840312156113f9578081fd5b81516113e181611a68565b60008060008060006080868803121561141b578081fd5b853561142681611a68565b9450602086013561143681611a68565b9350604086013561144681611a68565b9250606086013567ffffffffffffffff80821115611462578283fd5b818801915088601f830112611475578283fd5b813581811115611483578384fd5b896020828501011115611494578384fd5b9699959850939650602001949392505050565b600080600080608085870312156114bc578384fd5b84356114c781611a68565b935060208501356114d781611a68565b925060408501359150606085013567ffffffffffffffff8111156114f9578182fd5b61150587828801611374565b91505092959194509250565b60008060408385031215611523578182fd5b823561152e81611a68565b9150602083013567ffffffffffffffff811115611549578182fd5b61155585828601611374565b9150509250929050565b60008060408385031215611571578182fd5b823561157c81611a68565b9150602083013567ffffffffffffffff80821115611598578283fd5b9084019060a082870312156115ab578283fd5b6115b560a0611969565b82356115c081611a68565b8152602083810135908201526040830135828111156115dd578485fd5b6115e988828601611374565b60408301525060608301356060820152608083013560808201528093505050509250929050565b600080600060608486031215611624578283fd5b833561162f81611a68565b95602085013595506040909401359392505050565b600060208284031215611655578081fd5b815180151581146113e1578182fd5b600060208284031215611675578081fd5b815167ffffffffffffffff81111561168b578182fd5b8201601f8101841361169b578182fd5b80516116a96113928261199a565b8181528560208385010111156116bd578384fd5b6116ce8260208301602086016119f1565b95945050505050565b600080604083850312156116e9578182fd5b505080516020909101519092909150565b600081518084526117128160208601602086016119f1565b601f01601f19169290920160200192915050565b6001600160a01b03868116825285166020820152831515604082015260806060820181905281018290526000828460a084013781830160a090810191909152601f909201601f19160101949350505050565b6001600160a01b03858116825284166020820152604081018390526080606082018190526000906117ab908301846116fa565b9695505050505050565b6001600160a01b03831681526040602082018190526000906117d9908301846116fa565b949350505050565b6001600160a01b0383811682526040602080840182905284519092168184015290830151606083015282015160a0608083015260009061182460e08401826116fa565b9050606084015160a0840152608084015160c0840152809150509392505050565b600060018060a01b0385168252836020830152606060408301526116ce60608301846116fa565b600060018060a01b038716825285602083015260a0604083015261189360a08301866116fa565b606083019490945250608001529392505050565b6000602082526113e160208301846116fa565b60208082526011908201527010934e881dd85b1b195d081b1bd8dad959607a1b604082015260600190565b60208082526019908201527f424d3a2063616c6c6572206d7573742062652077616c6c657400000000000000604082015260600190565b6020808252602d908201527f544d3a2077616c6c657420646f65736e2774207265676973746572205061796d60408201526c32b73a2634b6b4ba30ba34b7b760991b606082015260800190565b604051601f8201601f1916810167ffffffffffffffff8111828210171561199257611992611a52565b604052919050565b600067ffffffffffffffff8211156119b4576119b4611a52565b50601f01601f191660200190565b600082198211156119d5576119d5611a3c565b500190565b6000828210156119ec576119ec611a3c565b500390565b60005b83811015611a0c5781810151838201526020016119f4565b83811115611a1b576000848401525b50505050565b6000600019821415611a3557611a35611a3c565b5060010190565b634e487b7160e01b600052601160045260246000fd5b634e487b7160e01b600052604160045260246000fd5b6001600160a01b0381168114611a7d57600080fd5b5056fea2646970667358221220aeafdd3562cc74e2c1dad866ed14713b903cc581f4c12480fad309129998806664736f6c63430008030033",
  "linkReferences": {},
  "deployedLinkReferences": {}
}