{
  "_format": "hh-sol-artifact-1",
  "contractName": "TransactionModule",
  "sourceName": "contracts/TransactionModule.sol",
  "abi": [
    {
      "inputs": [],
      "stateMutability": "nonpayable",
      "type": "constructor"
    },
    {
      "anonymous": false,
      "inputs": [
        {
          "indexed": false,
          "internalType": "address",
          "name": "_wallet",
          "type": "address"
        },
        {
          "indexed": false,
          "internalType": "address",
          "name": "_to",
          "type": "address"
        },
        {
          "indexed": false,
          "internalType": "uint256",
          "name": "_value",
          "type": "uint256"
        },
        {
          "indexed": false,
          "internalType": "bytes",
          "name": "_data",
          "type": "bytes"
        }
      ],
      "name": "ExecuteLargeTransaction",
      "type": "event"
    },
    {
      "anonymous": false,
      "inputs": [
        {
          "indexed": false,
          "internalType": "address",
          "name": "_wallet",
          "type": "address"
        },
        {
          "components": [
            {
              "internalType": "address",
              "name": "to",
              "type": "address"
            },
            {
              "internalType": "uint256",
              "name": "value",
              "type": "uint256"
            },
            {
              "internalType": "bytes",
              "name": "data",
              "type": "bytes"
            },
            {
              "internalType": "uint256",
              "name": "sequenceId",
              "type": "uint256"
            },
            {
              "internalType": "uint256",
              "name": "expireTime",
              "type": "uint256"
            }
          ],
          "indexed": false,
          "internalType": "struct BaseModule.CallArgs",
          "name": "_args",
          "type": "tuple"
        }
      ],
      "name": "ExecuteTransaction",
      "type": "event"
    },
    {
      "anonymous": false,
      "inputs": [
        {
          "indexed": false,
          "internalType": "address",
          "name": "to",
          "type": "address"
        },
        {
          "indexed": false,
          "internalType": "uint256",
          "name": "value",
          "type": "uint256"
        },
        {
          "indexed": false,
          "internalType": "bytes",
          "name": "data",
          "type": "bytes"
        }
      ],
      "name": "MultiCalled",
      "type": "event"
    },
    {
      "anonymous": false,
      "inputs": [
        {
          "indexed": false,
          "internalType": "address",
          "name": "_walslet",
          "type": "address"
        },
        {
          "indexed": false,
          "internalType": "bytes",
          "name": "data",
          "type": "bytes"
        }
      ],
      "name": "TMInited",
      "type": "event"
    },
    {
      "anonymous": false,
      "inputs": [
        {
          "indexed": false,
          "internalType": "address",
          "name": "_wallet",
          "type": "address"
        },
        {
          "indexed": false,
          "internalType": "uint256",
          "name": "_dailyUpbound",
          "type": "uint256"
        },
        {
          "indexed": false,
          "internalType": "uint256",
          "name": "_largeAmountPayment",
          "type": "uint256"
        }
      ],
      "name": "TMParameterChanged",
      "type": "event"
    },
    {
      "inputs": [
        {
          "internalType": "address",
          "name": "_moduleRegistry",
          "type": "address"
        },
        {
          "internalType": "address",
          "name": "_wallet",
          "type": "address"
        },
        {
          "internalType": "address",
          "name": "_module",
          "type": "address"
        },
        {
          "internalType": "bytes",
          "name": "data",
          "type": "bytes"
        }
      ],
      "name": "addModule",
      "outputs": [],
      "stateMutability": "nonpayable",
      "type": "function"
    },
    {
      "inputs": [
        {
          "internalType": "address",
          "name": "_wallet",
          "type": "address"
        },
        {
          "internalType": "address",
          "name": "_to",
          "type": "address"
        },
        {
          "internalType": "uint256",
          "name": "_value",
          "type": "uint256"
        },
        {
          "internalType": "bytes",
          "name": "_data",
          "type": "bytes"
        }
      ],
      "name": "executeLargeTransaction",
      "outputs": [
        {
          "internalType": "bytes",
          "name": "_result",
          "type": "bytes"
        }
      ],
      "stateMutability": "nonpayable",
      "type": "function"
    },
    {
      "inputs": [
        {
          "internalType": "address",
          "name": "_wallet",
          "type": "address"
        },
        {
          "components": [
            {
              "internalType": "address",
              "name": "to",
              "type": "address"
            },
            {
              "internalType": "uint256",
              "name": "value",
              "type": "uint256"
            },
            {
              "internalType": "bytes",
              "name": "data",
              "type": "bytes"
            },
            {
              "internalType": "uint256",
              "name": "sequenceId",
              "type": "uint256"
            },
            {
              "internalType": "uint256",
              "name": "expireTime",
              "type": "uint256"
            }
          ],
          "internalType": "struct BaseModule.CallArgs",
          "name": "_args",
          "type": "tuple"
        }
      ],
      "name": "executeTransaction",
      "outputs": [],
      "stateMutability": "nonpayable",
      "type": "function"
    },
    {
      "inputs": [
        {
          "internalType": "address",
          "name": "_wallet",
          "type": "address"
        }
      ],
      "name": "getDailyUpbound",
      "outputs": [
        {
          "internalType": "uint256",
          "name": "",
          "type": "uint256"
        }
      ],
      "stateMutability": "view",
      "type": "function"
    },
    {
      "inputs": [
        {
          "internalType": "address",
          "name": "_wallet",
          "type": "address"
        }
      ],
      "name": "getLargeAmountPayment",
      "outputs": [
        {
          "internalType": "uint256",
          "name": "",
          "type": "uint256"
        }
      ],
      "stateMutability": "view",
      "type": "function"
    },
    {
      "inputs": [],
      "name": "implementation",
      "outputs": [
        {
          "internalType": "address",
          "name": "",
          "type": "address"
        }
      ],
      "stateMutability": "view",
      "type": "function"
    },
    {
      "inputs": [
        {
          "internalType": "address",
          "name": "_wallet",
          "type": "address"
        },
        {
          "internalType": "bytes",
          "name": "data",
          "type": "bytes"
        }
      ],
      "name": "init",
      "outputs": [],
      "stateMutability": "nonpayable",
      "type": "function"
    },
    {
      "inputs": [
        {
          "internalType": "contract IModuleRegistry",
          "name": "_registry",
          "type": "address"
        }
      ],
      "name": "initialize",
      "outputs": [],
      "stateMutability": "nonpayable",
      "type": "function"
    },
    {
      "inputs": [
        {
          "internalType": "address",
          "name": "",
          "type": "address"
        }
      ],
      "name": "paymentInfos",
      "outputs": [
        {
          "internalType": "uint256",
          "name": "dailyUpbound",
          "type": "uint256"
        },
        {
          "internalType": "uint256",
          "name": "largeAmountPayment",
          "type": "uint256"
        },
        {
          "internalType": "bool",
          "name": "exist",
          "type": "bool"
        },
        {
          "internalType": "uint256",
          "name": "dailySpendLeft",
          "type": "uint256"
        },
        {
          "internalType": "uint256",
          "name": "lastSpendWindow",
          "type": "uint256"
        }
      ],
      "stateMutability": "view",
      "type": "function"
    },
    {
      "inputs": [
        {
          "internalType": "address",
          "name": "_wallet",
          "type": "address"
        }
      ],
      "name": "removeModule",
      "outputs": [],
      "stateMutability": "nonpayable",
      "type": "function"
    },
    {
      "inputs": [
        {
          "internalType": "address",
          "name": "_wallet",
          "type": "address"
        },
        {
          "internalType": "uint256",
          "name": "_dailyUpbound",
          "type": "uint256"
        },
        {
          "internalType": "uint256",
          "name": "_largeAmountPayment",
          "type": "uint256"
        }
      ],
      "name": "setTMParameter",
      "outputs": [],
      "stateMutability": "nonpayable",
      "type": "function"
    }
  ],
  "bytecode": "0x608060405234801561001057600080fd5b50611bea806100206000396000f3fe608060405234801561001057600080fd5b50600436106100a95760003560e01c8063a063246111610071578063a06324611461019b578063acc2968e146101ae578063b490c3e0146101cf578063c0d91eaf146101e2578063c4d66de8146101f5578063c6963c4514610208576100a9565b806319806681146100ae5780635c60da1b146101285780638279b06214610153578063837fa03d1461017357806389ff98e414610188575b600080fd5b6100f06100bc3660046114ec565b6004602081905260009182526040909120805460018201546002830154600384015493909401549193909260ff9091169185565b60405161011f959493929190948552602085019390935290151560408401526060830152608082015260a00190565b60405180910390f35b60005461013b906001600160a01b031681565b6040516001600160a01b03909116815260200161011f565b6101666101613660046115ce565b61021b565b60405161011f91906119e6565b610186610181366004611686565b61059d565b005b61018661019636600461152b565b6108e8565b6101866101a93660046114ec565b610afd565b6101c16101bc3660046114ec565b610ba5565b60405190815260200161011f565b6101866101dd366004611737565b610c42565b6101866101f0366004611638565b610e45565b6101866102033660046114ec565b610fdd565b6101c16102163660046114ec565b6110b2565b606084336001600160a01b0382161461024f5760405162461bcd60e51b8152600401610246906119f9565b60405180910390fd5b856000816001600160a01b031663a4e2d6346040518163ffffffff1660e01b815260040160206040518083038186803b15801561028b57600080fd5b505afa15801561029f573d6000803e3d6000fd5b505050506040513d601f19601f820116820180604052508101906102c391906117fe565b90506102d0600282611b50565b1561031d5760405162461bcd60e51b815260206004820152601a60248201527f424d3a2077616c6c6574206c6f636b656420676c6f62616c6c790000000000006044820152606401610246565b6001600160a01b03871630141561036f5760405162461bcd60e51b81526020600482015260166024820152752a269d1031b0b73713ba1031b0b6361034ba39b2b63360511b6044820152606401610246565b6001600160a01b03881660009081526004602052604090206002015460ff166103aa5760405162461bcd60e51b815260040161024690611a30565b6001600160a01b03881660009081526004602052604090206001810154871161042e5760405162461bcd60e51b815260206004820152603060248201527f544d3a2053696e676c65207061796d656e74206c6f776572207468616e206c6160448201526f1c99d9505b5bdd5b9d14185e5b595b9d60821b6064820152608401610246565b80600401544210610462578054610446908890611aee565b60038201556104584262015180611ad6565b60048201556104c9565b86816003015410156104af5760405162461bcd60e51b815260206004820152601660248201527515134e91185a5b1e481b1a5b5a5d081c995858da195960521b6044820152606401610246565b868160030160008282546104c39190611aee565b90915550505b7f5ecc7245b8ada49983c60fb43f7ba2bf9d602da91dd71d3ad1e4ab9a175bf511898989896040516104fe94939291906118b7565b60405180910390a16040516314056d1560e11b81526000906001600160a01b038b169063280ada2a90610539908c908c908c90600401611984565b600060405180830381600087803b15801561055357600080fd5b505af1158015610567573d6000803e3d6000fd5b505050506040513d6000823e601f3d908101601f1916820160405261058f919081019061178b565b9a9950505050505050505050565b81336001600160a01b0316816001600160a01b0316638da5cb5b6040518163ffffffff1660e01b815260040160206040518083038186803b1580156105e157600080fd5b505afa1580156105f5573d6000803e3d6000fd5b505050506040513d601f19601f82011682018060405250810190610619919061150f565b6001600160a01b0316146106635760405162461bcd60e51b815260206004820152601160248201527021269d1036bab9ba1031329037bbb732b960791b6044820152606401610246565b826000816001600160a01b031663a4e2d6346040518163ffffffff1660e01b815260040160206040518083038186803b15801561069f57600080fd5b505afa1580156106b3573d6000803e3d6000fd5b505050506040513d601f19601f820116820180604052508101906106d791906117fe565b90506106e4600282611b50565b156107315760405162461bcd60e51b815260206004820152601a60248201527f424d3a2077616c6c6574206c6f636b656420676c6f62616c6c790000000000006044820152606401610246565b6001600160a01b03851660009081526004602052604090206002015460ff1661076c5760405162461bcd60e51b815260040161024690611a30565b6001600160a01b0385166000908152600460209081526040909120600181015491860151909110156107f65760405162461bcd60e51b815260206004820152602d60248201527f544d3a2053696e676c65207061796d656e742065786363656564206c6172676560448201526c105b5bdd5b9d14185e5b595b9d609a1b6064820152608401610246565b8060040154421061082e57602085015181546108129190611aee565b60038201556108244262015180611ad6565b600482015561089d565b84602001518160030154101561087f5760405162461bcd60e51b815260206004820152601660248201527515134e91185a5b1e481b1a5b5a5d081c995858da195960521b6044820152606401610246565b84602001518160030160008282546108979190611aee565b90915550505b6108a7868661114d565b7f1b5d7d9142038e9c88db5b5e61838886ab831a44abefba443ccc7c2982ae9ee186866040516108d8929190611920565b60405180910390a1505050505050565b83336001600160a01b038216146109115760405162461bcd60e51b8152600401610246906119f9565b84806001600160a01b031663a4e2d6346040518163ffffffff1660e01b815260040160206040518083038186803b15801561094b57600080fd5b505afa15801561095f573d6000803e3d6000fd5b505050506040513d601f19601f8201168201806040525081019061098391906117fe565b156109c45760405162461bcd60e51b815260206004820152601160248201527010934e881dd85b1b195d081b1bd8dad959607a1b6044820152606401610246565b600154604051630bcd4ebb60e01b81526001600160a01b03878116600483015290911690630bcd4ebb9060240160206040518083038186803b158015610a0957600080fd5b505afa158015610a1d573d6000803e3d6000fd5b505050506040513d601f19601f82011682018060405250810190610a41919061176b565b610a8d5760405162461bcd60e51b815260206004820152601c60248201527f544d3a206d6f64756c65206973206e6f742072656769737465726564000000006044820152606401610246565b604051636d1c590560e11b81526001600160a01b0387169063da38b20a90610ac2908a9089906001908a908a90600401611865565b600060405180830381600087803b158015610adc57600080fd5b505af1158015610af0573d6000803e3d6000fd5b5050505050505050505050565b80336001600160a01b03821614610b265760405162461bcd60e51b8152600401610246906119f9565b6001600160a01b03821660009081526004602052604090206002015460ff16610b615760405162461bcd60e51b815260040161024690611a30565b610b6a82611236565b506001600160a01b0316600090815260046020819052604082208281556001810183905560028101805460ff19169055600381018390550155565b6001600160a01b03811660009081526004602052604081206002015460ff16610be05760405162461bcd60e51b815260040161024690611a30565b506001600160a01b038116600090815260046020818152604092839020835160a081018552815481526001820154928101839052600282015460ff1615159481019490945260038101546060850152909101546080909201919091525b919050565b82336001600160a01b03821614610c6b5760405162461bcd60e51b8152600401610246906119f9565b83806001600160a01b031663a4e2d6346040518163ffffffff1660e01b815260040160206040518083038186803b158015610ca557600080fd5b505afa158015610cb9573d6000803e3d6000fd5b505050506040513d601f19601f82011682018060405250810190610cdd91906117fe565b15610d1e5760405162461bcd60e51b815260206004820152601160248201527010934e881dd85b1b195d081b1bd8dad959607a1b6044820152606401610246565b6001600160a01b03851660009081526004602052604090206002015460ff16610d595760405162461bcd60e51b815260040161024690611a30565b6001600160a01b0385166000908152600460205260409020805485141580610d85575083816001015414155b610ddf5760405162461bcd60e51b815260206004820152602560248201527f544d3a6d757374206368616e6765206174206c65617374206f6e65207061726160448201526436b2ba32b960d91b6064820152608401610246565b80548514610deb578481555b83816001015414610dfe57600181018490555b604080516001600160a01b0388168152602081018790529081018590527fdc8b788f2c29bd2566dda2a5ed84b4d1adb5643289ac79275c306af046896f54906060016108d8565b81336001600160a01b03821614610e6e5760405162461bcd60e51b8152600401610246906119f9565b610e778361137a565b15610edb5760405162461bcd60e51b815260206004820152602e60248201527f544d3a2073686f756c64206e6f74206164642073616d65206d6f64756c65207460448201526d6f2077616c6c657420747769636560901b6064820152608401610246565b6001600160a01b03831660009081526004602052604090206002015460ff1615610f515760405162461bcd60e51b815260206004820152602160248201527f544d3a2077616c6c65742065786973747320696e207061796d656e74496e666f6044820152607360f81b6064820152608401610246565b610f5a836113f3565b60008083806020019051810190610f719190611816565b6001600160a01b03871660009081526004602052604090819020838155600180820184905560028201805460ff191690911790559051929450909250907f58fc26d5e9fe8d800d65e5e5caf208b0201a3ac373b8ade71e832dca61830a6f906108d890889088906118f4565b600354610100900460ff16610ff85760035460ff1615610ffc565b303b155b61105f5760405162461bcd60e51b815260206004820152602e60248201527f496e697469616c697a61626c653a20636f6e747261637420697320616c72656160448201526d191e481a5b9a5d1a585b1a5e995960921b6064820152608401610246565b600354610100900460ff16158015611081576003805461ffff19166101011790555b600180546001600160a01b0319166001600160a01b03841617905580156110ae576003805461ff00191690555b5050565b6001600160a01b03811660009081526004602052604081206002015460ff166110ed5760405162461bcd60e51b815260040161024690611a30565b506001600160a01b0316600090815260046020818152604092839020835160a0810185528154808252600183015493820193909352600282015460ff16151594810194909452600381015460608501529091015460809092019190915290565b8051602082015160408084015160608501516080860151925163b14f6c8360e01b8152919290916001600160a01b0388169063b14f6c839061119b90889088908890879089906004016119ab565b600060405180830381600087803b1580156111b557600080fd5b505af11580156111c9573d6000803e3d6000fd5b505050506040513d6000823e601f3d908101601f191682016040526111f1919081019061178b565b507f16a95b1f4b59f6a32941b3b48a50be9d4d9f9c4da4cb504681489daabf99192885858560405161122593929190611984565b60405180910390a150505050505050565b60025460009061124890600190611aee565b905060005b8181101561133457826001600160a01b03166002828154811061128057634e487b7160e01b600052603260045260246000fd5b6000918252602090912001546001600160a01b0316141561132257600282815481106112bc57634e487b7160e01b600052603260045260246000fd5b600091825260209091200154600280546001600160a01b0390921691839081106112f657634e487b7160e01b600052603260045260246000fd5b600091825260209091200180546001600160a01b0319166001600160a01b039290921691909117905550805b8061132c81611b35565b91505061124d565b50600280548061135457634e487b7160e01b600052603160045260246000fd5b600082815260209020810160001990810180546001600160a01b03191690550190555050565b6000805b6002548110156113ea57826001600160a01b0316600282815481106113b357634e487b7160e01b600052603260045260246000fd5b6000918252602090912001546001600160a01b031614156113d8576001915050610c3d565b806113e281611b35565b91505061137e565b50600092915050565b6113fc8161137a565b156114495760405162461bcd60e51b815260206004820152601d60248201527f424d3a2077616c6c657420616c726561647920726567697374657265640000006044820152606401610246565b600280546001810182556000919091527f405787fa12a823e0f2b7631cc41b3ba8828b3321ca811111fa75cd3aa3bb5ace0180546001600160a01b0319166001600160a01b0392909216919091179055565b600082601f8301126114ab578081fd5b81356114be6114b982611aae565b611a7d565b8181528460208386010111156114d2578283fd5b816020850160208301379081016020019190915292915050565b6000602082840312156114fd578081fd5b813561150881611b9c565b9392505050565b600060208284031215611520578081fd5b815161150881611b9c565b600080600080600060808688031215611542578081fd5b853561154d81611b9c565b9450602086013561155d81611b9c565b9350604086013561156d81611b9c565b9250606086013567ffffffffffffffff80821115611589578283fd5b818801915088601f83011261159c578283fd5b8135818111156115aa578384fd5b8960208285010111156115bb578384fd5b9699959850939650602001949392505050565b600080600080608085870312156115e3578384fd5b84356115ee81611b9c565b935060208501356115fe81611b9c565b925060408501359150606085013567ffffffffffffffff811115611620578182fd5b61162c8782880161149b565b91505092959194509250565b6000806040838503121561164a578182fd5b823561165581611b9c565b9150602083013567ffffffffffffffff811115611670578182fd5b61167c8582860161149b565b9150509250929050565b60008060408385031215611698578182fd5b82356116a381611b9c565b9150602083013567ffffffffffffffff808211156116bf578283fd5b9084019060a082870312156116d2578283fd5b6116dc60a0611a7d565b82356116e781611b9c565b815260208381013590820152604083013582811115611704578485fd5b6117108882860161149b565b60408301525060608301356060820152608083013560808201528093505050509250929050565b60008060006060848603121561174b578283fd5b833561175681611b9c565b95602085013595506040909401359392505050565b60006020828403121561177c578081fd5b81518015158114611508578182fd5b60006020828403121561179c578081fd5b815167ffffffffffffffff8111156117b2578182fd5b8201601f810184136117c2578182fd5b80516117d06114b982611aae565b8181528560208385010111156117e4578384fd5b6117f5826020830160208601611b05565b95945050505050565b60006020828403121561180f578081fd5b5051919050565b60008060408385031215611828578182fd5b505080516020909101519092909150565b60008151808452611851816020860160208601611b05565b601f01601f19169290920160200192915050565b6001600160a01b03868116825285166020820152831515604082015260806060820181905281018290526000828460a084013781830160a090810191909152601f909201601f19160101949350505050565b6001600160a01b03858116825284166020820152604081018390526080606082018190526000906118ea90830184611839565b9695505050505050565b6001600160a01b038316815260406020820181905260009061191890830184611839565b949350505050565b6001600160a01b0383811682526040602080840182905284519092168184015290830151606083015282015160a0608083015260009061196360e0840182611839565b9050606084015160a0840152608084015160c0840152809150509392505050565b600060018060a01b0385168252836020830152606060408301526117f56060830184611839565b600060018060a01b038716825285602083015260a060408301526119d260a0830186611839565b606083019490945250608001529392505050565b6000602082526115086020830184611839565b60208082526019908201527f424d3a2063616c6c6572206d7573742062652077616c6c657400000000000000604082015260600190565b6020808252602d908201527f544d3a2077616c6c657420646f65736e2774207265676973746572205061796d60408201526c32b73a2634b6b4ba30ba34b7b760991b606082015260800190565b604051601f8201601f1916810167ffffffffffffffff81118282101715611aa657611aa6611b86565b604052919050565b600067ffffffffffffffff821115611ac857611ac8611b86565b50601f01601f191660200190565b60008219821115611ae957611ae9611b70565b500190565b600082821015611b0057611b00611b70565b500390565b60005b83811015611b20578181015183820152602001611b08565b83811115611b2f576000848401525b50505050565b6000600019821415611b4957611b49611b70565b5060010190565b600082611b6b57634e487b7160e01b81526012600452602481fd5b500690565b634e487b7160e01b600052601160045260246000fd5b634e487b7160e01b600052604160045260246000fd5b6001600160a01b0381168114611bb157600080fd5b5056fea26469706673582212204efa606a90149fa7fdc8613ca90c6b5be5852508e407692b8188ee24351d0e7b64736f6c63430008030033",
  "linkReferences": {},
  "deployedLinkReferences": {}
}