{
  "_format": "hh-sol-artifact-1",
  "contractName": "TransactionModule",
  "sourceName": "contracts/TransactionModule.sol",
  "abi": [
    {
      "inputs": [],
      "stateMutability": "nonpayable",
      "type": "constructor"
    },
    {
      "anonymous": false,
      "inputs": [
        {
          "indexed": false,
          "internalType": "address",
          "name": "to",
          "type": "address"
        },
        {
          "indexed": false,
          "internalType": "uint256",
          "name": "value",
          "type": "uint256"
        },
        {
          "indexed": false,
          "internalType": "bytes",
          "name": "data",
          "type": "bytes"
        }
      ],
      "name": "MultiCalled",
      "type": "event"
    },
    {
      "inputs": [
        {
          "internalType": "address",
          "name": "_wallet",
          "type": "address"
        },
        {
          "internalType": "address",
          "name": "_module",
          "type": "address"
        },
        {
          "internalType": "bytes",
          "name": "data",
          "type": "bytes"
        }
      ],
      "name": "addModule",
      "outputs": [],
      "stateMutability": "nonpayable",
      "type": "function"
    },
    {
      "inputs": [
        {
          "internalType": "address",
          "name": "_wallet",
          "type": "address"
        },
        {
          "internalType": "address",
          "name": "_to",
          "type": "address"
        },
        {
          "internalType": "uint256",
          "name": "_value",
          "type": "uint256"
        },
        {
          "internalType": "bytes",
          "name": "_data",
          "type": "bytes"
        }
      ],
      "name": "executeLargeTransaction",
      "outputs": [
        {
          "internalType": "bytes",
          "name": "_result",
          "type": "bytes"
        }
      ],
      "stateMutability": "nonpayable",
      "type": "function"
    },
    {
      "inputs": [
        {
          "internalType": "address",
          "name": "_wallet",
          "type": "address"
        },
        {
          "components": [
            {
              "internalType": "address",
              "name": "to",
              "type": "address"
            },
            {
              "internalType": "uint256",
              "name": "value",
              "type": "uint256"
            },
            {
              "internalType": "bytes",
              "name": "data",
              "type": "bytes"
            },
            {
              "internalType": "uint256",
              "name": "sequenceId",
              "type": "uint256"
            },
            {
              "internalType": "uint256",
              "name": "expireTime",
              "type": "uint256"
            }
          ],
          "internalType": "struct BaseModule.CallArgs",
          "name": "_args",
          "type": "tuple"
        }
      ],
      "name": "executeTransaction",
      "outputs": [],
      "stateMutability": "nonpayable",
      "type": "function"
    },
    {
      "inputs": [
        {
          "internalType": "address",
          "name": "_wallet",
          "type": "address"
        }
      ],
      "name": "getDailyUpbound",
      "outputs": [
        {
          "internalType": "uint256",
          "name": "",
          "type": "uint256"
        }
      ],
      "stateMutability": "view",
      "type": "function"
    },
    {
      "inputs": [
        {
          "internalType": "address",
          "name": "_wallet",
          "type": "address"
        }
      ],
      "name": "getLargeAmountPayment",
      "outputs": [
        {
          "internalType": "uint256",
          "name": "",
          "type": "uint256"
        }
      ],
      "stateMutability": "view",
      "type": "function"
    },
    {
      "inputs": [
        {
          "internalType": "address",
          "name": "_wallet",
          "type": "address"
        },
        {
          "internalType": "bytes",
          "name": "data",
          "type": "bytes"
        }
      ],
      "name": "init",
      "outputs": [],
      "stateMutability": "nonpayable",
      "type": "function"
    },
    {
      "inputs": [
        {
          "internalType": "contract IModuleRegistry",
          "name": "_registry",
          "type": "address"
        }
      ],
      "name": "initialize",
      "outputs": [],
      "stateMutability": "nonpayable",
      "type": "function"
    },
    {
      "inputs": [
        {
          "internalType": "address",
          "name": "",
          "type": "address"
        }
      ],
      "name": "paymentInfos",
      "outputs": [
        {
          "internalType": "uint256",
          "name": "dailyUpbound",
          "type": "uint256"
        },
        {
          "internalType": "uint256",
          "name": "largeAmountPayment",
          "type": "uint256"
        },
        {
          "internalType": "bool",
          "name": "exist",
          "type": "bool"
        }
      ],
      "stateMutability": "view",
      "type": "function"
    },
    {
      "inputs": [
        {
          "internalType": "address",
          "name": "_wallet",
          "type": "address"
        },
        {
          "internalType": "uint256",
          "name": "_dailyUpbound",
          "type": "uint256"
        },
        {
          "internalType": "uint256",
          "name": "_largeAmountPayment",
          "type": "uint256"
        }
      ],
      "name": "setTMParametar",
      "outputs": [],
      "stateMutability": "nonpayable",
      "type": "function"
    }
  ],
  "bytecode": "0x608060405234801561001057600080fd5b506123ce806100206000396000f3fe608060405234801561001057600080fd5b50600436106100935760003560e01c8063837fa03d11610066578063837fa03d14610132578063acc2968e1461014e578063c0d91eaf1461017e578063c4d66de81461019a578063c6963c45146101b657610093565b8063198066811461009857806371bf3af1146100ca5780637fb6bab2146100e65780638279b06214610102575b600080fd5b6100b260048036038101906100ad9190611621565b6101e6565b6040516100c193929190611e07565b60405180910390f35b6100e460048036038101906100df9190611673565b61021d565b005b61010060048036038101906100fb9190611802565b610438565b005b61011c600480360381019061011791906116df565b61067d565b6040516101299190611c4a565b60405180910390f35b61014c600480360381019061014791906117ae565b610960565b005b61016860048036038101906101639190611621565b610bc4565b6040516101759190611dec565b60405180910390f35b6101986004803603810190610193919061175a565b610cdf565b005b6101b460048036038101906101af91906118bb565b610ec5565b005b6101d060048036038101906101cb9190611621565b610fef565b6040516101dd9190611dec565b60405180910390f35b60046020528060005260406000206000915090508060000154908060010154908060020160009054906101000a900460ff16905083565b838073ffffffffffffffffffffffffffffffffffffffff163373ffffffffffffffffffffffffffffffffffffffff161461028c576040517f08c379a000000000000000000000000000000000000000000000000000000000815260040161028390611d6c565b60405180910390fd5b846102968161110a565b156102d6576040517f08c379a00000000000000000000000000000000000000000000000000000000081526004016102cd90611d0c565b60405180910390fd5b60008054906101000a900473ffffffffffffffffffffffffffffffffffffffff1673ffffffffffffffffffffffffffffffffffffffff16630bcd4ebb866040518263ffffffff1660e01b815260040161032f9190611b57565b60206040518083038186803b15801561034757600080fd5b505afa15801561035b573d6000803e3d6000fd5b505050506040513d601f19601f8201168201806040525081019061037f9190611851565b6103be576040517f08c379a00000000000000000000000000000000000000000000000000000000081526004016103b590611cac565b60405180910390fd5b8573ffffffffffffffffffffffffffffffffffffffff1663904723e486600187876040518563ffffffff1660e01b81526004016103fe9493929190611b72565b600060405180830381600087803b15801561041857600080fd5b505af115801561042c573d6000803e3d6000fd5b50505050505050505050565b823373ffffffffffffffffffffffffffffffffffffffff168173ffffffffffffffffffffffffffffffffffffffff16638da5cb5b6040518163ffffffff1660e01b815260040160206040518083038186803b15801561049657600080fd5b505afa1580156104aa573d6000803e3d6000fd5b505050506040513d601f19601f820116820180604052508101906104ce919061164a565b73ffffffffffffffffffffffffffffffffffffffff1614610524576040517f08c379a000000000000000000000000000000000000000000000000000000000815260040161051b90611ccc565b60405180910390fd5b600460008573ffffffffffffffffffffffffffffffffffffffff1673ffffffffffffffffffffffffffffffffffffffff16815260200190815260200160002060020160009054906101000a900460ff166105b3576040517f08c379a00000000000000000000000000000000000000000000000000000000081526004016105aa90611dcc565b60405180910390fd5b6000600460008673ffffffffffffffffffffffffffffffffffffffff1673ffffffffffffffffffffffffffffffffffffffff168152602001908152602001600020905083816000015414158061060d575082816001015414155b61064c576040517f08c379a000000000000000000000000000000000000000000000000000000000815260040161064390611d8c565b60405180910390fd5b83816000015414610661578381600001819055505b82816001015414610676578281600101819055505b5050505050565b6060848073ffffffffffffffffffffffffffffffffffffffff163373ffffffffffffffffffffffffffffffffffffffff16146106ee576040517f08c379a00000000000000000000000000000000000000000000000000000000081526004016106e590611d6c565b60405180910390fd5b856106f88161110a565b15610738576040517f08c379a000000000000000000000000000000000000000000000000000000000815260040161072f90611d0c565b60405180910390fd5b3073ffffffffffffffffffffffffffffffffffffffff168673ffffffffffffffffffffffffffffffffffffffff1614156107a7576040517f08c379a000000000000000000000000000000000000000000000000000000000815260040161079e90611c8c565b60405180910390fd5b600460008873ffffffffffffffffffffffffffffffffffffffff1673ffffffffffffffffffffffffffffffffffffffff16815260200190815260200160002060020160009054906101000a900460ff16610836576040517f08c379a000000000000000000000000000000000000000000000000000000000815260040161082d90611dcc565b60405180910390fd5b6000600460008973ffffffffffffffffffffffffffffffffffffffff1673ffffffffffffffffffffffffffffffffffffffff1681526020019081526020016000209050806001015486116108bf576040517f08c379a00000000000000000000000000000000000000000000000000000000081526004016108b690611cec565b60405180910390fd5b8773ffffffffffffffffffffffffffffffffffffffff1663280ada2a8888886040518463ffffffff1660e01b81526004016108fc93929190611bb2565b600060405180830381600087803b15801561091657600080fd5b505af115801561092a573d6000803e3d6000fd5b505050506040513d6000823e3d601f19601f82011682018060405250810190610953919061187a565b9350505050949350505050565b813373ffffffffffffffffffffffffffffffffffffffff168173ffffffffffffffffffffffffffffffffffffffff16638da5cb5b6040518163ffffffff1660e01b815260040160206040518083038186803b1580156109be57600080fd5b505afa1580156109d2573d6000803e3d6000fd5b505050506040513d601f19601f820116820180604052508101906109f6919061164a565b73ffffffffffffffffffffffffffffffffffffffff1614610a4c576040517f08c379a0000000000000000000000000000000000000000000000000000000008152600401610a4390611ccc565b60405180910390fd5b82610a568161110a565b15610a96576040517f08c379a0000000000000000000000000000000000000000000000000000000008152600401610a8d90611d0c565b60405180910390fd5b600460008573ffffffffffffffffffffffffffffffffffffffff1673ffffffffffffffffffffffffffffffffffffffff16815260200190815260200160002060020160009054906101000a900460ff16610b25576040517f08c379a0000000000000000000000000000000000000000000000000000000008152600401610b1c90611dcc565b60405180910390fd5b6000600460008673ffffffffffffffffffffffffffffffffffffffff1673ffffffffffffffffffffffffffffffffffffffff1681526020019081526020016000209050806001015484602001511115610bb3576040517f08c379a0000000000000000000000000000000000000000000000000000000008152600401610baa90611d4c565b60405180910390fd5b610bbd8585611180565b5050505050565b6000600460008373ffffffffffffffffffffffffffffffffffffffff1673ffffffffffffffffffffffffffffffffffffffff16815260200190815260200160002060020160009054906101000a900460ff16610c55576040517f08c379a0000000000000000000000000000000000000000000000000000000008152600401610c4c90611dcc565b60405180910390fd5b6000600460008473ffffffffffffffffffffffffffffffffffffffff1673ffffffffffffffffffffffffffffffffffffffff16815260200190815260200160002060405180606001604052908160008201548152602001600182015481526020016002820160009054906101000a900460ff16151515158152505090508060200151915050919050565b818073ffffffffffffffffffffffffffffffffffffffff163373ffffffffffffffffffffffffffffffffffffffff1614610d4e576040517f08c379a0000000000000000000000000000000000000000000000000000000008152600401610d4590611d6c565b60405180910390fd5b610d578361128a565b15610d97576040517f08c379a0000000000000000000000000000000000000000000000000000000008152600401610d8e90611dac565b60405180910390fd5b600460008473ffffffffffffffffffffffffffffffffffffffff1673ffffffffffffffffffffffffffffffffffffffff16815260200190815260200160002060020160009054906101000a900460ff1615610e27576040517f08c379a0000000000000000000000000000000000000000000000000000000008152600401610e1e90611d2c565b60405180910390fd5b610e308361135f565b60008083806020019051810190610e4791906118e4565b915091506000600460008773ffffffffffffffffffffffffffffffffffffffff1673ffffffffffffffffffffffffffffffffffffffff168152602001908152602001600020905082816000018190555081816001018190555060018160020160006101000a81548160ff021916908315150217905550505050505050565b600360019054906101000a900460ff16610eef57600360009054906101000a900460ff1615610ef8565b610ef76113c5565b5b610f37576040517f08c379a0000000000000000000000000000000000000000000000000000000008152600401610f2e90611c6c565b60405180910390fd5b6000600360019054906101000a900460ff161590508015610f89576001600360016101000a81548160ff0219169083151502179055506001600360006101000a81548160ff0219169083151502179055505b816000806101000a81548173ffffffffffffffffffffffffffffffffffffffff021916908373ffffffffffffffffffffffffffffffffffffffff1602179055508015610feb576000600360016101000a81548160ff0219169083151502179055505b5050565b6000600460008373ffffffffffffffffffffffffffffffffffffffff1673ffffffffffffffffffffffffffffffffffffffff16815260200190815260200160002060020160009054906101000a900460ff16611080576040517f08c379a000000000000000000000000000000000000000000000000000000000815260040161107790611dcc565b60405180910390fd5b6000600460008473ffffffffffffffffffffffffffffffffffffffff1673ffffffffffffffffffffffffffffffffffffffff16815260200190815260200160002060405180606001604052908160008201548152602001600182015481526020016002820160009054906101000a900460ff16151515158152505090508060000151915050919050565b60004267ffffffffffffffff16600260008473ffffffffffffffffffffffffffffffffffffffff1673ffffffffffffffffffffffffffffffffffffffff16815260200190815260200160002060000160009054906101000a900467ffffffffffffffff1667ffffffffffffffff16119050919050565b6000816000015190506000826020015190506000836040015190506000846060015190506000856080015190508673ffffffffffffffffffffffffffffffffffffffff1663b14f6c8386868685876040518663ffffffff1660e01b81526004016111ee959493929190611bf0565b600060405180830381600087803b15801561120857600080fd5b505af115801561121c573d6000803e3d6000fd5b505050506040513d6000823e3d601f19601f82011682018060405250810190611245919061187a565b507f16a95b1f4b59f6a32941b3b48a50be9d4d9f9c4da4cb504681489daabf99192885858560405161127993929190611bb2565b60405180910390a150505050505050565b600080600090505b600180549050811015611354578273ffffffffffffffffffffffffffffffffffffffff16600182815481106112f0577f4e487b7100000000000000000000000000000000000000000000000000000000600052603260045260246000fd5b9060005260206000200160009054906101000a900473ffffffffffffffffffffffffffffffffffffffff1673ffffffffffffffffffffffffffffffffffffffff16141561134157600191505061135a565b808061134c90611f8e565b915050611292565b50600090505b919050565b6001819080600181540180825580915050600190039060005260206000200160009091909190916101000a81548173ffffffffffffffffffffffffffffffffffffffff021916908373ffffffffffffffffffffffffffffffffffffffff16021790555050565b60006113d0306113d6565b15905090565b600080823b905060008111915050919050565b60006113fc6113f784611e63565b611e3e565b90508281526020810184848401111561141457600080fd5b61141f848285611f1b565b509392505050565b600061143a61143584611e63565b611e3e565b90508281526020810184848401111561145257600080fd5b61145d848285611f2a565b509392505050565b6000813590506114748161233c565b92915050565b6000815190506114898161233c565b92915050565b60008151905061149e81612353565b92915050565b60008083601f8401126114b657600080fd5b8235905067ffffffffffffffff8111156114cf57600080fd5b6020830191508360018202830111156114e757600080fd5b9250929050565b600082601f8301126114ff57600080fd5b813561150f8482602086016113e9565b91505092915050565b600082601f83011261152957600080fd5b8151611539848260208601611427565b91505092915050565b6000813590506115518161236a565b92915050565b600060a0828403121561156957600080fd5b61157360a0611e3e565b9050600061158384828501611465565b6000830152506020611597848285016115f7565b602083015250604082013567ffffffffffffffff8111156115b757600080fd5b6115c3848285016114ee565b60408301525060606115d7848285016115f7565b60608301525060806115eb848285016115f7565b60808301525092915050565b60008135905061160681612381565b92915050565b60008151905061161b81612381565b92915050565b60006020828403121561163357600080fd5b600061164184828501611465565b91505092915050565b60006020828403121561165c57600080fd5b600061166a8482850161147a565b91505092915050565b6000806000806060858703121561168957600080fd5b600061169787828801611465565b94505060206116a887828801611465565b935050604085013567ffffffffffffffff8111156116c557600080fd5b6116d1878288016114a4565b925092505092959194509250565b600080600080608085870312156116f557600080fd5b600061170387828801611465565b945050602061171487828801611465565b9350506040611725878288016115f7565b925050606085013567ffffffffffffffff81111561174257600080fd5b61174e878288016114ee565b91505092959194509250565b6000806040838503121561176d57600080fd5b600061177b85828601611465565b925050602083013567ffffffffffffffff81111561179857600080fd5b6117a4858286016114ee565b9150509250929050565b600080604083850312156117c157600080fd5b60006117cf85828601611465565b925050602083013567ffffffffffffffff8111156117ec57600080fd5b6117f885828601611557565b9150509250929050565b60008060006060848603121561181757600080fd5b600061182586828701611465565b9350506020611836868287016115f7565b9250506040611847868287016115f7565b9150509250925092565b60006020828403121561186357600080fd5b60006118718482850161148f565b91505092915050565b60006020828403121561188c57600080fd5b600082015167ffffffffffffffff8111156118a657600080fd5b6118b284828501611518565b91505092915050565b6000602082840312156118cd57600080fd5b60006118db84828501611542565b91505092915050565b600080604083850312156118f757600080fd5b60006119058582860161160c565b92505060206119168582860161160c565b9150509250929050565b61192981611ec1565b82525050565b61193881611ed3565b82525050565b600061194a8385611e9f565b9350611957838584611f1b565b61196083612035565b840190509392505050565b600061197682611e94565b6119808185611e9f565b9350611990818560208601611f2a565b61199981612035565b840191505092915050565b60006119b1602e83611eb0565b91506119bc82612046565b604082019050919050565b60006119d4601683611eb0565b91506119df82612095565b602082019050919050565b60006119f7601c83611eb0565b9150611a02826120be565b602082019050919050565b6000611a1a601183611eb0565b9150611a25826120e7565b602082019050919050565b6000611a3d603083611eb0565b9150611a4882612110565b604082019050919050565b6000611a60601183611eb0565b9150611a6b8261215f565b602082019050919050565b6000611a83602183611eb0565b9150611a8e82612188565b604082019050919050565b6000611aa6602d83611eb0565b9150611ab1826121d7565b604082019050919050565b6000611ac9601983611eb0565b9150611ad482612226565b602082019050919050565b6000611aec602583611eb0565b9150611af78261224f565b604082019050919050565b6000611b0f602e83611eb0565b9150611b1a8261229e565b604082019050919050565b6000611b32602d83611eb0565b9150611b3d826122ed565b604082019050919050565b611b5181611f11565b82525050565b6000602082019050611b6c6000830184611920565b92915050565b6000606082019050611b876000830187611920565b611b94602083018661192f565b8181036040830152611ba781848661193e565b905095945050505050565b6000606082019050611bc76000830186611920565b611bd46020830185611b48565b8181036040830152611be6818461196b565b9050949350505050565b600060a082019050611c056000830188611920565b611c126020830187611b48565b8181036040830152611c24818661196b565b9050611c336060830185611b48565b611c406080830184611b48565b9695505050505050565b60006020820190508181036000830152611c64818461196b565b905092915050565b60006020820190508181036000830152611c85816119a4565b9050919050565b60006020820190508181036000830152611ca5816119c7565b9050919050565b60006020820190508181036000830152611cc5816119ea565b9050919050565b60006020820190508181036000830152611ce581611a0d565b9050919050565b60006020820190508181036000830152611d0581611a30565b9050919050565b60006020820190508181036000830152611d2581611a53565b9050919050565b60006020820190508181036000830152611d4581611a76565b9050919050565b60006020820190508181036000830152611d6581611a99565b9050919050565b60006020820190508181036000830152611d8581611abc565b9050919050565b60006020820190508181036000830152611da581611adf565b9050919050565b60006020820190508181036000830152611dc581611b02565b9050919050565b60006020820190508181036000830152611de581611b25565b9050919050565b6000602082019050611e016000830184611b48565b92915050565b6000606082019050611e1c6000830186611b48565b611e296020830185611b48565b611e36604083018461192f565b949350505050565b6000611e48611e59565b9050611e548282611f5d565b919050565b6000604051905090565b600067ffffffffffffffff821115611e7e57611e7d612006565b5b611e8782612035565b9050602081019050919050565b600081519050919050565b600082825260208201905092915050565b600082825260208201905092915050565b6000611ecc82611ef1565b9050919050565b60008115159050919050565b6000611eea82611ec1565b9050919050565b600073ffffffffffffffffffffffffffffffffffffffff82169050919050565b6000819050919050565b82818337600083830152505050565b60005b83811015611f48578082015181840152602081019050611f2d565b83811115611f57576000848401525b50505050565b611f6682612035565b810181811067ffffffffffffffff82111715611f8557611f84612006565b5b80604052505050565b6000611f9982611f11565b91507fffffffffffffffffffffffffffffffffffffffffffffffffffffffffffffffff821415611fcc57611fcb611fd7565b5b600182019050919050565b7f4e487b7100000000000000000000000000000000000000000000000000000000600052601160045260246000fd5b7f4e487b7100000000000000000000000000000000000000000000000000000000600052604160045260246000fd5b6000601f19601f8301169050919050565b7f496e697469616c697a61626c653a20636f6e747261637420697320616c72656160008201527f647920696e697469616c697a6564000000000000000000000000000000000000602082015250565b7f544d3a2063616e6e27742063616c6c20697473656c6600000000000000000000600082015250565b7f534d3a206d6f64756c65206973206e6f74207265676973746572656400000000600082015250565b7f424d3a206d757374206265206f776e6572000000000000000000000000000000600082015250565b7f544d3a2053696e676c65207061796d656e74206c6f776572207468616e206c6160008201527f726765416d6f756e745061796d656e7400000000000000000000000000000000602082015250565b7f424d3a2077616c6c6574206c6f636b6564000000000000000000000000000000600082015250565b7f544d3a2077616c6c65742065786973747320696e207061796d656e74496e666f60008201527f7300000000000000000000000000000000000000000000000000000000000000602082015250565b7f544d3a2053696e676c65207061796d656e742065786363656564206c6172676560008201527f416d6f756e745061796d656e7400000000000000000000000000000000000000602082015250565b7f424d3a2063616c6c6572206d7573742062652077616c6c657400000000000000600082015250565b7f544d3a6d757374206368616e6765206174206c65617374206f6e65207061726160008201527f6d65746172000000000000000000000000000000000000000000000000000000602082015250565b7f544d3a2073686f756c64206e6f74206164642073616d65206d6f64756c65207460008201527f6f2077616c6c6574207477696365000000000000000000000000000000000000602082015250565b7f544d3a2077616c6c657420646f65736e2774207265676973746572205061796d60008201527f656e744c696d69746174696f6e00000000000000000000000000000000000000602082015250565b61234581611ec1565b811461235057600080fd5b50565b61235c81611ed3565b811461236757600080fd5b50565b61237381611edf565b811461237e57600080fd5b50565b61238a81611f11565b811461239557600080fd5b5056fea2646970667358221220b78fa4600c43aa14d403ea923b93d43af6b51073bc07db0e01aa4b2c9b1f602564736f6c63430008030033",
  "linkReferences": {},
  "deployedLinkReferences": {}
}