{
  "_format": "hh-sol-artifact-1",
  "contractName": "Wallet",
  "sourceName": "contracts/Wallet.sol",
  "abi": [
    {
      "inputs": [],
      "stateMutability": "nonpayable",
      "type": "constructor"
    },
    {
      "anonymous": false,
      "inputs": [
        {
          "indexed": true,
          "internalType": "address",
          "name": "module",
          "type": "address"
        },
        {
          "indexed": false,
          "internalType": "bool",
          "name": "value",
          "type": "bool"
        }
      ],
      "name": "AuthorisedModule",
      "type": "event"
    },
    {
      "anonymous": false,
      "inputs": [
        {
          "indexed": false,
          "internalType": "address",
          "name": "from",
          "type": "address"
        },
        {
          "indexed": false,
          "internalType": "uint256",
          "name": "value",
          "type": "uint256"
        },
        {
          "indexed": false,
          "internalType": "bytes",
          "name": "data",
          "type": "bytes"
        }
      ],
      "name": "Deposited",
      "type": "event"
    },
    {
      "anonymous": false,
      "inputs": [
        {
          "indexed": false,
          "internalType": "address",
          "name": "from",
          "type": "address"
        },
        {
          "indexed": false,
          "internalType": "address",
          "name": "to",
          "type": "address"
        },
        {
          "indexed": false,
          "internalType": "uint256",
          "name": "value",
          "type": "uint256"
        },
        {
          "indexed": false,
          "internalType": "bytes",
          "name": "data",
          "type": "bytes"
        }
      ],
      "name": "Invoked",
      "type": "event"
    },
    {
      "anonymous": false,
      "inputs": [
        {
          "indexed": false,
          "internalType": "address",
          "name": "_newOwner",
          "type": "address"
        }
      ],
      "name": "OwnerReplaced",
      "type": "event"
    },
    {
      "anonymous": false,
      "inputs": [
        {
          "indexed": false,
          "internalType": "address",
          "name": "from",
          "type": "address"
        },
        {
          "indexed": false,
          "internalType": "address",
          "name": "to",
          "type": "address"
        },
        {
          "indexed": false,
          "internalType": "uint256",
          "name": "value",
          "type": "uint256"
        },
        {
          "indexed": false,
          "internalType": "bytes",
          "name": "data",
          "type": "bytes"
        }
      ],
      "name": "RawInvoked",
      "type": "event"
    },
    {
      "anonymous": false,
      "inputs": [
        {
          "indexed": true,
          "internalType": "uint256",
          "name": "value",
          "type": "uint256"
        },
        {
          "indexed": true,
          "internalType": "address",
          "name": "sender",
          "type": "address"
        },
        {
          "indexed": false,
          "internalType": "bytes",
          "name": "data",
          "type": "bytes"
        }
      ],
      "name": "Received",
      "type": "event"
    },
    {
      "anonymous": false,
      "inputs": [
        {
          "indexed": false,
          "internalType": "address",
          "name": "msgSender",
          "type": "address"
        }
      ],
      "name": "SafeModeActivated",
      "type": "event"
    },
    {
      "stateMutability": "payable",
      "type": "fallback"
    },
    {
      "inputs": [
        {
          "internalType": "address",
          "name": "_moduleRegistry",
          "type": "address"
        },
        {
          "internalType": "address",
          "name": "_module",
          "type": "address"
        },
        {
          "internalType": "bool",
          "name": "_value",
          "type": "bool"
        },
        {
          "internalType": "bytes",
          "name": "_data",
          "type": "bytes"
        }
      ],
      "name": "authoriseModule",
      "outputs": [],
      "stateMutability": "nonpayable",
      "type": "function"
    },
    {
      "inputs": [
        {
          "internalType": "address",
          "name": "",
          "type": "address"
        }
      ],
      "name": "authorised",
      "outputs": [
        {
          "internalType": "bool",
          "name": "",
          "type": "bool"
        }
      ],
      "stateMutability": "view",
      "type": "function"
    },
    {
      "inputs": [],
      "name": "getNextSequenceId",
      "outputs": [
        {
          "internalType": "uint256",
          "name": "",
          "type": "uint256"
        }
      ],
      "stateMutability": "view",
      "type": "function"
    },
    {
      "inputs": [
        {
          "internalType": "address[]",
          "name": "_modules",
          "type": "address[]"
        },
        {
          "internalType": "bytes[]",
          "name": "_data",
          "type": "bytes[]"
        }
      ],
      "name": "initialize",
      "outputs": [],
      "stateMutability": "nonpayable",
      "type": "function"
    },
    {
      "inputs": [
        {
          "internalType": "address",
          "name": "_target",
          "type": "address"
        },
        {
          "internalType": "uint256",
          "name": "_value",
          "type": "uint256"
        },
        {
          "internalType": "bytes",
          "name": "_data",
          "type": "bytes"
        },
        {
          "internalType": "uint256",
          "name": "_expireTime",
          "type": "uint256"
        },
        {
          "internalType": "uint256",
          "name": "_sequenceId",
          "type": "uint256"
        }
      ],
      "name": "invoke",
      "outputs": [
        {
          "internalType": "bytes",
          "name": "_result",
          "type": "bytes"
        }
      ],
      "stateMutability": "nonpayable",
      "type": "function"
    },
    {
      "inputs": [],
      "name": "isLocked",
      "outputs": [
        {
          "internalType": "uint256",
          "name": "",
          "type": "uint256"
        }
      ],
      "stateMutability": "view",
      "type": "function"
    },
    {
      "inputs": [],
      "name": "modules",
      "outputs": [
        {
          "internalType": "uint256",
          "name": "",
          "type": "uint256"
        }
      ],
      "stateMutability": "view",
      "type": "function"
    },
    {
      "inputs": [],
      "name": "owner",
      "outputs": [
        {
          "internalType": "address",
          "name": "",
          "type": "address"
        }
      ],
      "stateMutability": "view",
      "type": "function"
    },
    {
      "inputs": [
        {
          "internalType": "address",
          "name": "_target",
          "type": "address"
        },
        {
          "internalType": "uint256",
          "name": "_value",
          "type": "uint256"
        },
        {
          "internalType": "bytes",
          "name": "_data",
          "type": "bytes"
        }
      ],
      "name": "raw_invoke",
      "outputs": [
        {
          "internalType": "bytes",
          "name": "_result",
          "type": "bytes"
        }
      ],
      "stateMutability": "nonpayable",
      "type": "function"
    },
    {
      "inputs": [
        {
          "internalType": "address",
          "name": "_newOwner",
          "type": "address"
        }
      ],
      "name": "replaceOwner",
      "outputs": [],
      "stateMutability": "nonpayable",
      "type": "function"
    },
    {
      "inputs": [
        {
          "internalType": "uint256",
          "name": "_releaseAfter",
          "type": "uint256"
        },
        {
          "internalType": "bytes4",
          "name": "_locker",
          "type": "bytes4"
        }
      ],
      "name": "setLock",
      "outputs": [],
      "stateMutability": "nonpayable",
      "type": "function"
    }
  ],
  "bytecode": "0x608060405234801561001057600080fd5b506000805462010000330262010000600160b01b03199091161790556116388061003b6000396000f3fe60806040526004361061009c5760003560e01c8063a39a45b711610064578063a39a45b7146101ba578063a4e2d634146101da578063b14f6c83146101ef578063d6eb1bbf1461020f578063da38b20a1461024f578063f7e80e981461026f5761009c565b8063280ada2a146100e357806337f8d5ff146101195780638da5cb5b14610139578063a0adf89f14610177578063a0b7967b14610197575b34156100e1577f6e89d517057028190560dd200cf6bf792842861353d1173761dfa362e1c133f033346000366040516100d8949392919061149c565b60405180910390a15b005b3480156100ef57600080fd5b506101036100fe36600461127f565b610285565b60405161011091906114ce565b60405180910390f35b34801561012557600080fd5b506100e1610134366004611341565b6103cc565b34801561014557600080fd5b5060005461015f906201000090046001600160a01b031681565b6040516001600160a01b039091168152602001610110565b34801561018357600080fd5b506100e16101923660046113ba565b610826565b3480156101a357600080fd5b506101ac61088f565b604051908152602001610110565b3480156101c657600080fd5b506100e16101d53660046111e8565b610911565b3480156101e657600080fd5b506101ac6109ea565b3480156101fb57600080fd5b5061010361020a3660046112d7565b610a9b565b34801561021b57600080fd5b5061023f61022a3660046111e8565b600d6020526000908152604090205460ff1681565b6040519015158152602001610110565b34801561025b57600080fd5b506100e161026a366004611209565b610c2a565b34801561027b57600080fd5b506101ac60015481565b336000908152600d602052604090205460609060ff166102c05760405162461bcd60e51b81526004016102b790611521565b60405180910390fd5b6001600160a01b0385163014156103115760405162461bcd60e51b81526020600482015260156024820152742b9d1031b0b73713ba1031b0b6361034ba39b2b63360591b60448201526064016102b7565b6000856001600160a01b031685858560405161032e92919061141f565b60006040518083038185875af1925050503d806000811461036b576040519150601f19603f3d011682016040523d82523d6000602084013e610370565b606091505b509250905080610384573d6000803e3d6000fd5b7f7d6bc4cf1e57c4137ae3c31041a66da66af567fee2a57ef75a12ef9fd0ac31ae33878787876040516103bb95949392919061142f565b60405180910390a150949350505050565b600054610100900460ff166103e75760005460ff16156103ef565b6103ef610ee6565b6104525760405162461bcd60e51b815260206004820152602e60248201527f496e697469616c697a61626c653a20636f6e747261637420697320616c72656160448201526d191e481a5b9a5d1a585b1a5e995960921b60648201526084016102b7565b600054610100900460ff16158015610474576000805461ffff19166101011790555b6000546201000090046001600160a01b0316156104d35760405162461bcd60e51b815260206004820152601d60248201527f573a2077616c6c657420616c726561647920696e697469616c697a656400000060448201526064016102b7565b83158015906104e157508382145b6105395760405162461bcd60e51b8152602060048201526024808201527f573a20656d707479206d6f64756c6573206f72206e6f74206d617463686564206044820152636461746160e01b60648201526084016102b7565b60018490556000805462010000600160b01b0319163362010000021781555b848110156107b857600d600087878481811061058457634e487b7160e01b600052603260045260246000fd5b905060200201602081019061059991906111e8565b6001600160a01b0316815260208101919091526040016000205460ff16156106035760405162461bcd60e51b815260206004820152601760248201527f4d6f64756c6520697320616c726561647920616464656400000000000000000060448201526064016102b7565b6001600d600088888581811061062957634e487b7160e01b600052603260045260246000fd5b905060200201602081019061063e91906111e8565b6001600160a01b031681526020810191909152604001600020805460ff191691151591909117905585858281811061068657634e487b7160e01b600052603260045260246000fd5b905060200201602081019061069b91906111e8565b6001600160a01b031663c0d91eaf308686858181106106ca57634e487b7160e01b600052603260045260246000fd5b90506020028101906106dc919061154c565b6040518463ffffffff1660e01b81526004016106fa9392919061146e565b600060405180830381600087803b15801561071457600080fd5b505af1158015610728573d6000803e3d6000fd5b5050505085858281811061074c57634e487b7160e01b600052603260045260246000fd5b905060200201602081019061076191906111e8565b6001600160a01b03167f8da3ff870ae294081392139550e167f1f31f277f22015ee22fbffdbd7758f4e1600160405161079e911515815260200190565b60405180910390a2806107b0816115c0565b915050610558565b50471561080d5760006001600160a01b0316477f606834f57405380c4fb88d1f4850326ad3885f014bab3b568dfbf7a041eef73860405161080490602080825260009082015260400190565b60405180910390a35b801561081f576000805461ff00191690555b5050505050565b336000908152600d602052604090205460ff166108555760405162461bcd60e51b81526004016102b790611521565b6001600160e01b0319166000908152600c60205260409020805467ffffffffffffffff191667ffffffffffffffff92909216919091179055565b600080805b600a8110156108ff5781600282600a81106108bf57634e487b7160e01b600052603260045260246000fd5b015411156108ed57600281600a81106108e857634e487b7160e01b600052603260045260246000fd5b015491505b806108f7816115c0565b915050610894565b5061090b816001611591565b91505090565b336000908152600d602052604090205460ff166109405760405162461bcd60e51b81526004016102b790611521565b6001600160a01b03811661098c5760405162461bcd60e51b81526020600482015260136024820152722b9d1034b73b30b634b2103732bba7bbb732b960691b60448201526064016102b7565b6000805462010000600160b01b031916620100006001600160a01b038416908102919091179091556040519081527f69117d1af63e1cf10d1fdb06d265e57df3e461a02525c1b3496aadabc10362f59060200160405180910390a150565b63111cfaab60e11b6000908152600c6020527f3db8cf18714c96c95f1dffb47b7853e4be7c65ea1b649fe896d8deea735bf54154819067ffffffffffffffff42811691161115610a4257610a3f600282611591565b90505b63f435f5a760e01b600052600c6020527fc3a223177233a25280a75b6cb58c3110c6e193bd7bd56ae4dd4a30a4d5ecba7f5467ffffffffffffffff42811691161115610a9657610a93600182611591565b90505b905090565b336000908152600d602052604090205460609060ff16610acd5760405162461bcd60e51b81526004016102b790611521565b6001600160a01b038716301415610b1e5760405162461bcd60e51b81526020600482015260156024820152742b9d1031b0b73713ba1031b0b6361034ba39b2b63360591b60448201526064016102b7565b600042841015610b665760405162461bcd60e51b8152602060048201526013602482015272151c985b9cd858dd1a5bdb88195e1c1a5c9959606a1b60448201526064016102b7565b610b6f83610ef7565b876001600160a01b0316878787604051610b8a92919061141f565b60006040518083038185875af1925050503d8060008114610bc7576040519150601f19603f3d011682016040523d82523d6000602084013e610bcc565b606091505b509250905080610be0573d6000803e3d6000fd5b7f7d2476ab50663f025cff0be85655bcf355f62768615c0c478f3cd5293f8073653389898989604051610c1795949392919061142f565b60405180910390a1509695505050505050565b604051630bcd4ebb60e01b815233600482015285906001600160a01b03821690630bcd4ebb9060240160206040518083038186803b158015610c6b57600080fd5b505afa158015610c7f573d6000803e3d6000fd5b505050506040513d601f19601f82011682018060405250810190610ca3919061139e565b610cef5760405162461bcd60e51b815260206004820152601b60248201527f573a206d6f64756c65206973206e6f742072656769737465726564000000000060448201526064016102b7565b6001600160a01b0385166000908152600d602052604090205460ff16151584151514610ede57846001600160a01b03167f8da3ff870ae294081392139550e167f1f31f277f22015ee22fbffdbd7758f4e185604051610d52911515815260200190565b60405180910390a260018415151415610dfb576001806000828254610d779190611591565b90915550506001600160a01b0385166000818152600d602052604090819020805460ff191660011790555163c0d91eaf60e01b815263c0d91eaf90610dc49030908790879060040161146e565b600060405180830381600087803b158015610dde57600080fd5b505af1158015610df2573d6000803e3d6000fd5b50505050610ede565b6001806000828254610e0d91906115a9565b9091555050600154610e615760405162461bcd60e51b815260206004820152601d60248201527f42573a2063616e6e6f742072656d6f7665206c617374206d6f64756c6500000060448201526064016102b7565b60405163a063246160e01b815230600482015285906001600160a01b0382169063a063246190602401600060405180830381600087803b158015610ea457600080fd5b505af1158015610eb8573d6000803e3d6000fd5b5050506001600160a01b0387166000908152600d60205260409020805460ff1916905550505b505050505050565b6000610ef13061113d565b15905090565b6000805b600a811015610fd85782600282600a8110610f2657634e487b7160e01b600052603260045260246000fd5b01541415610f765760405162461bcd60e51b815260206004820181905260248201527f573a207468652073657175656e636520494420686173206265656e207573656460448201526064016102b7565b600282600a8110610f9757634e487b7160e01b600052603260045260246000fd5b0154600282600a8110610fba57634e487b7160e01b600052603260045260246000fd5b01541015610fc6578091505b80610fd0816115c0565b915050610efb565b50600281600a8110610ffa57634e487b7160e01b600052603260045260246000fd5b01548210156110715760405162461bcd60e51b815260206004820152603d60248201527f573a207468652073657175656e6365204944206265696e67207573656420697360448201527f206c6f77657220746861746e20746865206c6f776573742076616c756500000060648201526084016102b7565b600281600a811061109257634e487b7160e01b600052603260045260246000fd5b01546110a090612710611591565b8211156111155760405162461bcd60e51b815260206004820152603960248201527f573a20626c6f636b20736571756e65636520494420617265206d75636820686960448201527f676572207468616e20746865206c6f776573742076616c75650000000000000060648201526084016102b7565b81600282600a811061113757634e487b7160e01b600052603260045260246000fd5b01555050565b803b15155b919050565b80356001600160a01b038116811461114257600080fd5b60008083601f84011261116f578182fd5b50813567ffffffffffffffff811115611186578182fd5b6020830191508360208260051b85010111156111a157600080fd5b9250929050565b60008083601f8401126111b9578182fd5b50813567ffffffffffffffff8111156111d0578182fd5b6020830191508360208285010111156111a157600080fd5b6000602082840312156111f9578081fd5b61120282611147565b9392505050565b600080600080600060808688031215611220578081fd5b61122986611147565b945061123760208701611147565b93506040860135611247816115f1565b9250606086013567ffffffffffffffff811115611262578182fd5b61126e888289016111a8565b969995985093965092949392505050565b60008060008060608587031215611294578384fd5b61129d85611147565b935060208501359250604085013567ffffffffffffffff8111156112bf578283fd5b6112cb878288016111a8565b95989497509550505050565b60008060008060008060a087890312156112ef578081fd5b6112f887611147565b955060208701359450604087013567ffffffffffffffff81111561131a578182fd5b61132689828a016111a8565b979a9699509760608101359660809091013595509350505050565b60008060008060408587031215611356578384fd5b843567ffffffffffffffff8082111561136d578586fd5b6113798883890161115e565b90965094506020870135915080821115611391578384fd5b506112cb8782880161115e565b6000602082840312156113af578081fd5b8151611202816115f1565b600080604083850312156113cc578182fd5b8235915060208301356001600160e01b0319811681146113ea578182fd5b809150509250929050565b60008284528282602086013780602084860101526020601f19601f85011685010190509392505050565b6000828483379101908152919050565b6001600160a01b038681168252851660208201526040810184905260806060820181905260009061146390830184866113f5565b979650505050505050565b6001600160a01b038416815260406020820181905260009061149390830184866113f5565b95945050505050565b600060018060a01b0386168252846020830152606060408301526114c46060830184866113f5565b9695505050505050565b6000602080835283518082850152825b818110156114fa578581018301518582016040015282016114de565b8181111561150b5783604083870101525b50601f01601f1916929092016040019392505050565b602080825260119082015270573a206d757374206265206d6f64756c6560781b604082015260600190565b6000808335601e19843603018112611562578283fd5b83018035915067ffffffffffffffff82111561157c578283fd5b6020019150368190038213156111a157600080fd5b600082198211156115a4576115a46115db565b500190565b6000828210156115bb576115bb6115db565b500390565b60006000198214156115d4576115d46115db565b5060010190565b634e487b7160e01b600052601160045260246000fd5b80151581146115ff57600080fd5b5056fea264697066735822122055b009bedbf31b704be78e92310013cb91931ee6f00c41b900eda3cdf42c08cd64736f6c63430008030033",
  "linkReferences": {},
  "deployedLinkReferences": {}
}