{
  "_format": "hh-sol-artifact-1",
  "contractName": "Wallet",
  "sourceName": "contracts/Wallet.sol",
  "abi": [
    {
      "inputs": [],
      "stateMutability": "nonpayable",
      "type": "constructor"
    },
    {
      "anonymous": false,
      "inputs": [
        {
          "indexed": true,
          "internalType": "address",
          "name": "module",
          "type": "address"
        },
        {
          "indexed": false,
          "internalType": "bool",
          "name": "value",
          "type": "bool"
        }
      ],
      "name": "AuthorisedModule",
      "type": "event"
    },
    {
      "anonymous": false,
      "inputs": [
        {
          "indexed": false,
          "internalType": "address",
          "name": "from",
          "type": "address"
        },
        {
          "indexed": false,
          "internalType": "uint256",
          "name": "value",
          "type": "uint256"
        },
        {
          "indexed": false,
          "internalType": "bytes",
          "name": "data",
          "type": "bytes"
        }
      ],
      "name": "Deposited",
      "type": "event"
    },
    {
      "anonymous": false,
      "inputs": [
        {
          "indexed": false,
          "internalType": "address",
          "name": "from",
          "type": "address"
        },
        {
          "indexed": false,
          "internalType": "address",
          "name": "to",
          "type": "address"
        },
        {
          "indexed": false,
          "internalType": "uint256",
          "name": "value",
          "type": "uint256"
        },
        {
          "indexed": false,
          "internalType": "bytes",
          "name": "data",
          "type": "bytes"
        }
      ],
      "name": "Invoked",
      "type": "event"
    },
    {
      "anonymous": false,
      "inputs": [
        {
          "indexed": false,
          "internalType": "address",
          "name": "from",
          "type": "address"
        },
        {
          "indexed": false,
          "internalType": "address",
          "name": "to",
          "type": "address"
        },
        {
          "indexed": false,
          "internalType": "uint256",
          "name": "value",
          "type": "uint256"
        },
        {
          "indexed": false,
          "internalType": "bytes",
          "name": "data",
          "type": "bytes"
        }
      ],
      "name": "RawInvoked",
      "type": "event"
    },
    {
      "anonymous": false,
      "inputs": [
        {
          "indexed": true,
          "internalType": "uint256",
          "name": "value",
          "type": "uint256"
        },
        {
          "indexed": true,
          "internalType": "address",
          "name": "sender",
          "type": "address"
        },
        {
          "indexed": false,
          "internalType": "bytes",
          "name": "data",
          "type": "bytes"
        }
      ],
      "name": "Received",
      "type": "event"
    },
    {
      "anonymous": false,
      "inputs": [
        {
          "indexed": false,
          "internalType": "address",
          "name": "msgSender",
          "type": "address"
        }
      ],
      "name": "SafeModeActivated",
      "type": "event"
    },
    {
      "stateMutability": "payable",
      "type": "fallback"
    },
    {
      "inputs": [
        {
          "internalType": "address",
          "name": "_module",
          "type": "address"
        },
        {
          "internalType": "bool",
          "name": "_value",
          "type": "bool"
        },
        {
          "internalType": "bytes",
          "name": "_data",
          "type": "bytes"
        }
      ],
      "name": "authoriseModule",
      "outputs": [],
      "stateMutability": "nonpayable",
      "type": "function"
    },
    {
      "inputs": [
        {
          "internalType": "address",
          "name": "",
          "type": "address"
        }
      ],
      "name": "authorised",
      "outputs": [
        {
          "internalType": "bool",
          "name": "",
          "type": "bool"
        }
      ],
      "stateMutability": "view",
      "type": "function"
    },
    {
      "inputs": [],
      "name": "createForwarder",
      "outputs": [
        {
          "internalType": "address",
          "name": "",
          "type": "address"
        }
      ],
      "stateMutability": "nonpayable",
      "type": "function"
    },
    {
      "inputs": [],
      "name": "getNextSequenceId",
      "outputs": [
        {
          "internalType": "uint256",
          "name": "",
          "type": "uint256"
        }
      ],
      "stateMutability": "view",
      "type": "function"
    },
    {
      "inputs": [
        {
          "internalType": "address[]",
          "name": "_modules",
          "type": "address[]"
        },
        {
          "internalType": "bytes[]",
          "name": "_data",
          "type": "bytes[]"
        }
      ],
      "name": "initialize",
      "outputs": [],
      "stateMutability": "nonpayable",
      "type": "function"
    },
    {
      "inputs": [
        {
          "internalType": "address",
          "name": "_target",
          "type": "address"
        },
        {
          "internalType": "uint256",
          "name": "_value",
          "type": "uint256"
        },
        {
          "internalType": "bytes",
          "name": "_data",
          "type": "bytes"
        },
        {
          "internalType": "uint256",
          "name": "_expireTime",
          "type": "uint256"
        },
        {
          "internalType": "uint256",
          "name": "_sequenceId",
          "type": "uint256"
        }
      ],
      "name": "invoke",
      "outputs": [
        {
          "internalType": "bytes",
          "name": "_result",
          "type": "bytes"
        }
      ],
      "stateMutability": "nonpayable",
      "type": "function"
    },
    {
      "inputs": [],
      "name": "modules",
      "outputs": [
        {
          "internalType": "uint256",
          "name": "",
          "type": "uint256"
        }
      ],
      "stateMutability": "view",
      "type": "function"
    },
    {
      "inputs": [],
      "name": "owner",
      "outputs": [
        {
          "internalType": "address",
          "name": "",
          "type": "address"
        }
      ],
      "stateMutability": "view",
      "type": "function"
    },
    {
      "inputs": [
        {
          "internalType": "address",
          "name": "_target",
          "type": "address"
        },
        {
          "internalType": "uint256",
          "name": "_value",
          "type": "uint256"
        },
        {
          "internalType": "bytes",
          "name": "_data",
          "type": "bytes"
        }
      ],
      "name": "raw_invoke",
      "outputs": [
        {
          "internalType": "bytes",
          "name": "_result",
          "type": "bytes"
        }
      ],
      "stateMutability": "nonpayable",
      "type": "function"
    },
    {
      "inputs": [
        {
          "internalType": "address",
          "name": "_newOwner",
          "type": "address"
        }
      ],
      "name": "replaceOwner",
      "outputs": [],
      "stateMutability": "nonpayable",
      "type": "function"
    }
  ],
  "bytecode": "0x608060405234801561001057600080fd5b5033600060026101000a81548173ffffffffffffffffffffffffffffffffffffffff021916908373ffffffffffffffffffffffffffffffffffffffff1602179055506125b4806100616000396000f3fe6080604052600436106100955760003560e01c8063a39a45b711610059578063a39a45b7146101c5578063a68a76cc146101ee578063b14f6c8314610219578063d6eb1bbf14610256578063f7e80e981461029357610096565b8063280ada2a146100e057806337f8d5ff1461011d5780638da5cb5b14610146578063904723e414610171578063a0b7967b1461019a57610096565b5b60003411156100de577f6e89d517057028190560dd200cf6bf792842861353d1173761dfa362e1c133f033346000366040516100d59493929190611a98565b60405180910390a15b005b3480156100ec57600080fd5b50610107600480360381019061010291906115cf565b6102be565b6040516101149190611af3565b60405180910390f35b34801561012957600080fd5b50610144600480360381019061013f91906116cd565b610487565b005b34801561015257600080fd5b5061015b610a37565b60405161016891906119fd565b60405180910390f35b34801561017d57600080fd5b5061019860048036038101906101939190611563565b610a5d565b005b3480156101a657600080fd5b506101af610d39565b6040516101bc9190611cd5565b60405180910390f35b3480156101d157600080fd5b506101ec60048036038101906101e7919061153a565b610df5565b005b3480156101fa57600080fd5b50610203610f35565b60405161021091906119fd565b60405180910390f35b34801561022557600080fd5b50610240600480360381019061023b919061163b565b610f65565b60405161024d9190611af3565b60405180910390f35b34801561026257600080fd5b5061027d6004803603810190610278919061153a565b61117c565b60405161028a9190611ad8565b60405180910390f35b34801561029f57600080fd5b506102a861119c565b6040516102b59190611cd5565b60405180910390f35b6060600c60003373ffffffffffffffffffffffffffffffffffffffff1673ffffffffffffffffffffffffffffffffffffffff16815260200190815260200160002060009054906101000a900460ff1661034c576040517f08c379a000000000000000000000000000000000000000000000000000000000815260040161034390611bf5565b60405180910390fd5b3073ffffffffffffffffffffffffffffffffffffffff168573ffffffffffffffffffffffffffffffffffffffff1614156103bb576040517f08c379a00000000000000000000000000000000000000000000000000000000081526004016103b290611b95565b60405180910390fd5b60008573ffffffffffffffffffffffffffffffffffffffff168585856040516103e59291906119e4565b60006040518083038185875af1925050503d8060008114610422576040519150601f19603f3d011682016040523d82523d6000602084013e610427565b606091505b5080935081925050508061043f573d6000803e3d6000fd5b7f7d6bc4cf1e57c4137ae3c31041a66da66af567fee2a57ef75a12ef9fd0ac31ae3387878787604051610476959493929190611a18565b60405180910390a150949350505050565b600060019054906101000a900460ff16806104ad575060008054906101000a900460ff16155b6104ec576040517f08c379a00000000000000000000000000000000000000000000000000000000081526004016104e390611b75565b60405180910390fd5b60008060019054906101000a900460ff16159050801561053c576001600060016101000a81548160ff02191690831515021790555060016000806101000a81548160ff0219169083151502179055505b600073ffffffffffffffffffffffffffffffffffffffff16600060029054906101000a900473ffffffffffffffffffffffffffffffffffffffff1673ffffffffffffffffffffffffffffffffffffffff16146105cd576040517f08c379a00000000000000000000000000000000000000000000000000000000081526004016105c490611c75565b60405180910390fd5b6000858590501180156105e557508282905085859050145b610624576040517f08c379a000000000000000000000000000000000000000000000000000000000815260040161061b90611bb5565b60405180910390fd5b8484905060018190555033600060026101000a81548173ffffffffffffffffffffffffffffffffffffffff021916908373ffffffffffffffffffffffffffffffffffffffff16021790555060005b858590508110156109b65760001515600c60008888858181106106be577f4e487b7100000000000000000000000000000000000000000000000000000000600052603260045260246000fd5b90506020020160208101906106d3919061153a565b73ffffffffffffffffffffffffffffffffffffffff1673ffffffffffffffffffffffffffffffffffffffff16815260200190815260200160002060009054906101000a900460ff1615151461075d576040517f08c379a000000000000000000000000000000000000000000000000000000000815260040161075490611bd5565b60405180910390fd5b6001600c600088888581811061079c577f4e487b7100000000000000000000000000000000000000000000000000000000600052603260045260246000fd5b90506020020160208101906107b1919061153a565b73ffffffffffffffffffffffffffffffffffffffff1673ffffffffffffffffffffffffffffffffffffffff16815260200190815260200160002060006101000a81548160ff02191690831515021790555085858281811061083b577f4e487b7100000000000000000000000000000000000000000000000000000000600052603260045260246000fd5b9050602002016020810190610850919061153a565b73ffffffffffffffffffffffffffffffffffffffff1663c0d91eaf308686858181106108a5577f4e487b7100000000000000000000000000000000000000000000000000000000600052603260045260246000fd5b90506020028101906108b79190611cf0565b6040518463ffffffff1660e01b81526004016108d593929190611a66565b600060405180830381600087803b1580156108ef57600080fd5b505af1158015610903573d6000803e3d6000fd5b50505050858582818110610940577f4e487b7100000000000000000000000000000000000000000000000000000000600052603260045260246000fd5b9050602002016020810190610955919061153a565b73ffffffffffffffffffffffffffffffffffffffff167f8da3ff870ae294081392139550e167f1f31f277f22015ee22fbffdbd7758f4e1600160405161099b9190611ad8565b60405180910390a280806109ae90611e93565b915050610672565b506000471115610a0f57600073ffffffffffffffffffffffffffffffffffffffff16477f606834f57405380c4fb88d1f4850326ad3885f014bab3b568dfbf7a041eef738604051610a0690611c35565b60405180910390a35b8015610a305760008060016101000a81548160ff0219169083151502179055505b5050505050565b600060029054906101000a900473ffffffffffffffffffffffffffffffffffffffff1681565b600060029054906101000a900473ffffffffffffffffffffffffffffffffffffffff1673ffffffffffffffffffffffffffffffffffffffff163373ffffffffffffffffffffffffffffffffffffffff1614610aed576040517f08c379a0000000000000000000000000000000000000000000000000000000008152600401610ae490611c55565b60405180910390fd5b821515600c60008673ffffffffffffffffffffffffffffffffffffffff1673ffffffffffffffffffffffffffffffffffffffff16815260200190815260200160002060009054906101000a900460ff16151514610d33578373ffffffffffffffffffffffffffffffffffffffff167f8da3ff870ae294081392139550e167f1f31f277f22015ee22fbffdbd7758f4e184604051610b8a9190611ad8565b60405180910390a2600115158315151415610c84576001806000828254610bb19190611d7f565b925050819055506001600c60008673ffffffffffffffffffffffffffffffffffffffff1673ffffffffffffffffffffffffffffffffffffffff16815260200190815260200160002060006101000a81548160ff0219169083151502179055508373ffffffffffffffffffffffffffffffffffffffff1663c0d91eaf3084846040518463ffffffff1660e01b8152600401610c4d93929190611a66565b600060405180830381600087803b158015610c6757600080fd5b505af1158015610c7b573d6000803e3d6000fd5b50505050610d32565b6001806000828254610c969190611dd5565b92505081905550600060015411610ce2576040517f08c379a0000000000000000000000000000000000000000000000000000000008152600401610cd990611c15565b60405180910390fd5b600c60008573ffffffffffffffffffffffffffffffffffffffff1673ffffffffffffffffffffffffffffffffffffffff16815260200190815260200160002060006101000a81549060ff02191690555b5b50505050565b6000806000905060005b600a811015610de15781600282600a8110610d87577f4e487b7100000000000000000000000000000000000000000000000000000000600052603260045260246000fd5b01541115610dce57600281600a8110610dc9577f4e487b7100000000000000000000000000000000000000000000000000000000600052603260045260246000fd5b015491505b8080610dd990611e93565b915050610d43565b50600181610def9190611d7f565b91505090565b600c60003373ffffffffffffffffffffffffffffffffffffffff1673ffffffffffffffffffffffffffffffffffffffff16815260200190815260200160002060009054906101000a900460ff16610e81576040517f08c379a0000000000000000000000000000000000000000000000000000000008152600401610e7890611bf5565b60405180910390fd5b600073ffffffffffffffffffffffffffffffffffffffff168173ffffffffffffffffffffffffffffffffffffffff161415610ef1576040517f08c379a0000000000000000000000000000000000000000000000000000000008152600401610ee890611cb5565b60405180910390fd5b80600060026101000a81548173ffffffffffffffffffffffffffffffffffffffff021916908373ffffffffffffffffffffffffffffffffffffffff16021790555050565b6000604051610f4390611410565b604051809103906000f080158015610f5f573d6000803e3d6000fd5b50905090565b6060600c60003373ffffffffffffffffffffffffffffffffffffffff1673ffffffffffffffffffffffffffffffffffffffff16815260200190815260200160002060009054906101000a900460ff16610ff3576040517f08c379a0000000000000000000000000000000000000000000000000000000008152600401610fea90611bf5565b60405180910390fd5b3073ffffffffffffffffffffffffffffffffffffffff168773ffffffffffffffffffffffffffffffffffffffff161415611062576040517f08c379a000000000000000000000000000000000000000000000000000000000815260040161105990611b95565b60405180910390fd5b6000428410156110a7576040517f08c379a000000000000000000000000000000000000000000000000000000000815260040161109e90611b15565b60405180910390fd5b6110b0836111a2565b8773ffffffffffffffffffffffffffffffffffffffff168787876040516110d89291906119e4565b60006040518083038185875af1925050503d8060008114611115576040519150601f19603f3d011682016040523d82523d6000602084013e61111a565b606091505b50809350819250505080611132573d6000803e3d6000fd5b7f7d2476ab50663f025cff0be85655bcf355f62768615c0c478f3cd5293f8073653389898989604051611169959493929190611a18565b60405180910390a1509695505050505050565b600c6020528060005260406000206000915054906101000a900460ff1681565b60015481565b6000805b600a8110156112c25782600282600a81106111ea577f4e487b7100000000000000000000000000000000000000000000000000000000600052603260045260246000fd5b0154141561122d576040517f08c379a000000000000000000000000000000000000000000000000000000000815260040161122490611c95565b60405180910390fd5b600282600a8110611267577f4e487b7100000000000000000000000000000000000000000000000000000000600052603260045260246000fd5b0154600282600a81106112a3577f4e487b7100000000000000000000000000000000000000000000000000000000600052603260045260246000fd5b015410156112af578091505b80806112ba90611e93565b9150506111a6565b50600281600a81106112fd577f4e487b7100000000000000000000000000000000000000000000000000000000600052603260045260246000fd5b0154821015611341576040517f08c379a000000000000000000000000000000000000000000000000000000000815260040161133890611b35565b60405180910390fd5b612710600282600a811061137e577f4e487b7100000000000000000000000000000000000000000000000000000000600052603260045260246000fd5b015461138a9190611d7f565b8211156113cc576040517f08c379a00000000000000000000000000000000000000000000000000000000081526004016113c390611b55565b60405180910390fd5b81600282600a8110611407577f4e487b7100000000000000000000000000000000000000000000000000000000600052603260045260246000fd5b01819055505050565b61036d8061221283390190565b60008135905061142c816121cc565b92915050565b60008083601f84011261144457600080fd5b8235905067ffffffffffffffff81111561145d57600080fd5b60208301915083602082028301111561147557600080fd5b9250929050565b60008083601f84011261148e57600080fd5b8235905067ffffffffffffffff8111156114a757600080fd5b6020830191508360208202830111156114bf57600080fd5b9250929050565b6000813590506114d5816121e3565b92915050565b60008083601f8401126114ed57600080fd5b8235905067ffffffffffffffff81111561150657600080fd5b60208301915083600182028301111561151e57600080fd5b9250929050565b600081359050611534816121fa565b92915050565b60006020828403121561154c57600080fd5b600061155a8482850161141d565b91505092915050565b6000806000806060858703121561157957600080fd5b60006115878782880161141d565b9450506020611598878288016114c6565b935050604085013567ffffffffffffffff8111156115b557600080fd5b6115c1878288016114db565b925092505092959194509250565b600080600080606085870312156115e557600080fd5b60006115f38782880161141d565b945050602061160487828801611525565b935050604085013567ffffffffffffffff81111561162157600080fd5b61162d878288016114db565b925092505092959194509250565b60008060008060008060a0878903121561165457600080fd5b600061166289828a0161141d565b965050602061167389828a01611525565b955050604087013567ffffffffffffffff81111561169057600080fd5b61169c89828a016114db565b945094505060606116af89828a01611525565b92505060806116c089828a01611525565b9150509295509295509295565b600080600080604085870312156116e357600080fd5b600085013567ffffffffffffffff8111156116fd57600080fd5b61170987828801611432565b9450945050602085013567ffffffffffffffff81111561172857600080fd5b6117348782880161147c565b925092505092959194509250565b61174b81611e09565b82525050565b61175a81611e1b565b82525050565b600061176c8385611d52565b9350611779838584611e51565b61178283611f0b565b840190509392505050565b60006117998385611d63565b93506117a6838584611e51565b82840190509392505050565b60006117bd82611d47565b6117c78185611d52565b93506117d7818560208601611e60565b6117e081611f0b565b840191505092915050565b60006117f8601383611d6e565b915061180382611f1c565b602082019050919050565b600061181b603d83611d6e565b915061182682611f45565b604082019050919050565b600061183e603983611d6e565b915061184982611f94565b604082019050919050565b6000611861602e83611d6e565b915061186c82611fe3565b604082019050919050565b6000611884601583611d6e565b915061188f82612032565b602082019050919050565b60006118a7602483611d6e565b91506118b28261205b565b604082019050919050565b60006118ca601783611d6e565b91506118d5826120aa565b602082019050919050565b60006118ed601183611d6e565b91506118f8826120d3565b602082019050919050565b6000611910601d83611d6e565b915061191b826120fc565b602082019050919050565b6000611933600083611d52565b915061193e82612125565b600082019050919050565b6000611956601083611d6e565b915061196182612128565b602082019050919050565b6000611979601d83611d6e565b915061198482612151565b602082019050919050565b600061199c602083611d6e565b91506119a78261217a565b602082019050919050565b60006119bf601383611d6e565b91506119ca826121a3565b602082019050919050565b6119de81611e47565b82525050565b60006119f182848661178d565b91508190509392505050565b6000602082019050611a126000830184611742565b92915050565b6000608082019050611a2d6000830188611742565b611a3a6020830187611742565b611a4760408301866119d5565b8181036060830152611a5a818486611760565b90509695505050505050565b6000604082019050611a7b6000830186611742565b8181036020830152611a8e818486611760565b9050949350505050565b6000606082019050611aad6000830187611742565b611aba60208301866119d5565b8181036040830152611acd818486611760565b905095945050505050565b6000602082019050611aed6000830184611751565b92915050565b60006020820190508181036000830152611b0d81846117b2565b905092915050565b60006020820190508181036000830152611b2e816117eb565b9050919050565b60006020820190508181036000830152611b4e8161180e565b9050919050565b60006020820190508181036000830152611b6e81611831565b9050919050565b60006020820190508181036000830152611b8e81611854565b9050919050565b60006020820190508181036000830152611bae81611877565b9050919050565b60006020820190508181036000830152611bce8161189a565b9050919050565b60006020820190508181036000830152611bee816118bd565b9050919050565b60006020820190508181036000830152611c0e816118e0565b9050919050565b60006020820190508181036000830152611c2e81611903565b9050919050565b60006020820190508181036000830152611c4e81611926565b9050919050565b60006020820190508181036000830152611c6e81611949565b9050919050565b60006020820190508181036000830152611c8e8161196c565b9050919050565b60006020820190508181036000830152611cae8161198f565b9050919050565b60006020820190508181036000830152611cce816119b2565b9050919050565b6000602082019050611cea60008301846119d5565b92915050565b60008083356001602003843603038112611d0957600080fd5b80840192508235915067ffffffffffffffff821115611d2757600080fd5b602083019250600182023603831315611d3f57600080fd5b509250929050565b600081519050919050565b600082825260208201905092915050565b600081905092915050565b600082825260208201905092915050565b6000611d8a82611e47565b9150611d9583611e47565b9250827fffffffffffffffffffffffffffffffffffffffffffffffffffffffffffffffff03821115611dca57611dc9611edc565b5b828201905092915050565b6000611de082611e47565b9150611deb83611e47565b925082821015611dfe57611dfd611edc565b5b828203905092915050565b6000611e1482611e27565b9050919050565b60008115159050919050565b600073ffffffffffffffffffffffffffffffffffffffff82169050919050565b6000819050919050565b82818337600083830152505050565b60005b83811015611e7e578082015181840152602081019050611e63565b83811115611e8d576000848401525b50505050565b6000611e9e82611e47565b91507fffffffffffffffffffffffffffffffffffffffffffffffffffffffffffffffff821415611ed157611ed0611edc565b5b600182019050919050565b7f4e487b7100000000000000000000000000000000000000000000000000000000600052601160045260246000fd5b6000601f19601f8301169050919050565b7f5472616e73616374696f6e206578706972656400000000000000000000000000600082015250565b7f573a207468652073657175656e6365204944206265696e67207573656420697360008201527f206c6f77657220746861746e20746865206c6f776573742076616c7565000000602082015250565b7f573a20626c6f636b20736571756e65636520494420617265206d75636820686960008201527f676572207468616e20746865206c6f776573742076616c756500000000000000602082015250565b7f496e697469616c697a61626c653a20636f6e747261637420697320616c72656160008201527f647920696e697469616c697a6564000000000000000000000000000000000000602082015250565b7f573a2063616e6e27742063616c6c20697473656c660000000000000000000000600082015250565b7f573a20656d707479206d6f64756c6573206f72206e6f74206d6174636865642060008201527f6461746100000000000000000000000000000000000000000000000000000000602082015250565b7f4d6f64756c6520697320616c7265616479206164646564000000000000000000600082015250565b7f573a206d757374206265206d6f64756c65000000000000000000000000000000600082015250565b7f42573a2063616e6e6f742072656d6f7665206c617374206d6f64756c65000000600082015250565b50565b7f573a206d757374206265206f776e657200000000000000000000000000000000600082015250565b7f573a2077616c6c657420616c726561647920696e697469616c697a6564000000600082015250565b7f573a207468652073657175656e636520494420686173206265656e2075736564600082015250565b7f573a20696e76616c6964206e65774f776e657200000000000000000000000000600082015250565b6121d581611e09565b81146121e057600080fd5b50565b6121ec81611e1b565b81146121f757600080fd5b50565b61220381611e47565b811461220e57600080fd5b5056fe608060405234801561001057600080fd5b50336000806101000a81548173ffffffffffffffffffffffffffffffffffffffff021916908373ffffffffffffffffffffffffffffffffffffffff16021790555061030d806100606000396000f3fe60806040526004361061002c5760003560e01c8062821de3146100d45780636b9f96ea146100ff5761002d565b5b60008054906101000a900473ffffffffffffffffffffffffffffffffffffffff1673ffffffffffffffffffffffffffffffffffffffff166108fc349081150290604051600060405180830381858888f19350505050158015610093573d6000803e3d6000fd5b507f69b31548dea9b3b707b4dff357d326e3e9348b24e7a6080a218a6edeeec48f9b33346000366040516100ca9493929190610218565b60405180910390a1005b3480156100e057600080fd5b506100e9610116565b6040516100f691906101fd565b60405180910390f35b34801561010b57600080fd5b5061011461013a565b005b60008054906101000a900473ffffffffffffffffffffffffffffffffffffffff1681565b60008054906101000a900473ffffffffffffffffffffffffffffffffffffffff1673ffffffffffffffffffffffffffffffffffffffff166108fc479081150290604051600060405180830381858888f193505050501580156101a0573d6000803e3d6000fd5b50565b6101ac8161027b565b82525050565b6101bb81610269565b82525050565b60006101cd8385610258565b93506101da8385846102b7565b6101e3836102c6565b840190509392505050565b6101f7816102ad565b82525050565b600060208201905061021260008301846101a3565b92915050565b600060608201905061022d60008301876101b2565b61023a60208301866101ee565b818103604083015261024d8184866101c1565b905095945050505050565b600082825260208201905092915050565b60006102748261028d565b9050919050565b60006102868261028d565b9050919050565b600073ffffffffffffffffffffffffffffffffffffffff82169050919050565b6000819050919050565b82818337600083830152505050565b6000601f19601f830116905091905056fea2646970667358221220d66b52b102a109dd74d3aa6fd1c062698783d1174adbdc77c468367b8fc94d1464736f6c63430008030033a2646970667358221220f1e96e0edde49d9640ff561145a5284883154a95fc92e745870bb9cb866d762664736f6c63430008030033",
  "linkReferences": {},
  "deployedLinkReferences": {}
}