{
  "_format": "hh-sol-artifact-1",
  "contractName": "Wallet",
  "sourceName": "contracts/Wallet.sol",
  "abi": [
    {
      "inputs": [],
      "stateMutability": "nonpayable",
      "type": "constructor"
    },
    {
      "anonymous": false,
      "inputs": [
        {
          "indexed": true,
          "internalType": "address",
          "name": "module",
          "type": "address"
        },
        {
          "indexed": false,
          "internalType": "bool",
          "name": "value",
          "type": "bool"
        }
      ],
      "name": "AuthorisedModule",
      "type": "event"
    },
    {
      "anonymous": false,
      "inputs": [
        {
          "indexed": false,
          "internalType": "address",
          "name": "from",
          "type": "address"
        },
        {
          "indexed": false,
          "internalType": "uint256",
          "name": "value",
          "type": "uint256"
        },
        {
          "indexed": false,
          "internalType": "bytes",
          "name": "data",
          "type": "bytes"
        }
      ],
      "name": "Deposited",
      "type": "event"
    },
    {
      "anonymous": false,
      "inputs": [
        {
          "indexed": false,
          "internalType": "address",
          "name": "from",
          "type": "address"
        },
        {
          "indexed": false,
          "internalType": "address",
          "name": "to",
          "type": "address"
        },
        {
          "indexed": false,
          "internalType": "uint256",
          "name": "value",
          "type": "uint256"
        },
        {
          "indexed": false,
          "internalType": "bytes",
          "name": "data",
          "type": "bytes"
        }
      ],
      "name": "Invoked",
      "type": "event"
    },
    {
      "anonymous": false,
      "inputs": [
        {
          "indexed": true,
          "internalType": "uint256",
          "name": "value",
          "type": "uint256"
        },
        {
          "indexed": true,
          "internalType": "address",
          "name": "sender",
          "type": "address"
        },
        {
          "indexed": false,
          "internalType": "bytes",
          "name": "data",
          "type": "bytes"
        }
      ],
      "name": "Received",
      "type": "event"
    },
    {
      "anonymous": false,
      "inputs": [
        {
          "indexed": false,
          "internalType": "address",
          "name": "msgSender",
          "type": "address"
        }
      ],
      "name": "SafeModeActivated",
      "type": "event"
    },
    {
      "stateMutability": "payable",
      "type": "fallback"
    },
    {
      "inputs": [
        {
          "internalType": "address",
          "name": "_module",
          "type": "address"
        },
        {
          "internalType": "bool",
          "name": "_value",
          "type": "bool"
        },
        {
          "internalType": "bytes",
          "name": "_data",
          "type": "bytes"
        }
      ],
      "name": "authoriseModule",
      "outputs": [],
      "stateMutability": "nonpayable",
      "type": "function"
    },
    {
      "inputs": [
        {
          "internalType": "address",
          "name": "",
          "type": "address"
        }
      ],
      "name": "authorised",
      "outputs": [
        {
          "internalType": "bool",
          "name": "",
          "type": "bool"
        }
      ],
      "stateMutability": "view",
      "type": "function"
    },
    {
      "inputs": [],
      "name": "createForwarder",
      "outputs": [
        {
          "internalType": "address",
          "name": "",
          "type": "address"
        }
      ],
      "stateMutability": "nonpayable",
      "type": "function"
    },
    {
      "inputs": [],
      "name": "getNextSequenceId",
      "outputs": [
        {
          "internalType": "uint256",
          "name": "",
          "type": "uint256"
        }
      ],
      "stateMutability": "view",
      "type": "function"
    },
    {
      "inputs": [
        {
          "internalType": "address[]",
          "name": "_modules",
          "type": "address[]"
        },
        {
          "internalType": "bytes[]",
          "name": "_data",
          "type": "bytes[]"
        }
      ],
      "name": "initialize",
      "outputs": [],
      "stateMutability": "nonpayable",
      "type": "function"
    },
    {
      "inputs": [
        {
          "internalType": "address",
          "name": "_target",
          "type": "address"
        },
        {
          "internalType": "uint256",
          "name": "_value",
          "type": "uint256"
        },
        {
          "internalType": "bytes",
          "name": "_data",
          "type": "bytes"
        },
        {
          "internalType": "uint256",
          "name": "_expireTime",
          "type": "uint256"
        },
        {
          "internalType": "uint256",
          "name": "_sequenceId",
          "type": "uint256"
        }
      ],
      "name": "invoke",
      "outputs": [
        {
          "internalType": "bytes",
          "name": "_result",
          "type": "bytes"
        }
      ],
      "stateMutability": "nonpayable",
      "type": "function"
    },
    {
      "inputs": [],
      "name": "modules",
      "outputs": [
        {
          "internalType": "uint256",
          "name": "",
          "type": "uint256"
        }
      ],
      "stateMutability": "view",
      "type": "function"
    },
    {
      "inputs": [],
      "name": "owner",
      "outputs": [
        {
          "internalType": "address",
          "name": "",
          "type": "address"
        }
      ],
      "stateMutability": "view",
      "type": "function"
    },
    {
      "inputs": [
        {
          "internalType": "address",
          "name": "_newOwner",
          "type": "address"
        }
      ],
      "name": "replaceOwner",
      "outputs": [],
      "stateMutability": "nonpayable",
      "type": "function"
    }
  ],
  "bytecode": "0x608060405234801561001057600080fd5b5033600060026101000a81548173ffffffffffffffffffffffffffffffffffffffff021916908373ffffffffffffffffffffffffffffffffffffffff16021790555061228b806100616000396000f3fe60806040526004361061008a5760003560e01c8063a39a45b711610059578063a39a45b71461017d578063a68a76cc146101a6578063b14f6c83146101d1578063d6eb1bbf1461020e578063f7e80e981461024b5761008b565b806337f8d5ff146100d55780638da5cb5b146100fe578063904723e414610129578063a0b7967b146101525761008b565b5b60003411156100d3577f6e89d517057028190560dd200cf6bf792842861353d1173761dfa362e1c133f033346000366040516100ca94939291906117b8565b60405180910390a15b005b3480156100e157600080fd5b506100fc60048036038101906100f79190611410565b610276565b005b34801561010a57600080fd5b50610113610831565b604051610120919061171d565b60405180910390f35b34801561013557600080fd5b50610150600480360381019061014b9190611312565b610857565b005b34801561015e57600080fd5b50610167610b33565b60405161017491906119d5565b60405180910390f35b34801561018957600080fd5b506101a4600480360381019061019f91906112e9565b610bef565b005b3480156101b257600080fd5b506101bb610d2f565b6040516101c8919061171d565b60405180910390f35b3480156101dd57600080fd5b506101f860048036038101906101f3919061137e565b610d5f565b6040516102059190611813565b60405180910390f35b34801561021a57600080fd5b50610235600480360381019061023091906112e9565b610f07565b60405161024291906117f8565b60405180910390f35b34801561025757600080fd5b50610260610f27565b60405161026d91906119d5565b60405180910390f35b600060019054906101000a900460ff1661029e5760008054906101000a900460ff16156102a7565b6102a6610f2d565b5b6102e6576040517f08c379a00000000000000000000000000000000000000000000000000000000081526004016102dd90611895565b60405180910390fd5b60008060019054906101000a900460ff161590508015610336576001600060016101000a81548160ff02191690831515021790555060016000806101000a81548160ff0219169083151502179055505b600073ffffffffffffffffffffffffffffffffffffffff16600060029054906101000a900473ffffffffffffffffffffffffffffffffffffffff1673ffffffffffffffffffffffffffffffffffffffff16146103c7576040517f08c379a00000000000000000000000000000000000000000000000000000000081526004016103be90611975565b60405180910390fd5b6000858590501180156103df57508282905085859050145b61041e576040517f08c379a0000000000000000000000000000000000000000000000000000000008152600401610415906118b5565b60405180910390fd5b8484905060018190555033600060026101000a81548173ffffffffffffffffffffffffffffffffffffffff021916908373ffffffffffffffffffffffffffffffffffffffff16021790555060005b858590508110156107b05760001515600c60008888858181106104b8577f4e487b7100000000000000000000000000000000000000000000000000000000600052603260045260246000fd5b90506020020160208101906104cd91906112e9565b73ffffffffffffffffffffffffffffffffffffffff1673ffffffffffffffffffffffffffffffffffffffff16815260200190815260200160002060009054906101000a900460ff16151514610557576040517f08c379a000000000000000000000000000000000000000000000000000000000815260040161054e906118d5565b60405180910390fd5b6001600c6000888885818110610596577f4e487b7100000000000000000000000000000000000000000000000000000000600052603260045260246000fd5b90506020020160208101906105ab91906112e9565b73ffffffffffffffffffffffffffffffffffffffff1673ffffffffffffffffffffffffffffffffffffffff16815260200190815260200160002060006101000a81548160ff021916908315150217905550858582818110610635577f4e487b7100000000000000000000000000000000000000000000000000000000600052603260045260246000fd5b905060200201602081019061064a91906112e9565b73ffffffffffffffffffffffffffffffffffffffff1663c0d91eaf3086868581811061069f577f4e487b7100000000000000000000000000000000000000000000000000000000600052603260045260246000fd5b90506020028101906106b191906119f0565b6040518463ffffffff1660e01b81526004016106cf93929190611786565b600060405180830381600087803b1580156106e957600080fd5b505af11580156106fd573d6000803e3d6000fd5b5050505085858281811061073a577f4e487b7100000000000000000000000000000000000000000000000000000000600052603260045260246000fd5b905060200201602081019061074f91906112e9565b73ffffffffffffffffffffffffffffffffffffffff167f8da3ff870ae294081392139550e167f1f31f277f22015ee22fbffdbd7758f4e1600160405161079591906117f8565b60405180910390a280806107a890611b93565b91505061046c565b50600047111561080957600073ffffffffffffffffffffffffffffffffffffffff16477f606834f57405380c4fb88d1f4850326ad3885f014bab3b568dfbf7a041eef73860405161080090611935565b60405180910390a35b801561082a5760008060016101000a81548160ff0219169083151502179055505b5050505050565b600060029054906101000a900473ffffffffffffffffffffffffffffffffffffffff1681565b600060029054906101000a900473ffffffffffffffffffffffffffffffffffffffff1673ffffffffffffffffffffffffffffffffffffffff163373ffffffffffffffffffffffffffffffffffffffff16146108e7576040517f08c379a00000000000000000000000000000000000000000000000000000000081526004016108de90611955565b60405180910390fd5b821515600c60008673ffffffffffffffffffffffffffffffffffffffff1673ffffffffffffffffffffffffffffffffffffffff16815260200190815260200160002060009054906101000a900460ff16151514610b2d578373ffffffffffffffffffffffffffffffffffffffff167f8da3ff870ae294081392139550e167f1f31f277f22015ee22fbffdbd7758f4e18460405161098491906117f8565b60405180910390a2600115158315151415610a7e5760018060008282546109ab9190611a7f565b925050819055506001600c60008673ffffffffffffffffffffffffffffffffffffffff1673ffffffffffffffffffffffffffffffffffffffff16815260200190815260200160002060006101000a81548160ff0219169083151502179055508373ffffffffffffffffffffffffffffffffffffffff1663c0d91eaf3084846040518463ffffffff1660e01b8152600401610a4793929190611786565b600060405180830381600087803b158015610a6157600080fd5b505af1158015610a75573d6000803e3d6000fd5b50505050610b2c565b6001806000828254610a909190611ad5565b92505081905550600060015411610adc576040517f08c379a0000000000000000000000000000000000000000000000000000000008152600401610ad390611915565b60405180910390fd5b600c60008573ffffffffffffffffffffffffffffffffffffffff1673ffffffffffffffffffffffffffffffffffffffff16815260200190815260200160002060006101000a81549060ff02191690555b5b50505050565b6000806000905060005b600a811015610bdb5781600282600a8110610b81577f4e487b7100000000000000000000000000000000000000000000000000000000600052603260045260246000fd5b01541115610bc857600281600a8110610bc3577f4e487b7100000000000000000000000000000000000000000000000000000000600052603260045260246000fd5b015491505b8080610bd390611b93565b915050610b3d565b50600181610be99190611a7f565b91505090565b600c60003373ffffffffffffffffffffffffffffffffffffffff1673ffffffffffffffffffffffffffffffffffffffff16815260200190815260200160002060009054906101000a900460ff16610c7b576040517f08c379a0000000000000000000000000000000000000000000000000000000008152600401610c72906118f5565b60405180910390fd5b600073ffffffffffffffffffffffffffffffffffffffff168173ffffffffffffffffffffffffffffffffffffffff161415610ceb576040517f08c379a0000000000000000000000000000000000000000000000000000000008152600401610ce2906119b5565b60405180910390fd5b80600060026101000a81548173ffffffffffffffffffffffffffffffffffffffff021916908373ffffffffffffffffffffffffffffffffffffffff16021790555050565b6000604051610d3d906111bf565b604051809103906000f080158015610d59573d6000803e3d6000fd5b50905090565b6060600c60003373ffffffffffffffffffffffffffffffffffffffff1673ffffffffffffffffffffffffffffffffffffffff16815260200190815260200160002060009054906101000a900460ff16610ded576040517f08c379a0000000000000000000000000000000000000000000000000000000008152600401610de4906118f5565b60405180910390fd5b600042841015610e32576040517f08c379a0000000000000000000000000000000000000000000000000000000008152600401610e2990611835565b60405180910390fd5b610e3b83610f3e565b8773ffffffffffffffffffffffffffffffffffffffff16878787604051610e63929190611704565b60006040518083038185875af1925050503d8060008114610ea0576040519150601f19603f3d011682016040523d82523d6000602084013e610ea5565b606091505b50809350819250505080610ebd573d6000803e3d6000fd5b7f7d2476ab50663f025cff0be85655bcf355f62768615c0c478f3cd5293f8073653389898989604051610ef4959493929190611738565b60405180910390a1509695505050505050565b600c6020528060005260406000206000915054906101000a900460ff1681565b60015481565b6000610f38306111ac565b15905090565b6000805b600a81101561105e5782600282600a8110610f86577f4e487b7100000000000000000000000000000000000000000000000000000000600052603260045260246000fd5b01541415610fc9576040517f08c379a0000000000000000000000000000000000000000000000000000000008152600401610fc090611995565b60405180910390fd5b600282600a8110611003577f4e487b7100000000000000000000000000000000000000000000000000000000600052603260045260246000fd5b0154600282600a811061103f577f4e487b7100000000000000000000000000000000000000000000000000000000600052603260045260246000fd5b0154101561104b578091505b808061105690611b93565b915050610f42565b50600281600a8110611099577f4e487b7100000000000000000000000000000000000000000000000000000000600052603260045260246000fd5b01548210156110dd576040517f08c379a00000000000000000000000000000000000000000000000000000000081526004016110d490611855565b60405180910390fd5b612710600282600a811061111a577f4e487b7100000000000000000000000000000000000000000000000000000000600052603260045260246000fd5b01546111269190611a7f565b821115611168576040517f08c379a000000000000000000000000000000000000000000000000000000000815260040161115f90611875565b60405180910390fd5b81600282600a81106111a3577f4e487b7100000000000000000000000000000000000000000000000000000000600052603260045260246000fd5b01819055505050565b600080823b905060008111915050919050565b61036d80611ee983390190565b6000813590506111db81611ea3565b92915050565b60008083601f8401126111f357600080fd5b8235905067ffffffffffffffff81111561120c57600080fd5b60208301915083602082028301111561122457600080fd5b9250929050565b60008083601f84011261123d57600080fd5b8235905067ffffffffffffffff81111561125657600080fd5b60208301915083602082028301111561126e57600080fd5b9250929050565b60008135905061128481611eba565b92915050565b60008083601f84011261129c57600080fd5b8235905067ffffffffffffffff8111156112b557600080fd5b6020830191508360018202830111156112cd57600080fd5b9250929050565b6000813590506112e381611ed1565b92915050565b6000602082840312156112fb57600080fd5b6000611309848285016111cc565b91505092915050565b6000806000806060858703121561132857600080fd5b6000611336878288016111cc565b945050602061134787828801611275565b935050604085013567ffffffffffffffff81111561136457600080fd5b6113708782880161128a565b925092505092959194509250565b60008060008060008060a0878903121561139757600080fd5b60006113a589828a016111cc565b96505060206113b689828a016112d4565b955050604087013567ffffffffffffffff8111156113d357600080fd5b6113df89828a0161128a565b945094505060606113f289828a016112d4565b925050608061140389828a016112d4565b9150509295509295509295565b6000806000806040858703121561142657600080fd5b600085013567ffffffffffffffff81111561144057600080fd5b61144c878288016111e1565b9450945050602085013567ffffffffffffffff81111561146b57600080fd5b6114778782880161122b565b925092505092959194509250565b61148e81611b09565b82525050565b61149d81611b1b565b82525050565b60006114af8385611a52565b93506114bc838584611b51565b6114c583611c0b565b840190509392505050565b60006114dc8385611a63565b93506114e9838584611b51565b82840190509392505050565b600061150082611a47565b61150a8185611a52565b935061151a818560208601611b60565b61152381611c0b565b840191505092915050565b600061153b601383611a6e565b915061154682611c1c565b602082019050919050565b600061155e603d83611a6e565b915061156982611c45565b604082019050919050565b6000611581603983611a6e565b915061158c82611c94565b604082019050919050565b60006115a4602e83611a6e565b91506115af82611ce3565b604082019050919050565b60006115c7602483611a6e565b91506115d282611d32565b604082019050919050565b60006115ea601783611a6e565b91506115f582611d81565b602082019050919050565b600061160d601183611a6e565b915061161882611daa565b602082019050919050565b6000611630601d83611a6e565b915061163b82611dd3565b602082019050919050565b6000611653600083611a52565b915061165e82611dfc565b600082019050919050565b6000611676601083611a6e565b915061168182611dff565b602082019050919050565b6000611699601d83611a6e565b91506116a482611e28565b602082019050919050565b60006116bc602083611a6e565b91506116c782611e51565b602082019050919050565b60006116df601383611a6e565b91506116ea82611e7a565b602082019050919050565b6116fe81611b47565b82525050565b60006117118284866114d0565b91508190509392505050565b60006020820190506117326000830184611485565b92915050565b600060808201905061174d6000830188611485565b61175a6020830187611485565b61176760408301866116f5565b818103606083015261177a8184866114a3565b90509695505050505050565b600060408201905061179b6000830186611485565b81810360208301526117ae8184866114a3565b9050949350505050565b60006060820190506117cd6000830187611485565b6117da60208301866116f5565b81810360408301526117ed8184866114a3565b905095945050505050565b600060208201905061180d6000830184611494565b92915050565b6000602082019050818103600083015261182d81846114f5565b905092915050565b6000602082019050818103600083015261184e8161152e565b9050919050565b6000602082019050818103600083015261186e81611551565b9050919050565b6000602082019050818103600083015261188e81611574565b9050919050565b600060208201905081810360008301526118ae81611597565b9050919050565b600060208201905081810360008301526118ce816115ba565b9050919050565b600060208201905081810360008301526118ee816115dd565b9050919050565b6000602082019050818103600083015261190e81611600565b9050919050565b6000602082019050818103600083015261192e81611623565b9050919050565b6000602082019050818103600083015261194e81611646565b9050919050565b6000602082019050818103600083015261196e81611669565b9050919050565b6000602082019050818103600083015261198e8161168c565b9050919050565b600060208201905081810360008301526119ae816116af565b9050919050565b600060208201905081810360008301526119ce816116d2565b9050919050565b60006020820190506119ea60008301846116f5565b92915050565b60008083356001602003843603038112611a0957600080fd5b80840192508235915067ffffffffffffffff821115611a2757600080fd5b602083019250600182023603831315611a3f57600080fd5b509250929050565b600081519050919050565b600082825260208201905092915050565b600081905092915050565b600082825260208201905092915050565b6000611a8a82611b47565b9150611a9583611b47565b9250827fffffffffffffffffffffffffffffffffffffffffffffffffffffffffffffffff03821115611aca57611ac9611bdc565b5b828201905092915050565b6000611ae082611b47565b9150611aeb83611b47565b925082821015611afe57611afd611bdc565b5b828203905092915050565b6000611b1482611b27565b9050919050565b60008115159050919050565b600073ffffffffffffffffffffffffffffffffffffffff82169050919050565b6000819050919050565b82818337600083830152505050565b60005b83811015611b7e578082015181840152602081019050611b63565b83811115611b8d576000848401525b50505050565b6000611b9e82611b47565b91507fffffffffffffffffffffffffffffffffffffffffffffffffffffffffffffffff821415611bd157611bd0611bdc565b5b600182019050919050565b7f4e487b7100000000000000000000000000000000000000000000000000000000600052601160045260246000fd5b6000601f19601f8301169050919050565b7f5472616e73616374696f6e206578706972656400000000000000000000000000600082015250565b7f573a207468652073657175656e6365204944206265696e67207573656420697360008201527f206c6f77657220746861746e20746865206c6f776573742076616c7565000000602082015250565b7f573a20626c6f636b20736571756e65636520494420617265206d75636820686960008201527f676572207468616e20746865206c6f776573742076616c756500000000000000602082015250565b7f496e697469616c697a61626c653a20636f6e747261637420697320616c72656160008201527f647920696e697469616c697a6564000000000000000000000000000000000000602082015250565b7f573a20656d707479206d6f64756c6573206f72206e6f74206d6174636865642060008201527f6461746100000000000000000000000000000000000000000000000000000000602082015250565b7f4d6f64756c6520697320616c7265616479206164646564000000000000000000600082015250565b7f573a206d757374206265206d6f64756c65000000000000000000000000000000600082015250565b7f42573a2063616e6e6f742072656d6f7665206c617374206d6f64756c65000000600082015250565b50565b7f573a206d757374206265206f776e657200000000000000000000000000000000600082015250565b7f573a2077616c6c657420616c726561647920696e697469616c697a6564000000600082015250565b7f573a207468652073657175656e636520494420686173206265656e2075736564600082015250565b7f573a20696e76616c6964206e65774f776e657200000000000000000000000000600082015250565b611eac81611b09565b8114611eb757600080fd5b50565b611ec381611b1b565b8114611ece57600080fd5b50565b611eda81611b47565b8114611ee557600080fd5b5056fe608060405234801561001057600080fd5b50336000806101000a81548173ffffffffffffffffffffffffffffffffffffffff021916908373ffffffffffffffffffffffffffffffffffffffff16021790555061030d806100606000396000f3fe60806040526004361061002c5760003560e01c8062821de3146100d45780636b9f96ea146100ff5761002d565b5b60008054906101000a900473ffffffffffffffffffffffffffffffffffffffff1673ffffffffffffffffffffffffffffffffffffffff166108fc349081150290604051600060405180830381858888f19350505050158015610093573d6000803e3d6000fd5b507f69b31548dea9b3b707b4dff357d326e3e9348b24e7a6080a218a6edeeec48f9b33346000366040516100ca9493929190610218565b60405180910390a1005b3480156100e057600080fd5b506100e9610116565b6040516100f691906101fd565b60405180910390f35b34801561010b57600080fd5b5061011461013a565b005b60008054906101000a900473ffffffffffffffffffffffffffffffffffffffff1681565b60008054906101000a900473ffffffffffffffffffffffffffffffffffffffff1673ffffffffffffffffffffffffffffffffffffffff166108fc479081150290604051600060405180830381858888f193505050501580156101a0573d6000803e3d6000fd5b50565b6101ac8161027b565b82525050565b6101bb81610269565b82525050565b60006101cd8385610258565b93506101da8385846102b7565b6101e3836102c6565b840190509392505050565b6101f7816102ad565b82525050565b600060208201905061021260008301846101a3565b92915050565b600060608201905061022d60008301876101b2565b61023a60208301866101ee565b818103604083015261024d8184866101c1565b905095945050505050565b600082825260208201905092915050565b60006102748261028d565b9050919050565b60006102868261028d565b9050919050565b600073ffffffffffffffffffffffffffffffffffffffff82169050919050565b6000819050919050565b82818337600083830152505050565b6000601f19601f830116905091905056fea2646970667358221220aed5b4e1a8dc44ff9bb088c39190775885a97c90001a1152d8a0e8c8b3ae4d2564736f6c63430008030033a2646970667358221220af440b0abc585b36e8a5e33fc73518c1bf9a3d4a84daf0f2eef211f7af4efcfe64736f6c63430008030033",
  "linkReferences": {},
  "deployedLinkReferences": {}
}