{
  "_format": "hh-sol-artifact-1",
  "contractName": "Wallet",
  "sourceName": "contracts/Wallet.sol",
  "abi": [
    {
      "inputs": [],
      "stateMutability": "nonpayable",
      "type": "constructor"
    },
    {
      "anonymous": false,
      "inputs": [
        {
          "indexed": true,
          "internalType": "address",
          "name": "module",
          "type": "address"
        },
        {
          "indexed": false,
          "internalType": "bool",
          "name": "value",
          "type": "bool"
        }
      ],
      "name": "AuthorisedModule",
      "type": "event"
    },
    {
      "anonymous": false,
      "inputs": [
        {
          "indexed": false,
          "internalType": "address",
          "name": "from",
          "type": "address"
        },
        {
          "indexed": false,
          "internalType": "uint256",
          "name": "value",
          "type": "uint256"
        },
        {
          "indexed": false,
          "internalType": "bytes",
          "name": "data",
          "type": "bytes"
        }
      ],
      "name": "Deposited",
      "type": "event"
    },
    {
      "anonymous": false,
      "inputs": [
        {
          "indexed": false,
          "internalType": "address",
          "name": "from",
          "type": "address"
        },
        {
          "indexed": false,
          "internalType": "address",
          "name": "to",
          "type": "address"
        },
        {
          "indexed": false,
          "internalType": "uint256",
          "name": "value",
          "type": "uint256"
        },
        {
          "indexed": false,
          "internalType": "bytes",
          "name": "data",
          "type": "bytes"
        }
      ],
      "name": "Invoked",
      "type": "event"
    },
    {
      "anonymous": false,
      "inputs": [
        {
          "indexed": false,
          "internalType": "address",
          "name": "from",
          "type": "address"
        },
        {
          "indexed": false,
          "internalType": "address",
          "name": "to",
          "type": "address"
        },
        {
          "indexed": false,
          "internalType": "uint256",
          "name": "value",
          "type": "uint256"
        },
        {
          "indexed": false,
          "internalType": "bytes",
          "name": "data",
          "type": "bytes"
        }
      ],
      "name": "RawInvoked",
      "type": "event"
    },
    {
      "anonymous": false,
      "inputs": [
        {
          "indexed": true,
          "internalType": "uint256",
          "name": "value",
          "type": "uint256"
        },
        {
          "indexed": true,
          "internalType": "address",
          "name": "sender",
          "type": "address"
        },
        {
          "indexed": false,
          "internalType": "bytes",
          "name": "data",
          "type": "bytes"
        }
      ],
      "name": "Received",
      "type": "event"
    },
    {
      "anonymous": false,
      "inputs": [
        {
          "indexed": false,
          "internalType": "address",
          "name": "msgSender",
          "type": "address"
        }
      ],
      "name": "SafeModeActivated",
      "type": "event"
    },
    {
      "stateMutability": "payable",
      "type": "fallback"
    },
    {
      "inputs": [
        {
          "internalType": "address",
          "name": "_module",
          "type": "address"
        },
        {
          "internalType": "bool",
          "name": "_value",
          "type": "bool"
        },
        {
          "internalType": "bytes",
          "name": "_data",
          "type": "bytes"
        }
      ],
      "name": "authoriseModule",
      "outputs": [],
      "stateMutability": "nonpayable",
      "type": "function"
    },
    {
      "inputs": [
        {
          "internalType": "address",
          "name": "",
          "type": "address"
        }
      ],
      "name": "authorised",
      "outputs": [
        {
          "internalType": "bool",
          "name": "",
          "type": "bool"
        }
      ],
      "stateMutability": "view",
      "type": "function"
    },
    {
      "inputs": [],
      "name": "createForwarder",
      "outputs": [
        {
          "internalType": "address",
          "name": "",
          "type": "address"
        }
      ],
      "stateMutability": "nonpayable",
      "type": "function"
    },
    {
      "inputs": [],
      "name": "getNextSequenceId",
      "outputs": [
        {
          "internalType": "uint256",
          "name": "",
          "type": "uint256"
        }
      ],
      "stateMutability": "view",
      "type": "function"
    },
    {
      "inputs": [
        {
          "internalType": "address[]",
          "name": "_modules",
          "type": "address[]"
        },
        {
          "internalType": "bytes[]",
          "name": "_data",
          "type": "bytes[]"
        }
      ],
      "name": "initialize",
      "outputs": [],
      "stateMutability": "nonpayable",
      "type": "function"
    },
    {
      "inputs": [
        {
          "internalType": "address",
          "name": "_target",
          "type": "address"
        },
        {
          "internalType": "uint256",
          "name": "_value",
          "type": "uint256"
        },
        {
          "internalType": "bytes",
          "name": "_data",
          "type": "bytes"
        },
        {
          "internalType": "uint256",
          "name": "_expireTime",
          "type": "uint256"
        },
        {
          "internalType": "uint256",
          "name": "_sequenceId",
          "type": "uint256"
        }
      ],
      "name": "invoke",
      "outputs": [
        {
          "internalType": "bytes",
          "name": "_result",
          "type": "bytes"
        }
      ],
      "stateMutability": "nonpayable",
      "type": "function"
    },
    {
      "inputs": [],
      "name": "modules",
      "outputs": [
        {
          "internalType": "uint256",
          "name": "",
          "type": "uint256"
        }
      ],
      "stateMutability": "view",
      "type": "function"
    },
    {
      "inputs": [],
      "name": "owner",
      "outputs": [
        {
          "internalType": "address",
          "name": "",
          "type": "address"
        }
      ],
      "stateMutability": "view",
      "type": "function"
    },
    {
      "inputs": [
        {
          "internalType": "address",
          "name": "_target",
          "type": "address"
        },
        {
          "internalType": "uint256",
          "name": "_value",
          "type": "uint256"
        },
        {
          "internalType": "bytes",
          "name": "_data",
          "type": "bytes"
        }
      ],
      "name": "raw_invoke",
      "outputs": [
        {
          "internalType": "bytes",
          "name": "_result",
          "type": "bytes"
        }
      ],
      "stateMutability": "nonpayable",
      "type": "function"
    },
    {
      "inputs": [
        {
          "internalType": "address",
          "name": "_newOwner",
          "type": "address"
        }
      ],
      "name": "replaceOwner",
      "outputs": [],
      "stateMutability": "nonpayable",
      "type": "function"
    }
  ],
  "bytecode": "0x608060405234801561001057600080fd5b5033600060026101000a81548173ffffffffffffffffffffffffffffffffffffffff021916908373ffffffffffffffffffffffffffffffffffffffff1602179055506125e3806100616000396000f3fe6080604052600436106100955760003560e01c8063a39a45b711610059578063a39a45b7146101c5578063a68a76cc146101ee578063b14f6c8314610219578063d6eb1bbf14610256578063f7e80e981461029357610096565b8063280ada2a146100e057806337f8d5ff1461011d5780638da5cb5b14610146578063904723e414610171578063a0b7967b1461019a57610096565b5b60003411156100de577f6e89d517057028190560dd200cf6bf792842861353d1173761dfa362e1c133f033346000366040516100d59493929190611ac7565b60405180910390a15b005b3480156100ec57600080fd5b50610107600480360381019061010291906115fe565b6102be565b6040516101149190611b22565b60405180910390f35b34801561012957600080fd5b50610144600480360381019061013f91906116fc565b610487565b005b34801561015257600080fd5b5061015b610a42565b6040516101689190611a2c565b60405180910390f35b34801561017d57600080fd5b5061019860048036038101906101939190611592565b610a68565b005b3480156101a657600080fd5b506101af610d44565b6040516101bc9190611d04565b60405180910390f35b3480156101d157600080fd5b506101ec60048036038101906101e79190611569565b610e00565b005b3480156101fa57600080fd5b50610203610f40565b6040516102109190611a2c565b60405180910390f35b34801561022557600080fd5b50610240600480360381019061023b919061166a565b610f70565b60405161024d9190611b22565b60405180910390f35b34801561026257600080fd5b5061027d60048036038101906102789190611569565b611187565b60405161028a9190611b07565b60405180910390f35b34801561029f57600080fd5b506102a86111a7565b6040516102b59190611d04565b60405180910390f35b6060600c60003373ffffffffffffffffffffffffffffffffffffffff1673ffffffffffffffffffffffffffffffffffffffff16815260200190815260200160002060009054906101000a900460ff1661034c576040517f08c379a000000000000000000000000000000000000000000000000000000000815260040161034390611c24565b60405180910390fd5b3073ffffffffffffffffffffffffffffffffffffffff168573ffffffffffffffffffffffffffffffffffffffff1614156103bb576040517f08c379a00000000000000000000000000000000000000000000000000000000081526004016103b290611bc4565b60405180910390fd5b60008573ffffffffffffffffffffffffffffffffffffffff168585856040516103e5929190611a13565b60006040518083038185875af1925050503d8060008114610422576040519150601f19603f3d011682016040523d82523d6000602084013e610427565b606091505b5080935081925050508061043f573d6000803e3d6000fd5b7f7d6bc4cf1e57c4137ae3c31041a66da66af567fee2a57ef75a12ef9fd0ac31ae3387878787604051610476959493929190611a47565b60405180910390a150949350505050565b600060019054906101000a900460ff166104af5760008054906101000a900460ff16156104b8565b6104b76111ad565b5b6104f7576040517f08c379a00000000000000000000000000000000000000000000000000000000081526004016104ee90611ba4565b60405180910390fd5b60008060019054906101000a900460ff161590508015610547576001600060016101000a81548160ff02191690831515021790555060016000806101000a81548160ff0219169083151502179055505b600073ffffffffffffffffffffffffffffffffffffffff16600060029054906101000a900473ffffffffffffffffffffffffffffffffffffffff1673ffffffffffffffffffffffffffffffffffffffff16146105d8576040517f08c379a00000000000000000000000000000000000000000000000000000000081526004016105cf90611ca4565b60405180910390fd5b6000858590501180156105f057508282905085859050145b61062f576040517f08c379a000000000000000000000000000000000000000000000000000000000815260040161062690611be4565b60405180910390fd5b8484905060018190555033600060026101000a81548173ffffffffffffffffffffffffffffffffffffffff021916908373ffffffffffffffffffffffffffffffffffffffff16021790555060005b858590508110156109c15760001515600c60008888858181106106c9577f4e487b7100000000000000000000000000000000000000000000000000000000600052603260045260246000fd5b90506020020160208101906106de9190611569565b73ffffffffffffffffffffffffffffffffffffffff1673ffffffffffffffffffffffffffffffffffffffff16815260200190815260200160002060009054906101000a900460ff16151514610768576040517f08c379a000000000000000000000000000000000000000000000000000000000815260040161075f90611c04565b60405180910390fd5b6001600c60008888858181106107a7577f4e487b7100000000000000000000000000000000000000000000000000000000600052603260045260246000fd5b90506020020160208101906107bc9190611569565b73ffffffffffffffffffffffffffffffffffffffff1673ffffffffffffffffffffffffffffffffffffffff16815260200190815260200160002060006101000a81548160ff021916908315150217905550858582818110610846577f4e487b7100000000000000000000000000000000000000000000000000000000600052603260045260246000fd5b905060200201602081019061085b9190611569565b73ffffffffffffffffffffffffffffffffffffffff1663c0d91eaf308686858181106108b0577f4e487b7100000000000000000000000000000000000000000000000000000000600052603260045260246000fd5b90506020028101906108c29190611d1f565b6040518463ffffffff1660e01b81526004016108e093929190611a95565b600060405180830381600087803b1580156108fa57600080fd5b505af115801561090e573d6000803e3d6000fd5b5050505085858281811061094b577f4e487b7100000000000000000000000000000000000000000000000000000000600052603260045260246000fd5b90506020020160208101906109609190611569565b73ffffffffffffffffffffffffffffffffffffffff167f8da3ff870ae294081392139550e167f1f31f277f22015ee22fbffdbd7758f4e160016040516109a69190611b07565b60405180910390a280806109b990611ec2565b91505061067d565b506000471115610a1a57600073ffffffffffffffffffffffffffffffffffffffff16477f606834f57405380c4fb88d1f4850326ad3885f014bab3b568dfbf7a041eef738604051610a1190611c64565b60405180910390a35b8015610a3b5760008060016101000a81548160ff0219169083151502179055505b5050505050565b600060029054906101000a900473ffffffffffffffffffffffffffffffffffffffff1681565b600060029054906101000a900473ffffffffffffffffffffffffffffffffffffffff1673ffffffffffffffffffffffffffffffffffffffff163373ffffffffffffffffffffffffffffffffffffffff1614610af8576040517f08c379a0000000000000000000000000000000000000000000000000000000008152600401610aef90611c84565b60405180910390fd5b821515600c60008673ffffffffffffffffffffffffffffffffffffffff1673ffffffffffffffffffffffffffffffffffffffff16815260200190815260200160002060009054906101000a900460ff16151514610d3e578373ffffffffffffffffffffffffffffffffffffffff167f8da3ff870ae294081392139550e167f1f31f277f22015ee22fbffdbd7758f4e184604051610b959190611b07565b60405180910390a2600115158315151415610c8f576001806000828254610bbc9190611dae565b925050819055506001600c60008673ffffffffffffffffffffffffffffffffffffffff1673ffffffffffffffffffffffffffffffffffffffff16815260200190815260200160002060006101000a81548160ff0219169083151502179055508373ffffffffffffffffffffffffffffffffffffffff1663c0d91eaf3084846040518463ffffffff1660e01b8152600401610c5893929190611a95565b600060405180830381600087803b158015610c7257600080fd5b505af1158015610c86573d6000803e3d6000fd5b50505050610d3d565b6001806000828254610ca19190611e04565b92505081905550600060015411610ced576040517f08c379a0000000000000000000000000000000000000000000000000000000008152600401610ce490611c44565b60405180910390fd5b600c60008573ffffffffffffffffffffffffffffffffffffffff1673ffffffffffffffffffffffffffffffffffffffff16815260200190815260200160002060006101000a81549060ff02191690555b5b50505050565b6000806000905060005b600a811015610dec5781600282600a8110610d92577f4e487b7100000000000000000000000000000000000000000000000000000000600052603260045260246000fd5b01541115610dd957600281600a8110610dd4577f4e487b7100000000000000000000000000000000000000000000000000000000600052603260045260246000fd5b015491505b8080610de490611ec2565b915050610d4e565b50600181610dfa9190611dae565b91505090565b600c60003373ffffffffffffffffffffffffffffffffffffffff1673ffffffffffffffffffffffffffffffffffffffff16815260200190815260200160002060009054906101000a900460ff16610e8c576040517f08c379a0000000000000000000000000000000000000000000000000000000008152600401610e8390611c24565b60405180910390fd5b600073ffffffffffffffffffffffffffffffffffffffff168173ffffffffffffffffffffffffffffffffffffffff161415610efc576040517f08c379a0000000000000000000000000000000000000000000000000000000008152600401610ef390611ce4565b60405180910390fd5b80600060026101000a81548173ffffffffffffffffffffffffffffffffffffffff021916908373ffffffffffffffffffffffffffffffffffffffff16021790555050565b6000604051610f4e9061143f565b604051809103906000f080158015610f6a573d6000803e3d6000fd5b50905090565b6060600c60003373ffffffffffffffffffffffffffffffffffffffff1673ffffffffffffffffffffffffffffffffffffffff16815260200190815260200160002060009054906101000a900460ff16610ffe576040517f08c379a0000000000000000000000000000000000000000000000000000000008152600401610ff590611c24565b60405180910390fd5b3073ffffffffffffffffffffffffffffffffffffffff168773ffffffffffffffffffffffffffffffffffffffff16141561106d576040517f08c379a000000000000000000000000000000000000000000000000000000000815260040161106490611bc4565b60405180910390fd5b6000428410156110b2576040517f08c379a00000000000000000000000000000000000000000000000000000000081526004016110a990611b44565b60405180910390fd5b6110bb836111be565b8773ffffffffffffffffffffffffffffffffffffffff168787876040516110e3929190611a13565b60006040518083038185875af1925050503d8060008114611120576040519150601f19603f3d011682016040523d82523d6000602084013e611125565b606091505b5080935081925050508061113d573d6000803e3d6000fd5b7f7d2476ab50663f025cff0be85655bcf355f62768615c0c478f3cd5293f8073653389898989604051611174959493929190611a47565b60405180910390a1509695505050505050565b600c6020528060005260406000206000915054906101000a900460ff1681565b60015481565b60006111b83061142c565b15905090565b6000805b600a8110156112de5782600282600a8110611206577f4e487b7100000000000000000000000000000000000000000000000000000000600052603260045260246000fd5b01541415611249576040517f08c379a000000000000000000000000000000000000000000000000000000000815260040161124090611cc4565b60405180910390fd5b600282600a8110611283577f4e487b7100000000000000000000000000000000000000000000000000000000600052603260045260246000fd5b0154600282600a81106112bf577f4e487b7100000000000000000000000000000000000000000000000000000000600052603260045260246000fd5b015410156112cb578091505b80806112d690611ec2565b9150506111c2565b50600281600a8110611319577f4e487b7100000000000000000000000000000000000000000000000000000000600052603260045260246000fd5b015482101561135d576040517f08c379a000000000000000000000000000000000000000000000000000000000815260040161135490611b64565b60405180910390fd5b612710600282600a811061139a577f4e487b7100000000000000000000000000000000000000000000000000000000600052603260045260246000fd5b01546113a69190611dae565b8211156113e8576040517f08c379a00000000000000000000000000000000000000000000000000000000081526004016113df90611b84565b60405180910390fd5b81600282600a8110611423577f4e487b7100000000000000000000000000000000000000000000000000000000600052603260045260246000fd5b01819055505050565b600080823b905060008111915050919050565b61036d8061224183390190565b60008135905061145b816121fb565b92915050565b60008083601f84011261147357600080fd5b8235905067ffffffffffffffff81111561148c57600080fd5b6020830191508360208202830111156114a457600080fd5b9250929050565b60008083601f8401126114bd57600080fd5b8235905067ffffffffffffffff8111156114d657600080fd5b6020830191508360208202830111156114ee57600080fd5b9250929050565b60008135905061150481612212565b92915050565b60008083601f84011261151c57600080fd5b8235905067ffffffffffffffff81111561153557600080fd5b60208301915083600182028301111561154d57600080fd5b9250929050565b60008135905061156381612229565b92915050565b60006020828403121561157b57600080fd5b60006115898482850161144c565b91505092915050565b600080600080606085870312156115a857600080fd5b60006115b68782880161144c565b94505060206115c7878288016114f5565b935050604085013567ffffffffffffffff8111156115e457600080fd5b6115f08782880161150a565b925092505092959194509250565b6000806000806060858703121561161457600080fd5b60006116228782880161144c565b945050602061163387828801611554565b935050604085013567ffffffffffffffff81111561165057600080fd5b61165c8782880161150a565b925092505092959194509250565b60008060008060008060a0878903121561168357600080fd5b600061169189828a0161144c565b96505060206116a289828a01611554565b955050604087013567ffffffffffffffff8111156116bf57600080fd5b6116cb89828a0161150a565b945094505060606116de89828a01611554565b92505060806116ef89828a01611554565b9150509295509295509295565b6000806000806040858703121561171257600080fd5b600085013567ffffffffffffffff81111561172c57600080fd5b61173887828801611461565b9450945050602085013567ffffffffffffffff81111561175757600080fd5b611763878288016114ab565b925092505092959194509250565b61177a81611e38565b82525050565b61178981611e4a565b82525050565b600061179b8385611d81565b93506117a8838584611e80565b6117b183611f3a565b840190509392505050565b60006117c88385611d92565b93506117d5838584611e80565b82840190509392505050565b60006117ec82611d76565b6117f68185611d81565b9350611806818560208601611e8f565b61180f81611f3a565b840191505092915050565b6000611827601383611d9d565b915061183282611f4b565b602082019050919050565b600061184a603d83611d9d565b915061185582611f74565b604082019050919050565b600061186d603983611d9d565b915061187882611fc3565b604082019050919050565b6000611890602e83611d9d565b915061189b82612012565b604082019050919050565b60006118b3601583611d9d565b91506118be82612061565b602082019050919050565b60006118d6602483611d9d565b91506118e18261208a565b604082019050919050565b60006118f9601783611d9d565b9150611904826120d9565b602082019050919050565b600061191c601183611d9d565b915061192782612102565b602082019050919050565b600061193f601d83611d9d565b915061194a8261212b565b602082019050919050565b6000611962600083611d81565b915061196d82612154565b600082019050919050565b6000611985601083611d9d565b915061199082612157565b602082019050919050565b60006119a8601d83611d9d565b91506119b382612180565b602082019050919050565b60006119cb602083611d9d565b91506119d6826121a9565b602082019050919050565b60006119ee601383611d9d565b91506119f9826121d2565b602082019050919050565b611a0d81611e76565b82525050565b6000611a208284866117bc565b91508190509392505050565b6000602082019050611a416000830184611771565b92915050565b6000608082019050611a5c6000830188611771565b611a696020830187611771565b611a766040830186611a04565b8181036060830152611a8981848661178f565b90509695505050505050565b6000604082019050611aaa6000830186611771565b8181036020830152611abd81848661178f565b9050949350505050565b6000606082019050611adc6000830187611771565b611ae96020830186611a04565b8181036040830152611afc81848661178f565b905095945050505050565b6000602082019050611b1c6000830184611780565b92915050565b60006020820190508181036000830152611b3c81846117e1565b905092915050565b60006020820190508181036000830152611b5d8161181a565b9050919050565b60006020820190508181036000830152611b7d8161183d565b9050919050565b60006020820190508181036000830152611b9d81611860565b9050919050565b60006020820190508181036000830152611bbd81611883565b9050919050565b60006020820190508181036000830152611bdd816118a6565b9050919050565b60006020820190508181036000830152611bfd816118c9565b9050919050565b60006020820190508181036000830152611c1d816118ec565b9050919050565b60006020820190508181036000830152611c3d8161190f565b9050919050565b60006020820190508181036000830152611c5d81611932565b9050919050565b60006020820190508181036000830152611c7d81611955565b9050919050565b60006020820190508181036000830152611c9d81611978565b9050919050565b60006020820190508181036000830152611cbd8161199b565b9050919050565b60006020820190508181036000830152611cdd816119be565b9050919050565b60006020820190508181036000830152611cfd816119e1565b9050919050565b6000602082019050611d196000830184611a04565b92915050565b60008083356001602003843603038112611d3857600080fd5b80840192508235915067ffffffffffffffff821115611d5657600080fd5b602083019250600182023603831315611d6e57600080fd5b509250929050565b600081519050919050565b600082825260208201905092915050565b600081905092915050565b600082825260208201905092915050565b6000611db982611e76565b9150611dc483611e76565b9250827fffffffffffffffffffffffffffffffffffffffffffffffffffffffffffffffff03821115611df957611df8611f0b565b5b828201905092915050565b6000611e0f82611e76565b9150611e1a83611e76565b925082821015611e2d57611e2c611f0b565b5b828203905092915050565b6000611e4382611e56565b9050919050565b60008115159050919050565b600073ffffffffffffffffffffffffffffffffffffffff82169050919050565b6000819050919050565b82818337600083830152505050565b60005b83811015611ead578082015181840152602081019050611e92565b83811115611ebc576000848401525b50505050565b6000611ecd82611e76565b91507fffffffffffffffffffffffffffffffffffffffffffffffffffffffffffffffff821415611f0057611eff611f0b565b5b600182019050919050565b7f4e487b7100000000000000000000000000000000000000000000000000000000600052601160045260246000fd5b6000601f19601f8301169050919050565b7f5472616e73616374696f6e206578706972656400000000000000000000000000600082015250565b7f573a207468652073657175656e6365204944206265696e67207573656420697360008201527f206c6f77657220746861746e20746865206c6f776573742076616c7565000000602082015250565b7f573a20626c6f636b20736571756e65636520494420617265206d75636820686960008201527f676572207468616e20746865206c6f776573742076616c756500000000000000602082015250565b7f496e697469616c697a61626c653a20636f6e747261637420697320616c72656160008201527f647920696e697469616c697a6564000000000000000000000000000000000000602082015250565b7f573a2063616e6e27742063616c6c20697473656c660000000000000000000000600082015250565b7f573a20656d707479206d6f64756c6573206f72206e6f74206d6174636865642060008201527f6461746100000000000000000000000000000000000000000000000000000000602082015250565b7f4d6f64756c6520697320616c7265616479206164646564000000000000000000600082015250565b7f573a206d757374206265206d6f64756c65000000000000000000000000000000600082015250565b7f42573a2063616e6e6f742072656d6f7665206c617374206d6f64756c65000000600082015250565b50565b7f573a206d757374206265206f776e657200000000000000000000000000000000600082015250565b7f573a2077616c6c657420616c726561647920696e697469616c697a6564000000600082015250565b7f573a207468652073657175656e636520494420686173206265656e2075736564600082015250565b7f573a20696e76616c6964206e65774f776e657200000000000000000000000000600082015250565b61220481611e38565b811461220f57600080fd5b50565b61221b81611e4a565b811461222657600080fd5b50565b61223281611e76565b811461223d57600080fd5b5056fe608060405234801561001057600080fd5b50336000806101000a81548173ffffffffffffffffffffffffffffffffffffffff021916908373ffffffffffffffffffffffffffffffffffffffff16021790555061030d806100606000396000f3fe60806040526004361061002c5760003560e01c8062821de3146100d45780636b9f96ea146100ff5761002d565b5b60008054906101000a900473ffffffffffffffffffffffffffffffffffffffff1673ffffffffffffffffffffffffffffffffffffffff166108fc349081150290604051600060405180830381858888f19350505050158015610093573d6000803e3d6000fd5b507f69b31548dea9b3b707b4dff357d326e3e9348b24e7a6080a218a6edeeec48f9b33346000366040516100ca9493929190610218565b60405180910390a1005b3480156100e057600080fd5b506100e9610116565b6040516100f691906101fd565b60405180910390f35b34801561010b57600080fd5b5061011461013a565b005b60008054906101000a900473ffffffffffffffffffffffffffffffffffffffff1681565b60008054906101000a900473ffffffffffffffffffffffffffffffffffffffff1673ffffffffffffffffffffffffffffffffffffffff166108fc479081150290604051600060405180830381858888f193505050501580156101a0573d6000803e3d6000fd5b50565b6101ac8161027b565b82525050565b6101bb81610269565b82525050565b60006101cd8385610258565b93506101da8385846102b7565b6101e3836102c6565b840190509392505050565b6101f7816102ad565b82525050565b600060208201905061021260008301846101a3565b92915050565b600060608201905061022d60008301876101b2565b61023a60208301866101ee565b818103604083015261024d8184866101c1565b905095945050505050565b600082825260208201905092915050565b60006102748261028d565b9050919050565b60006102868261028d565b9050919050565b600073ffffffffffffffffffffffffffffffffffffffff82169050919050565b6000819050919050565b82818337600083830152505050565b6000601f19601f830116905091905056fea26469706673582212205ba1d2254142239b0c566e2b8dd2e2c647ed5d7e770d8b4015b7b1e04bec39e364736f6c63430008030033a26469706673582212205b2468f396cdeaa17f362be2dc1e4e69f06c312c9e3a584cd3d2f1ac4839658c64736f6c63430008030033",
  "linkReferences": {},
  "deployedLinkReferences": {}
}