{
  "_format": "hh-sol-artifact-1",
  "contractName": "Wallet",
  "sourceName": "contracts/Wallet.sol",
  "abi": [
    {
      "inputs": [],
      "stateMutability": "nonpayable",
      "type": "constructor"
    },
    {
      "anonymous": false,
      "inputs": [
        {
          "indexed": true,
          "internalType": "address",
          "name": "module",
          "type": "address"
        },
        {
          "indexed": false,
          "internalType": "bool",
          "name": "value",
          "type": "bool"
        }
      ],
      "name": "AuthorisedModule",
      "type": "event"
    },
    {
      "anonymous": false,
      "inputs": [
        {
          "indexed": false,
          "internalType": "address",
          "name": "from",
          "type": "address"
        },
        {
          "indexed": false,
          "internalType": "uint256",
          "name": "value",
          "type": "uint256"
        },
        {
          "indexed": false,
          "internalType": "bytes",
          "name": "data",
          "type": "bytes"
        }
      ],
      "name": "Deposited",
      "type": "event"
    },
    {
      "anonymous": false,
      "inputs": [
        {
          "indexed": false,
          "internalType": "address",
          "name": "from",
          "type": "address"
        },
        {
          "indexed": false,
          "internalType": "address",
          "name": "to",
          "type": "address"
        },
        {
          "indexed": false,
          "internalType": "uint256",
          "name": "value",
          "type": "uint256"
        },
        {
          "indexed": false,
          "internalType": "bytes",
          "name": "data",
          "type": "bytes"
        }
      ],
      "name": "Invoked",
      "type": "event"
    },
    {
      "anonymous": false,
      "inputs": [
        {
          "indexed": false,
          "internalType": "address",
          "name": "_newOwner",
          "type": "address"
        }
      ],
      "name": "OwnerReplaced",
      "type": "event"
    },
    {
      "anonymous": false,
      "inputs": [
        {
          "indexed": false,
          "internalType": "address",
          "name": "from",
          "type": "address"
        },
        {
          "indexed": false,
          "internalType": "address",
          "name": "to",
          "type": "address"
        },
        {
          "indexed": false,
          "internalType": "uint256",
          "name": "value",
          "type": "uint256"
        },
        {
          "indexed": false,
          "internalType": "bytes",
          "name": "data",
          "type": "bytes"
        }
      ],
      "name": "RawInvoked",
      "type": "event"
    },
    {
      "anonymous": false,
      "inputs": [
        {
          "indexed": true,
          "internalType": "uint256",
          "name": "value",
          "type": "uint256"
        },
        {
          "indexed": true,
          "internalType": "address",
          "name": "sender",
          "type": "address"
        },
        {
          "indexed": false,
          "internalType": "bytes",
          "name": "data",
          "type": "bytes"
        }
      ],
      "name": "Received",
      "type": "event"
    },
    {
      "anonymous": false,
      "inputs": [
        {
          "indexed": false,
          "internalType": "address",
          "name": "msgSender",
          "type": "address"
        }
      ],
      "name": "SafeModeActivated",
      "type": "event"
    },
    {
      "stateMutability": "payable",
      "type": "fallback"
    },
    {
      "inputs": [
        {
          "internalType": "address",
          "name": "_moduleRegistry",
          "type": "address"
        },
        {
          "internalType": "address",
          "name": "_module",
          "type": "address"
        },
        {
          "internalType": "bool",
          "name": "_value",
          "type": "bool"
        },
        {
          "internalType": "bytes",
          "name": "_data",
          "type": "bytes"
        }
      ],
      "name": "authoriseModule",
      "outputs": [],
      "stateMutability": "nonpayable",
      "type": "function"
    },
    {
      "inputs": [
        {
          "internalType": "address",
          "name": "",
          "type": "address"
        }
      ],
      "name": "authorised",
      "outputs": [
        {
          "internalType": "bool",
          "name": "",
          "type": "bool"
        }
      ],
      "stateMutability": "view",
      "type": "function"
    },
    {
      "inputs": [],
      "name": "getNextSequenceId",
      "outputs": [
        {
          "internalType": "uint256",
          "name": "",
          "type": "uint256"
        }
      ],
      "stateMutability": "view",
      "type": "function"
    },
    {
      "inputs": [
        {
          "internalType": "address[]",
          "name": "_modules",
          "type": "address[]"
        },
        {
          "internalType": "bytes[]",
          "name": "_data",
          "type": "bytes[]"
        }
      ],
      "name": "initialize",
      "outputs": [],
      "stateMutability": "nonpayable",
      "type": "function"
    },
    {
      "inputs": [
        {
          "internalType": "address",
          "name": "_target",
          "type": "address"
        },
        {
          "internalType": "uint256",
          "name": "_value",
          "type": "uint256"
        },
        {
          "internalType": "bytes",
          "name": "_data",
          "type": "bytes"
        },
        {
          "internalType": "uint256",
          "name": "_expireTime",
          "type": "uint256"
        },
        {
          "internalType": "uint256",
          "name": "_sequenceId",
          "type": "uint256"
        }
      ],
      "name": "invoke",
      "outputs": [
        {
          "internalType": "bytes",
          "name": "_result",
          "type": "bytes"
        }
      ],
      "stateMutability": "nonpayable",
      "type": "function"
    },
    {
      "inputs": [],
      "name": "modules",
      "outputs": [
        {
          "internalType": "uint256",
          "name": "",
          "type": "uint256"
        }
      ],
      "stateMutability": "view",
      "type": "function"
    },
    {
      "inputs": [],
      "name": "owner",
      "outputs": [
        {
          "internalType": "address",
          "name": "",
          "type": "address"
        }
      ],
      "stateMutability": "view",
      "type": "function"
    },
    {
      "inputs": [
        {
          "internalType": "address",
          "name": "_target",
          "type": "address"
        },
        {
          "internalType": "uint256",
          "name": "_value",
          "type": "uint256"
        },
        {
          "internalType": "bytes",
          "name": "_data",
          "type": "bytes"
        }
      ],
      "name": "raw_invoke",
      "outputs": [
        {
          "internalType": "bytes",
          "name": "_result",
          "type": "bytes"
        }
      ],
      "stateMutability": "nonpayable",
      "type": "function"
    },
    {
      "inputs": [
        {
          "internalType": "address",
          "name": "_newOwner",
          "type": "address"
        }
      ],
      "name": "replaceOwner",
      "outputs": [],
      "stateMutability": "nonpayable",
      "type": "function"
    }
  ],
  "bytecode": "0x608060405234801561001057600080fd5b506000805462010000330262010000600160b01b03199091161790556114788061003b6000396000f3fe6080604052600436106100865760003560e01c8063a39a45b711610059578063a39a45b714610184578063b14f6c83146101a4578063d6eb1bbf146101c4578063da38b20a14610204578063f7e80e981461022457610086565b8063280ada2a146100cd57806337f8d5ff146101035780638da5cb5b14610123578063a0b7967b14610161575b34156100cb577f6e89d517057028190560dd200cf6bf792842861353d1173761dfa362e1c133f033346000366040516100c294939291906112dc565b60405180910390a15b005b3480156100d957600080fd5b506100ed6100e83660046110fa565b61023a565b6040516100fa919061130e565b60405180910390f35b34801561010f57600080fd5b506100cb61011e3660046111bc565b610381565b34801561012f57600080fd5b50600054610149906201000090046001600160a01b031681565b6040516001600160a01b0390911681526020016100fa565b34801561016d57600080fd5b506101766107d1565b6040519081526020016100fa565b34801561019057600080fd5b506100cb61019f366004611063565b610853565b3480156101b057600080fd5b506100ed6101bf366004611152565b61092c565b3480156101d057600080fd5b506101f46101df366004611063565b600c6020526000908152604090205460ff1681565b60405190151581526020016100fa565b34801561021057600080fd5b506100cb61021f366004611084565b610abb565b34801561023057600080fd5b5061017660015481565b336000908152600c602052604090205460609060ff166102755760405162461bcd60e51b815260040161026c90611361565b60405180910390fd5b6001600160a01b0385163014156102c65760405162461bcd60e51b81526020600482015260156024820152742b9d1031b0b73713ba1031b0b6361034ba39b2b63360591b604482015260640161026c565b6000856001600160a01b03168585856040516102e392919061125f565b60006040518083038185875af1925050503d8060008114610320576040519150601f19603f3d011682016040523d82523d6000602084013e610325565b606091505b509250905080610339573d6000803e3d6000fd5b7f7d6bc4cf1e57c4137ae3c31041a66da66af567fee2a57ef75a12ef9fd0ac31ae338787878760405161037095949392919061126f565b60405180910390a150949350505050565b600054610100900460ff168061039a575060005460ff16155b6103fd5760405162461bcd60e51b815260206004820152602e60248201527f496e697469616c697a61626c653a20636f6e747261637420697320616c72656160448201526d191e481a5b9a5d1a585b1a5e995960921b606482015260840161026c565b600054610100900460ff1615801561041f576000805461ffff19166101011790555b6000546201000090046001600160a01b03161561047e5760405162461bcd60e51b815260206004820152601d60248201527f573a2077616c6c657420616c726561647920696e697469616c697a6564000000604482015260640161026c565b831580159061048c57508382145b6104e45760405162461bcd60e51b8152602060048201526024808201527f573a20656d707479206d6f64756c6573206f72206e6f74206d617463686564206044820152636461746160e01b606482015260840161026c565b60018490556000805462010000600160b01b0319163362010000021781555b8481101561076357600c600087878481811061052f57634e487b7160e01b600052603260045260246000fd5b90506020020160208101906105449190611063565b6001600160a01b0316815260208101919091526040016000205460ff16156105ae5760405162461bcd60e51b815260206004820152601760248201527f4d6f64756c6520697320616c7265616479206164646564000000000000000000604482015260640161026c565b6001600c60008888858181106105d457634e487b7160e01b600052603260045260246000fd5b90506020020160208101906105e99190611063565b6001600160a01b031681526020810191909152604001600020805460ff191691151591909117905585858281811061063157634e487b7160e01b600052603260045260246000fd5b90506020020160208101906106469190611063565b6001600160a01b031663c0d91eaf3086868581811061067557634e487b7160e01b600052603260045260246000fd5b9050602002810190610687919061138c565b6040518463ffffffff1660e01b81526004016106a5939291906112ae565b600060405180830381600087803b1580156106bf57600080fd5b505af11580156106d3573d6000803e3d6000fd5b505050508585828181106106f757634e487b7160e01b600052603260045260246000fd5b905060200201602081019061070c9190611063565b6001600160a01b03167f8da3ff870ae294081392139550e167f1f31f277f22015ee22fbffdbd7758f4e16001604051610749911515815260200190565b60405180910390a28061075b81611400565b915050610503565b5047156107b85760006001600160a01b0316477f606834f57405380c4fb88d1f4850326ad3885f014bab3b568dfbf7a041eef7386040516107af90602080825260009082015260400190565b60405180910390a35b80156107ca576000805461ff00191690555b5050505050565b600080805b600a8110156108415781600282600a811061080157634e487b7160e01b600052603260045260246000fd5b0154111561082f57600281600a811061082a57634e487b7160e01b600052603260045260246000fd5b015491505b8061083981611400565b9150506107d6565b5061084d8160016113d1565b91505090565b336000908152600c602052604090205460ff166108825760405162461bcd60e51b815260040161026c90611361565b6001600160a01b0381166108ce5760405162461bcd60e51b81526020600482015260136024820152722b9d1034b73b30b634b2103732bba7bbb732b960691b604482015260640161026c565b6000805462010000600160b01b031916620100006001600160a01b038416908102919091179091556040519081527f69117d1af63e1cf10d1fdb06d265e57df3e461a02525c1b3496aadabc10362f59060200160405180910390a150565b336000908152600c602052604090205460609060ff1661095e5760405162461bcd60e51b815260040161026c90611361565b6001600160a01b0387163014156109af5760405162461bcd60e51b81526020600482015260156024820152742b9d1031b0b73713ba1031b0b6361034ba39b2b63360591b604482015260640161026c565b6000428410156109f75760405162461bcd60e51b8152602060048201526013602482015272151c985b9cd858dd1a5bdb88195e1c1a5c9959606a1b604482015260640161026c565b610a0083610d77565b876001600160a01b0316878787604051610a1b92919061125f565b60006040518083038185875af1925050503d8060008114610a58576040519150601f19603f3d011682016040523d82523d6000602084013e610a5d565b606091505b509250905080610a71573d6000803e3d6000fd5b7f7d2476ab50663f025cff0be85655bcf355f62768615c0c478f3cd5293f8073653389898989604051610aa895949392919061126f565b60405180910390a1509695505050505050565b604051630bcd4ebb60e01b815233600482015285906001600160a01b03821690630bcd4ebb9060240160206040518083038186803b158015610afc57600080fd5b505afa158015610b10573d6000803e3d6000fd5b505050506040513d601f19601f82011682018060405250810190610b349190611219565b610b805760405162461bcd60e51b815260206004820152601b60248201527f573a206d6f64756c65206973206e6f7420726567697374657265640000000000604482015260640161026c565b6001600160a01b0385166000908152600c602052604090205460ff16151584151514610d6f57846001600160a01b03167f8da3ff870ae294081392139550e167f1f31f277f22015ee22fbffdbd7758f4e185604051610be3911515815260200190565b60405180910390a260018415151415610c8c576001806000828254610c0891906113d1565b90915550506001600160a01b0385166000818152600c602052604090819020805460ff191660011790555163c0d91eaf60e01b815263c0d91eaf90610c55903090879087906004016112ae565b600060405180830381600087803b158015610c6f57600080fd5b505af1158015610c83573d6000803e3d6000fd5b50505050610d6f565b6001806000828254610c9e91906113e9565b9091555050600154610cf25760405162461bcd60e51b815260206004820152601d60248201527f42573a2063616e6e6f742072656d6f7665206c617374206d6f64756c65000000604482015260640161026c565b60405163a063246160e01b815230600482015285906001600160a01b0382169063a063246190602401600060405180830381600087803b158015610d3557600080fd5b505af1158015610d49573d6000803e3d6000fd5b5050506001600160a01b0387166000908152600c60205260409020805460ff1916905550505b505050505050565b6000805b600a811015610e585782600282600a8110610da657634e487b7160e01b600052603260045260246000fd5b01541415610df65760405162461bcd60e51b815260206004820181905260248201527f573a207468652073657175656e636520494420686173206265656e2075736564604482015260640161026c565b600282600a8110610e1757634e487b7160e01b600052603260045260246000fd5b0154600282600a8110610e3a57634e487b7160e01b600052603260045260246000fd5b01541015610e46578091505b80610e5081611400565b915050610d7b565b50600281600a8110610e7a57634e487b7160e01b600052603260045260246000fd5b0154821015610ef15760405162461bcd60e51b815260206004820152603d60248201527f573a207468652073657175656e6365204944206265696e67207573656420697360448201527f206c6f77657220746861746e20746865206c6f776573742076616c7565000000606482015260840161026c565b600281600a8110610f1257634e487b7160e01b600052603260045260246000fd5b0154610f20906127106113d1565b821115610f955760405162461bcd60e51b815260206004820152603960248201527f573a20626c6f636b20736571756e65636520494420617265206d75636820686960448201527f676572207468616e20746865206c6f776573742076616c756500000000000000606482015260840161026c565b81600282600a8110610fb757634e487b7160e01b600052603260045260246000fd5b01555050565b80356001600160a01b0381168114610fd457600080fd5b919050565b60008083601f840112610fea578182fd5b50813567ffffffffffffffff811115611001578182fd5b6020830191508360208260051b850101111561101c57600080fd5b9250929050565b60008083601f840112611034578182fd5b50813567ffffffffffffffff81111561104b578182fd5b60208301915083602082850101111561101c57600080fd5b600060208284031215611074578081fd5b61107d82610fbd565b9392505050565b60008060008060006080868803121561109b578081fd5b6110a486610fbd565b94506110b260208701610fbd565b935060408601356110c281611431565b9250606086013567ffffffffffffffff8111156110dd578182fd5b6110e988828901611023565b969995985093965092949392505050565b6000806000806060858703121561110f578384fd5b61111885610fbd565b935060208501359250604085013567ffffffffffffffff81111561113a578283fd5b61114687828801611023565b95989497509550505050565b60008060008060008060a0878903121561116a578081fd5b61117387610fbd565b955060208701359450604087013567ffffffffffffffff811115611195578182fd5b6111a189828a01611023565b979a9699509760608101359660809091013595509350505050565b600080600080604085870312156111d1578384fd5b843567ffffffffffffffff808211156111e8578586fd5b6111f488838901610fd9565b9096509450602087013591508082111561120c578384fd5b5061114687828801610fd9565b60006020828403121561122a578081fd5b815161107d81611431565b60008284528282602086013780602084860101526020601f19601f85011685010190509392505050565b6000828483379101908152919050565b6001600160a01b03868116825285166020820152604081018490526080606082018190526000906112a39083018486611235565b979650505050505050565b6001600160a01b03841681526040602082018190526000906112d39083018486611235565b95945050505050565b600060018060a01b038616825284602083015260606040830152611304606083018486611235565b9695505050505050565b6000602080835283518082850152825b8181101561133a5785810183015185820160400152820161131e565b8181111561134b5783604083870101525b50601f01601f1916929092016040019392505050565b602080825260119082015270573a206d757374206265206d6f64756c6560781b604082015260600190565b6000808335601e198436030181126113a2578283fd5b83018035915067ffffffffffffffff8211156113bc578283fd5b60200191503681900382131561101c57600080fd5b600082198211156113e4576113e461141b565b500190565b6000828210156113fb576113fb61141b565b500390565b60006000198214156114145761141461141b565b5060010190565b634e487b7160e01b600052601160045260246000fd5b801515811461143f57600080fd5b5056fea2646970667358221220c12b04a55cef087fa03583b9ec7324dc7f4f5b01e548ca244c01affb26ce974c64736f6c63430008030033",
  "linkReferences": {},
  "deployedLinkReferences": {}
}