{
  "_format": "hh-sol-artifact-1",
  "contractName": "Swap",
  "sourceName": "contracts/Swap.sol",
  "abi": [
    {
      "inputs": [
        {
          "internalType": "address",
          "name": "_swapRouter",
          "type": "address"
        }
      ],
      "stateMutability": "nonpayable",
      "type": "constructor"
    },
    {
      "anonymous": false,
      "inputs": [
        {
          "indexed": false,
          "internalType": "uint256",
          "name": "amountIn",
          "type": "uint256"
        },
        {
          "indexed": false,
          "internalType": "uint256",
          "name": "amountOut",
          "type": "uint256"
        }
      ],
      "name": "SwapDone",
      "type": "event"
    },
    {
      "inputs": [
        {
          "internalType": "address",
          "name": "_tokenIn",
          "type": "address"
        },
        {
          "internalType": "address",
          "name": "_tokenInter",
          "type": "address"
        },
        {
          "internalType": "address",
          "name": "_tokenOut",
          "type": "address"
        },
        {
          "internalType": "uint24",
          "name": "_fee1",
          "type": "uint24"
        },
        {
          "internalType": "uint24",
          "name": "_fee2",
          "type": "uint24"
        },
        {
          "internalType": "uint256",
          "name": "_amountIn",
          "type": "uint256"
        },
        {
          "internalType": "uint256",
          "name": "_amountMinOut",
          "type": "uint256"
        }
      ],
      "name": "swapExactInputMultihop",
      "outputs": [],
      "stateMutability": "nonpayable",
      "type": "function"
    },
    {
      "inputs": [
        {
          "internalType": "address",
          "name": "_tokenIn",
          "type": "address"
        },
        {
          "internalType": "address",
          "name": "_tokenOut",
          "type": "address"
        },
        {
          "internalType": "uint24",
          "name": "_fee",
          "type": "uint24"
        },
        {
          "internalType": "uint256",
          "name": "_amountIn",
          "type": "uint256"
        },
        {
          "internalType": "uint256",
          "name": "_amountMinOut",
          "type": "uint256"
        }
      ],
      "name": "swapExactInputSingle",
      "outputs": [],
      "stateMutability": "nonpayable",
      "type": "function"
    },
    {
      "inputs": [
        {
          "internalType": "address",
          "name": "_tokenIn",
          "type": "address"
        },
        {
          "internalType": "address",
          "name": "_tokenInter",
          "type": "address"
        },
        {
          "internalType": "address",
          "name": "_tokenOut",
          "type": "address"
        },
        {
          "internalType": "uint24",
          "name": "_fee1",
          "type": "uint24"
        },
        {
          "internalType": "uint24",
          "name": "_fee2",
          "type": "uint24"
        },
        {
          "internalType": "uint256",
          "name": "_amountOut",
          "type": "uint256"
        },
        {
          "internalType": "uint256",
          "name": "_amountInMax",
          "type": "uint256"
        }
      ],
      "name": "swapExactOutputMultihop",
      "outputs": [],
      "stateMutability": "nonpayable",
      "type": "function"
    },
    {
      "inputs": [
        {
          "internalType": "address",
          "name": "_tokenIn",
          "type": "address"
        },
        {
          "internalType": "address",
          "name": "_tokenOut",
          "type": "address"
        },
        {
          "internalType": "uint24",
          "name": "_fee",
          "type": "uint24"
        },
        {
          "internalType": "uint256",
          "name": "_amountOut",
          "type": "uint256"
        },
        {
          "internalType": "uint256",
          "name": "_amountInMax",
          "type": "uint256"
        }
      ],
      "name": "swapExactOutputSingle",
      "outputs": [],
      "stateMutability": "nonpayable",
      "type": "function"
    },
    {
      "inputs": [],
      "name": "swapRouter",
      "outputs": [
        {
          "internalType": "contract ISwapRouter",
          "name": "",
          "type": "address"
        }
      ],
      "stateMutability": "view",
      "type": "function"
    },
    {
      "stateMutability": "payable",
      "type": "receive"
    }
  ],
  "bytecode": "0x608060405234801561001057600080fd5b50604051610d5b380380610d5b83398101604081905261002f91610054565b600080546001600160a01b0319166001600160a01b0392909216919091179055610084565b60006020828403121561006657600080fd5b81516001600160a01b038116811461007d57600080fd5b9392505050565b610cc8806100936000396000f3fe60806040526004361061004e5760003560e01c806365650ea11461005a578063666e605f1461007c578063c0c424021461009c578063c31c9c07146100bc578063ccdc1e89146100f857600080fd5b3661005557005b600080fd5b34801561006657600080fd5b5061007a610075366004610a10565b610118565b005b34801561008857600080fd5b5061007a610097366004610998565b610263565b3480156100a857600080fd5b5061007a6100b7366004610998565b610399565b3480156100c857600080fd5b506000546100dc906001600160a01b031681565b6040516001600160a01b03909116815260200160405180910390f35b34801561010457600080fd5b5061007a610113366004610a10565b6104f4565b61012485333085610661565b60005461013c9086906001600160a01b031684610770565b6000604051806101000160405280876001600160a01b03168152602001866001600160a01b031681526020018562ffffff168152602001336001600160a01b0316815260200142607861018f9190610bfd565b8152602081018590526040808201859052600060609092018290528154905163414bf38960e01b815292935090916001600160a01b039091169063414bf389906101dd908590600401610b8d565b602060405180830381600087803b1580156101f757600080fd5b505af115801561020b573d6000803e3d6000fd5b505050506040513d601f19601f8201168201806040525081019061022f9190610a8e565b6040805186815260208101839052919250600080516020610c7383398151915291015b60405180910390a150505050505050565b61026f87333085610661565b6000546102879088906001600160a01b031684610770565b6040805160a08101909152600090806102a78a888b898c60c08701610b0c565b60408051601f19818403018152918152908252336020830152016102cc426078610bfd565b815260208101859052604090810184905260008054915163c04b8d5960e01b8152929350916001600160a01b039091169063c04b8d5990610311908590600401610b7a565b602060405180830381600087803b15801561032b57600080fd5b505af115801561033f573d6000803e3d6000fd5b505050506040513d601f19601f820116820180604052508101906103639190610a8e565b6040805186815260208101839052919250600080516020610c7383398151915291015b60405180910390a1505050505050505050565b6103a587333084610661565b6000546103bd9088906001600160a01b031683610770565b6040805160a08101909152600090806103dd88878b8a8e60c08701610b0c565b60408051601f1981840301815291815290825233602083015201610402426078610bfd565b8152602081018590526040908101849052600080549151631e51809360e31b8152929350916001600160a01b039091169063f28c049890610447908590600401610b7a565b602060405180830381600087803b15801561046157600080fd5b505af1158015610475573d6000803e3d6000fd5b505050506040513d601f19601f820116820180604052508101906104999190610a8e565b9050828110156104d057600080546104bc918b916001600160a01b031690610770565b6104d089336104cb8487610c15565b610870565b6040805182815260208101869052600080516020610c738339815191529101610386565b61050085333084610661565b6000546105189086906001600160a01b031683610770565b6000604051806101000160405280876001600160a01b03168152602001866001600160a01b031681526020018562ffffff168152602001336001600160a01b0316815260200142607861056b9190610bfd565b81526020810185905260408082018590526000606090920182905281549051631b67c43360e31b815292935090916001600160a01b039091169063db3e2198906105b9908590600401610b8d565b602060405180830381600087803b1580156105d357600080fd5b505af11580156105e7573d6000803e3d6000fd5b505050506040513d601f19601f8201168201806040525081019061060b9190610a8e565b90508281101561063d576000805461062e9189916001600160a01b031690610770565b61063d87336104cb8487610c15565b6040805182815260208101869052600080516020610c738339815191529101610252565b604080516001600160a01b0385811660248301528481166044830152606480830185905283518084039091018152608490920183526020820180516001600160e01b03166323b872dd60e01b17905291516000928392908816916106c59190610b5e565b6000604051808303816000865af19150503d8060008114610702576040519150601f19603f3d011682016040523d82523d6000602084013e610707565b606091505b50915091508180156107315750805115806107315750808060200190518101906107319190610a65565b6107685760405162461bcd60e51b815260206004820152600360248201526229aa2360e91b60448201526064015b60405180910390fd5b505050505050565b604080516001600160a01b038481166024830152604480830185905283518084039091018152606490920183526020820180516001600160e01b031663095ea7b360e01b17905291516000928392908716916107cc9190610b5e565b6000604051808303816000865af19150503d8060008114610809576040519150601f19603f3d011682016040523d82523d6000602084013e61080e565b606091505b50915091508180156108385750805115806108385750808060200190518101906108389190610a65565b6108695760405162461bcd60e51b8152602060048201526002602482015261534160f01b604482015260640161075f565b5050505050565b604080516001600160a01b038481166024830152604480830185905283518084039091018152606490920183526020820180516001600160e01b031663a9059cbb60e01b17905291516000928392908716916108cc9190610b5e565b6000604051808303816000865af19150503d8060008114610909576040519150601f19603f3d011682016040523d82523d6000602084013e61090e565b606091505b50915091508180156109385750805115806109385750808060200190518101906109389190610a65565b6108695760405162461bcd60e51b815260206004820152600260248201526114d560f21b604482015260640161075f565b80356001600160a01b038116811461098057600080fd5b919050565b803562ffffff8116811461098057600080fd5b600080600080600080600060e0888a0312156109b357600080fd5b6109bc88610969565b96506109ca60208901610969565b95506109d860408901610969565b94506109e660608901610985565b93506109f460808901610985565b925060a0880135915060c0880135905092959891949750929550565b600080600080600060a08688031215610a2857600080fd5b610a3186610969565b9450610a3f60208701610969565b9350610a4d60408701610985565b94979396509394606081013594506080013592915050565b600060208284031215610a7757600080fd5b81518015158114610a8757600080fd5b9392505050565b600060208284031215610aa057600080fd5b5051919050565b6000815160a0845280518060a0860152610ac88160c0870160208501610c2c565b6020848101516001600160a01b0316908601526040808501519086015260608085015190860152608093840151938501939093525050601f01601f19160160c00190565b6bffffffffffffffffffffffff19606096871b811682526001600160e81b031960e896871b8116601484015294871b811660178301529290941b909216602b840152921b909116602e82015260420190565b60008251610b70818460208701610c2c565b9190910192915050565b602081526000610a876020830184610aa7565b6101008101610bf7828480516001600160a01b03908116835260208083015182169084015260408083015162ffffff16908401526060808301518216908401526080808301519084015260a0828101519084015260c0808301519084015260e09182015116910152565b92915050565b60008219821115610c1057610c10610c5c565b500190565b600082821015610c2757610c27610c5c565b500390565b60005b83811015610c47578181015183820152602001610c2f565b83811115610c56576000848401525b50505050565b634e487b7160e01b600052601160045260246000fdfec1b97687ea4e9ed33df69da0ec9eb95ad3783d25b168033833fba064f4fb435aa26469706673582212205ba6f0bf3241bcad1933588523d116fc4b40fd9606267d9d1a1f5a2324c2d56164736f6c63430008060033",
  "linkReferences": {},
  "deployedLinkReferences": {}
}